:10000000A3C30000D1C30000CFC30000CDC30000D4
:10001000CBC30000C9C30000C7C30000C5C30000B4
:10002000C3C30000C1C30000BFC30000BDC30000C4
:10003000BBC30000B9C30000B7C30000B5C30000D4
:10004000B3C30000B1C30000AFC30000ADC30000E4
:10005000ABC30000A9C30000A7C300000C94300884
:10006000A3C30000D7C600000BC700009DC300005B
:100070009BC3000099C3000097C3000095C3000014
:1000800093C3000091C300008FC300008DC3000024
:100090008BC3000089C3000087C300000C94A91C17
:1000A00083C3000081C300007FC300007DC3000044
:1000B0007BC3000079C3000077C3000075C3000054
:1000C00073C3000071C300006FC300006DC3000064
:1000D0006BC3000069C3000067C3000065C3000074
:1000E00063C3000060096309520956095C099A0953
:1000F00067096B097109750979097F0983098709FE
:100100009A098D0991099509414D47383878782029
:10011000746865726D616C2063616D657261210048
:1001200000000A0B02090C0D0E0807030401000071
:1001300000000000000000000000000000000000BF
:10014000000000000000000000000000121110007C
:10015000000000000000000000000000000000009F
:1001600000000000000001021020200808102040BC
:10017000102040800201020108040201010204086B
:1001800010204080804020100804020180040201F9
:100190008040201008040201080402010102040842
:1001A000102040800102040810204080050505054C
:1001B000070508080808020202020A0A08080404DF
:1001C000040401010101010101010303030303030D
:1001D0000303040707070C0C0C0C0C0C0C0C02029C
:1001E000020206060606060606060B0B0B0B0B0B99
:1001F0000B0B000020002300260029002C002F00FC
:100200003200000100000301060109010000220084
:10021000250028002B002E003100340002010000D0
:10022000050108010B0100002100240027002A001D
:100230002D003000330001010000040107010A0114
:1002400000000000003E5B4F5B3E3E6B4F6B3E1C70
:100250003E7C3E1C183C7E3C181C577D571C1C5E87
:100260007F5E1C00183C1800FFE7C3E7FF0018245E
:100270001800FFE7DBE7FF30483A060E2629792908
:1002800026407F050507407F05253F5A3CE73C5A3D
:100290007F3E1C1C08081C1C3E7F14227F22145F1A
:1002A0005F005F5F06097F017F006689956A606075
:1002B00060606094A2FFA29408047E040810207E6F
:1002C000201008082A1C08081C2A08081E101010F4
:1002D000100C1E0C1E0C30383E3830060E3E0E063A
:1002E000000000000000005F00000007000700148D
:1002F0007F147F14242A7F2A12231308646236494C
:100300005620500008070300001C22410000412233
:100310001C002A1C7F1C2A08083E08080080703038
:1003200000080808080800006060002010080402A7
:100330003E5149453E00427F4000724949494621AD
:1003400041494D331814127F1027454545393C4A21
:100350004949314121110907364949493646494938
:10036000291E000014000000403400000008142280
:1003700041141414141400412214080201590906EE
:100380003E415D594E7C1211127C7F494949363EEF
:10039000414141227F4141413E7F494949417F09D5
:1003A0000909013E414151737F0808087F00417FE0
:1003B00041002040413F017F081422417F404040DE
:1003C000407F021C027F7F0408107F3E4141413E76
:1003D0007F090909063E4151215E7F0919294626F8
:1003E0004949493203017F01033F4040403F1F20FC
:1003F00040201F3F4038403F6314081463030478D3
:1004000004036159494D43007F41414102040810F2
:1004100020004141417F040201020440404040402D
:10042000000307080020545478407F28444438389B
:1004300044444428384444287F385454541800080D
:100440007E090218A4A49C787F0804047800447DE7
:1004500040002040403D007F1028440000417F4084
:10046000007C047804787C080404783844444438D8
:10047000FC1824241818242418FC7C0804040848B8
:100480005454542404043F44243C4040207C1C2009
:1004900040201C3C4030403C44281028444C909064
:1004A000907C4464544C44000836410000007700BE
:1004B00000004136080002010204023C2623263CCB
:1004C0001EA1A161123A4040207A38545455592156
:1004D000555579412254547842215554784020543E
:1004E0005579400C1E52721239555555593954548C
:1004F000545939555454580000457C410002457DFB
:10050000420001457C407D1211127DF0282528F023
:100510007C545545002054547C547C0A097F493250
:10052000494949323A4444443A324A4848303A41C7
:1005300041217A3A42402078009DA0A07D3D424270
:10054000423D3D4040403D3C24FF2424487E4943F9
:10055000662B2FFC2F2BFF0929F620C0887E09036C
:1005600020545479410000447D413048484A323893
:100570004040227A007A0A0A727D0D19317D2629BF
:10058000292F28262929292630484D4020380808B7
:10059000080808080808382F10C8ACBA2F102834EB
:1005A000FA00007B000008142A142222142A1408DE
:1005B0005500550055AA55AA55AAFF55FF55FF00ED
:1005C0000000FF00101010FF00141414FF001010A2
:1005D000FF00FF1010F010F0141414FC001414F7B6
:1005E00000FF0000FF00FF1414F404FC14141710A3
:1005F0001F10101F101F1414141F00101010F000F3
:100600000000001F101010101F10101010F010002C
:100610000000FF101010101010101010FF1000003C
:1006200000FF140000FF00FF00001F10170000FC77
:1006300004F414141710171414F404F40000FF0049
:10064000F714141414141414F700F71414141714D2
:1006500010101F101F141414F4141010F010F000D8
:10066000001F101F0000001F14000000FC140000F9
:10067000F010F01010FF10FF141414FF14101010DD
:100680001F00000000F010FFFFFFFFFFF0F0F0F090
:10069000F0FFFFFF0000000000FFFF0F0F0F0F0F24
:1006A0003844443844FC4A4A4A347E020206060270
:1006B0007E027E0263554941633844443C04407ED7
:1006C000201E2006027E020299A5E7A5991C2A4950
:1006D0002A1C4C7201724C304A4D4D3030487848DB
:1006E00030BC625A463D3E494949007E0101017EC7
:1006F0002A2A2A2A2A44445F444440514A4440401A
:10070000444A51400000FF0103E080FF0000080858
:100710006B6B083612362436060F090F06000018D8
:10072000180000001010003040FF0101001F0101FF
:100730001E00191D1712003C3C3C3C00000000004C
:100740003B04D4047207B60E11241FBECFEFD1E2D2
:10075000DEBFCDBF00E00CBF13E0A0E0B2E0EEEAE8
:10076000FDE300E00BBF02C007900D92A234B10779
:10077000D9F726E0A2E4B3E001C01D92AC31B20784
:10078000E1F713E0C4EAD3E000E006C021970109D5
:10079000802FFE010E949A1EC03AD10780E0080710
:1007A000A9F7CED30C94D51E2BCC60E08FE1C3D536
:1007B00026E040E855E260E070E08DEA94E0C1D2C6
:1007C00068E071E08DEA94E02BD466C00F931F932C
:1007D000CF93DF93CAE0D0E08EE493E00E94230D34
:1007E000080F191F2197C1F7C8016AE070E00E9445
:1007F000651ECB01DF91CF911F910F910895CF938B
:10080000C82F8EE493E00E94230D909347038093BA
:1008100046038FE1FAD5909345038093440381E02A
:1008200090E090934303809342034DD0209348037C
:100830003093490340934A0350934B0360934C0316
:1008400070934D03C73008F002C081E090E0CF9173
:10085000089580910002823068F0823049F4CFDF41
:10086000892B41F4B3DF9093020280930102089533
:100870001092000208950F931F9300EA1FE024E1F5
:1008800030E04BE150E06DE170E08EE493E00E94D7
:10089000C80C1F910F91089569E686E593E020D674
:1008A000811106C063E072E08DEA94E0C9D3FFCF06
:1008B00068E372E08DEA94E0C3D364E670E080E020
:1008C00090E03DC408958F929F92AF92BF92CF92D5
:1008D000DF92EF92FF920F931F93CF93DF9300D09D
:1008E00000D0CDB7DEB740E46DEA73E086E593E073
:1008F0006ED68DEAC82E83E0D82E00E010E0E12C01
:10090000F12CF60181909190A190B1906F01B80106
:10091000012E000C880B990B80D09B01AC01C50106
:10092000B401DFD0181624F4C501B40143D08B0103
:1009300020E030E048EB51E4C501B401D2D087FD9E
:1009400003C0FFEFEF1AFF0A8DEAC81684E0D8064D
:10095000C1F60831110544F061E080E095E0E91648
:10096000F10424F460E002C060E080E01A830983AF
:10097000FC82EB82202F3A814E2D5C81782F80E023
:1009800090E026960FB6F894DEBF0FBECDBFDF9184
:10099000CF911F910F91FF90EF90DF90CF90BF907C
:1009A000AF909F908F90089520E341E365E386E642
:1009B00093E011C704D06894B1118DC0089570D030
:1009C00088F09F5790F0B92F9927B751A0F0D1F038
:1009D000660F771F881F991F1AF0BA95C9F712C0C2
:1009E000B13081F077D0B1E0089574C0672F782FCF
:1009F0008827B85F39F0B93FCCF38695779567952E
:100A0000B395D9F73EF490958095709561957F4F99
:100A10008F4F9F4F0895E89409C097FB3EF490953F
:100A20008095709561957F4F8F4F9F4F9923A9F0C7
:100A3000F92F96E9BB279395F69587957795679556
:100A4000B795F111F8CFFAF4BB0F11F460FF1BC09A
:100A50006F5F7F4F8F4F9F4F16C0882311F096E92D
:100A600011C0772321F09EE8872F762F05C06623DB
:100A700071F096E8862F70E060E02AF09A95660F94
:100A8000771F881FDAF7880F9695879597F908954D
:100A900057FD9058440F551F59F05F3F71F047952F
:100AA000880F97FB991F61F09F3F79F08795089514
:100AB000121613061406551FF2CF4695F1DF08C033
:100AC000161617061806991FF1CF86957105610550
:100AD00008940895E894BB2766277727CB0197F9F8
:100AE000089503D008F48FEF0895990F0008550F6B
:100AF000AA0BE0E8FEEF16161706E807F907C0F0A4
:100B000012161306E407F50798F0621B730B840BAB
:100B1000950B39F40A2661F0232B242B252B21F485
:100B200008950A2609F4A140A6958FEF811D811D25
:100B30000895FC01918D228D892F90E0805C9F4F5C
:100B4000821B91098F7399270895FC01918D828DE5
:100B5000981731F0828DE80FF11D858D90E0089592
:100B60008FEF9FEF0895FC01918D828D981761F0B2
:100B7000828DDF01A80FB11D5D968C91928D9F5FD4
:100B80009F73928F90E008958FEF9FEF0895FC017F
:100B9000538D448D252F30E0842F90E0821B930BE2
:100BA000541710F0CF9608950197089589E697E0BD
:100BB000892B39F080E090E0892B19F08AD18111DE
:100BC00025C080E090E0892B41F080E090E0892B07
:100BD00021F00E94000081111CC080E090E0892B70
:100BE00041F080E090E0892B21F00E94000081110B
:100BF00013C080E090E0892BA1F080E090E0892B89
:100C000081F00E94000081110AC008950E94000036
:100C1000D8CF0E940000E1CF0E940000EACF0C94E0
:100C200000000895FC01848DDF01A80FB11DA35AB7
:100C3000BF4F2C91848D90E001968F739927848FFC
:100C4000A689B7892C93A089B1898C91837080641F
:100C50008C93938D848D981306C00288F389E02DC0
:100C600080818F7D80830895EF92FF920F931F9371
:100C7000CF93DF93EC0181E0888F9B8D8C8D98134F
:100C800005C0E889F989808185FD25C0F62E0B8D88
:100C900010E00F5F1F4F0F731127E02E8C8DE812AD
:100CA0000BC00FB607FCFACFE889F989808185FF70
:100CB000F5CFCE01B7DFF2CF8B8DFE01E80FF11D2E
:100CC000E35AFF4FF0829FB7F8940B8FEA89FB89B4
:100CD000808180620AC09FB7F894EE89FF896083A3
:100CE000E889F98980818370806480839FBF81E077
:100CF00090E0DF91CF911F910F91FF90EF900895B9
:100D0000CF93DF93EC01888D8823C1F0EA89FB89BA
:100D1000808185FD05C0A889B9898C9186FD0EC0AA
:100D20000FB607FCF5CF808185FFF2CFA889B9897E
:100D30008C9185FFEDCFCE0175DFE8CFDF91CF91AC
:100D40000895CF92DF92EF92FF921F93CF93DF939C
:100D5000EC016A017B01122FE889F98982E0808326
:100D60004115514E61057105B1F060E079E08DE308
:100D700090E0A70196010E94781EDA01C90101974F
:100D8000A109B109B695A795979587959C0121155D
:100D900080E13807A8F0E889F989108260E874E8F2
:100DA0008EE190E0A70196010E94781EDA01C90148
:100DB0000197A109B109B695A795979587959C01CB
:100DC000EC85FD853083EE85FF852083188EEC89C8
:100DD000FD891083EA89FB89808180618083EA89AB
:100DE000FB89808188608083EA89FB8980818068B3
:100DF0008083EA89FB8980818F7D8083DF91CF9119
:100E00001F91FF90EF90DF90CF90089580E090E0E9
:100E1000089508951F920F920FB60F9211240BB6EA
:100E20000F922F938F939F93EF93FF93E091BD04C5
:100E3000F091BE048081E091C304F091C40482FD6E
:100E400012C090818091C6048F5F8F732091C70478
:100E5000821751F0E091C604F0E0E355FB4F958F07
:100E60008093C60401C08081FF91EF919F918F9183
:100E70002F910F900BBE0F900FBE0F901F901895E3
:100E80001F920F920FB60F9211240BB60F922F9351
:100E90003F934F935F936F937F938F939F93AF9302
:100EA000BF93EF93FF938DEA94E0BCDEFF91EF9147
:100EB000BF91AF919F918F917F916F915F914F9172
:100EC0003F912F910F900BBE0F900FBE0F901F9070
:100ED00018958DEA94E02DDE21E0892B09F420E0BD
:100EE000822F0895EDEAF4E01382128288EE93E0F7
:100EF000A0E0B0E084839583A683B78386E592E083
:100F00009183808385EC90E09587848784EC90E0E2
:100F10009787868780EC90E0918B808B81EC90E0C6
:100F2000938B828B82EC90E0958B848B86EC90E0A7
:100F3000978B868B118E128E138E148E08950895C2
:100F400042D1FDDF32DCC6EDD5E083DC2097E9F34A
:100F50002DDEFBCFCF92DF92EF92FF920F931F9384
:100F6000CF93DF936C017A018B01C0E0D0E0CE1506
:100F7000DF0581F0D8016D918D01D601ED91FC91D5
:100F80000190F081E02DC6011995892B11F0219671
:100F9000EECF7E01C701DF91CF911F910F91FF909E
:100FA000EF90DF90CF9008956115710579F0FB0106
:100FB00001900020E9F73197AF01461B570BDC0188
:100FC000ED91FC910280F381E02D199480E090E096
:100FD0000895EF92FF920F931F93CF93DF938C01AD
:100FE0007B01C0E0D0E0F701EC0FFD1F64916623A8
:100FF00061F0D801ED91FC910190F081E02DC801E4
:101000001995892B11F02196EECFCE01DF91CF916A
:101010001F910F91FF90EF90089564E672E0C4CFA6
:101020000F931F93CF93DF93EC01D3DF8C01CE019D
:10103000F4DF800F911FDF91CF911F910F910895E1
:101040000F931F93CF93DF93EC01AEDF8C01CE01A2
:10105000E4DF800F911FDF91CF911F910F910895D1
:101060001F920F920FB60F9211242F933F938F93DD
:101070009F93AF93BF9380914B0590914C05A091A6
:101080004D05B0914E0530914A0523E0230F2D37D1
:1010900020F40196A11DB11D05C026E8230F02967C
:1010A000A11DB11D20934A0580934B0590934C05DB
:1010B000A0934D05B0934E0580914F05909150053A
:1010C000A0915105B09152050196A11DB11D8093CB
:1010D0004F0590935005A0935105B0935205BF91D1
:1010E000AF919F918F913F912F910F900FBE0F90D5
:1010F0001F9018953FB7F89480914F059091500537
:10110000A0915105B091520526B5A89B05C02F3F6F
:1011100019F00196A11DB11D3FBFBA2FA92F982F1D
:101120008827820F911DA11DB11DBC01CD0142E098
:10113000660F771F881F991F4A95D1F708958F92E0
:101140009F92AF92BF92CF92DF92EF92FF926B018C
:101150007C01D0DF4B015C01C114D104E104F10436
:10116000F1F009D6C7DFDC01CB0188199909AA097A
:10117000BB09883E9340A105B10570F321E0C21A76
:10118000D108E108F10888EE880E83E0981EA11CC2
:10119000B11CC114D104E104F10421F7DDCFFF90AB
:1011A000EF90DF90CF90BF90AF909F908F90089579
:1011B0008230910538F0880F991F880F991F059785
:1011C0000197F1F70895789484B5826084BD84B561
:1011D000816084BD85B5826085BD85B5816085BD32
:1011E000EEE6F0E0808181608083E1E8F0E010824B
:1011F000808182608083808181608083E0E8F0E08C
:10120000808181608083E1EBF0E080818460808375
:10121000E0EBF0E0808181608083E1E9F0E08081B3
:1012200082608083808181608083E0E9F0E080815A
:1012300081608083E1EAF0E0808182608083808148
:1012400081608083E0EAF0E0808181608083E1E278
:10125000F1E0808182608083808181608083E0E230
:10126000F1E0808181608083EAE7F0E08081846042
:10127000808380818260808380818160808380819F
:10128000806880831092C100089590E0FC0131973E
:10129000E231F10508F04EC08827EE58FF4F8F4F1E
:1012A0000C949A1E809180008F7703C080918000FB
:1012B0008F7D80938000089580918000877FF9CF93
:1012C00084B58F7702C084B58F7D84BD08958091E9
:1012D000B0008F7703C08091B0008F7D8093B00005
:1012E0000895809190008F7707C0809190008F7D46
:1012F00003C080919000877F809390000895809133
:10130000A0008F7707C08091A0008F7D03C08091DF
:10131000A000877F8093A0000895809120018F779F
:1013200007C0809120018F7D03C080912001877FBD
:10133000809320010895CF93DF9390E0FC01EA5958
:10134000FE4F2491FC01E455FE4F8491882361F106
:1013500090E0880F991FFC01EA5DFD4FC591D49183
:10136000FC01E45FFD4FA591B491611109C09FB7E5
:10137000F8948881209582238883EC912E230BC0DA
:10138000623061F49FB7F8948881322F30958323BF
:101390008883EC912E2B2C939FBF06C08FB7F894B7
:1013A000E8812E2B28838FBFDF91CF9108951F9363
:1013B000CF93DF93282F30E0F901E05EFE4F849158
:1013C000F901EA59FE4FD491F901E455FE4FC49159
:1013D000CC23B9F0162F811158DFEC2FF0E0EE0F7F
:1013E000FF1FE45FFD4FA591B4919FB7F8941111D1
:1013F00004C08C91D095D82302C0EC91DE2BDC93F5
:101400009FBFDF91CF911F910895CF93DF93282F36
:1014100030E0F901E05EFE4F8491F901EA59FE4F98
:10142000D491F901E455FE4FC491CC2389F0811188
:101430002CDFEC2FF0E0EE0FFF1FEE50FE4FA591DA
:10144000B491EC91ED2381E090E021F480E002C0C2
:1014500080E090E0DF91CF910895EF92FF920F939B
:101460001F93CF93DF93C62F7A01022FFC01608177
:1014700083E595E0F9D36C2F83E595E0A4D3E701EC
:1014800010E0CE018E199F09801791072CF4699105
:1014900083E595E098D3F5CF83E595E0DF91CF9193
:1014A0001F910F91FF90EF905FC4CF93DF931F9236
:1014B000CDB7DEB7498321E0AE014F5F5F4FCDDF8F
:1014C0000F90DF91CF910895FC0124812E7F24831A
:1014D00021FB442740F950E0440F551F63E0E5CF5E
:1014E000CF93DF93EC01688383E595E0ABD319825A
:1014F00040E060E0CE01D9DF8FE38A834FE361E013
:10150000CE01D3DFCE01E0DF8B818E7F8B8340E085
:1015100062E0CE01CADF64E670E080E090E00FDEBA
:1015200081E0DF91CF9108956F927F928F929F9289
:10153000AF92BF92CF92DF92EF92FF920F931F93E1
:10154000CF93DF938C01662E6A01722EC0E0C7151F
:1015500078F5D72DDC1BD13208F0D0E2F80160819C
:1015600083E595E081D36C2F660D83E595E02BD361
:1015700083E595E0F9D34D2FF801608183E595E08F
:10158000F1D3812C912CAD2EB12C8C2F880D8A1487
:101590009B0414F0CD0FDBCF7601E80EF11C83E540
:1015A00095E08AD2F7018083FFEF8F1A9F0AEDCF73
:1015B000DF91CF911F910F91FF90EF90DF90CF902F
:1015C000BF90AF909F908F907F906F9008958F9273
:1015D0009F92AF92BF92CF92DF92EF92FF920F93C2
:1015E0001F93CF93DF93CDB7DEB7F62E172F042FBF
:1015F0008DB69EB6242F220F46FD20E84DB75EB76C
:10160000421B51090FB6F8945EBF0FBE4DBFEDB738
:10161000FEB731965F01AF0160E886DFCF2CD12E97
:10162000E12CF12C10E0E016F10654F58E2D880F18
:10163000F501E80FF11D618170E0762F662780814A
:10164000682B94E0660F771F9A95E1F724E0759573
:1016500067952A95E1F7072E000C880B990BDDD9C9
:1016600020E030E040E85EE30E94FF1DF601619358
:101670007193819391936F01FFEFEF1AFF0AD3CF1C
:101680000FB6F8949EBE0FBE8DBEDF91CF911F9115
:101690000F91FF90EF90DF90CF90BF90AF909F9011
:1016A0008F900895CF93DF931F92CDB7DEB7FC01E3
:1016B00019826370668BDC01AA5BBF4F8C91982FF7
:1016C0009B7FAF014C5B5F4F913029F4623008F48F
:1016D00093E0DA019C939F012D5B3F4F6230D9F07C
:1016E000633009F43FC0613071F0823011F0843012
:1016F00029F490EC9983813019F415C098EC10C04E
:101700008430B1F01CC0823011F0843011F490EAC2
:101710002EC098EA35C0823091F0843049F098E0CC
:101720009983813061F480E890E0938782870DC0CF
:1017300080EA90E09387828780E590E006C080EAA7
:1017400090E09387828780E890E091878087D90135
:101750008C9190E092AF81AFDA018C9190E094AFE0
:1017600083AF2DC0823011F0843049F490E6998324
:10177000813051F480E890E09187808714C098E62A
:101780009983813051F4F6CF843039F480EA90E0C7
:101790009187808780E590E006C080EA90E091879D
:1017A000808780E890E093878287D9018C9190E0D0
:1017B00094AF83AFDA018C9190E092AF81AF21E0DA
:1017C000AE014F5F5F4F66E3CF010E9432170F906B
:1017D000DF91CF910895EF920F93CF93DF93EC01B8
:1017E000E22E042F262F40EA50E060E870E0B7D0E8
:1017F00087E792E099838883DF91CF910F91EF90F3
:101800000895411551056105710521F440E058E442
:1018100068EE71E0FC01FF9640835183628373831D
:1018200021E2FC0125AF20E226AFEB5BFF4F2081D8
:101830000C945F158F929F92AF92BF92CF92DF92DE
:10184000EF92FF920F931F93CF93DF93EC0189AD3B
:101850009AAD4B01880E991E8BAD9CAD480F591F58
:10186000C9010197880D991DA0E0B0E0A12CB12C11
:10187000540199248824882A992AAA2ABB2A01502B
:1018800011096801C40ED51E860120E030E06A010E
:10189000E12CF12C7601DD24CC24C02AD12AE22AC5
:1018A000F32A6AE2CE010E94CC16B501A401CE0152
:1018B0000E9406186BE2CE010E94CC16B701A60169
:1018C000CE010E9406186CE2CE01DF91CF911F91EC
:1018D0000F91FF90EF90DF90CF90BF90AF909F90CF
:1018E0008F900C94CC16CF93DF931F92CDB7DEB7B9
:1018F000FC0119826370668B8D5B9F4FAF014C5B5F
:101900005F4F623049F0633091F0613019F020ECA4
:10191000298302C020EA0CC0DC018C9190E092AFD8
:1019200081AFDA018C9190E094AF83AF0CC020E6D8
:101930002983DC018C9190E094AF83AFDA018C9124
:1019400090E092AF81AF21E0AE014F5F5F4F66E361
:10195000CF010E9432170F90DF91CF910895EF923F
:101960000F93CF93DF93EC010E94521587EA92E028
:1019700099838883FE01ED5BFF4F108231961082C0
:10198000CB5BDF4F1882DF91CF910F91EF900895DD
:10199000AF92BF92CF92DF92EF92FF920F931F937D
:1019A000CF93DF93EC01E62EA72EF42EB52E69011E
:1019B0008FEF9FEF9D838C839F838E8361E08E2DBD
:1019C000BADC60E08F2DB7DCE882A982FA82BB82A4
:1019D000DD82CC821F830E83DF91CF911F910F9107
:1019E000FF90EF90DF90CF90BF90AF900895CF928F
:1019F000DF92EF92FF92CF93DF93EC0160E088815A
:101A0000D6DC85E090E0D4DB61E08881D0DC8AE040
:101A100090E0CEDB60E08881CADC8A81F6DC892B2D
:101A2000E1F368DB6B017C018A81EFDC0197E1F374
:101A300061DBCB018C199D09DF91CF91FF90EF9075
:101A4000DF90CF900895CF93DF93EC01D0DF97FD27
:101A50000196BC0175956795072E000C880B990BB4
:101A60000E940D0527EE3BEF49EA5EE30E94FF1D51
:101A70000E94DA049B014C815D814F3FAFEF5A0712
:101A800021F4EE81FF81319659F0421753072CF46F
:101A90004E815F81241735071CF08FEF9FEF01C047
:101AA000CB01DF91CF9108958091870590E020913F
:101AB0008805821B9109089590918805809187057A
:101AC000981750F4E92FF0E0E757FA4F208130E003
:101AD0009F5F9093880502C02FEF3FEFC9010895E3
:101AE000E091880580918705E81730F4F0E0E7572A
:101AF000FA4F808190E008958FEF9FEF0895089549
:101B0000CF93DF93EC01E0915F05F0916005309792
:101B1000F1F090918805809187059817C0F090E0CA
:101B2000292F30E02617370754F4DE01A20FB31F28
:101B30004C91D901A757BA4F4C939F5FF1CF1092A8
:101B4000880560938705CB01DF91CF911994DF91D0
:101B5000CF910895E0916105F0916205309729F0E9
:101B6000109265051092640519940895CF92DF9242
:101B7000EF92FF920F931F93CF93DF937C01CB01E2
:101B80008A0120916305222389F0EB016B01C40EC9
:101B9000D51ECC15DD0569F06991D701ED91FC9159
:101BA0000190F081E02DC7011995F3CF642F0E94B9
:101BB000671CC801DF91CF911F910F91FF90EF90AB
:101BC000DF90CF900895CF93DF931F92CDB7DEB70C
:101BD0006983209163052223D1F02091640520328E
:101BE00040F021E030E0FC013383228380E090E08C
:101BF00015C080916505E82FF0E0EA59FA4F998108
:101C000090838F5F809365058093640505C061E0D4
:101C1000CE0101960E94671C81E090E00F90DF9159
:101C2000CF910895FC011382128288EE93E0A0E028
:101C3000B0E084839583A683B78387ED92E0918398
:101C4000808308951092880510928705109265058B
:101C5000109264050E94AB1B8AEA9DE00E94941CCE
:101C600080E89DE00C948F1C81E080936305609375
:101C70008605109265051092640508950F93062F4E
:101C800021E04091640566E675E0809186050E943A
:101C9000111C1092650510926405109263050F9156
:101CA00008954F925F926F927F92AF92BF92CF92C0
:101CB000EF92FF920F931F93CF93DF935C01F62E69
:101CC000D42F28013901EE2011F1CEDFCE2DC43002
:101CD00008F0C3E0C150C0F028E0C29FC001112449
:101CE000A301920104C056954795379527958A958B
:101CF000D2F7CA01B901D501ED91FC910190F081B3
:101D0000E02DC5011995E6CF60E0C501B7DF4D2F85
:101D1000D13208F040E22C2D69E875E08F2D0E9449
:101D2000C91B1092880580938705DF91CF911F9181
:101D30000F91FF90EF90CF90BF90AF907F906F90FA
:101D40005F904F900895CF92EF920F931F93C22E02
:101D5000E12C00E010E09801A4DF1F910F91EF90BB
:101D6000CF90089521E0EFCF61E088CF83E595E043
:101D700059CF0E94D11E08952F923F924F925F92A9
:101D80006F927F928F929F92AF92BF92CF92DF928B
:101D9000EF92FF920F931F93CF93DF9300D000D069
:101DA000CDB7DEB72C017E836D836A015901C8016E
:101DB000FC82EB824801841A950A97FE03C0919435
:101DC0008194910835012D813E81621A730A77FE54
:101DD00003C0719461947108681479045CF43A2D1D
:101DE0002B2D5C01832F922F3D812E81DE82CD82AF
:101DF000C32ED22EAD81BE81AA16BB065CF43C2D4B
:101E00002D2D6C01832F922F3D812E81BE82AD82BC
:101E1000A32EB22E85012D813E81021B130B1C01C6
:101E20002C183D0837FE03C0319421943108780105
:101E300017FF03C03FEFE31AF30AF594E794C816BF
:101E4000D9062CF08FEF9FEF9A83898304C0A1E01D
:101E5000B0E0BA83A9832D813E81A216B30624F196
:101E6000D201ED91FC910484F585E02D2B813C811C
:101E70006814790424F44D815E81B60103C0A60183
:101E80006D817E81C2011995E218F308F7FE06C044
:101E900029813A81C20ED31EE00EF11E8D819E81F2
:101EA00001969E838D83D7CF26960FB6F894DEBF1A
:101EB0000FBECDBFDF91CF911F910F91FF90EF909B
:101EC000DF90CF90BF90AF909F908F907F906F905A
:101ED0005F904F903F902F900895DC01ED91FC9121
:101EE0000084F185E02D19940F931F93DC01ED918F
:101EF000FC91048CF58DE02D19951F910F9108959B
:101F00000F931F93DC01ED91FC91068CF78DE02D72
:101F100019951F910F910895EF92FF920F931F93C0
:101F2000DC01ED91FC9100A0F1A1E02D19951F912C
:101F30000F91FF90EF90089508958F929F92AF9226
:101F4000BF92CF92DF92EF92FF920F931F93CF93A6
:101F5000DF93EC015B014A0169017801E881F981B5
:101F60000284F385E02D1995C80CD91C8601015017
:101F70001109E881F9810488F589E02D9501A40112
:101F8000B501CE011995E881F9810688F789E02D20
:101F9000CE01DF91CF911F910F91FF90EF90DF90D5
:101FA000CF90BF90AF909F908F9019948F929F92F7
:101FB000AF92BF92CF92DF92EF92FF920F931F9357
:101FC000CF93DF93EC015B014A016901E881F9815C
:101FD0000284F385E02D199595012C0D3D1D2150AE
:101FE0003109E881F9810488F589E02D78018401BF
:101FF000A401B501CE011995E881F9810688F78918
:10200000E02DCE01DF91CF911F910F91FF90EF90C6
:10201000DF90CF90BF90AF909F908F9019944F9288
:102020005F926F927F928F929F92AF92BF92CF9268
:10203000DF92EF92FF920F931F93CF93DF936C0188
:102040002B015A0139014801DC01ED91FC91028418
:10205000F385E02D1995E201640C751CD601ED9114
:10206000FC91C615D7055CF40088F189E02D870145
:102070009401A501BE01C60119952196EFCF0688EE
:10208000F789E02DC601DF91CF911F910F91FF904D
:10209000EF90DF90CF90BF90AF909F908F907F9008
:1020A0006F905F904F901994EF92FF920F931F9350
:1020B000DC011A960D911C911B9718962D913C915D
:1020C0001997ED91FC9100A0F1A1E02D7B0140E07A
:1020D00050E060E070E019951F910F91FF90EF9034
:1020E00008958F929F92AF92BF92CF92DF92EF921C
:1020F000FF920F931F93CF93DF934C016B015A0113
:10210000E901DC01ED91FC916217730781F404177A
:10211000150724F48B2D5801042F182F0A191B09B9
:1021200098012F5F3F4F048CF58DE02D12C04017B2
:10213000510709F52617370724F48D2D6901C62F9D
:10214000D82F9E012C193D092F5F3F4F068CF78D2C
:10215000E02D8701A501B601C4011995DF91CF914A
:102160001F910F91FF90EF90DF90CF90BF90AF90B5
:102170009F908F9008950284F385E02D1995D401E6
:10218000ED91FC910488F589E02D9E01A501B60131
:10219000C4011995D401ED91FC910688F789E02DD1
:1021A000C401DF91CF911F910F91FF90EF90DF90CD
:1021B000CF90BF90AF909F908F9019946F927F9225
:1021C0008F929F92AF92BF92CF92DF92EF92FF9247
:1021D0000F931F93CF93DF93EC014B015A016901D9
:1021E0003801E881F9810284F385E02D1995E881B1
:1021F000F9810288F389E02D87019601A501B401D8
:10220000CE011995A501460D571D41505109E88190
:10221000F9810288F389E02D9601B401CE01199568
:10222000E881F9810088F189E02D9301A501B401CD
:10223000CE011995C80CD91CB60161507109E8810D
:10224000F9810088F189E02D9301A501CE0119954E
:10225000E881F9810688F789E02DCE01DF91CF91E1
:102260001F910F91FF90EF90DF90CF90BF90AF90B4
:102270009F908F907F906F9019940895FC016370E8
:10228000668B8481958126813781613039F0633096
:1022900029F09187808733872287089531872087A7
:1022A000938782870895FC011382128289EE92E05F
:1022B00091838083758364835783468371876087A6
:1022C00053874287168A158614861786168681E0FC
:1022D000858B848B2FEF3FEF338B228B318B208BC1
:1022E000878B108E128E118E08952F923F924F92EF
:1022F0005F926F927F928F929F92AF92BF92CF9296
:10230000DF92EF92FF920F931F93CF93DF93CDB79E
:10231000DEB76B970FB6F894DEBF0FBECDBF9B8FB5
:102320008A8F2B015A834983D22E19870887470148
:10233000AB82DC0159962D913C915A9721153105BC
:1023400009F000C118968D919C911997681779072B
:102350000CF0E7C11A968D919C911B97481759076D
:102360000CF0DFC12C2C312CFB0126E0C29EE00DCD
:10237000F11D1124FD87EC871E161F060CF0D1C13C
:102380004A2D50E05B874A8783E0440F551F8A95AA
:10239000E1F75F874E8789819A81840F951F181610
:1023A00019060CF0BEC158968C91811104C06FEAD9
:1023B0006D1508F4D394AA8DBB8DED91FC91119706
:1023C0000284F385E02DCD011995B5E0DB9EC001B7
:1023D0001124EC2DF0E0F98BE88B92012B5F3F4F3D
:1023E0003B8B2A8B32015D824C82AC01441955092A
:1023F0005D8B4C8B7B81672F70E07F8B6E8B89812F
:102400009A810896998F888FEC89FD89E60DF71DD2
:10241000E05CFD4FD490A981BA81BF83AE835D019A
:10242000D0FE16C0AA8DBB8DED91FC91B1E0CB1210
:1024300009C02B81213031F40484F585E02D2885F5
:10244000398519C00684F785E02DE884F9841DC01C
:10245000488559854815590511F1AA8DBB8DED9117
:10246000FC91B1E0CB120DC02B81213051F40484DA
:10247000F585E02D9401A501B3018A8D9B8D1995F9
:102480000EC00684F785E02D74010A851B85910135
:102490004E815F816C817D818A8D9B8D1995D6944B
:1024A0004E815F816E897F89460F571F5F834E8300
:1024B0007FEFA71AB70A888D998DA816B90609F07B
:1024C000AFCFAC81BD81E889F989AE0FBF1FBD8355
:1024D000AC83FFEF6F1A7F0A2A893B896216730665
:1024E00009F092CF488559854815590509F4F7C078
:1024F000AA8DBB8DED91FC91B1E0CB1212C02B8166
:10250000213079F4B2016B5F7F4F0088F189E02DB3
:10251000840128E030E049815A818A8D9B8D19958C
:10252000DEC06C857D85621973090684F785E02D10
:1025300074010E851F85910149815A818A8D9B8D79
:102540001995CDC0F9013496E491DE1AF90132965D
:1025500085919491B7E0DB9E800D911D1124F901C6
:1025600025913491398B288BFC0125903490FC0106
:10257000329674903196A490329694903196B4909D
:1025800031E03C1518F04B81423068F0692D092C80
:10259000000C770B7D836C838B2D0B2C000C990B1F
:1025A0009F838E8304C01F821E821D821C82AA8D7F
:1025B000BB8DED91FC9111970284F385E02DCD0147
:1025C0001995612CD12C812CFB81EF2FF0E0FB873A
:1025D000EA872C2D30E03D872C8749815A814B0DAD
:1025E000511DB7FC5A955D8B4C8BB201690D711D65
:1025F00097FC7A957F8B6E8B8A1408F070C0282D1B
:1026000030E04E815F81420F531FAA85BB85A49F96
:10261000C001A59F900DB49F900D1124E981FA810E
:10262000E80FF91FFF87EE87862D912C4C895D8975
:10263000420F531F5B8B4A8B971408F04DC0BB248D
:10264000B394B80E877041F4C1010196E889F98905
:10265000E20DF31DD4901C01D7FE3AC051E0C51223
:1026600016C06B81613099F4AA8DBB8DED91FC9100
:1026700011970484F585E02D288539854A895B8981
:102680006E897F89690D711DCD01199521C08C81DD
:102690009D81890D911DEC85FD858E9FB0018F9FD9
:1026A000700D9E9F700D1124640D751DAA8DBB8D3C
:1026B000ED91FC9111970684F785E02DE884F9846B
:1026C0000A851B852C853D854E855F85CD01199535
:1026D000DD0C93948B2DB0CF670C83948DCFAA8D96
:1026E000BB8DED91FC9111970688F789E02DCD0106
:1026F0006B960FB6F894DEBF0FBECDBFDF91CF91C2
:102700001F910F91FF90EF90DF90CF90BF90AF900F
:102710009F908F907F906F905F904F903F902F9001
:1027200019946B960FB6F894DEBF0FBECDBFDF9144
:10273000CF911F910F91FF90EF90DF90CF90BF90BE
:10274000AF909F908F907F906F905F904F903F9051
:102750002F9008958F929F92AF92CF92EF92FF9217
:102760000F931F93CF93DF93EC01262F898D9A8DC2
:10277000009709F041C06A3059F41D861C862D89E6
:102780008E859F8538E0239F800D911D112442C0C6
:102790006D3009F4A8C08F898823C9F03C898C85E5
:1027A0009D8546E0349F800D911D112448855985F3
:1027B0004817590764F41D861C863D898E859F85C0
:1027C00048E0349F800D911D11249F878E87EA88F1
:1027D000FB88088919894E855F856C857D85AD8864
:1027E000CC88CE0182DD2C898C859D8536E0239FA7
:1027F000800D911D11243EC06A3079F41D861C861F
:102800002D89FC013696E4918E859F852E9F800D43
:10281000911D11249F878E8766C06D3009F463C0B7
:10282000FC0134963491631708F45DC03196E4914D
:10283000E61708F458C0462F431B342FFC0132968C
:102840008590949047E0349F800C911C1124F401F2
:10285000329634913196E491332311F0E1110DC099
:10286000F4013496E4912C898C859D85E29F800D3E
:10287000911D11249D878C8736C0F40135964491B3
:102880005F89552319F15C89E32FF0E0E40FF11D16
:1028900047FDFA955E9FB0015F9F700D11244C8536
:1028A0005D85460F571F688579856417750774F431
:1028B0001D861C863D89FC013696E4918E859F8598
:1028C0003E9F800D911D11249F878E87EA88FB888B
:1028D000088919894E855F856C857D85AD88CC8892
:1028E000CE0103DDBDCF81E090E0DF91CF911F915C
:1028F0000F91FF90EF90CF90AF909F908F900895A1
:102900000F93FC0180E092E1AAE7B0E030E04817C5
:1029100059076A077B0740F4B695A7959795879561
:102920003F5F3630A1F737E091E09327222311F083
:1029300020E501C020E70C70892F8695082B022B1B
:102940000083917091830F9108958091AB05882346
:1029500061F09FB7F8942091AB058091A9052130D3
:1029600019F48DBB9FBF08958FBF0895DC015B965E
:10297000ED91FC915C979081D1968C91892B80830D
:102980000895CF93DF93EC018FA987FD02C0CE019C
:10299000EDDF8DA9811103C0DF91CF91D6CFDF91FB
:1029A000CF910895DC015B96ED91FC915C9790814D
:1029B000D2968C91892380830895DC015D96ED91F8
:1029C000FC915E979081D3968C91892B808308959A
:1029D000DC015D96ED91FC915E979081D4968C918F
:1029E000892380830895AF92BF92CF92EF920F9385
:1029F0001F93CF93DF93EC01590155DC85E193E000
:102A0000998388831DAACEAA0FABE8AE1AAE19AE81
:102A10001CAE1BAE1DAE1EAEFE01FF9610821182D3
:102A200012821382B8A2AF8E8E2DEE0C990BFC0190
:102A3000E455FE4FE491F0E0EE0FFF1FE45FFD4F21
:102A4000259134913E8F2D8FFC01EA59FE4F8491E0
:102A50008BAB07FD16C0002E000C110BF801E455DE
:102A6000FE4FE491F0E0EE0FFF1FE45FFD4F259174
:102A700034913C8F2B8FF801EA59FE4F049109AB3A
:102A800003C03C8F2B8F19AA99A990959AAB80957A
:102A90008CABDF91CF911F910F91EF90CF90BF90B2
:102AA000AF900895CF92EF920F93CE2CE02E022F8D
:102AB0002DEA35E098DF0F91EF90CF9008958F9237
:102AC0009F92AF92BF92DF92EF92FF920F931F936C
:102AD000CF93DF931F921F92CDB7DEB77C014A01DF
:102AE0005B01122F452B462B472B31F4812C92E1B1
:102AF000992E9AE7A92EB12CF70187A987FD08C066
:102B000061E00E949B0961E0F70187A90E94D70953
:102B100061E0F70180AD0E949B0961E0F70180ADA3
:102B20000E94D709F70185A9811116C0012F21E064
:102B3000B501A401CE010196E3DE89819A81F701F6
:102B400092A381A3012F10E020E030E003A314A39F
:102B500025A336A3CAD555C08130E1F461E0F70161
:102B600082A50E949B0960E0F70182A50E94D70917
:102B700061E0F70184A50E949B0960E0F70184A54C
:102B80000E94D709F70183A587FD3BC060E00E9442
:102B90009B0937C00CEA11E0D12CF8018491E82F91
:102BA000F0E0EE0FFF1FE45FFD4F85919491F70178
:102BB000278D30A12817390741F461E08D2D0E943F
:102BC0009B0960E08D2D0E94D709D3940F5F1F4FA2
:102BD000F6E4DF12E2CF61E0F70186A50E949B09CF
:102BE00061E0F70186A50E94D709F70187A587FD57
:102BF00008C061E00E949B0961E0F70187A50E947F
:102C0000D709F70186A987FD24C061E00E949B09CE
:102C100061E0F70186A90E94D70964E670E080E0D0
:102C200090E00E949F0860E0F70186A90E94D70902
:102C300064E670E080E090E00E949F0861E0F701A8
:102C400086A90E94D70968EC70E080E090E00E94BD
:102C50009F080F900F90DF91CF911F910F91FF90E0
:102C6000EF90DF90BF90AF909F908F900895FC0100
:102C700085A981111BC041A132A18091AB05882398
:102C800099F02FB7F8948091AB05813059F48DB34A
:102C90008093A9059DB38091AA05809589238DBB5A
:102CA0002FBF02C02093A9054CBD3DBD0895CF9311
:102CB000DF93EC01DCDF8FA987FD04C0CE01DF913B
:102CC000CF9170CEDF91CF910895DC019196ED9177
:102CD000FC919297908195968C91892B8083089591
:102CE000DC019196ED91FC919297908196968C9152
:102CF000892380830895DC019396ED91FC9194974C
:102D0000908197968C91892B80830895DC0193960E
:102D1000ED91FC919497908198968C918923808372
:102D20000895FC01A5A1B6A19C9182A589238C934D
:102D3000A5A1B6A19C9181A5892B8C9308950F9391
:102D40001F93CF93DF93EC01162F8DA9811105C03E
:102D50006EBD0DB407FEFDCF1AC0813079F408E0D6
:102D6000CE0117FF02C0B1DF01C0BADFCE01C3DF61
:102D7000110FCE01CBDF015099F709C0EF8DF8A1FB
:102D80006083CE01DF91CF911F910F91CACFDF9168
:102D9000CF911F910F9108951F93CF93DF93EC0173
:102DA000162F16DE612FCE01CADFCE01DF91CF9143
:102DB0001F9103CE1F93CF93DF93EC01162FE88171
:102DC000F9810284F385E02D1995112311F06DAD81
:102DD00001C06EADCE01E0DFE881F9810688F78998
:102DE000E02DCE01DF91CF911F911994FF920F93A7
:102DF0001F93CF93DF93EC018B018DA9811109C043
:102E00001EBD0DB407FEFDCF0EBD0DB407FEFDCFF8
:102E100023C0813091F490E1F92ECE0117FF02C05A
:102E200054DF01C05DDFCE0166DFCE016FDF000F32
:102E3000111FFA94F110F1CF0FC0EF8DF8A110839C
:102E4000CE016FDFEF8DF8A10083CE01DF91CF912E
:102E50001F910F91FF9065CFDF91CF911F910F913F
:102E6000FF900895CF92DF92EF92FF920F931F93FE
:102E7000CF93DF93EC01F62E8A01C22EF8DE8FA9E4
:102E800087FD02C0CE018EDDCE01A2DD6F2DCE0109
:102E900056DFCE0192DDE12CF12CD12CEC14FD0497
:102EA000DCF4F8016081CE014ADF8DA9F80182309F
:102EB00051F488A9882339F061817281CE0196DFAF
:102EC0000D5F1F4F05C06181CE0139DF0E5F1F4FBF
:102ED000FFEFEF1AFF0AE2CF8FA987FD02C0CE01F4
:102EE00045DD8DA9811109C0DF91CF911F910F910F
:102EF000FF90EF90DF90CF9028CDDF91CF911F9181
:102F00000F91FF90EF90DF90CF900895AF92BF9216
:102F1000CF92DF92EF92FF920F931F93CF93DF93A5
:102F2000EC0177FD37C0888599856817790794F596
:102F300057FD30C08A859B85481759075CF56901A4
:102F40007A015B01E881F9810284F385E02DCE01ED
:102F50001995E881F98102A4F3A5E02D01E010E0C4
:102F600021E030E0A701B501CE011995B601CE01EF
:102F70003DDFE881F9810688F789E02DCE01DF91F8
:102F8000CF911F910F91FF90EF90DF90CF90BF9066
:102F9000AF901994DF91CF911F910F91FF90EF9017
:102FA000DF90CF90BF90AF900895EF92FF920F9374
:102FB0001F93CF93DF93EC0177FD21C0888599851E
:102FC00068177907E4F457FD1AC08A859B8548176E
:102FD0005907ACF47901E881F98102A4F3A5E02D49
:102FE00001E010E021E030E0CE011995B701CE01FB
:102FF000DF91CF911F910F91FF90EF90F7CEDF916E
:10300000CF911F910F91FF90EF900895CF92DF9293
:10301000EF92FF921F93CF93DF93EC016A017B0144
:103020008DA981111CC08F2D9927AA27BB278EBD82
:103030000DB407FEFDCFC701AA27BB278EBD0DB477
:1030400007FEFDCFBB27AF2D9E2D8D2D8EBD0DB460
:1030500007FEFDCFCEBC0DB407FEFDCF3AC08130D8
:1030600091F410E2CE01F7FE02C02FDE01C038DE7F
:10307000CE0141DECE014ADECC0CDD1CEE1CFF1C75
:10308000115081F726C0EF8DF8A1872F9927AA2725
:10309000BB278083CE0145DEEF8DF8A1C701AA27AB
:1030A000BB278083CE013DDEEF8DF8A1BB27AF2D7E
:1030B0009E2D8D2D8083CE0134DEEF8DF8A1C08250
:1030C000CE01DF91CF911F91FF90EF90DF90CF90D5
:1030D00028CEDF91CF911F91FF90EF90DF90CF909E
:1030E0000895AF92BF92CF92DF92EF92FF920F932B
:1030F0001F93CF93DF93EC018B012115310541051F
:10310000510509F469C08DA981110FC02150310901
:103110004109510908F460C01EBD0DB407FEFDCF82
:103120000EBD0DB407FEFDCFF1CF813059F5690119
:103130007A01A12E28E0B22ECE01A7FE02C0C5DD85
:1031400001C0CEDDCE01D7DDCE01E0DDAA0CBA9400
:10315000B110F2CFA02E98E0B92ECE01A7FE02C08A
:10316000B4DD01C0BDDDCE01C6DDCE01CFDDAA0CD0
:10317000BA94B110F2CF81E0C81AD108E108F10881
:10318000C1F62AC0161316C0EF8DF8A1108369018D
:103190007A01CC0CDD1CEE1CFF1CC114D104E1042F
:1031A000F104D1F0CE01BDDD81E0C81AD108E108FB
:1031B000F108F3CF69017A01EF8DF8A11083CE01F8
:1031C000B0DDEF8DF8A10083CE01ABDD81E0C81A40
:1031D000D108E108F10881F7DF91CF911F910F919C
:1031E000FF90EF90DF90CF90BF90AF900895AF9297
:1031F000BF92CF92DF92EF92FF920F931F93CF93E4
:10320000DF93EC015901E881F98102A4F3A5E02DD7
:1032100019959501D80196D59B01AC01B701CE0156
:10322000DF91CF911F910F91FF90EF90DF90CF90A2
:10323000BF90AF9056CFEF92FF920F931F93CF9313
:10324000DF9377FD33C0DC011896ED91FC9119975F
:103250006E177F075CF52115310541F137FF07C077
:10326000F90131964E0F5F1F319521953109DC012F
:103270001A96ED91FC911B974E175F07BCF4EA017B
:10328000C20FD31FDE011197B7FD10C057FF03C057
:103290009E0140E050E0AE17BF071CF09F01241BC9
:1032A000350B7801890121E030E0A1DFDF91CF917A
:1032B0001F910F91FF90EF900895EF92FF920F935F
:1032C0001F93CF93DF9357FD32C0DC011A96ED9127
:1032D000FC911B974E175F0754F52115310539F105
:1032E00037FF07C0F90131966E0F7F1F3195219589
:1032F0003109DC011896ED91FC9119976E177F0743
:10330000B4F4EB01C20FD31FDE011197B7FD0FC05C
:1033100077FF03C09E0160E070E0AE17BF071CF0AE
:103320009F01261B370B780101E010E060DFDF9181
:10333000CF911F910F91FF90EF9008958F929F92E0
:10334000AF92BF92CF92DF92EF92FF920F931F93B3
:10335000CF93DF935C014B016A01E90177FD52C015
:10336000DC0118968D919C911997681779070CF0DC
:1033700049C0209709F446C037FF07C0C90101962C
:10338000C80ED91ED195C195D109F50182859385C5
:10339000C816D906BCF5A6014C0F5D1F9A01215035
:1033A000310937FD2FC0D7FE03C0EA01C12CD12C53
:1033B000281739071CF0EC01CC19DD09D501ED9176
:1033C000FC910284F385E02DC501199578018E01E9
:1033D00021E030E0A601B401C50109DFD501ED917E
:1033E000FC910688F789E02DC501DF91CF911F91EF
:1033F0000F91FF90EF90DF90CF90BF90AF909F9094
:103400008F901994DF91CF911F910F91FF90EF90C2
:10341000DF90CF90BF90AF909F908F9008958F9244
:103420009F92AF92BF92CF92DF92EF92FF920F9353
:103430001F93CF93DF935C016B014A01E90157FDB4
:1034400052C0DC011A968D919C911B974817590721
:103450000CF049C0209709F446C037FF07C0C901E6
:103460000196C80ED91ED195C195D109F501808567
:103470009185C816D906BCF5A6014C0F5D1F9A01AF
:103480002150310937FD2FC0D7FE03C0EA01C12CFE
:10349000D12C281739071CF0EC01CC19DD09D50116
:1034A000ED91FC910284F385E02DC5011995780119
:1034B00001E010E09E01A401B601C50198DED5012E
:1034C000ED91FC910688F789E02DC501DF91CF9140
:1034D0001F910F91FF90EF90DF90CF90BF90AF9032
:1034E0009F908F901994DF91CF911F910F91FF9032
:1034F000EF90DF90CF90BF90AF909F908F90089506
:103500008F929F92AF92BF92CF92DF92EF92FF92F3
:103510000F931F93CF93DF934C016B015A01E90185
:10352000209709F46BC00115110509F467C037FF36
:1035300007C0C9010196C80ED91ED195C195D10900
:10354000F401A085B185CA16DB060CF057C017FF41
:1035500007C0C8010196A80EB91E11950195110961
:10356000F40182859385A816B9060CF047C0F601D0
:10357000EC0FFD1FAF014150510957FD3FC0B50190
:10358000600F711F9B012150310937FD37C0D7FEF5
:1035900003C0EF01C12CD12CB7FE03C08B01A12CBD
:1035A000B12C4A175B071CF0ED01CC19DD09281777
:1035B00039071CF08C010A191B09D401ED91FC910B
:1035C0000284F385E02DC40119959E01A501B60181
:1035D000C4010DDED401ED91FC910688F789E02D40
:1035E000C401DF91CF911F910F91FF90EF90DF9079
:1035F000CF90BF90AF909F908F901994DF91CF9113
:103600001F910F91FF90EF90DF90CF90BF90AF9000
:103610009F908F9008958F929F92AF92BF92CF927A
:10362000DF92EF92FF920F931F93CF93DF934701A7
:103630002115310509F44CC00115110509F448C0E4
:1036400037FF07C0F90131966E0F7F1F3195219525
:103650003109DC011896AD90BC9019976A157B056D
:10366000BCF517FF07C0F80131964E0F5F1F11958B
:1036700001951109DC011A96ED91FC911B974E17EB
:103680005F0734F56B01C20ED31EE6012197D7FD0B
:103690001FC07A01E00EF11ED7011197B7FD18C0C7
:1036A00077FF03C0960160E070E057FF03C0870119
:1036B00040E050E0CA15DB051CF09501261B370BD6
:1036C000AE17BF071CF08F01041B150B74018FDDB3
:1036D000DF91CF911F910F91FF90EF90DF90CF90EE
:1036E000BF90AF909F908F900895CF93CFB7F894ED
:1036F0008091AC05811127C0E1EEF1E08491EBE906
:10370000F1E09491E82FF0E0EE0FFF1FEA5DFD4F2E
:10371000A591B491EC91E92321F461E085E30E9445
:10372000D70961E085E30E949B098CB580618CBD5F
:103730008CB580648CBD61E084E30E949B0961E0EC
:1037400083E30E949B098091AC058F5F8093AC0559
:10375000CFBFCF91089510921B0681E08093190688
:103760001092180661E084E10E94D70961E085E1CA
:103770000E94D709E9EBF0E080818E7F8083808111
:103780008D7F808388E48093B80085E48093BC00BB
:103790000895413208F043C090911B069111FCCF6F
:1037A00091E090931B06209319062FEF2093AE050E
:1037B0001092F305240F2093F20590931A0690912E
:1037C0001A06880F892B80931A068091180681307B
:1037D00061F41092180680911A068093BB008091C4
:1037E000BC0083FDF8CF85EC01C085EE8093BC0062
:1037F00080911B068130E1F38091F305841710F46A
:103800004091F305A4EFB5E0962FFB018E2F891BA5
:10381000841718F48D918193F9CF842F089580E057
:1038200008950F93413208F04AC090911B06911100
:10383000FCCF32E030931B06009319063FEF309324
:10384000AE051092F3054093F205562FA4EFB5E0B4
:10385000FB013E2F351B341718F431913D93F9CFFE
:1038600010921A0630911A06880F832B80931A063D
:1038700080911806813061F41092180680911A0622
:103880008093BB008091BC0083FDF8CF85EC01C024
:1038900085EE8093BC00222321F080911B068230AC
:1038A000D1F38091AE058F3F79F08091AE058032E3
:1038B00041F08091AE05803331F094E005C091E095
:1038C00003C092E001C093E0892F0F9108954091C9
:1038D000D005262F30E0240F311D21323105DCF4D4
:1038E00020911B062430C9F4FC0180E090E086178B
:1038F00058F43091D0052191DC01AE52BA4FA30F9C
:10390000B11D2C930196F3CF8091D005680F609381
:10391000D00580E0089581E0089582E008959093B5
:103920001506809314060895909317068093160643
:10393000089585ED8093BC008091BC0084FDFCCF90
:1039400010921B06089585EC8093BC0010921B0614
:1039500008951F920F920FB60F9211240BB60F927B
:103960002F933F934F935F936F937F938F939F9387
:10397000AF93BF93EF93FF938091B900887F803618
:1039800009F49DC070F5883209F45CC090F4803170
:1039900009F455C038F4882309F4F3C0883009F4D9
:1039A0004EC0F2C0883109F44DC0803209F45EC0C7
:1039B000EBC0803409F469C050F4803309F456C078
:1039C000883309F0E1C08093AE05BDDFDDC08035EE
:1039D00009F44FC0883509F45DC0883409F0D4C0BB
:1039E000D2C0883909F4C3C0A8F4883709F467C085
:1039F00038F4883609F463C0803709F460C0C4C065
:103A0000883809F4B4C0803909F45FC0803809F0FF
:103A1000BBC05BC0803B09F482C038F4803A09F433
:103A200066C0883A09F47BC0AFC0803C09F4A3C0EB
:103A3000883C09F4A0C0883B09F486C0A5C08091E9
:103A40001A0610C09091F3058091F205981770F551
:103A5000E091F30581E08E0F8093F305F0E0EC50E8
:103A6000FA4F80818093BB0085EC82C08093AE05C5
:103A70008AC0E091F30581E08E0F8093F305809179
:103A8000BB00F0E0EC50FA4F80839091F3058091F9
:103A9000F2056AC0E091F30581E08E0F8093F30593
:103AA0008091BB00F0E0EC50FA4F808380911906C2
:103AB000811169C081E08093180684EA5DC083E0CB
:103AC00080931B061092AF05CFCF8091AF05803257
:103AD00008F04DC0E091AF0581E08E0F8093AF05F7
:103AE0008091BB00F0E0E055FA4F8083BDCF2BDF23
:103AF0008091AF05803230F4E091AF05F0E0E05501
:103B0000FA4F10826091AF0570E0E0911406F091D9
:103B1000150680EB95E019951092AF0535C084E04D
:103B200080931B061092D1051092D005E0911606E5
:103B3000F091170619958091D005811105C081E09B
:103B40008093D0051092D205E091D10581E08E0FCF
:103B50008093D105F0E0EE52FA4F80818093BB0054
:103B60009091D1058091D005981708F47DCF85E814
:103B70008093BC0009C085EC8093BC0010921B06AA
:103B800003C01092AE05D5DEFF91EF91BF91AF91CA
:103B90009F918F917F916F915F914F913F912F9165
:103BA0000F900BBE0F900FBE0F901F90189597F9B6
:103BB0009F6780E870E060E008959FEF80EC0895D3
:103BC00000240A94161617061806090608950024FC
:103BD0000A9412161306140605060895092E039476
:103BE000000C11F4882352F0BB0F40F4BF2B11F4EA
:103BF00060FF04C06F5F7F4F8F4F9F4F08950CD0C1
:103C0000EDCFDEDF28F0E3DF18F0952309F0CFCF0A
:103C1000D4CF11240C946B050E94480590F3959F16
:103C2000C1F3950F50E0551F629FF001729FBB27B3
:103C3000F00DB11D639FAA27F00DB11DAA1F649F4F
:103C40006627B00DA11D661F829F2227B00DA11D02
:103C5000621F739FB00DA11D621F839FA00D611D88
:103C6000221F749F3327A00D611D231F849F600DA9
:103C7000211D822F762F6A2F11249F57504092F0DA
:103C8000E9F088234AF0EE0FFF1FBB1F661F771F66
:103C9000881F91505040A9F79E3F510578F087CF7B
:103CA0000C946B055F3FE4F3983ED4F386957795CB
:103CB0006795B795F795E7959F5FC1F7FE2B880F3E
:103CC000911D9695879597F9089597FB072E16F401
:103CD000009406D077FD08D050D007FC05D03EF404
:103CE000909581959F4F0895709561957F4F0895A8
:103CF000A1E21A2EAA1BBB1BFD010DC0AA1FBB1FF0
:103D0000EE1FFF1FA217B307E407F50720F0A21B61
:103D1000B30BE40BF50B661F771F881F991F1A94CE
:103D200069F760957095809590959B01AC01BD01F8
:103D3000CF010895EE0FFF1F881F8BBF0790F691EC
:103D4000E02D199405D0332312F48A1B9B0B10C06D
:103D5000A29FB001B39FC001A39F700D811D1124CC
:103D6000911DB29F700D811D1124911D0895F0DFEA
:103D7000B7FF0895821B930B0895AA1BBB1B51E14B
:103D800007C0AA1FBB1FA617B70710F0A61BB70BCB
:103D9000881F991F5A95A9F780959095BC01CD0170
:0E3DA000089581E090E0F89400C0F894FFCF01
:103DAE0001E803436F756C64206E6F742066696E54
:103DBE006420612076616C696420414D4738387803
:103DCE00782073656E736F722C20636865636B2049
:103DDE00776972696E6721002D2D20546865726DAA
:103DEE00616C2043616D6572612054657374202D82
:103DFE002D00000000003406AA07C70580069905AD
:103E0E00B305A5050D0A006E616E00696E66006F42
:103E1E0076660000000000AA13AA070607090786A7
:103E2E00175716D5170B1B1B195D19BC0EC1145253
:103E3E000BDA169E190F1A801A54107110DE10012B
:103E4E000C1A0C00000000AA13AA07060709078621
:103E5E00175716D5170B1B1B195D19BC0EC1147302
:103E6E000CDA169E190F1A801A54107110DE1001FA
:103E7E000C1A0C00000000E30DB60D06077F0D5462
:103E8E000D5C0D700D00000000AA13AA07060709AD
:103E9E0007B90E9C0F6D0F8C0F740F800FBC0E9C0C
:103EAE000F3E113D119D0FD60F0F1054107110DEE5
:103EBE001000000000AA13AA070607090786175765
:103ECE0016D5170B1B1B195D19BC0EC1143E11DA4A
:103EDE00169E190F1A801A54107110DE10B90EB9F1
:023EEE000E00C4
:00000001FF
