:1000000017C1000045C1000043C1000041C100000C
:100010003FC100003DC100003BC1000039C10000EC
:1000200037C100000C94FE0E0C94FE0E0C94FE0ED4
:100030002FC100002DC100002BC1000029C100000C
:1000400027C1000025C1000023C1000021C100001C
:100050001FC100001DC100001BC10000F3C700004C
:1000600017C1000054C5000088C5000011C1000080
:100070000FC100000DC100000BC1000009C100004C
:1000800007C1000005C1000003C1000001C100005C
:10009000FFC00000FDC00000FBC000000C94521225
:1000A000F7C00000F5C00000F3C00000F1C0000080
:1000B000EFC00000EDC00000EBC00000E9C0000090
:1000C000E7C00000E5C00000E3C00000E1C00000A0
:1000D000DFC00000DDC00000DBC00000D9C00000B0
:1000E000D7C000005F096209510955095B099909E8
:1000F00066096A097009740978097E098209860906
:1001000099098C099009940900000A0B02090C0D49
:100110000E080703040100000000000000000000BA
:1001200000000000000000000000000000000000CF
:10013000000000001211100000000000000000008C
:1001400000000000000000000000000000000102AC
:1001500010202008081020401020408002010201D9
:100160000804020101020408102040808040201091
:1001700008040201800402018040201008040201EA
:100180000804020101020408102040800102040852
:10019000102040800505050507050808080802022B
:1001A00002020A0A08080404040401010101010111
:1001B00001010303030303030303040707070C0CF4
:1001C0000C0C0C0C0C0C02020202060606060606BB
:1001D00006060B0B0B0B0B0B0B0B00002000230078
:1001E000260029002C002F0032000001000003012E
:1001F0000601090100002200250028002B002E0026
:100200003100340002010000050108010B0100006B
:100210002100240027002A002D00300033000101B6
:100220000000040107010A01AF02EF055211C702E5
:1002300011241FBECFEFD1E2DEBFCDBF00E00CBF67
:1002400013E0A0E0B2E0E6E3FEE200E00BBF02C094
:1002500007900D92AC3AB107D9F727E0ACEAB3E0CA
:1002600001C01D92A535B207E1F711E0C7E1D1E069
:1002700000E006C021970109802FFE010E94891429
:10028000C431D10780E00807A9F7D7D40C940A1726
:10029000B7CECF93DF93EC0161E089E00E94D609ED
:1002A00064E670E080E090E048D769E6CE010E9405
:1002B000880C811106C066E072E083EE94E02FD5D1
:1002C000FFCF6BE372E083EE94E029D583EE94E0F8
:1002D00013D564E670E080E090E0DF91CF912DC708
:1002E0000F931F93CF93DF93D62FC72F40E40E9425
:1002F0001E0D6DE472E083EE94E0F6D40D2F1C2FFA
:10030000C1E0D0E0F80141915191619171918F016B
:1003100022E030E083EE94E094D66FE472E083EE66
:1003200094E0E2D4CE0187709927892B19F483EEEB
:1003300094E0E2D42196C134D10521F762E572E060
:1003400083EE94E0ECD483EE94E0D6D460E089E0D0
:100350000E94D60968EE73E080E090E0DF91CF91D3
:100360001F910F91EAC6CF92DF92EF92FF921F93F7
:10037000CF93DF93CDB7DEB760970FB6F894DEBFAB
:100380000FBECDBF61E08BE00E94D60964E670E04D
:1003900080E090E0D2D68AE00E94040A182F83ED14
:1003A00094E00E94FF0C6B017C0180E1E3EDF4E03E
:1003B000DE01119601900D928A95E1F763ED73E0ED
:1003C000CE0101968DDFC701B6014AD1072E000C80
:1003D000880B990B78D19B01AC016091D30370918C
:1003E000D4038091D5039091D603D5D020E030E09E
:1003F00040EA50E4F4D181E090E0843091052CF0A3
:1004000090E0111104C080E002C080E090E06096AE
:100410000FB6F894DEBF0FBECDBFDF91CF911F9115
:10042000FF90EF90DF90CF9008959DDF68EE73E02E
:1004300080E090E082C661E08BE07CD761E089E0FB
:1004400079D760E08BE0B2D760E089E0AFC760E0C9
:100450008AE070C78F929F92AF92BF92CF92DF9245
:10046000EF92FF92CF93DF93CDB7DEB760970FB6D1
:10047000F894DEBF0FBECDBF2FD64B015C0126E046
:1004800040E855E260E070E083EE94E0D8D2D3DF3C
:1004900080E1E3EDF4E0DE01119601900D928A9582
:1004A000E1F7CE010196F5DED2DF64E670E080E090
:1004B00090E043D680E1E3EDF4E0DE011196019097
:1004C0000D928A95E1F763ED73E0CE01019608DFA6
:1004D00061E08BE06BD764E670E080E090E02DD6C1
:1004E0006CEA73E0CE0101960E94140EBE016F5FAC
:1004F0007F4F83EE94E003D4CE010196ADD78AE01E
:1005000083D7892B19F064E572E002C068E672E0D7
:1005100083EE94E004D4E0D56B017C016CE772E0DB
:1005200083EE94E0E1D3B601681979094AE050E01E
:1005300083EE94E0A8D460E08BE038D760960FB6E5
:10054000F894DEBF0FBECDBFDF91CF91FF90EF904B
:10055000DF90CF90BF90AF909F908F9008950F93B2
:100560001F9320E042E363E384EB93E00E94CE0F0D
:1005700000EA1FE024E130E045E050E064E070E094
:100580008CEA93E00E94890D1F910F91089584EBEE
:1005900093E00C947A0F5058BB27AA270ED0E5C0E1
:1005A000D6D030F0DBD020F031F49F3F11F41EF4B0
:1005B000CBC00EF4E095E7FBC1C0E92FE7D080F394
:1005C000BA17620773078407950718F071F49EF550
:1005D000FFC00EF4E0950B2EBA2FA02D0B01B90130
:1005E00090010C01CA01A0011124FF27591B99F0A9
:1005F000593F50F4503E68F11A16F040A22F232FB5
:10060000342F4427585FF3CF469537952795A79504
:10061000F0405395C9F77EF41F16BA0B620B730BAB
:10062000840BBAF09150A1F0FF0FBB1F661F771F1C
:10063000881FC2F70EC0BA0F621F731F841F48F4D1
:10064000879577956795B795F7959E3F08F0B3CF57
:100650009395880F08F09927EE0F97958795089541
:1006600004D06894B111B5C0089598D088F09F5710
:1006700090F0B92F9927B751A0F0D1F0660F771FEE
:10068000881F991F1AF0BA95C9F712C0B13081F0CE
:100690009FD0B1E008959CC0672F782F8827B85F5E
:1006A00039F0B93FCCF3869577956795B395D9F72F
:1006B0003EF490958095709561957F4F8F4F9F4F39
:1006C0000895E89409C097FB3EF490958095709545
:1006D00061957F4F8F4F9F4F9923A9F0F92F96E98E
:1006E000BB279395F695879577956795B795F11103
:1006F000F8CFFAF4BB0F11F460FF1BC06F5F7F4FA0
:100700008F4F9F4F16C0882311F096E911C07723B1
:1007100021F09EE8872F762F05C0662371F096E8BA
:10072000862F70E060E02AF09A95660F771F881F89
:10073000DAF7880F9695879597F9089597F99F6747
:1007400080E870E060E008959FEF80EC0895002459
:100750000A941616170618060906089500240A9426
:1007600012161306140605060895092E0394000CAC
:1007700011F4882352F0BB0F40F4BF2B11F460FF3B
:1007800004C06F5F7F4F8F4F9F4F089557FD905864
:10079000440F551F59F05F3F71F04795880F97FB45
:1007A000991F61F09F3F79F08795089512161306FF
:1007B0001406551FF2CF4695F1DF08C0161617062E
:1007C0001806991FF1CF8695710561050894089563
:1007D000E894BB2766277727CB0197F9089503D0C4
:1007E00008F48FEF0895990F0008550FAA0BE0E861
:1007F000FEEF16161706E807F907C0F012161306E3
:10080000E407F50798F0621B730B840B950B39F422
:100810000A2661F0232B242B252B21F408950A2688
:1008200009F4A140A6958FEF811D811D0895FC015B
:10083000918D228D892F90E0805C9F4F821B9109C2
:100840008F7399270895FC01918D828D981731F04F
:10085000828DE80FF11D858D90E008958FEF9FEF59
:100860000895FC01918D828D981761F0828DDF01D2
:10087000A80FB11D5D968C91928D9F5F9F73928F93
:1008800090E008958FEF9FEF0895FC01538D448D04
:10089000252F30E0842F90E0821B930B541710F02B
:1008A000CF9608950197089586EE95E0892B39F04B
:1008B00080E090E0892B19F089D1811125C080E07A
:1008C00090E0892B41F080E090E0892B21F00E949C
:1008D000000081111CC080E090E0892B41F080E095
:1008E00090E0892B21F00E940000811113C080E06C
:1008F00090E0892BA1F080E090E0892B81F00E94AC
:10090000000081110AC008950E940000D8CF0E9403
:100910000000E1CF0E940000EACF0C94000008958F
:10092000FC01848DDF01A80FB11DA35ABF4F2C918C
:10093000848D90E001968F739927848FA689B7895B
:100940002C93A089B1898C91837080648C93938D52
:10095000848D981306C00288F389E02D80818F7DF5
:1009600080830895EF92FF920F931F93CF93DF93AD
:10097000EC0181E0888F9B8D8C8D981305C0E889F0
:10098000F989808185FD25C0F62E0B8D10E00F5F63
:100990001F4F0F731127E02E8C8DE8120BC00FB67E
:1009A00007FCFACFE889F989808185FFF5CFCE0170
:1009B000B7DFF2CF8B8DFE01E80FF11DE35AFF4F39
:1009C000F0829FB7F8940B8FEA89FB89808180625F
:1009D0000AC09FB7F894EE89FF896083E889F98996
:1009E00080818370806480839FBF81E090E0DF918D
:1009F000CF911F910F91FF90EF900895CF93DF93C8
:100A0000EC01888D8823C1F0EA89FB89808185FD0E
:100A100005C0A889B9898C9186FD0EC00FB607FC68
:100A2000F5CF808185FFF2CFA889B9898C9185FFA8
:100A3000EDCFCE0175DFE8CFDF91CF910895CF9252
:100A4000DF92EF92FF921F93CF93DF93EC016A0145
:100A50007B01122FE889F98982E080834115514E8C
:100A600061057105B1F060E079E08DE390E0A701E8
:100A700096010E946714DA01C9010197A109B10921
:100A8000B695A795979587959C01211580E1380724
:100A9000A8F0E889F989108260E874E88EE190E0B6
:100AA000A70196010E946714DA01C9010197A10903
:100AB000B109B695A795979587959C01EC85FD851D
:100AC0003083EE85FF852083188EEC89FD891083A5
:100AD000EA89FB89808180618083EA89FB89808142
:100AE00088608083EA89FB89808180688083EA89C5
:100AF000FB8980818F7D8083DF91CF911F91FF9053
:100B0000EF90DF90CF90089580E090E008951F92DD
:100B10000F920FB60F9211240BB60F922F938F9353
:100B20009F93EF93FF93E091F304F091F40480819D
:100B3000E091F904F091FA0482FD12C09081809155
:100B4000FC048F5F8F732091FD04821751F0E091B8
:100B5000FC04F0E0ED51FB4F958F8093FC0401C045
:100B60008081FF91EF919F918F912F910F900BBEFC
:100B70000F900FBE0F901F9018951F920F920FB6F7
:100B80000F9211240BB60F922F933F934F935F93C5
:100B90006F937F938F939F93AF93BF93EF93FF9345
:100BA00083EE94E0BDDEFF91EF91BF91AF919F91F5
:100BB0008F917F916F915F914F913F912F910F9006
:100BC0000BBE0F900FBE0F901F90189583EE94E010
:100BD0002EDE21E0892B09F420E0822F0895E3EE38
:100BE000F4E01382128288EE93E0A0E0B0E0848308
:100BF0009583A683B78384EF92E09183808385EC0D
:100C000090E09587848784EC90E09787868780ECD6
:100C100090E0918B808B81EC90E0938B828B82ECC7
:100C200090E0958B848B86EC90E0978B868B118E71
:100C3000128E138E148E08950895C4D2FDDF0ADC3F
:100C4000C4E5D4E0F2DB2097E9F32EDEFBCFCF92B0
:100C5000DF92EF92FF920F931F93CF93DF936C017C
:100C60007A018B01C0E0D0E0CE15DF0581F0D8011C
:100C70006D918D01D601ED91FC910190F081E02DF7
:100C8000C6011995892B11F02196EECF7E01C7017F
:100C9000DF91CF911F910F91FF90EF90DF90CF9058
:100CA00008956115710579F0FB0101900020E9F7C5
:100CB0003197AF01461B570BDC01ED91FC9102808F
:100CC000F381E02D199480E090E00895DB01149603
:100CD0004D915C9115976D917C91DC01ED91FC91AA
:100CE0000280F381E02D1994DCCFDC01ED91FC91C1
:100CF0000190F081E02D199462E073E0D2CF0F9360
:100D00001F93CF93DF93EC01E1DF8C01CE01F4DF81
:100D1000800F911FDF91CF911F910F9108950F9335
:100D20001F93CF93DF93EC01BCDF8C01CE01E4DF96
:100D3000800F911FDF91CF911F910F9108958F9296
:100D40009F92AF92BF92EF92FF920F931F93CF9318
:100D5000DF93CDB7DEB7A1970FB6F894DEBF0FBE15
:100D6000CDBF7C01FA01CB0119A2223008F42AE0A0
:100D70008E010F5D1F4F822E912CA12CB12CBF0133
:100D8000A50194010E946714F901CA0101501109DB
:100D90006A3010F4605D01C0695CD8016C93232B4C
:100DA000242B252B61F7B801C7017BDFA1960FB675
:100DB000F894DEBF0FBECDBFDF91CF911F910F9191
:100DC000FF90EF90BF90AF909F908F900895211566
:100DD000310541F4DC01ED91FC910190F081E02DB1
:100DE000642F1994ACCF9A01AB0160E070E0EFCFB3
:100DF000CF92DF92EF92FF920F931F93CF93DF93E7
:100E00002115310581F4DC01ED91FC910190F08117
:100E1000E02D642FDF91CF911F910F91FF90EF9004
:100E2000DF90CF9019942A303105F1F477FF1BC081
:100E30006A017B01EC016DE258DF8C0144275527E4
:100E4000BA014C195D096E097F092AE0CE0177DFEE
:100E5000800F911FDF91CF911F910F91FF90EF9025
:100E6000DF90CF9008952AE0DF91CF911F910F91ED
:100E7000FF90EF90DF90CF9062CF9A01AB01770F98
:100E8000660B770BB5CF0F931F93CF93DF93EC01D6
:100E9000F4DF8C01CE0130DF800F911FDF91CF9105
:100EA0001F910F9108957F928F929F92AF92BF9260
:100EB000CF92DF92EF92FF920F931F93CF93DF9326
:100EC0008C016A017B01722E9A01AB01C701B60148
:100ED0000E946214882319F065E073E026C0460181
:100EE0005701E894B7F82FEF3FEF4FE75FE7C501F1
:100EF000B4010E94621481110DC02FEF3FEF4FE744
:100F00005FE7C501B4010E94801318161CF469E064
:100F100073E00BC02FEF3FEF4FE75FE4C701B6016F
:100F20005EDC18168CF46DE073E0C801DF91CF91A0
:100F30001F910F91FF90EF90DF90CF90BF90AF90F7
:100F40009F908F907F90ADCE2FEF3FEF4FE75FECFC
:100F5000C701B6010E94801387FDE5CF20E030E095
:100F6000A901C701B6010E94801387FF09C06DE285
:100F7000C801BBDEEC01F7FAF094F7F8F09402C078
:100F8000C0E0D0E0B12C60E070E080E09FE37B1433
:100F900041F020E030E040E251E40E948513B39438
:100FA000F6CFA7019601F8DA6B017C015EDB4B01FD
:100FB0005C012AE0AB01BC01C801C1DEC80FD91F2A
:100FC000772081F1C501B4017CDB9B01AC01C70135
:100FD000B601E1DA6B017C016EE2C80186DEC80F62
:100FE000D91F20E030E040E251E4C701B6010E9481
:100FF000F6134B015C0139DB6B017C014AE050E0E8
:10100000C801F1DEC80FD91FB60180E090E059DBBE
:101010009B01AC01C501B401BEDA6B017C017A947D
:101020007110DFCFCE01DF91CF911F910F91FF9013
:10103000EF90DF90CF90BF90AF909F908F907F9078
:10104000089531CF1F920F920FB60F9211242F9354
:101050003F938F939F93AF93BF938091810590911E
:101060008205A0918305B09184053091800523E02D
:10107000230F2D3720F40196A11DB11D05C026E8D0
:10108000230F0296A11DB11D209380058093810539
:1010900090938205A0938305B09384058091850584
:1010A00090918605A0918705B09188050196A11DB4
:1010B000B11D8093850590938605A0938705B09315
:1010C0008805BF91AF919F918F913F912F910F9084
:1010D0000FBE0F901F9018952FB7F894609181055F
:1010E0007091820580918305909184052FBF0895AA
:1010F0003FB7F8948091850590918605A09187056A
:10110000B091880526B5A89B05C02F3F19F0019620
:10111000A11DB11D3FBFBA2FA92F982F8827820F7D
:10112000911DA11DB11DBC01CD0142E0660F771FCD
:10113000881F991F4A95D1F708958F929F92AF9279
:10114000BF92CF92DF92EF92FF926B017C01D0DFD2
:101150004B015C01C114D104E104F104F9F00E94D7
:101160005511C6DFDC01CB0188199909AA09BB0911
:10117000883E9340A105B10568F321E0C21AD10869
:10118000E108F10888EE880E83E0981EA11CB11CCE
:10119000C114D104E104F10421F7DCCFFF90EF90FA
:1011A000DF90CF90BF90AF909F908F900895823046
:1011B000910538F0880F991F880F991F059701979F
:1011C000F1F70895789484B5826084BD84B5816018
:1011D00084BD85B5826085BD85B5816085BDEEE63F
:1011E000F0E0808181608083E1E8F0E0108280811E
:1011F00082608083808181608083E0E8F0E080818C
:1012000081608083E1EBF0E0808184608083E0EBAB
:10121000F0E0808181608083E1E9F0E0808182609C
:101220008083808181608083E0E9F0E0808181605B
:101230008083E1EAF0E08081826080838081816048
:101240008083E0EAF0E0808181608083E1E2F1E088
:10125000808182608083808181608083E0E2F1E030
:10126000808181608083EAE7F0E080818460808310
:1012700080818260808380818160808380818068BA
:1012800080831092C100089590E0FC013197E23113
:10129000F10508F04EC08827EE58FF4F8F4F0C9491
:1012A0008914809180008F7703C0809180008F7DAA
:1012B00080938000089580918000877FF9CF84B566
:1012C0008F7702C084B58F7D84BD08958091B00072
:1012D0008F7703C08091B0008F7D8093B000089518
:1012E000809190008F7707C0809190008F7D03C020
:1012F00080919000877F8093900008958091A00056
:101300008F7707C08091A0008F7D03C08091A000DF
:10131000877F8093A0000895809120018F7707C078
:10132000809120018F7D03C080912001877F809371
:1013300020010895CF93DF9390E0FC01E25BFE4F24
:101340002491FC01EC56FE4F8491882361F190E0DA
:10135000880F991FFC01E25FFD4FC591D491FC01FC
:10136000EC50FE4FA591B491611109C09FB7F8945C
:101370008881209582238883EC912E230BC06230D4
:1013800061F49FB7F8948881322F30958323888346
:10139000EC912E2B2C939FBF06C08FB7F894E88159
:1013A0002E2B28838FBFDF91CF9108951F93CF936A
:1013B000DF93282F30E0F901E85FFE4F8491F901B7
:1013C000E25BFE4FD491F901EC56FE4FC491CC2361
:1013D000B9F0162F811158DFEC2FF0E0EE0FFF1F50
:1013E000EC50FE4FA591B4919FB7F894111104C031
:1013F0008C91D095D82302C0EC91DE2BDC939FBF5B
:10140000DF91CF911F910895CF93DF93282F30E084
:10141000F901E85FFE4F8491F901E25BFE4FD49140
:10142000F901EC56FE4FC491CC2389F081112CDFD9
:10143000EC2FF0E0EE0FFF1FE652FE4FA591B491A6
:10144000EC91ED2381E090E021F480E002C080E0A7
:1014500090E0DF91CF910895FC0180819181009708
:1014600011F00C9429150895CF93DF93EC01888136
:101470009981009711F00E942915198218821D8206
:101480001C821B821A82DF91CF9108950F931F93C4
:10149000CF93DF93EC018B016F5F7F4F8881998140
:1014A0000E94B215009731F0998388831B830A83C9
:1014B00081E001C080E0DF91CF911F910F910895ED
:1014C000CF93DF93EC0188819981892B29F08A8160
:1014D0009B818617970758F4CE01D8DF882341F007
:1014E0008C819D81892B19F4E881F981108281E03A
:1014F000DF91CF910895EF92FF920F931F93CF93B7
:10150000DF93EC017B018A01BA01DADF811103C0AC
:10151000CE01AADF07C01D830C83B70188819981A2
:101520000E94AC16CE01DF91CF911F910F91FF90D9
:10153000EF900895FC0111821082138212821582AD
:1015400014826115710549F0FB0101900020E9F753
:101550003197AF01461B570BCECF0895CF93DF9342
:10156000EC016115710551F0FB0101900020E9F7D4
:101570003197AF01461B570BBEDF01C075DFCE01AF
:10158000DF91CF9108950F931F93CF93DF93CDB742
:10159000DEB762970FB6F894DEBF0FBECDBF8C01E9
:1015A000CB01F801118210821382128215821482FB
:1015B00050E0BE016F5F7F4F0E94CD16BE016F5F8E
:1015C0007F4FC801CBDF62960FB6F894DEBF0FBE27
:1015D000CDBFDF91CF911F910F910895AF92BF9230
:1015E000CF92DF92EF92FF920F931F93CF93DF93EF
:1015F0007B018A01FB01448155814115510561F14F
:10160000FC01248135812115310531F1241735077D
:1016100018F10217130718F0890101501109FC0194
:10162000A080B180C501DFEFCFEF6501C00ED11EF4
:10163000C816D906A0F0F701608171810E94B31627
:10164000009769F09C012A193B090217130710F053
:10165000D22FC32F0196ECCF8FEF9FEF02C08D2FBB
:101660009C2FDF91CF911F910F91FF90EF90DF9012
:10167000CF90BF90AF9008952F923F924F925F927C
:101680006F927F928F929F92AF92BF92CF92DF9292
:10169000EF92FF920F931F93CF93DF93FC0144804F
:1016A00055804114510409F4CCC0FB01848095801D
:1016B0008114910409F4C5C07A016B018C01FA010F
:1016C0006480758068187908FC01C081D18161143B
:1016D0007104B9F4F60160817181CE010E94B316E4
:1016E000EC01009709F4ADC0F7016081718144817C
:1016F00055810E949216F70184819581C80FD91FE8
:10170000E9CF77FE44C05E01F60160817181C501B9
:101710000E94B3162C01009721F14C018A189B08F6
:10172000A401B501CE010E949216C80DD91DF70182
:101730006081718144815581CE010E949216F7012A
:1017400084819581C80FD91FF601A480B580A40CAF
:10175000B51CF80184819581860D971D958384833E
:10176000D3CFB501CE01DF91CF911F910F91FF90A3
:10177000EF90DF90CF90BF90AF909F908F907F9031
:101780006F905F904F903F902F900C94AC16FB01A0
:10179000208031805201B101CE010E94B316009722
:1017A00031F0EC01C80DD91DA60CB71CF4CFA41460
:1017B000B50409F446C0F801828193818A159B051E
:1017C00028F4B501C80162DE8823D9F1F80144810B
:1017D00055814150510957FD34C0B601C801FEDEA4
:1017E000EC0197FD2EC0F60124813581280F391FA9
:1017F000F80180819181820F931F44815581421BA2
:10180000530BBC01860D971D0E949B16F801848125
:101810009581860D971D9583848320813181F901FF
:10182000E80FF91F1082F80180819181F701608132
:101830007181448155818C0F9D1F0E949216AE01CB
:10184000C8CFDF91CF911F910F91FF90EF90DF9064
:10185000CF90BF90AF909F908F907F906F905F9050
:101860004F903F902F9008959B01777080E090E01B
:1018700033FF09C00E9461039B01AC0160E070E08E
:10188000CB010C94CB020C946103EF92FF920F9367
:101890001F93CF93DF93C62F7A01022FFC01608143
:1018A0008DE896E07FD46C2F8DE896E02ED4E7018A
:1018B00010E0CE018E199F09801791072CF46991D1
:1018C0008DE896E022D4F5CF8DE896E0DF91CF91B8
:1018D0001F910F91FF90EF90E3C4CF93DF931F927E
:1018E000CDB7DEB7498321E0AE014F5F5F4FCDDF5B
:1018F0000F90DF91CF910895FC0124812E7F2483E6
:1019000021FB442740F950E0440F551F63E0E5CF29
:10191000CF93DF93EC0168838DE896E034D419828D
:1019200040E060E0CE01D9DF8FE38A834FE361E0DE
:10193000CE01D3DFCE01E0DF8B818E7F8B8340E051
:1019400062E0CE01CADF64E670E080E090E0F5DBA3
:1019500081E0DF91CF9108956F927F928F929F9255
:10196000AF92BF92CF92DF92EF92FF920F931F93AD
:10197000CF93DF938C01662E6A01722EC0E0C715EB
:1019800078F5D72DDC1BD13208F0D0E2F801608168
:101990008DE896E007D46C2F660D8DE896E0B5D300
:1019A0008DE896E07DD44D2FF80160818DE896E0BA
:1019B00075D4812C912CAD2EB12C8C2F880D8A14CE
:1019C0009B0414F0CD0FDBCF7601E80EF11C8DE8FF
:1019D00096E015D3F7018083FFEF8F1A9F0AEDCFB2
:1019E000DF91CF911F910F91FF90EF90DF90CF90FB
:1019F000BF90AF909F908F907F906F9008950F93BE
:101A00001F93CF93DF931F921F92CDB7DEB78C0148
:101A100022E0AE014F5F5F4F6EE09EDF69817A8109
:101A2000C80122DF20E030E040E85DE3DFD60F9020
:101A30000F90DF91CF911F910F9108958F929F92F8
:101A4000AF92BF92CF92DF92EF92FF920F931F93CC
:101A5000CF93DF93CDB7DEB7F62E172F042F8DB6B9
:101A60009EB6242F220F46FD20E84DB75EB7421BDD
:101A700051090FB6F8945EBF0FBE4DBFEDB7FEB76C
:101A800031965F01AF0160E867DFCF2CD12EE12CEA
:101A9000F12C10E0E016F10654F58E2D880FF501BB
:101AA000E80FF11D618170E0762F66278081682B39
:101AB00094E0660F771F9A95E1F724E07595679596
:101AC0002A95E1F7072E000C880B990B0E946303FF
:101AD00020E030E040E85EE389D6F601619371933F
:101AE000819391936F01FFEFEF1AFF0AD3CF0FB6E7
:101AF000F8949EBE0FBE8DBEDF91CF911F910F91C6
:101B0000FF90EF90DF90CF90BF90AF909F908F901D
:101B10000895AF92BF92CF92DF92EF92FF920F9310
:101B20001F93CF93DF93EC01E62EA72EF42EB52E54
:101B300069018FEF9FEF9D838C839F838E8361E08C
:101B40008E2DF8DB60E08F2DF5DBE882A982FA822A
:101B5000BB82DD82CC821F830E83DF91CF911F91E8
:101B60000F91FF90EF90DF90CF90BF90AF900895CE
:101B7000CF92DF92EF92FF92CF93DF93EC0160E080
:101B8000888114DC85E090E012DB61E088810EDC66
:101B90008AE090E00CDB60E0888108DC8A8134DC3C
:101BA000892BE1F3A5DA6B017C018A812DDC019799
:101BB000E1F39EDACB018C199D09DF91CF91FF9063
:101BC000EF90DF90CF900895CF93DF93EC01D0DFBB
:101BD00097FD0196BC0175956795072E000C880B43
:101BE000990B0E94630327EE3BEF49EA5EE3FED5C3
:101BF0000E9430039B014C815D814F3FAFEF5A073C
:101C000021F4EE81FF81319659F0421753072CF4ED
:101C10004E815F81241735071CF08FEF9FEF01C0C5
:101C2000CB01DF91CF910895EF92FF920F931F9315
:101C3000CF93DF93CDB7DEB72C970FB6F894DEBF06
:101C40000FBECDBF8C017B0161E173E073DCC70186
:101C5000BBDF4AE0BC01CE01079695DC6AE773E082
:101C6000CE01019667DCAE01495F5F4FBE016F5F39
:101C70007F4FC80101DDCE010196EEDBCE01079654
:101C8000EBDBC8012C960FB6F894DEBF0FBECDBFBC
:101C9000DF91CF911F910F91FF90EF9008952091C8
:101CA0008B0630918C0628173907A9F49091890585
:101CB00080918A05981779F0E0918905F0E0E55761
:101CC000FA4F80812091890530E02F5F3F4F2093AC
:101CD000890590E008958FEF9FEF08951F93CF93AC
:101CE000DF93DC015C968D919C915D97009739F4B0
:101CF00021E030E013963C932E9312973BC051960F
:101D0000ED91FC91529750962C915097322F30952F
:101D10001FB75E964C915E97742F727041FD60956F
:101D2000F8944081772311F0422B01C04323408374
:101D3000EC012197F1F748E0508160FF02C0522B7F
:101D400001C053235083EC012197F1F76695415070
:101D500099F78081772319F08323808302C0282B91
:101D600020831FBF5C968D919C915D970197F1F741
:101D700081E090E0DF91CF911F9108950895209127
:101D80008B0630918C062817390771F490918905DC
:101D900080918A05981741F0E0918905F0E0E557B8
:101DA000FA4F808190E008958FEF9FEF0895209182
:101DB0008B0630918C062817390739F480918A05F3
:101DC00090918905891B90E0089580E090E0089546
:101DD000E0918B06F0918C06E817F90769F4A38966
:101DE000B4899C918589809589238C9310928C0667
:101DF00010928B0681E0089580E008951F920F9263
:101E00000FB60F9211240BB60F922F933F934F935F
:101E10005F936F937F938F939F93AF93BF93EF9352
:101E2000FF93E0918B06F0918C06309709F44FC038
:101E3000968DA685B785858591FF04C09C918923E1
:101E400029F445C09C91892309F041C0A389B48934
:101E50009C918589809589238C93868997890197A0
:101E6000F1F7608D718DA685B785558538E020E046
:101E7000CB010197F1F7822F90E095958795282F58
:101E80004C91452309F02068315091F7868D81FDF2
:101E9000209580918A0590E0019630918905381748
:101EA00049F0A0918A05B0E0A557BA4F2C938093D2
:101EB0008A0503C0868D8160868F828D938D019700
:101EC000F1F7A389B4899C918589892B8C93FF9123
:101ED000EF91BF91AF919F918F917F916F915F91A2
:101EE0004F913F912F910F900BBE0F900FBE0F900F
:101EF0001F9018952BE833E0FC013183208368CFD5
:101F00001F93CF93DF93EC01162F6E8D6695617052
:101F100081E06827812F4ADA61E0812F0BDA812F77
:101F200090E0FC01E25BFE4FE491E88BFC01EC5693
:101F3000FE4FE491F0E0EE0FFF1FEC50FE4F859155
:101F400094919A8B898BDF91CF911F9108951F9364
:101F5000CF93DF93EC01162F60E0812FEBD98E8DAC
:101F600081FD03C061E0812F21DA1C87812F90E081
:101F7000FC01E25BFE4FE491ED87FC01EC56FE4F65
:101F8000E491F0E0EE0FFF1FE652FE4F8591949131
:101F90009F878E87DF91CF911F9108951F93CF93D5
:101FA000DF93EC01162F1B821A8288EE93E0A0E0EB
:101FB000B0E08C839D83AE83BF838BE893E09983ED
:101FC00088831F8A1E8A198E188E1B8E1A8E1D8E6C
:101FD0001C8E8E8D8E7F20FB81F98E8F642FCE011B
:101FE0008FDF612FCE01DF91CF911F91B0CF809114
:101FF000C10690E02091C206821B9109089590913C
:10200000C2068091C106981750F4E92FF0E0ED5315
:10201000F94F208130E09F5F9093C20602C02FEFFE
:102020003FEFC9010895E091C2068091C106E8170B
:1020300030F4F0E0ED53F94F808190E008958FEF98
:102040009FEF08950895CF93DF93EC01E0919906F7
:10205000F0919A063097F1F09091C2068091C106F6
:102060009817C0F090E0292F30E02617370754F476
:10207000DE01A20FB31F4C91D901AD53B94F4C9360
:102080009F5FF1CF1092C2066093C106CB01DF9132
:10209000CF911994DF91CF910895E0919B06F09133
:1020A0009C06309729F010929F0610929E06199474
:1020B0000895CF92DF92EF92FF920F931F93CF93E9
:1020C000DF937C01CB018A0120919D06222389F0B8
:1020D000EB016B01C40ED51ECC15DD0561F06991D5
:1020E000D701ED91FC910190F081E02DC701199588
:1020F000F3CF642F95D1C801DF91CF911F910F913C
:10210000FF90EF90DF90CF900895CF93DF931F92D1
:10211000CDB7DEB7698320919D062223D1F02091AF
:102120009E06203240F021E030E0FC013383228320
:1021300080E090E014C080919F06E82FF0E0E05628
:10214000F94F998190838F5F80939F0680939E06BD
:1021500004C061E0CE01019663D181E090E00F9070
:10216000DF91CF910895FC011382128288EE93E0F3
:10217000A0E0B0E084839583A683B7838DE993E0E4
:102180009183808308951092C2061092C106109226
:102190009F0610929E068AD08DE490E16ED183E274
:1021A00090E166C181E080939D066093C006109225
:1021B0009F0610929E0608950F93062F21E04091EE
:1021C0009E0660EA76E08091C006D4D010929F0609
:1021D00010929E0610929D060F9108954F925F9265
:1021E0006F927F92AF92BF92CF92EF92FF920F9336
:1021F0001F93CF93DF935C01F62ED42F2801390172
:10220000EE2011F1CFDFCE2DC43008F0C3E0C15075
:10221000C0F028E0C29FC0011124A301920104C0B4
:1022200056954795379527958A95D2F7CA01B901F2
:10223000D501ED91FC910190F081E02DC50119953A
:10224000E6CF60E0C501B8DF4D2FD13208F040E2A3
:102250002C2D63EC76E08F2D45D01092C206809332
:10226000C106DF91CF911F910F91FF90EF90CF901A
:10227000BF90AF907F906F905F904F900895CF92F6
:10228000EF920F931F93C22EE12C00E010E0980113
:10229000A5DF1F910F91EF90CF90089521E0EFCF30
:1022A00061E08ACF8DE896E05ECF089510925007E6
:1022B00081E080934E0710924D0761E084E176D86B
:1022C00061E085E173D8E9EBF0E080818E7F808367
:1022D00080818D7F808388E48093B80085E480933B
:1022E000BC000895413208F043C09091500791110D
:1022F000FCCF91E09093500720934E072FEF20934F
:10230000E30610922807240F2093270790934F0786
:1023100090914F07880F892B80934F0780914D072D
:10232000813061F410924D0780914F078093BB007C
:102330008091BC0083FDF8CF85EC01C085EE8093D1
:10234000BC00809150078130E1F380912807841709
:1023500010F440912807A9E2B7E0962FFB018E2FD9
:10236000891B841718F48D918193F9CF842F0895D8
:1023700080E008950F93413208F04AC090915007D1
:102380009111FCCF32E03093500700934E073FEF9E
:102390003093E3061092280740932707562FA9E2AF
:1023A000B7E0FB013E2F351B341718F431913D93F4
:1023B000F9CF10924F0730914F07880F832B8093EE
:1023C0004F0780914D07813061F410924D07809145
:1023D0004F078093BB008091BC0083FDF8CF85EC54
:1023E00001C085EE8093BC00222321F0809150072C
:1023F0008230D1F38091E3068F3F79F08091E3063C
:10240000803241F08091E306803331F094E005C0E2
:1024100091E003C092E001C093E0892F0F910895ED
:1024200040910507262F30E0240F311D2132310560
:10243000DCF4209150072430C9F4FC0180E090E0E6
:10244000861758F4309105072191DC01A95FB84F38
:10245000A30FB11D2C930196F3CF80910507680F50
:102460006093050780E0089581E0089582E0089573
:1024700090934A0780934907089590934C0780935F
:102480004B07089585ED8093BC008091BC0084FDCE
:10249000FCCF10925007089585EC8093BC001092F9
:1024A000500708951F920F920FB60F9211240BB68A
:1024B0000F922F933F934F935F936F937F938F93DD
:1024C0009F93AF93BF93EF93FF938091B900887F61
:1024D000803609F49DC070F5883209F45CC090F430
:1024E000803109F455C038F4882309F4F3C08830EA
:1024F00009F44EC0F2C0883109F44DC0803209F4AD
:102500005EC0EBC0803409F469C050F4803309F434
:1025100056C0883309F0E1C08093E306BDDFDDC01B
:10252000803509F44FC0883509F45DC0883409F05E
:10253000D4C0D2C0883909F4C3C0A8F4883709F4DC
:1025400067C038F4883609F463C0803709F460C086
:10255000C4C0883809F4B4C0803909F45FC0803839
:1025600009F0BBC05BC0803B09F482C038F4803AFC
:1025700009F466C0883A09F47BC0AFC0803C09F416
:10258000A3C0883C09F4A0C0883B09F486C0A5C05C
:1025900080914F0710C090912807809127079817C6
:1025A00070F5E091280781E08E0F80932807F0E016
:1025B000E75DF84F80818093BB0085EC82C08093FB
:1025C000E3068AC0E091280781E08E0F80932807F8
:1025D0008091BB00F0E0E75DF84F80839091280781
:1025E000809127076AC0E091280781E08E0F8093D1
:1025F00028078091BB00F0E0E75DF84F8083809171
:102600004E07811169C081E080934D0784EA5DC067
:1026100083E0809350071092E406CFCF8091E406C8
:10262000803208F04DC0E091E40681E08E0F809387
:10263000E4068091BB00F0E0EB51F94F8083BDCF01
:102640002BDF8091E406803230F4E091E406F0E084
:10265000EB51F94F10826091E40670E0E091490778
:10266000F0914A0785EE96E019951092E40635C080
:1026700084E0809350071092060710920507E091BE
:102680004B07F0914C07199580910507811105C002
:1026900081E08093050710920707E091060781E02B
:1026A0008E0F80930607F0E0E95FF84F80818093FA
:1026B000BB009091060780910507981708F47DCF1D
:1026C00085E88093BC0009C085EC8093BC00109223
:1026D000500703C01092E306D5DEFF91EF91BF9142
:1026E000AF919F918F917F916F915F914F913F91AA
:1026F0002F910F900BBE0F900FBE0F901F9018954B
:102700000E94F30308F481E0089512D00C94B503FD
:102710000E94AE0358F00E94A70340F029F45F3FE7
:1027200029F00C949E0351110C94E9030C94A4031A
:102730000E94C60368F39923B1F3552391F3951BC7
:10274000550BBB27AA2762177307840738F09F5FD2
:102750005F4F220F331F441FAA1FA9F335D00E2E3F
:102760003AF0E0E832D091505040E695001CCAF7AC
:102770002BD0FE2F29D0660F771F881FBB1F26176F
:1027800037074807AB07B0E809F0BB0B802DBF0146
:10279000FF2793585F4F3AF09E3F510578F00C9415
:1027A0009E030C94E9035F3FE4F3983ED4F38695CF
:1027B00077956795B795F7959F5FC9F7880F911D36
:1027C0009695879597F90895E1E0660F771F881F22
:1027D000BB1F621773078407BA0720F0621B730BD5
:1027E000840BBA0BEE1F88F7E095089511D00C9476
:1027F000B5030E94A70338F00E94AE0320F0952392
:1028000011F00C949E030C94A40311240C94E9037E
:102810000E94C60370F3959FC1F3950F50E0551FBA
:10282000629FF001729FBB27F00DB11D639FAA2725
:10283000F00DB11DAA1F649F6627B00DA11D661F74
:10284000829F2227B00DA11D621F739FB00DA11D95
:10285000621F839FA00D611D221F749F3327A00D4F
:10286000611D231F849F600D211D822F762F6A2FEB
:1028700011249F5750409AF0F1F088234AF0EE0F50
:10288000FF1FBB1F661F771F881F91505040A9F77D
:102890009E3F510580F00C949E030C94E9035F3F2A
:1028A000E4F3983ED4F3869577956795B795F795B9
:1028B000E7959F5FC1F7FE2B880F911D9695879531
:1028C00097F908950E94F303880B990B0895A1E2EC
:1028D0001A2EAA1BBB1BFD010DC0AA1FBB1FEE1F9A
:1028E000FF1FA217B307E407F50720F0A21BB30BE5
:1028F000E40BF50B661F771F881F991F1A9469F761
:1029000060957095809590959B01AC01BD01CF01BC
:102910000895EE0FFF1F881F8BBF0790F691E02DE3
:1029200019940F931F93CF93DF938230910510F486
:1029300082E090E0E0915307F091540720E030E00E
:10294000A0E0B0E0309719F14081518102811381FC
:1029500048175907C8F08417950769F4109731F0A4
:1029600012960C93129713961C9327C0009353074B
:102970001093540722C02115310519F0421753074F
:1029800018F49A01BD01EF01DF01F801DBCF211539
:102990003105F9F0281B390B2430310580F48A8188
:1029A0009B816115710521F0FB019383828304C033
:1029B0009093540780935307FE01329644C0FE0162
:1029C000E20FF31F819391932250310939832883B9
:1029D0003AC02091510730915207232B41F42091A6
:1029E0000202309103023093520720935107209145
:1029F0000002309101022115310541F42DB73EB797
:102A00004091040250910502241B350BE0915107BF
:102A1000F0915207E217F307A0F42E1B3F0B281783
:102A2000390778F0AC014E5F5F4F2417350748F047
:102A30004E0F5F1F5093520740935107819391931C
:102A400002C0E0E0F0E0CF01DF91CF911F910F9144
:102A50000895CF93DF93009709F481C0FC0132976A
:102A600013821282A0915307B0915407109781F4FA
:102A700020813181820F931F20915107309152079D
:102A80002817390751F5F0935207E093510767C0B3
:102A9000ED0120E030E0CE17DF0740F44A815B8192
:102AA0009E0141155105F1F0EA01F5CFD383C283B0
:102AB00040815181840F951FC817D90759F4888127
:102AC0009981840F951F0296918380838A819B81CF
:102AD000938382832115310529F4F0935407E09301
:102AE00053073DC0E901FB83EA8349915991C40F23
:102AF000D51FEC17FD0761F480819181840F951F2C
:102B00000296E90199838883828193819B838A83DA
:102B1000E0E0F0E012968D919C911397009719F0E8
:102B2000FD01DC01F7CF8D919C9111979D012E5FE6
:102B30003F4F820F931F2091510730915207281762
:102B4000390769F4309729F410925407109253070B
:102B500002C013821282B0935207A0935107DF91F3
:102B6000CF9108956F927F928F929F92AF92BF9272
:102B7000CF92DF92EF92FF920F931F93CF93DF9349
:102B8000009781F4CB01DF91CF911F910F91FF90BE
:102B9000EF90DF90CF90BF90AF909F908F907F90FD
:102BA0006F90BFCEFC01E60FF71F9C012250310948
:102BB000E217F30708F4A5C0EC01D9010D911C91AF
:102BC000119706171707A8F00530110508F497C0EC
:102BD000C80104978617970708F491C0025011099D
:102BE000061B170B019311936D937C93CF0131DF7B
:102BF00086C05B01A01AB10A4C01800E911EA09103
:102C00005307B0915407612C712CE12CF12C1097D3
:102C100009F446C08D919C911197A815B905B1F59D
:102C20006C0142E0C40ED11CCA14DB0478F14C01E3
:102C30008A189B08640142E0C40ED11C1296BC9015
:102C400012971396AC91B5E0CB16D10440F0B28246
:102C5000A38391828082D9016D937C9309C00E5F1A
:102C60001F4F800F911FF90191838083EB2DFA2F65
:102C7000E114F10431F0D7011396FC93EE9312970F
:102C80003EC0F0935407E093530739C068167906A5
:102C900008F43C017D0112960D90BC91A02DB7CF98
:102CA000809151079091520788169906E1F46616B3
:102CB0007706C8F48091000290910102009741F4D8
:102CC0008DB79EB74091040250910502841B950B6D
:102CD000E817F907B0F4F0935207E0935107F901B0
:102CE000718360830CC0CB011CDE7C01009749F02E
:102CF000A801BE0117D0CE01ACDEC70104C0CE01D1
:102D000002C080E090E0DF91CF911F910F91FF9082
:102D1000EF90DF90CF90BF90AF909F908F907F907B
:102D20006F900895FB01DC0102C001900D924150AB
:102D30005040D8F708956817790768F4FB01DC0163
:102D4000E40FF51FA40FB51F02C002900E92415070
:102D50005040D8F70895E6CFFB01DC0101900D92B9
:102D60000020E1F70895FB0151915523A9F0BF011F
:102D7000DC014D9145174111E1F759F4CD01019066
:102D8000002049F04D9140154111C9F3FB0141115B
:102D9000EFCF81E090E0019708954532510518F496
:102DA000423008F004C0FB011082CB010895BB271C
:102DB0004A3031F4992322F4BDE2909581959F4FDA
:102DC00001C0BB27FB015527AA27880F991FAA1FFF
:102DD000A41710F0A41B83955051B9F7A05DAA3336
:102DE00008F0A95DA193009779F7B111B193119201
:102DF000CB0100C0DC01FC01672F71917723E1F763
:102E0000329704C07C916D9370836291AE17BF07B7
:102E1000C8F3089511E0C7E1D1E000E005C0802FBC
:102E2000FE0177DD2196011DC831D10780E008073A
:062E3000B1F7F894FFCF9A
:102E3600000055072000436F756C64206E6F742088
:102E460066696E6420612076616C696420414D4735
:102E5600383878782073656E736F722C20636865D6
:102E6600636B20776972696E6721002D2D2050698A
:102E760078656C732054657374202D2D005B002CCF
:102E860020005D0050495220706F73697469766541
:102E96002064657465637400504952206E656761ED
:102EA600746976652064657465637400536574752A
:102EB600702074696D653A2000496E697469616CA9
:102EC600697A696E672E2E2E0041540041544531B1
:102ED600004154490041542B4353510041542B4364
:102EE6005245473F0041542B43494343494400411F
:102EF600542B43534D533F0041542B434D47463DBE
:102F0600310041542B434E4D493D312C322C302C4F
:102F1600302C300041542B43475053203D20310084
:102F260000000000B20427064504FE04170431041D
:102F360023040D0A006E616E00696E66006F766688
:102F4600007B2250726F746F636F6C223A22426963
:102F560066726F7374222C22446576696365223A21
:102F660022484353523034222C22447269766572C9
:102F76002076657273696F6E223A22322E302E30B9
:102F8600222C2250726F70657274696573223A7BC7
:102F96002244697374616E6365223A3C3C4449532A
:102FA60054414E43453E3E7D7D003C3C444953548E
:102FB600414E43453E3E00000000006E0E2706844B
:102FC60005BE0ED70E4F0EBF0E000000008510592D
:0C2FD6001084052210F70FFF0F131000ED
:00000001FF
