S01700005344505F746573745F736B657463682E7372656326
S113000017C1000045C1000043C1000041C1000008
S11300103FC100003DC100003BC1000039C10000E8
S113002037C1000035C1000033C1000031C10000F8
S11300302FC100002DC100002BC1000029C1000008
S113004027C1000025C1000023C1000021C1000018
S11300501FC100001DC100001BC100000C94E70873
S113006017C1000084C50000B8C5000011C100001C
S11300700FC100000DC100000BC1000009C1000048
S113008007C1000005C1000003C1000001C1000058
S113009003C6000037C60000FBC000000C946E11BC
S11300A0F7C00000F5C00000F3C00000F1C000007C
S11300B0EFC00000EDC00000EBC00000E9C000008C
S11300C0E7C00000E5C00000E3C00000E1C000009C
S11300D0DFC00000DDC00000DBC00000D9C00000AC
S11300E0D7C00000230A260A150A190A1F0A5D0A46
S11300F02A0A2E0A340A380A3C0A420A460A4A0ADA
S11301005D0A500A540A580A00000A0B02090C0D31
S11301100E080703040100000000000000000000B6
S113012000000000000000000000000000000000CB
S11301300000000012111000000000000000000088
S113014000000000000000000000000000000102A8
S113015010202008081020401020408002010201D5
S1130160080402010102040810204080804020108D
S113017008040201800402018040201008040201E6
S1130180080402010102040810204080010204084E
S11301901020408005050505070508080808020227
S11301A002020A0A0808040404040101010101010D
S11301B001010303030303030303040707070C0CF0
S11301C00C0C0C0C0C0C02020202060606060606B7
S11301D006060B0B0B0B0B0B0B0B00002000230074
S11301E0260029002C002F0032000001000003012A
S11301F00601090100002200250028002B002E0022
S11302003100340002010000050108010B01000067
S11302102100240027002A002D00300033000101B2
S11302200000040107010A01EB021F06B4066E1068
S113023011241FBECFEFD1E2DEBFCDBF00E00CBF63
S113024013E0A0E0B2E0E0E5FCE200E00BBF02C096
S113025007900D92AA39B107D9F726E0AAE9B3E0CD
S113026001C01D92AD3BB207E1F711E0C8E1D1E056
S113027000E006C021970109802FFE010E94A5130A
S1130280C431D10780E00807A9F79CD50C94261641
S1130290B7CECF93DF93EC0160E087E10E949A0A26
S11302A064E670E080E090E00E94620969E6CE01B5
S11302B00E944C0D811106C066E072E082EB94E06E
S11302C0F3D5FFCF6BE372E082EB94E0EDD582EBE4
S11302D094E0D7D564E670E080E090E0DF91CF91C0
S11302E0F1C70F931F93CF93DF938C01D62FC72FA2
S11302F060E087E10E949A0A64E670E080E090E0A2
S1130300E1D740E46D2F7C2FC8010E94E20D6DE41B
S113031072E082EB94E0ADD50D2F1C2FC1E0D0E04C
S1130320F80141915191619171918F0122E030E086
S113033082EB94E04BD76FE472E082EB94E099D5C2
S1130340CE0187709927892B19F482EB94E099D513
S11303502196C134D10521F762E572E082EB94E085
S1130360A3D582EB94E08DD561E087E10E949A0ADF
S113037068EE73E080E090E0DF91CF911F910F91E0
S1130380A1C7CF92DF92EF92FF920F931F93CF9367
S1130390DF93CDB7DEB760970FB6F894DEBF0FBE1C
S11303A0CDBF60E087E20E949A0A60E082E20E9488
S11303B09A0A64E670E080E090E084D78AE993E0EA
S11303C00E94A80E80E20E94C80A4AE050E0BC01E4
S11303D082EB94E01DD680E20E94C80A8C014AE0B8
S11303E050E0BC0182EB94E013D682EA94E00E94D0
S11303F0C30D6B017C0180E1E2EAF4E0DE011196B9
S113040001900D928A95E1F762EA73E0CE010196BC
S113041068DFC701B60155D1072E000C880B990B74
S113042083D19B01AC016091A2037091A3038091DD
S1130430A4039091A503E0D020E030E040EA50E42A
S1130440FFD181E090E0843091052CF090E0012B05
S113045021F480E002C080E090E060960FB6F8944A
S1130460DEBF0FBECDBFDF91CF911F910F91FF90E3
S1130470EF90DF90CF90089584DF68EE73E080E022
S113048090E020C761E087E20E945E0A61E087E1B4
S11304900E945E0A61E082E20E945E0A60E080E2FD
S11304A00E945E0A60E087E20E949A0A60E087E1A7
S11304B00E949A0A60E082E20C949A0A8F929F92B8
S11304C0AF92BF92CF92DF92EF92FF92CF93DF93DE
S11304D0CDB7DEB760970FB6F894DEBF0FBECDBFC1
S11304E0C0D64B015C0126E040E855E260E070E0D4
S11304F082EB94E0D4D2C6DF80E1E2EAF4E0DE01EC
S1130500119601900D928A95E1F7CE010196C1DE14
S1130510B9DF64E670E080E090E0D4D680E1E2EAFE
S1130520F4E0DE01119601900D928A95E1F762EAFA
S113053073E0CE010196D5DE60E087E2FBD760E090
S113054082E2F8D764E670E080E090E0BBD66AE926
S113055073E0CE0101960E94D80EBE016F5F7F4FFB
S113056082EB94E091D4CE0101960E94F00A80E2DD
S11305700E94C80A892B19F064E572E002C068E69B
S113058072E082EB94E090D46CD66B017C016CE752
S113059072E082EB94E06DD4B601681979094AE0FF
S11305A050E082EB94E034D561E087E2C3D761E0A8
S11305B082E2C0D760960FB6F894DEBF0FBECDBFFF
S11305C0DF91CF91FF90EF90DF90CF90BF90AF90ED
S11305D09F908F9008950F931F9300EA1FE024E1EA
S11305E030E04BE150E06DE170E08AE993E00E9475
S11305F04D0E1F910F9108955058BB27AA270ED076
S1130600E5C0D6D030F0DBD020F031F49F3F11F4B8
S11306101EF4CBC00EF4E095E7FBC1C0E92FE7D090
S113062080F3BA17620773078407950718F071F40B
S11306309EF5FFC00EF4E0950B2EBA2FA02D0B01F2
S1130640B90190010C01CA01A0011124FF27591B13
S113065099F0593F50F4503E68F11A16F040A22F19
S1130660232F342F4427585FF3CF4695379527958A
S1130670A795F0405395C9F77EF41F16BA0B620B89
S1130680730B840BBAF09150A1F0FF0FBB1F661FD0
S1130690771F881FC2F70EC0BA0F621F731F841F13
S11306A048F4879577956795B795F7959E3F08F039
S11306B0B3CF9395880F08F09927EE0F97958795F8
S11306C0089504D06894B111B5C0089598D088F005
S11306D09F5790F0B92F9927B751A0F0D1F0660F2A
S11306E0771F881F991F1AF0BA95C9F712C0B13045
S11306F081F09FD0B1E008959CC0672F782F8827A0
S1130700B85F39F0B93FCCF3869577956795B39583
S1130710D9F73EF490958095709561957F4F8F4FF2
S11307209F4F0895E89409C097FB3EF490958095F7
S1130730709561957F4F8F4F9F4F9923A9F0F92FA3
S113074096E9BB279395F695879577956795B79521
S1130750F111F8CFFAF4BB0F11F460FF1BC06F5F07
S11307607F4F8F4F9F4F16C0882311F096E911C019
S1130770772321F09EE8872F762F05C0662371F03A
S113078096E8862F70E060E02AF09A95660F771F4E
S1130790881FDAF7880F9695879597F9089597F942
S11307A09F6780E870E060E008959FEF80EC089513
S11307B000240A941616170618060906089500243C
S11307C00A9412161306140605060895092E0394B6
S11307D0000C11F4882352F0BB0F40F4BF2B11F42A
S11307E060FF04C06F5F7F4F8F4F9F4F089557FD89
S11307F09058440F551F59F05F3F71F04795880F8B
S113080097FB991F61F09F3F79F087950895121621
S113081013061406551FF2CF4695F1DF08C01616CD
S113082017061806991FF1CF86957105610508947E
S11308300895E894BB2766277727CB0197F9089595
S113084003D008F48FEF0895990F0008550FAA0BF1
S1130850E0E8FEEF16161706E807F907C0F01216CF
S11308601306E407F50798F0621B730B840B950BD2
S113087039F40A2661F0232B242B252B21F4089527
S11308800A2609F4A140A6958FEF811D811D0895C4
S1130890FC01918D228D892F90E0805C9F4F821BFB
S11308A091098F7399270895FC01918D828D981772
S11308B031F0828DE80FF11D858D90E008958FEF62
S11308C09FEF0895FC01918D828D981761F0828DC0
S11308D0DF01A80FB11D5D968C91928D9F5F9F7370
S11308E0928F90E008958FEF9FEF0895FC01538D50
S11308F0448D252F30E0842F90E0821B930B5417F6
S113090010F0CF9608950197089586E196E0892B1B
S113091039F080E090E0892B19F088D1811124C04E
S11309208BEA96E0892B39F080E090E0892B19F06E
S113093012D281111CC080E090E0892B41F080E04C
S113094090E0892B21F00E940000811113C080E007
S113095090E0892BA1F080E090E0892B81F00E9447
S1130960000081110AC008950E940000D9CF0E949E
S11309700000E1CF0E940000EACF0C94000008952B
S1130980FC01848DDF01A80FB11DA35ABF4F2C9128
S1130990848D90E001968F739927848FA689B789F7
S11309A02C93A089B1898C91837080648C93938DEE
S11309B0848D981306C00288F389E02D80818F7D91
S11309C080830895EF92FF920F931F93CF93DF9349
S11309D0EC0181E0888F9B8D8C8D981305C0E8898C
S11309E0F989808185FD25C0F62E0B8D10E00F5FFF
S11309F01F4F0F731127E02E8C8DE8120BC00FB61A
S1130A0007FCFACFE889F989808185FFF5CFCE010B
S1130A10B7DFF2CF8B8DFE01E80FF11DE35AFF4FD4
S1130A20F0829FB7F8940B8FEA89FB8980818062FA
S1130A300AC09FB7F894EE89FF896083E889F98931
S1130A4080818370806480839FBF81E090E0DF9128
S1130A50CF911F910F91FF90EF900895CF93DF9363
S1130A60EC01888D8823C1F0EA89FB89808185FDAA
S1130A7005C0A889B9898C9186FD0EC00FB607FC04
S1130A80F5CF808185FFF2CFA889B9898C9185FF44
S1130A90EDCFCE0175DFE8CFDF91CF910895CF92EE
S1130AA0DF92EF92FF921F93CF93DF93EC016A01E1
S1130AB07B01122FE889F98982E080834115514E28
S1130AC061057105B1F060E079E08DE390E0A70184
S1130AD096010E948313DA01C9010197A109B109A2
S1130AE0B695A795979587959C01211580E13807C0
S1130AF0A8F0E889F989108260E874E88EE190E052
S1130B00A70196010E948313DA01C9010197A10983
S1130B10B109B695A795979587959C01EC85FD85B8
S1130B203083EE85FF852083188EEC89FD89108340
S1130B30EA89FB89808180618083EA89FB898081DD
S1130B4088608083EA89FB89808180688083EA8960
S1130B50FB8980818F7D8083DF91CF911F91FF90EE
S1130B60EF90DF90CF90089580E090E008951F9279
S1130B700F920FB60F9211240BB60F922F938F93EF
S1130B809F93EF93FF93E091C204F091C30480819B
S1130B90E091C804F091C90482FD12C09081809153
S1130BA0CB048F5F8F732091CC04821751F0E091B6
S1130BB0CB04F0E0EE54FB4F958F8093CB0401C03F
S1130BC08081FF91EF919F918F912F910F900BBE98
S1130BD00F900FBE0F901F9018951F920F920FB693
S1130BE00F9211240BB60F922F933F934F935F9361
S1130BF06F937F938F939F93AF93BF93EF93FF93E1
S1130C0082EB94E0BDDEFF91EF91BF91AF919F9194
S1130C108F917F916F915F914F913F912F910F90A1
S1130C200BBE0F900FBE0F901F90189582EB94E0AF
S1130C302FDE21E0892B09F420E0822F0895E2EBD6
S1130C40F4E01382128288EE93E0A0E0B0E08483A3
S1130C509583A683B78384EF92E09183808385ECA8
S1130C6090E09587848784EC90E09787868780EC72
S1130C7090E0918B808B81EC90E0938B828B82EC63
S1130C8090E0958B848B86EC90E0978B868B118E0D
S1130C90128E138E148E08951F920F920FB60F9218
S1130CA011240BB60F922F938F939F93EF93FF937F
S1130CB0E0915F05F09160058081E0916505F09118
S1130CC0660582FD12C09081809168058F5F8F73E5
S1130CD020916905821751F0E0916805F0E0E15B2D
S1130CE0FA4F958F8093680501C08081FF91EF9141
S1130CF09F918F912F910F900BBE0F900FBE0F906D
S1130D001F9018951F920F920FB60F9211240BB6D5
S1130D100F922F933F934F935F936F937F938F9390
S1130D209F93AF93BF93EF93FF938FE495E028DEF7
S1130D30FF91EF91BF91AF919F918F917F916F91AF
S1130D405F914F913F912F910F900BBE0F900FBE6B
S1130D500F901F9018958FE495E09ADD21E0892B80
S1130D6009F420E0822F0895EFE4F5E01382128263
S1130D7088EE93E0A0E0B0E084839583A683B783F4
S1130D8084EF92E0918380838DEC90E09587848753
S1130D908CEC90E09787868788EC90E0918B808B31
S1130DA089EC90E0938B828B8AEC90E0958B848B1A
S1130DB08EEC90E0978B868B118E128E138E148E90
S1130DC008950895C3D2FDDF79DBC5E8D4E054DB90
S1130DD02097E9F39ADDFBCFCF92DF92EF92FF9257
S1130DE00F931F93CF93DF936C017A018B01C0E0C3
S1130DF0D0E0CE15DF0581F0D8016D918D01D601CB
S1130E00ED91FC910190F081E02DC6011995892B9B
S1130E1011F02196EECF7E01C701DF91CF911F9192
S1130E200F91FF90EF90DF90CF90089561157105B9
S1130E3079F0FB0101900020E9F73197AF01461BDF
S1130E40570BDC01ED91FC910280F381E02D1994A4
S1130E5080E090E00895DB0114964D915C91159724
S1130E606D917C91DC01ED91FC910280F381E02D88
S1130E701994DCCFDC01ED91FC910190F081E02D1F
S1130E80199462E073E0D2CF0F931F93CF93DF9353
S1130E90EC01E1DF8C01CE01F4DF800F911FDF91C3
S1130EA0CF911F910F9108950F931F93CF93DF93C9
S1130EB0EC01BCDF8C01CE01E4DF800F911FDF91D8
S1130EC0CF911F910F9108958F929F92AF92BF92ED
S1130ED0EF92FF920F931F93CF93DF93CDB7DEB7BB
S1130EE0A1970FB6F894DEBF0FBECDBF7C01FA0107
S1130EF0CB0119A2223008F42AE08E010F5D1F4FA6
S1130F00822E912CA12CB12CBF01A50194010E9429
S1130F108313F901CA01015011096A3010F4605DAC
S1130F2001C0695CD8016C93232B242B252B61F71A
S1130F30B801C7017BDFA1960FB6F894DEBF0FBEE0
S1130F40CDBFDF91CF911F910F91FF90EF90BF9094
S1130F50AF909F908F9008952115310541F4DC01E5
S1130F60ED91FC910190F081E02D642F1994ACCFA8
S1130F709A01AB0160E070E0EFCFCF92DF92EF9285
S1130F80FF920F931F93CF93DF932115310581F4C3
S1130F90DC01ED91FC910190F081E02D642FDF9153
S1130FA0CF911F910F91FF90EF90DF90CF90199404
S1130FB02A303105F1F477FF1BC06A017B01EC0193
S1130FC06DE258DF8C0144275527BA014C195D099D
S1130FD06E097F092AE0CE0177DF800F911FDF9130
S1130FE0CF911F910F91FF90EF90DF90CF900895D4
S1130FF02AE0DF91CF911F910F91FF90EF90DF9046
S1131000CF9062CF9A01AB01770F660B770BB5CF08
S11310100F931F93CF93DF93EC01F4DF8C01CE0188
S113102030DF800F911FDF91CF911F910F910895B1
S11310307F928F929F92AF92BF92CF92DF92EF9264
S1131040FF920F931F93CF93DF938C016A017B016F
S1131050722E9A01AB01C701B6010E947E13882348
S113106019F065E073E026C046015701E894B7F82B
S11310702FEF3FEF4FE75FE7C501B4010E947E13F6
S113108081110DC02FEF3FEF4FE75FE7C501B401BA
S11310900E949C1218161CF469E073E00BC02FEF39
S11310A03FEF4FE75FE4C701B601CADB18168CF4C3
S11310B06DE073E0C801DF91CF911F910F91FF9014
S11310C0EF90DF90CF90BF90AF909F908F907F90E4
S11310D0ADCE2FEF3FEF4FE75FECC701B6010E94A3
S11310E09C1287FDE5CF20E030E0A901C701B601DD
S11310F00E949C1287FF09C06DE2C801BBDEEC01AF
S1131100F7FAF094F7F8F09402C0C0E0D0E0B12C04
S113111060E070E080E09FE37B1441F020E030E089
S113112040E251E40E94A112B394F6CFA7019601C4
S113113064DA6B017C01CADA4B015C012AE0AB0181
S1131140BC01C801C1DEC80FD91F772081F1C501D8
S1131150B401E8DA9B01AC01C701B6014DDA6B01B9
S11311607C016EE2C80186DEC80FD91F20E030E0A2
S113117040E251E4C701B6010E9412134B015C0125
S1131180A5DA6B017C014AE050E0C801F1DEC80F2A
S1131190D91FB60180E090E0C5DA9B01AC01C5011E
S11311A0B4012ADA6B017C017A947110DFCFCE018D
S11311B0DF91CF911F910F91FF90EF90DF90CF902F
S11311C0BF90AF909F908F907F90089531CF1F92E2
S11311D00F920FB60F9211242F933F938F939F93E7
S11311E0AF93BF938091ED059091EE05A091EF052B
S11311F0B091F0053091EC0523E0230F2D3720F456
S11312000196A11DB11D05C026E8230F0296A11D5C
S1131210B11D2093EC058093ED059093EE05A0930A
S1131220EF05B093F0058091F1059091F205A0913E
S1131230F305B091F4050196A11DB11D8093F1054C
S11312409093F205A093F305B093F405BF91AF9189
S11312509F918F913F912F910F900FBE0F901F90F0
S113126018952FB7F8946091ED057091EE05809173
S1131270EF059091F0052FBF08953FB7F894809142
S1131280F1059091F205A091F305B091F40526B50E
S1131290A89B05C02F3F19F00196A11DB11D3FBFAA
S11312A0BA2FA92F982F8827820F911DA11DB11D38
S11312B0BC01CD0142E0660F771F881F991F4A9534
S11312C0D1F708958F929F92AF92BF92CF92DF92FF
S11312D0EF92FF926B017C01D0DF4B015C01C114E2
S11312E0D104E104F104F1F0FCD6C7DFDC01CB0149
S11312F088199909AA09BB09883E9340A105B1053B
S113130070F321E0C21AD108E108F10888EE880ED2
S113131083E0981EA11CB11CC114D104E104F104A2
S113132021F7DDCFFF90EF90DF90CF90BF90AF908B
S11313309F908F9008958230910538F0880F991FFF
S1131340880F991F05970197F1F70895789484B54C
S1131350826084BD84B5816084BD85B5826085BDAD
S113136085B5816085BDEEE6F0E080818160808393
S1131370E1E8F0E010828081826080838081816076
S11313808083E0E8F0E0808181608083E1EBF0E03D
S1131390808184608083E0EBF0E0808181608083E1
S11313A0E1E9F0E0808182608083808181608083D4
S11313B0E0E9F0E0808181608083E1EAF0E080810F
S11313C082608083808181608083E0EAF0E08081B4
S11313D081608083E1E2F1E08081826080838081AA
S11313E081608083E0E2F1E0808181608083EAE7CC
S11313F0F0E080818460808380818260808380814A
S1131400816080838081806880831092C100089508
S113141090E0FC013197E231F10508F04EC08827D5
S1131420EE58FF4F8F4F0C94A513809180008F7757
S113143003C0809180008F7D809380000895809107
S11314408000877FF9CF84B58F7702C084B58F7D04
S113145084BD08958091B0008F7703C08091B0005F
S11314608F7D8093B0000895809190008F7707C09E
S1131470809190008F7D03C080919000877F80933E
S1131480900008958091A0008F7707C08091A000FC
S11314908F7D03C08091A000877F8093A000089572
S11314A0809120018F7707C0809120018F7D03C038
S11314B080912001877F809320010895CF93DF934B
S11314C090E0FC01E25BFE4F2491FC01EC56FE4FE0
S11314D08491882361F190E0880F991FFC01E25FF9
S11314E0FD4FC591D491FC01EC50FE4FA591B491F0
S11314F0611109C09FB7F89488812095822388835D
S1131500EC912E230BC0623061F49FB7F89488816C
S1131510322F309583238883EC912E2B2C939FBFFD
S113152006C08FB7F894E8812E2B28838FBFDF91F4
S1131530CF9108951F93CF93DF93282F30E0F901C3
S1131540E85FFE4F8491F901E25BFE4FD491F9010B
S1131550EC56FE4FC491CC23B9F0162F811158DFFD
S1131560EC2FF0E0EE0FFF1FEC50FE4FA591B4916D
S11315709FB7F894111104C08C91D095D82302C060
S1131580EC91DE2BDC939FBFDF91CF911F910895E7
S1131590CF93DF93282F30E0F901E85FFE4F849169
S11315A0F901E25BFE4FD491F901EC56FE4FC49170
S11315B0CC2389F081112CDFEC2FF0E0EE0FFF1F1C
S11315C0E652FE4FA591B491EC91ED2381E090E0B9
S11315D021F480E002C080E090E0DF91CF91089593
S11315E0FC0180819181009711F00C9445140895B9
S11315F0CF93DF93EC0188819981009711F00E94C9
S11316004514198218821D821C821B821A82DF9162
S1131610CF9108950F931F93CF93DF93EC018B0128
S11316206F5F7F4F888199810E94CE14009731F0BB
S1131630998388831B830A8381E001C080E0DF9162
S1131640CF911F910F910895CF93DF93EC0188817F
S11316509981892B29F08A819B818617970758F4F1
S1131660CE01D8DF882341F08C819D81892B19F428
S1131670E881F981108281E0DF91CF910895EF92A2
S1131680FF920F931F93CF93DF93EC017B018A01A9
S1131690BA01DADF811103C0CE01AADF07C01D83BE
S11316A00C83B701888199810E94C815CE01DF910E
S11316B0CF911F910F91FF90EF900895FC0111823B
S11316C0108213821282158214826115710549F009
S11316D0FB0101900020E9F73197AF01461B570B3E
S11316E0CECF0895CF93DF93EC016115710551F0CE
S11316F0FB0101900020E9F73197AF01461B570B1E
S1131700BEDF01C075DFCE01DF91CF9108950F9345
S11317101F93CF93DF93CDB7DEB762970FB6F894DC
S1131720DEBF0FBECDBF8C01CB01F8011182108248
S1131730138212821582148250E0BE016F5F7F4FC4
S11317400E94E915BE016F5F7F4FC801CBDF62962F
S11317500FB6F894DEBF0FBECDBFDF91CF911F91BE
S11317600F910895AF92BF92CF92DF92EF92FF92C2
S11317700F931F93CF93DF937B018A01FB01448175
S113178055814115510561F1FC01248135812115F3
S1131790310531F12417350718F10217130718F032
S11317A0890101501109FC01A080B180C501DFEF5E
S11317B0CFEF6501C00ED11EC816D906A0F0F701FF
S11317C0608171810E94CF15009769F09C012A19EC
S11317D03B090217130710F0D22FC32F0196ECCF49
S11317E08FEF9FEF02C08D2F9C2FDF91CF911F9120
S11317F00F91FF90EF90DF90CF90BF90AF9008953E
S11318002F923F924F925F926F927F928F929F920C
S1131810AF92BF92CF92DF92EF92FF920F931F93FA
S1131820CF93DF93FC01448055804114510409F4A3
S1131830CCC0FB01848095808114910409F4C5C057
S11318407A016B018C01FA0164807580681879084B
S1131850FC01C081D18161147104B9F4F601608185
S11318607181CE010E94CF15EC01009709F4ADC03F
S1131870F70160817181448155810E94AE15F701A1
S113188084819581C80FD91FE9CF77FE44C05E01DA
S1131890F60160817181C5010E94CF152C0100976A
S11318A021F14C018A189B08A401B501CE010E94C4
S11318B0AE15C80DD91DF701608171814481558130
S11318C0CE010E94AE15F70184819581C80FD91FFE
S11318D0F601A480B580A40CB51CF801848195811F
S11318E0860D971D95838483D3CFB501CE01DF91F7
S11318F0CF911F910F91FF90EF90DF90CF90BF9009
S1131900AF909F908F907F906F905F904F903F909B
S11319102F900C94C815FB01208031805201B10135
S1131920CE010E94CF15009731F0EC01C80DD91DEE
S1131930A60CB71CF4CFA414B50409F446C0F801EE
S1131940828193818A159B0528F4B501C80162DE62
S11319508823D9F1F801448155814150510957FD3B
S113196034C0B601C801FEDEEC0197FD2EC0F601BD
S113197024813581280F391FF80180819181820FDC
S1131980931F44815581421B530BBC01860D971D47
S11319900E94B715F80184819581860D971D958362
S11319A0848320813181F901E80FF91F1082F80145
S11319B080819181F70160817181448155818C0F0F
S11319C09D1F0E94AE15AE01C8CFDF91CF911F912C
S11319D00F91FF90EF90DF90CF90BF90AF909F90CA
S11319E08F907F906F905F904F903F902F900895CD
S11319F09B01777080E090E033FF09C00E9492035E
S1131A009B01AC0160E070E0CB010C94FC020C94EF
S1131A109203EF92FF920F931F93CF93DF93C62FFE
S1131A207A01022FFC01608185EF95E0D7D26C2FFB
S1131A3085EF95E086D2E70110E0CE018E199F096B
S1131A40801791072CF4699185EF95E07AD2F5CF50
S1131A5085EF95E0DF91CF911F910F91FF90EF906B
S1131A603BC3CF93DF931F92CDB7DEB7498321E009
S1131A70AE014F5F5F4FCDDF0F90DF91CF9108959F
S1131A80FC0124812E7F248321FB442740F950E06C
S1131A90440F551F63E0E5CFCF93DF93EC016883D8
S1131AA085EF95E08CD2198240E060E0CE01D9DF69
S1131AB08FE38A834FE361E0CE01D3DFCE01E0DF21
S1131AC08B818E7F8B8340E062E0CE01CADF64E6C7
S1131AD070E080E090E0F6DB81E0DF91CF91089543
S1131AE06F927F928F929F92AF92BF92CF92DF922A
S1131AF0EF92FF920F931F93CF93DF938C01662E87
S1131B006A01722EC0E0C71578F5D72DDC1BD132DF
S1131B1008F0D0E2F801608185EF95E05FD26C2F88
S1131B20660D85EF95E00DD285EF95E0D5D24D2F6A
S1131B30F801608185EF95E0CDD2812C912CAD2EFA
S1131B40B12C8C2F880D8A149B0414F0CD0FDBCF9D
S1131B507601E80EF11C85EF95E06DD1F7018083E5
S1131B60FFEF8F1A9F0AEDCFDF91CF911F910F9155
S1131B70FF90EF90DF90CF90BF90AF909F908F90A9
S1131B807F906F9008950F931F93CF93DF931F92CD
S1131B901F92CDB7DEB78C0122E0AE014F5F5F4FDD
S1131BA06EE09EDF69817A81C80122DF20E030E0A7
S1131BB040E85DE337D50F900F90DF91CF911F91EF
S1131BC00F9108958F929F92AF92BF92CF92DF921E
S1131BD0EF92FF920F931F93CF93DF93CDB7DEB7AE
S1131BE0F62E172F042F8DB69EB6242F220F46FDF6
S1131BF020E84DB75EB7421B51090FB6F8945EBF9B
S1131C000FBE4DBFEDB7FEB731965F01AF0160E87F
S1131C1067DFCF2CD12EE12CF12C10E0E016F10679
S1131C2054F58E2D880FF501E80FF11D618170E0E8
S1131C30762F66278081682B94E0660F771F9A952C
S1131C40E1F724E0759567952A95E1F7072E000CD6
S1131C50880B990B0E94940320E030E040E85EE397
S1131C60E1D4F60161937193819391936F01FFEF36
S1131C70EF1AFF0AD3CF0FB6F8949EBE0FBE8DBEE7
S1131C80DF91CF911F910F91FF90EF90DF90CF9054
S1131C90BF90AF909F908F900895AF92BF92CF92D4
S1131CA0DF92EF92FF920F931F93CF93DF93EC0198
S1131CB0E62EA72EF42EB52E69018FEF9FEF9D839C
S1131CC08C839F838E8361E08E2DF8DB60E08F2D03
S1131CD0F5DBE882A982FA82BB82DD82CC821F8393
S1131CE00E83DF91CF911F910F91FF90EF90DF90C2
S1131CF0CF90BF90AF900895CF92DF92EF92FF9272
S1131D00CF93DF93EC0160E0888114DC85E090E000
S1131D1012DB61E088810EDC8AE090E00CDB60E09D
S1131D20888108DC8A8134DC892BE1F3A6DA6B0133
S1131D307C018A812DDC0197E1F39FDACB018C19B8
S1131D409D09DF91CF91FF90EF90DF90CF900895A0
S1131D50CF93DF93EC01D0DF97FD0196BC0175951D
S1131D606795072E000C880B990B0E94940327EEAD
S1131D703BEF49EA5EE356D40E9461039B014C8128
S1131D805D814F3FAFEF5A0721F4EE81FF81319619
S1131D9059F0421753072CF44E815F8124173507FD
S1131DA01CF08FEF9FEF01C0CB01DF91CF9108951D
S1131DB0EF92FF920F931F93CF93DF93CDB7DEB7CC
S1131DC02C970FB6F894DEBF0FBECDBF8C017B01FC
S1131DD061E173E073DCC701BBDF4AE0BC01CE0103
S1131DE0079695DC6AE773E0CE01019667DCAE01E5
S1131DF0495F5F4FBE016F5F7F4FC80101DDCE01B8
S1131E000196EEDBCE010796EBDBC8012C960FB6EC
S1131E10F894DEBF0FBECDBFDF91CF911F910F911C
S1131E20FF90EF9008958091290690E020912A0672
S1131E30821B9109089590912A068091290698178A
S1131E4050F4E92FF0E0E55DF94F208130E09F5F29
S1131E5090932A0602C02FEF3FEFC9010895E09145
S1131E602A0680912906E81730F4F0E0E55DF94F81
S1131E70808190E008958FEF9FEF08950895CF93A8
S1131E80DF93EC01E0910106F09102063097F1F046
S1131E9090912A06809129069817C0F090E0292F86
S1131EA030E02617370754F4DE01A20FB31F4C911C
S1131EB0D901A55DB94F4C939F5FF1CF10922A06CB
S1131EC060932906CB01DF91CF911994DF91CF91D3
S1131ED00895E0910306F0910406309729F01092DA
S1131EE007061092060619940895CF92DF92EF9296
S1131EF0FF920F931F93CF93DF937C01CB018A0151
S1131F0020910506222389F0EB016B01C40ED51E36
S1131F10CC15DD0561F06991D701ED91FC9101903B
S1131F20F081E02DC7011995F3CF642F95D1C80135
S1131F30DF91CF911F910F91FF90EF90DF90CF90A1
S1131F400895CF93DF931F92CDB7DEB769832091B5
S1131F5005062223D1F020910606203240F021E02C
S1131F6030E0FC013383228380E090E014C0809150
S1131F700706E82FF0E0E85FF94F998190838F5FBF
S1131F80809307068093060604C061E0CE010196A3
S1131F9063D181E090E00F90DF91CF910895FC012F
S1131FA01382128288EE93E0A0E0B0E084839583EC
S1131FB0A683B7838BE893E091838083089510927E
S1131FC02A061092290610920706109206068AD055
S1131FD089E69FE06ED18FE39FE066C181E0809344
S1131FE005066093280610920706109206060895C7
S1131FF00F93062F21E04091060668E076E0809179
S11320002806D4D0109207061092060610920506F0
S11320100F9108954F925F926F927F92AF92BF9209
S1132020CF92EF92FF920F931F93CF93DF935C01B4
S1132030F62ED42F28013901EE2011F1CFDFCE2D59
S1132040C43008F0C3E0C150C0F028E0C29FC00112
S11320501124A301920104C05695479537952795FD
S11320608A95D2F7CA01B901D501ED91FC9101908D
S1132070F081E02DC5011995E6CF60E0C501B8DF18
S11320804D2FD13208F040E22C2D6BE276E08F2DFB
S113209045D010922A0680932906DF91CF911F9193
S11320A00F91FF90EF90CF90BF90AF907F906F9083
S11320B05F904F900895CF92EF920F931F93C22E8B
S11320C0E12C00E010E09801A5DF1F910F91EF9043
S11320D0CF90089521E0EFCF61E08ACF85EF95E0BE
S11320E05ECF08951092B80681E08093B6061092F0
S11320F0B50661E084E11EDA61E085E11BDAE9EB13
S1132100F0E080818E7F808380818D7F808388E46E
S11321108093B80085E48093BC000895413208F0B0
S113212043C09091B8069111FCCF91E09093B8060A
S11321302093B6062FEF20934B0610929006240F9F
S113214020938F069093B7069091B706880F892B3A
S11321508093B7068091B506813061F41092B5067C
S11321608091B7068093BB008091BC0083FDF8CFBB
S113217085EC01C085EE8093BC008091B806813067
S1132180E1F380919006841710F440919006A1E940
S1132190B6E0962FFB018E2F891B841718F48D91BE
S11321A08193F9CF842F089580E008950F934132ED
S11321B008F04AC09091B8069111FCCF32E03093F8
S11321C0B8060093B6063FEF30934B061092900684
S11321D040938F06562FA1E9B6E0FB013E2F351B35
S11321E0341718F431913D93F9CF1092B70630911A
S11321F0B706880F832B8093B7068091B50681308C
S113220061F41092B5068091B7068093BB0080916B
S1132210BC0083FDF8CF85EC01C085EE8093BC0043
S1132220222321F08091B8068230D1F380914B06AD
S11322308F3F79F080914B06803241F080914B06BC
S1132240803331F094E005C091E003C092E001C016
S113225093E0892F0F91089540916D06262F30E069
S1132260240F311D21323105DCF42091B8062430CD
S1132270C9F4FC0180E090E0861758F430916D06B3
S11322802191DC01A159B94FA30FB11D2C930196E3
S1132290F3CF80916D06680F60936D0680E008951A
S11322A081E0089582E008959093B2068093B10688
S11322B008959093B4068093B306089585ED8093B2
S11322C0BC008091BC0084FDFCCF1092B806089538
S11322D085EC8093BC001092B80608951F920F926B
S11322E00FB60F9211240BB60F922F933F934F9377
S11322F05F936F937F938F939F93AF93BF93EF936A
S1132300FF938091B900887F803609F49DC070F5F1
S1132310883209F45CC090F4803109F455C038F473
S1132320882309F4F3C0883009F44EC0F2C0883120
S113233009F44DC0803209F45EC0EBC0803409F466
S113234069C050F4803309F456C0883309F0E1C001
S113235080934B06BDDFDDC0803509F44FC088355E
S113236009F45DC0883409F0D4C0D2C0883909F4B6
S1132370C3C0A8F4883709F467C038F4883609F470
S113238063C0803709F460C0C4C0883809F4B4C09D
S1132390803909F45FC0803809F0BBC05BC0803B62
S11323A009F482C038F4803A09F466C0883A09F422
S11323B07BC0AFC0803C09F4A3C0883C09F4A0C032
S11323C0883B09F486C0A5C08091B70610C09091DF
S11323D0900680918F06981770F5E091900681E041
S11323E08E0F80939006F0E0EF56F94F8081809332
S11323F0BB0085EC82C080934B068AC0E0919006B6
S113240081E08E0F809390068091BB00F0E0EF5640
S1132410F94F80839091900680918F066AC0E09175
S1132420900681E08E0F809390068091BB00F0E0CF
S1132430EF56F94F80838091B606811169C081E01F
S11324408093B50684EA5DC083E08093B806109259
S11324504C06CFCF80914C06803208F04DC0E091FD
S11324604C0681E08E0F80934C068091BB00F0E017
S1132470E35BF94F8083BDCF2BDF80914C06803224
S113248030F4E0914C06F0E0E35BF94F1082609188
S11324904C0670E0E091B106F091B2068DE496E04E
S11324A0199510924C0635C084E08093B8061092BA
S11324B06E0610926D06E091B306F091B40619957C
S11324C080916D06811105C081E080936D061092A4
S11324D06F06E0916E0681E08E0F80936E06F0E049
S11324E0E159F94F80818093BB0090916E068091F1
S11324F06D06981708F47DCF85E88093BC0009C069
S113250085EC8093BC001092B80603C010924B0671
S1132510D5DEFF91EF91BF91AF919F918F917F9104
S11325206F915F914F913F912F910F900BBE0F9040
S11325300FBE0F901F9018950E94240408F481E0A8
S1132540089512D00C94E6030E94DF0358F00E9411
S1132550D80340F029F45F3F29F00C94CF035111C4
S11325600C941A040C94D5030E94F70368F399237E
S1132570B1F3552391F3951B550BBB27AA2762177B
S11325807307840738F09F5F5F4F220F331F441F88
S1132590AA1FA9F335D00E2E3AF0E0E832D09150BC
S11325A05040E695001CCAF72BD0FE2F29D0660FA9
S11325B0771F881FBB1F261737074807AB07B0E8EC
S11325C009F0BB0B802DBF01FF2793585F4F3AF0F2
S11325D09E3F510578F00C94CF030C941A045F3F8E
S11325E0E4F3983ED4F3869577956795B795F79578
S11325F09F5FC9F7880F911D9695879597F9089560
S1132600E1E0660F771F881FBB1F621773078407FB
S1132610BA0720F0621B730B840BBA0BEE1F88F70A
S1132620E095089511D00C94E6030E94D80338F085
S11326300E94DF0320F0952311F00C94CF030C9437
S1132640D50311240C941A040E94F70370F3959F88
S1132650C1F3950F50E0551F629FF001729FBB2795
S1132660F00DB11D639FAA27F00DB11DAA1F649F31
S11326706627B00DA11D661F829F2227B00DA11DE4
S1132680621F739FB00DA11D621F839FA00D611D6A
S1132690221F749F3327A00D611D231F849F600D8B
S11326A0211D822F762F6A2F11249F5750409AF0B4
S11326B0F1F088234AF0EE0FFF1FBB1F661F771F40
S11326C0881F91505040A9F79E3F510580F00C940B
S11326D0CF030C941A045F3FE4F3983ED4F3869539
S11326E077956795B795F795E7959F5FC1F7FE2BAB
S11326F0880F911D9695879597F908950E94240453
S1132700880B990B0895A1E21A2EAA1BBB1BFD018D
S11327100DC0AA1FBB1FEE1FFF1FA217B307E407BC
S1132720F50720F0A21BB30BE40BF50B661F771F14
S1132730881F991F1A9469F76095709580959095F4
S11327409B01AC01BD01CF010895EE0FFF1F881F4F
S11327508BBF0790F691E02D19940F931F93CF939D
S1132760DF938230910510F482E090E0E091BB06A3
S1132770F091BC0620E030E0A0E0B0E0309719F121
S1132780408151810281138148175907C8F0841789
S1132790950769F4109731F012960C9312971396DB
S11327A01C9327C00093BB061093BC0622C02115BE
S11327B0310519F04217530718F49A01BD01EF01CE
S11327C0DF01F801DBCF21153105F9F0281B390BA6
S11327D02430310580F48A819B816115710521F0D3
S11327E0FB019383828304C09093BC068093BB0651
S11327F0FE01329644C0FE01E20FF31F81939193D0
S113280022503109398328833AC02091B906309186
S1132810BA06232B41F42091020230910302309333
S1132820BA062093B90620910002309101022115C5
S1132830310541F42DB73EB7409104025091050291
S1132840241B350BE091B906F091BA06E217F307A1
S1132850A0F42E1B3F0B2817390778F0AC014E5F0C
S11328605F4F2417350748F04E0F5F1F5093BA0689
S11328704093B9068193919302C0E0E0F0E0CF0168
S1132880DF91CF911F910F910895CF93DF9300971C
S113289009F481C0FC01329713821282A091BB0615
S11328A0B091BC06109781F420813181820F931F6F
S11328B02091B9063091BA062817390751F5F093DB
S11328C0BA06E093B90667C0ED0120E030E0CE1708
S11328D0DF0740F44A815B819E0141155105F1F007
S11328E0EA01F5CFD383C28340815181840F951FC0
S11328F0C817D90759F488819981840F951F0296C6
S1132900918380838A819B819383828321153105FE
S113291029F4F093BC06E093BB063DC0E901FB83B8
S1132920EA8349915991C40FD51FEC17FD0761F44F
S113293080819181840F951F0296E9019983888390
S1132940828193819B838A83E0E0F0E012968D91EB
S11329509C911397009719F0FD01DC01F7CF8D913D
S11329609C9111979D012E5F3F4F820F931F2091E1
S1132970B9063091BA062817390769F4309729F453
S11329801092BC061092BB0602C013821282B0934E
S1132990BA06A093B906DF91CF9108956F927F9202
S11329A08F929F92AF92BF92CF92DF92EF92FF925B
S11329B00F931F93CF93DF93009781F4CB01DF91A3
S11329C0CF911F910F91FF90EF90DF90CF90BF9028
S11329D0AF909F908F907F906F90BFCEFC01E60FD9
S11329E0F71F9C0122503109E217F30708F4A5C030
S11329F0EC01D9010D911C91119706171707A8F046
S1132A000530110508F497C0C80104978617970785
S1132A1008F491C002501109061B170B019311937E
S1132A206D937C93CF0131DF86C05B01A01AB10A9C
S1132A304C01800E911EA091BB06B091BC06612C86
S1132A40712CE12CF12C109709F446C08D919C91C6
S1132A501197A815B905B1F56C0142E0C40ED11C5B
S1132A60CA14DB0478F14C018A189B08640142E023
S1132A70C40ED11C1296BC9012971396AC91B5E07B
S1132A80CB16D10440F0B282A38391828082D90113
S1132A906D937C9309C00E5F1F4F800F911FF90146
S1132AA091838083EB2DFA2FE114F10431F0D701E7
S1132AB01396FC93EE9312973EC0F093BC06E093FA
S1132AC0BB0639C06816790608F43C017D011296EC
S1132AD00D90BC91A02DB7CF8091B9069091BA0604
S1132AE088169906E1F466167706C8F48091000208
S1132AF090910102009741F48DB79EB74091040272
S1132B0050910502841B950BE817F907B0F4F09374
S1132B10BA06E093B906F901718360830CC0CB0156
S1132B201CDE7C01009749F0A801BE0117D0CE013C
S1132B30ACDEC70104C0CE0102C080E090E0DF91AA
S1132B40CF911F910F91FF90EF90DF90CF90BF90A6
S1132B50AF909F908F907F906F900895FB01DC0160
S1132B6002C001900D9241505040D8F70895681763
S1132B70790768F4FB01DC01E40FF51FA40FB51F0E
S1132B8002C002900E9241505040D8F70895E6CF0B
S1132B90FB01DC0101900D920020E1F70895FB0197
S1132BA051915523A9F0BF01DC014D914517411105
S1132BB0E1F759F4CD010190002049F04D91401501
S1132BC04111C9F3FB014111EFCF81E090E001977E
S1132BD008954532510518F4423008F004C0FB0151
S1132BE01082CB010895BB274A3031F4992322F493
S1132BF0BDE2909581959F4F01C0BB27FB015527EE
S1132C00AA27880F991FAA1FA41710F0A41B839545
S1132C105051B9F7A05DAA3308F0A95DA1930097BC
S1132C2079F7B111B1931192CB0100C0DC01FC0121
S1132C30672F71917723E1F7329704C07C916D93EC
S1132C4070836291AE17BF07C8F30895F894FFCF5D
S1132C500000BD062000436F756C64206E6F742005
S1132C6066696E6420612076616C696420414D4719
S1132C70383878782073656E736F722C20636865BA
S1132C80636B20776972696E6721002D2D2050696E
S1132C9078656C732054657374202D2D005B002CB3
S1132CA020005D0050495220706F73697469766525
S1132CB02064657465637400504952206E656761D1
S1132CC0746976652064657465637400536574750E
S1132CD0702074696D653A2000496E697469616C8D
S1132CE0697A696E672E2E2E004154004154453195
S1132CF0004154490041542B4353510041542B4348
S1132D005245473F0041542B434943434944004102
S1132D10542B43534D533F0041542B434D47463DA1
S1132D20310041542B434E4D493D312C322C302C33
S1132D30302C300041542B43475053203D20310068
S1132D4000000000E204EC0676042E054804620448
S1132D5054040D0A006E616E00696E66006F76663B
S1132D60007B2250726F746F636F6C223A22426947
S1132D7066726F7374222C22446576696365223A05
S1132D8022484353523034222C22447269766572AD
S1132D902076657273696F6E223A22322E302E309D
S1132DA0222C2250726F70657274696573223A7BAB
S1132DB02244697374616E6365223A3C3C4449530E
S1132DC054414E43453E3E7D7D003C3C4449535472
S1132DD0414E43453E3E0000000000A10F750FB474
S10D2DE0053E0F130F1B0F2F0F0009
S9030000FC
