S01800004F63637570616E63795F736B657463682E7372656386
S1130000A1C400000C94582E0C94832E0C94AE2E94
S11300100C94D92E0C94042F0C942F2F0C945A2F3B
S11300200C94852F0C9432260C9432260C94322690
S1130030BAC40000B8C40000B6C40000B4C40000D0
S1130040B2C40000B0C40000AEC40000ACC40000E0
S1130050AAC40000A8C40000A6C400000C94D816CA
S1130060A2C400000C94A1120C94D7129CC40000EA
S11300709AC4000098C4000096C4000094C4000010
S113008092C4000090C400008EC400008CC4000020
S11300900C9436130C946C1386C400000C94353DF8
S11300A082C4000080C400007EC400007CC4000040
S11300B07AC4000078C4000076C4000074C4000050
S11300C072C4000070C400006EC400000C94CB1312
S11300D00C94011468C400000C9460140C949614DD
S11300E062C40000010BAA0B1A0CF20DF20D4C0CA9
S11300F0B20C0D0D4F0DAF0D3A183D182C183018D9
S113010036187418411845184B184F1853185918B5
S11301105D186118741867186B186F186364696E3A
S11301206F70737578585B004E414E494E4954596F
S1130130494E46CDCCCC3D0AD7233C17B7D13877AE
S1130140CC2B329595E6241FB14F0A0000204100C4
S113015000C84200401C4620BCBE4CCA1B0E5AAE0E
S1130160C59D7441542B434D47443D3F0D0A0053F4
S1130170657474696E672075700000000A0B0209CB
S11301800C0D0E080703040100000000000000002D
S1130190000000000000000000000000000000005B
S11301A00000000000001211100000000000000018
S11301B0000000000000000000000000000000003B
S11301C00102102020080810204010204080020165
S11301D0020108040201010204081020408080404A
S11301E02010080402018004020180402010080449
S11301F002010804020101020408102040800102E7
S113020004081020408005050505070508080808AE
S1130210020202020A0A080804040404010101019A
S11302200101010103030303030303030407070795
S11302300C0C0C0C0C0C0C0C02020202060606063A
S1130240060606060B0B0B0B0B0B0B0B000020001A
S11302502300260029002C002F003200000100009A
S113026003010601090100002200250028002B00DB
S11302702E003100340002010000050108010B01C9
S113028000002100240027002A002D003000330044
S113029001010000040107010A01093C2D2D2D2054
S11302A000092D2D2D3E2000093C2D2D2D20000967
S11302B02D2D2D3E200041542B434D47463D31000A
S11302C03E20003E200041542B434D47463D310023
S11302D02B434D47523A0041542B434D47523D0066
S11302E041542B434D47523D0041542B4353444802
S11302F03D310041542B434D47463D31002B434D86
S113030047523A0041542B434D47523D0041542B30
S1130310434D47523D0041542B435344483D310023
S113032041542B434D47463D310041542B43504DDE
S1130330533D22534D222C22534D222C22534D2225
S11303400053494D3830304800093C2D2D2D2000F4
S1130350092D2D2D3E200053494D434F4D5F5349E8
S11303604D35333230450053494D434F4D5F53496A
S11303704D35333230410053494D383030205231FD
S1130380330053494D383038205231330053494DEE
S11303903830382052313400093C2D2D2D200009ED
S11303A02D2D2D3E200041542B435648553D300001
S11303B041544530004154453000415400415400FB
S11303C041540054696D656F75743A204E6F207204
S11303D06573706F6E736520746F2041542E2E2EDA
S11303E0206C61737420646974636820617474653B
S11303F06D70742E00415400415400415400417406
S113040074656D7074696E6720746F206F70656EAB
S113041020636F6D6D207769746820415473004FB9
S11304204B00464F4E4100464F4E416E65740000EE
S1130430000000003E5B4F5B3E3E6B4F6B3E1C3E3C
S11304407C3E1C183C7E3C181C577D571C1C5E7F50
S11304505E1C00183C1800FFE7C3E7FF00182418CF
S113046000FFE7DBE7FF30483A060E262979292604
S1130470407F050507407F05253F5A3CE73C5A7FEE
S11304803E1C1C08081C1C3E7F14227F22145F5F44
S1130490005F5F06097F017F006689956A6060607E
S11304A0606094A2FFA29408047E040810207E20B9
S11304B01008082A1C08081C2A08081E101010100E
S11304C00C1E0C1E0C30383E3830060E3E0E060054
S11304D00000000000005F00000007000700147F18
S11304E0147F14242A7F2A1223130864623649567F
S11304F020500008070300001C2241000041221C78
S1130500002A1C7F1C2A08083E080800807030005E
S11305100808080808000060600020100804023E73
S11305205149453E00427F400072494949462141B4
S1130530494D331814127F1027454545393C4A4923
S11305404931412111090736494949364649492962
S11305501E00001400000040340000000814224172
S11305601414141414004122140802015909063EFB
S1130570415D594E7C1211127C7F494949363E41F6
S11305804141227F4141413E7F494949417F090917
S113059009013E414151737F0808087F00417F41B2
S11305A0002040413F017F081422417F40404040E9
S11305B07F021C027F7F0408107F3E4141413E7F41
S11305C0090909063E4151215E7F09192946264938
S11305D049493203017F01033F4040403F1F20400F
S11305E0201F3F4038403F63140814630304780419
S11305F0036159494D43007F4141410204081020E1
S1130600004141417F040201020440404040400057
S11306100307080020545478407F28444438384461
S1130620444428384444287F385454541800087EDD
S1130630090218A4A49C787F0804047800447D402F
S1130640002040403D007F1028440000417F4000CE
S11306507C047804787C080404783844444438FCE6
S11306601824241818242418FC7C0804040848546A
S113067054542404043F44243C4040207C1C204027
S1130680201C3C4030403C44281028444C9090901E
S11306907C4464544C440008364100000077000058
S11306A0004136080002010204023C2623263C1EB7
S11306B0A1A161123A4040207A3854545559215529
S11306C05579412254547842215554784020545548
S11306D079400C1E52721239555555593954545497
S11306E05939555454580000457C410002457D4217
S11306F00001457C407D1211127DF0282528F07CF4
S1130700545545002054547C547C0A097F4932498D
S11307104949323A4444443A324A4848303A4141D9
S1130720217A3A42402078009DA0A07D3D42424279
S11307303D3D4040403D3C24FF2424487E494366DF
S11307402B2FFC2F2BFF0929F620C0887E090320BC
S1130750545479410000447D413048484A3238407D
S113076040227A007A0A0A727D0D19317D262929E0
S11307702F28262929292630484D402038080808E2
S11307800808080808382F10C8ACBA2F102834FA03
S113079000007B000008142A142222142A1408558D
S11307A000550055AA55AA55AAFF55FF55FF00004C
S11307B000FF00101010FF00141414FF001010FFAD
S11307C000FF1010F010F0141414FC001414F700BF
S11307D0FF0000FF00FF1414F404FC141417101F8E
S11307E010101F101F1414141F00101010F000001C
S11307F000001F101010101F10101010F010000037
S113080000FF101010101010101010FF1000000046
S1130810FF140000FF00FF00001F10170000FC047D
S1130820F414141710171414F404F40000FF00F760
S113083014141414141414F700F7141414171410C3
S1130840101F101F141414F4141010F010F00000F2
S11308501F101F0000001F14000000FC140000F013
S113086010F01010FF10FF141414FF141010101FB8
S113087000000000F010FFFFFFFFFFF0F0F0F0F0C9
S1130880FFFFFF0000000000FFFF0F0F0F0F0F38E6
S113089044443844FC4A4A4A347E02020606027E34
S11308A0027E0263554941633844443C04407E203F
S11308B01E2006027E020299A5E7A5991C2A492A50
S11308C01C4C7201724C304A4D4D303048784830DF
S11308D0BC625A463D3E494949007E0101017E2AD7
S11308E02A2A2A2A44445F444440514A444040440A
S11308F04A51400000FF0103E080FF000008086B3C
S11309006B083612362436060F090F060000181835
S11309100000001010003040FF0101001F01011E03
S113092000191D1712003C3C3C3C00000000000074
S113093042079D074809940EA90E09139E13331408
S1130940C8144A2811241FBECFEFD1E2DEBFCDBFA9
S113095000E00CBF17E0A0E0B2E0EEE9FDE800E043
S11309600BBF02C007900D92AE39B107D9F722E14F
S1130970AEE9B7E001C01D92A737B207E1F714E072
S1130980C2EAD4E000E006C021970109802FFE01ED
S11309900E94CF3EC839D10780E00807A9F70E941A
S11309A0F6140C94CD462CCBDC01ED91FC91019016
S11309B0F081E02D199468E670E08DEA91E10E94DF
S11309C0CE276BE670E08DEA91E1EEDF60E070E047
S11309D08DEA91E1E9DF8DEA91E10E94482868E619
S11309E070E08DEA91E10E94CE276BE170E08DEA20
S11309F091E1DADF60E070E08DEA91E1D5DF8DEA24
S1130A0091E10E94482868E670E08DEA91E10E9435
S1130A10CE276CE170E08DEA91E1C6DF68E170E019
S1130A208DEA91E1C1DF8DEA91E10C944828CF93DE
S1130A30DF93CEE9D7E06091CA077091CB0780912C
S1130A40CC079091CD070E941F1020E030E040E0D9
S1130A505AE30E94D310688379838A839B836091CD
S1130A60C6077091C7078091C8079091C9070E9473
S1130A701F1020E030E040E05AE30E94D3106C8362
S1130A807D838E839F836091C2077091C307809199
S1130A90C4079091C5070E941F1020E030E040E099
S1130AA05AE30E94D310688779878A879B87DF91EE
S1130AB0CF910895CF93DF93CEE9D7E06091BE073D
S1130AC07091BF078091C0079091C1070E941F10C9
S1130AD020E030E044E253E40E94840F6C877D8779
S1130AE08E879F876091BA077091BB078091BC077E
S1130AF09091BD070E941F1020E030E044E253E4CF
S1130B000E94840F688B798B8A8B9B8B6091B607CC
S1130B107091B7078091B8079091B9070E941F1090
S1130B2020E030E044E253E40E94840F6C8B7D8B20
S1130B308E8B9F8BDF91CF910895CF9368E670E001
S1130B408DEA91E10E94CE276BE370E08DEA91E19A
S1130B502BDF8DEA91E10E94482846E050E068E6E8
S1130B6070E08DEA91E10E9445288DEA91E10E94AE
S1130B70E4260697D4F38DEA91E10E94EC26C82F6F
S1130B808DEA91E10E94EC2620E030E03C2F822B9C
S1130B90932B092E000CAA0BBB0B8093CA079093CE
S1130BA0CB07A093CC07B093CD078DEA91E10E94C7
S1130BB0EC26C82F8DEA91E10E94EC2620E030E07B
S1130BC03C2F822B932B092E000CAA0BBB0B80937A
S1130BD0C6079093C707A093C807B093C9078DEAC7
S1130BE091E10E94EC26C82F8DEA91E10E94EC2647
S1130BF020E030E03C2F822B932B092E000CAA0B13
S1130C00BB0B8093C2079093C307A093C407B09310
S1130C10C507CF910CCFCF9368E670E08DEA91E1E0
S1130C200E94CE2763E470E08DEA91E1BDDE8DEA97
S1130C3091E10E94482846E050E068E670E08DEAC1
S1130C4091E10E9445288DEA91E10E94E4260697ED
S1130C50D4F38DEA91E10E94EC26C82F8DEA91E14C
S1130C600E94EC2620E030E03C2F822B932B092EAF
S1130C70000CAA0BBB0B8093BE079093BF07A093F5
S1130C80C007B093C1078DEA91E10E94EC26C82FFA
S1130C908DEA91E10E94EC2620E030E03C2F822B8B
S1130CA0932B092E000CAA0BBB0B8093BA079093CD
S1130CB0BB07A093BC07B093BD078DEA91E10E94E6
S1130CC0EC26C82F8DEA91E10E94EC2620E030E06A
S1130CD03C2F822B932B092E000CAA0BBB0B809369
S1130CE0B6079093B707A093B807B093B907CF910D
S1130CF0E1CECF93DF93EC0120DF8DDF88E1EEE9D5
S1130D00F7E0DE0101900D928A95E1F7CE01DF91C3
S1130D10CF91089580E090E0089526E040EC52E100
S1130D2060E070E080910602909107020E943B12FD
S1130D3060910602709107028AE099E00E94102AED
S1130D4064E073E080910602909107020C9473159D
S1130D50EF92FF920F931F93CF93DF93CDB7DEB73C
S1130D60A2970FB6F894DEBF0FBECDBF8AE099E01C
S1130D700E944D28892B09F44EC00AEC18E0780132
S1130D808AE099E00E946528F80181938F0161E06F
S1130D9070E080E090E00E945317F70180818A3070
S1130DA051F08AE099E00E944D28892B21F0F9E066
S1130DB009301F0721F7F70111828EEC97E09F930A
S1130DC08F9382E193E09F938F938AEC98E09F93B3
S1130DD08F930E940F420F900F900F900F900F90DF
S1130DE00F900197C1F42FE130E0AE014F5F5F4FE8
S1130DF06091CE078AE099E00E94E92D8E010F5D93
S1130E001F4F2AEF30E040ED57E06091CE078AE0B3
S1130E1099E00E94E62CA2960FB6F894DEBF0FBEAE
S1130E20CDBFDF91CF911F910F91FF90EF90089567
S1130E30CF93DF93CDB7DEB7A0970FB6F894DEBF9C
S1130E400FBECDBF41E253E0BE016F5F7F4F8AE02A
S1130E5099E00E94A82B6091CE078AE099E00E9455
S1130E60602C811106C063E671E08AE099E00E947B
S1130E704115A0960FB6F894DEBF0FBECDBFDF912B
S1130E80CF91089566E18AE099E00E948928EAE01A
S1130E90F9E08BE393E09183808384E08587089570
S1130EA0CF93DF93EC0184E29AE00E94891E1B86B3
S1130EB084E29AE00E941C21882371F084E29AE083
S1130EC00E942121BC0184E29AE00E94C821811180
S1130ED030C081E08B872DC020919B0A28838091AC
S1130EE09C0A90E09A838983222319F16091600A15
S1130EF07091610A8091620A9091630A0E94EC0FDA
S1130F007C836B838091980A8D836091640A7091CD
S1130F10650A8091660A9091670A0E94EC0F7F83AC
S1130F206E838091990A888780919E0A90E09A87BF
S1130F308987CE01DF91CF9108956DE57FE084E24A
S1130F409AE00C94972080910902882331F069E497
S1130F5073E083E29EE00E949E1580918A0C8111C9
S1130F606BC061E087E20E94B11861E083E20E94F5
S1130F70B11868EE73E080E090E00E94531749D600
S1130F808DEA9CE00E9401269093800C80937F0C54
S1130F9020910902222339F04AE050E0BC0183E2A7
S1130FA09EE00E9483168091870C8093830C81E0DD
S1130FB08093840C47D62093A70C3093A80C4093BD
S1130FC0A90C5093AA0C6093AB0C7093AC0C81E009
S1130FD02091AB0C3091AC0C232B09F480E080936E
S1130FE0850C80910902882379F160917F0C7091BE
S1130FF0800C4AE050E083E29EE00E947D166091FE
S1131000830C70E04AE050E083E29EE00E947D168B
S11310106091840C70E04AE050E083E29EE00E941C
S11310207D166091AB0C7091AC0C4AE050E083E209
S11310309EE00E947D1608C069E573E083E29EE0AD
S11310400E949E1580E0089580910C0290910D02FB
S113105020917F0C3091800C821B930B9093820C17
S11310608093810C9091880C8091890C911125C0FA
S1131070853051F030F4882339F0823009F068C0AB
S113108003C08A3098F064C080910902882361F01B
S11310906CE673E083E29EE00E949E1564EF71E0CB
S11310A080E090E00E94531781E008958091090246
S11310B08823D1F365E873E0EDCF853051F030F447
S11310C0882339F0823009F043C003C08A3078F1B4
S11310D03FC080910902882361F06EE973E083E2E6
S11310E09EE00E949E1564EF71E080E090E00E9413
S11310F0531780917A0C90917B0C8B3A91055CF09C
S11311008091810C9091820C8A3A910524F49093F9
S11311107B0C80937A0C1092880C87E0EFE7FCE05C
S1131120A8E7BCE001900D928A95E1F711C0809187
S11311300902882381F363EB73E083E29EE00E945B
S11311409E1564EF71E080E090E00E945317E3CFB6
S1131150089560E08FE10E94751861E082E20E94C8
S1131160751861E087E20E94751861E089E20E94C7
S1131170751861E08DE20E94751861E085E20E94B5
S1131180751861E083E20E94751860E087E20E94AE
S1131190B11861E082E20E94B11860E089E20E9425
S11311A0B11860E08DE20E94B11860E085E20E940F
S11311B0B11860E083E20E94B11826E040E855E2ED
S11311C060E070E083E29EE00E943B12809109029D
S11311D0882331F06FE671E083E29EE00E947E1581
S11311E026E040E855E260E070E080EC9EE00E947A
S11311F03B1226E040E855E260E070E08DE59FE0B8
S11312000E943B1226E040E855E260E070E08AEF7D
S11312109FE00E943B12CFDB80910902882331F0CA
S113122069EC73E083E29EE00C949E1508950F939D
S11312301F93CF93DF9380910902882331F060EDEF
S113124073E083E29EE00E949E1561E087E20E94C3
S1131250B11864EF71E080E090E00E945317CAE097
S1131260D0E08DEA9CE00E940126080F191F219707
S1131270C1F760E087E20E94B118C8016AE070E03B
S11312800E947E3ECB01DF91CF911F910F91089573
S11312900F931F9300EA1FE024E130E04DE150E09A
S11312A06BE170E08DEA9CE00E949B251F910F91F9
S11312B00895CF92DF92EF92FF920F931F93CF93F3
S11312C0DF93CDB7DEB7AA970FB6F894DEBF0FBE93
S11312D0CDBF80EC9EE0CAD7892B59F039DD8091CF
S11312E00902882331F061EE73E083E29EE00E94FC
S11312F09E158AEF9FE0BAD7892BC9F18091090224
S1131300882331F06FEE73E083E29EE00E949E1525
S1131310FF24F3948AEF9FE0A9D7892B41F18AEF48
S11313209FE0BED78C0180910902882329F0602FA9
S113133083E29EE00E947415C801992785349105C3
S113134081F034F48434910529F7F0920802E2CF55
S11313508335910549F084359105E1F61092840CAA
S1131360D9CF10920802D6CFF092840CD3CF8DE55A
S11313709FE07CD7892B09F47AC0809109028823E5
S113138031F063E074E083E29EE00E949E15CE019A
S1131390079686DD8CE0FE013796ACE6BCE0019052
S11313A00D928A95E1F780910902882309F45FC0C0
S11313B061E174E083E29EE00E94731560916C0C1D
S11313C070E04AE050E083E29EE00E947D1667E10F
S11313D074E083E29EE00E94731560916D0C70913D
S11313E06E0C4AE050E083E29EE00E9483168091F6
S11313F06C0C8823E1F162E274E083E29EE00E94D7
S1131400731560916F0C7091700C44E050E083E2AE
S11314109EE00E947D166091710C83E29EE00E9422
S113142074156DE274E083E29EE00E94731560918E
S1131430720C7091730C44E050E083E29EE00E94D1
S11314407D166091740C83E29EE00E94AE1560E309
S113145074E083E29EE00E9473156091750C7091B4
S1131460760C4AE050E083E29EE00E94831680916D
S1131470890C882309F4AFC08091880C81110BC0BA
S113148085E20E94DF18892B31F060E085E20E943A
S1131490B1181092860C5CD46093680C7093690C3C
S11314A080936A0C90936B0C80918A0C882349F189
S11314B06DE374E083E29EE00E949E1583E29EE069
S11314C0D5D6892BD9F363E27EE0CE0101960E9442
S11314D0C116BE016F5F7F4F83E29EE00E948E15AE
S11314E0CE0101960E94C919AAD56093680C709325
S11314F0690C80936A0C90936B0CCE0101960E9448
S1131500071980918A0C81110DC0CE014396F1DB3D
S113151088E1FE017396AFE8BCE001900D928A95D4
S1131520E1F72CC064E574E083E29EE00E949E151E
S113153060E774E083E29EE00E949E1583E29EE0F1
S113154095D6892BD9F383E29EE0AAD68C014AE092
S113155050E0BC0183E29EE00E948316B801605310
S11315607109072E000C880B990B69D560938F0CB9
S11315707093900C8093910C9093920C2091930C07
S11315803091940C4091950C5091960C60918F0C75
S11315907091900C8091910C9091920C4DD420916B
S11315A0970C3091980C4091990C50919A0C44D41A
S11315B02DEC3CEC4CE85FE3F2D587FD0CC01092B7
S11315C0890C80910902882331F069E874E083E290
S11315D09EE00E94731580918E0C882319F085E09B
S11315E08093890CB0DC8091890C90E08A3091055D
S11315F008F0F8C2FC018827EE58FF4F8F4F0C9477
S1131600CF3E80910902882361F06BE974E083E2A4
S11316109EE00E949E1564EF71E080E090E00E94DD
S1131620531780910B02811103C081E080930A0259
S113163010928E0C85E20E94DF18892B21F060E065
S113164085E20E94B11882E20E94DF18892B21F002
S113165060E082E20E94B11880918A0C81110DC071
S1131660CE01439646DB88E1FE017396AFE8BCE009
S113167001900D928A95E1F72CC06AEA74E083E246
S11316809EE00E949E1560E774E083E29EE00E9463
S11316909E1583E29EE0EAD5892BD9F383E29EE08E
S11316A0FFD58C014AE050E0BC0183E29EE00E9439
S11316B08316B80160537109072E000C880B990B2F
S11316C0BED460938F0C7093900C8093910C909384
S11316D0920C2091930C3091940C4091950C509164
S11316E0960C60918F0C7091900C8091910C90915C
S11316F0920CA2D32091970C3091980C4091990CA4
S113170050919A0C99D32DEC3CEC4CE85FE3F8D360
S113171018160CF469C281E08093890C0E94221788
S11317206093640C7093650C8093660C9093670CC3
S113173080910902882309F457C266EB74E083E2BE
S11317409EE00E949E1564EF71E080E090E00E94AC
S113175053174AC280910902882301F160ED74E0B5
S113176083E29EE00E949E156DED74E083E29EE0AC
S11317700E949E154091640C5091650C6091660C1A
S11317807091670C2AE030E083E29EE00E94281604
S113179064EF71E080E090E00E9453170E942217EA
S11317A06B017C018091640C9091650CA091660C96
S11317B0B091670CC816D906EA06FB06B1F00E9480
S11317C022170091640C1091650C2091660C3091E5
S11317D0670CDC01CB01801B910BA20BB30B893E80
S11317E09340A105B10578F4FFC10E942217C61ADF
S11317F0D70AE80AF90A89EEC81683E0D806E10494
S1131800F10408F4F1C19FDB882321F061E085E253
S11318100E94B11841E050E068E176E08AEF9FE071
S11318200E940215809108028111DEC182E080933A
S1131830890CDAC180910902882361F063EE74E0B7
S113184083E29EE00E949E1564EF71E080E090E0E8
S11318500E94531780918A0C882331F062EF74E060
S113186083E29EE00E949E1520E030E040EA52E4CC
S11318706091680C7091690C80916A0C90916B0C6A
S11318808ED487FD02C086E001C085E08093890C78
S113189081E080938C0C63C080910902882361F0FD
S11318A06EEF74E083E29EE00E949E1564EF71E0A7
S11318B080E090E00E94531782E20E94DF18892B97
S11318C031F060E082E20E94B1181092860C80919F
S11318D08D0C811110928D0C80918A0C882331F02B
S11318E065E075E083E29EE00E949E158091880C7D
S11318F0811110C080918C0C8823D9F010928C0C2B
S113190080918A0C811115C092DC90930D02809312
S11319100C020FC085E20E94DF18892B21F461E0DC
S113192085E20E94B11889E10E94DF18892B09F42D
S1131930F4D920E030E040EA52E46091680C709100
S1131940690C80916A0C90916B0C29D487FD4CC171
S113195080918E0C811148C186E08093890C10928D
S11319608D0C42C180910902882361F069E075E021
S113197083E29EE00E949E1564EF71E080E090E0B7
S11319800E94531781E08093860C80918A0C8823EF
S113199031F060E175E083E29EE00E949E15809143
S11319A0880C8823B9F080910B02882399F040DADF
S11319B010920B0280910902882361F064E175E0C2
S11319C083E29EE00E949E1564EF71E080E090E067
S11319D00E945317C090680CD090690CE0906A0C78
S11319E0F0906B0C20E030E04CEA52E4C701B60101
S11319F0D6D3181614F487E0B0CF20E030E040EAE4
S1131A0052E4C701B6017CD287FFEEC082E0809326
S1131A10890C81E080938D0CE7C0809109028823B2
S1131A2061F060E275E083E29EE00E949E1564EF3F
S1131A3071E080E090E00E94531780918A0C882323
S1131A4031F067E275E083E29EE00E949E1580918A
S1131A500902882361F06BE275E083E29EE00E9454
S1131A609E1564EF71E080E090E00E945317C090EF
S1131A70680CD090690CE0906A0CF0906B0C20E03C
S1131A8030E046EB52E4C701B60189D3181614F4CA
S1131A9088E063CF20E030E04CEA52E4B2CF80919A
S1131AA00902882361F069E375E083E29EE00E9405
S1131AB09E1564EF71E080E090E00E9453178091DE
S1131AC08A0C882331F060E475E083E29EE00E9492
S1131AD09E1580918B0C882351F18091880C88236A
S1131AE031F180910902882361F064E475E083E2B6
S1131AF09EE00E949E1564EF71E080E090E00E94F9
S1131B00531789E20E94DF18892B71F461E089E29E
S1131B100E94B11868EE73E080E090E00E945317D1
S1131B2060E089E20E94B11883D910928B0CC090B6
S1131B30680CD090690CE0906A0CF0906B0C20E07B
S1131B4030E042ED52E4C701B60129D3181614F46B
S1131B5089E003CF20E030E046EB52E452CF80919D
S1131B600902882359F06EE475E083E29EE0E6D72B
S1131B7064EF71E080E090E00E94531780918A0C3A
S1131B80882329F065E575E083E29EE0D7D780914C
S1131B900A028823D1F08091880C8823B1F041E0B7
S1131BA050E069E575E08AEF9FE02CD78091090247
S1131BB0882359F06BE575E083E29EE0BFD764EFBC
S1131BC071E080E090E00E94531720E030E042EDA5
S1131BD052E46091680C7091690C80916A0C909148
S1131BE06B0C11CF1092890C68EE73E080E090E0EA
S1131BF00E945317AA960FB6F894DEBF0FBECDBF4E
S1131C00DF91CF911F910F91FF90EF90DF90CF90D4
S1131C10089569E685EB9CE00E941B1A811106C0B9
S1131C2065E675E083E29EE089D7FFCF6AE975E057
S1131C3083E29EE083D764E670E080E090E00C9459
S1131C40531708958F929F92AF92BF92CF92DF92D3
S1131C50EF92FF920F931F93CF93DF9300D000D0A6
S1131C60CDB7DEB740E46CE07DE085EB9CE00E94FC
S1131C70981A8CE0C82E8DE0D82E00E010E0E12CFC
S1131C80F12CF60181909190A190B1906F01B8016F
S1131C90012E000C880B990BD2D19B01AC01C5011C
S1131CA0B4017DD2181624F4C501B40195D18B0179
S1131CB020E030E048EB51E4C501B40170D287FD67
S1131CC003C0FFEFEF1AFF0A8CE0C8168EE0D806B7
S1131CD0C1F60831110544F061E080E095E0E916B1
S1131CE0F10424F460E002C060E080E01A83098318
S1131CF0FC82EB82202F3A814E2D5C81782F80E08C
S1131D0090E026960FB6F894DEBF0FBECDBFDF91EC
S1131D10CF911F910F91FF90EF90DF90CF90BF90E4
S1131D20AF909F908F90089520E341E365E385ECA5
S1131D309CE00C94BE24FC01862F608321833283B3
S1131D404383548360E00C94751881E19EE068C07D
S1131D50FCCF20E030E040EA50E467E381E19EE01C
S1131D6008D020E030E040EA50E467E38CE09EE0F5
S1131D70E2CFCF92DF92EF92FF921F93CF93DF9344
S1131D80EC01162F69017A0160E0812F0E94751819
S1131D90CA82DB82EC82FD821883DF91CF911F918E
S1131DA0FF90EF90DF90CF900895CF93DF93EC01F5
S1131DB088810E94FA178983BC017727072E000CBB
S1131DC0880B990B3CD120E030E040E85AE3EBD19A
S1131DD02A813B814C815D81E6D16E837F83888734
S1131DE0998720E030E040E05FE325D020E030E058
S1131DF048EC52E4D8D16A877B878C879D8726E696
S1131E0036E646EE5FE3CFD120E030E040E052E436
S1131E1013D06E877F87888B998BDF91CF9108953C
S1131E20CF93DF93EC01C1DF6E857F858889998923
S1131E30DF91CF9108955058BB27AA270ED075C1C2
S1131E4066D130F06BD120F031F49F3F11F41EF4D1
S1131E505BC10EF4E095E7FB51C1E92F77D180F324
S1131E60BA17620773078407950718F071F49EF593
S1131E708FC10EF4E0950B2EBA2FA02D0B01B901E2
S1131E8090010C01CA01A0011124FF27591B99F0EC
S1131E90593F50F4503E68F11A16F040A22F232FF8
S1131EA0342F4427585FF3CF469537952795A79548
S1131EB0F0405395C9F77EF41F16BA0B620B730BEF
S1131EC0840BBAF09150A1F0FF0FBB1F661F771F60
S1131ED0881FC2F70EC0BA0F621F731F841F48F415
S1131EE0879577956795B795F7959E3F08F0B3CF9B
S1131EF09395880F08F09927EE0F97958795089585
S1131F00D9D008F481E008950CD00FC107D140F076
S1131F10FED030F021F45F3F19F0F0C0511139C107
S1131F20F3C014D198F39923C9F35523B1F3951B46
S1131F30550BBB27AA2762177307840738F09F5FE6
S1131F405F4F220F331F441FAA1FA9F333D00E2E55
S1131F503AF0E0E830D091505040E695001CCAF7C2
S1131F6029D0FE2F27D0660F771F881FBB1F261787
S1131F7037074807AB07B0E809F0BB0B802DBF015A
S1131F80FF2793585F4F2AF09E3F510568F0B6C073
S1131F9000C15F3FECF3983EDCF386957795679537
S1131FA0B795F7959F5FC9F7880F911D969587950B
S1131FB097F90895E1E0660F771F881FBB1F62172A
S1131FC073078407BA0720F0621B730B840BBA0BE8
S1131FD0EE1F88F7E095089504D06894B111D9C034
S1131FE00895BCD088F09F5790F0B92F9927B75126
S1131FF0A0F0D1F0660F771F881F991F1AF0BA95C9
S1132000C9F712C0B13081F0C3D0B1E00895C0C0A7
S1132010672F782F8827B85F39F0B93FCCF38695BE
S113202077956795B395D9F73EF49095809570951B
S113203061957F4F8F4F9F4F0895E89409C097FB98
S11320403EF490958095709561957F4F8F4F9F4F8B
S11320509923A9F0F92F96E9BB279395F6958795CF
S113206077956795B795F111F8CFFAF4BB0F11F492
S113207060FF1BC06F5F7F4F8F4F9F4F16C0882339
S113208011F096E911C0772321F09EE8872F762F6F
S113209005C0662371F096E8862F70E060E02AF0B0
S11320A09A95660F771F881FDAF7880F969587959C
S11320B097F90895990F0008550FAA0BE0E8FEEF71
S11320C016161706E807F907C0F012161306E407F8
S11320D0F50798F0621B730B840B950B39F40A26F1
S11320E061F0232B242B252B21F408950A2609F4CF
S11320F0A140A6958FEF811D811D089597F99F67D3
S113210080E870E060E008959FEF80EC089500247B
S11321100A941616170618060906089500240A9448
S113212012161306140605060895092E0394000CCE
S113213011F4882352F0BB0F40F4BF2B11F460FF5D
S113214004C06F5F7F4F8F4F9F4F089557FD905886
S1132150440F551F59F05F3F71F04795880F97FB67
S1132160991F61F09F3F79F0879508951216130621
S11321701406551FF2CF4695F1DF08C01616170650
S11321801806991FF1CF8695710561050894089585
S1132190E894BB2766277727CB0197F908958ADF50
S11321A008F48FEF08950BD0C0CFB1DF28F0B6DF6D
S11321B018F0952309F0A2CFA7CF1124EACFC6DFE8
S11321C0A0F3959FD1F3950F50E0551F629FF00146
S11321D0729FBB27F00DB11D639FAA27F00DB11D9F
S11321E0AA1F649F6627B00DA11D661F829F222728
S11321F0B00DA11D621F739FB00DA11D621F839FAF
S1132200A00D611D221F749F3327A00D611D231F84
S1132210849F600D211D822F762F6A2F11249F57D2
S113222050408AF0E1F088234AF0EE0FFF1FBB1FF5
S1132230661F771F881F91505040A9F79E3F510594
S113224070F05CCFA6CF5F3FECF3983EDCF386954D
S113225077956795B795F795E7959F5FC1F7FE2B3F
S1132260880F911D9695879597F90895FC01918D96
S1132270228D892F90E0805C9F4F821B91098F7380
S113228099270895FC01918D828D981731F0828DE4
S1132290E80FF11D858D90E008958FEF9FEF08956D
S11322A0FC01918D828D981761F0828DDF01A80F5A
S11322B0B11D5D968C91928D9F5F9F73928F90E07C
S11322C008958FEF9FEF0895FC01538D448D252FC2
S11322D030E0842F90E0821B930B541710F0CF96BC
S11322E008950197089580E093E1892B39F080E007
S11322F090E0892B19F084D1811122C085E993E102
S1132300892B39F080E090E0892B19F00ED28111ED
S11323101AC08AE294E1892B39F080E090E0892B9D
S113232019F098D2811112C08FEB94E1892B99F0A6
S113233080E090E0892B79F022D381110AC00895BE
S11323400E940000DBCF0E940000E3CF0E94000047
S1132350EBCF0C9400000895FC01848DDF01A80FDD
S1132360B11DA35ABF4F2C91848D90E001968F73B9
S11323709927848FA689B7892C93A089B1898C91D8
S1132380837080648C93938D848D981306C0028827
S1132390F389E02D80818F7D80830895EF92FF92F1
S11323A00F931F93CF93DF93EC0181E0888F9B8D74
S11323B08C8D981305C0E889F989808185FD25C035
S11323C0F62E0B8D10E00F5F1F4F0F731127E02EB9
S11323D08C8DE8120BC00FB607FCFACFE889F98997
S11323E0808185FFF5CFCE01B7DFF2CF8B8DFE0163
S11323F0E80FF11DE35AFF4FF0829FB7F8940B8F5B
S1132400EA89FB89808180620AC09FB7F894EE89CB
S1132410FF896083E889F98980818370806480837F
S11324209FBF81E090E0DF91CF911F910F91FF90CA
S1132430EF900895CF93DF93EC01888D8823C1F04A
S1132440EA89FB89808185FD05C0A889B9898C91B9
S113245086FD0EC00FB607FCF5CF808185FFF2CF55
S1132460A889B9898C9185FFEDCFCE0175DFE8CFBE
S1132470DF91CF910895CF92DF92EF92FF921F9355
S1132480CF93DF93EC016A017B01122FE889F9896C
S113249082E080834115514E61057105B1F060E021
S11324A079E08DE390E0A70196010E94913EDA0164
S11324B0C9010197A109B109B695A7959795879583
S11324C09C01211580E13807A8F0E889F989108278
S11324D060E874E88EE190E0A70196010E94913EC5
S11324E0DA01C9010197A109B109B695A795979594
S11324F087959C01EC85FD853083EE85FF852083DF
S1132500188EEC89FD891083EA89FB8980818061BA
S11325108083EA89FB89808188608083EA89FB89DA
S1132520808180688083EA89FB8980818F7D8083B4
S1132530DF91CF911F91FF90EF90DF90CF9008959E
S113254008951F920F920FB60F9211240BB60F929B
S11325502F938F939F93EF93FF93E091330EF0911A
S1132560340E8081E091390EF0913A0E82FD12C052
S1132570908180913C0E8F5F8F7320913D0E821766
S113258051F0E0913C0EF0E0ED5DF14F958F8093BA
S11325903C0E01C08081FF91EF919F918F912F910B
S11325A00F900BBE0F900FBE0F901F9018951F92A7
S11325B00F920FB60F9211240BB60F922F933F93E5
S11325C04F935F936F937F938F939F93AF93BF9337
S11325D0EF93FF9383E29EE0BFDEFF91EF91BF9103
S11325E0AF919F918F917F916F915F914F913F91A7
S11325F02F910F900BBE0F900FBE0F901F90189548
S113260083E29EE033DE21E0892B09F420E0822F6F
S11326100895E3E2FEE01382128288EE93E0A0E0E4
S1132620B0E084839583A683B78388EB95E0918398
S1132630808385EC90E09587848784EC90E097878D
S1132640868780EC90E0918B808B81EC90E0938B7B
S1132650828B82EC90E0958B848B86EC90E0978B58
S1132660868B118E128E138E148E08951F920F92E4
S11326700FB60F9211240BB60F922F938F939F9343
S1132680EF93FF93E091D00EF091D10E8081E09111
S1132690D60EF091D70E82FD12C090818091D90E92
S11326A08F5F8F732091DA0E821751F0E091D90E6B
S11326B0F0E0E054F14F958F8093D90E01C08081F2
S11326C0FF91EF919F918F912F910F900BBE0F90DF
S11326D00FBE0F901F9018951F920F920FB60F9276
S11326E011240BB60F922F933F934F935F936F93E5
S11326F07F938F939F93AF93BF93EF93FF9380EC5C
S11327009EE02ADEFF91EF91BF91AF919F918F914F
S11327107F916F915F914F913F912F910F900BBEDD
S11327200F900FBE0F901F90189580EC9EE09EDDD9
S113273021E0892B09F420E0822F0895E0ECFEE0EB
S11327401382128288EE93E0A0E0B0E08483958344
S1132750A683B78388EB95E0918380838DEC90E02A
S1132760958784878CEC90E09787868788EC90E047
S1132770918B808B89EC90E0938B828B8AEC90E038
S1132780958B848B8EEC90E0978B868B118E128EBA
S1132790138E148E08951F920F920FB60F92112468
S11327A00BB60F922F938F939F93EF93FF93E09128
S11327B06D0FF0916E0F8081E091730FF091740FA3
S11327C082FD12C090818091760F8F5F8F7320916C
S11327D0770F821751F0E091760FF0E0E35AF04F53
S11327E0958F8093760F01C08081FF91EF919F9127
S11327F08F912F910F900BBE0F900FBE0F901F90D3
S113280018951F920F920FB60F9211240BB60F92C8
S11328102F933F934F935F936F937F938F939F93E4
S1132820AF93BF93EF93FF938DE59FE095DDFF9109
S1132830EF91BF91AF919F918F917F916F915F9134
S11328404F913F912F910F900BBE0F900FBE0F90A1
S11328501F9018958DE59FE009DD21E0892B09F48F
S113286020E0822F0895EDE5FFE01382128288EEC6
S113287093E0A0E0B0E084839583A683B78388EBDC
S113288095E09183808385ED90E09587848784ED3E
S113289090E09787868780ED90E0918B808B81ED27
S11328A090E0938B828B82ED90E0958B848B86ED08
S11328B090E0978B868B118E128E138E148E089552
S11328C01F920F920FB60F9211240BB60F922F93F3
S11328D08F939F93EF93FF93E0910A10F0910B1065
S11328E08081E0911010F091111082FD12C090814E
S11328F0809113108F5F8F7320911410821751F001
S1132900E0911310F0E0E650F04F958F8093131090
S113291001C08081FF91EF919F918F912F910F9032
S11329200BBE0F900FBE0F901F9018951F920F9221
S11329300FB60F9211240BB60F922F933F934F9320
S11329405F936F937F938F939F93AF93BF93EF9313
S1132950FF938AEF9FE000DDFF91EF91BF91AF916C
S11329609F918F917F916F915F914F913F912F91A3
S11329700F900BBE0F900FBE0F901F9018958AEF0B
S11329809FE074DC21E0892B09F420E0822F089574
S1132990EAEFFFE01382128288EE93E0A0E0B0E059
S11329A084839583A683B78388EB95E091838083A2
S11329B085E391E09587848784E391E09787868710
S11329C080E391E0918B808B81E391E0938B828B08
S11329D082E391E0958B848B86E391E0978B868BE1
S11329E0118E128E138E148E08950895A1D2FDDFD8
S11329F00E94A908C3E7D1E10E9459092097E1F395
S1132A0072DCFACFCF92DF92EF92FF920F931F9373
S1132A10CF93DF936C017A018B01C0E0D0E0CE1537
S1132A20DF0581F0D8016D918D01D601ED91FC9106
S1132A300190F081E02DC6011995892B11F02196A2
S1132A40EECF7E01C701DF91CF911F910F91FF90CF
S1132A50EF90DF90CF9008956115710579F0FB0137
S1132A6001900020E9F73197AF01461B570BDC01B9
S1132A70ED91FC910280F381E02D199480E090E0C7
S1132A800895EF92FF920F931F93CF93DF938C01DE
S1132A907B01C0E0D0E0F701EC0FFD1F64916623D9
S1132AA061F0D801ED91FC910190F081E02DC80115
S1132AB01995892B11F02196EECFCE01DF91CF919C
S1132AC01F910F91FF90EF900895DB0114964D91A3
S1132AD05C9115976D917C91DC01ED91FC910280E4
S1132AE0F381E02D1994B8CFDC01ED91FC910190B4
S1132AF0F081E02D19946FE073E0AECF0F931F9334
S1132B00CF93DF93EC01BDDF8C01CE01F4DF800FA6
S1132B10911FDF91CF911F910F9108950F931F93F0
S1132B20CF93DF93EC01D1DF8C01CE01E4DF800F82
S1132B30911FDF91CF911F910F9108950F931F93D0
S1132B40CF93DF93EC0188DF8C01CE01D4DF800FBB
S1132B50911FDF91CF911F910F9108950F931F93B0
S1132B60CF93DF93EC01C0DF8C01CE01C4DF800F73
S1132B70911FDF91CF911F910F9108958F929F9292
S1132B80AF92BF92EF92FF920F931F93CF93DF9375
S1132B90CDB7DEB7A1970FB6F894DEBF0FBECDBF99
S1132BA07C01FA01CB0119A2223008F42AE08E013B
S1132BB00F5D1F4F822E912CA12CB12CBF01A501BA
S1132BC094010E94913EF901CA01015011096A3031
S1132BD010F4605D01C0695CD8016C93232B242B35
S1132BE0252B61F7B801C70137DFA1960FB6F8941A
S1132BF0DEBF0FBECDBFDF91CF911F910F91FF902C
S1132C00EF90BF90AF909F908F900895211531055C
S1132C1041F4DC01ED91FC910190F081E02D642FF1
S1132C201994ACCF9A01462F50E060E070E0EECFEB
S1132C300F931F93CF93DF93EC01F4DF8C01CE014C
S1132C405ADF800F911FDF91CF911F910F9108954B
S1132C500F931F93CF93DF93EC01D8DF8C01CE0148
S1132C604ADF800F911FDF91CF911F910F9108953B
S1132C70CF92DF92EF92FF920F931F93CF93DF9344
S1132C802115310581F4DC01ED91FC910190F08175
S1132C90E02D642FDF91CF911F910F91FF90EF9062
S1132CA0DF90CF9019942A303105F1F477FF1BC0DF
S1132CB06A017B01EC016DE217DF8C014427552783
S1132CC0BA014C195D096E097F092AE0CE0156DF6D
S1132CD0800F911FDF91CF911F910F91FF90EF9083
S1132CE0DF90CF9008952AE0DF91CF911F910F914B
S1132CF0FF90EF90DF90CF9041CF9A01AB01770F17
S1132D00660B770BB5CF0F931F93CF93DF93EC0133
S1132D10F4DF8C01CE01EFDE800F911FDF91CF91A4
S1132D201F910F9108950F931F93CF93DF93EC019D
S1132D3089D0688779878A879B87E881F9810284AB
S1132D40F385E02DCE01199597FF16C07BD0088539
S1132D5019852A853B85DC01CB01801B910BA20BD5
S1132D60B30B0C811D812E813F8180179107A2072F
S1132D70B30718F38FEF9FEFDF91CF911F910F915E
S1132D8008950F931F93CF93DF93EC018B0161E1BF
S1132D9073E0ABD2C801C7DF97FD04C0682FCE0132
S1132DA0E5D2F8CFCE01DF91CF911F910F91089515
S1132DB01F920F920FB60F9211242F933F938F936C
S1132DC09F93AF93BF938091981090919910A09185
S1132DD09A10B0919B103091971023E0230F2D3758
S1132DE020F40196A11DB11D05C026E8230F02960B
S1132DF0A11DB11D20939710809398109093991062
S1132E00A0939A10B0939B1080919C1090919D1068
S1132E10A0919E10B0919F100196A11DB11D8093A9
S1132E209C1090939D10A0939E10B0939F10BF91FF
S1132E30AF919F918F913F912F910F900FBE0F9063
S1132E401F9018952FB7F89460919810709199106D
S1132E5080919A1090919B102FBF08953FB7F894DA
S1132E6080919C1090919D10A0919E10B0919F1004
S1132E7026B5A89B05C02F3F19F00196A11DB11DD1
S1132E803FBFBA2FA92F982F8827820F911DA11D0C
S1132E90B11DBC01CD0142E0660F771F881F991F49
S1132EA04A95D1F708958F929F92AF92BF92CF9295
S1132EB0DF92EF92FF926B017C01D0DF4B015C014A
S1132EC0C114D104E104F104F9F00E94562EC6DFC6
S1132ED0DC01CB0188199909AA09BB09883E9340F2
S1132EE0A105B10568F321E0C21AD108E108F1088F
S1132EF088EE880E83E0981EA11CB11CC114D10475
S1132F00E104F10421F7DCCFFF90EF90DF90CF9044
S1132F10BF90AF909F908F9008958230910538F0C4
S1132F20880F991F880F991F05970197F1F7089546
S1132F30789484B5826084BD84B5816084BD85B590
S1132F40826085BD85B5816085BDEEE6F0E0808157
S1132F5081608083E1E8F0E0108280818260808378
S1132F60808181608083E0E8F0E0808181608083FB
S1132F70E1EBF0E0808184608083E0EBF0E080812D
S1132F8081608083E1E9F0E08081826080838081D8
S1132F9081608083E0E9F0E0808181608083E1EA00
S1132FA0F0E0808182608083808181608083E0EAB8
S1132FB0F0E0808181608083E1E2F1E080818260E1
S1132FC08083808181608083E0E2F1E080818160A0
S1132FD08083EAE7F0E0808184608083808182607E
S1132FE08083808181608083808180688083109267
S1132FF0C1000895863308F0865390917B00282FF2
S11330002870977F922B90937B0020910E0290E47E
S1133010299F900111248770822B80937C008091DA
S11330207A00806480937A0080917A0086FDFCCFD8
S1133030809178002091790090E0922B089590E09F
S1133040FC013197E231F10508F04EC08827E458BD
S1133050FF4F8F4F0C94CF3E809180008F7703C039
S1133060809180008F7D80938000089580918000FE
S1133070877FF9CF84B58F7702C084B58F7D84BDF7
S113308008958091B0008F7703C08091B0008F7D48
S11330908093B0000895809190008F7707C080914D
S11330A090008F7D03C080919000877F8093900073
S11330B008958091A0008F7707C08091A0008F7D34
S11330C003C08091A000877F8093A0000895809121
S11330D020018F7707C0809120018F7D03C08091EC
S11330E02001877F809320010895CF93DF9390E0A0
S11330F0FC01E054FE4F2491FC01EA5FFD4F8491F2
S1133100882361F190E0880F991FFC01E058FD4F7E
S1133110C591D491FC01EA59FD4FA591B491611177
S113312009C09FB7F8948881209582238883EC9105
S11331302E230BC0623061F49FB7F8948881322F3C
S1133140309583238883EC912E2B2C939FBF06C04C
S11331508FB7F894E8812E2B28838FBFDF91CF910E
S113316008951F93CF93DF93282F30E0F901E65899
S1133170FE4F8491F901E054FE4FD491F901EA5FC6
S1133180FD4FC491CC23B9F0162F811158DFEC2FD9
S1133190F0E0EE0FFF1FEA59FD4FA591B4919FB7E0
S11331A0F894111104C08C91D095D82302C0EC91ED
S11331B0DE2BDC939FBFDF91CF911F910895CF93B6
S11331C0DF93282F30E0F901E658FE4F8491F9018E
S11331D0E054FE4FD491F901EA5FFD4FC491CC2332
S11331E089F081112CDFEC2FF0E0EE0FFF1FE45B80
S11331F0FD4FA591B491EC91ED2381E090E021F491
S113320080E002C080E090E0DF91CF910895FC015E
S113321080819181009711F00C94A83F0895CF9379
S1133220DF93EC0188819981009711F00E94A83FF7
S1133230198218821D821C821B821A82DF91CF910F
S113324008950F931F93CF93DF93EC018B016F5F6E
S11332507F4F888199810E943140009731F0998392
S113326088831B830A8381E001C080E0DF91CF91D2
S11332701F910F910895CF93DF93EC018881998179
S1133280892B29F08A819B818617970758F4CE01F0
S1133290D8DF882341F08C819D81892B19F4E88142
S11332A0F981108281E0DF91CF910895EF92FF922E
S11332B00F931F93CF93DF93EC017B018A01BA0133
S11332C0DADF811103C0CE01AADF07C01D830C839E
S11332D0B701888199810E94B441CE01DF91CF91D9
S11332E01F910F91FF90EF900895FC0111821082BD
S11332F013821282158214826115710549F0FB0153
S113330001900020E9F73197AF01461B570BCECF50
S11333100895EF92FF920F931F93CF93DF9361155C
S1133320710511F480E01BC041155105B9F07B0112
S1133330EC018C819D818A01080F191FB801CE010F
S11333409ADF882379F3288139818C819D81B701A3
S1133350820F931F0E94B4411D830C8381E0DF918F
S1133360CF911F910F91FF90EF900895CF93DF932A
S11333701F921F92CDB7DEB769831A8241E050E0F5
S1133380BE016F5F7F4FC5DF0F900F90DF91CF912C
S11333900895FC0180819181009711F00C943541CE
S11333A060E070E0CB010895EF92FF920F931F93BA
S11333B0CF93DF93C62F7A01022FFC0160818DEA3F
S11333C091E10E94C4276C2F8DEA91E10E9473273A
S11333D0E70110E0CE018E199F098017910734F49C
S11333E069918DEA91E10E947327F4CF8DEA91E10E
S11333F0DF91CF911F910F91FF90EF900C9448288B
S1133400CF93DF931F92CDB7DEB7498321E0AE019E
S11334104F5F5F4FC9DF0F90DF91CF910895FC019B
S113342024812E7F248321FB442740F950E0440F5C
S1133430551F63E0E5CFCF93DF93EC0168838DEAFA
S113344091E10E94B227198240E060E0CE01D8DF0A
S11334508FE38A834FE361E0CE01D2DFCE01DFDF69
S11334608B818E7F8B8340E062E0CE01C9DF64E60E
S113347070E080E090E017DD81E0DF91CF91089566
S11334806F927F928F929F92AF92BF92CF92DF9270
S1133490EF92FF920F931F93CF93DF938C01662ECD
S11334A06A01722EC0E0C715A0F5D72DDC1BD132FE
S11334B008F0D0E2F80160818DEA91E10E94C4270E
S11334C06C2F660D8DEA91E10E9473278DEA91E1DC
S11334D00E9448284D2FF80160818DEA91E10E94F5
S11334E04328812C912CAD2EB12C8C2F880D8A145D
S11334F09B0414F0CD0FD7CF7601E80EF11C8DEAB2
S113350091E10E94EC26F7018083FFEF8F1A9F0A56
S1133510ECCFDF91CF911F910F91FF90EF90DF904F
S1133520CF90BF90AF909F908F907F906F900895B1
S11335308F929F92AF92BF92CF92DF92EF92FF92BF
S11335400F931F93CF93DF93CDB7DEB7F62E172FCC
S1133550042F8DB69EB6242F220F46FD20E84DB7CA
S11335605EB7421B51090FB6F8945EBF0FBE4DBF44
S1133570EDB7FEB731965F01AF0160E881DFCF2C74
S1133580D12EE12CF12C10E0E016F1065CF58E2D25
S1133590880FF501E80FF11D618170E0762F662731
S11335A08081682B94E0660F771F9A95E1F724E0F9
S11335B0759567952A95E1F7072E000C880B990BF2
S11335C00E941F1020E030E040E85EE30E94D31028
S11335D0F60161937193819391936F01FFEFEF1A59
S11335E0FF0AD2CF0FB6F8949EBE0FBE8DBEDF91F8
S11335F0CF911F910F91FF90EF90DF90CF90BF90EC
S1133600AF909F908F9008950F93FC0180E092E11A
S1133610AAE7B0E030E0481759076A077B0740F48F
S1133620B695A795979587953F5F3630A1F737E014
S113363091E09327222311F020E501C020E70C70CC
S1133640892F8695082B022B0083917091830F910B
S113365008952091AA11222399F04FB7F89420914C
S1133660AA11213059F42DB32093A8113DB3209110
S1133670A911209523232DBB4FBF02C04093A8114D
S11336808CBD9DBD08958091AA11882361F09FB7D8
S1133690F8942091AA118091A811213019F48DBBBE
S11336A09FBF08958FBF0895DF92EF92FF920F930B
S11336B01F93CF93DF93EC01FC01EA54FF4F808109
S11336C09181009739F4FE01E854FF4F8081918184
S11336D0009771F0DC01ED91FC910190F081E02DF7
S11336E0DF91CF911F910F91FF90EF90DF9019948C
S11336F0D62E7E01BAEBEB0EF11CF701808191818D
S1133700009741F4FE01E454FF4F80819181892B9D
S113371009F514C0FE01EB5DFE4F60810E94C427D1
S1133720D7018D919C91DC01ED91FC910190F08188
S1133730E02D6D2D19958C01019719F000E010E032
S113374024C061E0F701808191810E94CF2781111B
S1133750D9CF1BC0FE01E154FF4F8081918179DFF5
S1133760C254DF4F888187FD02C060E0FADCDEBC12
S113377000000DB407FEFDCF8EB5888187FD02C021
S113378061E0EFDC80DF01E010E0C801DF91CF9160
S11337901F910F91FF90EF90DF900895CF92DF92E9
S11337A0EF92FF920F931F93CF93DF937B018A01D4
S11337B06A018EE2C81A88EFD80AF801C191D19142
S11337C08F0142E050E06BED75E0CE010E94BB41F9
S11337D0892B91F00C151D0579F0FE010190002054
S11337E0E9F73197AF014C1B5D0BB701CE010E9485
S11337F0BB41892B11F702C0C0E0D0E0CE01DF91BC
S1133800CF911F910F91FF90EF90DF90CF9008958B
S11338108F929F92AF92BF92CF92DF92EF92FF92DC
S11338200F931F93CF93DF93EC018B01CB010E9485
S113383035414B015C0120E137E240E050E00E9459
S1133840913E2CAB24E6C22ED12CE12CF12CA70105
S113385096010E94913E2DABC501B401A7019601CA
S11338600E94913E6EAB6EE270E0C8010E94A041DE
S113387001960E94184198AF8FABFE01EB55FF4FA4
S1133880CF54DF4F88819981AA81BB818083918342
S1133890A283B383DF91CF911F910F91FF90EF909B
S11338A0DF90CF90BF90AF909F908F9008954F92EC
S11338B05F926F927F928F929F92AF92BF92EF929C
S11338C0FF920F931F93CF93DF93CDB7DEB72A9761
S11338D00FB6F894DEBF0FBECDBFFB0120812C32A2
S11338E009F4A6C08B017C0142E050E0CE010196B0
S11338F00E94C9411B82CE0101960E9435419B0161
S1133900AC0160E876E988E990E00E94633E2B010F
S11339103C01B8016E5F7F4F42E050E0CE0101965A
S11339200E94C941B8016B5F7F4F44E050E0CE0173
S113393003960E94C9411F82CE0101960E9435411F
S11339409B01AC01A2E3B0E00E94F23E23E030E030
S113395040E050E00E94B33E49015A01F701EC5B9C
S1133960FF4FD301C201820F931FA41FB51F808391
S11339709183A283B383C301B20120EA36E841E014
S113398050E00E94B33ECA01B9010E941F102B01EE
S11339903C01C501B4010E941F102CE933E549EC38
S11339A056E30E94D3109B01AC01C301B2010E94F3
S11339B01C0F2B013C01F70164AF75AF86AF97AFC5
S11339C020E030E048EC52E40E94840F0E94EC0FA7
S11339D04B015C01FCE4EF0EF11C84E6889DB00110
S11339E0899D700D1124072E000C880B990B0E94E1
S11339F01F109B01AC01C301B2010E941B0F20E008
S1133A0030E040E752E40E94840F2B013C01B401F2
S1133A10990C880B990B0E941F109B01AC01C301E8
S1133A20B2010E941C0FF701608371838283938328
S1133A302A960FB6F894DEBF0FBECDBFDF91CF91AB
S1133A401F910F91FF90EF90BF90AF909F908F9038
S1133A507F906F905F904F900895FB0120812335F4
S1133A60F9F4FC01EC58FF4F2083B8974081518151
S1133A706281738170584083518362837383389762
S1133A804081518162817381709560955095419513
S1133A905F4F6F4F7F4F408351836283738306C0B0
S1133AA02E3431F4FC01EC58FF4F208381E008955B
S1133AB02C3229F4FC01EC58FF4F1082F7CF80E040
S1133AC008954F925F926F927F928F929F92AF92DE
S1133AD0BF92EF92FF920F931F93CF93DF93CDB7D3
S1133AE0DEB72A970FB6F894DEBF0FBECDBFFB0139
S1133AF020812C3209F4A8C08B017C0143E050E002
S1133B00CE0101960E94C9411C82CE0101960E94F9
S1133B1035419B01AC0160E876E988E990E00E94B8
S1133B20633E2B013C01B8016D5F7F4F42E050E0E2
S1133B30CE0101960E94C941B8016A5F7F4F44E0FB
S1133B4050E0CE0103960E94C9411F82CE01019626
S1133B500E9435419B01AC01A2E3B0E00E94F23E19
S1133B6023E030E040E050E00E94B33E49015A01B6
S1133B70F701E85BFF4FD301C201820F931FA41F1B
S1133B80B51F80839183A283B383C301B20120EA6A
S1133B9036E841E050E00E94B33ECA01B9010E94F8
S1133BA01F102B013C01C501B4010E941F102CE918
S1133BB033E549EC56E30E94D3109B01AC01C301E9
S1133BC0B2010E941C0F2B013C01F701E05CFF4F86
S1133BD0608371838283938320E030E048EC52E475
S1133BE00E94840F0E94EC0F4B015C01F0E5EF0E84
S1133BF0F11C84E6889DB001899D700D1124072E67
S1133C00000C880B990B0E941F109B01AC01C3018F
S1133C10B2010E941B0F20E030E040E752E40E9412
S1133C20840F2B013C01B401990C880B990B0E9461
S1133C301F109B01AC01C301B2010E941C0FF701CC
S1133C4060837183828393832A960FB6F894DEBFD0
S1133C500FBECDBFDF91CF911F910F91FF90EF90D9
S1133C60BF90AF909F908F907F906F905F904F9098
S1133C700895FB0120812C3239F12735F9F4FC0138
S1133C80EB58FF4F2083B597408151816281738146
S1133C907058408351836283738338974081518184
S1133CA06281738170956095509541955F4F6F4F18
S1133CB07F4F408351836283738306C0253431F47C
S1133CC0FC01EB58FF4F208381E0089580E00895C4
S1133CD0FB012081213499F4FC01E958FF4F21E0D4
S1133CE02083BA96DC01AF54BF4F8D919D910D9006
S1133CF0BC91A02D80839183A283B38306C0263513
S1133D0031F4FC01E958FF4F108281E0089580E00E
S1133D1008952F923F924F925F927F928F929F923B
S1133D20AF92BF92CF92DF92EF92FF920F931F93C5
S1133D30CF93DF93EC0186D81B012C01FE01EB54D9
S1133D40FF4F8081882311F0712C64C18E010A54C5
S1133D501F4FD8018D919C910097A9F0DC01ED9142
S1133D60FC910084F185E02D1995892B69F3F80104
S1133D7080819181DC01ED91FC910284F385E02D39
S1133D801995782E01C0712C8E0108541F4FF8012B
S1133D90808191810097A9F0DC01ED91FC91008470
S1133DA0F185E02D1995892B09F434C1F80180813E
S1133DB09181DC01ED91FC910284F385E02D19954C
S1133DC0782E5E01BAEBAB0EB11CD501ED91FC91DE
S1133DD0309709F462C07E01B9EBEB1ABEEFFB0A1F
S1133DE0D7019C918E010A5B1E4FD8018C918917D3
S1133DF064F0FE01E90FF11D97FDFA95EA5DFE4FAF
S1133E0070809F5FF701908348C021E030E040E27A
S1133E1050E060E170E0CF010E944728803209F051
S1133E20F9C0D8011C9280E2C82ED12CFE01E85BB7
S1133E30FE4F4F01D5018D919C91DC01ED91FC91D8
S1133E400284F385E02D19958A3021F4F4019081E0
S1133E509D3079F4D4018C93F8019081FE01E90F2F
S1133E60F11D97FDFA95EA5DFE4F80839F5FD801AF
S1133E709C93B1E0CB1AD108E9F6F8018081815016
S1133E808083811107C0CA5DDE4F88818A3011F4B6
S1133E908FEF8083D7011C92BDC0FE01E454FF4F15
S1133EA080819181892B09F43EC05E01BFEBAB0E8A
S1133EB0B11C8E0102541F4F99249A946E01E8EBB1
S1133EC0CE1AEEEFDE0AD5018D919C91C2DBF8018A
S1133ED0808187FD02C060E044D99EBC00000DB41F
S1133EE007FEFDCF7EB4D8018C9187FD02C061E04E
S1133EF038D9C9DBBAE07B1204C0F60180818D3069
S1133F0011F7E72CF12CC7010E945D41892B29F0A0
S1133F10FE01E85BFE4F708206C0C7010E94634148
S1133F20892B89F2F5CF8E01065C1D4FD8018D9146
S1133F309C91FE01E75CFD4F208131E0320F30831C
S1133F40820F911DDC017C928081883710F087E715
S1133F508083BAE07B124AC02081D8018D919C9164
S1133F60820F911DDC011C92D8016D917C911197F7
S1133F70AE01475B5E4F9E012F533E4FCE01845CE2
S1133F809D4F6417750731F42D933C93DC016D93B9
S1133F907C9306C0D8014D935C93DC012D933C9334
S1133FA01082FE01E25CFD4F81E080830E942217B3
S1133FB0FE01E355FF4F6083718382839383CF5463
S1133FC0DF4F8091A0109091A110A091A210B09108
S1133FD0A31088839983AA83BB831092A0101092A4
S1133FE0A1101092A2101092A31014C08091A010DE
S1133FF09091A110A091A210B091A310892B8A2BAB
S11340008B2B41F42092A0103092A1104092A21068
S11340105092A310872DDF91CF911F910F91FF90A4
S1134020EF90DF90CF90BF90AF909F908F907F9054
S11340305F904F903F902F900895FC01DC01AA54AB
S1134040BF4F11961C921E92129611961C921E92AC
S1134050129611961C921E92129611961C921E9202
S1134060AE57BE4F1C92A958B1401C92AC57BE4FDC
S11340701C921196875B9E4F11969C938E93129679
S113408088589F4F11969C938E93A25CB1401C92CA
S113409011971C9211971C9213AE12AE11AE16AA70
S11340A015AA14AA12971C9211971C9211971C928C
S11340B013961C9210AE17AA17971D921D921D926B
S11340C01C92139714971D921D921D921C92139784
S11340D014971D921D921D921C92139714971D9272
S11340E01D921D921C92139714971D921D921D925E
S11340F01C92139714971D921D921D921C92139754
S113410014971D921D921D921C92139714971D9241
S11341101D921D921C92139754971D921D921D92ED
S11341201C92139714AE15AE16AE17AE0895EF9207
S1134130FF920F931F93CF93DF93EC017B011B82BC
S11341401A828FE596E0998388831D821C821E82E1
S11341501F82188684E1FE013996DF01982F1D9293
S11341609A95E9F71D8E1E8E1F8E7796DF011D929C
S11341708A95E9F7DE01A957BF4F8AE0EFE1F2E043
S113418001900D928A95E1F7DE01AF56BF4F8AE0A8
S1134190E9E2F2E001900D928A95E1F7FE01E5561D
S11341A0FF4F8AED95E091838083329680E094E915
S11341B0A5E3B7E780839183A283B3833496808396
S11341C09183A283B383349680839183A283B38340
S11341D0349680839183A283B383349680839183BE
S11341E0A283B383349680839183A283B3833D9661
S11341F01FEF108300E021E040E452E46FE070E040
S1134200CE0181549F4F00DAFE01EA5BFE4F10831A
S11342103196108231961082EF50FF4F1082CE01FA
S11342200CDFC854DF4FF982E882DF91CF911F91F0
S11342300F91FF90EF900895825C9D4FFC01808167
S11342400895FC01E25CFD4F1082329780819181D8
S11342500895603358F06A3310F480ED05C08FEB95
S1134260860F863018F489EC860F089580E008954F
S1134270CF92DF92EF92FF920F931F93CF93DF932E
S1134280EC011D821C82FB0180818432C1F481E037
S113429090E09D838C83CB017C010196F701208102
S11342A02111FACFF70180818A3259F06E157F050A
S11342B030F4F1E0EF1AF108F5CF892BE1F080E05A
S11342C05EC08B01F7016181CE01C3DFF0E18F9FF6
S11342D060011124F7016281CE01BBDF9601280F32
S11342E0311DC9010F5F1F4FF801EE15FF0528F7B7
S11342F021918227FACF83E090E09D838C83AE01E5
S113430049575F4FB801CE0149DA7C010097B9F2F1
S1134310BC01CE0106960E94B4418DE090E09D83DD
S11343208C83F70101900020E9F73197EE19FF091A
S11343300E0F1F1FAE014F565F4FB801CE012EDA8C
S1134340009751F0BC01CE0109960E94B44189E462
S113435090E09D838C8312C0AE0145565F4FB80137
S1134360CE011CDA009751F0BC01CE0109960E94DF
S1134370B44181E290E09D838C83A1CF81E0DF9101
S1134380CF911F910F91FF90EF90DF90CF90089500
S11343904F925F926F927F928F929F92AF92BF9251
S11343A0DF92EF92FF920F931F93CF93DF93EC0171
S11343B08B015EDFD82E811102C0D12C35C26CE294
S11343C070E0C8010E94A0418C010F5F1F4F7E0165
S11343D089E0E80EF11C6AEE75E0C7010E94AB416A
S11343E0892B09F0ADC0B801CE0112DA6CE270E09D
S11343F0C8010E94A0418C010F5F1F4FB801CE017C
S113440056DA6CE270E0C8010E94A0418C010F5F93
S11344101F4FB801CE0121DB882379F26CE270E0F2
S1134420C8010E94A0418C010F5F1F4FB801CE014B
S113443048DB6CE270E0C8010E94A0418C010F5F70
S11344401F4FB801CE0115DC882309F4B6CF6CE206
S113445070E0C8010E94A0418C010F5F1F4FFC0156
S113446081818C32C1F0C8010E941841FE01E858D4
S1134470FF4F80833197882369F081E08083FA9627
S113448080819181A281B381709780839183A2837B
S1134490B38301C010826CE270E0C8010E94A041A5
S11344A08C010F5F1F4FFC0181818C3239F0C801F0
S11344B00E941841FE01E658FF4F80836CE270E0D1
S11344C0C8010E94A0418C010F5F1F4FFC01818134
S11344D08C3251F0C8010E941541FE01E859FF4F8A
S11344E060837183828393836CE270E0C8010E94CD
S11344F0A0418C010F5F1F4FFC0181818C3251F070
S1134500C8010E941541FE01E85AFF4F6083718380
S1134510828393836CE270E0C8010E94A0416CE244
S113452070E001960E94A041FC0121812C3209F423
S113453067C101960E941541FE01EC5AFF4F5CC110
S113454066EF75E0C7010E94AB41892B09F0A5C055
S1134550B801CE015DD96CE270E0C8010E94A041AF
S11345608C010F5F1F4FB801CE01B2DB882309F421
S113457024CF6CE270E0C8010E94A0418C010F5F5F
S11345801F4FB801CE0193D96CE270E0C8010E94BC
S1134590A0418C010F5F1F4FB801CE015EDA882362
S11345A009F40BCF6CE270E0C8010E94A0418C01B9
S11345B00F5F1F4FB801CE0184DA6CE270E0C801CE
S11345C00E94A0418C010F5F1F4FB801CE0151DB47
S11345D0882309F4F2CE6CE270E0C8010E94A04185
S11345E08C010F5F1F4FFC0181818C3251F0C80197
S11345F00E941541FE01E45AFF4F60837183828358
S113460093836CE270E0C8010E94A0418C010F5FAB
S11346101F4FFC0181818C3251F0C8010E94154169
S1134620FE01E05AFF4F60837183828393836CE2BF
S113463070E0C8010E94A041FC0121812C3209F4E0
S1134640DFC001960E9415410E94F10F2B013C012D
S113465020E137E240E050E00E94913E2BAF24E697
S1134660822E912CA12CB12CA50194010E94913E83
S11346702AAFC301B201A50194010E94913E69AF22
S1134680FE01EF54FF4F80819181A281B38138975D
S113469080839183A283B383B3C06EEE75E0C701B8
S11346A00E94AB41892B09F042C0B801CE01FFD86A
S11346B06CE270E0C8010E94A0418C010F5F1F4FA3
S11346C0B801CE01CAD9882309F477CE6CE270E030
S11346D0C8010E94A0418C010F5F1F4FB801CE0199
S11346E0F0D96CE270E0C8010E94A0418C010F5F18
S11346F01F4FB801CE01BDDA882309F45ECE6CE207
S113470070E0C8010E94A0418C010F5F1F4FB801E7
S1134710CE017ED86CE270E0C8010E94A041BC01C9
S11347206F5F7F4FCE01D4DA81116AC046CE62EF4B
S113473075E0C7010E94AB41892B09F03ECE6CE2C3
S113474070E0C8010E94A0418C010F5F1F4FFC0163
S113475081818C3239F0C8010E941841FE01E7586A
S1134760FF4F80838CE0A82EB12C6CE270E0C8016E
S11347700E94A0418C010F5F1F4FF1E0AF1AB108F6
S1134780A1F76CE270E0C8010E94A0418C010F5FA8
S11347901F4FFC0181818C3251F0C8010E941541E8
S11347A0FE01E059FF4F60837183828393836CE23F
S11347B070E0C8010E94A0418C010F5F1F4FFC01F3
S11347C081818C3251F0C8010E941541FE01E859E3
S11347D0FF4F60837183828393836CE270E0C8012E
S11347E00E94A041FC0121812C3251F001960E94CB
S11347F01541FE01E459FF4F6083718382839383E3
S1134800BE016A5F7F4FCE014D960E94B441B7014D
S1134810CE0180960E94B4410E942217C356DF4FF6
S1134820688379838A839B838D2DDF91CF911F9138
S11348300F91FF90EF90DF90BF90AF909F908F907B
S11348407F906F905F904F900895CF93DF931F9266
S1134850CDB7DEB7FC0119826370668BDC01AA5BFD
S1134860BF4F8C91982F9B7FAF014C5B5F4F913072
S113487029F4623008F493E0DA019C939F012D5BE4
S11348803F4F6230D9F0633009F43FC0613071F0BA
S1134890823011F0843029F490EC9983813019F43A
S11348A015C098EC10C08430B1F01CC0823011F0F7
S11348B0843011F490EA2EC098EA35C0823091F029
S11348C0843049F098E09983813061F480E890E085
S11348D0938782870DC080EA90E09387828780E582
S11348E090E006C080EA90E09387828780E890E0B9
S11348F091878087D9018C9190E092AF81AFDA01E2
S11349008C9190E094AF83AF2DC0823011F084304D
S113491049F490E69983813051F480E890E09187DE
S1134920808714C098E69983813051F4F6CF84309F
S113493039F480EA90E09187808780E590E006C0B2
S113494080EA90E09187808780E890E0938782876F
S1134950D9018C9190E094AF83AFDA018C9190E00F
S113496092AF81AF21E0AE014F5F5F4F66E3CF01AD
S11349700E94F3370F90DF91CF910895EF920F9338
S1134980CF93DF93EC01E22E042F262F40EA50E070
S113499060E870E0B7D08BE696E099838883DF9176
S11349A0CF910F91EF90089541155105610571055F
S11349B021F440E058E468EE71E0FC01FF96408386
S11349C051836283738321E2FC0125AF20E226AF89
S11349D0EB5BFF4F20810C941E368F929F92AF9217
S11349E0BF92CF92DF92EF92FF920F931F93CF93D8
S11349F0DF93EC0189AD9AAD4B01880E991E8BAD06
S1134A009CAD480F591FC9010197880D991DA0E05D
S1134A10B0E0A12CB12C540199248824882A992A25
S1134A20AA2ABB2A015011096801C40ED51E8601A9
S1134A3020E030E06A01E12CF12C7601DD24CC2465
S1134A40C02AD12AE22AF32A6AE2CE010E948D37D3
S1134A50B501A401CE010E94C8386BE2CE010E94C8
S1134A608D37B701A601CE010E94C8386CE2CE0191
S1134A70DF91CF911F910F91FF90EF90DF90CF9036
S1134A80BF90AF909F908F900C948D37CF93DF930E
S1134A901F92CDB7DEB7FC0119826370668B8D5B04
S1134AA09F4FAF014C5B5F4F623049F0633091F030
S1134AB0613019F020EC298302C020EA0CC0DC012B
S1134AC08C9190E092AF81AFDA018C9190E094AF39
S1134AD083AF0CC020E62983DC018C9190E094AF75
S1134AE083AFDA018C9190E092AF81AF21E0AE0107
S1134AF04F5F5F4F66E3CF010E94F3370F90DF9162
S1134B00CF910895EF920F93CF93DF93EC010E941E
S1134B1011368BE996E099838883FE01ED5BFF4FA4
S1134B20108231961082CB5BDF4F1882DF91CF91D8
S1134B300F91EF900895AF92BF92CF92DF92EF92D0
S1134B40FF920F931F93CF93DF93EC01E62EA72ED2
S1134B50F42EB52E69018FEF9FEF9D838C839F8385
S1134B608E8361E08E2D0E94751860E08F2D0E9467
S1134B707518E882A982FA82BB82DD82CC821F8307
S1134B800E83DF91CF911F910F91FF90EF90DF90F3
S1134B90CF90BF90AF900895CF92DF92EF92FF92A3
S1134BA0CF93DF93EC0160E088810E94B11885E027
S1134BB090E00E948D1761E088810E94B1188AE01C
S1134BC090E00E948D1760E088810E94B1188A816C
S1134BD00E94DF18892BD9F30E942E176B017C01E8
S1134BE08A810E94DF180197D9F30E942E17CB0106
S1134BF08C199D09DF91CF91FF90EF90DF90CF90BA
S1134C000895CF93DF93EC01C7DF97FD0196BC01B4
S1134C1075956795072E000C880B990B0E941F1041
S1134C2027EE3BEF49EA5EE30E94D3100E94EC0FAB
S1134C309B014C815D814F3FAFEF5A0721F4EE8118
S1134C40FF81319659F0421753072CF44E815F814E
S1134C50241735071CF08FEF9FEF01C0CB01DF91C4
S1134C60CF9108951F920F920FB60F9211240BB695
S1134C700F922F933F934F935F936F937F938F93F1
S1134C809F93AF93BF93EF93FF93E091A611F0919D
S1134C90A711309709F44FC0968DA685B7858585F1
S1134CA091FF04C09C91892329F445C09C918923D8
S1134CB009F041C0A389B4899C9185898095892391
S1134CC08C93868997890197F1F7608D718DA685FC
S1134CD0B785558538E020E0CB010197F1F7822FA5
S1134CE090E095958795282F4C91452309F02068ED
S1134CF0315091F7868D81FD20958091A51090E02B
S1134D0001963091A410381749F0A091A510B0E095
S1134D10AA55BF4E2C938093A51003C0868D816045
S1134D20868F828D938D0197F1F7A389B4899C9125
S1134D308589892B8C93FF91EF91BF91AF919F91BE
S1134D408F917F916F915F914F913F912F910F9030
S1134D500BBE0F900FBE0F901F901895CF93CFB737
S1134D60F8948091AB11811127C0EBE3F2E08491B8
S1134D70E5EFF1E09491E82FF0E0EE0FFF1FE0582B
S1134D80FD4FA591B491EC91E92321F461E085E311
S1134D900E94B11861E085E30E9475188CB58061AA
S1134DA08CBD8CB580648CBD61E084E30E94751871
S1134DB061E083E30E9475188091AB118F5F80934B
S1134DC0AB11CFBFCF9108958091E11190E0209174
S1134DD0E211821B910908959091E2118091E111F1
S1134DE0981750F4E92FF0E0ED51FE4E208130E0A9
S1134DF09F5F9093E21102C02FEF3FEFC901089526
S1134E00E091E2118091E111E81730F4F0E0ED5106
S1134E10FE4E808190E008958FEF9FEF08950895EE
S1134E20CF93DF93EC01E091B911F091BA1130976F
S1134E30F1F09091E2118091E1119817C0F090E0A7
S1134E40292F30E02617370754F4DE01A20FB31FD1
S1134E504C91D901AD51BE4E4C939F5FF1CF10924E
S1134E60E2116093E111CB01DF91CF911994DF91AD
S1134E70CF910895E091BB11F091BC11309729F0C6
S1134E801092BF111092BE1119940895CF92DF921F
S1134E90EF92FF920F931F93CF93DF937C01CB018B
S1134EA08A012091BD11222389F0EB016B01C40E0C
S1134EB0D51ECC15DD0569F06991D701ED91FC9102
S1134EC00190F081E02DC7011995F3CF642F0E9462
S1134ED0F33CC801DF91CF911F910F91FF90EF90A8
S1134EE0DF90CF900895CF93DF931F92CDB7DEB7B5
S1134EF069832091BD112223D1F02091BE1120326B
S1134F0040F021E030E0FC013383228380E090E034
S1134F1015C08091BF11E82FF0E0E054FE4E998156
S1134F2090838F5F8093BF118093BE1105C061E0B1
S1134F30CE0101960E94F33C81E090E00F90DF9156
S1134F40CF910895FC011382128288EE93E0A0E0D1
S1134F50B0E084839583A683B7838BEC96E091833A
S1134F60808308951092E2111092E1111092BF1102
S1134F701092BE110E94373C8AE397E20E94203DC2
S1134F8080E197E20C941B3D81E08093BD11609316
S1134F90E0111092BF111092BE110895F5CF0F9336
S1134FA0062F21E04091BE1160EC71E18091E01187
S1134FB00E949D3C1092BF111092BE111092BD111F
S1134FC00F9108954F925F926F927F92AF92BF922A
S1134FD0CF92EF92FF920F931F93CF93DF935C01D5
S1134FE0F62ED42F28013901EE2011F1CDDFCE2D7C
S1134FF0C43008F0C3E0C150C0F028E0C29FC00133
S11350001124A301920104C056954795379527951D
S11350108A95D2F7CA01B901D501ED91FC910190AD
S1135020F081E02DC5011995E6CF60E0C501B7DF39
S11350304D2FD13208F040E22C2D63EE71E18F2D1B
S11350400E94553C1092E2118093E111DF91CF91BF
S11350501F910F91FF90EF90CF90BF90AF907F90F2
S11350606F905F904F900895CF92EF920F931F939C
S1135070C22EE12C00E010E09801A4DF1F910F91F3
S1135080EF90CF90089521E0EFCF21E0EDCFECCF6A
S113509061E085CF8DEA91E155CF885E9E4FDC01BA
S11350A08D919C91DC01ED91FC910084F185E02DC2
S11350B01994885E9E4FDC018D919C91DC01ED91E9
S11350C0FC910190F081E02D1994885E9E4FDC01E3
S11350D08D919C91DC01ED91FC910284F385E02D8E
S11350E01994885E9E4FDC018D919C91DC01ED91B9
S11350F0FC910484F585E02D1994885E9E4FDC01B3
S11351008D919C91DC01ED91FC910680F781E02D5D
S11351101994FC011382128288EE93E0A0E0B0E0BF
S113512084839583A683B78384E397E09183808304
S11351306487DF01A35FBE4F87E294E011969C93DE
S11351408E93129611961C921E92129611961C9290
S11351501E92179611961C921E9215971C921196E8
S113516082E294E08D939C93EA5EFE4F8FE194E09B
S11351709183808308950F931F93CF93DF93EC0162
S113518080E090E08C010F5F1F4F8897D8F4E8818E
S1135190F9810084F185E02DCE011995892B51F018
S11351A0E881F9810284F385E02DCE01199500E0B0
S11351B010E0EDCF61E070E080E090E00E945317D2
S11351C0C801E0CFDF91CF911F910F910895AF9265
S11351D0BF92CF92DF92EF92FF920F931F93CF93E0
S11351E0DF93EC018B016C018EE0C80ED11CE12C25
S11351F0F12C5E01A8EEAA1AAEEFBA0A0E151F052D
S113520019F1BEEFEB16F104E9F0F501808191810B
S1135210DC01ED91FC910084F185E02D1995892B39
S113522069F3F50180819181DC01ED91FC910284A7
S1135230F385E02D1995F60181936F01FFEFEF1AC5
S1135240FF0ADCCF0EEF10E0C00FD11F1E86C8018D
S1135250DF91CF911F910F91FF90EF90DF90CF904E
S1135260BF90AF900895BF92CF92DF92EF92FF92DA
S11352700F931F93CF93DF937C01B42E8B01C0E077
S1135280D0E06C0188EEC81A8EEFD80A011511051A
S113529089F1CE3FD10570F5D6018D919C91DC0149
S11352A0ED91FC910084F185E02D1995892BC1F0D5
S11352B0F60180819181DC01ED91FC910284F385FA
S11352C0E02D19958D3041F38A3021F4209721F394
S11352D0BB2081F0F701EC0FFD1F86872196DCCF00
S11352E00150110939F061E070E080E090E00E9423
S11352F05317CCCFF701EC0FFD1F16868C2FDF91CF
S1135300CF911F910F91FF90EF90DF90CF90BF90BE
S11353100895EF92FF920F931F93CF93DF93EC01C5
S11353208B017A0128DF6FEA72E083E29EE00E943B
S11353304115B80183E29EE00E949E15FE01E85EDD
S1135340FE4FB801808191810E949E1540E0B70113
S1135350CE0189DF182F68EA72E083E29EE00E94A2
S11353604115BE01625F7F4F83E29EE00E949E155D
S1135370812FDF91CF911F910F91FF90EF900895AE
S1135380EF92FF920F931F93CF93DF93EC018B0166
S11353907A01F1DE61EA72E083E29EE00E94411547
S11353A0B80183E29EE00E947E15FE01E85EFE4F96
S11353B0B801808191810E947E1540E0B701CE0141
S11353C052DF182F6AE972E083E29EE00E944115E1
S11353D0BE01625F7F4F83E29EE00E949E15812F93
S11353E0DF91CF911F910F91FF90EF9008950F934C
S11353F01F93CF93DF93EC018A01A901C1DF8823B6
S113540041F0B801CE010E960E946B4121E0892B38
S113541009F020E0822FDF91CF911F910F91089521
S1135420BF92CF92DF92EF92FF920F931F93CF938D
S1135430DF93EC016C0188EEC81A8EEFD80AD6010E
S11354406D937C9361E08C850E94751861E08C8576
S11354500E94B1186AE070E080E090E00E94531767
S113546060E08C850E94B11864E670E080E090E012
S11354700E94531761E08C850E94B1186EEF73E0AF
S113548083E29EE00E947E158EE0E82EF12C8E01D0
S11354900A5E1E4FF60180819181DC01ED91FC9141
S11354A00084F185E02D1995892B59F0F60180814E
S11354B09181DC01ED91FC910284F385E02D199535
S11354C0E9CFF8014081518124EF31E06BEF73E0C3
S11354D0CE018DDF81115FC0D6018D919C91DC01DD
S11354E0ED91FC910084F185E02D1995892B59F0FB
S11354F0F60180819181DC01ED91FC910284F385B8
S1135500E02D1995E9CF24EF31E048EF53E065EF42
S113551073E0CE016CDF81113EC064EF71E080E086
S113552090E00E945317B1E0EB1AF10809F0B2CFF2
S113553063EC73E083E29EE00E947E15F8014081F3
S1135540518124EF31E060EC73E0CE0150DF64E67A
S113555070E080E090E00E945317D8014D915C9177
S113556024EF31E06DEB73E0CE0141DF64E670E0DF
S113557080E090E00E945317F8014081518124EFAC
S113558031E06AEB73E0CE0132DF64E670E080E084
S113559090E00E945317F8014081518124EF31E0DB
S11355A065EB73E0CE0123DF64E670E080E090E019
S11355B00E945317D8014D915C9124EF31E060EBC8
S11355C073E0CE0114DFB82E882309F49DC0F801DE
S11355D04081518124EF31E066EA73E0CE0107DFB8
S11355E064E670E080E090E00E945317CE01C3DDD2
S11355F06FE973E083E29EE00E9441156BEE76E072
S113560083E29EE00E949E156BEE76E0D6018D91BA
S11356109C910E949E1541E064EF71E0CE0123DE6F
S113562068E973E083E29EE00E9441157E01BEE0DA
S1135630EB0EF11CB70183E29EE00E949E156DE81B
S113564073E0C7010E947D41892B11F083E023C0E0
S113565062E873E0C7010E947D41892B11F082E06A
S11356601AC067E773E0C7010E947D41892B11F0DE
S113567081E011C067E673E0C7010E947D41892B78
S113568011F084E008C067E573E0C7010E947D4122
S1135690892B11F085E08D878D85813061F560E57A
S11356A073E083E29EE00E9441156FEE76E083E2B0
S11356B09EE00E949E156FEE76E0F6018081918156
S11356C00E949E1541E064EF71E0CE01CCDD69E4F7
S11356D073E083E29EE00E944115B70183E29EE0FD
S11356E00E949E1561E473E0C7010E947D41892BED
S11356F011F086E08D87D8014D915C9124EF31E063
S11357006AE273E0CE0173DE8B2DDF91CF911F919E
S11357100F91FF90EF90DF90CF90BF9008950F937B
S11357201F93CF93DF93EC018A01A901F2DD882353
S113573041F0B801CE010E960E946B4121E0892B05
S113574009F020E0822FDF91CF911F910F910895EE
S1135750AF92BF92CF92DF92EF92FF920F931F937B
S1135760CF93DF93CDB7DEB76E970FB6F894DEBF55
S11357700FBECDBF8C015B016A01FC01EA5EFE4FE6
S11357804081518124EF31E066EC72E030DE882301
S113579009F483C08AE0E4E6F2E09E012F5F3F4F04
S11357A07901D90101900D928A95E1F7FE013B96AA
S11357B084E1DF011D928A95E9F743E150E0B501E8
S11357C0CE010A960E94C941F70101900020E9F731
S11357D0319782E2808324EF31E043EC52E0B70159
S11357E0C8019DDF882309F458C060EC72E083E2AD
S11357F09EE00E944115B60183E29EE00E949E1540
S1135800B6017801B8EEEB1ABEEFFB0AF70180810E
S113581091810E949E15D7018D919C910E947B15C8
S1135820F70180819181DC01ED91FC910190F0817F
S1135830E02D6AE1199568E077E083E29EE00E943A
S11358409E15F80185858450823050F440E068EC60
S113585070E0C80108DD40E068EC70E0C80103DDD9
S113586040E060E177E2C801FEDC7801FEE0EF0E83
S1135870F11C6BE077E0C7010E94D841892B69F0E5
S113588040E068EE73E0C801EEDC6EED76E0C7013F
S11358900E94AB4121E0892B09F020E0822F6E9613
S11358A00FB6F894DEBF0FBECDBFDF91CF911F912D
S11358B00F91FF90EF90DF90CF90BF90AF9008953D
S11358C0DF92EF92FF920F931F93CF93DF93CDB7A5
S11358D0DEB72C970FB6F894DEBF0FBECDBF8C0198
S11358E0D62E7C018AEEE81A8EEFF80AF701408181
S11358F0518124EF31E066EB72E0C80178DD882342
S113590011F18CE0E1E1F7E0DE01119601900D92D6
S11359108A95E1F78D2D64E60E94723E20E3280FFC
S11359202987892F6AE00E94723E805D8A87905D94
S11359309B87F7014081518120ED37E0BE016F5F05
S11359407F4FC801ECDE2C960FB6F894DEBF0FBE75
S1135950CDBFDF91CF911F910F91FF90EF90DF901A
S11359600895AF92BF92CF92DF92EF92FF920F937E
S1135970CF93DF935B016A01E22E0E960E947D4174
S1135980EC01892BC1F0C5010E9474418C0F9D1F4D
S1135990C0E0F12CC01741F0B7010E94A04100976C
S11359A051F00196CF5FF6CF0E941841F601918322
S11359B0808381E001C080E0DF91CF910F91FF905F
S11359C0EF90DF90CF90BF90AF9008955F926F9269
S11359D07F928F929F92AF92BF92CF92DF92EF927B
S11359E0FF920F931F93CF93DF931F921F92CDB714
S11359F0DEB73C01F62E6A01490158018C010A5EAA
S1135A001E4FF8014081518124EF31E060E273E0E0
S1135A10EEDC811102C0512C6DC0F801408151812E
S1135A2024EF31E066E173E0C301E1DC882399F3FC
S1135A301A8219826DE073E083E29EE00E944115B0
S1135A404AE050E06F2D83E29EE00E94181664E065
S1135A5073E08301085E1E4FF801808191810E94EA
S1135A6041154AE050E06F2DF801808191810E9438
S1135A70181640E068EE73E0C301F5DB7301FEE045
S1135A80EF0EF11CB70183E29EE00E949E150BE02D
S1135A902CE2AE014F5F5F4F6DEF72E0C30161DF37
S1135AA0582E811104C0F5011182108223C069812E
S1135AB07A81C3018CDBC3015EDBF7010190002016
S1135AC0E9F731978F010E191F098016910608F422
S1135AD08401A801B701C6010E94C941F601E00F83
S1135AE0F11F1082B70183E29EE00E949E15F5012A
S1135AF011830083852D0F900F90DF91CF911F911B
S1135B000F91FF90EF90DF90CF90BF90AF909F9058
S1135B108F907F906F905F9008958F929F92AF9235
S1135B20BF92CF92DF92EF920F931F93CF93DF93A5
S1135B304B01EA0169010E960E947D415C01892BAB
S1135B40A9F1C4010E9474418A0D9B1D10E0A02E8E
S1135B50B12C1E1103C070E060E022C0B5010E94A8
S1135B60A041009719F101961F5FF3CF262F30E073
S1135B70FC0101900020E9F73197E81BF90B2E177F
S1135B803F07B0F4FC01E20FF31F2081021781F0FC
S1135B90223229F0FE01E40FF51F20837F5F6F5F3F
S1135BA0472F50E04C155D050CF306C080E005C09E
S1135BB0FE01E40FF51F108281E0DF91CF911F9168
S1135BC00F91EF90DF90CF90BF90AF909F908F9008
S1135BD00895AF92BF92CF92DF92EF92FF920F930C
S1135BE01F93CF93DF93EC01F62E6A0159018C01C8
S1135BF00A5E1E4FF8014081518124EF31E063EFCA
S1135C0072E0F5DB811102C080E043C0F8014081FD
S1135C10518124EF31E069EE72E0CE01E8DB8823A4
S1135C2099F360EE72E083E29EE00E9441154AE03F
S1135C3050E06F2D83E29EE00E9418168E01085EEC
S1135C401E4F67ED72E0F801808191810E94411539
S1135C504AE050E06F2DF801808191810E9418166E
S1135C6040E068EE73E0CE01FEDABE01625F7F4F72
S1135C7083E29EE00E949E15EE24E3940CE29501DB
S1135C80A60160ED72E0CE0148DF182FCE0173DA71
S1135C90812FDF91CF911F910F91FF90EF90DF90B3
S1135CA0CF90BF90AF9008950E9411410895089538
S1135CB01F920F920FB60F9211240BB60F922F93CF
S1135CC03F934F935F936F937F938F939F93AF9380
S1135CD0BF93EF93FF93E0911302F091140219958F
S1135CE0FF91EF91BF91AF919F918F917F916F91B0
