:10000000A1C400000C9406300C9431300C945C3088
:100010000C9487300C94B2300C94DD300C94083181
:100020000C9433310C94E0270C94E0270C94E027D7
:10003000BAC40000B8C40000B6C40000B4C40000D4
:10004000B2C40000B0C40000AEC40000ACC40000E4
:10005000AAC40000A8C40000A6C400000C9486181E
:10006000A2C400000C947F130C94B5139CC4000030
:100070009AC4000098C4000096C4000094C4000014
:1000800092C4000090C400008EC400008CC4000024
:100090000C9414140C944A1486C400000C94E33E8F
:1000A00082C4000080C400007EC400007CC4000044
:1000B0007AC4000078C4000076C4000074C4000054
:1000C00072C4000070C400006EC400000C94A91437
:1000D0000C94DF1468C400000C943E150C94741545
:1000E00062C400005C0B1E0C630C3E0E3E0E950CB1
:1000F000F70C520D940DF80DE819EB19DA19DE1909
:10010000E419221AEF19F319F919FD19011A071A3E
:100110000B1A0F1A221A151A191A1D1A6364696E1E
:100120006F70737578585B004E414E494E49545973
:10013000494E46CDCCCC3D0AD7233C17B7D13877B2
:10014000CC2B329595E6241FB14F0A0000204100C8
:1001500000C84200401C4620BCBE4CCA1B0E5AAE12
:10016000C59D7441542B434D47443D3F0D0A0053F8
:10017000657474696E672075700000000A0B0209CF
:100180000C0D0E0807030401000000000000000031
:10019000000000000000000000000000000000005F
:1001A000000000000000121110000000000000001C
:1001B000000000000000000000000000000000003F
:1001C0000102102020080810204010204080020169
:1001D000020108040201010204081020408080404E
:1001E000201008040201800402018040201008044D
:1001F00002010804020101020408102040800102EB
:1002000004081020408005050505070508080808B2
:10021000020202020A0A080804040404010101019E
:100220000101010103030303030303030407070799
:100230000C0C0C0C0C0C0C0C02020202060606063E
:10024000060606060B0B0B0B0B0B0B0B000020001E
:100250002300260029002C002F003200000100009E
:1002600003010601090100002200250028002B00DF
:100270002E003100340002010000050108010B01CD
:1002800000002100240027002A002D003000330048
:1002900001010000040107010A01093C2D2D2D2058
:1002A00000092D2D2D3E2000093C2D2D2D2000096B
:1002B0002D2D2D3E200041542B434D47463D31000E
:1002C0003E20003E200041542B434D47463D310027
:1002D0002B434D47523A0041542B434D47523D006A
:1002E00041542B434D47523D0041542B4353444806
:1002F0003D310041542B434D47463D31002B434D8A
:1003000047523A0041542B434D47523D0041542B34
:10031000434D47523D0041542B435344483D310027
:1003200041542B434D47463D310041542B43504DE2
:10033000533D22534D222C22534D222C22534D2229
:100340000053494D3830304800093C2D2D2D2000F8
:10035000092D2D2D3E200053494D434F4D5F5349EC
:100360004D35333230450053494D434F4D5F53496E
:100370004D35333230410053494D38303020523101
:10038000330053494D383038205231330053494DF2
:100390003830382052313400093C2D2D2D200009F1
:1003A0002D2D2D3E200041542B435648553D300005
:1003B00041544530004154453000415400415400FF
:1003C00041540054696D656F75743A204E6F207208
:1003D0006573706F6E736520746F2041542E2E2EDE
:1003E000206C61737420646974636820617474653F
:1003F0006D70742E0041540041540041540041740A
:1004000074656D7074696E6720746F206F70656EAF
:1004100020636F6D6D207769746820415473004FBD
:100420004B00464F4E4100464F4E416E65740000F2
:10043000000000003E5B4F5B3E3E6B4F6B3E1C3E40
:100440007C3E1C183C7E3C181C577D571C1C5E7F54
:100450005E1C00183C1800FFE7C3E7FF00182418D3
:1004600000FFE7DBE7FF30483A060E262979292608
:10047000407F050507407F05253F5A3CE73C5A7FF2
:100480003E1C1C08081C1C3E7F14227F22145F5F48
:10049000005F5F06097F017F006689956A60606082
:1004A000606094A2FFA29408047E040810207E20BD
:1004B0001008082A1C08081C2A08081E1010101012
:1004C0000C1E0C1E0C30383E3830060E3E0E060058
:1004D0000000000000005F00000007000700147F1C
:1004E000147F14242A7F2A12231308646236495683
:1004F00020500008070300001C2241000041221C7C
:10050000002A1C7F1C2A08083E0808008070300062
:100510000808080808000060600020100804023E77
:100520005149453E00427F400072494949462141B8
:10053000494D331814127F1027454545393C4A4927
:100540004931412111090736494949364649492966
:100550001E00001400000040340000000814224176
:100560001414141414004122140802015909063EFF
:10057000415D594E7C1211127C7F494949363E41FA
:100580004141227F4141413E7F494949417F09091B
:1005900009013E414151737F0808087F00417F41B6
:1005A000002040413F017F081422417F40404040ED
:1005B0007F021C027F7F0408107F3E4141413E7F45
:1005C000090909063E4151215E7F0919294626493C
:1005D00049493203017F01033F4040403F1F204013
:1005E000201F3F4038403F6314081463030478041D
:1005F000036159494D43007F4141410204081020E5
:10060000004141417F04020102044040404040005B
:100610000307080020545478407F28444438384465
:10062000444428384444287F385454541800087EE1
:10063000090218A4A49C787F0804047800447D4033
:10064000002040403D007F1028440000417F4000D2
:100650007C047804787C080404783844444438FCEA
:100660001824241818242418FC7C0804040848546E
:1006700054542404043F44243C4040207C1C20402B
:10068000201C3C4030403C44281028444C90909022
:100690007C4464544C44000836410000007700005C
:1006A000004136080002010204023C2623263C1EBB
:1006B000A1A161123A4040207A385454555921552D
:1006C000557941225454784221555478402054554C
:1006D00079400C1E5272123955555559395454549B
:1006E0005939555454580000457C410002457D421B
:1006F0000001457C407D1211127DF0282528F07CF8
:10070000545545002054547C547C0A097F49324991
:100710004949323A4444443A324A4848303A4141DD
:10072000217A3A42402078009DA0A07D3D4242427D
:100730003D3D4040403D3C24FF2424487E494366E3
:100740002B2FFC2F2BFF0929F620C0887E090320C0
:10075000545479410000447D413048484A32384081
:1007600040227A007A0A0A727D0D19317D262929E4
:100770002F28262929292630484D402038080808E6
:100780000808080808382F10C8ACBA2F102834FA07
:1007900000007B000008142A142222142A14085591
:1007A00000550055AA55AA55AAFF55FF55FF000050
:1007B00000FF00101010FF00141414FF001010FFB1
:1007C00000FF1010F010F0141414FC001414F700C3
:1007D000FF0000FF00FF1414F404FC141417101F92
:1007E00010101F101F1414141F00101010F0000020
:1007F00000001F101010101F10101010F01000003B
:1008000000FF101010101010101010FF100000004A
:10081000FF140000FF00FF00001F10170000FC0481
:10082000F414141710171414F404F40000FF00F764
:1008300014141414141414F700F7141414171410C7
:10084000101F101F141414F4141010F010F00000F6
:100850001F101F0000001F14000000FC140000F017
:1008600010F01010FF10FF141414FF141010101FBC
:1008700000000000F010FFFFFFFFFFF0F0F0F0F0CD
:10088000FFFFFF0000000000FFFF0F0F0F0F0F38EA
:1008900044443844FC4A4A4A347E02020606027E38
:1008A000027E0263554941633844443C04407E2043
:1008B0001E2006027E020299A5E7A5991C2A492A54
:1008C0001C4C7201724C304A4D4D303048784830E3
:1008D000BC625A463D3E494949007E0101017E2ADB
:1008E0002A2A2A2A44445F444440514A444040440E
:1008F0004A51400000FF0103E080FF000008086B40
:100900006B083612362436060F090F060000181839
:100910000000001010003040FF0101001F01011E07
:1009200000191D1712003C3C3C3C00000000000078
:1009300042079D075109720F870FE7137C141115A9
:10094000A615F82911241FBECFEFD1E2DEBFCDBF1F
:1009500000E00CBF17E0A0E0B2E0E4E0F1E900E065
:100960000BBF02C007900D92AA3DB107D9F722E153
:10097000AAEDB7E001C01D92A33BB207E1F714E076
:10098000C2EAD4E000E006C021970109802FFE01F1
:100990000E948240C839D10780E00807A9F70E9469
:1009A000D4150C9480482CCBDC01ED91FC91019086
:1009B000F081E02D199468E670E089EE91E10E94E3
:1009C0007C296BE670E089EE91E1EEDF60E070E09B
:1009D00089EE91E1E9DF89EE91E10E94F62968E66E
:1009E00070E089EE91E10E947C296BE170E089EE74
:1009F00091E1DADF60E070E089EE91E1D5DF89EE28
:100A000091E10E94F62968E670E089EE91E10E948A
:100A10007C296CE170E089EE91E1C6DF68E170E06D
:100A200089EE91E1C1DF89EE91E10C94F629CF9333
:100A3000DF93CAEDD7E060910608709107088091B6
:100A40000808909109080E94FD1020E030E040E085
:100A50005AE30E94B111688379838A839B836091F2
:100A600002087091030880910408909105080E9483
:100A7000FD1020E030E040E05AE30E94B1116C83A9
:100A80007D838E839F836091FE077091FF07809125
:100A90000008909101080E94FD1020E030E040E045
:100AA0005AE30E94B111688779878A879B87DF9113
:100AB000CF910895CF93DF93CAEDD7E06091FA0705
:100AC0007091FB078091FC079091FD070E94FD103B
:100AD00020E030E044E253E40E9462106C877D879E
:100AE0008E879F876091F6077091F7078091F807CE
:100AF0009091F9070E94FD1020E030E044E253E4B9
:100B00000E946210688B798B8A8B9B8B6091F207B5
:100B10007091F3078091F4079091F5070E94FD1002
:100B200020E030E044E253E40E9462106C8B7D8B45
:100B30008E8B9F8BDF91CF910895CF9368E670E005
:100B400089EE91E10E947C296BE370E089EE91E1EE
:100B50002BDF89EE91E10E94F62946E050E068E63D
:100B600070E089EE91E10E94F32989EE91E10E9403
:100B700092280697D4F389EE91E10E949A28C82F13
:100B800089EE91E10E949A2820E030E03C2F822BF0
:100B9000932B092E000CAA0BBB0B80930608909395
:100BA0000708A0930808B093090889EE91E10E9414
:100BB0009A28C82F89EE91E10E949A2820E030E01F
:100BC0003C2F822B932B092E000CAA0BBB0B80937E
:100BD000020890930308A0930408B093050889EED7
:100BE00091E10E949A28C82F89EE91E10E949A28EB
:100BF00020E030E03C2F822B932B092E000CAA0B17
:100C0000BB0B8093FE079093FF07A0930008B0935F
:100C10000108CF910CCFCF9368E670E089EE91E1A7
:100C20000E947C2963E470E089EE91E1BDDE89EEEB
:100C300091E10E94F62946E050E068E670E089EE16
:100C400091E10E94F32989EE91E10E949228069792
:100C5000D4F389EE91E10E949A28C82F89EE91E1A0
:100C60000E949A2820E030E03C2F822B932B092E03
:100C7000000CAA0BBB0B8093FA079093FB07A09381
:100C8000FC07B093FD0789EE91E10E949A28C82FD6
:100C900089EE91E10E949A2820E030E03C2F822BDF
:100CA000932B092E000CAA0BBB0B8093F607909395
:100CB000F707A093F807B093F90789EE91E10E9436
:100CC0009A28C82F89EE91E10E949A2820E030E00E
:100CD0003C2F822B932B092E000CAA0BBB0B80936D
:100CE000F2079093F307A093F407B093F507CF9121
:100CF000E1CECF93DF93EC0120DF8DDF88E1EAEDD9
:100D0000F7E0DE0101900D928A95E1F7CE01DF91C7
:100D1000CF91089580E090E0089526E040EC52E104
:100D200060E070E080910602909107020E94191322
:100D3000609106027091070286E499E00E94BE2B42
:100D400064E073E080910602909107020C945116C2
:100D5000EF92FF920F931F93CF93DF93CDB7DEB740
:100D6000A2970FB6F894DEBF0FBECDBF86E499E020
:100D70000E94FB29892B09F44EC006E019E0780196
:100D800086E499E00E94132AF80181938F0161E0C3
:100D900070E080E090E00E940119F70180818A30C4
:100DA00051F086E499E00E94FB29892B21F0F9E0BB
:100DB00005341F0721F7F70111828AE098E09F931D
:100DC0008F9382E193E09F938F9386E099E09F93C6
:100DD0008F930E94C2430F900F900F900F900F902F
:100DE0000F900197C1F42FE130E0AE014F5F5F4FEC
:100DF00060910A0886E499E00E94972F8E010F5DAA
:100E00001F4F2AEF30E04CE058E060910A0886E47A
:100E100099E00E94942EA2960FB6F894DEBF0FBE02
:100E2000CDBFDF91CF911F910F91FF90EF9008956B
:100E3000CF93DF93CDB7DEB7A0970FB6F894DEBFA0
:100E40000FBECDBF41E253E0BE016F5F7F4F86E42E
:100E500099E00E94562D60910A0886E499E00E946C
:100E60000E2E811106C063E671E086E499E00E94CF
:100E70001F16A0960FB6F894DEBF0FBECDBFDF9150
:100E8000CF91089566E186E499E00E94372AE6E46E
:100E9000F9E08BE393E09183808384E08587089574
:100EA000CF93DF93EC0180E69AE00E9437201B8607
:100EB00080E69AE00E94CA22882371F080E69AE0D8
:100EC0000E94CF22BC0180E69AE00E947623811125
:100ED00030C081E08B872DC02091D70A2883809174
:100EE000D80A90E09A838983222319F160919C0AA1
:100EF00070919D0A80919E0A90919F0A0E94CA104B
:100F00007C836B838091D40A8D836091A00A709159
:100F1000A10A8091A20A9091A30A0E94CA107F831D
:100F20006E838091D50A88878091DA0A90E09A874B
:100F30008987CE01DF91CF91089569E97FE080E64E
:100F40009AE00C94452280910902882331F069E4EB
:100F500073E08FE59EE00E947C168091C60C8111A3
:100F600074C061E087E20E945F1A61E083E20E9440
:100F70005F1A68EE73E080E090E00E94011995D658
:100F800089EE9CE00E94AF279093BC0C8093BB0C31
:100F900080910902882381F069E573E08FE59EE086
:100FA0000E9451166091BB0C7091BC0C4AE050E05D
:100FB0008FE59EE00E9456178091C30C8093BF0C72
:100FC00081E08093C00C8CD62093E30C3093E40C2A
:100FD0004093E50C5093E60C6093E70C7093E80C9B
:100FE00081E02091E70C3091E80C232B09F480E09C
:100FF0008093C10C80910902882379F16091BB0C28
:101000007091BC0C4AE050E08FE59EE00E945017C2
:101010006091BF0C70E04AE050E08FE59EE00E94D6
:1010200050176091C00C70E04AE050E08FE59EE000
:101030000E9450176091E70C7091E80C4AE050E074
:101040008FE59EE00E94501708C069E673E08FE5C7
:101050009EE00E947C1680E0089580910C029091A1
:101060000D022091BB0C3091BC0C821B930B909312
:10107000BE0C8093BD0C9091C40C8091C50C911155
:1010800025C0853051F030F4882339F0823009F0E2
:1010900068C003C08A3098F064C080910902882338
:1010A00061F06CE773E08FE59EE00E947C1664EFD0
:1010B00071E080E090E00E94011981E00895809144
:1010C00009028823D1F365E973E0EDCF853051F053
:1010D00030F4882339F0823009F043C003C08A30ED
:1010E00078F13FC080910902882361F06EEA73E0D5
:1010F0008FE59EE00E947C1664EF71E080E090E056
:101100000E9401198091B60C9091B70C8B3A910511
:101110005CF08091BD0C9091BE0C8A3A910524F44C
:101120009093B70C8093B60C1092C40C87E0EBEB55
:10113000FCE0A4EBBCE001900D928A95E1F711C0B0
:1011400080910902882381F363EC73E08FE59EE0D0
:101150000E947C1664EF71E080E090E00E9401192B
:10116000E3CF089560E08FE10E94231A61E082E2FC
:101170000E94231A61E087E20E94231A61E089E25B
:101180000E94231A61E08DE20E94231A61E085E249
:101190000E94231A61E083E20E94231A60E087E242
:1011A0000E945F1A61E082E20E945F1A60E089E2B9
:1011B0000E945F1A60E08DE20E945F1A61E085E2A2
:1011C0000E945F1A60E083E20E945F1A26E040E816
:1011D00055E260E070E08FE59EE00E941913809177
:1011E0000902882331F06FE671E08FE59EE00E94EE
:1011F0005C1626E040E855E260E070E08CEF9EE08F
:101200000E94191326E040E855E260E070E089E9A9
:101210009FE00E94191326E040E855E260E070E08C
:1012200086E390E10E941913C6DB809109028823AE
:1012300031F069ED73E08FE59EE00C947C16089523
:101240000F931F93CF93DF9380910902882331F08E
:1012500060EE73E08FE59EE00E947C1661E087E21D
:101260000E945F1A64EF71E080E090E00E94011933
:10127000CAE0D0E089EE9CE00E94AF27080F191F5A
:101280002197C1F760E087E20E945F1AC8016AE017
:1012900070E00E943140CB01DF91CF911F910F91FF
:1012A00008950F931F9300EA1FE024E130E04DE121
:1012B00050E06BE170E089EE9CE00E9449271F91AD
:1012C0000F910895CF92DF92EF92FF920F931F93A9
:1012D000CF93DF93CDB7DEB7AA970FB6F894DEBFF2
:1012E0000FBECDBF8CEF9EE00E941412892B59F0E7
:1012F0002FDD80910902882331F061EF73E08FE5E3
:101300009EE00E947C1686E390E10E941412892BD5
:10131000D9F180910902882331F06FEF73E08FE5F6
:101320009EE00E947C16FF24F39486E390E10E94E5
:101330001412892B49F186E390E10E942E128C0150
:1013400080910902882329F0602F8FE59EE00E949A
:101350005216C80199278534910581F034F48434FC
:10136000910519F7F0920802E0CF8335910549F015
:1013700084359105D1F61092C00CD7CF1092080297
:10138000D4CFF092C00CD1CF89E99FE00E94141213
:10139000892B09F47AC080910902882331F063E136
:1013A00074E08FE59EE00E947C16CE01079678DD02
:1013B0008CE0FE013796A8EABCE001900D928A9578
:1013C000E1F780910902882309F45FC061E274E0CB
:1013D0008FE59EE00E9451166091A80C70E04AE0F3
:1013E00050E08FE59EE00E94501767E274E08FE5C1
:1013F0009EE00E9451166091A90C7091AA0C4AE0DF
:1014000050E08FE59EE00E9456178091A80C88233B
:10141000E1F162E374E08FE59EE00E945116609175
:10142000AB0C7091AC0C44E050E08FE59EE00E9464
:1014300050176091AD0C8FE59EE00E9452166DE34F
:1014400074E08FE59EE00E9451166091AE0C7091A1
:10145000AF0C44E050E08FE59EE00E945017609191
:10146000B00C8FE59EE00E948C1660E474E08FE57E
:101470009EE00E9451166091B10C7091B20C4AE04E
:1014800050E08FE59EE00E9456178091C50C88239E
:1014900009F4FCC08091C40C81110BC085E20E944C
:1014A0008D1A892B31F060E085E20E945F1A10925C
:1014B000C20C2CD56093A40C7093A50C8093A60C41
:1014C0009093A70C809109028823A1F06DE474E049
:1014D0008FE59EE00E9451164091A40C5091A50CFE
:1014E0006091A60C7091A70C22E030E08FE59EE0A1
:1014F0000E9431188091C60C882349F16AE574E096
:101500008FE59EE00E947C168FE59EE08DD7892BAB
:10151000D9F36FE57EE0CE0101960E946F18BE01FF
:101520006F5F7F4F8FE59EE00E946C16CE010196A3
:101530000E94771B62D66093A40C7093A50C8093D5
:10154000A60C9093A70CCE0101960E94B51A80912B
:10155000C60C811142C0CE014396CBDB88E1FE016F
:101560007396ABECBCE001900D928A95E1F7809107
:101570000902882309F45DC061E774E08FE59EE00D
:101580000E9451164091CB0C5091CC0C6091CD0C27
:101590007091CE0C22E030E08FE59EE00E94301882
:1015A0004091CF0C5091D00C6091D10C7091D20C25
:1015B00022E030E08FE59EE00E9430184091D30C8D
:1015C0005091D40C6091D50C7091D60C22E030E093
:1015D0008FE59EE00E9431182CC067E774E08FE52C
:1015E0009EE00E947C1663E974E08FE59EE00E9415
:1015F0007C168FE59EE018D7892BD9F38FE59EE006
:101600002DD78C014AE050E0BC018FE59EE00E949E
:101610005617B80160537109072E000C880B990BFF
:10162000ECD56093CB0C7093CC0C8093CD0C909345
:10163000CE0C2091CF0C3091D00C4091D10C509118
:10164000D20C6091CB0C7091CC0C8091CD0C909110
:10165000CE0CD0D42091D30C3091D40C4091D50C29
:101660005091D60CC7D42DEC3CEC4CE85FE375D61A
:1016700087FD0CC01092C50C80910902882331F0BF
:101680006CEA74E08FE59EE00E9451168091CA0CCE
:10169000882319F085E08093C50C55DC8091C50C3A
:1016A00090E08A30910508F0E9C2FC018827EE58E5
:1016B000FF4F8F4F0C94824080910902882361F084
:1016C0006EEB74E08FE59EE00E947C1664EF71E0A3
:1016D00080E090E00E94011980910B02811103C00B
:1016E00081E080930A021092CA0C85E20E948D1A52
:1016F000892B21F060E085E20E945F1A82E20E945D
:101700008D1A892B21F060E082E20E945F1A80919D
:10171000C60C811126C0CE014396EBDA88E1FE01AA
:101720007396ABECBCE001900D928A95E1F7809145
:101730000902882309F441C06DEC74E08FE59EE056
:101740000E9451164091D30C5091D40C6091D50C4D
:101750007091D60C22E030E08FE59EE00E943118B7
:101760002CC061ED74E08FE59EE00E947C1663E979
:1017700074E08FE59EE00E947C168FE59EE054D6D3
:10178000892BD9F38FE59EE069D68C014AE050E0C1
:10179000BC018FE59EE00E945617B80160537109A5
:1017A000072E000C880B990B28D56093CB0C7093F7
:1017B000CC0C8093CD0C9093CE0C2091CF0C30911B
:1017C000D00C4091D10C5091D20C6091CB0C709107
:1017D000CC0C8091CD0C9091CE0C0CD42091D30CDC
:1017E0003091D40C4091D50C5091D60C03D42DECF3
:1017F0003CEC4CE85FE362D418160CF441C281E083
:101800008093C50C0E94D0186093A00C7093A10C1B
:101810008093A20C9093A30C80910902882309F471
:101820002FC26DED74E08FE59EE00E947C1664EFA0
:1018300071E080E090E00E94011922C280910902CB
:10184000882361F067EF74E08FE59EE00E947C16CC
:1018500064EF71E080E090E00E9401190E94D018CE
:101860000091A00C1091A10C2091A20C3091A30C1E
:10187000DC01CB01801B910BA20BB30B893E934083
:10188000A105B10508F4FCC180910902882331F05B
:1018900064E075E08FE59EE00E947C1654DB8823AF
:1018A00021F061E085E20E945F1A41E050E063E5CB
:1018B00076E086E390E10E94E0151092080282E053
:1018C0008093C50CDDC180910902882361F06AE133
:1018D00075E08FE59EE00E947C1664EF71E080E089
:1018E00090E00E9401198091C60C882331F069E2D2
:1018F00075E08FE59EE00E947C1620E030E040EA33
:1019000052E46091A40C7091A50C8091A60C90916A
:10191000A70C23D587FD02C086E001C085E0809337
:10192000C50C81E08093C80C5BC1809109028823BB
:1019300061F065E375E08FE59EE00E947C1664EF40
:1019400071E080E090E00E94011982E20E948D1A0D
:10195000892B31F060E082E20E945F1A1092C20C83
:101960008091C90C81111092C90C8091C60C8823FA
:1019700031F06CE375E08FE59EE00E947C1680916B
:10198000C40C811110C08091C80C8823D9F010922A
:10199000C80C8091C60C811115C052DC90930D02C9
:1019A00080930C020FC085E20E948D1A892B21F4CE
:1019B00061E085E20E945F1A89E10E948D1A892BFD
:1019C00009F4ABD920E030E040EA52E46091A40C85
:1019D0007091A50C8091A60C9091A70CBED487FDA8
:1019E0004FC18091CA0C81114BC186E0F7C0809134
:1019F0000902882361F060E475E08FE59EE00E94B3
:101A00007C1664EF71E080E090E00E94011981E0B3
:101A10008093C20C8091C60C882331F067E475E096
:101A20008FE59EE00E947C168091C40C8823B9F05B
:101A300080910B02882399F0FBD910920B028091C0
:101A40000902882361F06BE475E08FE59EE00E9457
:101A50007C1664EF71E080E090E00E940119C09074
:101A6000A40CD090A50CE090A60CF090A70C20E060
:101A700030E04CEA52E4C701B6016FD4181614F4F2
:101A800087E0ACC020E030E040EA52E4C701B60194
:101A900015D387FFF5C082E08093C50C81E0809369
:101AA000C90CEEC080910902882361F067E575E0FA
:101AB0008FE59EE00E947C1664EF71E080E090E08C
:101AC0000E9401198091C60C882331F06EE575E003
:101AD0008FE59EE00E947C1680910902882361F0C8
:101AE00062E675E08FE59EE00E947C1664EF71E08F
:101AF00080E090E00E940119C090A40CD090A50C49
:101B0000E090A60CF090A70C20E030E046EB52E409
:101B1000C701B60122D4181614F488E05FC020E093
:101B200030E04CEA52E4B2CF80910902882361F0A0
:101B300060E775E08FE59EE00E947C1664EF71E03F
:101B400080E090E00E9401198091C60C882331F05A
:101B500067E775E08FE59EE00E947C168091C70CD8
:101B6000882351F18091C40C882331F180910902BE
:101B7000882361F06BE775E08FE59EE00E947C169C
:101B800064EF71E080E090E00E94011989E20E9418
:101B90008D1A892B71F461E089E20E945F1A68EE68
:101BA00073E080E090E00E94011960E089E20E9409
:101BB0005F1A3ED91092C70CC090A40CD090A50C0F
:101BC000E090A60CF090A70C20E030E042ED52E44B
:101BD000C701B601C2D3181634F489E08093C50C4E
:101BE0001092C90C4DC020E030E046EB52E44ECFDD
:101BF00080910902882361F065E875E08FE59EE039
:101C00000E947C1664EF71E080E090E00E94011970
:101C10008091C60C882331F06CE875E08FE59EE07A
:101C20000E947C1680910A028823D9F08091C40C0E
:101C30008823B9F041E050E060E975E086E390E187
:101C4000BFD780910902882361F062E975E08FE5D2
:101C50009EE00E947C1664EF71E080E090E00E94BC
:101C6000011920E030E042ED52E46091A40C709143
:101C7000A50C8091A60C9091A70C0ACF1092C50CD0
:101C800068EE73E080E090E00E940119AA960FB61A
:101C9000F894DEBF0FBECDBFDF91CF911F910F91A2
:101CA000FF90EF90DF90CF90089569E681EF9CE080
:101CB0000E94C91B811107C06CE975E08FE59EE0A9
:101CC0000E947C16FFCF61ED75E08FE59EE00E94DB
:101CD0007C1664E670E080E090E00C9401190895B1
:101CE0002F923F924F925F926F927F928F929F922C
:101CF000AF92BF92CF92DF92EF92FF920F931F931A
:101D0000CF93DF93CDB7DEB760970FB6F894DEBF01
:101D10000FBECDBF40E468E47DE081EF9CE00E940F
:101D2000461C6BEE75E08FE59EE0BBD728E4C22E23
:101D30002DE0D22E01E010E0F60141915191619128
:101D400071916F0122E030E08FE59EE00E94301833
:101D50006DE374E08FE59EE0A4D7C80187709927F2
:101D6000892B19F48FE59EE0A4D70F5F1F4F013434
:101D7000110511F76DEE75E08FE59EE0BDD78FE59B
:101D80009EE097D798E4C92E9DE0D92E00E010E0A0
:101D9000A12CB12CF60141905190619071906F018E
:101DA000B801012E000C880B990B27D29B01AC01C6
:101DB000C301B201D2D2181624F4C301B201EAD190
:101DC0008B0120E030E048EB51E4C301B201C5D201
:101DD00087FD03C0FFEFAF1ABF0A88E4C8168EE084
:101DE000D806C1F61A830983FE0131966F011E01E0
:101DF000F9E02F0E311C88E4882E8DE0982EF40136
:101E000041905190619071904F01F6016281738110
:101E1000072E000C880B990BF0D19B01AC01C3017C
:101E2000B2019BD21816B4F4F60160817181072EBD
:101E3000000C880B990BE1D19B01AC01C301B201ED
:101E40003DD187FF07C0C301B201A4D1F60173835E
:101E500062830AC0B701FF0C880B990BCED1A30196
:101E60009201C8D097D17B01F8E48F16FEE09F065F
:101E700009F0C5CF82E0C80ED11C2C143D0409F036
:101E8000BACF1C870B87BE86AD86C7016BE370E0B7
:101E90000E9431400250110981E090E06017710703
:101EA0000CF080E02B853C854D855E85BC0180E093
:101EB00090E060960FB6F894DEBF0FBECDBFDF9105
:101EC000CF911F910F91FF90EF90DF90CF90BF9037
:101ED000AF909F908F907F906F905F904F903F90CA
:101EE0002F90089520E341E365E381E09DE00C94A9
:101EF0006C26FC01862F60832183328343835483C5
:101F000060E00C94231A8DE49EE068C0FCCF20E0D2
:101F100030E040EA50E467E38DE49EE008D020E042
:101F200030E040EA50E467E388E49EE0E2CFCF92FD
:101F3000DF92EF92FF921F93CF93DF93EC01162F66
:101F400069017A0160E0812F0E94231ACA82DB8234
:101F5000EC82FD821883DF91CF911F91FF90EF906B
:101F6000DF90CF900895CF93DF93EC0188810E949A
:101F7000A8198983BC017727072E000C880B990BC1
:101F80003CD120E030E040E85AE3EBD12A813B81AC
:101F90004C815D81E6D16E837F838887998720E0BD
:101FA00030E040E05FE325D020E030E048EC52E450
:101FB000D8D16A877B878C879D8726E636E646EEF2
:101FC0005FE3CFD120E030E040E052E413D06E87F1
:101FD0007F87888B998BDF91CF910895CF93DF9383
:101FE000EC01C1DF6E857F8588899989DF91CF916A
:101FF00008955058BB27AA270ED075C166D130F07E
:102000006BD120F031F49F3F11F41EF45BC10EF44C
:10201000E095E7FB51C1E92F77D180F3BA1762074A
:1020200073078407950718F071F49EF58FC10EF4BD
:10203000E0950B2EBA2FA02D0B01B90190010C01D8
:10204000CA01A0011124FF27591B99F0593F50F4F0
:10205000503E68F11A16F040A22F232F342F442748
:10206000585FF3CF469537952795A795F040539540
:10207000C9F77EF41F16BA0B620B730B840BBAF010
:102080009150A1F0FF0FBB1F661F771F881FC2F77B
:102090000EC0BA0F621F731F841F48F4879577958F
:1020A0006795B795F7959E3F08F0B3CF9395880F46
:1020B00008F09927EE0F979587950895D9D008F4E1
:1020C00081E008950CD00FC107D140F0FED030F070
:1020D00021F45F3F19F0F0C0511139C1F3C014D1A0
:1020E00098F39923C9F35523B1F3951B550BBB27DF
:1020F000AA2762177307840738F09F5F5F4F220F8C
:10210000331F441FAA1FA9F333D00E2E3AF0E0E884
:1021100030D091505040E695001CCAF729D0FE2FD0
:1021200027D0660F771F881FBB1F26173707480762
:10213000AB07B0E809F0BB0B802DBF01FF27935818
:102140005F4F2AF09E3F510568F0B6C000C15F3F67
:10215000ECF3983EDCF3869577956795B795F79500
:102160009F5FC9F7880F911D9695879597F90895F8
:10217000E1E0660F771F881FBB1F62177307840794
:10218000BA0720F0621B730B840BBA0BEE1F88F7A3
:10219000E095089504D06894B111D9C00895BCD0D9
:1021A00088F09F5790F0B92F9927B751A0F0D1F040
:1021B000660F771F881F991F1AF0BA95C9F712C0CA
:1021C000B13081F0C3D0B1E00895C0C0672F782F3F
:1021D0008827B85F39F0B93FCCF386957795679536
:1021E000B395D9F73EF490958095709561957F4FA2
:1021F0008F4F9F4F0895E89409C097FB3EF4909548
:102200008095709561957F4F8F4F9F4F9923A9F0CF
:10221000F92F96E9BB279395F6958795779567955E
:10222000B795F111F8CFFAF4BB0F11F460FF1BC0A2
:102230006F5F7F4F8F4F9F4F16C0882311F096E935
:1022400011C0772321F09EE8872F762F05C06623E3
:1022500071F096E8862F70E060E02AF09A95660F9C
:10226000771F881FDAF7880F9695879597F9089555
:10227000990F0008550FAA0BE0E8FEEF1616170697
:10228000E807F907C0F012161306E407F50798F0FF
:10229000621B730B840B950B39F40A2661F0232B18
:1022A000242B252B21F408950A2609F4A140A69594
:1022B0008FEF811D811D089597F99F6780E870E079
:1022C00060E008959FEF80EC089500240A941616AC
:1022D000170618060906089500240A941216130614
:1022E000140605060895092E0394000C11F48823A2
:1022F00052F0BB0F40F4BF2B11F460FF04C06F5FBE
:102300007F4F8F4F9F4F089557FD9058440F551F93
:1023100059F05F3F71F04795880F97FB991F61F067
:102320009F3F79F087950895121613061406551FDE
:10233000F2CF4695F1DF08C0161617061806991F4A
:10234000F1CF86957105610508940895E894BB273F
:1023500066277727CB0197F908958ADF08F48FEF76
:1023600008950BD0C0CFB1DF28F0B6DF18F0952369
:1023700009F0A2CFA7CF1124EACFC6DFA0F3959F23
:10238000D1F3950F50E0551F629FF001729FBB275C
:10239000F00DB11D639FAA27F00DB11DAA1F649F08
:1023A0006627B00DA11D661F829F2227B00DA11DBB
:1023B000621F739FB00DA11D621F839FA00D611D41
:1023C000221F749F3327A00D611D231F849F600D62
:1023D000211D822F762F6A2F11249F5750408AF09B
:1023E000E1F088234AF0EE0FFF1FBB1F661F771F27
:1023F000881F91505040A9F79E3F510570F05CCF67
:10240000A6CF5F3FECF3983EDCF386957795679512
:10241000B795F795E7959F5FC1F7FE2B880F911D44
:102420009695879597F90895FC01918D228D892FB6
:1024300090E0805C9F4F821B91098F7399270895CC
:10244000FC01918D828D981731F0828DE80FF11D7E
:10245000858D90E008958FEF9FEF0895FC01918D99
:10246000828D981761F0828DDF01A80FB11D5D96F6
:102470008C91928D9F5F9F73928F90E008958FEF64
:102480009FEF0895FC01538D448D252F30E0842F5C
:1024900090E0821B930B541710F0CF96089501978C
:1024A00008958EED93E1892B39F080E090E0892B3F
:1024B00019F084D1811122C083E794E1892B39F08E
:1024C00080E090E0892B19F00ED281111AC088E0CB
:1024D00095E1892B39F080E090E0892B19F098D2B2
:1024E000811112C08DE995E1892B99F080E090E08F
:1024F000892B79F022D381110AC008950E9400002F
:10250000DBCF0E940000E3CF0E940000EBCF0C94D1
:1025100000000895FC01848DDF01A80FB11DA35AAE
:10252000BF4F2C91848D90E001968F739927848FF3
:10253000A689B7892C93A089B1898C918370806416
:102540008C93938D848D981306C00288F389E02DB7
:1025500080818F7D80830895EF92FF920F931F9368
:10256000CF93DF93EC0181E0888F9B8D8C8D981346
:1025700005C0E889F989808185FD25C0F62E0B8D7F
:1025800010E00F5F1F4F0F731127E02E8C8DE812A4
:102590000BC00FB607FCFACFE889F989808185FF67
:1025A000F5CFCE01B7DFF2CF8B8DFE01E80FF11D25
:1025B000E35AFF4FF0829FB7F8940B8FEA89FB89AB
:1025C000808180620AC09FB7F894EE89FF8960839A
:1025D000E889F98980818370806480839FBF81E06E
:1025E00090E0DF91CF911F910F91FF90EF900895B0
:1025F000CF93DF93EC01888D8823C1F0EA89FB89B2
:10260000808185FD05C0A889B9898C9186FD0EC0A1
:102610000FB607FCF5CF808185FFF2CFA889B98975
:102620008C9185FFEDCFCE0175DFE8CFDF91CF91A3
:102630000895CF92DF92EF92FF921F93CF93DF9393
:10264000EC016A017B01122FE889F98982E080831D
:102650004115514E61057105B1F060E079E08DE3FF
:1026600090E0A70196010E944440DA01C901019758
:10267000A109B109B695A795979587959C01211554
:1026800080E13807A8F0E889F989108260E874E8E9
:102690008EE190E0A70196010E944440DA01C90151
:1026A0000197A109B109B695A795979587959C01C2
:1026B000EC85FD853083EE85FF852083188EEC89BF
:1026C000FD891083EA89FB89808180618083EA89A2
:1026D000FB89808188608083EA89FB8980818068AA
:1026E0008083EA89FB8980818F7D8083DF91CF9110
:1026F0001F91FF90EF90DF90CF90089508951F9263
:102700000F920FB60F9211240BB60F922F938F9347
:102710009F93EF93FF93E0916F0EF091700E808185
:10272000E091750EF091760E82FD12C0908180913D
:10273000780E8F5F8F732091790E821751F0E091A0
:10274000780EF0E0E15AF14F958F8093780E01C03A
:102750008081FF91EF919F918F912F910F900BBEF0
:102760000F900FBE0F901F9018951F920F920FB6EB
:102770000F9211240BB60F922F933F934F935F93B9
:102780006F937F938F939F93AF93BF93EF93FF9339
:102790008FE59EE0BFDEFF91EF91BF91AF919F91DA
:1027A0008F917F916F915F914F913F912F910F90FA
:1027B0000BBE0F900FBE0F901F9018958FE59EE0F7
:1027C00033DE21E0892B09F420E0822F0895EFE524
:1027D000FEE01382128288EE93E0A0E0B0E08483F2
:1027E0009583A683B78383EF95E09183808385ECFF
:1027F00090E09587848784EC90E09787868780ECCB
:1028000090E0918B808B81EC90E0938B828B82ECBB
:1028100090E0958B848B86EC90E0978B868B118E65
:10282000128E138E148E08951F920F920FB60F9270
:1028300011240BB60F922F938F939F93EF93FF93D7
:10284000E0910C0FF0910D0F8081E091120FF0914B
:10285000130F82FD12C090818091150F8F5F8F73CF
:102860002091160F821751F0E091150FF0E0E4501F
:10287000F14F958F8093150F01C08081FF91EF91EB
:102880009F918F912F910F900BBE0F900FBE0F90C5
:102890001F9018951F920F920FB60F9211240BB62E
:1028A0000F922F933F934F935F936F937F938F93E9
:1028B0009F93AF93BF93EF93FF938CEF9EE02ADE3D
:1028C000FF91EF91BF91AF919F918F917F916F9108
:1028D0005F914F913F912F910F900BBE0F900FBEC4
:1028E0000F901F9018958CEF9EE09EDD21E0892BC4
:1028F00009F420E0822F0895ECEFFEE013821282AB
:1029000088EE93E0A0E0B0E084839583A683B7834C
:1029100083EF95E0918380838DEC90E095878487A9
:102920008CEC90E09787868788EC90E0918B808B89
:1029300089EC90E0938B828B8AEC90E0958B848B72
:102940008EEC90E0978B868B118E128E138E148EE8
:1029500008951F920F920FB60F9211240BB60F928B
:102960002F938F939F93EF93FF93E091A90FF09193
:10297000AA0F8081E091AF0FF091B00F82FD12C0DD
:1029800090818091B20F8F5F8F732091B30F821768
:1029900051F0E091B20FF0E0E756F04F958F809341
:1029A000B20F01C08081FF91EF919F918F912F9184
:1029B0000F900BBE0F900FBE0F901F9018951F9297
:1029C0000F920FB60F9211240BB60F922F933F93D5
:1029D0004F935F936F937F938F939F93AF93BF9327
:1029E000EF93FF9389E99FE095DDFF91EF91BF9110
:1029F000AF919F918F917F916F915F914F913F9197
:102A00002F910F900BBE0F900FBE0F901F90189537
:102A100089E99FE009DD21E0892B09F420E0822F7C
:102A20000895E9E9FFE01382128288EE93E0A0E0C6
:102A3000B0E084839583A683B78383EF95E0918389
:102A4000808385ED90E09587848784ED90E097877B
:102A5000868780ED90E0918B808B81ED90E0938B69
:102A6000828B82ED90E0958B848B86ED90E0978B46
:102A7000868B118E128E138E148E08951F920F92D4
:102A80000FB60F9211240BB60F922F938F939F9333
:102A9000EF93FF93E0914610F09147108081E09111
:102AA0004C10F0914D1082FD12C0908180914F101A
:102AB0008F5F8F7320915010821751F0E0914F106B
:102AC000F0E0EA5CFF4E958F80934F1001C080814B
:102AD000FF91EF919F918F912F910F900BBE0F90CF
:102AE0000FBE0F901F9018951F920F920FB60F9266
:102AF00011240BB60F922F933F934F935F936F93D5
:102B00007F938F939F93AF93BF93EF93FF9386E34E
:102B100090E100DDFF91EF91BF91AF919F918F9177
:102B20007F916F915F914F913F912F910F900BBECD
:102B30000F900FBE0F901F90189586E390E174DC04
:102B400021E0892B09F420E0822F0895E6E3F0E1EB
:102B50001382128288EE93E0A0E0B0E08483958334
:102B6000A683B78383EF95E09183808385E391E02B
:102B70009587848784E391E09787868780E391E057
:102B8000918B808B81E391E0938B828B82E391E048
:102B9000958B848B86E391E0978B868B118E128EBA
:102BA000138E148E0895089571D3FDDF0E94B2082C
:102BB000C1E5D2E10E9462092097E1F372DCFACF0D
:102BC000CF92DF92EF92FF920F931F93CF93DF93F9
:102BD0006C017A018B01C0E0D0E0CE15DF0581F0F9
:102BE000D8016D918D01D601ED91FC910190F0819C
:102BF000E02DC6011995892B11F02196EECF7E01AB
:102C0000C701DF91CF911F910F91FF90EF90DF905F
:102C1000CF9008956115710579F0FB0101900020B6
:102C2000E9F73197AF01461B570BDC01ED91FC91A1
:102C30000280F381E02D199480E090E00895EF92F6
:102C4000FF920F931F93CF93DF938C017B01C0E022
:102C5000D0E0F701EC0FFD1F6491662361F0D8010D
:102C6000ED91FC910190F081E02DC8011995892B1F
:102C700011F02196EECFCE01DF91CF911F910F91F0
:102C8000FF90EF900895DB0114964D915C9115979C
:102C90006D917C91DC01ED91FC910280F381E02D3E
:102CA0001994B8CFDC01ED91FC910190F081E02DF9
:102CB00019946FE073E0AECF0F931F93CF93DF9320
:102CC000EC01BDDF8C01CE01F4DF800F911FDF919D
:102CD000CF911F910F9108950F931F93CF93DF937F
:102CE000EC01D1DF8C01CE01E4DF800F911FDF9179
:102CF000CF911F910F9108950F931F93CF93DF935F
:102D0000EC0188DF8C01CE01D4DF800F911FDF91B1
:102D1000CF911F910F9108950F931F93CF93DF933E
:102D2000EC01C0DF8C01CE01C4DF800F911FDF9169
:102D3000CF911F910F9108958F929F92AF92BF9262
:102D4000EF92FF920F931F93CF93DF93CDB7DEB730
:102D5000A1970FB6F894DEBF0FBECDBF7C01FA017C
:102D6000CB0119A2223008F42AE08E010F5D1F4F1B
:102D7000822E912CA12CB12CBF01A50194010E949F
:102D80004440F901CA01015011096A3010F4605D34
:102D900001C0695CD8016C93232B242B252B61F790
:102DA000B801C70137DFA1960FB6F894DEBF0FBE9A
:102DB000CDBFDF91CF911F910F91FF90EF90BF900A
:102DC000AF909F908F9008952115310541F4DC015B
:102DD000ED91FC910190F081E02D642F1994ACCF1E
:102DE0009A01462F50E060E070E0EECF0F931F9302
:102DF000CF93DF93EC01F4DF8C01CE015ADF800F1B
:102E0000911FDF91CF911F910F9108959A01AB010E
:102E100060E070E0D9CFCF92DF92EF92FF920F93F4
:102E20001F93CF93DF932115310581F4DC01ED91E0
:102E3000FC910190F081E02D642FDF91CF911F91E3
:102E40000F91FF90EF90DF90CF9019942A303105C9
:102E5000F1F477FF1BC06A017B01EC016DE222DF18
:102E60008C0144275527BA014C195D096E097F0969
:102E70002AE0CE0161DF800F911FDF91CF911F917A
:102E80000F91FF90EF90DF90CF9008952AE0DF91AF
:102E9000CF911F910F91FF90EF90DF90CF904CCF8B
:102EA0009A01AB01770F660B770BB5CF0F931F938A
:102EB000CF93DF93EC01F4DF8C01CE01FADE800FBB
:102EC000911FDF91CF911F910F9108957F928F9263
:102ED0009F92AF92BF92CF92DF92EF92FF920F93A9
:102EE0001F93CF93DF938C016A017B01722E9A01AD
:102EF000AB01C701B6010E941140882319F061E0BF
:102F000076E025C046015701E894B7F82FEF3FEF70
:102F10004FE75FE7C501B4010E94114081110CC069
:102F20002FEF3FEF4FE75FE7C501B401C7D8181691
:102F30001CF465E076E00BC02FEF3FEF4FE75FE456
:102F4000C701B6010ADA18168CF469E076E0C80108
:102F5000DF91CF911F910F91FF90EF90DF90CF9075
:102F6000BF90AF909F908F907F9054CE2FEF3FEF08
:102F70004FE75FECC701B601A1D887FDE6CF20E09F
:102F800030E0A901C701B60199D887FF09C06DE2F9
:102F9000C80188DEEC01F7FAF094F7F8F09402C06B
:102FA000C0E0D0E0B12C60E070E080E09FE37B14F3
:102FB00039F020E030E040E251E484D8B394F7CF18
:102FC000A701960117D86B017C01E9D84B015C0180
:102FD0002AE0AB01BC01C801AFDEC80FD91F7720C2
:102FE00081F1C501B40107D99B01AC01C701B6014C
:102FF00000D86B017C016EE2C80154DEC80FD91FF6
:1030000020E030E040E251E4C701B601AAD94B010B
:103010005C01C5D86B017C014AE050E0C801F6DED6
:10302000C80FD91FB60180E090E0E5D89B01AC0144
:10303000C501B4010E94F90F6B017C017A947110F3
:10304000DFCFCE01DF91CF911F910F91FF90EF90D5
:10305000DF90CF90BF90AF909F908F907F9008951A
:1030600035CF0F931F93CF93DF93EC012FDF8C01AC
:10307000CE011FDE800F911FDF91CF911F910F9125
:1030800008950F931F93CF93DF93EC0189D0688746
:1030900079878A879B87E881F9810284F385E02D0F
:1030A000CE01199597FF16C07BD0088519852A8512
:1030B0003B85DC01CB01801B910BA20BB30B0C8178
:1030C0001D812E813F8180179107A207B30718F356
:1030D0008FEF9FEFDF91CF911F910F9108950F9385
:1030E0001F93CF93DF93EC018B0161E173E0ABD2CF
:1030F000C801C7DF97FD04C0682FCE01E5D2F8CF25
:10310000CE01DF91CF911F910F9108951F920F92E1
:103110000FB60F9211242F933F938F939F93AF93EA
:10312000BF938091D4109091D510A091D610B091FA
:10313000D7103091D31023E0230F2D3720F40196C0
:10314000A11DB11D05C026E8230F0296A11DB11DCA
:103150002093D3108093D4109093D510A093D610C1
:10316000B093D7108091D8109091D910A091DA1017
:10317000B091DB100196A11DB11D8093D8109093E2
:10318000D910A093DA10B093DB10BF91AF919F914B
:103190008F913F912F910F900FBE0F901F90189518
:1031A0002FB7F8946091D4107091D5108091D610FB
:1031B0009091D7102FBF08953FB7F8948091D81001
:1031C0009091D910A091DA10B091DB1026B5A89B90
:1031D00005C02F3F19F00196A11DB11D3FBFBA2FA9
:1031E000A92F982F8827820F911DA11DB11DBC0109
:1031F000CD0142E0660F771F881F991F4A95D1F7CE
:1032000008958F929F92AF92BF92CF92DF92EF92EA
:10321000FF926B017C01D0DF4B015C01C114D10432
:10322000E104F104F9F00E940430C6DFDC01CB01B7
:1032300088199909AA09BB09883E9340A105B105DF
:1032400068F321E0C21AD108E108F10888EE880E7F
:1032500083E0981EA11CB11CC114D104E104F10447
:1032600021F7DCCFFF90EF90DF90CF90BF90AF9031
:103270009F908F9008958230910538F0880F991FA4
:10328000880F991F05970197F1F70895789484B5F1
:10329000826084BD84B5816084BD85B5826085BD52
:1032A00085B5816085BDEEE6F0E080818160808338
:1032B000E1E8F0E01082808182608083808181601B
:1032C0008083E0E8F0E0808181608083E1EBF0E0E2
:1032D000808184608083E0EBF0E080818160808386
:1032E000E1E9F0E080818260808380818160808379
:1032F000E0E9F0E0808181608083E1EAF0E08081B4
:1033000082608083808181608083E0EAF0E0808158
:1033100081608083E1E2F1E080818260808380814E
:1033200081608083E0E2F1E0808181608083EAE770
:10333000F0E08081846080838081826080838081EE
:10334000816080838081806880831092C1000895AD
:10335000863308F0865390917B00282F2870977F42
:10336000922B90937B0020910E0290E4299F900174
:1033700011248770822B80937C0080917A00806476
:1033800080937A0080917A0086FDFCCF809178004E
:103390002091790090E0922B089590E0FC01319704
:1033A000E231F10508F04EC08827E458FF4F8F4FF7
:1033B0000C948240809180008F7703C080918000C0
:1033C0008F7D80938000089580918000877FF9CF62
:1033D00084B58F7702C084B58F7D84BD08958091B8
:1033E000B0008F7703C08091B0008F7D8093B000D4
:1033F0000895809190008F7707C0809190008F7D15
:1034000003C080919000877F809390000895809101
:10341000A0008F7707C08091A0008F7D03C08091AE
:10342000A000877F8093A0000895809120018F776E
:1034300007C0809120018F7D03C080912001877F8C
:10344000809320010895CF93DF9390E0FC01E05436
:10345000FE4F2491FC01EA5FFD4F8491882361F1C6
:1034600090E0880F991FFC01E058FD4FC591D49161
:10347000FC01EA59FD4FA591B491611109C09FB7B4
:10348000F8948881209582238883EC912E230BC0A9
:10349000623061F49FB7F8948881322F309583238E
:1034A0008883EC912E2B2C939FBF06C08FB7F89486
:1034B000E8812E2B28838FBFDF91CF9108951F9332
:1034C000CF93DF93282F30E0F901E658FE4F849127
:1034D000F901E054FE4FD491F901EA5FFD4FC49128
:1034E000CC23B9F0162F811158DFEC2FF0E0EE0F4E
:1034F000FF1FEA59FD4FA591B4919FB7F8941111A0
:1035000004C08C91D095D82302C0EC91DE2BDC93C3
:103510009FBFDF91CF911F910895CF93DF93282F05
:1035200030E0F901E658FE4F8491F901E054FE4F76
:10353000D491F901EA5FFD4FC491CC2389F0811148
:103540002CDFEC2FF0E0EE0FFF1FE45BFD4FA591A9
:10355000B491EC91ED2381E090E021F480E002C091
:1035600080E090E0DF91CF910895FC01808191810E
:10357000009711F00C945B410895CF93DF93EC0119
:1035800088819981009711F00E945B41198218820D
:103590001D821C821B821A82DF91CF9108950F93A6
:1035A0001F93CF93DF93EC018B016F5F7F4F888177
:1035B00099810E94E441009731F0998388831B83AD
:1035C0000A8381E001C080E0DF91CF911F910F91CC
:1035D0000895CF93DF93EC0188819981892B29F09D
:1035E0008A819B818617970758F4CE01D8DF8823FC
:1035F00041F08C819D81892B19F4E881F981108239
:1036000081E0DF91CF910895EF92FF920F931F9386
:10361000CF93DF93EC017B018A01BA01DADF8111DC
:1036200003C0CE01AADF07C01D830C83B7018881C8
:1036300099810E946743CE01DF91CF911F910F9135
:10364000FF90EF900895FC01118210821382128284
:10365000158214826115710549F0FB01019000206B
:10366000E9F73197AF01461B570BCECF0895EF9284
:10367000FF920F931F93CF93DF936115710511F4A0
:1036800080E01BC041155105B9F07B01EC018C8134
:103690009D818A01080F191FB801CE019ADF882386
:1036A00079F3288139818C819D81B701820F931F25
:1036B0000E9467431D830C8381E0DF91CF911F91AE
:1036C0000F91FF90EF900895CF93DF931F921F9279
:1036D000CDB7DEB769831A8241E050E0BE016F5F6B
:1036E0007F4FC5DF0F900F90DF91CF910895FC01C0
:1036F00080819181009711F00C94E84260E070E0C5
:10370000CB010895EF92FF920F931F93CF93DF9316
:10371000C62F7A01022FFC01608189EE91E10E949F
:1037200072296C2F89EE91E10E942129E70110E0B6
:10373000CE018E199F098017910734F4699189EEA3
:1037400091E10E942129F4CF89EE91E1DF91CF919F
:103750001F910F91FF90EF900C94F629CF93DF9378
:103760001F92CDB7DEB7498321E0AE014F5F5F4FB7
:10377000C9DF0F90DF91CF910895FC0124812E7F46
:10378000248321FB442740F950E0440F551F63E098
:10379000E5CFCF93DF93EC01688389EE91E10E943E
:1037A0006029198240E060E0CE01D8DF8FE38A8390
:1037B0004FE361E0CE01D2DFCE01DFDF8B818E7F70
:1037C0008B8340E062E0CE01C9DF64E670E080E018
:1037D00090E017DD81E0DF91CF9108956F927F92A5
:1037E0008F929F92AF92BF92CF92DF92EF92FF9211
:1037F0000F931F93CF93DF938C01662E6A01722E75
:10380000C0E0C715A0F5D72DDC1BD13208F0D0E2FF
:10381000F801608189EE91E10E9472296C2F660D9A
:1038200089EE91E10E94212989EE91E10E94F62919
:103830004D2FF801608189EE91E10E94F129812CE0
:10384000912CAD2EB12C8C2F880D8A149B0414F072
:10385000CD0FD7CF7601E80EF11C89EE91E10E94E1
:103860009A28F7018083FFEF8F1A9F0AECCFDF9130
:10387000CF911F910F91FF90EF90DF90CF90BF906D
:10388000AF909F908F907F906F9008958F929F92AE
:10389000AF92BF92CF92DF92EF92FF920F931F935E
:1038A000CF93DF93CDB7DEB7F62E172F042F8DB64B
:1038B0009EB6242F220F46FD20E84DB75EB7421B6F
:1038C00051090FB6F8945EBF0FBE4DBFEDB7FEB7FE
:1038D00031965F01AF0160E881DFCF2CD12EE12C62
:1038E000F12C10E0E016F1065CF58E2D880FF50145
:1038F000E80FF11D618170E0762F66278081682BCB
:1039000094E0660F771F9A95E1F724E07595679527
:103910002A95E1F7072E000C880B990B0E94FD10E9
:1039200020E030E040E85EE30E94B111F6016193CF
:103930007193819391936F01FFEFEF1AFF0AD2CF3A
:103940000FB6F8949EBE0FBE8DBEDF91CF911F9132
:103950000F91FF90EF90DF90CF90BF90AF909F902E
:103960008F9008950F93FC0180E092E1AAE7B0E008
:1039700030E0481759076A077B0740F4B695A795CA
:10398000979587953F5F3630A1F737E091E0932711
:10399000222311F020E501C020E70C70892F8695C5
:1039A000082B022B0083917091830F910895209131
:1039B000E611222399F04FB7F8942091E6112130B7
:1039C00059F42DB32093E4113DB32091E5112095D6
:1039D00023232DBB4FBF02C04093E4118CBD9DBD7E
:1039E00008958091E611882361F09FB7F8942091A3
:1039F000E6118091E411213019F48DBB9FBF089529
:103A00008FBF0895DF92EF92FF920F931F93CF9392
:103A1000DF93EC01FC01EA54FF4F80819181009714
:103A200039F4FE01E854FF4F80819181009771F0D5
:103A3000DC01ED91FC910190F081E02DDF91CF91BF
:103A40001F910F91FF90EF90DF901994D62E7E0179
:103A5000BAEBEB0EF11CF70180819181009741F4E4
:103A6000FE01E454FF4F80819181892B09F514C038
:103A7000FE01EB5DFE4F60810E947229D7018D919E
:103A80009C91DC01ED91FC910190F081E02D6D2D78
:103A900019958C01019719F000E010E024C061E055
:103AA000F701808191810E947D298111D9CF1BC0AE
:103AB000FE01E154FF4F8081918179DFC254DF4FD5
:103AC000888187FD02C060E0FADCDEBC00000DB436
:103AD00007FEFDCF8EB5888187FD02C061E0EFDC77
:103AE00080DF01E010E0C801DF91CF911F910F91BD
:103AF000FF90EF90DF900895CF92DF92EF92FF92C8
:103B00000F931F93CF93DF937B018A016A018EE2AB
:103B1000C81A88EFD80AF801C191D1918F0142E00B
:103B200050E066E176E0CE010E946E43892B91F071
:103B30000C151D0579F0FE0101900020E9F7319781
:103B4000AF014C1B5D0BB701CE010E946E43892B68
:103B500011F702C0C0E0D0E0CE01DF91CF911F91FC
:103B60000F91FF90EF90DF90CF9008958F929F92EA
:103B7000AF92BF92CF92DF92EF92FF920F931F937B
:103B8000CF93DF93EC018B01CB010E94E8424B0104
:103B90005C0120E137E240E050E00E9444402CAB61
:103BA00024E6C22ED12CE12CF12CA70196010E9413
:103BB00044402DABC501B401A70196010E944440C9
:103BC0006EAB6EE270E0C8010E94534301960E9402
:103BD000CB4298AF8FABFE01EB55FF4FCF54DF4F79
:103BE00088819981AA81BB8180839183A283B383D9
:103BF000DF91CF911F910F91FF90EF90DF90CF90C9
:103C0000BF90AF909F908F9008954F925F926F9268
:103C10007F928F929F92AF92BF92EF92FF920F93FB
:103C20001F93CF93DF93CDB7DEB72A970FB6F894E3
:103C3000DEBF0FBECDBFFB0120812C3209F4A6C030
:103C40008B017C0142E050E0CE0101960E947C4352
:103C50001B82CE0101960E94E8429B01AC0160E804
:103C600076E988E990E00E9416402B013C01B801FA
:103C70006E5F7F4F42E050E0CE0101960E947C4390
:103C8000B8016B5F7F4F44E050E0CE0103960E9485
:103C90007C431F82CE0101960E94E8429B01AC0149
:103CA000A2E3B0E00E94A54023E030E040E050E015
:103CB0000E94664049015A01F701EC5BFF4FD301B6
:103CC000C201820F931FA41FB51F80839183A2831B
:103CD000B383C301B20120EA36E841E050E00E941C
:103CE0006640CA01B9010E94FD102B013C01C501CB
:103CF000B4010E94FD102CE933E549EC56E30E9423
:103D0000B1119B01AC01C301B2010E94FA0F2B015A
:103D10003C01F70164AF75AF86AF97AF20E030E0AC
:103D200048EC52E40E9462100E94CA104B015C01F0
:103D3000FCE4EF0EF11C84E6889DB001899D700DB6
:103D40001124072E000C880B990B0E94FD109B017B
:103D5000AC01C301B2010E94F90F20E030E040E75E
:103D600052E40E9462102B013C01B401990C880BB3
:103D7000990B0E94FD109B01AC01C301B2010E948E
:103D8000FA0FF70160837183828393832A960FB6BB
:103D9000F894DEBF0FBECDBFDF91CF911F910F9181
:103DA000FF90EF90BF90AF909F908F907F906F901B
:103DB0005F904F900895FB0120812335F9F4FC01B9
:103DC000EC58FF4F2083B897408151816281738105
:103DD0007058408351836283738338974081518147
:103DE0006281738170956095509541955F4F6F4FDB
:103DF0007F4F408351836283738306C02E3431F436
:103E0000FC01EC58FF4F208381E008952C3229F407
:103E1000FC01EC58FF4F1082F7CF80E008954F92DD
:103E20005F926F927F928F929F92AF92BF92EF922A
:103E3000FF920F931F93CF93DF93CDB7DEB72A97EF
:103E40000FB6F894DEBF0FBECDBFFB0120812C3230
:103E500009F4A8C08B017C0143E050E0CE0101963B
:103E60000E947C431C82CE0101960E94E8429B0185
:103E7000AC0160E876E988E990E00E9416402B01E9
:103E80003C01B8016D5F7F4F42E050E0CE010196EA
:103E90000E947C43B8016A5F7F4F44E050E0CE014E
:103EA00003960E947C431F82CE0101960E94E84245
:103EB0009B01AC01A2E3B0E00E94A54023E030E00A
:103EC00040E050E00E94664049015A01F701E85B7A
:103ED000FF4FD301C201820F931FA41FB51F808320
:103EE0009183A283B383C301B20120EA36E841E0A3
:103EF00050E00E946640CA01B9010E94FD102B01EA
:103F00003C01C501B4010E94FD102CE933E549ECE8
:103F100056E30E94B1119B01AC01C301B2010E94A2
:103F2000FA0F2B013C01F701E05CFF4F60837183C6
:103F30008283938320E030E048EC52E40E946210D8
:103F40000E94CA104B015C01F0E5EF0EF11C84E603
:103F5000889DB001899D700D1124072E000C880BDF
:103F6000990B0E94FD109B01AC01C301B2010E949C
:103F7000F90F20E030E040E752E40E9462102B018C
:103F80003C01B401990C880B990B0E94FD109B0118
:103F9000AC01C301B2010E94FA0FF7016083718383
:103FA000828393832A960FB6F894DEBF0FBECDBFEF
:103FB000DF91CF911F910F91FF90EF90BF90AF9045
:103FC0009F908F907F906F905F904F900895FB012E
:103FD00020812C3239F12735F9F4FC01EB58FF4FE1
:103FE0002083B597408151816281738170584083ED
:103FF00051836283738338974081518162817381D9
:1040000070956095509541955F4F6F4F7F4F4083FE
:1040100051836283738306C0253431F4FC01EB586D
:10402000FF4F208381E0089580E00895FB01208107
:10403000213499F4FC01E958FF4F21E02083BA961E
:10404000DC01AF54BF4F8D919D910D90BC91A02D7F
:1040500080839183A283B38306C0263531F4FC01AB
:10406000E958FF4F108281E0089580E008952F9273
:104070003F924F925F927F928F929F92AF92BF92A8
:10408000CF92DF92EF92FF920F931F93CF93DF9324
:10409000EC0186D81B012C01FE01EB54FF4F8081FF
:1040A000882311F0712C64C18E010A541F4FD8016E
:1040B0008D919C910097A9F0DC01ED91FC91008419
:1040C000F185E02D1995892B69F3F80180819181A3
:1040D000DC01ED91FC910284F385E02D1995782E99
:1040E00001C0712C8E0108541F4FF801808191810D
:1040F0000097A9F0DC01ED91FC910084F185E02DA1
:104100001995892B09F434C1F80180819181DC0172
:10411000ED91FC910284F385E02D1995782E5E01D6
:10412000BAEBAB0EB11CD501ED91FC91309709F4BF
:1041300062C07E01B9EBEB1ABEEFFB0AD7019C917E
:104140008E010A5B1E4FD8018C91891764F0FE0125
:10415000E90FF11D97FDFA95EA5DFE4F70809F5FB4
:10416000F701908348C021E030E040E250E060E198
:1041700070E0CF010E94F529803209F0F9C0D80122
:104180001C9280E2C82ED12CFE01E85BFE4F4F014D
:10419000D5018D919C91DC01ED91FC910284F38518
:1041A000E02D19958A3021F4F40190819D3079F445
:1041B000D4018C93F8019081FE01E90FF11D97FD68
:1041C000FA95EA5DFE4F80839F5FD8019C93B1E032
:1041D000CB1AD108E9F6F8018081815080838111E2
:1041E00007C0CA5DDE4F88818A3011F48FEF80836B
:1041F000D7011C92BDC0FE01E454FF4F8081918124
:10420000892B09F43EC05E01BFEBAB0EB11C8E01E1
:1042100002541F4F99249A946E01E8EBCE1AEEEFE8
:10422000DE0AD5018D919C91C2DBF801808187FD6A
:1042300002C060E044D99EBC00000DB407FEFDCF73
:104240007EB4D8018C9187FD02C061E038D9C9DB0A
:10425000BAE07B1204C0F60180818D3011F7E72CA3
:10426000F12CC7010E941043892B29F0FE01E85B65
:10427000FE4F708206C0C7010E941643892B89F247
:10428000F5CF8E01065C1D4FD8018D919C91FE01EA
:10429000E75CFD4F208131E0320F3083820F911DAA
:1042A000DC017C928081883710F087E78083BAE058
:1042B0007B124AC02081D8018D919C91820F911D63
:1042C000DC011C92D8016D917C911197AE01475B86
:1042D0005E4F9E012F533E4FCE01845C9D4F64176D
:1042E000750731F42D933C93DC016D937C9306C0EC
:1042F000D8014D935C93DC012D933C931082FE0119
:10430000E25CFD4F81E080830E94D018FE01E355FE
:10431000FF4F6083718382839383CF54DF4F8091FB
:10432000DC109091DD10A091DE10B091DF10888339
:104330009983AA83BB831092DC101092DD10109237
:10434000DE101092DF1014C08091DC109091DD100F
:10435000A091DE10B091DF10892B8A2B8B2B41F4BA
:104360002092DC103092DD104092DE105092DF106F
:10437000872DDF91CF911F910F91FF90EF90DF90EC
:10438000CF90BF90AF909F908F907F905F904F9015
:104390003F902F900895FC01DC01AA54BF4F119665
:1043A0001C921E92129611961C921E9212961196B3
:1043B0001C921E92129611961C921E92AE57BE4FE0
:1043C0001C92A958B1401C92AC57BE4F1C9211963A
:1043D000875B9E4F11969C938E93129688589F4FA1
:1043E00011969C938E93A25CB1401C9211971C92E3
:1043F00011971C9213AE12AE11AE16AA15AA14AAEA
:1044000012971C9211971C9211971C9213961C9252
:1044100010AE17AA17971D921D921D921C9213970A
:1044200014971D921D921D921C92139714971D9222
:104430001D921D921C92139714971D921D921D920E
:104440001C92139714971D921D921D921C92139704
:1044500014971D921D921D921C92139714971D92F2
:104460001D921D921C92139714971D921D921D92DE
:104470001C92139754971D921D921D921C92139794
:1044800014AE15AE16AE17AE0895EF92FF920F93CD
:104490001F93CF93DF93EC017B011B821A828AE981
:1044A00096E0998388831D821C821E821F82188653
:1044B00084E1FE013996DF01982F1D929A95E9F764
:1044C0001D8E1E8E1F8E7796DF011D928A95E9F74D
:1044D000DE01A957BF4F8AE0EFE1F2E001900D92B3
:1044E0008A95E1F7DE01AF56BF4F8AE0E9E2F2E0DC
:1044F00001900D928A95E1F7FE01E556FF4F85E1A7
:1045000096E091838083329680E094E9A5E3B7E753
:1045100080839183A283B383349680839183A28323
:10452000B383349680839183A283B383349680834C
:104530009183A283B383349680839183A283B383D0
:10454000349680839183A283B3833D961FEF1083BB
:1045500000E021E040E452E46FE070E0CE018154DD
:104560009F4F00DAFE01EA5BFE4F10833196108206
:1045700031961082EF50FF4F1082CE010CDFC854ED
:10458000DF4FF982E882DF91CF911F910F91FF9069
:10459000EF900895825C9D4FFC0180810895FC019D
:1045A000E25CFD4F108232978081918108956033E3
:1045B00058F06A3310F480ED05C08FEB860F86301B
:1045C00018F489EC860F089580E00895CF92DF9269
:1045D000EF92FF920F931F93CF93DF93EC011D8215
:1045E0001C82FB0180818432C1F481E090E09D83D4
:1045F0008C83CB017C010196F70120812111FACF38
:10460000F70180818A3259F06E157F0530F4F1E0B0
:10461000EF1AF108F5CF892BE1F080E05EC08B0145
:10462000F7016181CE01C3DFF0E18F9F60011124AA
:10463000F7016281CE01BBDF9601280F311DC90150
:104640000F5F1F4FF801EE15FF0528F72191822714
:10465000FACF83E090E09D838C83AE0149575F4F92
:10466000B801CE0149DA7C010097B9F2BC01CE0154
:1046700006960E9467438DE090E09D838C83F7014E
:1046800001900020E9F73197EE19FF090E0F1F1F67
:10469000AE014F565F4FB801CE012EDA009751F0B0
:1046A000BC01CE0109960E94674389E490E09D8396
:1046B0008C8312C0AE0145565F4FB801CE011CDAA3
:1046C000009751F0BC01CE0109960E94674381E238
:1046D00090E09D838C83A1CF81E0DF91CF911F91EA
:1046E0000F91FF90EF90DF90CF9008954F925F92DF
:1046F0006F927F928F929F92AF92BF92DF92EF92D2
:10470000FF920F931F93CF93DF93EC018B015EDF3A
:10471000D82E811102C0D12C35C26CE270E0C801E4
:104720000E9453438C010F5F1F4F7E0189E0E80E0A
:10473000F11C65E276E0C7010E945E43892B09F017
:10474000ADC0B801CE0112DA6CE270E0C8010E947F
:1047500053438C010F5F1F4FB801CE0156DA6CE254
:1047600070E0C8010E9453438C010F5F1F4FB801D6
:10477000CE0121DB882379F26CE270E0C8010E944F
:1047800053438C010F5F1F4FB801CE0148DB6CE231
:1047900070E0C8010E9453438C010F5F1F4FB801A6
:1047A000CE0115DC882309F4B6CF6CE270E0C801B5
:1047B0000E9453438C010F5F1F4FFC0181818C329B
:1047C000C1F0C8010E94CB42FE01E858FF4F808330
:1047D0003197882369F081E08083FA968081918106
:1047E000A281B381709780839183A283B38301C038
:1047F00010826CE270E0C8010E9453438C010F5F8D
:104800001F4FFC0181818C3239F0C8010E94CB42DC
:10481000FE01E658FF4F80836CE270E0C8010E9401
:1048200053438C010F5F1F4FFC0181818C3251F08B
:10483000C8010E94C842FE01E859FF4F608371839E
:10484000828393836CE270E0C8010E9453438C0121
:104850000F5F1F4FFC0181818C3251F0C8010E9413
:10486000C842FE01E85AFF4F6083718382839383BD
:104870006CE270E0C8010E9453436CE270E0019664
:104880000E945343FC0121812C3209F467C1019637
:104890000E94C842FE01EC5AFF4F5CC161E376E022
:1048A000C7010E945E43892B09F0A5C0B801CE0163
:1048B0005DD96CE270E0C8010E9453438C010F5F28
:1048C0001F4FB801CE01B2DB882309F424CF6CE27C
:1048D00070E0C8010E9453438C010F5F1F4FB80165
:1048E000CE0193D96CE270E0C8010E9453438C0161
:1048F0000F5F1F4FB801CE015EDA882309F40BCF9A
:104900006CE270E0C8010E9453438C010F5F1F4F9F
:10491000B801CE0184DA6CE270E0C8010E94534312
:104920008C010F5F1F4FB801CE0151DB882309F4C2
:10493000F2CE6CE270E0C8010E9453438C010F5F1D
:104940001F4FFC0181818C3251F0C8010E94C84286
:10495000FE01E45AFF4F60837183828393836CE28C
:1049600070E0C8010E9453438C010F5F1F4FFC0190
:1049700081818C3251F0C8010E94C842FE01E05A88
:10498000FF4F60837183828393836CE270E0C80180
:104990000E945343FC0121812C3209F4DFC00196AF
:1049A0000E94C8420E94CF102B013C0120E137E257
:1049B00040E050E00E9444402BAF24E6822E912C30
:1049C000A12CB12CA50194010E9444402AAFC3013F
:1049D000B201A50194010E94444069AFFE01EF5469
:1049E000FF4F80819181A281B38138978083918329
:1049F000A283B383B3C069E276E0C7010E945E433D
:104A0000892B09F042C0B801CE01FFD86CE270E0FA
:104A1000C8010E9453438C010F5F1F4FB801CE01A4
:104A2000CAD9882309F477CE6CE270E0C8010E94ED
:104A300053438C010F5F1F4FB801CE01F0D96CE2D8
:104A400070E0C8010E9453438C010F5F1F4FB801F3
:104A5000CE01BDDA882309F45ECE6CE270E0C801B5
:104A60000E9453438C010F5F1F4FB801CE017ED8C7
:104A70006CE270E0C8010E945343BC016F5F7F4F3E
:104A8000CE01D4DA81116AC046CE6DE276E0C7016C
:104A90000E945E43892B09F03ECE6CE270E0C801B3
:104AA0000E9453438C010F5F1F4FFC0181818C32A8
:104AB00039F0C8010E94CB42FE01E758FF4F8083C6
:104AC0008CE0A82EB12C6CE270E0C8010E94534328
:104AD0008C010F5F1F4FF1E0AF1AB108A1F76CE234
:104AE00070E0C8010E9453438C010F5F1F4FFC010F
:104AF00081818C3251F0C8010E94C842FE01E05908
:104B0000FF4F60837183828393836CE270E0C801FE
:104B10000E9453438C010F5F1F4FFC0181818C3237
:104B200051F0C8010E94C842FE01E859FF4F60835E
:104B30007183828393836CE270E0C8010E945343C7
:104B4000FC0121812C3251F001960E94C842FE01E5
:104B5000E459FF4F6083718382839383BE016A5F50
:104B60007F4FCE014D960E946743B701CE018096DC
:104B70000E9467430E94D018C356DF4F6883798331
:104B80008A839B838D2DDF91CF911F910F91FF9091
:104B9000EF90DF90BF90AF909F908F907F906F903D
:104BA0005F904F900895CF93DF931F92CDB7DEB7FC
:104BB000FC0119826370668BDC01AA5BBF4F8C918C
:104BC000982F9B7FAF014C5B5F4F913029F462308F
:104BD00008F493E0DA019C939F012D5B3F4F623014
:104BE000D9F0633009F43FC0613071F0823011F0C8
:104BF000843029F490EC9983813019F415C098EC35
:104C000010C08430B1F01CC0823011F0843011F437
:104C100090EA2EC098EA35C0823091F0843049F095
:104C200098E09983813061F480E890E093878287EF
:104C30000DC080EA90E09387828780E590E006C00F
:104C400080EA90E09387828780E890E09187808770
:104C5000D9018C9190E092AF81AFDA018C9190E014
:104C600094AF83AF2DC0823011F0843049F490E6C8
:104C70009983813051F480E890E09187808714C057
:104C800098E69983813051F4F6CF843039F480EA84
:104C900090E09187808780E590E006C080EA90E010
:104CA0009187808780E890E093878287D9018C91F3
:104CB00090E094AF83AFDA018C9190E092AF81AF36
:104CC00021E0AE014F5F5F4F66E3CF010E94A13943
:104CD0000F90DF91CF910895EF920F93CF93DF93D1
:104CE000EC01E22E042F262F40EA50E060E870E04D
:104CF000B7D086EA96E099838883DF91CF910F91B0
:104D0000EF900895411551056105710521F440E0CA
:104D100058E468EE71E0FC01FF96408351836283A2
:104D2000738321E2FC0125AF20E226AFEB5BFF4F4E
:104D300020810C94CC378F929F92AF92BF92CF92EA
:104D4000DF92EF92FF920F931F93CF93DF93EC01CB
:104D500089AD9AAD4B01880E991E8BAD9CAD480F65
:104D6000591FC9010197880D991DA0E0B0E0A12C41
:104D7000B12C540199248824882A992AAA2ABB2A6A
:104D8000015011096801C40ED51E860120E030E0F3
:104D90006A01E12CF12C7601DD24CC24C02AD12A31
:104DA000E22AF32A6AE2CE010E943B39B501A4014E
:104DB000CE010E94763A6BE2CE010E943B39B701E8
:104DC000A601CE010E94763A6CE2CE01DF91CF912E
:104DD0001F910F91FF90EF90DF90CF90BF90AF9019
:104DE0009F908F900C943B39CF93DF931F92CDB758
:104DF000DEB7FC0119826370668B8D5B9F4FAF013C
:104E00004C5B5F4F623049F0633091F0613019F0D4
:104E100020EC298302C020EA0CC0DC018C9190E0D8
:104E200092AF81AFDA018C9190E094AF83AF0CC068
:104E300020E62983DC018C9190E094AF83AFDA0106
:104E40008C9190E092AF81AF21E0AE014F5F5F4F58
:104E500066E3CF010E94A1390F90DF91CF910895B1
:104E6000EF920F93CF93DF93EC010E94BF3786ED53
:104E700096E099838883FE01ED5BFF4F10823196A7
:104E80001082CB5BDF4F1882DF91CF910F91EF90B3
:104E90000895AF92BF92CF92DF92EF92FF920F935D
:104EA0001F93CF93DF93EC01E62EA72EF42EB52EA1
:104EB00069018FEF9FEF9D838C839F838E8361E0D9
:104EC0008E2D0E94231A60E08F2D0E94231AE88203
:104ED000A982FA82BB82DD82CC821F830E83DF919E
:104EE000CF911F910F91FF90EF90DF90CF90BF90E7
:104EF000AF900895CF92DF92EF92FF92CF93DF931E
:104F0000EC0160E088810E945F1A85E090E00E94D9
:104F10003B1961E088810E945F1A8AE090E00E945C
:104F20003B1960E088810E945F1A8A810E948D1A75
:104F3000892BD9F30E94DC186B017C018A810E94C5
:104F40008D1A0197D9F30E94DC18CB018C199D09A9
:104F5000DF91CF91FF90EF90DF90CF900895CF93A6
:104F6000DF93EC01C7DF97FD0196BC01759567954E
:104F7000072E000C880B990B0E94FD1027EE3BEFCB
:104F800049EA5EE30E94B1110E94CA109B014C8164
:104F90005D814F3FAFEF5A0721F4EE81FF813196DB
:104FA00059F0421753072CF44E815F8124173507BF
:104FB0001CF08FEF9FEF01C0CB01DF91CF910895DF
:104FC0001F920F920FB60F9211240BB60F922F93D0
:104FD0003F934F935F936F937F938F939F93AF9381
:104FE000BF93EF93FF93E091E211F091E3113097BB
:104FF00009F44FC0968DA685B785858591FF04C0BD
:105000009C91892329F445C09C91892309F041C0D2
:10501000A389B4899C918589809589238C938689FD
:1050200097890197F1F7608D718DA685B7855585B4
:1050300038E020E0CB010197F1F7822F90E09595C1
:105040008795282F4C91452309F02068315091F71E
:10505000868D81FD20958091E11090E00196309140
:10506000E010381749F0A091E110B0E0AE51BF4E0A
:105070002C938093E11003C0868D8160868F828D92
:10508000938D0197F1F7A389B4899C918589892B28
:105090008C93FF91EF91BF91AF919F918F917F91F1
:1050A0006F915F914F913F912F910F900BBE0F9099
:1050B0000FBE0F901F901895CF93CFB7F8948091A3
:1050C000E711811127C0EBE3F2E08491E5EFF1E015
:1050D0009491E82FF0E0EE0FFF1FE058FD4FA591EF
:1050E000B491EC91E92321F461E085E30E945F1A19
:1050F00061E085E30E94231A8CB580618CBD8CB57C
:1051000080648CBD61E084E30E94231A61E083E344
:105110000E94231A8091E7118F5F8093E711CFBF20
:10512000CF91089580911D1290E020911E12821B54
:105130009109089590911E1280911D12981750F4B4
:10514000E92FF0E0E15EFD4E208130E09F5F90931B
:105150001E1202C02FEF3FEFC9010895E0911E1209
:1051600080911D12E81730F4F0E0E15EFD4E808181
:1051700090E008958FEF9FEF08950895CF93DF9308
:10518000EC01E091F511F091F6113097F1F090916A
:105190001E1280911D129817C0F090E0292F30E068
:1051A0002617370754F4DE01A20FB31F4C91D90123
:1051B000A15EBD4E4C939F5FF1CF10921E12609383
:1051C0001D12CB01DF91CF911994DF91CF910895FA
:1051D000E091F711F091F811309729F01092FB113E
:1051E0001092FA1119940895CF92DF92EF92FF92E4
:1051F0000F931F93CF93DF937C01CB018A01209102
:10520000F911222389F0EB016B01C40ED51ECC15D8
:10521000DD0569F06991D701ED91FC910190F08174
:10522000E02DC7011995F3CF642F0E94A13EC8015C
:10523000DF91CF911F910F91FF90EF90DF90CF9072
:105240000895CF93DF931F92CDB7DEB76983209186
:10525000F9112223D1F02091FA11203240F021E0FF
:1052600030E0FC013383228380E090E015C0809120
:10527000FB11E82FF0E0E450FE4E998190838F5FA0
:105280008093FB118093FA1105C061E0CE01019675
:105290000E94A13E81E090E00F90DF91CF910895B0
:1052A000FC011382128288EE93E0A0E0B0E08483D8
:1052B0009583A683B78386E097E0918380830895E2
:1052C00010921E1210921D121092FB111092FA11E0
:1052D0000E94E53D88EE98E20E94CE3E8EEB98E279
:1052E0000C94C93E81E08093F91160931C121092D6
:1052F000FB111092FA110895F5CF0F93062F21E0BC
:105300004091FA116CEF71E180911C120E944B3EAA
:105310001092FB111092FA111092F9110F91089549
:105320004F925F926F927F92AF92BF92CF92EF9225
:10533000FF920F931F93CF93DF935C01F62ED42F30
:1053400028013901EE2011F1CDDFCE2DC43008F057
:10535000C3E0C150C0F028E0C29FC0011124A301E6
:10536000920104C056954795379527958A95D2F7AF
:10537000CA01B901D501ED91FC910190F081E02DB8
:10538000C5011995E6CF60E0C501B7DF4D2FD132D9
:1053900008F040E22C2D6FE172E18F2D0E94033E58
:1053A00010921E1280931D12DF91CF911F910F91C9
:1053B000FF90EF90CF90BF90AF907F906F905F90F5
:1053C0004F900895CF92EF920F931F93C22EE12C2E
:1053D00000E010E09801A4DF1F910F91EF90CF90B3
:1053E000089521E0EFCF21E0EDCFECCF61E085CF54
:1053F00089EE91E155CF885E9E4FDC018D919C91A5
:10540000DC01ED91FC910084F185E02D1994885E1A
:105410009E4FDC018D919C91DC01ED91FC910190FE
:10542000F081E02D1994885E9E4FDC018D919C9156
:10543000DC01ED91FC910284F385E02D1994885EE6
:105440009E4FDC018D919C91DC01ED91FC910484D7
:10545000F585E02D1994885E9E4FDC018D919C911D
:10546000DC01ED91FC910680F781E02D1994FC019F
:105470001382128288EE93E0A0E0B0E084839583EB
:10548000A683B7838FE697E0918380836487DF01EB
:10549000A35FBE4F87E294E011969C938E93129681
:1054A00011961C921E92129611961C921E9217969D
:1054B00011961C921E9215971C92119682E294E00E
:1054C0008D939C93EA5EFE4F8FE194E091838083FD
:1054D00008950F931F93CF93DF93EC0180E090E04A
:1054E0008C010F5F1F4F8897D8F4E881F981008401
:1054F000F185E02DCE011995892B51F0E881F981D4
:105500000284F385E02DCE01199500E010E0EDCF87
:1055100061E070E080E090E00E940119C801E0CFF6
:10552000DF91CF911F910F910895AF92BF92CF92CB
:10553000DF92EF92FF920F931F93CF93DF93EC01D3
:105540008B016C018EE0C80ED11CE12CF12C5E01A8
:10555000A8EEAA1AAEEFBA0A0E151F0519F1BEEF92
:10556000EB16F104E9F0F50180819181DC01ED9108
:10557000FC910084F185E02D1995892B69F3F501E3
:1055800080819181DC01ED91FC910284F385E02D15
:105590001995F60181936F01FFEFEF1AFF0ADCCF37
:1055A0000EEF10E0C00FD11F1E86C801DF91CF9112
:1055B0001F910F91FF90EF90DF90CF90BF90AF9031
:1055C0000895BF92CF92DF92EF92FF920F931F93B5
:1055D000CF93DF937C01B42E8B01C0E0D0E06C014F
:1055E00088EEC81A8EEFD80A0115110589F1CE3F51
:1055F000D10570F5D6018D919C91DC01ED91FC9166
:105600000084F185E02D1995892BC1F0F601808188
:105610009181DC01ED91FC910284F385E02D1995D7
:105620008D3041F38A3021F4209721F3BB2081F0A3
:10563000F701EC0FFD1F86872196DCCF0150110981
:1056400039F061E070E080E090E00E940119CCCF79
:10565000F701EC0FFD1F16868C2FDF91CF911F9164
:105660000F91FF90EF90DF90CF90BF900895EF9251
:10567000FF920F931F93CF93DF93EC018B017A017D
:1056800028DF6FEA72E08FE59EE00E941F16B801E6
:105690008FE59EE00E947C16FE01E85EFE4FB80199
:1056A000808191810E947C1640E0B701CE0189DFA4
:1056B000182F68EA72E08FE59EE00E941F16BE0177
:1056C000625F7F4F8FE59EE00E947C16812FDF9105
:1056D000CF911F910F91FF90EF900895EF92FF925D
:1056E0000F931F93CF93DF93EC018B017A01F1DECF
:1056F00061EA72E08FE59EE00E941F16B8018FE517
:105700009EE00E945C16FE01E85EFE4FB8018081BB
:1057100091810E945C1640E0B701CE0152DF182F44
:105720006AE972E08FE59EE00E941F16BE01625F8B
:105730007F4F8FE59EE00E947C16812FDF91CF91F5
:105740001F910F91FF90EF9008950F931F93CF93A8
:10575000DF93EC018A01A901C1DF882341F0B80180
:10576000CE010E960E941E4321E0892B09F020E015
:10577000822FDF91CF911F910F910895BF92CF9209
:10578000DF92EF92FF920F931F93CF93DF93EC0181
:105790006C0188EEC81A8EEFD80AD6016D937C93FF
:1057A00061E08C850E94231A61E08C850E945F1A5B
:1057B0006AE070E080E090E00E94011960E08C8572
:1057C0000E945F1A64E670E080E090E00E94011998
:1057D00061E08C850E945F1A6EEF73E08FE59EE0BA
:1057E0000E945C168EE0E82EF12C8E010A5E1E4FA0
:1057F000F60180819181DC01ED91FC910084F185BD
:10580000E02D1995892B59F0F60180819181DC01F9
:10581000ED91FC910284F385E02D1995E9CFF80113
:105820004081518124EF31E06BEF73E0CE018DDFD9
:1058300081115FC0D6018D919C91DC01ED91FC91AD
:105840000084F185E02D1995892B59F0F6018081AE
:105850009181DC01ED91FC910284F385E02D199595
:10586000E9CF24EF31E048EF53E065EF73E0CE017C
:105870006CDF81113EC064EF71E080E090E00E9437
:105880000119B1E0EB1AF10809F0B2CF63EC73E053
:105890008FE59EE00E945C16F8014081518124EF63
:1058A00031E060EC73E0CE0150DF64E670E080E050
:1058B00090E00E940119D8014D915C9124EF31E0F4
:1058C0006DEB73E0CE0141DF64E670E080E090E0D4
:1058D0000E940119F8014081518124EF31E06AEB07
:1058E00073E0CE0132DF64E670E080E090E00E9479
:1058F0000119F8014081518124EF31E065EB73E03B
:10590000CE0123DF64E670E080E090E00E940119A0
:10591000D8014D915C9124EF31E060EB73E0CE0152
:1059200014DFB82E882309F49DC0F801408151810D
:1059300024EF31E066EA73E0CE0107DF64E670E051
:1059400080E090E00E940119CE01C3DD6FE973E0B1
:105950008FE59EE00E941F1666E277E08FE59EE0ED
:105960000E947C1666E277E0D6018D919C910E94A0
:105970007C1641E064EF71E0CE0123DE68E973E05C
:105980008FE59EE00E941F167E01BEE0EB0EF11C2B
:10599000B7018FE59EE00E947C166DE873E0C701B9
:1059A0000E943043892B11F083E023C062E873E04A
:1059B000C7010E943043892B11F082E01AC067E7CB
:1059C00073E0C7010E943043892B11F081E011C0C0
:1059D00067E673E0C7010E943043892B11F084E031
:1059E00008C067E573E0C7010E943043892B11F0BE
:1059F00085E08D878D85813061F560E573E08FE509
:105A00009EE00E941F166AE277E08FE59EE00E940A
:105A10007C166AE277E0F601808191810E947C1613
:105A200041E064EF71E0CE01CCDD69E473E08FE525
:105A30009EE00E941F16B7018FE59EE00E947C1633
:105A400061E473E0C7010E943043892B11F086E0C6
:105A50008D87D8014D915C9124EF31E06AE273E0CB
:105A6000CE0173DE8B2DDF91CF911F910F91FF90AF
:105A7000EF90DF90CF90BF9008950F931F93CF9337
:105A8000DF93EC018A01A901F2DD882341F0B8011E
:105A9000CE010E960E941E4321E0892B09F020E0E2
:105AA000822FDF91CF911F910F910895AF92BF92F6
:105AB000CF92DF92EF92FF920F931F93CF93DF93DA
:105AC000CDB7DEB76E970FB6F894DEBF0FBECDBF71
:105AD0008C015B016A01FC01EA5EFE4F408151814D
