:10000000F3C400000C942B330C9456330C948133BE
:100010000C94AC330C94D7330C9402340C942D34E0
:100020000C9458340C94052B0C94052B0C94052B34
:100030000CC500000AC5000008C5000006C5000088
:1000400004C5000002C5000000C50000FEC4000099
:10005000FCC40000FAC40000F8C400000C94AB1B00
:10006000F4C400000C94A4160C94DA16EEC400003C
:10007000ECC40000EAC40000E8C40000E6C40000CC
:10008000E4C40000E2C40000E0C40000DEC40000DC
:100090000C9439170C946F17D8C400000C940842C4
:1000A000D4C40000D2C40000D0C40000CEC40000FC
:1000B000CCC40000CAC40000C8C40000C6C400000C
:1000C000C4C40000C2C40000C0C400000C94CE1719
:1000D0000C940418BAC400000C9463180C9499187A
:1000E000B4C400003E0E210F950F87118711D20F67
:1000F00031108D10D71041110D1D101DFF1C031D57
:10010000091D471D141D181D1E1D221D261D2C1DF9
:10011000301D341D471D3A1D3E1D421D6364696E2E
:100120006F70737578585B004E414E494E49545973
:10013000494E46CDCCCC3D0AD7233C17B7D13877B2
:10014000CC2B329595E6241FB14F0A0000204100C8
:1001500000C84200401C4620BCBE4CCA1B0E5AAE12
:10016000C59D7441542B434D47443D3F0D0A004308
:100170006F756C646E27742064656C6574652053BC
:100180004D5320696E20736C6F7420004F4B21001B
:1001900053656E7421004661696C65640041542B9F
:1001A000434D47443D3F0D0A00436F756C646E2715
:1001B000742064656C65746520534D5320696E200E
:1001C000736C6F7420004F4B210053656E742100D7
:1001D0004661696C65640046524F4D3A2000464FB7
:1001E0004E4120697320434F4E4E454354454400D1
:1001F000436F756C646E27742066696E6420464F89
:100200004E4100496E697469616C697A696E672E46
:100210002E2E2E0053657474696E67207570000071
:10022000000A0B02090C0D0E080703040100000070
:1002300000000000000000000000000000000000BE
:10024000000000000000000000000012111000007B
:10025000000000000000000000000000000000009E
:1002600000000000000102102020080810204010AB
:10027000204080020102010804020101020408106A
:100280002040808040201008040201800402018088
:1002900040201008040201080402010102040810B1
:1002A0002040800102040810204080050505050754
:1002B0000508080808020202020A0A0808040404E1
:1002C000040101010101010101030303030303030D
:1002D00003040707070C0C0C0C0C0C0C0C0202029C
:1002E0000206060606060606060B0B0B0B0B0B0B8F
:1002F0000B000020002300260029002C002F0032D4
:100300000000010000030106010901000022002590
:100310000028002B002E00310034000201000005EF
:100320000108010B0100002100240027002A002DF4
:10033000003000330001010000040107010A010937
:100340003C2D2D2D2000092D2D2D3E2000093C2D6A
:100350002D2D2000092D2D2D3E200041542B434DE5
:1003600047463D31003E20003E200041542B434D86
:1003700047463D31002B434D47523A0041542B43F1
:100380004D47523D0041542B434D47523D0041548F
:100390002B435344483D310041542B434D47463D88
:1003A00031002B434D47523A0041542B434D4752A5
:1003B0003D0041542B434D47523D0041542B435384
:1003C00044483D310041542B434D47463D310041A7
:1003D000542B43504D533D22534D222C22534D223A
:1003E0002C22534D220053494D3830304800093CEF
:1003F0002D2D2D2000092D2D2D3E200053494D433C
:100400004F4D5F53494D35333230450053494D43CD
:100410004F4D5F53494D35333230410053494D38CC
:100420003030205231330053494D3830382052316A
:10043000330053494D3830382052313400093C2DB7
:100440002D2D2000092D2D2D3E200041542B4356EB
:1004500048553D300041544530004154453000413D
:10046000540041540041540054696D656F75743AED
:10047000204E6F20726573706F6E736520746F20ED
:1004800041542E2E2E206C6173742064697463684D
:1004900020617474656D70742E00415400415400E5
:1004A000415400417474656D7074696E6720746F97
:1004B000206F70656E20636F6D6D207769746820A2
:1004C000415473004F4B00464F4E4100464F4E4142
:1004D0006E65740000000000003E5B4F5B3E3E6BAB
:1004E0004F6B3E1C3E7C3E1C183C7E3C181C577DCE
:1004F000571C1C5E7F5E1C00183C1800FFE7C3E71A
:10050000FF0018241800FFE7DBE7FF30483A060E2B
:100510002629792926407F050507407F05253F5A72
:100520003CE73C5A7F3E1C1C08081C1C3E7F1422E2
:100530007F22145F5F005F5F06097F017F0066898D
:10054000956A606060606094A2FFA29408047E04D3
:100550000810207E201008082A1C08081C2A0808F9
:100560001E101010100C1E0C1E0C30383E383006B9
:100570000E3E0E06000000000000005F00000007B5
:10058000000700147F147F14242A7F2A12231308E3
:10059000646236495620500008070300001C2241BF
:1005A000000041221C002A1C7F1C2A08083E080863
:1005B0000080703000080808080800006060002013
:1005C000100804023E5149453E00427F40007249F6
:1005D0004949462141494D331814127F102745459A
:1005E00045393C4A494931412111090736494949B0
:1005F00036464949291E000014000000403400001E
:100600000008142241141414141400412214080286
:10061000015909063E415D594E7C1211127C7F49F9
:100620004949363E414141227F4141413E7F49494E
:1006300049417F090909013E414151737F0808087A
:100640007F00417F41002040413F017F081422414B
:100650007F404040407F021C027F7F0408107F3EA5
:100660004141413E7F090909063E4151215E7F0912
:10067000192946264949493203017F01033F404079
:10068000403F1F2040201F3F4038403F6314081464
:100690006303047804036159494D43007F4141419C
:1006A0000204081020004141417F0402010204407D
:1006B00040404040000307080020545478407F2801
:1006C0004444383844444428384444287F385454F7
:1006D000541800087E090218A4A49C787F0804041A
:1006E0007800447D40002040403D007F10284400B9
:1006F00000417F40007C047804787C08040478384A
:1007000044444438FC1824241818242418FC7C0879
:10071000040408485454542404043F44243C4040F6
:10072000207C1C2040201C3C4030403C44281028A9
:10073000444C9090907C4464544C440008364100F2
:100740000000770000004136080002010204023C6C
:100750002623263C1EA1A161123A4040207A38543B
:1007600054555921555579412254547842215554B4
:10077000784020545579400C1E5272123955555507
:1007800059395454545939555454580000457C41F2
:100790000002457D420001457C407D1211127DF032
:1007A000282528F07C545545002054547C547C0A5C
:1007B000097F4932494949323A4444443A324A4825
:1007C00048303A4141217A3A42402078009DA0A029
:1007D0007D3D4242423D3D4040403D3C24FF24247B
:1007E000487E4943662B2FFC2F2BFF0929F620C09A
:1007F000887E090320545479410000447D413048EB
:10080000484A32384040227A007A0A0A727D0D192D
:10081000317D2629292F28262929292630484D408F
:1008200020380808080808080808382F10C8ACBA8B
:100830002F102834FA00007B000008142A1422220A
:10084000142A14085500550055AA55AA55AAFF5553
:10085000FF55FF000000FF00101010FF00141414DB
:10086000FF001010FF00FF1010F010F0141414FC23
:10087000001414F700FF0000FF00FF1414F404FC40
:10088000141417101F10101F101F1414141F001021
:100890001010F0000000001F101010101F1010109A
:1008A00010F010000000FF101010101010101010A9
:1008B000FF10000000FF140000FF00FF00001F10E9
:1008C000170000FC04F414141710171414F404F4A3
:1008D0000000FF00F714141414141414F700F71494
:1008E0001414171410101F101F141414F4141010E3
:1008F000F010F000001F101F0000001F1400000087
:10090000FC140000F010F01010FF10FF141414FF7E
:10091000141010101F00000000F010FFFFFFFFFF79
:10092000F0F0F0F0F0FFFFFF0000000000FFFF0F0D
:100930000F0F0F0F3844443844FC4A4A4A347E02B1
:10094000020606027E027E02635549416338444432
:100950003C04407E201E2006027E020299A5E7A5E7
:10096000991C2A492A1C4C7201724C304A4D4D3058
:100970003048784830BC625A463D3E494949007E7D
:100980000101017E2A2A2A2A2A44445F4444405114
:100990004A444040444A51400000FF0103E080FFC8
:1009A000000008086B6B083612362436060F090F54
:1009B00006000018180000001010003040FF010170
:1009C000001F01011E00191D1712003C3C3C3C0099
:1009D000000000009A071A09BF099712AC120C1701
:1009E000A1173618CB181D2D11241FBECFEFD1E251
:1009F000DEBFCDBF00E00CBF18E0A0E0B2E0EEE14A
:100A0000FDE900E00BBF02C007900D92A23DB107C7
:100A1000D9F723E1A2EDB8E001C01D92AD3AB207CB
:100A2000E1F714E0C4EFD4E000E006C0219701092B
:100A3000802FFE010E94A743CA3ED10780E008072D
:100A4000A9F70E94F9180C948D4EDACADC01ED91D9
:100A5000FC910190F081E02D199468E670E083EE3E
:100A600092E10E94A12C6BE670E083EE92E1EEDF52
:100A700060E070E083EE92E1E9DF83EE92E10E94B4
:100A80001B2D68E670E083EE92E10E94A12C6BE1E1
:100A900070E083EE92E1DADF60E070E083EE92E1F5
:100AA000D5DF83EE92E10E941B2D68E670E083EEB5
:100AB00092E10E94A12C6CE170E083EE92E1C6DF2E
:100AC00068E170E083EE92E1C1DF83EE92E10C9485
:100AD0001B2DCF93DF93C2EDD8E06091FE0870919B
:100AE000FF0880910009909101090E94221420E0E2
:100AF00030E040E05AE30E94D614688379838A8309
:100B00009B836091FA087091FB088091FC0890919A
:100B1000FD080E94221420E030E040E05AE30E94E9
:100B2000D6146C837D838E839F836091F6087091C9
:100B3000F7088091F8089091F9080E94221420E0AB
:100B400030E040E05AE30E94D614688779878A87AC
:100B50009B87DF91CF910895CF93DF93C2EDD8E0CB
:100B60006091F2087091F3088091F4089091F50873
:100B70000E94221420E030E044E253E40E948713F4
:100B80006C877D878E879F876091EE087091EF0854
:100B90008091F0089091F1080E94221420E030E04A
:100BA00044E253E40E948713688B798B8A8B9B8B7A
:100BB0006091EA087091EB088091EC089091ED0843
:100BC0000E94221420E030E044E253E40E948713A4
:100BD0006C8B7D8B8E8B9F8BDF91CF910895CF9304
:100BE00068E670E083EE92E10E94A12C6BE370E076
:100BF00083EE92E12BDF83EE92E10E941B2D46E013
:100C000050E068E670E083EE92E10E94182D83EEDA
:100C100092E10E94B72B0697D4F383EE92E10E94F3
:100C2000BF2BC82F83EE92E10E94BF2B20E030E063
:100C30003C2F822B932B092E000CAA0BBB0B80930D
:100C4000FE089093FF08A0930009B093010983EE7A
:100C500092E10E94BF2BC82F83EE92E10E94BF2B2E
:100C600020E030E03C2F822B932B092E000CAA0BA6
:100C7000BB0B8093FA089093FB08A093FC08B093F9
:100C8000FD0883EE92E10E94BF2BC82F83EE92E114
:100C90000E94BF2B20E030E03C2F822B932B092EAB
:100CA000000CAA0BBB0B8093F6089093F708A09357
:100CB000F808B093F908CF910CCFCF9368E670E0B5
:100CC00083EE92E10E94A12C63E470E083EE92E156
:100CD000BDDE83EE92E10E941B2D46E050E068E607
:100CE00070E083EE92E10E94182D83EE92E10E9463
:100CF000B72B0697D4F383EE92E10E94BF2BC82F47
:100D000083EE92E10E94BF2B20E030E03C2F822B4B
:100D1000932B092E000CAA0BBB0B8093F208909327
:100D2000F308A093F408B093F50883EE92E10E94D3
:100D3000BF2BC82F83EE92E10E94BF2B20E030E052
:100D40003C2F822B932B092E000CAA0BBB0B8093FC
:100D5000EE089093EF08A093F008B093F10883EEAB
:100D600092E10E94BF2BC82F83EE92E10E94BF2B1D
:100D700020E030E03C2F822B932B092E000CAA0B95
:100D8000BB0B8093EA089093EB08A093EC08B09318
:100D9000ED08CF91E1CECF93DF93EC0120DF8DDF23
:100DA00088E1E2EDF8E0DE0101900D928A95E1F72D
:100DB000CE01DF91CF91089580E090E0089563E047
:100DC00072E089E59FE00E94811926E040EC52E143
:100DD00060E070E080910802909109020E943E1646
:100DE00060910802709109028EE39AE00E94E32E5E
:100DF000811107C060EF71E089E59FE00E948119D1
:100E0000FFCF6EED71E089E59FE00E94811966E2F7
:100E100073E080910802909109020E94761964E3C0
:100E200073E089E59FE00C94A1190F931F93CF9372
:100E3000DF93CDB7DEB7C056D1090FB6F894DEBF49
:100E40000FBECDBF6FE373E089E59FE00E94A1195B
:100E500087E0E1E2F2E0DE01919601900D928A9541
:100E6000E1F7FE01B89689E1DF011D928A95E9F765
:100E7000809107028F93809106028F9382E593E021
:100E80009F938F938E010F5F1F4F1F930F930E94AD
:100E9000F346B801CE0181960E947946AE014F5DBE
:100EA0005F4FBE016F5B7F4F8EE39AE00E947B3005
:100EB0000F900F900F900F900F900F90811103C023
:100EC00066E971E002C060E971E089E59FE00E9497
:100ED0008119609102098EE39AE00E9433318823E0
:100EE00039F06CE871E089E59FE00E94811916C035
:100EF0006FE671E089E59FE00E9444196091020964
:100F0000709103094AE050E089E59FE00E947B1A56
:100F100063E671E08EE39AE00E944419C05ADF4F05
:100F20000FB6F894DEBF0FBECDBFDF91CF911F91FA
:100F30000F91089566E18EE39AE00E945C2DEEE346
:100F4000FAE086EA93E09183808384E085870895C0
:100F5000AF92BF92CF92DF92EF92FF920F931F93C7
:100F6000CF93DF93CDB7DEB7C456D1090FB6F8944F
:100F7000DEBF0FBECDBF8EE39AE00E94202D892BED
:100F800009F4F9C07E0183E6E80EF11CD7011D9239
:100F90001C920EEF19E08DE3A82E8AE0B82E6801AE
:100FA0008EE39AE00E94382DF80181938F01682F1B
:100FB00089E59FE00E94D11561E070E080E090E05B
:100FC0000E94261CD6018C918A3049F08EE39AE06B
:100FD0000E94202D892B19F0A016B10601F7F60109
:100FE0001182FF92EF9283E993E09F938F938EEFAC
:100FF00099E09F938F930E9421470F900F900F903D
:101000000F900F900F90019709F0B5C067E573E05E
:1010100089E59FE00E947619F701608171814AE0BD
:1010200050E089E59FE00E947B1A2FE130E0AE019D
:101030004F5B5F4FD7016C918EE39AE00E94BC3208
:10104000811106C06EE573E089E59FE00E94A11959
:1010500067ED71E089E59FE00E944419BE016F5B76
:101060007F4F89E59FE00E94A1198E010F591F4F04
:101070002AEF30E044E059E0F70160818EE39AE026
:101080000E94B931882331F064E079E089E59FE07E
:101090000E94A1196FE773E089E59FE00E94A11902
:1010A00087E0E1E2F2E0DE01919601900D928A95EF
:1010B000E1F7FE01B89689E1DF011D928A95E9F713
:1010C000809107028F93809106028F9382E593E0CF
:1010D0009F938F938E010F5F1F4F1F930F930E945B
:1010E000F346B801CE0181960E947946AE014F5D6C
:1010F0005F4FBE016F5B7F4F8EE39AE00E947B30B3
:101100000F900F900F900F900F900F90811103C0D0
:1011100060ED71E002C06AEC71E089E59FE00E9439
:10112000811968EE73E080E090E00E94261CF701D0
:1011300060818EE39AE00E943331882339F066ECB7
:1011400071E089E59FE00E94811915C069EA71E0AC
:1011500089E59FE00E944419D7016D917C914AE096
:1011600050E089E59FE00E947B1A6DE971E08EE313
:101170009AE00E944419CC59DF4F0FB6F894DEBFB5
:101180000FBECDBFDF91CF911F910F91FF90EF90D8
:10119000DF90CF90BF90AF900895CF93DF93EC0195
:1011A00088E59BE00E945C231B8688E59BE00E940B
:1011B000EF25882371F088E59BE00E94F425BC01AF
:1011C00088E59BE00E949B26811130C081E08B87DF
:1011D0002DC02091CF0B28838091D00B90E09A8373
:1011E0008983222319F16091940B7091950B809162
:1011F000960B9091970B0E94EF137C836B838091E9
:10120000CC0B8D836091980B7091990B80919A0B08
:1012100090919B0B0E94EF137F836E838091CD0B87
:1012200088878091D20B90E09A878987CE01DF91E1
:10123000CF91089563E970E188E59BE00C946A25FD
:1012400060E08FE10E94481D61E082E20E94481D3B
:1012500061E087E20E94481D61E089E20E94481D2A
:1012600061E08DE20E94481D61E085E20E94481D18
:1012700061E083E20E94481D60E087E20E94841DD5
:1012800061E082E20E94841D60E089E20E94841D88
:1012900061E08DE20E94841D61E085E20E94841D70
:1012A00060E083E20E94841D26E040E855E260E0B1
:1012B00070E089E59FE00E943E168091BF0D882373
:1012C00031F064E172E089E59FE00E94811926E037
:1012D00040E855E260E070E086EF9FE00E943E1635
:1012E00026E040E855E260E070E083E990E10E948A
:1012F0003E1626E040E855E260E070E080E391E1D0
:101300000E943E16AADB8091BF0D882331F064EB6A
:1013100073E089E59FE00E94A11951CD0F931F93BF
:10132000CF93DF938091BF0D882331F06BEB73E097
:1013300089E59FE00E94A11961E087E20E94841D77
:1013400064EF71E080E090E00E94261CCAE0D0E0EB
:1013500083EE9DE00E94D42A080F191F2197C1F740
:1013600060E087E20E94841DC8016AE070E00E948C
:101370005643CB01DF91CF911F910F9108950F93A9
:101380001F9300EA1FE024E130E04DE150E06BE103
:1013900070E083EE9DE00E946E2A1F910F910895E8
:1013A0000F931F93CF93DF938091BF0D882331F06C
:1013B0006CEC73E089E59FE00E94A1198091C00D5B
:1013C000811198C061E087E20E94841D61E083E2A0
:1013D0000E94841D68EE73E080E090E00E94261C6D
:1013E000C1D783EE9DE00E94D42A9093B40D8093E0
:1013F000B30D8091BF0D882381F06CED73E089E51A
:101400009FE00E9476196091B30D7091B40D4AE08F
:1014100050E089E59FE00E947B1A8091BB0D80938C
:10142000B70D81E08093B80DB1D72093DD0D3093D7
:10143000DE0D4093DF0D5093E00D6093E10D70934E
:10144000E20D81E02091E10D3091E20D232B09F4B2
:1014500080E08093B90D8091BF0D882309F44AC0C4
:101460006CEE73E089E59FE00E94A11961E074E0F1
:1014700089E59FE00E9476196091B30D7091B40DDB
:101480004AE050E089E59FE00E947B1A61E174E048
:1014900089E59FE00E9476196091B70D70E04AE0FF
:1014A00050E089E59FE00E947B1A6CE174E089E5D9
:1014B0009FE00E9476196091B80D70E04AE050E01C
:1014C00089E59FE00E947B1A68E274E089E59FE06D
:1014D0000E9476196091E10D7091E20D4AE050E0B2
:1014E00089E59FE00E947B1A68EE73E080E090E05F
:1014F0000E94261C80910E0290910F022091B30D44
:101500003091B40D821B930B9093B60D8093B50D63
:10151000D091BC0D8091BD0DD111CDC0882321F09B
:10152000813009F47FC086C18091BF0D882361F0AE
:1015300069E374E089E59FE00E94A11964EF71E01E
:1015400080E090E00E94261C2091B70D8091E10D73
:101550009091E20D822B892BC9F08091BF0D8823D9
:10156000B9F062E574E089E59FE00E9476194AE0EF
:1015700050E061E070E089E59FE00E947B1A68EE30
:1015800073E080E090E00E94261C02C020E001C0D1
:1015900021E08091C00D8823E9F089E59FE00E9459
:1015A0005315C1E0C09709F4C0E06CE574E089E52B
:1015B0009FE00E94A11989E59FE00E943915892BBF
:1015C000D1F389E59FE00E94531521E0C09719F4FB
:1015D00020E001C0C1E0C22309F42DC181E0809365
:1015E000BC0D8091BF0D882379F06AE674E089E52F
:1015F0009FE00E9476196091BC0D70E04AE050E0D7
:1016000089E59FE00E947B1A87E0E3EBFDE0ACEA0E
:10161000BDE001900D928A95E1F781E080930C0284
:10162000DC2F09C18091BF0D882361F06AE774E067
:1016300089E59FE00E94A11964EF71E080E090E0ED
:101640000E94261C8091C00D811109C08091BE0DA1
:101650008650843058F585E08093BE0D27C063E93D
:1016600074E089E59FE00E94A11989E59FE00E944E
:101670003915892BD1F389E59FE00E9453158C0120
:101680006CE574E089E59FE00E94A11989E59FE07F
:101690000E943915892BD1F389E59FE00E945315EB
:1016A0000033110599F6C09789F6C5C081E0809393
:1016B000BC0DD1E0C0C0882321F0813009F477C08F
:1016C000B9C08091BF0D882361F06CEA74E089E5B0
:1016D0009FE00E94A11964EF71E080E090E00E9419
:1016E000261C8091AE0D9091AF0D8B3A91055CF068
:1016F0008091B50D9091B60D8A3A910524F490939E
:10170000AF0D8093AE0D8091B10D882331F08091A3
:10171000B80D811102C01092B10D8091B20D8823D5
:1017200031F08091B90D811102C01092B20D8091FB
:10173000C00D882349F163E974E089E59FE00E94C8
:10174000A11989E59FE00E943915892BD1F389E51C
:101750009FE00E945315C1E0C09709F4C0E06CE51A
:1017600074E089E59FE00E94A11989E59FE00E944D
:101770003915892BD1F389E59FE00E94531521E0AB
:10178000C09721F420E002C020E0C0E081E0822781
:10179000C81708F04FC01092BC0D87E0E3EBFDE0E6
:1017A000ACEABDE001900D928A95E1F743C08091CB
:1017B000BF0D882361F061EC74E089E59FE00E9431
:1017C000A11964EF71E080E090E00E94261C8091F6
:1017D000AE0D9091AF0D8B3A91055CF08091B50DF7
:1017E0009091B60D8A3A910524F49093AF0D8093B1
:1017F000AE0D8091B10D882331F08091B80D81112B
:1018000002C01092B10D8091C00D882321F267EDC6
:1018100074E089E59FE00E94A11989E59FE00E949C
:101820003915892BD1F389E59FE00E945315C097A4
:1018300009F4B1CF01C08D2FDF91CF911F910F918E
:101840000895CF92DF92EF92FF920F931F93CF9361
:10185000DF93CDB7DEB7AA970FB6F894DEBF0FBE01
:10186000CDBF8091BF0D882331F062EF74E089E530
:101870009FE00E94A11986EF9FE00E943915892BF5
:1018800059F066DB8091BF0D882331F067EF74E07B
:1018900089E59FE00E94A11980E391E10E9439153A
:1018A000892BE9F180E391E10E9453158C0180912D
:1018B000BF0D882329F0602F89E59FE00E947719EA
:1018C0008091BF0D882331F065E075E089E59FE0E8
:1018D0000E94A11961E08DE20E94841DC801992730
:1018E00083359105C9F044F48E349105C1F410920A
:1018F0000B0210920A0213C08935910531F083372B
:10190000910569F41092B80D0AC081E090E09093BF
:101910000B0280930A0203C081E08093B80D83E933
:1019200090E10E943915892B09F47AC08091BF0D8E
:10193000882331F069E175E089E59FE00E94A119F3
:10194000CE0107962ADC8CE0FE013796A0EABDE0C6
:1019500001900D928A95E1F78091BF0D882309F4DB
:101960005FC067E275E089E59FE00E9476196091AB
:10197000A00D70E04AE050E089E59FE00E94751AF2
:101980006DE275E089E59FE00E9476196091A10DF6
:101990007091A20D4AE050E089E59FE00E947B1A19
:1019A0008091A00D8823E1F168E375E089E59FE06F
:1019B0000E9476196091A30D7091A40D44E050E04F
:1019C00089E59FE00E94751A6091A50D89E59FE069
:1019D0000E94771964E573E089E59FE00E9476191B
:1019E0006091A60D7091A70D44E050E089E59FE05D
:1019F0000E94751A6091A80D89E59FE00E94B119B7
:101A000063E475E089E59FE00E9476196091A90D75
:101A10007091AA0D4AE050E089E59FE00E947B1A90
:101A20008091BE0D882309F413C18091BC0D8111F2
:101A30000BC085E20E94B21D892B31F060E085E287
:101A40000E94841D1092BA0D86D560939C0D7093F0
:101A50009D0D80939E0D90939F0D8091BF0D8823C7
:101A6000A9F060E575E089E59FE00E947619609134
:101A70009C0D70919D0D80919E0D90919F0DAFD604
:101A80004AE050E089E59FE00E947B1A8091C00DFA
:101A9000882349F16DE575E089E59FE00E94A11971
:101AA00089E59FE0E6D7892BD9F369E57FE0CE0190
:101AB00001960E94941BBE016F5F7F4F89E59FE0F6
:101AC0000E949119CE0101960E949C1EBBD6609384
:101AD0009C0D70939D0D80939E0D90939F0DCE0154
:101AE00001960E94DA1DC0909C0DD0909D0DE09053
:101AF0009E0DF0909F0D20E030E040EA52E4C701D7
:101B0000B60101D687FF03C01092BD0D0CC020E0C6
:101B100030E040EA52E4C701B60144D787FD03C074
:101B200081E08093BD0D8091C00D811142C0CE0136
:101B3000439631D988E1FE017396A5ECBDE0019092
:101B40000D928A95E1F78091BF0D882309F453C067
:101B500064E775E089E59FE00E9476194091C50D24
:101B60005091C60D6091C70D7091C80D22E030E014
:101B700089E59FE00E94551B4091C90D5091CA0D07
:101B80006091CB0D7091CC0D22E030E089E59FE0B3
:101B90000E94551B4091CD0D5091CE0D6091CF0DFF
:101BA0007091D00D22E030E089E59FE00E94561B45
:101BB00022C06AE775E089E59FE00E94A11966E905
:101BC00075E089E59FE00E94A11989E59FE051D762
:101BD000892BD9F389E59FE066D7C097BC01990F9F
:101BE000880B990B2FD66093C50D7093C60D80930B
:101BF000C70D9093C80D2091C90D3091CA0D409129
:101C0000CB0D5091CC0D6091C50D7091C60D80919A
:101C1000C70D9091C80D13D52091CD0D3091CE0DEB
:101C20004091CF0D5091D00D0AD52AE939E949E903
:101C30005FE3B8D687FD0CC01092BE0D8091BF0D3A
:101C4000882331F06FEA75E089E59FE00E947619FC
:101C50008091C40D882319F085E08093BE0DA0DB30
:101C60008091BE0D90E08A30910508F050C3FC01D0
:101C70008827EE58FF4F8F4F0C94A7438091BF0DDC
:101C8000882361F061EC75E089E59FE00E94A1196D
:101C900064EF71E080E090E00E94261C80910D02CC
:101CA000811103C081E080930C021092C40D85E283
:101CB0000E94B21D892B21F060E085E20E94841D04
:101CC00082E20E94B21D892B21F060E082E20E9434
:101CD000841D8DE20E94B21D892B21F461E08DE20A
:101CE0000E94841D8091C00D81113AC0CE0143969F
:101CF00052D888E1FE017396A5ECBDE001900D92EB
:101D00008A95E1F78091BF0D882309F455C060EDF5
:101D100075E089E59FE00E9476192091C90D309108
:101D2000CA0D4091CB0D5091CC0D6091CD0D7091AD
:101D3000CE0D8091CF0D9091D00D81D42091C50D05
:101D40003091C60D4091C70D5091C80D78D4AB01AC
:101D5000BC0122E030E089E59FE00E94561B2CC0C8
:101D600064ED75E089E59FE00E94A11966E975E0E0
:101D700089E59FE00E94A11989E59FE07AD6892B29
:101D8000D9F389E59FE08FD68C014AE050E0BC0191
:101D900089E59FE00E947B1AB80160537109072E04
:101DA000000C880B990B4ED56093C50D7093C60D32
:101DB0008093C70D9093C80D2091C90D3091CA0D25
:101DC0004091CB0D5091CC0D6091C50D7091C60D19
:101DD0008091C70D9091C80D32D42091CD0D3091D6
:101DE000CE0D4091CF0D5091D00D29D42AE939E97B
:101DF00049E95FE388D418160CF48BC281E0809324
:101E0000BE0D83E090E090930B0280930A020E9443
:101E1000F51B6093980D7093990D80939A0D909394
:101E20009B0D8091BF0D882309F48DC260EE75E093
:101E300089E59FE00E94A11964EF71E080E090E0E5
:101E400079C28091BF0D882361F06AEF75E089E562
:101E50009FE00E94A11964EF71E080E090E00E9491
:101E6000261C0E94F51B0091980D1091990D209150
:101E70009A0D30919B0DDC01CB01801B910BA20BC5
:101E8000B30B81319742A105B10508F45CC2809182
:101E9000BF0D882331F067E076E089E59FE00E947E
:101EA000A1197EDA882321F061E085E20E94841D79
:101EB00060E08DE20E94841D64E480E391E171D6CC
:101EC0008091BF0D882301F180E391E1ECD54AE0D8
:101ED00050E0BC0189E59FE00E94751A6DE176E053
:101EE00089E59FE00E94761960910A0270910B02C9
:101EF0004AE050E089E59FE00E947B1A68EE73E0BB
:101F000080E090E00E94261C80910A0290910B02D2
:101F1000009721F482E08093BE0D15C2019709F06D
:101F200012C281E08093BE0DF4C160E08DE20E9498
:101F3000841D63E580E391E10E9477198091BF0DD4
:101F4000882361F06BE276E089E59FE00E94A119A9
:101F500064EF71E080E090E00E94261C8091C00D4B
:101F6000882331F06AE376E089E59FE00E94A119B9
:101F700020E030E040EA52E460919C0D70919D0DAC
:101F800080919E0D90919F0D0DD587FD02C086E03A
:101F900001C085E08093BE0D81E08093C20D109258
:101FA000C30DD1C18091BF0D882361F066E476E056
:101FB00089E59FE00E94A11964EF71E080E090E064
:101FC0000E94261C82E20E94B21D892B31F060E043
:101FD00082E20E94841D1092BA0D8091C30D81117E
:101FE0001092C30D8091C00D882331F06DE476E02E
:101FF00089E59FE00E94A1198091BC0D811110C05C
:102000008091C20D8823C1F01092C20D8091C00D45
:10201000811112C083D990930F0280930E020CC0DD
:1020200085E20E94B21D892B21F461E085E20E94C5
:10203000841D89E10E94B21D20E030E040EA52E4B4
:1020400060919C0D70919D0D80919E0D90919F0DC2
:10205000A9D487FD5EC18091C40D81115AC186E06B
:1020600098C08091BF0D882361F061E576E089E535
:102070009FE00E94A11964EF71E080E090E00E946F
:10208000261C81E08093BA0D8091C00D882331F029
:1020900068E576E089E59FE00E94A1198091BC0D7A
:1020A0008823C1F080910D028823A1F00E941507BA
:1020B00010920D028091BF0D882361F06CE576E0EF
:1020C00089E59FE00E94A11964EF71E080E090E053
:1020D0000E94261CC0909C0DD0909D0DE0909E0DFE
:1020E000F0909F0D20E030E04CEA52E4C701B601C9
:1020F00059D4181614F487E04CC020E030E040EAD0
:1021000052E4C701B601FFD287FF03C182E080938A
:10211000BE0D81E08093C30D16C18091BF0D882351
:1021200061F068E676E089E59FE00E94A11964EF1E
:1021300071E080E090E00E94261C8091C00D882311
:1021400031F06FE676E089E59FE00E94A119809169
:10215000BF0D882361F063E776E089E59FE00E9488
:10216000A11964EF71E080E090E00E94261CC0900D
:102170009C0DD0909D0DE0909E0DF0909F0D20E065
:1021800030E046EB52E4C701B6010CD4181654F403
:1021900088E08093BE0D1092C30D60E08DE20E9436
:1021A000841D64C020E030E04CEA52E4AACF809164
:1021B000BF0D882361F061E876E089E59FE00E9429
:1021C000A11964EF71E080E090E00E94261C8091EC
:1021D000C00D882331F068E876E089E59FE00E9431
:1021E000A1198091C10D882359F18091BC0D8823DC
:1021F00039F18091BF0D882361F06CE876E089E5C4
:102200009FE00E94A11964EF71E080E090E00E94DD
:10221000261C89E20E94B21D892B71F461E089E2DB
:102220000E94841D68EE73E080E090E00E94261C0E
:1022300060E089E20E94841D0E9415071092C10D82
:10224000C0909C0DD0909D0DE0909E0DF0909F0D44
:1022500020E030E042ED52E4C701B601A3D31816E6
:102260005CF489E08093BE0D1092C30D63E580E3BA
:1022700091E10E94771967C020E030E046EB52E41C
:1022800040CF8091BF0D882361F066E976E089E553
:102290009FE00E94A11964EF71E080E090E00E944D
:1022A000261C8091C00D882331F06DE976E089E528
:1022B0009FE00E94A11980910C028823D9F080919F
:1022C000BC0D8823B9F041E050E061EA76E080E39C
:1022D00091E19BD78091BF0D882361F063EA76E09E
:1022E00089E59FE00E94A11964EF71E080E090E031
:1022F0000E94261C20E030E042ED52E460919C0DEB
:1023000070919D0D80919E0D90919F0DFCCE10922D
:10231000BE0D8DE20E94B21D892BA9F08091C00DE7
:1023200081110BC08091BF0D811107C068EE73E071
:1023300080E090E00E94261C06C06DEA76E089E508
:102340009FE0FFD7F3CFAA960FB6F894DEBF0FBE7B
:10235000CDBFDF91CF911F910F91FF90EF90DF9054
:10236000CF90089569E68BEE9DE00E94EE1E8111EC
:1023700006C063EB76E089E59FE0E3D7FFCF64E634
:1023800070E080E090E00C94261C08952F923F921C
:102390004F925F926F927F928F929F92AF92BF9275
:1023A000CF92DF92EF92FF920F931F93CF93DF9321
:1023B000CDB7DEB760970FB6F894DEBF0FBECDBFC6
:1023C00040E462E47EE08BEE9DE00E946B1F92E4AD
:1023D000C92E9EE0D92E00E010E0A12CB12CF60110
:1023E00041905190619071906F01B801012E000CE5
:1023F000880B990B27D29B01AC01C301B201D2D249
:10240000181624F4C301B201EAD18B0120E030E0B8
:1024100048EB51E4C301B201C5D287FD03C0FFEF11
:10242000AF1ABF0A82E4C8168FE0D806C1F61A8335
:102430000983FE0131966F011E01F9E02F0E311C58
:1024400082E4882E8EE0982EF401419051906190A4
:1024500071904F01F60162817381072E000C880B89
:10246000990BF0D19B01AC01C301B2019BD21816AC
:10247000B4F4F60160817181072E000C880B990B72
:10248000E1D19B01AC01C301B2013DD187FF07C07F
:10249000C301B201A4D1F601738362830AC0B701FC
:1024A000FF0C880B990BCED1A3019201C8D097D114
:1024B0007B0182E49FE08815990509F0C5CF92E081
:1024C000C90ED11CC214D30409F0BACF1C870B87E4
:1024D000BE86AD86C7016BE370E00E945643025092
:1024E000110981E090E0601771070CF080E02B8506
:1024F0003C854D855E85BC0180E090E060960FB61E
:10250000F894DEBF0FBECDBFDF91CF911F910F9129
:10251000FF90EF90DF90CF90BF90AF909F908F9003
:102520007F906F905F904F903F902F90089520E3A1
:1025300041E365E38BEF9DE00C949129FC01862F2C
:102540006083218332834383548360E00C94481D6D
:1025500087E49FE068C0FCCF20E030E040EA50E430
:1025600067E387E49FE008D020E030E040EA50E4F1
:1025700067E382E49FE0E2CFCF92DF92EF92FF9297
:102580001F93CF93DF93EC01162F69017A0160E06E
:10259000812F0E94481DCA82DB82EC82FD82188353
:1025A000DF91CF911F91FF90EF90DF90CF90089532
:1025B000CF93DF93EC0188810E94CD1C8983BC01FD
:1025C0007727072E000C880B990B3CD120E030E0D8
:1025D00040E85AE3EBD12A813B814C815D81E6D111
:1025E0006E837F838887998720E030E040E05FE357
:1025F00025D020E030E048EC52E4D8D16A877B87D0
:102600008C879D8726E636E646EE5FE3CFD120E055
:1026100030E040E052E413D06E877F87888B998B3F
:10262000DF91CF910895CF93DF93EC01C1DF6E85E9
:102630007F8588899989DF91CF9108955058BB276C
:10264000AA270ED075C166D130F06BD120F031F4DD
:102650009F3F11F41EF45BC10EF4E095E7FB51C1FE
:10266000E92F77D180F3BA176207730784079507BC
:1026700018F071F49EF58FC10EF4E0950B2EBA2F71
:10268000A02D0B01B90190010C01CA01A001112478
:10269000FF27591B99F0593F50F4503E68F11A1624
:1026A000F040A22F232F342F4427585FF3CF4695B5
:1026B00037952795A795F0405395C9F77EF41F16D7
:1026C000BA0B620B730B840BBAF09150A1F0FF0FA1
:1026D000BB1F661F771F881FC2F70EC0BA0F621F8D
:1026E000731F841F48F4879577956795B795F7957D
:1026F0009E3F08F0B3CF9395880F08F09927EE0F0F
:10270000979587950895D9D008F481E008950CD065
:102710000FC107D140F0FED030F021F45F3F19F037
:10272000F0C0511139C1F3C014D198F39923C9F302
:102730005523B1F3951B550BBB27AA2762177307C7
:10274000840738F09F5F5F4F220F331F441FAA1F7B
:10275000A9F333D00E2E3AF0E0E830D0915050403B
:10276000E695001CCAF729D0FE2F27D0660F771FE9
:10277000881FBB1F261737074807AB07B0E809F0CB
:10278000BB0B802DBF01FF2793585F4F2AF09E3F60
:10279000510568F0B6C000C15F3FECF3983EDCF332
:1027A000869577956795B795F7959F5FC9F7880FD9
:1027B000911D9695879597F90895E1E0660F771F2B
:1027C000881FBB1F621773078407BA0720F0621BBC
:1027D000730B840BBA0BEE1F88F7E095089504D0B5
:1027E0006894B111D9C00895BCD088F09F5790F07B
:1027F000B92F9927B751A0F0D1F0660F771F881F26
:10280000991F1AF0BA95C9F712C0B13081F0C3D040
:10281000B1E00895C0C0672F782F8827B85F39F0DE
:10282000B93FCCF3869577956795B395D9F73EF484
:1028300090958095709561957F4F8F4F9F4F08952C
:10284000E89409C097FB3EF490958095709561954A
:102850007F4F8F4F9F4F9923A9F0F92F96E9BB2700
:102860009395F695879577956795B795F111F8CF7C
:10287000FAF4BB0F11F460FF1BC06F5F7F4F8F4FE7
:102880009F4F16C0882311F096E911C0772321F0DD
:102890009EE8872F762F05C0662371F096E8862F75
:1028A00070E060E02AF09A95660F771F881FDAF7CC
:1028B000880F9695879597F90895990F0008550FF9
:1028C000AA0BE0E8FEEF16161706E807F907C0F0B6
:1028D00012161306E407F50798F0621B730B840BBE
:1028E000950B39F40A2661F0232B242B252B21F498
:1028F00008950A2609F4A140A6958FEF811D811D38
:10290000089597F99F6780E870E060E008959FEF71
:1029100080EC089500240A94161617061806090676
:10292000089500240A941216130614060506089545
:10293000092E0394000C11F4882352F0BB0F40F4CD
:10294000BF2B11F460FF04C06F5F7F4F8F4F9F4F0D
:10295000089557FD9058440F551F59F05F3F71F08F
:102960004795880F97FB991F61F09F3F79F08795F6
:102970000895121613061406551FF2CF4695F1DF7F
:1029800008C0161617061806991FF1CF869571050F
:10299000610508940895E894BB2766277727CB0143
:1029A00097F908958ADF08F48FEF08950BD0C0CF10
:1029B000B1DF28F0B6DF18F0952309F0A2CFA7CF3A
:1029C0001124EACFC6DFA0F3959FD1F3950F50E015
:1029D000551F629FF001729FBB27F00DB11D639FD1
:1029E000AA27F00DB11DAA1F649F6627B00DA11D77
:1029F000661F829F2227B00DA11D621F739FB00D1D
:102A0000A11D621F839FA00D611D221F749F33278C
:102A1000A00D611D231F849F600D211D822F762F25
:102A20006A2F11249F5750408AF0E1F088234AF022
:102A3000EE0FFF1FBB1F661F771F881F915050406E
:102A4000A9F79E3F510570F05CCFA6CF5F3FECF336
:102A5000983EDCF3869577956795B795F795E7955A
:102A60009F5FC1F7FE2B880F911D9695879597F96B
:102A70000895FC01918D228D892F90E0805C9F4FFD
:102A8000821B91098F7399270895FC01918D828D86
:102A9000981731F0828DE80FF11D858D90E0089533
:102AA0008FEF9FEF0895FC01918D828D981761F053
:102AB000828DDF01A80FB11D5D968C91928D9F5F75
:102AC0009F73928F90E008958FEF9FEF0895FC0120
:102AD000538D448D252F30E0842F90E0821B930B83
:102AE000541710F0CF9608950197089583E097E169
:102AF000892B39F080E090E0892B19F084D1811185
:102B000022C088E997E1892B39F080E090E0892B99
:102B100019F00ED281111AC08DE298E1892B39F09B
:102B200080E090E0892B19F098D2811112C082ECDC
:102B300098E1892B99F080E090E0892B79F022D3FD
:102B400081110AC008950E940000DBCF0E9400009E
:102B5000E3CF0E940000EBCF0C9400000895FC012D
:102B6000848DDF01A80FB11DA35ABF4F2C91848D16
:102B700090E001968F739927848FA689B7892C934B
:102B8000A089B1898C91837080648C93938D848D9E
:102B9000981306C00288F389E02D80818F7D8083A1
:102BA0000895EF92FF920F931F93CF93DF93EC0161
:102BB00081E0888F9B8D8C8D981305C0E889F989F9
:102BC000808185FD25C0F62E0B8D10E00F5F1F4F15
:102BD0000F731127E02E8C8DE8120BC00FB607FC87
:102BE000FACFE889F989808185FFF5CFCE01B7DF7B
:102BF000F2CF8B8DFE01E80FF11DE35AFF4FF082FB
:102C00009FB7F8940B8FEA89FB89808180620AC0A4
:102C10009FB7F894EE89FF896083E889F9898081FC
:102C20008370806480839FBF81E090E0DF91CF91CB
:102C30001F910F91FF90EF900895CF93DF93EC01D8
:102C4000888D8823C1F0EA89FB89808185FD05C0D4
:102C5000A889B9898C9186FD0EC00FB607FCF5CF07
:102C6000808185FFF2CFA889B9898C9185FFEDCF4E
:102C7000CE0175DFE8CFDF91CF910895CF92DF923B
:102C8000EF92FF921F93CF93DF93EC016A017B01D8
:102C9000122FE889F98982E080834115514E610540
:102CA0007105B1F060E079E08DE390E0A701960155
:102CB0000E946943DA01C9010197A109B109B695DA
:102CC000A795979587959C01211580E13807A8F075
:102CD000E889F989108260E874E88EE190E0A70144
:102CE00096010E946943DA01C9010197A109B1095E
:102CF000B695A795979587959C01EC85FD853083C2
:102D0000EE85FF852083188EEC89FD891083EA8982
:102D1000FB89808180618083EA89FB89808188606A
:102D20008083EA89FB89808180688083EA89FB89C6
:102D300080818F7D8083DF91CF911F91FF90EF90F5
:102D4000DF90CF90089508951F920F920FB60F92C3
:102D500011240BB60F922F938F939F93EF93FF93B2
:102D6000E091690FF0916A0F8081E0916F0FF0910F
:102D7000700F82FD12C090818091720F8F5F8F73F0
:102D80002091730F821751F0E091720FF0E0E75A33
:102D9000F04F958F8093720F01C08081FF91EF916A
:102DA0009F918F912F910F900BBE0F900FBE0F90A0
:102DB0001F9018951F920F920FB60F9211240BB609
:102DC0000F922F933F934F935F936F937F938F93C4
:102DD0009F93AF93BF93EF93FF9389E59FE0BFDE8F
:102DE000FF91EF91BF91AF919F918F917F916F91E3
:102DF0005F914F913F912F910F900BBE0F900FBE9F
:102E00000F901F90189589E59FE033DE21E0892B14
:102E100009F420E0822F0895E9E5FFE01382128291
:102E200088EE93E0A0E0B0E084839583A683B78327
:102E30008CEE96E09183808385EC90E09587848783
:102E400084EC90E09787868780EC90E0918B808B74
:102E500081EC90E0938B828B82EC90E0958B848B5D
:102E600086EC90E0978B868B118E128E138E148ECB
:102E700008951F920F920FB60F9211240BB60F9266
:102E80002F938F939F93EF93FF93E0910610F09110
:102E900007108081E0910C10F0910D1082FD12C09E
:102EA000908180910F108F5F8F7320911010821787
:102EB00051F0E0910F10F0E0EA50F04F958F8093C1
:102EC0000F1001C08081FF91EF919F918F912F9101
:102ED0000F900BBE0F900FBE0F901F9018951F9272
:102EE0000F920FB60F9211240BB60F922F933F93B0
:102EF0004F935F936F937F938F939F93AF93BF9302
:102F0000EF93FF9386EF9FE02ADEFF91EF91BF9151
:102F1000AF919F918F917F916F915F914F913F9171
:102F20002F910F900BBE0F900FBE0F901F90189512
:102F300086EF9FE09EDD21E0892B09F420E0822FBF
:102F40000895E6EFFFE01382128288EE93E0A0E09E
:102F5000B0E084839583A683B7838CEE96E091835B
:102F600080838DEC90E0958784878CEC90E0978748
:102F7000868788EC90E0918B808B89EC90E0938B36
:102F8000828B8AEC90E0958B848B8EEC90E0978B13
:102F9000868B118E128E138E148E08951F920F92AF
:102FA0000FB60F9211240BB60F922F938F939F930E
:102FB000EF93FF93E091A310F091A4108081E09132
:102FC000A910F091AA1082FD12C090818091AC10DE
:102FD0008F5F8F732091AD10821751F0E091AC108C
:102FE000F0E0ED56FF4E958F8093AC1001C08081CC
:102FF000FF91EF919F918F912F910F900BBE0F90AA
:103000000FBE0F901F9018951F920F920FB60F9240
:1030100011240BB60F922F933F934F935F936F93AF
:103020007F938F939F93AF93BF93EF93FF9383E926
:1030300090E195DDFF91EF91BF91AF919F918F91BD
:103040007F916F915F914F913F912F910F900BBEA8
:103050000F900FBE0F901F90189583E990E109DD46
:1030600021E0892B09F420E0822F0895E3E9F0E1C3
:103070001382128288EE93E0A0E0B0E0848395830F
:10308000A683B7838CEE96E09183808385ED90E0F4
:103090009587848784ED90E09787868780ED90E020
:1030A000918B808B81ED90E0938B828B82ED90E011
:1030B000958B848B86ED90E0978B868B118E128E8C
:1030C000138E148E08951F920F920FB60F92112433
:1030D0000BB60F922F938F939F93EF93FF93E091F3
:1030E0004011F09141118081E0914611F09147111A
:1030F00082FD12C09081809149118F5F8F73209162
:103100004A11821751F0E0914911F0E0E05DFE4E66
:10311000958F8093491101C08081FF91EF919F911C
:103120008F912F910F900BBE0F900FBE0F901F909D
:1031300018951F920F920FB60F9211240BB60F9293
:103140002F933F934F935F936F937F938F939F93AF
:10315000AF93BF93EF93FF9380E391E100DDFF9185
:10316000EF91BF91AF919F918F917F916F915F91FF
:103170004F913F912F910F900BBE0F900FBE0F906C
:103180001F90189580E391E174DC21E0892B09F40C
:1031900020E0822F0895E0E3F1E11382128288EEAD
:1031A00093E0A0E0B0E084839583A683B7838CEEA0
:1031B00096E09183808385E391E09587848784E31B
:1031C00091E09787868780E391E0918B808B81E304
:1031D00091E0938B828B82E391E0958B848B86E3E5
:1031E00091E0978B868B118E128E138E148E08951C
:1031F000089571D3FDDF0E942009C6E7D5E10E9442
:10320000210C2097E1F372DCFACFCF92DF92EF929C
:10321000FF920F931F93CF93DF936C017A018B0181
:10322000C0E0D0E0CE15DF0581F0D8016D918D01B1
:10323000D601ED91FC910190F081E02DC601199528
:10324000892B11F02196EECF7E01C701DF91CF913E
:103250001F910F91FF90EF90DF90CF90089561152F
:10326000710579F0FB0101900020E9F73197AF017A
:10327000461B570BDC01ED91FC910280F381E02DA0
:10328000199480E090E00895EF92FF920F931F93BE
:10329000CF93DF938C017B01C0E0D0E0F701EC0F0E
:1032A000FD1F6491662361F0D801ED91FC910190BE
:1032B000F081E02DC8011995892B11F02196EECFF0
:1032C000CE01DF91CF911F910F91FF90EF90089564
:1032D000DB0114964D915C9115976D917C91DC0109
:1032E000ED91FC910280F381E02D1994B8CFDC01BF
:1032F000ED91FC910190F081E02D199461E373E070
:10330000AECF0F931F93CF93DF93EC01BDDF8C0102
:10331000CE01F4DF800F911FDF91CF911F910F91AC
:1033200008950F931F93CF93DF93EC01D1DF8C01AE
:10333000CE01E4DF800F911FDF91CF911F910F919C
:1033400008950F931F93CF93DF93EC0188DF8C01D7
:10335000CE01D4DF800F911FDF91CF911F910F918C
:1033600008950F931F93CF93DF93EC01C0DF8C017F
:10337000CE01C4DF800F911FDF91CF911F910F917C
:1033800008958F929F92AF92BF92EF92FF920F9308
:103390001F93CF93DF93CDB7DEB7A1970FB6F89405
:1033A000DEBF0FBECDBF7C01FA01CB0119A22230D6
:1033B00008F42AE08E010F5D1F4F822E912CA12C64
:1033C000B12CBF01A50194010E946943F901CA0112
:1033D000015011096A3010F4605D01C0695CD801C8
:1033E0006C93232B242B252B61F7B801C70137DF02
:1033F000A1960FB6F894DEBF0FBECDBFDF91CF917F
:103400001F910F91FF90EF90BF90AF909F908F9082
:1034100008952115310541F4DC01ED91FC910190F5
:10342000F081E02D642F1994ACCF9A01462F50E023
:1034300060E070E0EECF0F931F93CF93DF93EC012A
:10344000F4DF8C01CE015ADF800F911FDF91CF9105
:103450001F910F9108959A01AB0160E070E0D9CF00
:10346000CF92DF92EF92FF920F931F93CF93DF9350
:103470002115310581F4DC01ED91FC910190F08181
:10348000E02D642FDF91CF911F910F91FF90EF906E
:10349000DF90CF9019942A303105F1F477FF1BC0EB
:1034A0006A017B01EC016DE222DF8C014427552784
:1034B000BA014C195D096E097F092AE0CE0161DF6E
:1034C000800F911FDF91CF911F910F91FF90EF908F
:1034D000DF90CF9008952AE0DF91CF911F910F9157
:1034E000FF90EF90DF90CF904CCF9A01AB01770F18
:1034F000660B770BB5CF0F931F93CF93DF93EC0140
:10350000F4DF8C01CE01FADE800F911FDF91CF91A5
:103510001F910F9108957F928F929F92AF92BF92C9
:10352000CF92DF92EF92FF920F931F93CF93DF938F
:103530008C016A017B01722E9A01AB01C701B601B1
:103540000E943643882319F06AEF76E025C04601D1
:103550005701E894B7F82FEF3FEF4FE75FE7C5015A
:10356000B4010E94364381110CC02FEF3FEF4FE7AB
:103570005FE7C501B401C7D818161CF46EEF76E0FA
:103580000BC02FEF3FEF4FE75FE4C701B6010ADA48
:1035900018168CF462E077E0C801DF91CF911F919B
:1035A0000F91FF90EF90DF90CF90BF90AF909F90E2
:1035B0008F907F9054CE2FEF3FEF4FE75FECC70126
:1035C000B601A1D887FDE6CF20E030E0A901C70110
:1035D000B60199D887FF09C06DE2C80188DEEC0109
:1035E000F7FAF094F7F8F09402C0C0E0D0E0B12C04
:1035F00060E070E080E09FE37B1439F020E030E091
:1036000040E251E484D8B394F7CFA701960117D8CC
:103610006B017C01E9D84B015C012AE0AB01BC01E4
:10362000C801AFDEC80FD91F772081F1C501B401F1
:1036300007D99B01AC01C701B60100D86B017C0121
:103640006EE2C80154DEC80FD91F20E030E040E22E
:1036500051E4C701B601AAD94B015C01C5D86B0181
:103660007C014AE050E0C801F6DEC80FD91FB60160
:1036700080E090E0E5D89B01AC01C501B4010E9457
:103680001E136B017C017A947110DFCFCE01DF91A4
:10369000CF911F910F91FF90EF90DF90CF90BF904F
:1036A000AF909F908F907F90089535CF0F931F9389
:1036B000CF93DF93EC012FDF8C01CE011FDE800F53
:1036C000911FDF91CF911F910F9108950F931F9339
:1036D000CF93DF93EC0189D0688779878A879B87AE
:1036E000E881F9810284F385E02DCE01199597FFD9
:1036F00016C07BD0088519852A853B85DC01CB0166
:10370000801B910BA20BB30B0C811D812E813F817D
:1037100080179107A207B30718F38FEF9FEFDF9190
:10372000CF911F910F9108950F931F93CF93DF9324
:10373000EC018B0163E373E0ABD2C801C7DF97FDF7
:1037400004C0682FCE01E5D2F8CFCE01DF91CF9132
:103750001F910F9108951F920F920FB60F9211248F
:103760002F933F938F939F93AF93BF938091CE11ED
:103770009091CF11A091D011B091D1113091CD1174
:1037800023E0230F2D3720F40196A11DB11D05C0A4
:1037900026E8230F0296A11DB11D2093CD11809321
:1037A000CE119093CF11A093D011B093D1118091ED
:1037B000D2119091D311A091D411B091D51101964D
:1037C000A11DB11D8093D2119093D311A093D41158
:1037D000B093D511BF91AF919F918F913F912F9150
:1037E0000F900FBE0F901F9018952FB7F89460910F
:1037F000CE117091CF118091D0119091D1112FBF26
:1038000008953FB7F8948091D2119091D311A0916F
:10381000D411B091D51126B5A89B05C02F3F19F042
:103820000196A11DB11D3FBFBA2FA92F982F882740
:10383000820F911DA11DB11DBC01CD0142E0660F9B
:10384000771F881F991F4A95D1F708958F929F92ED
:10385000AF92BF92CF92DF92EF92FF926B017C0109
:10386000D0DF4B015C01C114D104E104F104F9F093
:103870000E942933C6DFDC01CB0188199909AA0906
:10388000BB09883E9340A105B10568F321E0C21A47
:10389000D108E108F10888EE880E83E0981EA11C8B
:1038A000B11CC114D104E104F10421F7DCCFFF9075
:1038B000EF90DF90CF90BF90AF909F908F90089542
:1038C0008230910538F0880F991F880F991F05974E
:1038D0000197F1F70895789484B5826084BD84B52A
:1038E000816084BD85B5826085BD85B5816085BDFB
:1038F000EEE6F0E0808181608083E1E8F0E0108214
:10390000808182608083808181608083E0E8F0E054
:10391000808181608083E1EBF0E08081846080833E
:10392000E0EBF0E0808181608083E1E9F0E080817C
:1039300082608083808181608083E0E9F0E0808123
:1039400081608083E1EAF0E0808182608083808111
:1039500081608083E0EAF0E0808181608083E1E241
:10396000F1E0808182608083808181608083E0E2F9
:10397000F1E0808181608083EAE7F0E0808184600B
:103980008083808182608083808181608083808168
:10399000806880831092C1000895863308F08653B2
:1039A00090917B00282F2870977F922B90937B001B
:1039B0002091100290E4299F900111248770822B9E
:1039C00080937C0080917A00806480937A0080915B
:1039D0007A0086FDFCCF809178002091790090E0FC
:1039E000922B089590E0FC013197E231F10508F047
:1039F0004EC08827E458FF4F8F4F0C94A743809107
:103A000080008F7703C0809180008F7D809380003D
:103A1000089580918000877FF9CF84B58F7702C0A9
:103A200084B58F7D84BD08958091B0008F7703C0E9
:103A30008091B0008F7D8093B000089580919000B8
:103A40008F7707C0809190008F7D03C08091900098
:103A5000877F8093900008958091A0008F7707C0A2
:103A60008091A0008F7D03C08091A000877F80930C
:103A7000A0000895809120018F7707C080912001D8
:103A80008F7D03C080912001877F8093200108955E
:103A9000CF93DF9390E0FC01EB59FD4F2491FC01A3
:103AA000E555FD4F8491882361F190E0880F991FBF
:103AB000FC01EB5DFC4FC591D491FC01E55FFC4F2F
:103AC000A591B491611109C09FB7F89488812095A0
:103AD00082238883EC912E230BC0623061F49FB760
:103AE000F8948881322F309583238883EC912E2B94
:103AF0002C939FBF06C08FB7F894E8812E2B2883A4
:103B00008FBFDF91CF9108951F93CF93DF93282F1D
:103B100030E0F901E15EFD4F8491F901EB59FD4F71
:103B2000D491F901E555FD4FC491CC23B9F0162F7E
:103B3000811158DFEC2FF0E0EE0FFF1FE55FFC4F27
:103B4000A591B4919FB7F894111104C08C91D095B0
:103B5000D82302C0EC91DE2BDC939FBFDF91CF9185
:103B60001F910895CF93DF93282F30E0F901E15E94
:103B7000FD4F8491F901EB59FD4FD491F901E555C1
:103B8000FD4FC491CC2389F081112CDFEC2FF0E0A4
:103B9000EE0FFF1FEF50FD4FA591B491EC91ED2377
:103BA00081E090E021F480E002C080E090E0DF91CD
:103BB000CF910895FC0180819181009711F00C94C0
:103BC00080440895CF93DF93EC0188819981009719
:103BD00011F00E948044198218821D821C821B826F
:103BE0001A82DF91CF9108950F931F93CF93DF93A4
:103BF000EC018B016F5F7F4F888199810E9409459D
:103C0000009731F0998388831B830A8381E001C088
:103C100080E0DF91CF911F910F910895CF93DF93B3
:103C2000EC0188819981892B29F08A819B818617F3
:103C3000970758F4CE01D8DF882341F08C819D810D
:103C4000892B19F4E881F981108281E0DF91CF910D
:103C50000895EF92FF920F931F93CF93DF93EC01A0
:103C60007B018A01BA01DADF811103C0CE01AADF2C
:103C700007C01D830C83B701888199810E949846F3
:103C8000CE01DF91CF911F910F91FF90EF9008959A
:103C9000FC01118210821382128215821482611536
:103CA000710549F0FB0101900020E9F73197AF0160
:103CB000461B570BCECF0895EF92FF920F931F93A1
:103CC000CF93DF936115710511F480E01BC041159E
:103CD0005105B9F07B01EC018C819D818A01080FAF
:103CE000191FB801CE019ADF882379F32881398121
:103CF0008C819D81B701820F931F0E9498461D837E
:103D00000C8381E0DF91CF911F910F91FF90EF9095
:103D10000895CF93DF931F921F92CDB7DEB76983CB
:103D20001A8241E050E0BE016F5F7F4FC5DF0F9008
:103D30000F90DF91CF910895FC01808191810097D0
:103D400011F00C940E4660E070E0CB010895EF9204
:103D5000FF920F931F93CF93DF93C62F7A01022F09
:103D6000FC01608183EE92E10E94972C6C2F83EE20
:103D700092E10E94462CE70110E0CE018E199F09C6
:103D80008017910734F4699183EE92E10E94462CEA
:103D9000F4CF83EE92E1DF91CF911F910F91FF90CD
:103DA000EF900C941B2DCF93DF931F92CDB7DEB70E
:103DB000498321E0AE014F5F5F4FC9DF0F90DF9174
:103DC000CF910895FC0124812E7F248321FB442779
:103DD00040F950E0440F551F63E0E5CFCF93DF93E8
:103DE000EC01688383EE92E10E94852C198240E009
:103DF00060E0CE01D8DF8FE38A834FE361E0CE013C
:103E0000D2DFCE01DFDF8B818E7F8B8340E062E0EB
:103E1000CE01C9DF64E670E080E090E017DD81E06C
:103E2000DF91CF9108956F927F928F929F92AF9280
:103E3000BF92CF92DF92EF92FF920F931F93CF9397
:103E4000DF938C01662E6A01722EC0E0C715A0F5C3
:103E5000D72DDC1BD13208F0D0E2F801608183EE6F
:103E600092E10E94972C6C2F660D83EE92E10E94E6
:103E7000462C83EE92E10E941B2D4D2FF8016081AC
:103E800083EE92E10E94162D812C912CAD2EB12C47
:103E90008C2F880D8A149B0414F0CD0FD7CF760198
:103EA000E80EF11C83EE92E10E94BF2BF7018083A4
:103EB000FFEF8F1A9F0AECCFDF91CF911F910F91E7
:103EC000FF90EF90DF90CF90BF90AF909F908F903A
:103ED0007F906F9008958F929F92AF92BF92CF92F2
:103EE000DF92EF92FF920F931F93CF93DF93CDB7A3
:103EF000DEB7F62E172F042F8DB69EB6242F220F75
:103F000046FD20E84DB75EB7421B51090FB6F89445
:103F10005EBF0FBE4DBFEDB7FEB731965F01AF017B
:103F200060E881DFCF2CD12EE12CF12C10E0E016DF
:103F3000F1065CF58E2D880FF501E80FF11D61810A
:103F400070E0762F66278081682B94E0660F771FDC
:103F50009A95E1F724E0759567952A95E1F7072E84
:103F6000000C880B990B0E94221420E030E040E8FE
:103F70005EE30E94D614F60161937193819391934D
:103F80006F01FFEFEF1AFF0AD2CF0FB6F8949EBE73
:103F90000FBE8DBEDF91CF911F910F91FF90EF90DB
:103FA000DF90CF90BF90AF909F908F9008950F9328
:103FB000FC0180E092E1AAE7B0E030E04817590741
:103FC0006A077B0740F4B695A795979587953F5F5D
:103FD0003630A1F737E091E09327222311F020E556
:103FE00001C020E70C70892F8695082B022B0083D7
:103FF000917091830F9108952091E012222399F0FE
:104000004FB7F8942091E012213059F42DB320934A
:10401000DE123DB32091DF12209523232DBB4FBF2D
:1040200002C04093DE128CBD9DBD08958091E012C8
:10403000882361F09FB7F8942091E0128091DE12FE
:10404000213019F48DBB9FBF08958FBF0895DF9273
:10405000EF92FF920F931F93CF93DF93EC01FC013C
:10406000EA54FF4F80819181009739F4FE01E854B2
:10407000FF4F80819181009771F0DC01ED91FC91FF
:104080000190F081E02DDF91CF911F910F91FF9072
:10409000EF90DF901994D62E7E01BAEBEB0EF11C57
:1040A000F70180819181009741F4FE01E454FF4FB4
:1040B00080819181892B09F514C0FE01EB5DFE4FD3
:1040C00060810E94972CD7018D919C91DC01ED912C
:1040D000FC910190F081E02D6D2D19958C010197D7
:1040E00019F000E010E024C061E0F70180819181C7
:1040F0000E94A22C8111D9CF1BC0FE01E154FF4FB9
:104100008081918179DFC254DF4F888187FD02C0B1
:1041100060E0FADCDEBC00000DB407FEFDCF8EB51A
:10412000888187FD02C061E0EFDC80DF01E010E004
:10413000C801DF91CF911F910F91FF90EF90DF9019
:104140000895CF92DF92EF92FF920F931F93CF9338
:10415000DF937B018A016A018EE2C81A88EFD80AD0
:10416000F801C191D1918F0142E050E06FE077E01A
:10417000CE010E949F46892B91F00C151D0579F008
:10418000FE0101900020E9F73197AF014C1B5D0B58
:10419000B701CE010E949F46892B11F702C0C0E0F3
:1041A000D0E0CE01DF91CF911F910F91FF90EF9062
:1041B000DF90CF9008958F929F92AF92BF92CF924F
:1041C000DF92EF92FF920F931F93CF93DF93EC0157
:1041D0008B01CB010E940E464B015C0120E137E2CE
:1041E00040E050E00E9469432CAB24E6C22ED12C63
:1041F000E12CF12CA70196010E9469432DABC5016A
:10420000B401A70196010E9469436EAB6EE270E0B3
:10421000C8010E94844601960E94F14598AF8FAB79
:10422000FE01EB55FF4FCF54DF4F88819981AA8162
:10423000BB8180839183A283B383DF91CF911F9150
:104240000F91FF90EF90DF90CF90BF90AF909F9035
:104250008F9008954F925F926F927F928F929F926C
:10426000AF92BF92EF92FF920F931F93CF93DF9382
:10427000CDB7DEB72A970FB6F894DEBF0FBECDBF1D
:10428000FB0120812C3209F4A6C08B017C0142E0A5
:1042900050E0CE0101960E94AD461B82CE010196F0
:1042A0000E940E469B01AC0160E876E988E990E047
:1042B0000E943B432B013C01B8016E5F7F4F42E0FF
:1042C00050E0CE0101960E94AD46B8016B5F7F4F72
:1042D00044E050E0CE0103960E94AD461F82CE011D
:1042E00001960E940E469B01AC01A2E3B0E00E9441
:1042F000CA4323E030E040E050E00E948B43490194
:104300005A01F701EC5BFF4FD301C201820F931FEB
:10431000A41FB51F80839183A283B383C301B2011D
:1043200020EA36E841E050E00E948B43CA01B9011F
:104330000E9422142B013C01C501B4010E942214E9
:104340002CE933E549EC56E30E94D6149B01AC01FD
:10435000C301B2010E941F132B013C01F70164AF9E
:1043600075AF86AF97AF20E030E048EC52E40E9492
:1043700087130E94EF134B015C01FCE4EF0EF11C6C
:1043800084E6889DB001899D700D1124072E000CD4
:10439000880B990B0E9422149B01AC01C301B2014E
:1043A0000E941E1320E030E040E752E40E94871391
:1043B0002B013C01B401990C880B990B0E9422142B
:1043C0009B01AC01C301B2010E941F13F70160837E
:1043D0007183828393832A960FB6F894DEBF0FBE53
:1043E000CDBFDF91CF911F910F91FF90EF90BF90C4
:1043F000AF909F908F907F906F905F904F900895B7
:10440000FB0120812335F9F4FC01EC58FF4F208398
:10441000B897408151816281738170584083518384
:104420006283738338974081518162817381709573
:104430006095509541955F4F6F4F7F4F40835183FB
:104440006283738306C02E3431F4FC01EC58FF4FB5
:10445000208381E008952C3229F4FC01EC58FF4FB1
:104460001082F7CF80E008954F925F926F927F9213
:104470008F929F92AF92BF92EF92FF920F931F93F2
:10448000CF93DF93CDB7DEB72A970FB6F894DEBF90
:104490000FBECDBFFB0120812C3209F4A8C08B01D7
:1044A0007C0143E050E0CE0101960E94AD461C82A3
:1044B000CE0101960E940E469B01AC0160E876E9B0
:1044C00088E990E00E943B432B013C01B8016D5FFD
:1044D0007F4F42E050E0CE0101960E94AD46B80108
:1044E0006A5F7F4F44E050E0CE0103960E94AD46E4
:1044F0001F82CE0101960E940E469B01AC01A2E3F1
:10450000B0E00E94CA4323E030E040E050E00E9467
:104510008B4349015A01F701E85BFF4FD301C20108
:10452000820F931FA41FB51F80839183A283B3833F
:10453000C301B20120EA36E841E050E00E948B431B
:10454000CA01B9010E9422142B013C01C501B4012A
:104550000E9422142CE933E549EC56E30E94D6145C
:104560009B01AC01C301B2010E941F132B013C014E
:10457000F701E05CFF4F608371838283938320E0C7
:1045800030E048EC52E40E9487130E94EF134B0185
:104590005C01F0E5EF0EF11C84E6889DB001899D79
:1045A000700D1124072E000C880B990B0E94221409
:1045B0009B01AC01C301B2010E941E1320E030E058
:1045C00040E752E40E9487132B013C01B401990C8F
:1045D000880B990B0E9422149B01AC01C301B2010C
:1045E0000E941F13F70160837183828393832A964D
:1045F0000FB6F894DEBF0FBECDBFDF91CF911F91F4
:104600000F91FF90EF90BF90AF909F908F907F9011
:104610006F905F904F900895FB0120812C3239F10B
:104620002735F9F4FC01EB58FF4F2083B597408103
:104630005181628173817058408351836283738397
:104640003897408151816281738170956095509552
:1046500041955F4F6F4F7F4F4083518362837383D8
:1046600006C0253431F4FC01EB58FF4F208381E074
:10467000089580E00895FB012081213499F4FC0124
:10468000E958FF4F21E02083BA96DC01AF54BF4FB9
:104690008D919D910D90BC91A02D80839183A283DB
:1046A000B38306C0263531F4FC01E958FF4F108270
:1046B00081E0089580E008952F923F924F925F929B
:1046C0007F928F929F92AF92BF92CF92DF92EF92A2
:1046D000FF920F931F93CF93DF93EC0186D81B01BA
:1046E0002C01FE01EB54FF4F8081882311F0712CC7
:1046F00064C18E010A541F4FD8018D919C9100977F
:10470000A9F0DC01ED91FC910084F185E02D199573
:10471000892B69F3F80180819181DC01ED91FC9195
:104720000284F385E02D1995782E01C0712C8E013D
:1047300008541F4FF801808191810097A9F0DC0196
:10474000ED91FC910084F185E02D1995892B09F4F8
:1047500034C1F80180819181DC01ED91FC910284EA
:10476000F385E02D1995782E5E01BAEBAB0EB11CE6
:10477000D501ED91FC91309709F462C07E01B9EB4F
:10478000EB1ABEEFFB0AD7019C918E010A5B1E4F0C
:10479000D8018C91891764F0FE01E90FF11D97FD96
:1047A000FA95EA5DFE4F70809F5FF701908348C0E5
:1047B00021E030E040E250E060E170E0CF010E9493
:1047C0001A2D803209F0F9C0D8011C9280E2C82E5F
:1047D000D12CFE01E85BFE4F4F01D5018D919C91DC
:1047E000DC01ED91FC910284F385E02D19958A306E
:1047F00021F4F40190819D3079F4D4018C93F80177
:104800009081FE01E90FF11D97FDFA95EA5DFE4FDB
:1048100080839F5FD8019C93B1E0CB1AD108E9F661
:10482000F801808181508083811107C0CA5DDE4F0D
:1048300088818A3011F48FEF8083D7011C92BDC02C
:10484000FE01E454FF4F80819181892B09F43EC021
:104850005E01BFEBAB0EB11C8E0102541F4F9924B9
:104860009A946E01E8EBCE1AEEEFDE0AD5018D9137
:104870009C91C2DBF801808187FD02C060E044D9D1
:104880009EBC00000DB407FEFDCF7EB4D8018C9114
:1048900087FD02C061E038D9C9DBBAE07B1204C0F1
:1048A000F60180818D3011F7E72CF12CC7010E94B1
:1048B0003646892B29F0FE01E85BFE4F708206C068
:1048C000C7010E943C46892B89F2F5CF8E01065C18
:1048D0001D4FD8018D919C91FE01E75CFD4F208119
:1048E00031E0320F3083820F911DDC017C92808198
:1048F000883710F087E78083BAE07B124AC02081B6
:10490000D8018D919C91820F911DDC011C92D801E0
:104910006D917C911197AE01475B5E4F9E012F53C5
:104920003E4FCE01845C9D4F6417750731F42D9383
:104930003C93DC016D937C9306C0D8014D935C934E
:10494000DC012D933C931082FE01E25CFD4F81E07F
:1049500080830E94F51BFE01E355FF4F6083718346
:1049600082839383CF54DF4F8091D6119091D711DA
:10497000A091D811B091D91188839983AA83BB8360
:104980001092D6111092D7111092D8111092D911FD
:1049900014C08091D6119091D711A091D811B091E7
:1049A000D911892B8A2B8B2B41F42092D61130926E
:1049B000D7114092D8115092D911872DDF91CF9104
:1049C0001F910F91FF90EF90DF90CF90BF90AF902D
:1049D0009F908F907F905F904F903F902F90089581
:1049E000FC01DC01AA54BF4F11961C921E92129634
:1049F00011961C921E92129611961C921E9212965D
:104A000011961C921E92AE57BE4F1C92A958B140EF
:104A10001C92AC57BE4F1C921196875B9E4F11960D
:104A20009C938E93129688589F4F11969C938E93C9
:104A3000A25CB1401C9211971C9211971C9213AE6C
:104A400012AE11AE16AA15AA14AA12971C921197AB
:104A50001C9211971C9213961C9210AE17AA1797CE
:104A60001D921D921D921C92139714971D921D92D8
:104A70001D921C92139714971D921D921D921C92C9
:104A8000139714971D921D921D921C9213971497C1
:104A90001D921D921D921C92139714971D921D92A8
:104AA0001D921C92139714971D921D921D921C9299
:104AB000139714971D921D921D921C921397549751
:104AC0001D921D921D921C92139714AE15AE16AE38
:104AD00017AE0895EF92FF920F931F93CF93DF933A
:104AE000EC017B011B821A8283E997E0998388831A
:104AF0001D821C821E821F82188684E1FE01399667
:104B0000DF01982F1D929A95E9F71D8E1E8E1F8E3C
:104B10007796DF011D928A95E9F7DE01A957BF4F0D
:104B20008AE0E1E4F2E001900D928A95E1F7DE017E
:104B3000AF56BF4F8AE0EBE4F2E001900D928A9508
:104B4000E1F7FE01E556FF4F8EE097E09183808309
:104B5000329680E094E9A5E3B7E780839183A2834E
:104B6000B383349680839183A283B3833496808306
:104B70009183A283B383349680839183A283B3838A
:104B8000349680839183A283B38334968083918308
:104B9000A283B3833D961FEF108300E021E040E441
:104BA00052E46FE070E0CE0181549F4F00DAFE01C5
:104BB000EA5BFE4F10833196108231961082EF50DF
:104BC000FF4F1082CE010CDFC854DF4FF982E8821C
:104BD000DF91CF911F910F91FF90EF900895825C2C
:104BE0009D4FFC0180810895FC01E25CFD4F108225
:104BF0003297808191810895603358F06A3310F4C0
:104C000080ED05C08FEB860F863018F489EC860F97
:104C1000089580E00895CF92DF92EF92FF920F9374
:104C20001F93CF93DF93EC011D821C82FB018081D7
:104C30008432C1F481E090E09D838C83CB017C01C0
:104C40000196F70120812111FACFF70180818A3284
:104C500059F06E157F0530F4F1E0EF1AF108F5CF49
:104C6000892BE1F080E05EC08B01F7016181CE010C
:104C7000C3DFF0E18F9F60011124F7016281CE0153
:104C8000BBDF9601280F311DC9010F5F1F4FF801CF
:104C9000EE15FF0528F721918227FACF83E090E0F7
:104CA0009D838C83AE0149575F4FB801CE0149DA2D
:104CB0007C010097B9F2BC01CE0106960E9498468D
:104CC0008DE090E09D838C83F70101900020E9F74F
:104CD0003197EE19FF090E0F1F1FAE014F565F4FA0
:104CE000B801CE012EDA009751F0BC01CE01099631
:104CF0000E94984689E490E09D838C8312C0AE01A7
:104D000045565F4FB801CE011CDA009751F0BC0147
:104D1000CE0109960E94984681E290E09D838C83A3
:104D2000A1CF81E0DF91CF911F910F91FF90EF9084
:104D3000DF90CF9008954F925F926F927F928F9203
:104D40009F92AF92BF92DF92EF92FF920F931F93C9
:104D5000CF93DF93EC018B015EDFD82E811102C06F
:104D6000D12C35C26CE270E0C8010E9484468C01EF
:104D70000F5F1F4F7E0189E0E80EF11C6EE177E0C6
:104D8000C7010E948F46892B09F0ADC0B801CE0142
:104D900012DA6CE270E0C8010E9484468C010F5F59
:104DA0001F4FB801CE0156DA6CE270E0C8010E94D4
:104DB00084468C010F5F1F4FB801CE0121DB882391
:104DC00079F26CE270E0C8010E9484468C010F5FAA
:104DD0001F4FB801CE0148DB6CE270E0C8010E94B1
:104DE00084468C010F5F1F4FB801CE0115DC88236C
:104DF00009F4B6CF6CE270E0C8010E9484468C01D1
:104E00000F5F1F4FFC0181818C32C1F0C8010E94ED
:104E1000F145FE01E858FF4F80833197882369F000
:104E200081E08083FA9680819181A281B38170971D
:104E300080839183A283B38301C010826CE270E00F
:104E4000C8010E9484468C010F5F1F4FFC018181C5
:104E50008C3239F0C8010E94F145FE01E658FF4F3F
:104E600080836CE270E0C8010E9484468C010F5F71
:104E70001F4FFC0181818C3251F0C8010E94EE4528
:104E8000FE01E859FF4F60837183828393836CE254
:104E900070E0C8010E9484468C010F5F1F4FFC0127
:104EA00081818C3251F0C8010E94EE45FE01E85A22
:104EB000FF4F60837183828393836CE270E0C8014B
:104EC0000E9484466CE270E001960E948446FC01D8
:104ED00021812C3209F467C101960E94EE45FE0142
:104EE000EC5AFF4F5CC16AE277E0C7010E948F462F
:104EF000892B09F0A5C0B801CE015DD96CE270E044
:104F0000C8010E9484468C010F5F1F4FB801CE017B
:104F1000B2DB882309F424CF6CE270E0C8010E9460
:104F200084468C010F5F1F4FB801CE0193D96CE20C
:104F300070E0C8010E9484468C010F5F1F4FB801CA
:104F4000CE015EDA882309F40BCF6CE270E0C80171
:104F50000E9484468C010F5F1F4FB801CE0184DA96
:104F60006CE270E0C8010E9484468C010F5F1F4F05
:104F7000B801CE0151DB882309F4F2CE6CE270E077
:104F8000C8010E9484468C010F5F1F4FFC01818184
:104F90008C3251F0C8010E94EE45FE01E45AFF4FE9
:104FA00060837183828393836CE270E0C8010E9406
:104FB00084468C010F5F1F4FFC0181818C3251F0C0
:104FC000C8010E94EE45FE01E05AFF4F60837183E5
:104FD000828393836CE270E0C8010E948446FC01E6
:104FE00021812C3209F4DFC001960E94EE450E9417
:104FF000F4132B013C0120E137E240E050E00E9435
:1050000069432BAF24E6822E912CA12CB12CA50153
:1050100094010E9469432AAFC301B201A501940122
:105020000E94694369AFFE01EF54FF4F8081918177
:10503000A281B381389780839183A283B383B3C065
:1050400062E277E0C7010E948F46892B09F042C0D7
:10505000B801CE01FFD86CE270E0C8010E9484461E
:105060008C010F5F1F4FB801CE01CAD9882309F404
:1050700077CE6CE270E0C8010E9484468C010F5F1D
:105080001F4FB801CE01F0D96CE270E0C8010E9458
:1050900084468C010F5F1F4FB801CE01BDDA882313
:1050A00009F45ECE6CE270E0C8010E9484468C0177
:1050B0000F5F1F4FB801CE017ED86CE270E0C801CF
:1050C0000E948446BC016F5F7F4FCE01D4DA81110C
:1050D0006AC046CE66E277E0C7010E948F46892B00
:1050E00009F03ECE6CE270E0C8010E9484468C015B
:1050F0000F5F1F4FFC0181818C3239F0C8010E9483
:10510000F145FE01E758FF4F80838CE0A82EB12CBB
:105110006CE270E0C8010E9484468C010F5F1F4F53
:10512000F1E0AF1AB108A1F76CE270E0C8010E948B
:1051300084468C010F5F1F4FFC0181818C3251F03E
:10514000C8010E94EE45FE01E059FF4F6083718364
:10515000828393836CE270E0C8010E9484468C01D4
:105160000F5F1F4FFC0181818C3251F0C8010E94FA
:10517000EE45FE01E859FF4F60837183828393837C
:105180006CE270E0C8010E948446FC0121812C324F
:1051900051F001960E94EE45FE01E459FF4F6083F5
:1051A000718382839383BE016A5F7F4FCE014D96E8
:1051B0000E949846B701CE0180960E9498460E94B0
:1051C000F51BC356DF4F688379838A839B838D2DBC
:1051D000DF91CF911F910F91FF90EF90DF90BF90E3
:1051E000AF909F908F907F906F905F904F900895B9
:1051F000CF93DF931F92CDB7DEB7FC0119826370A6
:10520000668BDC01AA5BBF4F8C91982F9B7FAF010F
:105210004C5B5F4F913029F4623008F493E0DA017F
:105220009C939F012D5B3F4F6230D9F0633009F4AE
:105230003FC0613071F0823011F0843029F490EC7D
:105240009983813019F415C098EC10C08430B1F006
:105250001CC0823011F0843011F490EA2EC098EA1C
:1052600035C0823091F0843049F098E099838130E4
:1052700061F480E890E0938782870DC080EA90E037
:105280009387828780E590E006C080EA90E093876C
:10529000828780E890E091878087D9018C9190E0A7
:1052A00092AF81AFDA018C9190E094AF83AF2DC0C3
:1052B000823011F0843049F490E69983813051F4C2
:1052C00080E890E09187808714C098E699838130C8
:1052D00051F4F6CF843039F480EA90E091878087EA
:1052E00080E590E006C080EA90E09187808780E8C2
:1052F00090E093878287D9018C9190E094AF83AF3F
:10530000DA018C9190E092AF81AF21E0AE014F5F66
:105310005F4F66E3CF010E94C63C0F90DF91CF91B3
:105320000895EF920F93CF93DF93EC01E22E042FB9
:10533000262F40EA50E060E870E0B7D08FE997E0B0
:1053400099838883DF91CF910F91EF900895411554
:1053500051056105710521F440E058E468EE71E003
:10536000FC01FF96408351836283738321E2FC0139
:1053700025AF20E226AFEB5BFF4F20810C94F13A82
:105380008F929F92AF92BF92CF92DF92EF92FF9255
:105390000F931F93CF93DF93EC0189AD9AAD4B012F
:1053A000880E991E8BAD9CAD480F591FC9010197FE
:1053B000880D991DA0E0B0E0A12CB12C54019924D6
:1053C0008824882A992AAA2ABB2A0150110968012F
:1053D000C40ED51E860120E030E06A01E12CF12CDC
:1053E0007601DD24CC24C02AD12AE22AF32A6AE2FB
:1053F000CE010E94603CB501A401CE010E949B3DFC
:105400006BE2CE010E94603CB701A601CE010E9472
:105410009B3D6CE2CE01DF91CF911F910F91FF90E8
:10542000EF90DF90CF90BF90AF909F908F900C94B3
:10543000603CCF93DF931F92CDB7DEB7FC0119829A
:105440006370668B8D5B9F4FAF014C5B5F4F62302B
:1054500049F0633091F0613019F020EC298302C0EB
:1054600020EA0CC0DC018C9190E092AF81AFDA01B0
:105470008C9190E094AF83AF0CC020E62983DC01CF
:105480008C9190E094AF83AFDA018C9190E092AF71
:1054900081AF21E0AE014F5F5F4F66E3CF010E9415
:1054A000C63C0F90DF91CF910895EF920F93CF9369
:1054B000DF93EC010E94E43A8FEC97E099838883B4
:1054C000FE01ED5BFF4F108231961082CB5BDF4F08
:1054D0001882DF91CF910F91EF900895AF92BF9214
:1054E000CF92DF92EF92FF920F931F93CF93DF93B0
:1054F000EC01E62EA72EF42EB52E69018FEF9FEF5B
:105500009D838C839F838E8361E08E2D0E94481D36
:1055100060E08F2D0E94481DE882A982FA82BB823A
:10552000DD82CC821F830E83DF91CF911F910F917B
:10553000FF90EF90DF90CF90BF90AF900895CF9203
:10554000DF92EF92FF92CF93DF93EC0160E08881CE
:105550000E94841D85E090E00E94601C61E08881CB
:105560000E94841D8AE090E00E94601C60E08881B7
:105570000E94841D8A810E94B21D892BD9F30E944A
:10558000011C6B017C018A810E94B21D0197D9F335
:105590000E94011CCB018C199D09DF91CF91FF90D6
:1055A000EF90DF90CF900895CF93DF93EC01C7DFAA
:1055B00097FD0196BC0175956795072E000C880B29
:1055C000990B0E94221427EE3BEF49EA5EE30E940A
:1055D000D6140E94EF139B014C815D814F3FAFEFCA
:1055E0005A0721F4EE81FF81319659F04217530793
:1055F0002CF44E815F81241735071CF08FEF9FEF4D
:1056000001C0CB01DF91CF9108951F920F920FB689
:105610000F9211240BB60F922F933F934F935F93EA
:105620006F937F938F939F93AF93BF93EF93FF936A
:10563000E091DC12F091DD12309709F44FC0968DA5
:10564000A685B785858591FF04C09C91892329F49F
:1056500045C09C91892309F041C0A389B4899C91DC
:105660008589809589238C93868997890197F1F79D
:10567000608D718DA685B785558538E020E0CB011A
:105680000197F1F7822F90E095958795282F4C91FF
:10569000452309F02068315091F7868D81FD2095D2
:1056A0008091DB1190E001963091DA11381749F0C2
:1056B000A091DB11B0E0A452BE4E2C938093DB117D
:1056C00003C0868D8160868F828D938D0197F1F75F
:1056D000A389B4899C918589892B8C93FF91EF9143
:1056E000BF91AF919F918F917F916F915F914F91FA
:1056F0003F912F910F900BBE0F900FBE0F901F90F8
:105700001895CF93CFB7F8948091E112811127C0FB
:10571000E0EEF2E08491EAE9F2E09491E82FF0E023
:10572000EE0FFF1FEB5DFC4FA591B491EC91E923C7
:1057300021F461E085E30E94841D61E085E30E941D
:10574000481D8CB580618CBD8CB580648CBD61E0DA
:1057500084E30E94481D61E083E30E94481D80911C
:10576000E1128F5F8093E112CFBFCF9108958091B6
:10577000171390E020911813821B910908959091BE
:10578000181380911713981750F4E92FF0E0E75E93
:10579000FC4E208130E09F5F9093181302C02FEFE2
:1057A0003FEFC9010895E091181380911713E8178E
:1057B00030F4F0E0E75EFC4E808190E008958FEFDA
:1057C0009FEF08950895CF93DF93EC01E091EF12DE
:1057D000F091F0123097F1F0909118138091171317
:1057E0009817C0F090E0292F30E02617370754F4BF
:1057F000DE01A20FB31F4C91D901A75EBC4E4C93A2
:105800009F5FF1CF1092181360931713CB01DF91B4
:10581000CF911994DF91CF910895E091F112F09119
:10582000F212309729F01092F5121092F412199496
:105830000895CF92DF92EF92FF920F931F93CF9331
:10584000DF937C01CB018A012091F312222389F09E
:10585000EB016B01C40ED51ECC15DD0569F0699115
:10586000D701ED91FC910190F081E02DC7011995D0
:10587000F3CF642F0E94C641C801DF91CF911F91E1
:105880000F91FF90EF90DF90CF900895CF93DF932B
:105890001F92CDB7DEB769832091F3122223D1F096
:1058A0002091F412203240F021E030E0FC013383FB
:1058B000228380E090E015C08091F512E82FF0E09F
:1058C000EA50FD4E998190838F5F8093F51280930B
:1058D000F41205C061E0CE0101960E94C64181E04C
:1058E00090E00F90DF91CF910895FC011382128216
:1058F00088EE93E0A0E0B0E084839583A683B7832D
:105900008FEF97E09183808308951092181310927F
:1059100017131092F5121092F4120E940A418DE0B2
:105920009CE20E94F34183EE9BE20C94EE4181E005
:105930008093F312609316131092F5121092F412E2
:105940000895F5CF0F93062F21E04091F41266EFF2
:1059500072E1809116130E9470411092F51210921C
:10596000F4121092F3120F9108954F925F926F927A
:105970007F92AF92BF92CF92EF92FF920F931F93BD
:10598000CF93DF935C01F62ED42F28013901EE204E
:1059900011F1CDDFCE2DC43008F0C3E0C150C0F00E
:1059A00028E0C29FC0011124A301920104C05695B2
:1059B0004795379527958A95D2F7CA01B901D50140
:1059C000ED91FC910190F081E02DC5011995E6CF94
:1059D00060E0C501B7DF4D2FD13208F040E22C2D39
:1059E00069E173E18F2D0E94284110921813809372
:1059F0001713DF91CF911F910F91FF90EF90CF90F0
:105A0000BF90AF907F906F905F904F900895CF922E
:105A1000EF920F931F93C22EE12C00E010E098014B
:105A2000A4DF1F910F91EF90CF90089521E0EFCF69
:105A300021E0EDCFECCF61E085CF83EE92E155CF51
:105A4000885E9E4FDC018D919C91DC01ED91FC9173
:105A50000084F185E02D1994885E9E4FDC018D91C4
:105A60009C91DC01ED91FC910190F081E02D199465
:105A7000885E9E4FDC018D919C91DC01ED91FC9143
:105A80000284F385E02D1994885E9E4FDC018D9190
:105A90009C91DC01ED91FC910484F585E02D199435
:105AA000885E9E4FDC018D919C91DC01ED91FC9113
:105AB0000680F781E02D1994FC011382128288EE92
:105AC00093E0A0E0B0E084839583A683B78388E663
:105AD00098E0918380836487DF01A35FBE4F8CECE5
