:1000000026C400000C941D2F0C94482F0C94732FC1
:100010000C949E2F0C94C92F0C94F42F0C941F3029
:100020000C944A300C9476280C9476280C947628FC
:100030003FC400003DC400003BC4000039C40000C0
:1000400037C4000035C4000033C4000031C40000D0
:100050002FC400002DC400002BC400000C941C19F8
:1000600027C400000C9415140C944B1421C40000F8
:100070001FC400001DC400001BC4000019C4000000
:1000800017C4000015C4000013C4000011C4000010
:100090000C94AA140C94E0140BC400000C94FA3DC8
:1000A00007C4000005C4000003C4000001C4000030
:1000B000FFC30000FDC30000FBC30000F9C3000044
:1000C000F7C30000F5C30000F3C300000C943F1514
:1000D0000C947515EDC300000C94D4150C940A16FD
:1000E000E7C30000D30BA70CEC0CC40EC40E1E0D0E
:1000F0007D0DD80D1A0E7E0E7E1A811A701A741A92
:100100007A1AB81A851A891A8F1A931A971A9D1A89
:10011000A11AA51AB81AAB1AAF1AB31A6364696E9A
:100120006F70737578585B004E414E494E49545973
:10013000494E46CDCCCC3D0AD7233C17B7D13877B2
:10014000CC2B329595E6241FB14F0A0000204100C8
:1001500000C84200401C4620BCBE4CCA1B0E5AAE12
:10016000C59D7441542B434D47443D3F0D0A0053F8
:10017000657474696E672075700000000A0B0209CF
:100180000C0D0E0807030401000000000000000031
:10019000000000000000000000000000000000005F
:1001A000000000000000121110000000000000001C
:1001B000000000000000000000000000000000003F
:1001C0000102102020080810204010204080020169
:1001D000020108040201010204081020408080404E
:1001E000201008040201800402018040201008044D
:1001F00002010804020101020408102040800102EB
:1002000004081020408005050505070508080808B2
:10021000020202020A0A080804040404010101019E
:100220000101010103030303030303030407070799
:100230000C0C0C0C0C0C0C0C02020202060606063E
:10024000060606060B0B0B0B0B0B0B0B000020001E
:100250002300260029002C002F003200000100009E
:1002600003010601090100002200250028002B00DF
:100270002E003100340002010000050108010B01CD
:1002800000002100240027002A002D003000330048
:1002900001010000040107010A01093C2D2D2D2058
:1002A00000092D2D2D3E2000093C2D2D2D2000096B
:1002B0002D2D2D3E200041542B434D47463D31000E
:1002C0003E20003E200041542B434D47463D310027
:1002D0002B434D47523A0041542B434D47523D006A
:1002E00041542B434D47523D0041542B4353444806
:1002F0003D310041542B434D47463D31002B434D8A
:1003000047523A0041542B434D47523D0041542B34
:10031000434D47523D0041542B435344483D310027
:1003200041542B434D47463D31004F4B00464F4E05
:100330004100464F4E416E65740000000000003ED3
:100340005B4F5B3E3E6B4F6B3E1C3E7C3E1C183C45
:100350007E3C181C577D571C1C5E7F5E1C00183CA1
:100360001800FFE7C3E7FF0018241800FFE7DBE7EA
:10037000FF30483A060E2629792926407F050507D1
:10038000407F05253F5A3CE73C5A7F3E1C1C08082D
:100390001C1C3E7F14227F22145F5F005F5F0609F2
:1003A0007F017F006689956A606060606094A2FF4B
:1003B000A29408047E040810207E201008082A1C3D
:1003C00008081C2A08081E101010100C1E0C1E0C09
:1003D00030383E3830060E3E0E06000000000000A9
:1003E000005F00000007000700147F147F14242A18
:1003F0007F2A1223130864623649562050000807EA
:100400000300001C2241000041221C002A1C7F1C0A
:100410002A08083E0808008070300008080808080C
:10042000000060600020100804023E5149453E0073
:10043000427F400072494949462141494D331814D1
:10044000127F1027454545393C4A49493141211120
:1004500009073649494936464949291E0000140012
:100460000000403400000008142241141414141435
:10047000004122140802015909063E415D594E7C93
:100480001211127C7F494949363E414141227F4148
:1004900041413E7F494949417F090909013E4141A6
:1004A00051737F0808087F00417F41002040413F91
:1004B000017F081422417F404040407F021C027FA0
:1004C0007F0408107F3E4141413E7F090909063EF5
:1004D0004151215E7F0919294626494949320301C4
:1004E0007F01033F4040403F1F2040201F3F4038D6
:1004F000403F631408146303047804036159494DB1
:1005000043007F4141410204081020004141417FE6
:10051000040201020440404040400003070800205C
:10052000545478407F28444438384444442838445C
:1005300044287F385454541800087E090218A4A493
:100540009C787F0804047800447D40002040403DB2
:10055000007F1028440000417F40007C047804782C
:100560007C080404783844444438FC1824241818BF
:10057000242418FC7C08040408485454542404041B
:100580003F44243C4040207C1C2040201C3C403008
:10059000403C44281028444C9090907C4464544C37
:1005A0004400083641000000770000004136080092
:1005B00002010204023C2623263C1EA1A161123A3C
:1005C0004040207A38545455592155557941225488
:1005D000547842215554784020545579400C1E528D
:1005E0007212395555555939545454593955545432
:1005F000580000457C410002457D420001457C4099
:100600007D1211127DF0282528F07C5455450020DC
:1006100054547C547C0A097F4932494949323A444E
:1006200044443A324A4848303A4141217A3A4240B9
:100630002078009DA0A07D3D4242423D3D4040408B
:100640003D3C24FF2424487E4943662B2FFC2F2B5E
:10065000FF0929F620C0887E0903205454794100FF
:1006600000447D413048484A32384040227A007A7E
:100670000A0A727D0D19317D2629292F282629295C
:10068000292630484D40203808080808080808087E
:10069000382F10C8ACBA2F102834FA00007B0000A5
:1006A00008142A142222142A14085500550055AAA9
:1006B00055AA55AAFF55FF55FF000000FF00101076
:1006C00010FF00141414FF001010FF00FF1010F0B2
:1006D00010F0141414FC001414F700FF0000FF00C5
:1006E000FF1414F404FC141417101F10101F101F13
:1006F0001414141F00101010F0000000001F101040
:1007000010101F10101010F010000000FF1010103B
:10071000101010101010FF10000000FF140000FF58
:1007200000FF00001F10170000FC04F41414171041
:10073000171414F404F40000FF00F7141414141434
:100740001414F700F7141414171410101F101F14AA
:100750001414F4141010F010F000001F101F00000B
:10076000001F14000000FC140000F010F01010FF37
:1007700010FF141414FF141010101F00000000F0DC
:1007800010FFFFFFFFFFF0F0F0F0F0FFFFFF0000B1
:10079000000000FFFF0F0F0F0F0F3844443844FCD8
:1007A0004A4A4A347E02020606027E027E026355EF
:1007B0004941633844443C04407E201E2006027EAA
:1007C000020299A5E7A5991C2A492A1C4C720172BC
:1007D0004C304A4D4D303048784830BC625A463D26
:1007E0003E494949007E0101017E2A2A2A2A2A44DB
:1007F000445F444440514A444040444A5140000010
:10080000FF0103E080FF000008086B6B083612361A
:100810002436060F090F06000018180000001010FB
:10082000003040FF0101001F01011E00191D1712B9
:10083000003C3C3C3C0000000000AC060707AC0755
:1008400008101D107D141215A7153C168E2A1124B0
:100850001FBECFEFD1E2DEBFCDBF00E00CBF18E07E
:10086000A0E0B2E0E2E3FFE800E00BBF02C00790C7
:100870000D92AE31B107D9F722E1AEE1B8E001C087
:100880001D92A73FB207E1F714E0C7E2D4E000E011
:1008900006C021970109802FFE010E94993FCD31AA
:1008A000D10780E00807A9F70E946A160C949747C1
:1008B000A7CBDC01ED91FC910190F081E02D199422
:1008C00068E670E08DE292E10E94122A6BE670E029
:1008D0008DE292E1EEDF60E070E08DE292E1E9DF2F
:1008E0008DE292E10E948C2A68E670E08DE292E14E
:1008F0000E94122A6BE170E08DE292E1DADF60E0A3
:1009000070E08DE292E1D5DF8DE292E10E948C2AC7
:1009100068E670E08DE292E10E94122A6CE170E0DC
:100920008DE292E1C6DF68E170E08DE292E1C1DF25
:100930008DE292E10C948C2ACF93DF93CEE1D8E044
:1009400060914A0870914B0880914C0890914D0835
:100950000E94931120E030E040E05AE30E944712E9
:10096000688379838A839B836091460870914708E6
:1009700080914808909149080E94931120E030E04E
:1009800040E05AE30E9447126C837D838E839F83ED
:100990006091420870914308809144089091450805
:1009A0000E94931120E030E040E05AE30E94471299
:1009B000688779878A879B87DF91CF910895CF9346
:1009C000DF93CEE1D8E060913E0870913F088091BE
:1009D0004008909141080E94931120E030E044E2E9
:1009E00053E40E94F8106C877D878E879F87609103
:1009F0003A0870913B0880913C0890913D080E9414
:100A0000931120E030E044E253E40E94F810688B38
:100A1000798B8A8B9B8B6091360870913708809117
:100A20003808909139080E94931120E030E044E2A8
:100A300053E40E94F8106C8B7D8B8E8B9F8BDF9123
:100A4000CF910895CF9368E670E08DE292E10E9425
:100A5000122A6BE370E08DE292E12BDF8DE292E1EE
:100A60000E948C2A46E050E068E670E08DE292E158
:100A70000E94892A8DE292E10E9428290697D4F3E8
:100A80008DE292E10E943029C82F8DE292E10E940E
:100A9000302920E030E03C2F822B932B092E000CD4
:100AA000AA0BBB0B80934A0890934B08A0934C0869
:100AB000B0934D088DE292E10E943029C82F8DE25B
:100AC00092E10E94302920E030E03C2F822B932BD2
:100AD000092E000CAA0BBB0B809346089093470885
:100AE000A0934808B09349088DE292E10E94302912
:100AF000C82F8DE292E10E94302920E030E03C2FA7
:100B0000822B932B092E000CAA0BBB0B809342085F
:100B100090934308A0934408B0934508CF910CCF1D
:100B2000CF9368E670E08DE292E10E94122A63E4BE
:100B300070E08DE292E1BDDE8DE292E10E948C2AAE
:100B400046E050E068E670E08DE292E10E94892A7A
:100B50008DE292E10E9428290697D4F38DE292E17A
:100B60000E943029C82F8DE292E10E94302920E0B6
:100B700030E03C2F822B932B092E000CAA0BBB0BD1
:100B800080933E0890933F08A0934008B09341089B
:100B90008DE292E10E943029C82F8DE292E10E94FD
:100BA000302920E030E03C2F822B932B092E000CC3
:100BB000AA0BBB0B80933A0890933B08A0933C0888
:100BC000B0933D088DE292E10E943029C82F8DE25A
:100BD00092E10E94302920E030E03C2F822B932BC1
:100BE000092E000CAA0BBB0B809336089093370894
:100BF000A0933808B0933908CF91E1CECF93DF931B
:100C0000EC0120DF8DDF88E1EEE1F8E0DE0101900C
:100C10000D928A95E1F7CE01DF91CF91089580E0A2
:100C200090E00895EF92FF920F931F93CF93DF937D
:100C3000CDB7DEB7A2970FB6F894DEBF0FBECDBF1B
:100C40008AE899E00E94912A892B09F44EC00AE4AF
:100C500019E078018AE899E00E94A92AF8018193B5
:100C60008F0161E070E080E090E00E949719F70149
:100C700080818A3051F08AE899E00E94912A892B7C
:100C800021F0F9E009381F0721F7F70111828EE4FE
:100C900098E09F938F9381E193E09F938F938AE4F1
:100CA00099E09F938F930E94D9420F900F900F90DD
:100CB0000F900F900F900197C1F42FE130E0AE013B
:100CC0004F5F5F4F60914E088AE899E00E94AE2E18
:100CD0008E010F5D1F4F2AEF30E040E558E0609134
:100CE0004E088AE899E00E94AB2DA2960FB6F894C0
:100CF000DEBF0FBECDBFDF91CF911F910F91FF904F
:100D0000EF900895CF93DF93CDB7DEB7A0970FB6DE
:100D1000F894DEBF0FBECDBF40E253E0BE016F5F6F
:100D20007F4F8AE899E00E946D2C60914E088AE816
:100D300099E00E94252D811106C063E671E08AE8E2
:100D400099E00E94B516A0960FB6F894DEBF0FBECC
:100D5000CDBFDF91CF91089566E18AE899E00E94C6
:100D6000CD2AEAE8F9E08AE393E09183808384E086
:100D700085870895CF93DF93EC0184EA9AE00E947F
:100D8000CD201B8684EA9AE00E946023882371F0BC
:100D900084EA9AE00E946523BC0184EA9AE00E94FA
:100DA0000C24811130C081E08B872DC020911B0B5A
:100DB000288380911C0B90E09A838983222319F168
:100DC0006091E00A7091E10A8091E20A9091E30A51
:100DD0000E9460117C836B838091180B8D836091DE
:100DE000E40A7091E50A8091E60A9091E70A0E9470
:100DF00060117F836E838091190B888780911E0B11
:100E000090E09A878987CE01DF91CF9108956DEDAB
:100E10007FE084EA9AE00C94DB2260E08FE10E949C
:100E2000B91A61E082E20E94B91A61E087E20E9489
:100E3000B91A61E089E20E94B91A61E08DE20E946C
:100E4000B91A61E085E20E94B91A61E083E20E946A
:100E5000B91A60E087E20E94F51A61E082E20E941E
:100E6000F51A60E089E20E94F51A60E08DE20E94C6
:100E7000F51A61E085E20E94F51A60E083E20E94C3
:100E8000F51A26E040E855E260E070E083EA9EE073
:100E90000E94AF1380910702882331F06FE671E062
:100EA00083EA9EE00E94F21626E040E855E260E008
:100EB00070E080E49FE00E94AF1326E040E855E236
:100EC00060E070E08DED9FE00E94AF1326E040E807
:100ED00055E260E070E08AE790E10E94AF13F0DC39
:100EE00080910702882331F068E473E083EA9EE092
:100EF0000C94121708950F931F93CF93DF93809153
:100F00000702882331F06FE473E083EA9EE00E94D9
:100F1000121761E087E20E94F51A64EF71E080E049
:100F200090E00E949719CAE0D0E08DE29DE00E9417
:100F30004528080F191F2197C1F760E087E20E943A
:100F4000F51AC8016AE070E00E94483FCB01DF91CA
:100F5000CF911F910F9108950F931F9300EA1FE007
:100F600024E130E04DE150E06BE170E08DE29DE086
:100F70000E94DF271F910F9108950F931F93CF9326
:100F8000DF9380910702882331F060E673E083EA03
:100F90009EE00E94121780910802811173C061E0E7
:100FA00087E20E94F51A61E083E20E94F51A68EE7A
:100FB00073E080E090E00E9497190DD78DE29DE0EC
:100FC0000E9445289093000D8093FF0C80910702AA
:100FD000882381F060E773E083EA9EE00E94E716D1
:100FE0006091FF0C7091000D4AE050E083EA9EE0B2
:100FF0000E94EC178091070D8093030D81E0809390
:10100000040D04D72093270D3093280D4093290D0C
:1010100050932A0D60932B0D70932C0D81E020913D
:101020002B0D30912C0D232B09F480E08093050DBE
:1010300080910702882331F16091FF0C7091000DBF
:101040004AE050E083EA9EE00E94E6176091030DBB
:1010500070E04AE050E083EA9EE00E94E61760916B
:10106000040D70E04AE050E083EA9EE00E94E6173B
:1010700060912B0D70912C0D4AE050E083EA9EE0C8
:101080000E94E61780910B0290910C022091FF0CB8
:101090003091000D821B930B9093020D8093010DF4
:1010A000C091080D8091090DC111B0C0882321F0B5
:1010B000813009F462C05FC180910702882361F02A
:1010C00060E873E083EA9EE00E94121764EF71E02B
:1010D00080E090E00E94971980910802811117C06A
:1010E00081E08093080D809107028823C9F162ECAA
:1010F00073E083EA9EE00E94E7166091080D70E0BD
:101100004AE050E083EA9EE00E94EC1729C069E9BA
:1011100073E083EA9EE00E94121783EA9EE00E9439
:10112000AA12892BD1F383EA9EE00E94C4128C019B
:1011300064EB73E083EA9EE00E94121783EA9EE06C
:101140000E94AA12892BD1F383EA9EE00E94C41266
:101150000033110509F410C1C09709F40DC1C0CFC7
:1011600087E0EFEFFCE0A8EFBCE001900D928A95DC
:10117000E1F781E08093090247C08091070288234C
:1011800061F062ED73E083EA9EE00E94121764EF63
:1011900071E080E090E00E9497198091080281112F
:1011A00009C080910A0D8650843058F585E08093FF
:1011B0000A0D27C06BEE73E083EA9EE00E941217CF
:1011C00083EA9EE00E94AA12892BD1F383EA9EE073
:1011D0000E94C4128C0164EB73E083EA9EE00E94DB
:1011E000121783EA9EE00E94AA12892BD1F383EAA8
:1011F0009EE00E94C4120033110599F6C09789F64B
:10120000BBC081E08093080DC1E0B6C0882321F007
:10121000813009F46CC0AFC080910702882361F06F
:1012200064E074E083EA9EE00E94121764EF71E0CC
:1012300080E090E00E9497198091FA0C9091FB0C4D
:101240008B3A91055CF08091010D9091020D8A3AE4
:10125000910524F49093FB0C8093FA0C8091FD0C83
:10126000882331F08091040D811102C01092FD0C91
:101270008091FE0C882331F08091050D811102C010
:101280001092FE0C8091080281110CC01092080D82
:1012900087E0EFEFFCE0A8EFBCE001900D928A95AB
:1012A000E1F769C06BEE73E083EA9EE00E941217DB
:1012B00083EA9EE00E94AA12892BD1F383EA9EE082
:1012C0000E94C412EC0164EB73E083EA9EE00E948A
:1012D000121783EA9EE00E94AA12892BD1F383EAB7
:1012E0009EE00E94C412E09709F045C041C0809181
:1012F0000702882361F069E174E083EA9EE00E94BE
:10130000121764EF71E080E090E00E9497198091DD
:10131000FA0C9091FB0C8B3A91055CF08091010DD9
:101320009091020D8A3A910524F49093FB0C8093DE
:10133000FA0C8091FD0C882331F08091040D81110D
:1013400002C01092FD0C80910802882309F49ECF00
:1013500069E973E083EA9EE00E94121783EA9EE047
:101360000E94AA12892BD1F383EA9EE00E94C41244
:10137000C09709F48BCF01C08C2FDF91CF911F91C3
:101380000F910895CF92DF92EF92FF920F931F93E8
:10139000CF93DF93CDB7DEB7AA970FB6F894DEBF31
:1013A0000FBECDBF80E49FE00E94AA12892B59F0A6
:1013B00039DC80910702882331F06FE274E083EA20
:1013C0009EE00E9412178AE790E10E94AA12892BE0
:1013D000D9F180910702882331F06DE374E083EA4C
:1013E0009EE00E941217FF24F3948AE790E10E9486
:1013F000AA12892B49F18AE790E10E94C4128C015C
:1014000080910702882329F0602F83EA9EE00E94E2
:10141000E816C80199278534910581F034F48434A5
:10142000910519F7F0920602E0CF8335910549F056
:1014300084359105D1F61092040DD7CF1092060293
:10144000D4CFF092040DD1CF8DED9FE00E94AA126F
:10145000892B09F47AC080910702882331F061E575
:1014600074E083EA9EE00E941217CE01079682DCA8
:101470008CE0FE013796ACEEBCE001900D928A95AF
:10148000E1F780910702882309F45FC06FE574E0FB
:1014900083EA9EE00E94E7166091EC0C70E04AE05F
:1014A00050E083EA9EE00E94E61765E674E083EA76
:1014B0009EE00E94E7166091ED0C7091EE0C4AE000
:1014C00050E083EA9EE00E94EC178091EC0C8823A8
:1014D000E1F160E774E083EA9EE00E94E716609124
:1014E000EF0C7091F00C44E050E083EA9EE00E9423
:1014F000E6176091F10C83EA9EE00E94E8166BE724
:1015000074E083EA9EE00E94E7166091F20C70910D
:10151000F30C44E050E083EA9EE00E94E6176091FD
:10152000F40C83EA9EE00E9422176EE774E083EADF
:101530009EE00E94E7166091F50C7091F60C4AE06F
:1015400050E083EA9EE00E94EC1780910A0D882308
:1015500009F413C18091080D81110BC085E20E942E
:10156000231B892B31F060E085E20E94F51A10926E
:10157000060D62D56093E80C7093E90C8093EA0C39
:101580009093EB0C809107028823A9F06BE874E03C
:1015900083EA9EE00E94E7166091E80C7091E90CE6
:1015A0008091EA0C9091EB0C8BD64AE050E083EAF4
:1015B0009EE00E94EC1780910802882349F168E9B7
:1015C00074E083EA9EE00E94121783EA9EE0C2D78D
:1015D000892BD9F363EA7EE0CE0101960E940519BA
:1015E000BE016F5F7F4F83EA9EE00E940217CE012B
:1015F00001960E940D1C97D66093E80C7093E90C3D
:101600008093EA0C9093EB0CCE0101960E944B1B49
:10161000C090E80CD090E90CE090EA0CF090EB0C54
:1016200020E030E040EA52E4C701B601DDD587FF93
:1016300003C01092090D0CC020E030E040EA52E4F3
:10164000C701B60120D787FD03C081E08093090D53
:1016500080910802811142C0CE014396CFDA88E121
:10166000FE017396AFE0BDE001900D928A95E1F71F
:1016700080910702882309F453C06FEA74E083EA7B
:101680009EE00E94E71640910F0D5091100D609161
:10169000110D7091120D22E030E083EA9EE00E946D
:1016A000C6184091130D5091140D6091150D709155
:1016B000160D22E030E083EA9EE00E94C6184091B9
:1016C000170D5091180D6091190D70911A0D22E0AF
:1016D00030E083EA9EE00E94C71822C065EB74E008
:1016E00083EA9EE00E94121761ED74E083EA9EE0B7
:1016F0000E94121783EA9EE02DD7892BD9F383EA43
:101700009EE042D7C097BC01990F880B990B0BD66E
:1017100060930F0D7093100D8093110D9093120D27
:101720002091130D3091140D4091150D5091160D0F
:1017300060910F0D7091100D8091110D9091120D0F
:10174000EFD42091170D3091180D4091190D509143
:101750001A0DE6D42DEC3CEC4CE85FE394D687FD03
:101760000CC010920A0D80910702882331F06AEEB6
:1017700074E083EA9EE00E94E71680910E0D8823B4
:1017800019F085E080930A0DF8DB80910A0D90E056
:101790008A30910508F0F8C2FC018827EE58FF4F07
:1017A0008F4F0C94993F80910702882361F06CEF72
:1017B00074E083EA9EE00E94121764EF71E080E01B
:1017C00090E00E94971980910A02811103C081E084
:1017D0008093090210920E0D85E20E94231B892B33
:1017E00021F060E085E20E94F51A82E20E94231B4C
:1017F000892B21F060E082E20E94F51A80910802B4
:1018000081113AC0CE014396F9D988E1FE01739661
:10181000AFE0BDE001900D928A95E1F7809107025B
:10182000882309F455C06BE075E083EA9EE00E94CE
:10183000E7162091130D3091140D4091150D509124
:10184000160D6091170D7091180D8091190D9091E2
:101850001A0D66D420910F0D3091100D4091110D8D
:101860005091120D5DD4AB01BC0122E030E083EA5F
:101870009EE00E94C7182CC06FE075E083EA9EE0EE
:101880000E94121761ED74E083EA9EE00E94121735
:1018900083EA9EE05FD6892BD9F383EA9EE074D673
:1018A0008C014AE050E0BC0183EA9EE00E94EC1704
:1018B000B80160537109072E000C880B990B33D5C2
:1018C00060930F0D7093100D8093110D9093120D76
:1018D0002091130D3091140D4091150D5091160D5E
:1018E00060910F0D7091100D8091110D9091120D5E
:1018F00017D42091170D3091180D4091190D50916A
:101900001A0D0ED42DEC3CEC4CE85FE36DD41816A8
:101910000CF43CC281E080930A0D0E94661960932A
:10192000E40C7093E50C8093E60C9093E70C8091A7
:101930000702882309F440C26BE175E083EA9EE068
:101940000E94121764EF71E080E090E02BC280915A
:101950000702882361F065E375E083EA9EE00E9458
:10196000121764EF71E080E090E00E9497190E94E6
:1019700066190091E40C1091E50C2091E60C309171
:10198000E70CDC01CB01801B910BA20BB30B813167
:101990009742A105B10508F40FC280910702882380
:1019A00031F062E475E083EA9EE00E941217E5DA06
:1019B000882321F061E085E20E94F51A41E050E0C1
:1019C00067E976E08AE790E10E94761610920602B7
:1019D00082E080930A0DF0C180910702882361F0B4
:1019E00068E575E083EA9EE00E94121764EF71E0FB
:1019F00080E090E00E94971980910802882331F0DE
:101A000067E675E083EA9EE00E94121720E030E06E
:101A100040EA52E46091E80C7091E90C8091EA0C84
:101A20009091EB0C30D587FD02C086E001C085E0C7
:101A300080930A0D81E080930C0D58C180910702BC
:101A4000882361F063E775E083EA9EE00E94121745
:101A500064EF71E080E090E00E94971982E20E94BA
:101A6000231B892B31F060E082E20E94F51A10926C
:101A7000060D80910D0D811110920D0D80910802BF
:101A8000882331F06AE775E083EA9EE00E9412172E
:101A90008091080D811110C080910C0D8823C1F038
:101AA00010920C0D80910802811112C024DA9093DB
:101AB0000C0280930B020CC085E20E94231B892B31
:101AC00021F461E085E20E94F51A89E10E94231B5E
:101AD00020E030E040EA52E46091E80C7091E90CBB
:101AE0008091EA0C9091EB0CCED487FD4FC1809190
:101AF0000E0D81114BC186E0F7C08091070288234B
:101B000061F06EE775E083EA9EE00E94121764EFD1
:101B100071E080E090E00E94971981E08093060DCB
:101B200080910802882331F065E875E083EA9EE041
:101B30000E9412178091080D8823B9F080910A0243
:101B4000882399F0DFD810920A0280910702882337
:101B500061F069E875E083EA9EE00E94121764EF85
:101B600071E080E090E00E949719C090E80CD0905E
:101B7000E90CE090EA0CF090EB0C20E030E04CEA4D
:101B800052E4C701B6017FD4181614F487E0ACC044
:101B900020E030E040EA52E4C701B60125D387FFD8
:101BA000F5C082E080930A0D81E080930D0D04C1A1
:101BB00080910702882361F065E975E083EA9EE081
:101BC0000E94121764EF71E080E090E00E94971984
:101BD00080910802882331F06CE975E083EA9EE089
:101BE0000E94121780910702882361F060EA75E075
:101BF00083EA9EE00E94121764EF71E080E090E0BB
:101C00000E949719C090E80CD090E90CE090EA0C83
:101C1000F090EB0C20E030E046EB52E4C701B60157
:101C200032D4181614F488E05FC020E030E04CEAAB
:101C300052E4B2CF80910702882361F06EEA75E02A
:101C400083EA9EE00E94121764EF71E080E090E06A
:101C50000E94971980910802882331F065EB75E0A6
:101C600083EA9EE00E94121780910B0D882351F1A8
:101C70008091080D882331F180910702882361F05B
:101C800069EB75E083EA9EE00E94121764EF71E051
:101C900080E090E00E94971989E20E94231B892B23
:101CA00071F461E089E20E94F51A68EE73E080E069
:101CB00090E00E94971960E089E20E94F51A22D80C
:101CC00010920B0DC090E80CD090E90CE090EA0C5B
:101CD000F090EB0C20E030E042ED52E4C701B60199
:101CE000D2D3181634F489E080930A0D10920D0DAA
:101CF00063C020E030E046EB52E44ECF8091070213
:101D0000882361F063EC75E083EA9EE00E9412177D
:101D100064EF71E080E090E00E94971980910802E2
:101D2000882331F06AEC75E083EA9EE00E94121786
:101D3000809109028823D9F08091080D8823B9F099
:101D400041E050E06EEC75E08AE790E1CFD78091FA
:101D50000702882361F060ED75E083EA9EE00E944F
:101D6000121764EF71E080E090E00E94971920E084
:101D700030E042ED52E46091E80C7091E90C809102
:101D8000EA0C9091EB0C0ACF10920A0D8091080298
:101D900081110BC080910702811107C068EE73E0CA
:101DA00080E090E00E94971907C06AED75E083EA31
:101DB0009EE00E941217F2CFAA960FB6F894DEBFEB
:101DC0000FBECDBFDF91CF911F910F91FF90EF908C
:101DD000DF90CF90089569E685E39DE00E945F1C47
:101DE000811107C060EE75E083EA9EE00E94121741
:101DF000FFCF65E176E083EA9EE00E94121764E679
:101E000070E080E090E00C94971908952F923F9233
:101E10004F925F926F927F928F929F92AF92BF92FA
:101E2000CF92DF92EF92FF920F931F93CF93DF93A6
:101E3000CDB7DEB760970FB6F894DEBF0FBECDBF4B
:101E400040E46CE87DE085E39DE00E94DC1C6FE2ED
:101E500076E083EA9EE0BBD72CE8C22E2DE0D22E9E
:101E600001E010E0F60141915191619171916F0192
:101E700022E030E083EA9EE00E94C6186BE774E03F
:101E800083EA9EE0A4D7C80187709927892B19F4AB
:101E900083EA9EE0A4D70F5F1F4F0134110511F7AD
:101EA00061E376E083EA9EE0BDD783EA9EE097D7C0
:101EB0009CE8C92E9DE0D92E00E010E0A12CB12CA9
:101EC000F60141905190619071906F01B801012E1F
:101ED000000C880B990B27D29B01AC01C301B20106
:101EE000D2D2181624F4C301B201EAD18B0120E04A
:101EF00030E048EB51E4C301B201C5D287FD03C015
:101F0000FFEFAF1ABF0A8CE8C8168EE0D806C1F6FC
:101F10001A830983FE0131966F011E01F9E02F0E2D
:101F2000311C8CE8882E8DE0982EF4014190519060
:101F3000619071904F01F60162817381072E000C50
:101F4000880B990BF0D19B01AC01C301B2019BD26C
:101F50001816B4F4F60160817181072E000C880B0D
:101F6000990BE1D19B01AC01C301B2013DD187FFC7
:101F700007C0C301B201A4D1F601738362830AC012
:101F8000B701FF0C880B990BCED1A3019201C8D0E9
:101F900097D17B01FCE88F16FEE09F0609F0C5CFC4
:101FA00082E0C80ED11C2C143D0409F0BACF1C8766
:101FB0000B87BE86AD86C7016BE370E00E94483F89
:101FC0000250110981E090E0601771070CF080E089
:101FD0002B853C854D855E85BC0180E090E0609658
:101FE0000FB6F894DEBF0FBECDBFDF91CF911F912A
:101FF0000F91FF90EF90DF90CF90BF90AF909F90A8
:102000008F907F906F905F904F903F902F900895AA
:1020100020E341E365E385E49DE00C940227FC01A5
:10202000862F6083218332834383548360E00C9442
:10203000B91A81E99EE068C0FCCF20E030E040EAB8
:1020400050E467E381E99EE008D020E030E040EA18
:1020500050E467E38CE89EE0E2CFCF92DF92EF920C
:10206000FF921F93CF93DF93EC01162F69017A0142
:1020700060E0812F0E94B91ACA82DB82EC82FD8265
:102080001883DF91CF911F91FF90EF90DF90CF9059
:102090000895CF93DF93EC0188810E943E1A8983D3
:1020A000BC017727072E000C880B990B3CD120E050
:1020B00030E040E85AE3EBD12A813B814C815D81DD
:1020C000E6D16E837F838887998720E030E040E007
:1020D0005FE325D020E030E048EC52E4D8D16A87B5
:1020E0007B878C879D8726E636E646EE5FE3CFD179
:1020F00020E030E040E052E413D06E877F87888B89
:10210000998BDF91CF910895CF93DF93EC01C1DFDD
:102110006E857F8588899989DF91CF910895505880
:10212000BB27AA270ED075C166D130F06BD120F045
:1021300031F49F3F11F41EF45BC10EF4E095E7FB10
:1021400051C1E92F77D180F3BA176207730784076B
:10215000950718F071F49EF58FC10EF4E0950B2EE3
:10216000BA2FA02D0B01B90190010C01CA01A001E9
:102170001124FF27591B99F0593F50F4503E68F144
:102180001A16F040A22F232F342F4427585FF3CF85
:10219000469537952795A795F0405395C9F77EF456
:1021A0001F16BA0B620B730B840BBAF09150A1F09F
:1021B000FF0FBB1F661F771F881FC2F70EC0BA0F25
:1021C000621F731F841F48F4879577956795B795AD
:1021D000F7959E3F08F0B3CF9395880F08F09927A5
:1021E000EE0F979587950895D9D008F481E008956A
:1021F0000CD00FC107D140F0FED030F021F45F3F8A
:1022000019F0F0C0511139C1F3C014D198F39923DA
:10221000C9F35523B1F3951B550BBB27AA276217AA
:102220007307840738F09F5F5F4F220F331F441FEF
:10223000AA1FA9F333D00E2E3AF0E0E830D0915027
:102240005040E695001CCAF729D0FE2F27D0660F14
:10225000771F881FBB1F261737074807AB07B0E853
:1022600009F0BB0B802DBF01FF2793585F4F2AF069
:102270009E3F510568F0B6C000C15F3FECF3983E49
:10228000DCF3869577956795B795F7959F5FC9F7C6
:10229000880F911D9695879597F90895E1E0660F4F
:1022A000771F881FBB1F621773078407BA0720F0C8
:1022B000621B730B840BBA0BEE1F88F7E095089531
:1022C00004D06894B111D9C00895BCD088F09F574C
:1022D00090F0B92F9927B751A0F0D1F0660F771F72
:1022E000881F991F1AF0BA95C9F712C0B13081F052
:1022F000C3D0B1E00895C0C0672F782F8827B85F9A
:1023000039F0B93FCCF3869577956795B395D9F7B2
:102310003EF490958095709561957F4F8F4F9F4FBC
:102320000895E89409C097FB3EF4909580957095C8
:1023300061957F4F8F4F9F4F9923A9F0F92F96E911
:10234000BB279395F695879577956795B795F11186
:10235000F8CFFAF4BB0F11F460FF1BC06F5F7F4F23
:102360008F4F9F4F16C0882311F096E911C0772335
:1023700021F09EE8872F762F05C0662371F096E83E
:10238000862F70E060E02AF09A95660F771F881F0D
:10239000DAF7880F9695879597F90895990F0008B1
:1023A000550FAA0BE0E8FEEF16161706E807F90727
:1023B000C0F012161306E407F50798F0621B730BC2
:1023C000840B950B39F40A2661F0232B242B252B43
:1023D00021F408950A2609F4A140A6958FEF811DE6
:1023E000811D089597F99F6780E870E060E0089587
:1023F0009FEF80EC089500240A941616170618061D
:102400000906089500240A941216130614060506F8
:102410000895092E0394000C11F4882352F0BB0F89
:1024200040F4BF2B11F460FF04C06F5F7F4F8F4FEC
:102430009F4F089557FD9058440F551F59F05F3F27
:1024400071F04795880F97FB991F61F09F3F79F0D6
:1024500087950895121613061406551FF2CF469558
:10246000F1DF08C0161617061806991FF1CF8695DA
:102470007105610508940895E894BB2766277727BE
:10248000CB0197F908958ADF08F48FEF08950BD0F8
:10249000C0CFB1DF28F0B6DF18F0952309F0A2CF46
:1024A000A7CF1124EACFC6DFA0F3959FD1F3950FF4
:1024B00050E0551F629FF001729FBB27F00DB11DC8
:1024C000639FAA27F00DB11DAA1F649F6627B00D58
:1024D000A11D661F829F2227B00DA11D621F739F41
:1024E000B00DA11D621F839FA00D611D221F749F4F
:1024F0003327A00D611D231F849F600D211D822F96
:10250000762F6A2F11249F5750408AF0E1F08823DC
:102510004AF0EE0FFF1FBB1F661F771F881F9150E9
:102520005040A9F79E3F510570F05CCFA6CF5F3FAA
:10253000ECF3983EDCF3869577956795B795F7951C
:10254000E7959F5FC1F7FE2B880F911D96958795A4
:1025500097F90895FC01918D228D892F90E0805C80
:102560009F4F821B91098F7399270895FC01918DCC
:10257000828D981731F0828DE80FF11D858D90E0E6
:1025800008958FEF9FEF0895FC01918D828D98172C
:1025900061F0828DDF01A80FB11D5D968C91928D47
:1025A0009F5F9F73928F90E008958FEF9FEF089544
:1025B000FC01538D448D252F30E0842F90E0821B49
:1025C000930B541710F0CF9608950197089584E760
:1025D00094E1892B39F080E090E0892B19F084D1C7
:1025E000811122C089E095E1892B39F080E090E0EB
:1025F000892B19F00ED281111AC08EE995E1892B31
:1026000039F080E090E0892B19F098D2811112C046
:1026100083E396E1892B99F080E090E0892B79F0B3
:1026200022D381110AC008950E940000DBCF0E94CE
:102630000000E3CF0E940000EBCF0C94000008954F
:10264000FC01848DDF01A80FB11DA35ABF4F2C914F
:10265000848D90E001968F739927848FA689B7891E
:102660002C93A089B1898C91837080648C93938D15
:10267000848D981306C00288F389E02D80818F7DB8
:1026800080830895EF92FF920F931F93CF93DF9370
:10269000EC0181E0888F9B8D8C8D981305C0E889B3
:1026A000F989808185FD25C0F62E0B8D10E00F5F26
:1026B0001F4F0F731127E02E8C8DE8120BC00FB641
:1026C00007FCFACFE889F989808185FFF5CFCE0133
:1026D000B7DFF2CF8B8DFE01E80FF11DE35AFF4FFC
:1026E000F0829FB7F8940B8FEA89FB898081806222
:1026F0000AC09FB7F894EE89FF896083E889F98959
:1027000080818370806480839FBF81E090E0DF914F
:10271000CF911F910F91FF90EF900895CF93DF938A
:10272000EC01888D8823C1F0EA89FB89808185FDD1
:1027300005C0A889B9898C9186FD0EC00FB607FC2B
:10274000F5CF808185FFF2CFA889B9898C9185FF6B
:10275000EDCFCE0175DFE8CFDF91CF910895CF9215
:10276000DF92EF92FF921F93CF93DF93EC016A0108
:102770007B01122FE889F98982E080834115514E4F
:1027800061057105B1F060E079E08DE390E0A701AB
:1027900096010E945B3FDA01C9010197A109B109C5
:1027A000B695A795979587959C01211580E13807E7
:1027B000A8F0E889F989108260E874E88EE190E079
:1027C000A70196010E945B3FDA01C9010197A109A7
:1027D000B109B695A795979587959C01EC85FD85E0
:1027E0003083EE85FF852083188EEC89FD89108368
:1027F000EA89FB89808180618083EA89FB89808105
:1028000088608083EA89FB89808180688083EA8987
:10281000FB8980818F7D8083DF91CF911F91FF9015
:10282000EF90DF90CF90089508951F920F920FB60A
:102830000F9211240BB60F922F938F939F93EF93C8
:10284000FF93E091B30EF091B40E8081E091B90E48
:10285000F091BA0E82FD12C090818091BC0E8F5F04
:102860008F732091BD0E821751F0E091BC0EF0E005
:10287000ED55F14F958F8093BC0E01C08081FF9183
:10288000EF919F918F912F910F900BBE0F900FBEE4
:102890000F901F9018951F920F920FB60F92112450
:1028A0000BB60F922F933F934F935F936F937F934A
:1028B0008F939F93AF93BF93EF93FF9383EA9EE031
:1028C000BFDEFF91EF91BF91AF919F918F917F916B
:1028D0006F915F914F913F912F910F900BBE0F9091
:1028E0000FBE0F901F90189583EA9EE033DE21E023
:1028F000892B09F420E0822F0895E3EAFEE0138299
:10290000128288EE93E0A0E0B0E084839583A683F2
:10291000B78387E396E09183808385EC90E0958789
:10292000848784EC90E09787868780EC90E0918B99
:10293000808B81EC90E0938B828B82EC90E0958B86
:10294000848B86EC90E0978B868B118E128E138E83
:10295000148E08951F920F920FB60F9211240BB68A
:102960000F922F938F939F93EF93FF93E091500FCC
:10297000F091510F8081E091560FF091570F82FD39
:1029800012C090818091590F8F5F8F7320915A0FE1
:10299000821751F0E091590FF0E0E05CF04F958F15
:1029A0008093590F01C08081FF91EF919F918F918A
:1029B0002F910F900BBE0F900FBE0F901F90189588
:1029C0001F920F920FB60F9211240BB60F922F93F6
:1029D0003F934F935F936F937F938F939F93AF93A7
:1029E000BF93EF93FF9380E49FE02ADEFF91EF9186
:1029F000BF91AF919F918F917F916F915F914F9117
:102A00003F912F910F900BBE0F900FBE0F901F9014
:102A1000189580E49FE09EDD21E0892B09F420E0F9
:102A2000822F0895E0E4FFE01382128288EE93E0A3
:102A3000A0E0B0E084839583A683B78387E396E024
:102A4000918380838DEC90E0958784878CEC90E077
:102A50009787868788EC90E0918B808B89EC90E05B
:102A6000938B828B8AEC90E0958B848B8EEC90E03C
:102A7000978B868B118E128E138E148E08951F9253
:102A80000F920FB60F9211240BB60F922F938F93C4
:102A90009F93EF93FF93E091ED0FF091EE0F808104
:102AA000E091F30FF091F40F82FD12C090818091BC
:102AB000F60F8F5F8F732091F70F821751F0E0911F
:102AC000F60FF0E0E352F04F958F8093F60F01C0C0
:102AD0008081FF91EF919F918F912F910F900BBE6D
:102AE0000F900FBE0F901F9018951F920F920FB668
:102AF0000F9211240BB60F922F933F934F935F9336
:102B00006F937F938F939F93AF93BF93EF93FF93B5
:102B10008DED9FE095DDFF91EF91BF91AF919F917A
:102B20008F917F916F915F914F913F912F910F9076
:102B30000BBE0F900FBE0F901F9018958DED9FE06C
:102B400009DD21E0892B09F420E0822F0895EDEDC5
:102B5000FFE01382128288EE93E0A0E0B0E084836D
:102B60009583A683B78387E396E09183808385ED81
:102B700090E09587848784ED90E09787868780ED45
:102B800090E0918B808B81ED90E0938B828B82ED36
:102B900090E0958B848B86ED90E0978B868B118EE1
:102BA000128E138E148E08951F920F920FB60F92ED
:102BB00011240BB60F922F938F939F93EF93FF9354
:102BC000E0918A10F0918B108081E0919010F0914B
:102BD000911082FD12C09081809193108F5F8F734E
:102BE00020919410821751F0E0919310F0E0E65894
:102BF000FF4E958F8093931001C08081FF91EF91DC
:102C00009F918F912F910F900BBE0F900FBE0F9041
:102C10001F9018951F920F920FB60F9211240BB6AA
:102C20000F922F933F934F935F936F937F938F9365
:102C30009F93AF93BF93EF93FF938AE790E100DDFB
:102C4000FF91EF91BF91AF919F918F917F916F9184
:102C50005F914F913F912F910F900BBE0F900FBE40
:102C60000F901F9018958AE790E174DC21E0892B82
:102C700009F420E0822F0895EAE7F0E1138212823E
:102C800088EE93E0A0E0B0E084839583A683B783C9
:102C900087E396E09183808385E391E0958784873D
:102CA00084E391E09787868780E391E0918B808B26
:102CB00081E391E0938B828B82E391E0958B848B0F
:102CC00086E391E0978B868B118E128E138E148E75
:102CD0000895089571D3FDDF0E940D07C7EED2E17C
:102CE0000E94C2092097E1F372DCFACFCF92DF9203
:102CF000EF92FF920F931F93CF93DF936C017A01B2
:102D00008B01C0E0D0E0CE15DF0581F0D8016D91D8
:102D10008D01D601ED91FC910190F081E02DC6016D
:102D20001995892B11F02196EECF7E01C701DF9115
:102D3000CF911F910F91FF90EF90DF90CF9008956A
:102D40006115710579F0FB0101900020E9F73197D9
:102D5000AF01461B570BDC01ED91FC910280F38122
:102D6000E02D199480E090E00895EF92FF920F9388
:102D70001F93CF93DF938C017B01C0E0D0E0F7017C
:102D8000EC0FFD1F6491662361F0D801ED91FC9179
:102D90000190F081E02DC8011995892B11F0219641
:102DA000EECFCE01DF91CF911F910F91FF90EF9069
:102DB0000895DB0114964D915C9115976D917C916E
:102DC000DC01ED91FC910280F381E02D1994B8CFE4
:102DD000DC01ED91FC910190F081E02D19946EE001
:102DE00073E0AECF0F931F93CF93DF93EC01BDDF62
:102DF0008C01CE01F4DF800F911FDF91CF911F91E5
:102E00000F9108950F931F93CF93DF93EC01D1DFC0
:102E10008C01CE01E4DF800F911FDF91CF911F91D4
:102E20000F9108950F931F93CF93DF93EC0188DFE9
:102E30008C01CE01D4DF800F911FDF91CF911F91C4
:102E40000F9108950F931F93CF93DF93EC01C0DF91
:102E50008C01CE01C4DF800F911FDF91CF911F91B4
:102E60000F9108958F929F92AF92BF92EF92FF922F
:102E70000F931F93CF93DF93CDB7DEB7A1970FB614
:102E8000F894DEBF0FBECDBF7C01FA01CB0119A2C1
:102E9000223008F42AE08E010F5D1F4F822E912C04
:102EA000A12CB12CBF01A50194010E945B3FF90147
:102EB000CA01015011096A3010F4605D01C0695CFB
:102EC000D8016C93232B242B252B61F7B801C70164
:102ED00037DFA1960FB6F894DEBF0FBECDBFDF91EE
:102EE000CF911F910F91FF90EF90BF90AF909F9067
:102EF0008F9008952115310541F4DC01ED91FC918D
:102F00000190F081E02D642F1994ACCF9A01462FE7
:102F100050E060E070E0EECF0F931F93CF93DF930C
:102F2000EC01F4DF8C01CE015ADF800F911FDF919D
:102F3000CF911F910F9108959A01AB0160E070E06D
:102F4000D9CFCF92DF92EF92FF920F931F93CF933F
:102F5000DF932115310581F4DC01ED91FC910190A5
:102F6000F081E02D642FDF91CF911F910F91FF90A1
:102F7000EF90DF90CF9019942A303105F1F477FF6C
:102F80001BC06A017B01EC016DE222DF8C0144274A
:102F90005527BA014C195D096E097F092AE0CE0157
:102FA00061DF800F911FDF91CF911F910F91FF90F3
:102FB000EF90DF90CF9008952AE0DF91CF911F919D
:102FC0000F91FF90EF90DF90CF904CCF9A01AB0123
:102FD000770F660B770BB5CF0F931F93CF93DF93CC
:102FE000EC01F4DF8C01CE01FADE800F911FDF913E
:102FF000CF911F910F9108957F928F929F92AF92E0
:10300000BF92CF92DF92EF92FF920F931F93CF93D5
:10301000DF938C016A017B01722E9A01AB01C7011B
:10302000B6010E94283F882319F065E476E025C0A8
:1030300046015701E894B7F82FEF3FEF4FE75FE7FE
:10304000C501B4010E94283F81110CC02FEF3FEF52
:103050004FE75FE7C501B401C7D818161CF469E44F
:1030600076E00BC02FEF3FEF4FE75FE4C701B601FB
:103070000ADA18168CF46DE476E0C801DF91CF917E
:103080001F910F91FF90EF90DF90CF90BF90AF9086
:103090009F908F907F9054CE2FEF3FEF4FE75FECE4
:1030A000C701B601A1D887FDE6CF20E030E0A90135
:1030B000C701B60199D887FF09C06DE2C80188DE53
:1030C000EC01F7FAF094F7F8F09402C0C0E0D0E019
:1030D000B12C60E070E080E09FE37B1439F020E0E9
:1030E00030E040E251E484D8B394F7CFA7019601D1
:1030F00017D86B017C01E9D84B015C012AE0AB01D8
:10310000BC01C801AFDEC80FD91F772081F1C5010E
:10311000B40107D99B01AC01C701B60100D86B010E
:103120007C016EE2C80154DEC80FD91F20E030E0F8
:1031300040E251E4C701B601AAD94B015C01C5D8F0
:103140006B017C014AE050E0C801F6DEC80FD91FD0
:10315000B60180E090E0E5D89B01AC01C501B40167
:103160000E948F106B017C017A947110DFCFCE0129
:10317000DF91CF911F910F91FF90EF90DF90CF9053
:10318000BF90AF909F908F907F90089535CF0F9311
:103190001F93CF93DF93EC012FDF8C01CE011FDE55
:1031A000800F911FDF91CF911F910F9108950F9381
:1031B0001F93CF93DF93EC0189D0688779878A8743
:1031C0009B87E881F9810284F385E02DCE01199572
:1031D00097FF16C07BD0088519852A853B85DC01C1
:1031E000CB01801B910BA20BB30B0C811D812E8197
:1031F0003F8180179107A207B30718F38FEF9FEF66
:10320000DF91CF911F910F9108950F931F93CF934B
:10321000DF93EC018B0160E173E0ABD2C801C7DF43
:1032200097FD04C0682FCE01E5D2F8CFCE01DF9123
:10323000CF911F910F9108951F920F920FB60F9289
:1032400011242F933F938F939F93AF93BF938091BC
:10325000181190911911A0911A11B0911B11309170
:10326000171123E0230F2D3720F40196A11DB11D66
:1032700005C026E8230F0296A11DB11D209317114A
:103280008093181190931911A0931A11B0931B11E8
:1032900080911C1190911D11A0911E11B0911F11D0
:1032A0000196A11DB11D80931C1190931D11A09337
:1032B0001E11B0931F11BF91AF919F918F913F91BC
:1032C0002F910F900FBE0F901F9018952FB7F89465
:1032D000609118117091191180911A1190911B1120
:1032E0002FBF08953FB7F89480911C1190911D1144
:1032F000A0911E11B0911F1126B5A89B05C02F3FAC
:1033000019F00196A11DB11D3FBFBA2FA92F982F0B
:103310008827820F911DA11DB11DBC01CD0142E086
:10332000660F771F881F991F4A95D1F708958F92CE
:103330009F92AF92BF92CF92DF92EF92FF926B017A
:103340007C01D0DF4B015C01C114D104E104F10424
:10335000F9F00E941B2FC6DFDC01CB018819990907
:10336000AA09BB09883E9340A105B10568F321E095
:10337000C21AD108E108F10888EE880E83E0981E91
:10338000A11CB11CC114D104E104F10421F7DCCF6C
:10339000FF90EF90DF90CF90BF90AF909F908F9075
:1033A00008958230910538F0880F991F880F991F72
:1033B00005970197F1F70895789484B5826084BDEC
:1033C00084B5816084BD85B5826085BD85B5816029
:1033D00085BDEEE6F0E0808181608083E1E8F0E089
:1033E0001082808182608083808181608083E0E8B8
:1033F000F0E0808181608083E1EBF0E08081846097
:103400008083E0EBF0E0808181608083E1E9F0E09F
:10341000808182608083808181608083E0E9F0E048
:10342000808181608083E1EAF0E080818260808336
:10343000808181608083E0EAF0E080818160808328
:10344000E1E2F1E08081826080838081816080831D
:10345000E0E2F1E0808181608083EAE7F0E0808152
:1034600084608083808182608083808181608083AA
:103470008081806880831092C1000895863308F0AF
:10348000865390917B00282F2870977F922B9093E2
:103490007B0020910D0290E4299F900111248770F8
:1034A000822B80937C0080917A00806480937A00E4
:1034B00080917A0086FDFCCF809178002091790080
:1034C00090E0922B089590E0FC013197E231F105F4
:1034D00008F04EC08827E458FF4F8F4F0C94993F57
:1034E000809180008F7703C0809180008F7D8093D2
:1034F0008000089580918000877FF9CF84B58F7711
:1035000002C084B58F7D84BD08958091B0008F770F
:1035100003C08091B0008F7D8093B00008958091AA
:1035200090008F7707C0809190008F7D03C08091BD
:103530009000877F8093900008958091A0008F77FE
:1035400007C08091A0008F7D03C08091A000877F7D
:103550008093A0000895809120018F7707C080910B
:1035600020018F7D03C080912001877F80932001FF
:103570000895CF93DF9390E0FC01E054FE4F249137
:10358000FC01EA5FFD4F8491882361F190E0880F90
:10359000991FFC01E058FD4FC591D491FC01EA59F7
:1035A000FD4FA591B491611109C09FB7F89488812E
:1035B000209582238883EC912E230BC0623061F426
:1035C0009FB7F8948881322F309583238883EC91BC
:1035D0002E2B2C939FBF06C08FB7F894E8812E2B1B
:1035E00028838FBFDF91CF9108951F93CF93DF93EF
:1035F000282F30E0F901E658FE4F8491F901E0549C
:10360000FE4FD491F901EA5FFD4FC491CC23B9F08C
:10361000162F811158DFEC2FF0E0EE0FFF1FEA5953
:10362000FD4FA591B4919FB7F894111104C08C91EE
:10363000D095D82302C0EC91DE2BDC939FBFDF91A5
:10364000CF911F910895CF93DF93282F30E0F90198
:10365000E658FE4F8491F901E054FE4FD491F901F0
:10366000EA5FFD4FC491CC2389F081112CDFEC2F50
:10367000F0E0EE0FFF1FE45BFD4FA591B491EC91DC
:10368000ED2381E090E021F480E002C080E090E052
:10369000DF91CF910895FC0180819181009711F015
:1036A0000C9472400895CF93DF93EC018881998147
:1036B000009711F00E947240198218821D821C82AC
:1036C0001B821A82DF91CF9108950F931F93CF939E
:1036D000DF93EC018B016F5F7F4F888199810E949E
:1036E000FB40009731F0998388831B830A8381E034
:1036F00001C080E0DF91CF911F910F910895CF938A
:10370000DF93EC0188819981892B29F08A819B8143
:103710008617970758F4CE01D8DF882341F08C81B3
:103720009D81892B19F4E881F981108281E0DF9174
:10373000CF910895EF92FF920F931F93CF93DF9352
:10374000EC017B018A01BA01DADF811103C0CE01ED
:10375000AADF07C01D830C83B701888199810E946D
:103760007E42CE01DF91CF911F910F91FF90EF909C
:103770000895FC0111821082138212821582148234
:103780006115710549F0FB0101900020E9F73197BF
:10379000AF01461B570BCECF0895EF92FF920F93C8
:1037A0001F93CF93DF936115710511F480E01BC067
:1037B00041155105B9F07B01EC018C819D818A0195
:1037C000080F191FB801CE019ADF882379F32881E9
:1037D00039818C819D81B701820F931F0E947E42A7
:1037E0001D830C8381E0DF91CF911F910F91FF909A
:1037F000EF900895CF93DF931F921F92CDB7DEB75E
:1038000069831A8241E050E0BE016F5F7F4FC5DFE0
:103810000F900F90DF91CF910895FC0180819181ED
:10382000009711F00C94FF4160E070E0CB01089527
:10383000EF92FF920F931F93CF93DF93C62F7A01DE
:10384000022FFC0160818DE292E10E94082A6C2F18
:103850008DE292E10E94B729E70110E0CE018E19B6
:103860009F098017910734F469918DE292E10E94DB
:10387000B729F4CF8DE292E1DF91CF911F910F91A3
:10388000FF90EF900C948C2ACF93DF931F92CDB7CB
:10389000DEB7498321E0AE014F5F5F4FC9DF0F9074
:1038A000DF91CF910895FC0124812E7F248321FB99
:1038B000442740F950E0440F551F63E0E5CFCF9314
:1038C000DF93EC0168838DE292E10E94F629198270
:1038D00040E060E0CE01D8DF8FE38A834FE361E010
:1038E000CE01D2DFCE01DFDF8B818E7F8B8340E084
:1038F00062E0CE01C9DF64E670E080E090E017DDB1
:1039000081E0DF91CF9108956F927F928F929F9285
:10391000AF92BF92CF92DF92EF92FF920F931F93DD
:10392000CF93DF938C01662E6A01722EC0E0C7151B
:10393000A0F5D72DDC1BD13208F0D0E2F801608170
:103940008DE292E10E94082A6C2F660D8DE292E1D1
:103950000E94B7298DE292E10E948C2A4D2FF80136
:1039600060818DE292E10E94872A812C912CAD2EFC
:10397000B12C8C2F880D8A149B0414F0CD0FD7CF57
:103980007601E80EF11C8DE292E10E943029F701E8
:103990008083FFEF8F1A9F0AECCFDF91CF911F91A9
:1039A0000F91FF90EF90DF90CF90BF90AF909F90DE
:1039B0008F907F906F9008958F929F92AF92BF9259
:1039C000CF92DF92EF92FF920F931F93CF93DF93EB
:1039D000CDB7DEB7F62E172F042F8DB69EB6242F47
:1039E000220F46FD20E84DB75EB7421B51090FB6C6
:1039F000F8945EBF0FBE4DBFEDB7FEB731965F01C5
:103A0000AF0160E881DFCF2CD12EE12CF12C10E04A
:103A1000E016F1065CF58E2D880FF501E80FF11D1B
:103A2000618170E0762F66278081682B94E0660FB5
:103A3000771F9A95E1F724E0759567952A95E1F748
:103A4000072E000C880B990B0E94931120E030E0A8
:103A500040E85EE30E944712F601619371938193FF
:103A600091936F01FFEFEF1AFF0AD2CF0FB6F894D0
:103A70009EBE0FBE8DBEDF91CF911F910F91FF9023
:103A8000EF90DF90CF90BF90AF909F908F90089570
:103A90000F93FC0180E092E1AAE7B0E030E0481724
:103AA00059076A077B0740F4B695A79597958795C0
:103AB0003F5F3630A1F737E091E09327222311F0E2
:103AC00020E501C020E70C70892F8695082B022B7A
:103AD0000083917091830F91089520912A122223DF
:103AE00099F04FB7F89420912A12213059F42DB350
:103AF000209328123DB320912912209523232DBB1A
:103B00004FBF02C0409328128CBD9DBD0895809187
:103B10002A12882361F09FB7F89420912A1280918D
:103B20002812213019F48DBB9FBF08958FBF0895CF
:103B3000DF92EF92FF920F931F93CF93DF93EC01ED
:103B4000FC01EA54FF4F80819181009739F4FE0116
:103B5000E854FF4F80819181009771F0DC01ED9175
:103B6000FC910190F081E02DDF91CF911F910F9199
:103B7000FF90EF90DF901994D62E7E01BAEBEB0EFA
:103B8000F11CF70180819181009741F4FE01E4541A
:103B9000FF4F80819181892B09F514C0FE01EB5DF7
:103BA000FE4F60810E94082AD7018D919C91DC0113
:103BB000ED91FC910190F081E02D6D2D19958C0116
:103BC000019719F000E010E024C061E0F701808166
:103BD00091810E94132A8111D9CF1BC0FE01E154AB
:103BE000FF4F8081918179DFC254DF4F888187FD4B
:103BF00002C060E0FADCDEBC00000DB407FEFDCFC1
:103C00008EB5888187FD02C061E0EFDC80DF01E0D6
:103C100010E0C801DF91CF911F910F91FF90EF90BD
:103C2000DF900895CF92DF92EF92FF920F931F9350
:103C3000CF93DF937B018A016A018EE2C81A88EF75
:103C4000D80AF801C191D1918F0142E050E06AE5B4
:103C500076E0CE010E948542892B91F00C151D055E
:103C600079F0FE0101900020E9F73197AF014C1B7C
:103C70005D0BB701CE010E948542892B11F702C06E
:103C8000C0E0D0E0CE01DF91CF911F910F91FF9066
:103C9000EF90DF90CF9008958F929F92AF92BF9256
:103CA000CF92DF92EF92FF920F931F93CF93DF9308
:103CB000EC018B01CB010E94FF414B015C0120E133
:103CC00037E240E050E00E945B3F2CAB24E6C22E7E
:103CD000D12CE12CF12CA70196010E945B3F2DAB6A
:103CE000C501B401A70196010E945B3F6EAB6EE275
:103CF00070E0C8010E946A4201960E94E24198AFBA
:103D00008FABFE01EB55FF4FCF54DF4F8881998178
:103D1000AA81BB8180839183A283B383DF91CF91FA
:103D20001F910F91FF90EF90DF90CF90BF90AF90D9
:103D30009F908F9008954F925F926F927F928F9293
:103D40009F92AF92BF92EF92FF920F931F93CF93E8
:103D5000DF93CDB7DEB72A970FB6F894DEBF0FBE5C
:103D6000CDBFFB0120812C3209F4A6C08B017C0160
:103D700042E050E0CE0101960E9493421B82CE01A8
:103D800001960E94FF419B01AC0160E876E988E959
:103D900090E00E942D3F2B013C01B8016E5F7F4FE8
:103DA00042E050E0CE0101960E949342B8016B5F61
:103DB0007F4F44E050E0CE0103960E9493421F8261
:103DC000CE0101960E94FF419B01AC01A2E3B0E04D
:103DD0000E94BC3F23E030E040E050E00E947D3F85
:103DE00049015A01F701EC5BFF4FD301C201820F79
:103DF000931FA41FB51F80839183A283B383C30144
:103E0000B20120EA36E841E050E00E947D3FCA015D
:103E1000B9010E9493112B013C01C501B4010E941C
:103E200093112CE933E549EC56E30E9447129B01BC
:103E3000AC01C301B2010E9490102B013C01F701BB
:103E400064AF75AF86AF97AF20E030E048EC52E446
:103E50000E94F8100E9460114B015C01FCE4EF0E1F
:103E6000F11C84E6889DB001899D700D1124072EF8
:103E7000000C880B990B0E9493119B01AC01C301AC
:103E8000B2010E948F1020E030E040E752E40E942F
:103E9000F8102B013C01B401990C880B990B0E947E
:103EA00093119B01AC01C301B2010E949010F70174
:103EB00060837183828393832A960FB6F894DEBF62
:103EC0000FBECDBFDF91CF911F910F91FF90EF906B
:103ED000BF90AF909F908F907F906F905F904F902A
:103EE0000895FB0120812335F9F4FC01EC58FF4FC4
:103EF0002083B897408151816281738170584083DB
:103F000051836283738338974081518162817381C9
:103F100070956095509541955F4F6F4F7F4F4083EF
:103F200051836283738306C02E3431F4FC01EC5854
:103F3000FF4F208381E008952C3229F4FC01EC58D6
:103F4000FF4F1082F7CF80E008954F925F926F92FB
:103F50007F928F929F92AF92BF92EF92FF920F93B8
:103F60001F93CF93DF93CDB7DEB72A970FB6F894A0
:103F7000DEBF0FBECDBFFB0120812C3209F4A8C0EB
:103F80008B017C0143E050E0CE0101960E949342F8
:103F90001C82CE0101960E94FF419B01AC0160E8AA
:103FA00076E988E990E00E942D3F2B013C01B801A1
:103FB0006D5F7F4F42E050E0CE0101960E94934238
:103FC000B8016A5F7F4F44E050E0CE0103960E9443
:103FD00093421F82CE0101960E94FF419B01AC01DA
:103FE000A2E3B0E00E94BC3F23E030E040E050E0BC
:103FF0000E947D3F49015A01F701E85BFF4FD30161
:10400000C201820F931FA41FB51F80839183A283D7
:10401000B383C301B20120EA36E841E050E00E94D8
:104020007D3FCA01B9010E9493112B013C01C501DA
:10403000B4010E9493112CE933E549EC56E30E9448
:1040400047129B01AC01C301B2010E9490102B01E9
:104050003C01F701E05CFF4F6083718382839383AF
:1040600020E030E048EC52E40E94F8100E94601119
:104070004B015C01F0E5EF0EF11C84E6889DB00178
:10408000899D700D1124072E000C880B990B0E943E
:1040900093119B01AC01C301B2010E948F1020E07B
:1040A00030E040E752E40E94F8102B013C01B401DB
:1040B000990C880B990B0E9493119B01AC01C301D1
:1040C000B2010E949010F701608371838283938311
:1040D0002A960FB6F894DEBF0FBECDBFDF91CF9109
:1040E0001F910F91FF90EF90BF90AF909F908F9096
:1040F0007F906F905F904F900895FB0120812C324C
:1041000039F12735F9F4FC01EB58FF4F2083B597BF
:1041100040815181628173817058408351836283F1
:104120007383389740815181628173817095609566
:10413000509541955F4F6F4F7F4F4083518362830E
:10414000738306C0253431F4FC01EB58FF4F208304
:1041500081E0089580E00895FB012081213499F4E5
:10416000FC01E958FF4F21E02083BA96DC01AF54EF
:10417000BF4F8D919D910D90BC91A02D8083918317
:10418000A283B38306C0263531F4FC01E958FF4F02
:10419000108281E0089580E008952F923F924F921F
:1041A0005F927F928F929F92AF92BF92CF92DF9257
:1041B000EF92FF920F931F93CF93DF93EC0186D87A
:1041C0001B012C01FE01EB54FF4F8081882311F06D
:1041D000712C64C18E010A541F4FD8018D919C919E
:1041E0000097A9F0DC01ED91FC910084F185E02DB0
:1041F0001995892B69F3F80180819181DC01ED919A
:10420000FC910284F385E02D1995782E01C0712C64
:104210008E0108541F4FF801808191810097A9F009
:10422000DC01ED91FC910084F185E02D1995892B3D
:1042300009F434C1F80180819181DC01ED91FC9198
:104240000284F385E02D1995782E5E01BAEBAB0E52
:10425000B11CD501ED91FC91309709F462C07E014B
:10426000B9EBEB1ABEEFFB0AD7019C918E010A5BFA
:104270001E4FD8018C91891764F0FE01E90FF11DE2
:1042800097FDFA95EA5DFE4F70809F5FF70190837E
:1042900048C021E030E040E250E060E170E0CF0152
:1042A0000E948B2A803209F0F9C0D8011C9280E26A
:1042B000C82ED12CFE01E85BFE4F4F01D5018D9138
:1042C0009C91DC01ED91FC910284F385E02D199520
:1042D0008A3021F4F40190819D3079F4D4018C93DB
:1042E000F8019081FE01E90FF11D97FDFA95EA5D55
:1042F000FE4F80839F5FD8019C93B1E0CB1AD10819
:10430000E9F6F801808181508083811107C0CA5D80
:10431000DE4F88818A3011F48FEF8083D7011C92A1
:10432000BDC0FE01E454FF4F80819181892B09F4C7
:104330003EC05E01BFEBAB0EB11C8E0102541F4F9D
:1043400099249A946E01E8EBCE1AEEEFDE0AD501BD
:104350008D919C91C2DBF801808187FD02C060E0F5
:1043600044D99EBC00000DB407FEFDCF7EB4D80139
:104370008C9187FD02C061E038D9C9DBBAE07B12BD
:1043800004C0F60180818D3011F7E72CF12CC701B4
:104390000E942742892B29F0FE01E85BFE4F7082C4
:1043A00006C0C7010E942D42892B89F2F5CF8E01EC
:1043B000065C1D4FD8018D919C91FE01E75CFD4F7D
:1043C000208131E0320F3083820F911DDC017C921D
:1043D0008081883710F087E78083BAE07B124AC07B
:1043E0002081D8018D919C91820F911DDC011C923E
:1043F000D8016D917C911197AE01475B5E4F9E0194
:104400002F533E4FCE01845C9D4F6417750731F4E6
:104410002D933C93DC016D937C9306C0D8014D93A2
:104420005C93DC012D933C931082FE01E25CFD4F16
:1044300081E080830E946619FE01E355FF4F60838F
:10444000718382839383CF54DF4F809120119091A9
:104450002111A0912211B091231188839983AA83FD
:10446000BB831092201110922111109222111092F0
:10447000231114C08091201190912111A09122113B
:10448000B0912311892B8A2B8B2B41F42092201180
:10449000309221114092221150922311872DDF91E9
:1044A000CF911F910F91FF90EF90DF90CF90BF9031
:1044B000AF909F908F907F905F904F903F902F9004
:1044C0000895FC01DC01AA54BF4F11961C921E9264
:1044D000129611961C921E92129611961C921E9282
:1044E000129611961C921E92AE57BE4F1C92A9585E
:1044F000B1401C92AC57BE4F1C921196875B9E4FE9
:1045000011969C938E93129688589F4F11969C9368
:104510008E93A25CB1401C9211971C9211971C9231
:1045200013AE12AE11AE16AA15AA14AA12971C92B7
:1045300011971C9211971C9213961C9210AE17AAF9
:1045400017971D921D921D921C92139714971D92FE
:104550001D921D921C92139714971D921D921D92ED
:104560001C92139714971D921D921D921C921397E3
:1045700014971D921D921D921C92139714971D92D1
:104580001D921D921C92139714971D921D921D92BD
:104590001C92139714971D921D921D921C921397B3
:1045A00054971D921D921D921C92139714AE15AE36
:1045B00016AE17AE0895EF92FF920F931F93CF930D
:1045C000DF93EC017B011B821A828EED96E09983CA
:1045D00088831D821C821E821F82188684E1FE0150
:1045E0003996DF01982F1D929A95E9F71D8E1E8E40
:1045F0001F8E7796DF011D928A95E9F7DE01A95794
:10460000BF4F8AE0EEE1F2E001900D928A95E1F76A
:10461000DE01AF56BF4F8AE0E8E2F2E001900D9272
:104620008A95E1F7FE01E556FF4F89E596E0918313
:104630008083329680E094E9A5E3B7E78083918395
:10464000A283B383349680839183A283B383349609
:1046500080839183A283B383349680839183A283E2
:10466000B383349680839183A283B383349680830B
:104670009183A283B3833D961FEF108300E021E076
:1046800040E452E46FE070E0CE0181549F4F00DAC5
:10469000FE01EA5BFE4F1083319610823196108244
:1046A000EF50FF4F1082CE010CDFC854DF4FF9826C
:1046B000E882DF91CF911F910F91FF90EF900895C5
:1046C000825C9D4FFC0180810895FC01E25CFD4FFE
:1046D00010823297808191810895603358F06A3357
:1046E00010F480ED05C08FEB860F863018F489EC4E
:1046F000860F089580E00895CF92DF92EF92FF92A7
:104700000F931F93CF93DF93EC011D821C82FB015B
:1047100080818432C1F481E090E09D838C83CB0161
:104720007C010196F70120812111FACFF7018081E8
:104730008A3259F06E157F0530F4F1E0EF1AF10876
:10474000F5CF892BE1F080E05EC08B01F70161813C
:10475000CE01C3DFF0E18F9F60011124F701628178
:10476000CE01BBDF9601280F311DC9010F5F1F4F1E
:10477000F801EE15FF0528F721918227FACF83E093
:1047800090E09D838C83AE0149575F4FB801CE0105
:1047900049DA7C010097B9F2BC01CE0106960E946D
:1047A0007E428DE090E09D838C83F7010190002094
:1047B000E9F73197EE19FF090E0F1F1FAE014F5693
:1047C0005F4FB801CE012EDA009751F0BC01CE0147
:1047D00009960E947E4289E490E09D838C8312C0FA
:1047E000AE0145565F4FB801CE011CDA009751F07B
:1047F000BC01CE0109960E947E4281E290E09D8339
:104800008C83A1CF81E0DF91CF911F910F91FF9019
:10481000EF90DF90CF9008954F925F926F927F92CA
:104820008F929F92AF92BF92DF92EF92FF920F937F
:104830001F93CF93DF93EC018B015EDFD82E8111A4
:1048400002C0D12C35C26CE270E0C8010E946A42FD
:104850008C010F5F1F4F7E0189E0E80EF11C69E6B5
:1048600076E0C7010E947542892B09F0ADC0B801FE
:10487000CE0112DA6CE270E0C8010E946A428C013B
:104880000F5F1F4FB801CE0156DA6CE270E0C8012D
:104890000E946A428C010F5F1F4FB801CE0121DBDD
:1048A000882379F26CE270E0C8010E946A428C01B0
:1048B0000F5F1F4FB801CE0148DB6CE270E0C8010A
:1048C0000E946A428C010F5F1F4FB801CE0115DCB8
:1048D000882309F4B6CF6CE270E0C8010E946A42F6
:1048E0008C010F5F1F4FFC0181818C32C1F0C80128
:1048F0000E94E241FE01E858FF4F808331978823F0
:1049000069F081E08083FA9680819181A281B381F0
:10491000709780839183A283B38301C010826CE27D
:1049200070E0C8010E946A428C010F5F1F4FFC01BA
:1049300081818C3239F0C8010E94E241FE01E658C3
:10494000FF4F80836CE270E0C8010E946A428C01D4
:104950000F5F1F4FFC0181818C3251F0C8010E9412
:10496000DF41FE01E859FF4F6083718382839383A7
:104970006CE270E0C8010E946A428C010F5F1F4F19
:10498000FC0181818C3251F0C8010E94DF41FE019F
:10499000E85AFF4F60837183828393836CE270E0F7
:1049A000C8010E946A426CE270E001960E946A426D
:1049B000FC0121812C3209F467C101960E94DF417C
:1049C000FE01EC5AFF4F5CC165E776E0C7010E942B
:1049D0007542892B09F0A5C0B801CE015DD96CE202
:1049E00070E0C8010E946A428C010F5F1F4FB8013E
:1049F000CE01B2DB882309F424CF6CE270E0C80159
:104A00000E946A428C010F5F1F4FB801CE0193D9FB
:104A10006CE270E0C8010E946A428C010F5F1F4F78
:104A2000B801CE015EDA882309F40BCF6CE270E0A6
:104A3000C8010E946A428C010F5F1F4FB801CE016E
:104A400084DA6CE270E0C8010E946A428C010F5F58
:104A50001F4FB801CE0151DB882309F4F2CE6CE27E
:104A600070E0C8010E946A428C010F5F1F4FFC0179
:104A700081818C3251F0C8010E94DF41FE01E45A6D
:104A8000FF4F60837183828393836CE270E0C8017F
:104A90000E946A428C010F5F1F4FFC0181818C32A2
:104AA00051F0C8010E94DF41FE01E05AFF4F6083D0
:104AB0007183828393836CE270E0C8010E946A4232
:104AC000FC0121812C3209F4DFC001960E94DF41F4
:104AD0000E9465112B013C0120E137E240E050E0EB
:104AE0000E945B3F2BAF24E6822E912CA12CB12C8F
:104AF000A50194010E945B3F2AAFC301B201A50149
:104B000094010E945B3F69AFFE01EF54FF4F80812B
:104B10009181A281B381389780839183A283B383EB
:104B2000B3C06DE676E0C7010E947542892B09F09B
:104B300042C0B801CE01FFD86CE270E0C8010E940B
:104B40006A428C010F5F1F4FB801CE01CAD988237A
:104B500009F477CE6CE270E0C8010E946A428C01D1
:104B60000F5F1F4FB801CE01F0D96CE270E0C801B1
:104B70000E946A428C010F5F1F4FB801CE01BDDA5F
:104B8000882309F45ECE6CE270E0C8010E946A429C
:104B90008C010F5F1F4FB801CE017ED86CE270E030
:104BA000C8010E946A42BC016F5F7F4FCE01D4DA18
:104BB00081116AC046CE61E776E0C7010E94754266
:104BC000892B09F03ECE6CE270E0C8010E946A4277
:104BD0008C010F5F1F4FFC0181818C3239F0C801BD
:104BE0000E94E241FE01E758FF4F80838CE0A82E2F
:104BF000B12C6CE270E0C8010E946A428C010F5F28
:104C00001F4FF1E0AF1AB108A1F76CE270E0C801E4
:104C10000E946A428C010F5F1F4FFC0181818C3220
:104C200051F0C8010E94DF41FE01E059FF4F60834F
:104C30007183828393836CE270E0C8010E946A42B0
:104C40008C010F5F1F4FFC0181818C3251F0C80134
:104C50000E94DF41FE01E859FF4F60837183828328
:104C600093836CE270E0C8010E946A42FC012181DA
:104C70002C3251F001960E94DF41FE01E459FF4FB2
:104C80006083718382839383BE016A5F7F4FCE010D
:104C90004D960E947E42B701CE0180960E947E42D0
:104CA0000E946619C356DF4F688379838A839B838A
:104CB0008D2DDF91CF911F910F91FF90EF90DF909D
:104CC000BF90AF909F908F907F906F905F904F902C
:104CD0000895CF93DF931F92CDB7DEB7FC01198201
:104CE0006370668BDC01AA5BBF4F8C91982F9B7F12
:104CF000AF014C5B5F4F913029F4623008F493E0D0
:104D0000DA019C939F012D5B3F4F6230D9F06330F5
:104D100009F43FC0613071F0823011F0843029F421
:104D200090EC9983813019F415C098EC10C0843050
:104D3000B1F01CC0823011F0843011F490EA2EC022
:104D400098EA35C0823091F0843049F098E0998338
:104D5000813061F480E890E0938782870DC080EA1B
:104D600090E09387828780E590E006C080EA90E03B
:104D70009387828780E890E091878087D9018C9122
:104D800090E092AF81AFDA018C9190E094AF83AF65
:104D90002DC0823011F0843049F490E6998381303F
:104DA00051F480E890E09187808714C098E6998359
:104DB000813051F4F6CF843039F480EA90E0918765
:104DC000808780E590E006C080EA90E09187808748
:104DD00080E890E093878287D9018C9190E094AF2E
:104DE00083AFDA018C9190E092AF81AF21E0AE0108
:104DF0004F5F5F4F66E3CF010E94B8380F90DF919D
:104E0000CF910895EF920F93CF93DF93EC01E22EB1
:104E1000042F262F40EA50E060E870E0B7D08AEE19
:104E200096E099838883DF91CF910F91EF90089559
:104E3000411551056105710521F440E058E468EE23
:104E400071E0FC01FF96408351836283738321E20A
:104E5000FC0125AF20E226AFEB5BFF4F20810C94D5
:104E6000E3368F929F92AF92BF92CF92DF92EF92F2
:104E7000FF920F931F93CF93DF93EC0189AD9AAD0F
:104E80004B01880E991E8BAD9CAD480F591FC9016F
:104E90000197880D991DA0E0B0E0A12CB12C540120
:104EA00099248824882A992AAA2ABB2A0150110900
:104EB0006801C40ED51E860120E030E06A01E12CB5
:104EC000F12C7601DD24CC24C02AD12AE22AF32A4F
:104ED0006AE2CE010E945238B501A401CE010E94BF
:104EE0008D396BE2CE010E945238B701A601CE0186
:104EF0000E948D396CE2CE01DF91CF911F910F910D
:104F0000FF90EF90DF90CF90BF90AF909F908F90E9
:104F10000C945238CF93DF931F92CDB7DEB7FC01CC
:104F200019826370668B8D5B9F4FAF014C5B5F4F47
:104F3000623049F0633091F0613019F020EC298340
:104F400002C020EA0CC0DC018C9190E092AF81AFEE
:104F5000DA018C9190E094AF83AF0CC020E62983F6
:104F6000DC018C9190E094AF83AFDA018C9190E0FA
:104F700092AF81AF21E0AE014F5F5F4F66E3CF019B
:104F80000E94B8380F90DF91CF910895EF920F9360
:104F9000CF93DF93EC010E94D6368AE197E09983A4
:104FA0008883FE01ED5BFF4F108231961082CB5B50
:104FB000DF4F1882DF91CF910F91EF900895AF925C
:104FC000BF92CF92DF92EF92FF920F931F93CF93F6
:104FD000DF93EC01E62EA72EF42EB52E69018FEF9C
:104FE0009FEF9D838C839F838E8361E08E2D0E9433
:104FF000B91A60E08F2D0E94B91AE882A982FA825C
:10500000BB82DD82CC821F830E83DF91CF911F9103
:105010000F91FF90EF90DF90CF90BF90AF900895E9
:10502000CF92DF92EF92FF92CF93DF93EC0160E09B
:1050300088810E94F51A85E090E00E94D11961E014
:1050400088810E94F51A8AE090E00E94D11960E000
:1050500088810E94F51A8A810E94231B892BD9F32B
:105060000E9472196B017C018A810E94231B0197A7
:10507000D9F30E947219CB018C199D09DF91CF9150
:10508000FF90EF90DF90CF900895CF93DF93EC01E6
:10509000C7DF97FD0196BC0175956795072E000C3B
:1050A000880B990B0E94931127EE3BEF49EA5EE3D0
:1050B0000E9447120E9460119B014C815D814F3F0D
:1050C000AFEF5A0721F4EE81FF81319659F0421774
:1050D00053072CF44E815F81241735071CF08FEFA6
:1050E0009FEF01C0CB01DF91CF9108951F920F92E6
:1050F0000FB60F9211240BB60F922F933F934F933D
:105100005F936F937F938F939F93AF93BF93EF932F
:10511000FF93E0912612F0912712309709F44FC0C7
:10512000968DA685B785858591FF04C09C918923BE
:1051300029F445C09C91892309F041C0A389B48911
:105140009C918589809589238C938689978901977D
:10515000F1F7608D718DA685B785558538E020E023
:10516000CB010197F1F7822F90E095958795282F35
:105170004C91452309F02068315091F7868D81FDCF
:1051800020958091251190E00196309124113817D7
:1051900049F0A0912511B0E0AA5DBE4E2C938093FA
:1051A000251103C0868D8160868F828D938D019736
:1051B000F1F7A389B4899C918589892B8C93FF9100
:1051C000EF91BF91AF919F918F917F916F915F917F
:1051D0004F913F912F910F900BBE0F900FBE0F90EC
:1051E0001F901895CF93CFB7F89480912B1281110F
:1051F00027C0EBE3F2E08491E5EFF1E09491E82F32
:10520000F0E0EE0FFF1FE058FD4FA591B491EC9137
:10521000E92321F461E085E30E94F51A61E085E36A
:105220000E94B91A8CB580618CBD8CB580648CBD30
:1052300061E084E30E94B91A61E083E30E94B91A35
:1052400080912B128F5F80932B12CFBFCF91089547
:105250008091611290E020916212821B9109089561
:105260009091621280916112981750F4E92FF0E04A
:10527000ED59FD4E208130E09F5F9093621202C095
:105280002FEF3FEFC9010895E09162128091611202
:10529000E81730F4F0E0ED59FD4E808190E008957C
:1052A0008FEF9FEF08950895CF93DF93EC01E09186
:1052B0003912F0913A123097F1F090916212809188
:1052C00061129817C0F090E0292F30E026173707B9
:1052D00054F4DE01A20FB31F4C91D901AD59BD4E5C
:1052E0004C939F5FF1CF1092621260936112CB01D9
:1052F000DF91CF911994DF91CF910895E0913B1206
:10530000F0913C12309729F010923F1210923E1209
:1053100019940895CF92DF92EF92FF920F931F930B
:10532000CF93DF937C01CB018A0120913D12222390
:1053300089F0EB016B01C40ED51ECC15DD0569F0BB
:105340006991D701ED91FC910190F081E02DC701A9
:105350001995F3CF642F0E94B83DC801DF91CF911A
:105360001F910F91FF90EF90DF90CF900895CF9312
:10537000DF931F92CDB7DEB7698320913D122223C0
:10538000D1F020913E12203240F021E030E0FC01CB
:105390003383228380E090E015C080913F12E82F94
:1053A000F0E0E05CFD4E998190838F5F80933F1227
:1053B00080933E1205C061E0CE0101960E94B83D87
:1053C00081E090E00F90DF91CF910895FC0113826E
:1053D000128288EE93E0A0E0B0E084839583A683F8
:1053E000B7838AE497E091838083089510926212D4
:1053F0001092611210923F1210923E120E94FC3CD9
:105400008EE799E20E94E53D84E599E20C94E03D47
:1054100081E080933D126093601210923F121092CF
:105420003E120895F5CF0F93062F21E040913E12D2
:1054300060E472E1809160120E94623D10923F121E
:1054400010923E1210923D120F9108954F925F926A
:105450006F927F92AF92BF92CF92EF92FF920F9393
:105460001F93CF93DF935C01F62ED42F28013901CF
:10547000EE2011F1CDDFCE2DC43008F0C3E0C150D5
:10548000C0F028E0C29FC0011124A301920104C012
:1054900056954795379527958A95D2F7CA01B90150
:1054A000D501ED91FC910190F081E02DC501199598
:1054B000E6CF60E0C501B7DF4D2FD13208F040E202
:1054C0002C2D63E672E18F2D0E941A3D109262121C
:1054D00080936112DF91CF911F910F91FF90EF9018
:1054E000CF90BF90AF907F906F905F904F90089556
:1054F000CF92EF920F931F93C22EE12C00E010E0A9
:105500009801A4DF1F910F91EF90CF90089521E0B3
:10551000EFCF21E0EDCFECCF61E085CF8DE292E1DE
:1055200055CF885E9E4FDC018D919C91DC01ED9101
:10553000FC910084F185E02D1994885E9E4FDC017A
:105540008D919C91DC01ED91FC910190F081E02D19
:105550001994885E9E4FDC018D919C91DC01ED9148
:10556000FC910284F385E02D1994885E9E4FDC0146
:105570008D919C91DC01ED91FC910484F585E02DE9
:105580001994885E9E4FDC018D919C91DC01ED9118
:10559000FC910680F781E02D1994FC0113821282A0
:1055A00088EE93E0A0E0B0E084839583A683B78380
:1055B00083EB97E0918380836487DF01A35FBE4F15
:1055C00082E393E011969C938E93129611961C920F
:1055D0001E92129611961C921E92179611961C926C
:1055E0001E9215971C9211968DE293E08D939C93D9
:1055F000EA5EFE4F8AE293E09183808308950F93E1
:105600001F93CF93DF93EC0180E090E08C010F5F5C
:105610001F4F8897D8F4E881F9810084F185E02D47
:10562000CE011995892B51F0E881F9810284F38527
:10563000E02DCE01199500E010E0EDCF61E070E0C3
:1056400080E090E00E949719C801E0CFDF91CF91F0
:105650001F910F910895AF92BF92CF92DF92EF9278
:10566000FF920F931F93CF93DF93EC018B016C019B
:105670008EE0C80ED11CE12CF12C5E01A8EEAA1A16
:10568000AEEFBA0A0E151F0519F1BEEFEB16F104C5
:10569000E9F0F50180819181DC01ED91FC910084BC
:1056A000F185E02D1995892B69F3F50180819181B0
:1056B000DC01ED91FC910284F385E02D1995F60152
:1056C00081936F01FFEFEF1AFF0ADCCF0EEF10E0BE
:1056D000C00FD11F1E86C801DF91CF911F910F917E
:1056E000FF90EF90DF90CF90BF90AF900895BF9262
:1056F000CF92DF92EF92FF920F931F93CF93DF939E
:105700007C01B42E8B01C0E0D0E06C0188EEC81A99
:105710008EEFD80A0115110589F1CE3FD10570F53C
:10572000D6018D919C91DC01ED91FC910084F18575
:10573000E02D1995892BC1F0F60180819181DC0162
:10574000ED91FC910284F385E02D19958D3041F3A4
:105750008A3021F4209721F3BB2081F0F701EC0F70
:10576000FD1F86872196DCCF0150110939F061E0D9
:1057700070E080E090E00E949719CCCFF701EC0F29
:10578000FD1F16868C2FDF91CF911F910F91FF90F7
:10579000EF90DF90CF90BF900895EF92FF920F931C
:1057A0001F93CF93DF93EC018B017A0128DF6FEA1F
:1057B00072E083EA9EE00E94B516B80183EA9EE09B
:1057C0000E941217FE01E85EFE4FB80180819181B0
:1057D0000E94121740E0B701CE0189DF182F68EA56
:1057E00072E083EA9EE00E94B516BE01625F7F4FC1
:1057F00083EA9EE00E941217812FDF91CF911F91C3
:105800000F91FF90EF900895EF92FF920F931F93E7
:10581000CF93DF93EC018B017A01F1DE61EA72E054
:1058200083EA9EE00E94B516B80183EA9EE00E94DA
:10583000F216FE01E85EFE4FB801808191810E9460
:10584000F21640E0B701CE0152DF182F6AE972E08C
:1058500083EA9EE00E94B516BE01625F7F4F83EA35
:105860009EE00E941217812FDF91CF911F910F911F
:10587000FF90EF9008950F931F93CF93DF93EC0168
:105880008A01A901C1DF882341F0B801CE010E963B
:105890000E94354221E0892B09F020E0822FDF9120
:1058A000CF911F910F9108950F931F93CF93DF9383
:1058B000EC018A01A90171DF882341F0B801CE0112
:1058C0000E960E94354221E0892B09F020E0822FBC
:1058D000DF91CF911F910F910895AF92BF92CF9218
:1058E000DF92EF92FF920F931F93CF93DF93CDB789
:1058F000DEB76E970FB6F894DEBF0FBECDBF8C013A
:105900005B016A01FC01EA5EFE4F4081518124EF98
:1059100031E066EC72E0AFDF882309F483C08AE0EF
:10592000E3E6F2E09E012F5F3F4F7901D90101903C
:105930000D928A95E1F7FE013B9684E1DF011D920D
:105940008A95E9F743E150E0B501CE010A960E943D
:105950009342F70101900020E9F7319782E28083BA
:1059600024EF31E043EC52E0B701C8019DDF88230A
:1059700009F458C060EC72E083EA9EE00E94B5161C
:10598000B60183EA9EE00E941217B6017801B8EED4
:10599000EB1ABEEFFB0AF701808191810E9412177A
:1059A000D7018D919C910E94EF16F7018081918122
:1059B000DC01ED91FC910190F081E02D6AE11995F7
:1059C00067E877E083EA9EE00E941217F801858578
:1059D0008450823050F440E068EC70E0C80187DE0B
:1059E00040E068EC70E0C80182DE40E060E177E210
:1059F000C8017DDE7801FEE0EF0EF11C6AE877E079
:105A0000C7010E94A242892B69F040E068EE73E072
:105A1000C8016DDE6DE577E0C7010E94754221E0A7
:105A2000892B09F020E0822F6E960FB6F894DEBF26
:105A30000FBECDBFDF91CF911F910F91FF90EF90DF
:105A4000DF90CF90BF90AF900895DF92EF92FF92DA
:105A50000F931F93CF93DF93CDB7DEB72C970FB67D
:105A6000F894DEBF0FBECDBF8C01D62E7C018AEE2E
:105A7000E81A8EEFF80AF7014081518124EF31E0F6
:105A800066EB72E0C801F7DE882311F18CE0E0E9F3
:105A9000F7E0DE01119601900D928A95E1F78D2DC8
:105AA00064E60E943C3F20E3280F2987892F6AE0A3
:105AB0000E943C3F805D8A87905D9B87F701408113
:105AC000518120ED37E0BE016F5F7F4FC801ECDEF2
:105AD0002C960FB6F894DEBF0FBECDBFDF91CF91ED
