:10000000ABC300000C9498170C94C3170C94EE1714
:100010000C9419180C9444180C946F180C949A189A
:100020000C94C5180C9410150C9410150C94101504
:10003000C4C30000C2C30000C0C30000BEC30000B0
:10004000BCC30000BAC30000B8C30000B6C30000C0
:10005000B4C30000B2C30000B0C300000C94000E93
:10006000ACC300000C94B00B0C94E60BA6C30000CC
:10007000A4C30000A2C30000A0C300009EC30000F0
:100080009CC300009AC3000098C3000096C3000000
:100090000C94450C0C947B0C90C300000C947526BA
:1000A0008CC300008AC3000088C3000086C3000020
:1000B00084C3000082C3000080C300007EC3000030
:1000C0007CC300007AC3000078C300000C94DA0CF3
:1000D0000C94100D72C3000070C300006EC30000CA
:1000E0006CC30000560F590F480F4C0F520F900F62
:1000F0005D0F610F670F6B0F6F0F750F790F7D0F1E
:10010000900F830F870F8B0F48656C6C6F20576FB4
:10011000726C64210000000A0B02090C0D0E080726
:1001200003040100000000000000000000000000C7
:1001300000000000000000000000000000000000BF
:10014000001211100000000000000000000000007C
:10015000000000000000000000000001021020204C
:10016000080810204010204080020102010804020B
:100170000101020408102040808040201008040281
:1001800001800402018040201008040201080402DA
:1001900001010204081020408001020408102040E0
:1001A0008005050505070508080808020202020A7D
:1001B0000A0808040404040101010101010101030A
:1001C00003030303030303040707070C0C0C0C0CC5
:1001D0000C0C0C0202020206060606060606060BB8
:1001E0000B0B0B0B0B0B0B00002000230026002930
:1001F000002C002F0032000001000003010601095D
:100200000100002200250028002B002E00310034C0
:100210000002010000050108010B0100002100247B
:100220000027002A002D00300033000101000004E7
:100230000107010A014F4B00464F4E4100464F4E09
:10024000416E65740000000000003E5B4F5B3E3E67
:100250006B4F6B3E1C3E7C3E1C183C7E3C181C5772
:100260007D571C1C5E7F5E1C00183C1800FFE7C316
:10027000E7FF0018241800FFE7DBE7FF30483A06E5
:100280000E2629792926407F050507407F05253F51
:100290005A3CE73C5A7F3E1C1C08081C1C3E7F143D
:1002A000227F22145F5F005F5F06097F017F006687
:1002B00089956A606060606094A2FFA29408047EE1
:1002C000040810207E201008082A1C08081C2A0890
:1002D000081E101010100C1E0C1E0C30383E38304A
:1002E000060E3E0E06000000000000005F00000049
:1002F00007000700147F147F14242A7F2A12231377
:1003000008646236495620500008070300001C228A
:1003100041000041221C002A1C7F1C2A08083E08BC
:1003200008008070300008080808080000606000BD
:1003300020100804023E5149453E00427F400072B1
:10034000494949462141494D331814127F10274528
:100350004545393C4A494931412111090736494946
:100360004936464949291E00001400000040340067
:10037000000008142241141414141400412214081B
:1003800002015909063E415D594E7C1211127C7FD3
:10039000494949363E414141227F4141413E7F49E1
:1003A0004949417F090909013E414151737F0808CC
:1003B000087F00417F41002040413F017F08142217
:1003C000417F404040407F021C027F7F0408107F35
:1003D0003E4141413E7F090909063E4151215E7F70
:1003E00009192946264949493203017F01033F4043
:1003F00040403F1F2040201F3F4038403F631408CB
:10040000146303047804036159494D43007F41415B
:10041000410204081020004141417F04020102040E
:100420004040404040000307080020545478407F7B
:10043000284444383844444428384444287F3854B5
:1004400054541800087E090218A4A49C787F08045C
:10045000047800447D40002040403D007F10284447
:100460000000417F40007C047804787C0804047814
:100470003844444438FC1824241818242418FC7CDC
:1004800008040408485454542404043F44243C40C1
:1004900040207C1C2040201C3C4030403C44281024
:1004A00028444C9090907C4464544C44000836415D
:1004B000000000770000004136080002010204023B
:1004C0003C2623263C1EA1A161123A4040207A38E6
:1004D0005454555921555579412254547842215547
:1004E00054784020545579400C1E5272123955559B
:1004F0005559395454545939555454580000457C71
:10050000410002457D420001457C407D1211127D73
:10051000F0282528F07C545545002054547C547C08
:100520000A097F4932494949323A4444443A324AF5
:100530004848303A4141217A3A42402078009DA013
:10054000A07D3D4242423D3D4040403D3C24FF2491
:1005500024487E4943662B2FFC2F2BFF0929F620C8
:10056000C0887E090320545479410000447D413005
:1005700048484A32384040227A007A0A0A727D0D91
:1005800019317D2629292F28262929292630484D49
:100590004020380808080808080808382F10C8AC98
:1005A000BA2F102834FA00007B000008142A142205
:1005B00022142A14085500550055AA55AA55AAFF19
:1005C00055FF55FF000000FF00101010FF0014142D
:1005D00014FF001010FF00FF1010F010F01414149E
:1005E000FC001414F700FF0000FF00FF1414F404D3
:1005F000FC141417101F10101F101F1414141F00C8
:10060000101010F0000000001F101010101F10102C
:100610001010F010000000FF10101010101010103B
:1006200010FF10000000FF140000FF00FF00001F7B
:1006300010170000FC04F414141710171414F40419
:10064000F40000FF00F714141414141414F700F746
:10065000141414171410101F101F141414F4141071
:1006600010F010F000001F101F0000001F14000009
:1006700000FC140000F010F01010FF10FF14141410
:10068000FF141010101F00000000F010FFFFFFFF0C
:10069000FFF0F0F0F0F0FFFFFF0000000000FFFFB0
:1006A0000F0F0F0F0F3844443844FC4A4A4A347E37
:1006B00002020606027E027E026355494163384407
:1006C000443C04407E201E2006027E020299A5E7DB
:1006D000A5991C2A492A1C4C7201724C304A4D4D76
:1006E000303048784830BC625A463D3E494949005E
:1006F0007E0101017E2A2A2A2A2A44445F4444407A
:10070000514A444040444A51400000FF0103E08008
:10071000FF000008086B6B083612362436060F09F6
:100720000F06000018180000001010003040FF01F4
:1007300001001F01011E00191D1712003C3C3C3C2A
:100740000000000000004F055D050A07A507B90776
:10075000180CAD0C420D231711241FBECFEFD1E2B0
:10076000DEBFCDBF00E00CBF14E0A0E0B2E0EAE2E3
:10077000F0E500E00BBF02C007900D92A032B10778
:10078000D9F72CE0A0E2B4E001C01D92A73FB20768
:10079000E1F713E0CCEAD3E000E006C021970109BD
:1007A000802FFE010E94D827C33AD10780E00807B6
:1007B000A9F70E94700D0C94132822CCDC01ED9156
:1007C000FC910190F081E02D1994CF93DF93C0E26A
:1007D000D4E060914C0470914D0480914E0490914E
:1007E0004F043BD520E030E040E05AE3EAD568838F
:1007F00079838A839B836091480470914904809136
:100800004A0490914B0429D520E030E040E05AE3BF
:10081000D8D56C837D838E839F83609144047091CF
:100820004504809146049091470417D520E030E0BC
:1008300040E05AE3C6D5688779878A879B87DF912E
:10084000CF910895CF93DF93C0E2D4E0609140044C
:10085000709141048091420490914304FED420E0C1
:1008600030E044E253E45ED46C877D878E879F87B7
:1008700060913C0470913D0480913E0490913F044E
:10088000ECD420E030E044E253E44CD4688B798B24
:100890008A8B9B8B609138047091390480913A0463
:1008A00090913B04DAD420E030E044E253E43AD4BF
:1008B0006C8B7D8B8E8B9F8BDF91CF910895CF9327
:1008C00068E670E083E39CE00E94A8166BE370E0AA
:1008D00083E39CE073DF83E39CE00E94211746E002
:1008E00050E068E670E083E39CE00E941F1783E31A
:1008F0009CE00E94BE150697D4F383E39CE00E941F
:10090000C615C82F83E39CE00E94C61520E030E0A6
:100910003C2F822B932B092E000CAA0BBB0B809330
:100920004C0490934D04A0934E04B0934F0483E382
:100930009CE00E94C615C82F83E39CE00E94C61568
:1009400020E030E03C2F822B932B092E000CAA0BC9
:10095000BB0B8093480490934904A0934A04B0933E
:100960004B0483E39CE00E94C615C82F83E39CE000
:100970000E94C61520E030E03C2F822B932B092EDD
:10098000000CAA0BBB0B8093440490934504A093E6
:100990004604B0934704CF9118CFCF9368E670E038
:1009A00083E39CE00E94A81663E470E083E39CE08C
:1009B00005DF83E39CE00E94211746E050E068E6F3
:1009C00070E083E39CE00E941F1783E39CE00E9499
:1009D000BE150697D4F383E39CE00E94C615C82F8A
:1009E00083E39CE00E94C61520E030E03C2F822B80
:1009F000932B092E000CAA0BBB0B80934004909301
:100A00004104A0934204B093430483E39CE00E941A
:100A1000C615C82F83E39CE00E94C61520E030E095
:100A20003C2F822B932B092E000CAA0BBB0B80931F
:100A30003C0490933D04A0933E04B0933F0483E3B1
:100A40009CE00E94C615C82F83E39CE00E94C61557
:100A500020E030E03C2F822B932B092E000CAA0BB8
:100A6000BB0B8093380490933904A0933A04B0935D
:100A70003B04CF91E7CECF93DF93EC0120DF8DDFF6
:100A800088E1E0E2F4E0DE0101900D928A95E1F761
:100A9000CE01DF91CF91089580E090E0089566E166
:100AA00080E594E00E946217E0E5F4E08CE292E0D9
:100AB0009183808384E08587089564E87AE08AE6FC
:100AC00095E00C94891284ED97E00E94DF149093D6
:100AD000B5078093B4078FE10E94FB0F9093B30793
:100AE0008093B20781E090E09093B1078093B007C4
:100AF000BAD12093CE073093CF074093D0075093BD
:100B0000D1076093D2077093D3078091000282309F
:100B100020F08450853008F0089581E0089560E069
:100B20008FE10E94910F61E082E20E94910F61E0EB
:100B300087E20E94910F61E089E20E94910F61E0DB
:100B40008BE20E94910F61E08DE20E94910F61E0C3
:100B500085E20E94910F60E087E20E94CD0F60E085
:100B600082E20E94CD0F60E089E20E94CD0F60E03A
:100B70008BE20E94CD0F60E08DE20E94CD0F60E01D
:100B800085E20E94CD0F26E040E855E260E070E08B
:100B90008AE499E07FD568E071E08AE499E00E94F8
:100BA000E00D49C10F931F93CF93DF93CAE0D0E0CC
:100BB00084ED97E00E94DF14080F191F2197C1F7F9
:100BC000C8016AE070E00E94A327CB01DF91CF91BA
:100BD0001F910F910895CF92DF92EF92FF92CF93E2
:100BE000DF93CDB7DEB768970FB6F894DEBF0FBEC0
:100BF000CDBF80910002882311F12091BA07309176
:100C0000BB074091BC075091BD076091B60770913A
:100C1000B7078091B8079091B9071CD22091BE0701
:100C20003091BF074091C0075091C10713D22DECFE
:100C30003CEC4CE85FE3C1D387FF10920002809147
:100C4000AF07882319F084E08093000280910002AE
:100C5000843009F45AC030F4882369F0813009F4F3
:100C60003CC0C9C0863009F487C008F46DC0873025
:100C700009F49FC0C0C01092AF07CE010196FBDE01
:100C800088E1FE013196A6EBB7E001900D928A95BE
:100C9000E1F72091BA073091BB074091BC07509112
:100CA000BD076091B6077091B7078091B807909122
:100CB000B907D0D12091BE073091BF074091C0073E
:100CC0005091C107C7D12DEC3CEC4CE85FE326D234
:100CD00018160CF492C081E086C061E085E20E94A3
:100CE000CD0F46D16093AB077093AC078093AD07EF
:100CF0009093AE0720E030E040EA52E45ED318164D
:100D000014F485E070C084E06EC0DDDE882321F03D
:100D100081E08093AA0708C0D6DE811105C042DFBA
:100D2000909302028093010220E030E040EA52E416
:100D30006091AB077091AC078091AD079091AE07C1
:100D40003CD31816F4F259C0C090AB07D090AC0752
:100D5000E090AD07F090AE0720E030E04CEA52E4BE
:100D6000C701B6012AD3181614F486E03CC020E06F
:100D700030E040EA52E417C0C090AB07D090AC0717
:100D8000E090AD07F090AE0720E030E046EB52E493
:100D9000C701B60112D3181614F487E024C020E06E
:100DA00030E04CEA52E4C701B601B8D187FD93CFD9
:100DB00024C061E08BE20E94CD0F61E089E20E94D5
:100DC000CD0FC090AB07D090AC07E090AD07F0908E
:100DD000AE0720E030E042ED52E4C701B601EDD2AB
:100DE000181624F488E08093000207C020E030E069
:100DF00046EB52E4D8CF1092000268960FB6F894F2
:100E0000DEBF0FBECDBFDF91CF91FF90EF90DF909F
:100E1000CF9008950F931F9300EA1FE024E130E084
:100E20004BE150E06DE170E084ED97E00E948414A6
:100E30001F910F91089569E68CED97E00E9466106E
:100E4000811106C06AE372E08AE499E0C9D6FFCF57
:100E50006FE672E08AE499E0C3D664E670E080E071
:100E600090E03DC708958F929F92AF92BF92CF922C
:100E7000DF92EF92FF920F931F93CF93DF9300D0F7
:100E800000D0CDB7DEB740E463E378E08CED97E0C7
:100E90000E94DD1083E3C82E88E0D82E00E010E029
:100EA000E12CF12CF60181909190A190B1906F010D
:100EB000B801012E000C880B990BCFD19B01AC011E
:100EC000C501B4017AD2181624F4C501B40192D137
:100ED0008B0120E030E048EB51E4C501B4016DD254
:100EE00087FD03C0FFEFEF1AFF0A83E3C81689E00E
:100EF000D806C1F60831110544F061E080E095E0C4
:100F0000E916F10424F460E002C060E080E01A8396
:100F10000983FC82EB82202F3A814E2D5C81782F51
:100F200080E090E026960FB6F894DEBF0FBECDBFEE
:100F3000DF91CF911F910F91FF90EF90DF90CF90B5
:100F4000BF90AF909F908F90089520E341E365E3B9
:100F50008CEE97E00C94A713FC01862F608321830D
:100F600032834383548360E0DCC788E399E066C042
:100F7000FCCF20E030E040EA50E467E388E399E00A
:100F800008D020E030E040EA50E467E383E399E0F2
:100F9000E3CFCF92DF92EF92FF921F93CF93DF9335
:100FA000EC01162F69017A0160E0812FBAD7CA825D
:100FB000DB82EC82FD821883DF91CF911F91FF903D
:100FC000EF90DF90CF900895CF93DF93EC0188816D
:100FD0002DD78983BC017727072E000C880B990B2E
:100FE0003CD120E030E040E85AE3EBD12A813B815C
:100FF0004C815D81E6D16E837F838887998720E06D
:1010000030E040E05FE325D020E030E048EC52E4FF
:10101000D8D16A877B878C879D8726E636E646EEA1
:101020005FE3CFD120E030E040E052E413D06E87A0
:101030007F87888B998BDF91CF910895CF93DF9332
:10104000EC01C2DF6E857F8588899989DF91CF9118
:1010500008955058BB27AA270ED075C166D130F02D
:101060006BD120F031F49F3F11F41EF45BC10EF4FC
:10107000E095E7FB51C1E92F77D180F3BA176207FA
:1010800073078407950718F071F49EF58FC10EF46D
:10109000E0950B2EBA2FA02D0B01B90190010C0188
:1010A000CA01A0011124FF27591B99F0593F50F4A0
:1010B000503E68F11A16F040A22F232F342F4427F8
:1010C000585FF3CF469537952795A795F0405395F0
:1010D000C9F77EF41F16BA0B620B730B840BBAF0C0
:1010E0009150A1F0FF0FBB1F661F771F881FC2F72B
:1010F0000EC0BA0F621F731F841F48F4879577953F
:101100006795B795F7959E3F08F0B3CF9395880FF5
:1011100008F09927EE0F979587950895D9D008F490
:1011200081E008950CD00FC107D140F0FED030F01F
:1011300021F45F3F19F0F0C0511139C1F3C014D14F
:1011400098F39923C9F35523B1F3951B550BBB278E
:10115000AA2762177307840738F09F5F5F4F220F3B
:10116000331F441FAA1FA9F333D00E2E3AF0E0E834
:1011700030D091505040E695001CCAF729D0FE2F80
:1011800027D0660F771F881FBB1F26173707480712
:10119000AB07B0E809F0BB0B802DBF01FF279358C8
:1011A0005F4F2AF09E3F510568F0B6C000C15F3F17
:1011B000ECF3983EDCF3869577956795B795F795B0
:1011C0009F5FC9F7880F911D9695879597F90895A8
:1011D000E1E0660F771F881FBB1F62177307840744
:1011E000BA0720F0621B730B840BBA0BEE1F88F753
:1011F000E095089504D06894B111D9C00895BCD089
:1012000088F09F5790F0B92F9927B751A0F0D1F0EF
:10121000660F771F881F991F1AF0BA95C9F712C079
:10122000B13081F0C3D0B1E00895C0C0672F782FEE
:101230008827B85F39F0B93FCCF3869577956795E5
:10124000B395D9F73EF490958095709561957F4F51
:101250008F4F9F4F0895E89409C097FB3EF49095F7
:101260008095709561957F4F8F4F9F4F9923A9F07F
:10127000F92F96E9BB279395F6958795779567950E
:10128000B795F111F8CFFAF4BB0F11F460FF1BC052
:101290006F5F7F4F8F4F9F4F16C0882311F096E9E5
:1012A00011C0772321F09EE8872F762F05C0662393
:1012B00071F096E8862F70E060E02AF09A95660F4C
:1012C000771F881FDAF7880F9695879597F9089505
:1012D000990F0008550FAA0BE0E8FEEF1616170647
:1012E000E807F907C0F012161306E407F50798F0AF
:1012F000621B730B840B950B39F40A2661F0232BC8
:10130000242B252B21F408950A2609F4A140A69543
:101310008FEF811D811D089597F99F6780E870E028
:1013200060E008959FEF80EC089500240A9416165B
:10133000170618060906089500240A9412161306C3
:10134000140605060895092E0394000C11F4882351
:1013500052F0BB0F40F4BF2B11F460FF04C06F5F6D
:101360007F4F8F4F9F4F089557FD9058440F551F43
:1013700059F05F3F71F04795880F97FB991F61F017
:101380009F3F79F087950895121613061406551F8E
:10139000F2CF4695F1DF08C0161617061806991FFA
:1013A000F1CF86957105610508940895E894BB27EF
:1013B00066277727CB0197F908958ADF08F48FEF26
:1013C00008950BD0C0CFB1DF28F0B6DF18F0952319
:1013D00009F0A2CFA7CF1124EACFC6DFA0F3959FD3
:1013E000D1F3950F50E0551F629FF001729FBB270C
:1013F000F00DB11D639FAA27F00DB11DAA1F649FB8
:101400006627B00DA11D661F829F2227B00DA11D6A
:10141000621F739FB00DA11D621F839FA00D611DF0
:10142000221F749F3327A00D611D231F849F600D11
:10143000211D822F762F6A2F11249F5750408AF04A
:10144000E1F088234AF0EE0FFF1FBB1F661F771FD6
:10145000881F91505040A9F79E3F510570F05CCF16
:10146000A6CF5F3FECF3983EDCF3869577956795C2
:10147000B795F795E7959F5FC1F7FE2B880F911DF4
:101480009695879597F90895FC01918D228D892F66
:1014900090E0805C9F4F821B91098F73992708957C
:1014A000FC01918D828D981731F0828DE80FF11D2E
:1014B000858D90E008958FEF9FEF0895FC01918D49
:1014C000828D981761F0828DDF01A80FB11D5D96A6
:1014D0008C91928D9F5F9F73928F90E008958FEF14
:1014E0009FEF0895FC01538D448D252F30E0842F0C
:1014F00090E0821B930B541710F0CF96089501973C
:1015000008958FE09CE0892B39F080E090E0892BF2
:1015100019F085D1811123C084EA9CE0892B39F030
:1015200080E090E0892B19F00FD281111BC089E374
:101530009DE0892B39F080E090E0892B19F099D259
:10154000811113C080E090E0892BA1F080E090E051
:10155000892B81F00E94000081110AC008950E9429
:101560000000DACF0E940000E2CF0E940000EACF24
:101570000C9400000895FC01848DDF01A80FB11DBB
:10158000A35ABF4F2C91848D90E001968F739927B9
:10159000848FA689B7892C93A089B1898C91837097
:1015A00080648C93938D848D981306C00288F38990
:1015B000E02D80818F7D80830895EF92FF920F93BD
:1015C0001F93CF93DF93EC0181E0888F9B8D8C8DEF
:1015D000981305C0E889F989808185FD25C0F62E1C
:1015E0000B8D10E00F5F1F4F0F731127E02E8C8DB6
:1015F000E8120BC00FB607FCFACFE889F9898081A1
:1016000085FFF5CFCE01B7DFF2CF8B8DFE01E80F5E
:10161000F11DE35AFF4FF0829FB7F8940B8FEA89D0
:10162000FB89808180620AC09FB7F894EE89FF89A8
:101630006083E889F98980818370806480839FBF9B
:1016400081E090E0DF91CF911F910F91FF90EF909B
:101650000895CF93DF93EC01888D8823C1F0EA8948
:10166000FB89808185FD05C0A889B9898C9186FD9B
:101670000EC00FB607FCF5CF808185FFF2CFA88999
:10168000B9898C9185FFEDCFCE0175DFE8CFDF9171
:10169000CF910895CF92DF92EF92FF921F93CF9355
:1016A000DF93EC016A017B01122FE889F98982E05E
:1016B00080834115514E61057105B1F060E079E01C
:1016C0008DE390E0A70196010E94B627DA01C901D7
:1016D0000197A109B109B695A795979587959C01A2
:1016E000211580E13807A8F0E889F989108260E8BF
:1016F00074E88EE190E0A70196010E94B627DA0116
:10170000C9010197A109B109B695A7959795879544
:101710009C01EC85FD853083EE85FF852083188E46
:10172000EC89FD891083EA89FB898081806180834F
:10173000EA89FB89808188608083EA89FB898081CE
:1017400080688083EA89FB8980818F7D8083DF9137
:10175000CF911F91FF90EF90DF90CF900895089563
:101760001F920F920FB60F9211240BB60F922F9368
:101770008F939F93EF93FF93E0915A09F0915B0948
:101780008081E0916009F091610982FD12C0908131
:10179000809163098F5F8F7320916409821751F0E4
:1017A000E0916309F0E0E65BF64F958F8093630963
:1017B00001C08081FF91EF919F918F912F910F90A8
:1017C0000BBE0F900FBE0F901F9018951F920F9297
:1017D0000FB60F9211240BB60F922F933F934F9396
:1017E0005F936F937F938F939F93AF93BF93EF9389
:1017F000FF938AE499E0BFDEFF91EF91BF91AF9133
:101800009F918F917F916F915F914F913F912F9118
:101810000F900BBE0F900FBE0F901F9018958AE48B
:1018200099E032DE21E0892B09F420E0822F08952F
:10183000EAE4F9E01382128288EE93E0A0E0B0E0DF
:1018400084839583A683B7838DE892E09183808318
:1018500085EC90E09587848784EC90E09787868775
:1018600080EC90E0918B808B81EC90E0938B828B6D
:1018700082EC90E0958B848B86EC90E0978B868B46
:10188000118E128E138E148E08951F920F920FB622
:101890000F9211240BB60F922F938F939F93EF9378
:1018A000FF93E091F709F091F8098081E091FD093B
:1018B000F091FE0982FD12C090818091000A8F5F35
:1018C0008F732091010A821751F0E091000AF0E035
:1018D000E951F64F958F8093000A01C08081FF91F6
:1018E000EF919F918F912F910F900BBE0F900FBE94
:1018F0000F901F9018951F920F920FB60F92112400
:101900000BB60F922F933F934F935F936F937F93F9
:101910008F939F93AF93BF93EF93FF9387EE99E0DD
:101920002ADEFF91EF91BF91AF919F918F917F91AF
:101930006F915F914F913F912F910F900BBE0F9040
:101940000FBE0F901F90189587EE99E09DDD21E066
:10195000892B09F420E0822F0895E7EEF9E0138245
:10196000128288EE93E0A0E0B0E084839583A683A2
:10197000B7838DE892E0918380838DEC90E095872A
:1019800084878CEC90E09787868788EC90E0918B39
:10199000808B89EC90E0938B828B8AEC90E0958B26
:1019A000848B8EEC90E0978B868B118E128E138E2B
:1019B000148E08951F920F920FB60F9211240BB63A
:1019C0000F922F938F939F93EF93FF93E091940A3D
:1019D000F091950A8081E0919A0AF0919B0A82FD2C
:1019E00012C0908180919D0A8F5F8F7320919E0A13
:1019F000821751F0E0919D0AF0E0EC57F54F958F7A
:101A000080939D0A01C08081FF91EF919F918F91FA
:101A10002F910F900BBE0F900FBE0F901F90189537
:101A20001F920F920FB60F9211240BB60F922F93A5
:101A30003F934F935F936F937F938F939F93AF9356
:101A4000BF93EF93FF9384E89AE095DDFF91EF91C8
:101A5000BF91AF919F918F917F916F915F914F91C6
:101A60003F912F910F900BBE0F900FBE0F901F90C4
:101A7000189584E89AE008DD21E0892B09F420E03C
:101A8000822F0895E4E8FAE01382128288EE93E050
:101A9000A0E0B0E084839583A683B7838DE892E0CD
:101AA0009183808385ED90E09587848784ED90E035
:101AB0009787868780ED90E0918B808B81ED90E019
:101AC000938B828B82ED90E0958B848B86ED90E0FA
:101AD000978B868B118E128E138E148E0895089517
:101AE00043D1FDDF1CD8C1E8DAE075D82097E9F3CF
:101AF00008DDFBCFCF92DF92EF92FF920F931F93FF
:101B0000CF93DF936C017A018B01C0E0D0E0CE155A
:101B1000DF0581F0D8016D918D01D601ED91FC9129
:101B20000190F081E02DC6011995892B11F02196C5
:101B3000EECF7E01C701DF91CF911F910F91FF90F2
:101B4000EF90DF90CF9008956115710579F0FB015A
:101B500001900020E9F73197AF01461B570BDC01DC
:101B6000ED91FC910280F381E02D199480E090E0EA
:101B70000895EF92FF920F931F93CF93DF938C0101
:101B80007B01C0E0D0E0F701EC0FFD1F64916623FC
:101B900061F0D801ED91FC910190F081E02DC80138
:101BA0001995892B11F02196EECFCE01DF91CF91BF
:101BB0001F910F91FF90EF9008956BE972E0C4CFF1
:101BC0000F931F93CF93DF93EC01D3DF8C01CE01F2
:101BD000F4DF800F911FDF91CF911F910F91089536
:101BE0000F931F93CF93DF93EC01AEDF8C01CE01F7
:101BF000E4DF800F911FDF91CF911F910F91089526
:101C00001F920F920FB60F9211242F933F938F9331
:101C10009F93AF93BF938091220B9091230BA09140
:101C2000240BB091250B3091210B23E0230F2D378E
:101C300020F40196A11DB11D05C026E8230F0296D0
:101C4000A11DB11D2093210B8093220B9093230B98
:101C5000A093240BB093250B8091260B9091270B1A
:101C6000A091280BB091290B0196A11DB11D809365
:101C7000260B9093270BA093280BB093290BBF91B1
:101C8000AF919F918F913F912F910F900FBE0F9029
:101C90001F9018953FB7F8948091260B9091270BD1
:101CA000A091280BB091290B26B5A89B05C02F3F0A
:101CB00019F00196A11DB11D3FBFBA2FA92F982F72
:101CC0008827820F911DA11DB11DBC01CD0142E0ED
:101CD000660F771F881F991F4A95D1F708958F9235
:101CE0009F92AF92BF92CF92DF92EF92FF926B01E1
:101CF0007C01D0DF4B015C01C114D104E104F1048B
:101D0000F9F00E949617C6DFDC01CB01881999090A
:101D1000AA09BB09883E9340A105B10568F321E0FB
:101D2000C21AD108E108F10888EE880E83E0981EF7
:101D3000A11CB11CC114D104E104F10421F7DCCFD2
:101D4000FF90EF90DF90CF90BF90AF909F908F90DB
:101D500008958230910538F0880F991F880F991FD8
:101D600005970197F1F70895789484B5826084BD52
:101D700084B5816084BD85B5826085BD85B581608F
:101D800085BDEEE6F0E0808181608083E1E8F0E0EF
:101D90001082808182608083808181608083E0E81E
:101DA000F0E0808181608083E1EBF0E080818460FD
:101DB0008083E0EBF0E0808181608083E1E9F0E006
:101DC000808182608083808181608083E0E9F0E0AF
:101DD000808181608083E1EAF0E08081826080839D
:101DE000808181608083E0EAF0E08081816080838F
:101DF000E1E2F1E080818260808380818160808384
:101E0000E0E2F1E0808181608083EAE7F0E08081B8
:101E10008460808380818260808380818160808310
:101E20008081806880831092C1000895863308F015
:101E3000865390917B00282F2870977F922B909348
:101E40007B002091030290E4299F90011124877068
:101E5000822B80937C0080917A00806480937A004A
:101E600080917A0086FDFCCF8091780020917900E6
:101E700090E0922B089590E0FC013197E231F1055A
:101E800008F04EC08827EE58FF4F8F4F0C94D8278C
:101E9000809180008F7703C0809180008F7D809338
:101EA0008000089580918000877FF9CF84B58F7777
:101EB00002C084B58F7D84BD08958091B0008F7776
:101EC00003C08091B0008F7D8093B0000895809111
:101ED00090008F7707C0809190008F7D03C0809124
:101EE0009000877F8093900008958091A0008F7765
:101EF00007C08091A0008F7D03C08091A000877FE4
:101F00008093A0000895809120018F7707C0809171
:101F100020018F7D03C080912001877F8093200165
:101F20000895CF93DF9390E0FC01E55AFE4F249192
:101F3000FC01EF55FE4F8491882361F190E0880FFA
:101F4000991FFC01E55EFD4FC591D491FC01EF5F47
:101F5000FD4FA591B491611109C09FB7F894888194
:101F6000209582238883EC912E230BC0623061F48C
:101F70009FB7F8948881322F309583238883EC9122
:101F80002E2B2C939FBF06C08FB7F894E8812E2B81
:101F900028838FBFDF91CF9108951F93CF93DF9355
:101FA000282F30E0F901EB5EFE4F8491F901E55AEC
:101FB000FE4FD491F901EF55FE4FC491CC23B9F0F7
:101FC000162F811158DFEC2FF0E0EE0FFF1FEF5FAF
:101FD000FD4FA591B4919FB7F894111104C08C9155
:101FE000D095D82302C0EC91DE2BDC939FBFDF910C
:101FF000CF911F910895CF93DF93282F30E0F901FF
:10200000EB5EFE4F8491F901E55AFE4FD491F90140
:10201000EF55FE4FC491CC2389F081112CDFEC2FBA
:10202000F0E0EE0FFF1FE951FE4FA591B491EC9146
:10203000ED2381E090E021F480E002C080E090E0B8
:10204000DF91CF910895EF92FF920F931F93CF935B
:10205000DF93C62F7A01022FFC01608183E39CE0AD
:102060006DD66C2F83E39CE018D6E70110E0CE011B
:102070008E199F09801791072CF4699183E39CE0E6
:102080000CD6F5CF83E39CE0DF91CF911F910F91A8
:10209000FF90EF90D6C6CF93DF931F92CDB7DEB7F8
:1020A000498321E0AE014F5F5F4FCDDF0F90DF919D
:1020B000CF910895FC0124812E7F248321FB4427A6
:1020C00040F950E0440F551F63E0E5CFCF93DF9315
:1020D000EC01688383E39CE01FD6198240E060E056
:1020E000CE01D9DF8FE38A834FE361E0CE01D3DFF6
:1020F000CE01E0DF8B818E7F8B8340E062E0CE01FA
:10210000CADF64E670E080E090E0E9DD81E0DF9125
:10211000CF9108956F927F928F929F92AF92BF92CC
:10212000CF92DF92EF92FF920F931F93CF93DF93A3
:102130008C01662E6A01722EC0E0C71578F5D72D86
:10214000DC1BD13208F0D0E2F801608183E39CE02F
:10215000F5D56C2F660D83E39CE09FD583E39CE06F
:1021600070D64D2FF801608183E39CE066D6812C08
:10217000912CAD2EB12C8C2F880D8A149B0414F059
:10218000CD0FDBCF7601E80EF11C83E39CE0FED49B
:10219000F7018083FFEF8F1A9F0AEDCFDF91CF9178
:1021A0001F910F91FF90EF90DF90CF90BF90AF9075
:1021B0009F908F907F906F9008958F929F92AF9293
:1021C000BF92CF92DF92EF92FF920F931F93CF9324
:1021D000DF93CDB7DEB7F62E172F042F8DB69EB640
:1021E000242F220F46FD20E84DB75EB7421B510950
:1021F0000FB6F8945EBF0FBE4DBFEDB7FEB7319678
:102200005F01AF0160E886DFCF2CD12EE12CF12CED
:1022100010E0E016F1064CF58E2D880FF501E80F61
:10222000F11D618170E0762F66278081682B94E034
:10223000660F771F9A95E1F724E0759567952A95C3
:10224000E1F7072E000C880B990B07D820E030E04F
:1022500040E85EE3B6D8F601619371938193919360
:102260006F01FFEFEF1AFF0AD4CF0FB6F8949EBEAE
:102270000FBE8DBEDF91CF911F910F91FF90EF9018
:10228000DF90CF90BF90AF909F908F9008950F9365
:10229000FC0180E092E1AAE7B0E030E0481759077E
:1022A0006A077B0740F4B695A795979587953F5F9A
:1022B0003630A1F737E091E09327222311F020E593
:1022C00001C020E70C70892F8695082B022B008314
:1022D000917091830F9108952091300C222399F0F1
:1022E0004FB7F8942091300C213059F42DB320933E
:1022F0002E0C3DB320912F0C209523232DBB4FBFD7
:1023000002C040932E0C8CBD9DBD08958091300C71
:10231000882361F09FB7F8942091300C80912E0CA7
:10232000213019F48DBB9FBF08958FBF0895DF92B0
:10233000EF92FF920F931F93CF93DF93EC01FC0179
:10234000EA54FF4F80819181009739F4FE01E854EF
:10235000FF4F80819181009771F0DC01ED91FC913C
:102360000190F081E02DDF91CF911F910F91FF90AF
:10237000EF90DF901994D62E7E01BAEBEB0EF11C94
:10238000F70180819181009741F4FE01E454FF4FF1
:1023900080819181892BF9F413C0FE01EB5DFE4F22
:1023A0006081CCD4D7018D919C91DC01ED91FC91A1
:1023B0000190F081E02D6D2D19958C01019719F098
:1023C00000E010E023C061E0F70180819181C1D479
:1023D0008111DBCF1BC0FE01E154FF4F8081918151
:1023E0007BDFC254DF4F888187FD02C060E0D5DD0E
:1023F000DEBC00000DB407FEFDCF8EB5888187FDE1
:1024000002C061E0CADD82DF01E010E0C801DF91B7
:10241000CF911F910F91FF90EF90DF900895FC01F5
:10242000DC01AA54BF4F11961C921E92129611966F
:102430001C921E92129611961C921E921296119642
:102440001C921E92AE57BE4F1C92A958B1401C92CE
:10245000AC57BE4F1C921196875B9E4F11969C9372
:102460008E93129688589F4F11969C938E93A25CE0
:10247000B1401C9211971C9211971C9213AE12AE90
:1024800011AE16AA15AA14AA12971C9211971C92A3
:1024900011971C9213961C9210AE17AA17971D92B3
:1024A0001D921D921C92139714971D921D921D92BE
:1024B0001C92139714971D921D921D921C921397B4
:1024C00014971D921D921D921C92139714971D92A2
:1024D0001D921D921C92139714971D921D921D928E
:1024E0001C92139714971D921D921D921C92139784
:1024F00014971D921D921D921C92139754971D9232
:102500001D921D921C92139714AE15AE16AE17AE07
:102510000895EF92FF920F931F93CF93DF93EC01F7
:102520007B011B821A8287E393E0998388831D8253
:102530001C821E821F82188684E1FE013996DF010B
:10254000982F1D929A95E9F71D8E1E8E1F8E7796F5
:10255000DF011D928A95E9F7DE01A957BF4F8AE096
:10256000E4E1F2E001900D928A95E1F7DE01AF56C9
:10257000BF4F8AE0EEE1F2E001900D928A95E1F71B
:10258000FE01E556FF4F82EB92E091838083329605
:1025900080E094E9A5E3B7E780839183A283B383C6
:1025A000349680839183A283B3833496808391830E
:1025B000A283B383349680839183A283B3833496BA
:1025C00080839183A283B383349680839183A28393
:1025D000B3833D961FEF108300E021E040E452E416
:1025E0006FE070E0CE0181549F4F51DEFE01EA5B47
:1025F000FE4F10833196108231961082EF50FF4FBC
:102600001082CE010CDFC854DF4FF982E882DF91DF
:10261000CF911F910F91FF90EF900895CF93DF938B
:102620001F92CDB7DEB7FC0119826370668BDC01A7
:10263000AA5BBF4F8C91982F9B7FAF014C5B5F4F84
:10264000913029F4623008F493E0DA019C939F0101
:102650002D5B3F4F6230D9F0633009F43FC06130E9
:1026600071F0823011F0843029F490EC998381303C
:1026700019F415C098EC10C08430B1F01CC0823041
:1026800011F0843011F490EA2EC098EA35C08230FF
:1026900091F0843049F098E09983813061F480E8CA
:1026A00090E0938782870DC080EA90E093878287CD
:1026B00080E590E006C080EA90E09387828780E81A
:1026C00090E091878087D9018C9190E092AF81AFA3
:1026D000DA018C9190E094AF83AF2DC0823011F07D
:1026E000843049F490E69983813051F480E890E099
:1026F0009187808714C098E69983813051F4F6CF92
:10270000843039F480EA90E09187808780E590E01A
:1027100006C080EA90E09187808780E890E0938708
:102720008287D9018C9190E094AF83AFDA018C91CC
:1027300090E092AF81AF21E0AE014F5F5F4F66E363
:10274000CF010E9433210F90DF91CF910895EF9236
:102750000F93CF93DF93EC01E22E042F262F40EA54
:1027600050E060E870E0B7D083E493E09983888319
:10277000DF91CF910F91EF900895411551056105BB
:10278000710521F440E058E468EE71E0FC01FF9629
:10279000408351836283738321E2FC0125AF20E2F1
:1027A00026AFEB5BFF4F20810C945E1F8F929F92B0
:1027B000AF92BF92CF92DF92EF92FF920F931F934F
:1027C000CF93DF93EC0189AD9AAD4B01880E991E32
:1027D0008BAD9CAD480F591FC9010197880D991DFC
:1027E000A0E0B0E0A12CB12C540199248824882ABF
:1027F000992AAA2ABB2A015011096801C40ED51EC4
:10280000860120E030E06A01E12CF12C7601DD2424
:10281000CC24C02AD12AE22AF32A6AE2CE010E94FD
:10282000CD20B501A401CE010E9408226BE2CE01A9
:102830000E94CD20B701A601CE010E9408226CE2C1
:10284000CE01DF91CF911F910F91FF90EF90DF901C
:10285000CF90BF90AF909F908F900C94CD20CF934E
:10286000DF931F92CDB7DEB7FC0119826370668BD0
:102870008D5B9F4FAF014C5B5F4F623049F063301F
:1028800091F0613019F020EC298302C020EA0CC0DD
:10289000DC018C9190E092AF81AFDA018C9190E0F5
:1028A00094AF83AF0CC020E62983DC018C9190E0CB
:1028B00094AF83AFDA018C9190E092AF81AF21E0C9
:1028C000AE014F5F5F4F66E3CF010E9433210F904F
:1028D000DF91CF910895EF920F93CF93DF93EC01A7
:1028E0000E94511F83E793E099838883FE01ED5B8B
:1028F000FF4F108231961082CB5BDF4F1882DF9141
:10290000CF910F91EF900895AF92BF92CF92DF9247
:10291000EF92FF920F931F93CF93DF93EC01E62E7C
:10292000A72EF42EB52E69018FEF9FEF9D838C8328
:102930009F838E8361E08E2DF4DA60E08F2DF1DAD3
:10294000E882A982FA82BB82DD82CC821F830E8359
:10295000DF91CF911F910F91FF90EF90DF90CF907B
:10296000BF90AF900895CF92DF92EF92FF92CF93F6
:10297000DF93EC0160E0888110DB85E090E0E9D92D
:1029800061E088810ADB8AE090E0E3D960E0888139
:1029900004DB8A8130DB892BE1F37CD96B017C017C
:1029A0008A8129DB0197E1F375D9CB018C199D0947
:1029B000DF91CF91FF90EF90DF90CF900895CF936C
:1029C000DF93EC01D0DF97FD0196BC01759567950B
:1029D000072E000C880B990B0E942D0927EE3BEF68
:1029E00049EA5EE30E94E1090E94FA089B014C81DA
:1029F0005D814F3FAFEF5A0721F4EE81FF813196A1
:102A000059F0421753072CF44E815F812417350784
:102A10001CF08FEF9FEF01C0CB01DF91CF910895A4
:102A20001F920F920FB60F9211240BB60F922F9395
:102A30003F934F935F936F937F938F939F93AF9346
:102A4000BF93EF93FF93E0912C0CF0912D0C3097F6
:102A500009F44FC0968DA685B785858591FF04C082
:102A60009C91892329F445C09C91892309F041C098
:102A7000A389B4899C918589809589238C938689C3
:102A800097890197F1F7608D718DA685B78555857A
:102A900038E020E0CB010197F1F7822F90E0959587
:102AA0008795282F4C91452309F02068315091F7E4
:102AB000868D81FD209580912B0B90E001963091C1
:102AC0002A0B381749F0A0912B0BB0E0A45DB44F4E
:102AD0002C9380932B0B03C0868D8160868F828D13
:102AE000938D0197F1F7A389B4899C918589892BEE
:102AF0008C93FF91EF91BF91AF919F918F917F91B7
:102B00006F915F914F913F912F910F900BBE0F905E
:102B10000FBE0F901F901895CF93CFB7F894809168
:102B2000310C811123C0E6EDF1E08491E0E9F1E0A0
:102B30009491E82FF0E0EE0FFF1FE55EFD4FA591A9
:102B4000B491EC91E92319F461E085E326DA61E0C0
:102B500085E3E7D98CB580618CBD8CB580648CBD74
:102B600061E084E3DED961E083E3DBD98091310C5D
:102B70008F5F8093310CCFBFCF9108958091670C08
:102B800090E02091680C821B910908959091680C47
:102B90008091670C981750F4E92FF0E0E759F34F54
:102BA000208130E09F5F9093680C02C02FEF3FEFD1
:102BB000C9010895E091680C8091670CE81730F422
:102BC000F0E0E759F34F808190E008958FEF9FEF99
:102BD00008950895CF93DF93EC01E0913F0CF091BD
:102BE000400C3097F1F09091680C8091670C981729
:102BF000C0F090E0292F30E02617370754F4DE01AB
:102C0000A20FB31F4C91D901A759B34F4C939F5FAB
:102C1000F1CF1092680C6093670CCB01DF91CF91DC
:102C20001994DF91CF910895E091410CF091420CFD
:102C3000309729F01092450C1092440C1994089585
:102C4000CF92DF92EF92FF920F931F93CF93DF9378
:102C50007C01CB018A012091430C222389F0EB01F6
:102C60006B01C40ED51ECC15DD0569F06991D70145
:102C7000ED91FC910190F081E02DC7011995F3CF02
:102C8000642F0E943326C801DF91CF911F910F91CD
:102C9000FF90EF90DF90CF900895CF93DF931F9236
:102CA000CDB7DEB769832091430C2223D1F0209168
:102CB000440C203240F021E030E0FC0133832283D9
:102CC00080E090E015C08091450CE82FF0E0EA5BD1
:102CD000F34F998190838F5F8093450C8093440CD0
:102CE00005C061E0CE0101960E94332681E090E0AC
:102CF0000F90DF91CF910895FC011382128288EE2C
:102D000093E0A0E0B0E084839583A683B78383EA51
:102D100093E09183808308951092680C1092670C61
:102D20001092450C1092440C0E94772584E196E1A4
:102D30000E9460268AEE95E10C945B2681E08093E8
:102D4000430C6093660C1092450C1092440C08954D
:102D5000F5CF0F93062F21E04091440C66E47CE010
:102D60008091660C0E94DD251092450C1092440C57
:102D70001092430C0F9108954F925F926F927F9241
:102D8000AF92BF92CF92EF92FF920F931F93CF9388
:102D9000DF935C01F62ED42F28013901EE2011F1CA
:102DA000CDDFCE2DC43008F0C3E0C150C0F028E024
:102DB000C29FC0011124A301920104C056954795FA
:102DC000379527958A95D2F7CA01B901D501ED91BA
:102DD000FC910190F081E02DC5011995E6CF60E0EE
:102DE000C501B7DF4D2FD13208F040E22C2D69E646
:102DF0007CE08F2D0E9495251092680C8093670CC3
:102E0000DF91CF911F910F91FF90EF90CF90BF90E6
:102E1000AF907F906F905F904F900895CF92EF9218
:102E20000F931F93C22EE12C00E010E09801A4DF65
:102E30001F910F91EF90CF90089521E0EFCF21E007
:102E4000EDCF61E086CF83E39CE056CF885E9E4F56
:102E5000DC018D919C91DC01ED91FC910084F18568
:102E6000E02D1994885E9E4FDC018D919C91DC01D0
:102E7000ED91FC910190F081E02D1994885E9E4FB8
:102E8000DC018D919C91DC01ED91FC910284F38534
:102E9000E02D1994885E9E4FDC018D919C91DC01A0
:102EA000ED91FC910484F585E02D1994885E9E4F88
:102EB000DC018D919C91DC01ED91FC910680F78104
:102EC000E02D1994FC011382128288EE93E0A0E0B9
:102ED000B0E084839583A683B78385EB93E09183E9
:102EE00080836487DF01A35FBE4F8DE392E011967C
:102EF0009C938E93129611961C921E921296119686
:102F00001C921E92179611961C921E9215971C9257
:102F1000119688E392E08D939C93EA5EFE4F85E3E1
:102F200092E09183808308950E940F280895089568
:102F30001F920F920FB60F9211240BB60F922F9380
:102F40003F934F935F936F937F938F939F93AF9331
:102F5000BF93EF93FF93E0910802F0910902199556
:102F6000FF91EF91BF91AF919F918F917F916F9161
:102F70005F914F913F912F910F900BBE0F900FBE1D
:102F80000F901F9018951F920F920FB60F92112459
:102F90000BB60F922F933F934F935F936F937F9353
:102FA0008F939F93AF93BF93EF93FF93E0910A02A8
:102FB000F0910B021995FF91EF91BF91AF919F9105
:102FC0008F917F916F915F914F913F912F910F90D2
:102FD0000BBE0F900FBE0F901F9018951F920F926F
:102FE0000FB60F9211240BB60F922F933F934F936E
:102FF0005F936F937F938F939F93AF93BF93EF9361
:10300000FF93E0910C02F0910D021995FF91EF9161
:10301000BF91AF919F918F917F916F915F914F91F0
:103020003F912F910F900BBE0F900FBE0F901F90EE
:1030300018951F920F920FB60F9211240BB60F9294
:103040002F933F934F935F936F937F938F939F93B0
:10305000AF93BF93EF93FF93E0910E02F0910F02B5
:103060001995FF91EF91BF91AF919F918F917F91B2
:103070006F915F914F913F912F910F900BBE0F90E9
:103080000FBE0F901F9018951F920F920FB60F92C0
:1030900011240BB60F922F933F934F935F936F932F
:1030A0007F938F939F93AF93BF93EF93FF93E091A1
:1030B0000402F09105021995FF91EF91BF91AF9134
:1030C0009F918F917F916F915F914F913F912F9140
:1030D0000F900BBE0F900FBE0F901F9018951F9270
:1030E0000F920FB60F9211240BB60F922F933F93AE
:1030F0004F935F936F937F938F939F93AF93BF9300
:10310000EF93FF93E0910602F09107021995FF916A
:10311000EF91BF91AF919F918F917F916F915F914F
:103120004F913F912F910F900BBE0F900FBE0F90BC
:103130001F9018951F920F920FB60F9211240BB685
:103140000F922F933F934F935F936F937F938F9340
:103150009F93AF93BF93EF93FF93E0911002F09191
:1031600011021995FF91EF91BF91AF919F918F91AE
:103170007F916F915F914F913F912F910F900BBE77
:103180000F900FBE0F901F9018951F920F920FB6C1
:103190000F9211240BB60F922F933F934F935F938F
:1031A0006F937F938F939F93AF93BF93EF93FF930F
:1031B000E0911202F09113021995FF91EF91BF91E6
:1031C000AF919F918F917F916F915F914F913F91BF
:1031D0002F910F900BBE0F900FBE0F901F90189560
:1031E0002F923F924F925F926F927F928F929F9217
:1031F000AF92BF92CF92DF92EF92FF920F931F9305
:10320000CF93DF9300D000D0CDB7DEB72C017E8303
:103210006D836A015901C801FC82EB824801841A5E
:10322000950A97FE03C091948194910835012D81F0
:103230003E81621A730A77FE03C07194619471082B
:10324000681479045CF43A2D2B2D5C01832F922FA6
:103250003D812E81DE82CD82C32ED22EAD81BE81F4
:10326000AA16BB065CF43C2D2D2D6C01832F922FEA
:103270003D812E81BE82AD82A32EB22E85012D818D
:103280003E81021B130B1C012C183D0837FE03C0A6
:10329000319421943108780117FF03C03FEFE31AFE
:1032A000F30AF594E794C816D9062CF08FEF9FEF38
:1032B0009A83898304C0A1E0B0E0BA83A9832D81F9
:1032C0003E81A216B30624F1D201ED91FC91048453
:1032D000F585E02D2B813C816814790424F44D811F
:1032E0005E81B60103C0A6016D817E81C201199580
:1032F000E218F308F7FE06C029813A81C20ED31EF8
:10330000E00EF11E8D819E8101969E838D83D7CF25
:1033100026960FB6F894DEBF0FBECDBFDF91CF91DA
:103320001F910F91FF90EF90DF90CF90BF90AF90E3
:103330009F908F907F906F905F904F903F902F90D5
:103340000895DC01ED91FC910084F185E02D199444
:103350000F931F93DC01ED91FC91048CF58DE02D12
:1033600019951F910F9108950F931F93DC01ED9113
:10337000FC91068CF78DE02D19951F910F91089502
:10338000EF92FF920F931F93DC01ED91FC9100A04F
:10339000F1A1E02D19951F910F91FF90EF900895E5
:1033A00008958F929F92AF92BF92CF92DF92EF9249
:1033B000FF920F931F93CF93DF93EC015B014A01C0
:1033C00069017801E881F9810284F385E02D19957E
:1033D000C80CD91C860101501109E881F9810488C3
:1033E000F589E02D9501A401B501CE011995E8817B
:1033F000F9810688F789E02DCE01DF91CF911F91E9
:103400000F91FF90EF90DF90CF90BF90AF909F9083
:103410008F9019948F929F92AF92BF92CF92DF922A
:10342000EF92FF920F931F93CF93DF93EC015B0119
:103430004A016901E881F9810284F385E02D19953B
:1034400095012C0D3D1D21503109E881F981048839
:10345000F589E02D78018401A401B501CE0119950B
:10346000E881F9810688F789E02DCE01DF91CF91BF
:103470001F910F91FF90EF90DF90CF90BF90AF9092
:103480009F908F9019944F925F926F927F928F923C
:103490009F92AF92BF92CF92DF92EF92FF920F93E3
:1034A0001F93CF93DF936C012B015A01390148011F
:1034B000DC01ED91FC910284F385E02D1995E20188
:1034C000640C751CD601ED91FC91C615D7055CF412
:1034D0000088F189E02D87019401A501BE01C60194
:1034E00019952196EFCF0688F789E02DC601DF9167
:1034F000CF911F910F91FF90EF90DF90CF90BF90F1
:10350000AF909F908F907F906F905F904F901994A5
:10351000EF92FF920F931F93DC011A960D911C916D
:103520001B9718962D913C911997ED91FC9100A055
:10353000F1A1E02D7B0140E050E060E070E01995E2
:103540001F910F91FF90EF9008958F929F92AF92ED
:10355000BF92CF92DF92EF92FF920F931F93CF9380
:10356000DF934C016B015A01E901DC01ED91FC9103
:103570006217730781F40417150724F48B2D580183
:10358000042F182F0A191B0998012F5F3F4F048C35
:10359000F58DE02D12C04017510709F526173707A2
:1035A00024F48D2D6901C62FD82F9E012C193D09B9
:1035B0002F5F3F4F068CF78DE02D8701A501B601E7
:1035C000C4011995DF91CF911F910F91FF90EF905A
:1035D000DF90CF90BF90AF909F908F90089502841E
:1035E000F385E02D1995D401ED91FC910488F589BE
:1035F000E02D9E01A501B601C4011995D401ED91FC
:10360000FC910688F789E02DC401DF91CF911F91CD
:103610000F91FF90EF90DF90CF90BF90AF909F9071
:103620008F9019946F927F928F929F92AF92BF92D8
:10363000CF92DF92EF92FF920F931F93CF93DF937E
:10364000EC014B015A0169013801E881F9810284DA
:10365000F385E02D1995E881F9810288F389E02D41
:1036600087019601A501B401CE011995A501460D6A
:10367000571D41505109E881F9810288F389E02DF5
:103680009601B401CE011995E881F9810088F1898C
:10369000E02D9301A501B401CE011995C80CD91CE8
:1036A000B60161507109E881F9810088F189E02D46
:1036B0009301A501CE011995E881F9810688F78962
:1036C000E02DCE01DF91CF911F910F91FF90EF90F0
:1036D000DF90CF90BF90AF909F908F907F906F9032
:1036E00019940895FC016370668B8481958126810D
:1036F0003781613039F0633029F0918780873387D3
:103700002287089531872087938782870895FC0157
:103710001382128287EC93E09183808375836483A4
:10372000578346837187608753874287168A158639
:1037300014861786168681E0858B848B2FEF3FEFEA
:10374000338B228B318B208B878B108E128E118EB8
:1037500008952F923F924F925F926F927F928F9235
:103760009F92AF92BF92CF92DF92EF92FF920F9310
:103770001F93CF93DF93CDB7DEB76B970FB6F89457
:10378000DEBF0FBECDBF9B8F8A8F2B015A8349832B
:10379000D22E198708874701AB82DC0159962D91FB
:1037A0003C915A972115310509F000C118968D9169
:1037B0009C911997681779070CF0E7C11A968D91BB
:1037C0009C911B97481759070CF0DFC12C2C312C0A
:1037D000FB0126E0C29EE00DF11D1124FD87EC8760
:1037E0001E161F060CF0D1C14A2D50E05B874A8798
:1037F00083E0440F551F8A95E1F75F874E878981E3
:103800009A81840F951F181619060CF0BEC15896A0
:103810008C91811104C06FEA6D1508F4D394AA8DC0
:10382000BB8DED91FC9111970284F385E02DCD01C4
:103830001995B5E0DB9EC0011124EC2DF0E0F98B69
:10384000E88B92012B5F3F4F3B8B2A8B32015D82CD
:103850004C82AC01441955095D8B4C8B7B81672FE1
:1038600070E07F8B6E8B89819A810896998F888F03
:10387000EC89FD89E60DF71DEB5BFD4FD490A98126
:10388000BA81BF83AE835D01D0FE16C0AA8DBB8D09
:10389000ED91FC91B1E0CB1209C02B81213031F4C4
:1038A0000484F585E02D2885398519C00684F785BF
:1038B000E02DE884F9841DC04885598548155905CF
:1038C00011F1AA8DBB8DED91FC91B1E0CB120DC031
:1038D0002B81213051F40484F585E02D9401A5015C
:1038E000B3018A8D9B8D19950EC00684F785E02D56
:1038F00074010A851B8591014E815F816C817D81F8
:103900008A8D9B8D1995D6944E815F816E897F89B2
:10391000460F571F5F834E837FEFA71AB70A888D24
:10392000998DA816B90609F0AFCFAC81BD81E889A1
:10393000F989AE0FBF1FBD83AC83FFEF6F1A7F0AFB
:103940002A893B896216730609F092CF488559850A
:103950004815590509F4F7C0AA8DBB8DED91FC916E
:10396000B1E0CB1212C02B81213079F4B2016B5F30
:103970007F4F0088F189E02D840128E030E0498103
:103980005A818A8D9B8D1995DEC06C857D85621963
:1039900073090684F785E02D74010E851F8591015A
:1039A00049815A818A8D9B8D1995CDC0F901349634
:1039B000E491DE1AF901329685919491B7E0DB9E8D
:1039C000800D911D1124F90125913491398B288B9B
:1039D000FC0125903490FC01329674903196A490AD
:1039E000329694903196B49031E03C1518F04B81AA
:1039F000423068F0692D092C000C770B7D836C83B5
:103A00008B2D0B2C000C990B9F838E8304C01F827F
:103A10001E821D821C82AA8DBB8DED91FC91119797
:103A20000284F385E02DCD011995612CD12C812CD8
:103A3000FB81EF2FF0E0FB87EA872C2D30E03D87FC
:103A40002C8749815A814B0D511DB7FC5A955D8BCE
:103A50004C8BB201690D711D97FC7A957F8B6E8B33
:103A60008A1408F070C0282D30E04E815F81420F2B
:103A7000531FAA85BB85A49FC001A59F900DB49F2D
:103A8000900D1124E981FA81E80FF91FFF87EE8775
:103A9000862D912C4C895D89420F531F5B8B4A8B7D
:103AA000971408F04DC0BB24B394B80E877041F44E
:103AB000C1010196E889F989E20DF31DD4901C013A
:103AC000D7FE3AC051E0C51216C06B81613099F43F
:103AD000AA8DBB8DED91FC9111970484F585E02DA5
:103AE000288539854A895B896E897F89690D711DB1
:103AF000CD01199521C08C819D81890D911DEC8589
:103B0000FD858E9FB0018F9F700D9E9F700D1124BB
:103B1000640D751DAA8DBB8DED91FC9111970684E6
:103B2000F785E02DE884F9840A851B852C853D8581
:103B30004E855F85CD011995DD0C93948B2DB0CF0B
:103B4000670C83948DCFAA8DBB8DED91FC9111975D
:103B50000688F789E02DCD016B960FB6F894DEBF8D
:103B60000FBECDBFDF91CF911F910F91FF90EF90CE
:103B7000DF90CF90BF90AF909F908F907F906F908D
:103B80005F904F903F902F9019946B960FB6F894DA
:103B9000DEBF0FBECDBFDF91CF911F910F91FF9080
:103BA000EF90DF90CF90BF90AF909F908F907F90DD
:103BB0006F905F904F903F902F9008958F929F92BB
:103BC000AF92CF92EF92FF920F931F93CF93DF9319
:103BD000EC01262F898D9A8D009709F041C06A303B
:103BE00059F41D861C862D898E859F8538E0239F7C
:103BF000800D911D112442C06D3009F4A8C08F8939
:103C00008823C9F03C898C859D8546E0349F800DD2
:103C1000911D1124488559854817590764F41D865C
:103C20001C863D898E859F8548E0349F800D911DBF
:103C300011249F878E87EA88FB88088919894E8519
:103C40005F856C857D85AD88CC88CE0182DD2C8931
:103C50008C859D8536E0239F800D911D11243EC0EB
:103C60006A3079F41D861C862D89FC013696E49114
:103C70008E859F852E9F800D911D11249F878E8795
:103C800066C06D3009F463C0FC013496349163174B
:103C900008F45DC03196E491E61708F458C0462F49
:103CA000431B342FFC0132968590949047E0349F5B
:103CB000800C911C1124F401329634913196E491D8
:103CC000332311F0E1110DC0F4013496E4912C89F5
:103CD0008C859D85E29F800D911D11249D878C8789
:103CE00036C0F401359644915F89552319F15C89FA
:103CF000E32FF0E0E40FF11D47FDFA955E9FB00160
:103D00005F9F700D11244C855D85460F571F688598
:103D100079856417750774F41D861C863D89FC013E
:103D20003696E4918E859F853E9F800D911D1124CE
:103D30009F878E87EA88FB88088919894E855F8569
:103D40006C857D85AD88CC88CE0103DDBDCF81E05B
:103D500090E0DF91CF911F910F91FF90EF90CF9066
:103D6000AF909F908F900895DC015B96ED91FC9150
:103D70005C979081D1968C91892B80830895CF9305
:103D8000DF93EC018FA987FD02C0CE01EDDF8DA985
:103D9000811104C0DF91CF910C948611DF91CF91F6
:103DA0000895DC015B96ED91FC915C979081D29631
:103DB0008C91892380830895DC015D96ED91FC91BF
:103DC0005E979081D3968C91892B80830895DC0136
:103DD0005D96ED91FC915E979081D4968C918923AC
:103DE00080830895AF92BF92CF92EF920F931F936B
:103DF000CF93DF93EC0159018ADC83EF93E0998341
:103E000088831DAACEAA0FABE8AE1AAE19AE1CAEBF
:103E10001BAE1DAE1EAEFE01FF96108211821282F5
:103E20001382B8A2AF8E8E2DEE0C990BFC01EF55CC
:103E3000FE4FE491F0E0EE0FFF1FEF5FFD4F259185
:103E400034913E8F2D8FFC01E55AFE4F84918BAB50
:103E500007FD16C0002E000C110BF801EF55FE4FA8
:103E6000E491F0E0EE0FFF1FEF5FFD4F25913491DD
:103E70003C8F2B8FF801E55AFE4F049109AB03C02C
:103E80003C8F2B8F19AA99A990959AAB80958CABF2
:103E9000DF91CF911F910F91EF90CF90BF90AF9096
:103EA0000895CF92EF920F93CE2CE02E022F22E3B3
:103EB0003CE098DF0F91EF90CF9008958F929F9202
:103EC000AF92BF92DF92EF92FF920F931F93CF9327
:103ED000DF931F921F92CDB7DEB77C014A015B01D1
:103EE000122F452B462B472B31F4812C92E1992E32
:103EF0009AE7A92EB12CF70187A987FD08C061E0D8
:103F00000E94910F61E0F70187A90E94CD0F61E047
:103F1000F70180AD0E94910F61E0F70180AD0E9432
:103F2000CD0FF70185A9811118C0012F21E0B5013E
:103F3000A401CE0101960E94471189819A81F7015F
:103F400092A381A3012F10E020E030E003A314A38B
:103F500025A336A30E948C1555C08130E1F461E0A1
:103F6000F70182A50E94910F60E0F70182A50E94EF
:103F7000CD0F61E0F70184A50E94910F60E0F70189
:103F800084A50E94CD0FF70183A587FD3BC060E0AB
:103F90000E94910F37C001EA11E0D12CF801849101
:103FA000E82FF0E0EE0FFF1FEF5FFD4F859194913A
:103FB000F701278D30A12817390741F461E08D2DD5
:103FC0000E94910F60E08D2D0E94CD0FD3940F5F62
:103FD0001F4FF6E4DF12E2CF61E0F70186A50E94F1
:103FE000910F61E0F70186A50E94CD0FF70187A52B
:103FF00087FD08C061E00E94910F61E0F70187A58D
:104000000E94CD0FF70186A987FD24C061E00E94C0
:10401000910F61E0F70186A90E94CD0F64E670E080
:1040200080E090E00E946F0E60E0F70186A90E9498
:10403000CD0F64E670E080E090E00E946F0E61E0DA
:10404000F70186A90E94CD0F68EC70E080E090E057
:104050000E946F0E0F900F90DF91CF911F910F91E3
:10406000FF90EF90DF90BF90AF909F908F9008955A
:10407000FC0185A981111BC041A132A18091300CA6
:10408000882399F02FB7F8948091300C813059F43F
:104090008DB380932E0C9DB380912F0C8095892336
:1040A0008DBB2FBF02C020932E0C4CBD3DBD08958B
:1040B000CF93DF93EC01DCDF8FA987FD04C0CE0135
:1040C000DF91CF916ECEDF91CF910895DC01919673
:1040D000ED91FC919297908195968C91892B80839C
:1040E0000895DC019196ED91FC91929790819696BE
:1040F0008C91892380830895DC019396ED91FC9146
:104100009497908197968C91892B80830895DC01F8
:104110009396ED91FC919497908198968C91892338
:1041200080830895FC01A5A1B6A19C9182A5892355
:104130008C93A5A1B6A19C9181A5892B8C93089500
:104140000F931F93CF93DF93EC01162F8DA981114D
:1041500005C06EBD0DB407FEFDCF1AC0813079F4E5
:1041600008E0CE0117FF02C0B1DF01C0BADFCE0107
:10417000C3DF110FCE01CBDF015099F709C0EF8DDE
:10418000F8A16083CE01DF91CF911F910F91CACF2B
:10419000DF91CF911F910F9108951F93CF93DF93DC
:1041A000EC01162F14DE612FCE01CADFCE01DF91A4
:1041B000CF911F9101CE1F93CF93DF93EC01162F68
:1041C000E881F9810284F385E02D1995112311F01E
:1041D0006DAD01C06EADCE01E0DFE881F9810688EA
:1041E000F789E02DCE01DF91CF911F911994FF92B5
:1041F0000F931F93CF93DF93EC018B018DA9811156
:1042000009C01EBD0DB407FEFDCF0EBD0DB407FEE7
:10421000FDCF23C0813091F490E1F92ECE0117FF3C
:1042200002C054DF01C05DDFCE0166DFCE016FDF6B
:10423000000F111FFA94F110F1CF0FC0EF8DF8A10C
:104240001083CE016FDFEF8DF8A10083CE01DF91E7
:10425000CF911F910F91FF9065CFDF91CF911F916B
:104260000F91FF900895CF92DF92EF92FF920F93FC
:104270001F93CF93DF93EC01F62E8A01C22EF8DE56
:104280008FA987FD02C0CE018CDDCE01A0DD6F2D90
:10429000CE0156DFCE0190DDE12CF12CD12CEC14B7
:1042A000FD04DCF4F8016081CE014ADF8DA9F8013C
:1042B000823051F488A9882339F061817281CE015E
:1042C00096DF0D5F1F4F05C06181CE0139DF0E5FA4
:1042D0001F4FFFEFEF1AFF0AE2CF8FA987FD02C041
:1042E000CE0142DD8DA981110AC0DF91CF911F91CE
:1042F0000F91FF90EF90DF90CF900C948611DF919B
:10430000CF911F910F91FF90EF90DF90CF90089584
:10431000AF92BF92CF92DF92EF92FF920F931F93D3
:10432000CF93DF93EC0177FD37C0888599856817B7
:10433000790794F557FD30C08A859B854817590742
:104340005CF569017A015B01E881F9810284F385FA
:10435000E02DCE011995E881F98102A4F3A5E02DA5
:1043600001E010E021E030E0A701B501CE01199590
:10437000B601CE013CDFE881F9810688F789E02D9E
:10438000CE01DF91CF911F910F91FF90EF90DF90C1
:10439000CF90BF90AF901994DF91CF911F910F9163
:1043A000FF90EF90DF90CF90BF90AF900895EF9285
:1043B000FF920F931F93CF93DF93EC0177FD21C002
:1043C0008885998568177907E4F457FD1AC08A85AE
:1043D0009B8548175907ACF47901E881F98102A45B
:1043E000F3A5E02D01E010E021E030E0CE011995C9
:1043F000B701CE01DF91CF911F910F91FF90EF9008
:10440000F6CEDF91CF911F910F91FF90EF9008951D
:10441000CF92DF92EF92FF921F93CF93DF93EC0145
:104420006A017B018DA981111CC08F2D9927AA27B4
:10443000BB278EBD0DB407FEFDCFC701AA27BB2742
:104440008EBD0DB407FEFDCFBB27AF2D9E2D8D2D4C
:104450008EBD0DB407FEFDCFCEBC0DB407FEFDCF63
:104460003AC0813091F410E2CE01F7FE02C02EDE98
:1044700001C037DECE0140DECE0149DECC0CDD1CB2
:10448000EE1CFF1C115081F726C0EF8DF8A1872F7D
:104490009927AA27BB278083CE0144DEEF8DF8A1A0
:1044A000C701AA27BB278083CE013CDEEF8DF8A190
:1044B000BB27AF2D9E2D8D2D8083CE0133DEEF8D5A
:1044C000F8A1C082CE01DF91CF911F91FF90EF90B4
:1044D000DF90CF9027CEDF91CF911F91FF90EF908B
:1044E000DF90CF900895AF92BF92CF92DF92EF927C
:1044F000FF920F931F93CF93DF93EC018B01211554
:1045000031054105510509F469C08DA981110FC01C
:10451000215031094109510908F460C01EBD0DB494
:1045200007FEFDCF0EBD0DB407FEFDCFF1CF8130EC
:1045300059F569017A01A12E28E0B22ECE01A7FE1D
:1045400002C0C4DD01C0CDDDCE01D6DDCE01DFDD90
:10455000AA0CBA94B110F2CFA02E98E0B92ECE01D9
:10456000A7FE02C0B3DD01C0BCDDCE01C5DDCE01BA
:10457000CEDDAA0CBA94B110F2CF81E0C81AD108EE
:10458000E108F108C1F62AC0161316C0EF8DF8A194
:10459000108369017A01CC0CDD1CEE1CFF1CC114D8
:1045A000D104E104F104D1F0CE01BCDD81E0C81AF0
:1045B000D108E108F108F3CF69017A01EF8DF8A184
:1045C0001083CE01AFDDEF8DF8A10083CE01AADD0F
:1045D00081E0C81AD108E108F10881F7DF91CF9195
:1045E0001F910F91FF90EF90DF90CF90BF90AF9011
:1045F0000895AF92BF92CF92DF92EF92FF920F9306
:104600001F93CF93DF93EC015901E881F98102A454
:10461000F3A5E02D19959501D801D2D49B01AC01E9
:10462000B701CE01DF91CF911F910F91FF90EF90D5
:10463000DF90CF90BF90AF9056CFEF92FF920F9345
:104640001F93CF93DF9377FD33C0DC011896ED9174
:10465000FC9119976E177F075CF52115310541F123
:1046600037FF07C0F90131964E0F5F1F3195219535
:104670003109DC011A96ED91FC911B974E175F07EB
:10468000BCF4EA01C20FD31FDE011197B7FD10C0C1
:1046900057FF03C09E0140E050E0AE17BF071CF07B
:1046A0009F01241B350B7801890121E030E0A1DF57
:1046B000DF91CF911F910F91FF90EF900895EF92AE
:1046C000FF920F931F93CF93DF9357FD32C0DC010E
:1046D0001A96ED91FC911B974E175F0754F5211523
:1046E000310539F137FF07C0F90131966E0F7F1F91
:1046F000319521953109DC011896ED91FC911997BE
:104700006E177F07B4F4EB01C20FD31FDE011197C0
:10471000B7FD0FC077FF03C09E0160E070E0AE17E9
:10472000BF071CF09F01261B370B780101E010E04A
:1047300060DFDF91CF911F910F91FF90EF9008956F
:104740008F929F92AF92BF92CF92DF92EF92FF92A1
:104750000F931F93CF93DF935C014B016A01E90133
:1047600077FD52C0DC0118968D919C9119976817BE
:1047700079070CF049C0209709F446C037FF07C0FD
:10478000C9010196C80ED91ED195C195D109F5016F
:1047900082859385C816D906BCF5A6014C0F5D1F0E
:1047A0009A012150310937FD2FC0D7FE03C0EA011D
:1047B000C12CD12C281739071CF0EC01CC19DD09CC
:1047C000D501ED91FC910284F385E02DC501199589
:1047D00078018E0121E030E0A601B401C50109DFB6
:1047E000D501ED91FC910688F789E02DC501DF9197
:1047F000CF911F910F91FF90EF90DF90CF90BF90DE
:10480000AF909F908F901994DF91CF911F910F914E
:10481000FF90EF90DF90CF90BF90AF909F908F90E0
:1048200008958F929F92AF92BF92CF92DF92EF92B4
:10483000FF920F931F93CF93DF935C016B014A01AB
:10484000E90157FD52C0DC011A968D919C911B978E
:10485000481759070CF049C0209709F446C037FFA4
:1048600007C0C9010196C80ED91ED195C195D109BD
:10487000F50180859185C816D906BCF5A6014C0FB7
:104880005D1F9A012150310937FD2FC0D7FE03C0AB
:10489000EA01C12CD12C281739071CF0EC01CC19E6
:1048A000DD09D501ED91FC910284F385E02DC50170
:1048B0001995780101E010E09E01A401B601C5013F
:1048C00098DED501ED91FC910688F789E02DC501B0
:1048D000DF91CF911F910F91FF90EF90DF90CF90DC
:1048E000BF90AF909F908F901994DF91CF911F91BF
:1048F0000F91FF90EF90DF90CF90BF90AF909F907F
:104900008F9008958F929F92AF92BF92CF92DF9235
:10491000EF92FF920F931F93CF93DF934C016B01A4
:104920005A01E901209709F46BC00115110509F43A
:1049300067C037FF07C0C9010196C80ED91ED195BF
:10494000C195D109F401A085B185CA16DB060CF02A
:1049500057C017FF07C0C8010196A80EB91E1195D0
:1049600001951109F40182859385A816B9060CF00A
:1049700047C0F601EC0FFD1FAF014150510957FD33
:104980003FC0B501600F711F9B012150310937FDF8
:1049900037C0D7FE03C0EF01C12CD12CB7FE03C036
:1049A0008B01A12CB12C4A175B071CF0ED01CC192F
:1049B000DD09281739071CF08C010A191B09D401DD
:1049C000ED91FC910284F385E02DC40119959E01BF
:1049D000A501B601C4010DDED401ED91FC9106885C
:1049E000F789E02DC401DF91CF911F910F91FF90C6
:1049F000EF90DF90CF90BF90AF909F908F901994E1
:104A0000DF91CF911F910F91FF90EF90DF90CF90AA
:104A1000BF90AF909F908F9008958F929F92AF928A
:104A2000BF92CF92DF92EF92FF920F931F93CF939B
:104A3000DF9347012115310509F44CC0011511051B
:104A400009F448C037FF07C0F90131966E0F7F1F88
:104A5000319521953109DC011896AD90BC901997DC
:104A60006A157B05BCF517FF07C0F80131964E0F9C
:104A70005F1F119501951109DC011A96ED91FC91CA
:104A80001B974E175F0734F56B01C20ED31EE6016C
:104A90002197D7FD1FC07A01E00EF11ED7011197B3
:104AA000B7FD18C077FF03C0960160E070E057FFC4
:104AB00003C0870140E050E0CA15DB051CF09501FA
:104AC000261B370BAE17BF071CF08F01041B150BFD
:104AD00074018FDDDF91CF911F910F91FF90EF90C7
:104AE000DF90CF90BF90AF909F908F9008951092DD
:104AF000F60C81E08093F40C1092F30C61E084E1F9
:104B00000E94CD0F61E085E10E94CD0FE9EBF0E05E
:104B100080818E7F808380818D7F808388E48093F5
:104B2000B80085E48093BC000895413208F043C08A
:104B30009091F60C9111FCCF91E09093F60C20939C
:104B4000F40C2FEF2093890C1092CE0C240F20939D
:104B5000CD0C9093F50C9091F50C880F892B8093D8
:104B6000F50C8091F30C813061F41092F30C80917C
:104B7000F50C8093BB008091BC0083FDF8CF85ECE1
:104B800001C085EE8093BC008091F60C8130E1F38A
:104B90008091CE0C841710F44091CE0CAFECBCE0A9
:104BA000962FFB018E2F891B841718F48D9181930A
:104BB000F9CF842F089580E008950F93413208F0D3
:104BC0004AC09091F60C9111FCCF32E03093F60C74
:104BD0000093F40C3FEF3093890C1092CE0C40936D
:104BE000CD0C562FAFECBCE0FB013E2F351B34172C
:104BF00018F431913D93F9CF1092F50C3091F50CEA
:104C0000880F832B8093F50C8091F30C813061F435
:104C10001092F30C8091F50C8093BB008091BC0046
:104C200083FDF8CF85EC01C085EE8093BC00222384
:104C300021F08091F60C8230D1F38091890C8F3F66
:104C400079F08091890C803241F08091890C803319
:104C500031F094E005C091E003C092E001C093E020
:104C6000892F0F9108954091AB0C262F30E0240F2F
:104C7000311D21323105DCF42091F60C2430C9F4C9
:104C8000FC0180E090E0861758F43091AB0C219144
:104C9000DC01A355B34FA30FB11D2C930196F3CFA5
:104CA0008091AB0C680F6093AB0C80E0089581E0BD
:104CB000089582E008959093F00C8093EF0C08958E
:104CC0009093F20C8093F10C089585ED8093BC00D5
:104CD0008091BC0084FDFCCF1092F60C089585EC09
:104CE0008093BC001092F60C08951F920F920FB69D
:104CF0000F9211240BB60F922F933F934F935F9314
:104D00006F937F938F939F93AF93BF93EF93FF9393
:104D10008091B900887F803609F49DC070F5883293
:104D200009F45CC090F4803109F455C038F488234C
:104D300009F4F3C0883009F44EC0F2C0883109F498
:104D40004DC0803209F45EC0EBC0803409F469C004
:104D500050F4803309F456C0883309F0E1C08093E1
:104D6000890CBDDFDDC0803509F44FC0883509F4FA
:104D70005DC0883409F0D4C0D2C0883909F4C3C0FA
:104D8000A8F4883709F467C038F4883609F463C09A
:104D9000803709F460C0C4C0883809F4B4C08039D1
:104DA00009F45FC0803809F0BBC05BC0803B09F4E8
:104DB00082C038F4803A09F466C0883A09F47BC0AE
:104DC000AFC0803C09F4A3C0883C09F4A0C0883B74
:104DD00009F486C0A5C08091F50C10C09091CE0C4E
:104DE0008091CD0C981770F5E091CE0C81E08E0F7C
:104DF0008093CE0CF0E0E153F34F80818093BB00B1
:104E000085EC82C08093890C8AC0E091CE0C81E051
:104E10008E0F8093CE0C8091BB00F0E0E153F34FF6
:104E200080839091CE0C8091CD0C6AC0E091CE0C25
:104E300081E08E0F8093CE0C8091BB00F0E0E153B7
:104E4000F34F80838091F40C811169C081E08093DD
:104E5000F30C84EA5DC083E08093F60C10928A0C18
:104E6000CFCF80918A0C803208F04DC0E0918A0C3F
:104E700081E08E0F80938A0C8091BB00F0E0E557B3
:104E8000F34F8083BDCF2BDF80918A0C803230F4CA
:104E9000E0918A0CF0E0E557F34F108260918A0CA4
:104EA00070E0E091EF0CF091F00C8BE89CE019952C
:104EB00010928A0C35C084E08093F60C1092AC0CF2
:104EC0001092AB0CE091F10CF091F20C19958091DD
:104ED000AB0C811105C081E08093AB0C1092AD0C3E
:104EE000E091AC0C81E08E0F8093AC0CF0E0E355C8
:104EF000F34F80818093BB009091AC0C8091AB0C00
:104F0000981708F47DCF85E88093BC0009C085EC34
:104F10008093BC001092F60C03C01092890CD5DE71
:104F2000FF91EF91BF91AF919F918F917F916F9181
:104F30005F914F913F912F910F900BBE0F900FBE3D
:104F40000F901F90189597FB072E16F4009406D02B
:104F500077FD08D050D007FC05D03EF490958195A0
:104F60009F4F0895709561957F4F0895A1E21A2E85
:104F7000AA1BBB1BFD010DC0AA1FBB1FEE1FFF1FFD
:104F8000A217B307E407F50720F0A21BB30BE40B4D
:104F9000F50B661F771F881F991F1A9469F7609594
:104FA0007095809590959B01AC01BD01CF0108954E
:104FB000EE0FFF1F881F8BBF0790F691E02D19940D
:104FC00005D0332312F48A1B9B0B10C0A29FB001A3
:104FD000B39FC001A39F700D811D1124911DB29F2D
:104FE000700D811D1124911D0895F0DFB7FF089504
:104FF000821B930B0895AA1BBB1B51E107C0AA1F7C
:10500000BB1FA617B70710F0A61BB70B881F991F69
:105010005A95A9F780959095BC01CD01089581E03E
:0A50200090E0F89400C0F894FFCF70
:10502A0001E8030197179717971797179717971775
:10503A0097179717B602B902BC02BF02B202C202A0
:10504A00C602CA02CE02B2020000000032177A0D6E
:10505A004C05561726173E174A17436F756C64207E
:10506A006E6F742066696E6420612076616C696473
:10507A0020414D47383878782073656E736F722CEB
:10508A0020636865636B20776972696E6721002DFA
:10509A002D20546865726D616C2043616D65726183
:1050AA002054657374202D2D0000000000DD0A7A5B
:1050BA000D720A290B440A5E0A500A0D0A006E6133
:1050CA006E00696E66006F76660025732A25303297
:1050DA0058005A5A5A004949005749004750004750
:1050EA004E0047474100474C4C0047534100524D40
:1050FA00430024504D544B3138352C302A3232007B
:10510A0024504D544B3030312C3138352C332A331E
:10511A00430024504D544B3138352C312A32330058
:10512A0024504D544B3138332A33380024504D54CF
:10513A004B4C4F470024504D544B3136312C302ABA
:10514A0032380024504D544B3031302C3030322A12
:10515A003244000000000097117A0D4C05AF0B0095
:10516A00000000DE1D7A0D4C05AF0B88215820D7B0
:10517A00210D251D235F23F018BF1E0E13DB20A06F
:10518A002311248224881AA51A121BBD13D61300D0
:10519A00000000DE1D7A0D4C05AF0B88215820D780
:1051AA00210D251D235F23F018BF1E2F14DB20A01D
:1051BA002311248224881AA51A121BBD13D61300A0
:1051CA000000004D1620164C05E915BE15C615DA65
:1051DA00150000000032177A0D4C05561726173EA7
:1051EA00174A1700000000DE1D7A0D4C05AF0B941C
:1051FA0017D019A119C019A819B419F018D0197221
:10520A001B711BD1190A1A431A881AA51A121B00F4
:10521A00000000DE1D7A0D4C05AF0B88215820D7FF
:10522A00210D251D235F23F018BF1E721BDB20A052
:10523A002311248224881AA51A121B941794170082
:00000001FF
