:1000000041C400000C94F2310C941D320C9448321F
:100010000C9473320C949E320C94C9320C94F432CA
:100020000C941F330C944B2B0C944B2B0C944B2B9C
:100030005AC4000058C4000056C4000054C4000054
:1000400052C4000050C400004EC400004CC4000064
:100050004AC4000048C4000046C400000C94F11BD0
:1000600042C400000C94EA160C9420173CC4000013
:100070003AC4000038C4000036C4000034C4000094
:1000800032C4000030C400002EC400002CC40000A4
:100090000C947F170C94B51726C400000C94CF4025
:1000A00022C4000020C400001EC400001CC40000C4
:1000B0001AC4000018C4000016C4000014C40000D4
:1000C00012C4000010C400000EC400000C941418E8
:1000D0000C944A1808C400000C94A9180C94DF185A
:1000E00002C40000590D3E0EC90E34113411060F22
:1000F000650FFC0F4610ED10531D561D451D491D83
:100100004F1D8D1D5A1D5E1D641D681D6C1D721DC9
:10011000761D7A1D8D1D801D841D881D6364696E8A
:100120006F70737578585B004E414E494E49545973
:10013000494E46CDCCCC3D0AD7233C17B7D13877B2
:10014000CC2B329595E6241FB14F0A0000204100C8
:1001500000C84200401C4620BCBE4CCA1B0E5AAE12
:10016000C59D7441542B434D47443D3F0D0A004308
:100170006F756C646E27742064656C6574652053BC
:100180004D5320696E20736C6F7420004F4B21001B
:1001900053656E7421004661696C65640046524F78
:1001A0004D3A200053657474696E672075700000C5
:1001B000000A0B02090C0D0E0807030401000000E1
:1001C000000000000000000000000000000000002F
:1001D00000000000000000000000001211100000EC
:1001E000000000000000000000000000000000000F
:1001F000000000000001021020200808102040101C
:1002000020408002010201080402010102040810DA
:1002100020408080402010080402018004020180F8
:100220004020100804020108040201010204081021
:1002300020408001020408102040800505050507C4
:100240000508080808020202020A0A080804040451
:10025000040101010101010101030303030303037D
:1002600003040707070C0C0C0C0C0C0C0C0202020C
:100270000206060606060606060B0B0B0B0B0B0BFF
:100280000B000020002300260029002C002F003244
:100290000000010000030106010901000022002501
:1002A0000028002B002E0031003400020100000560
:1002B0000108010B0100002100240027002A002D65
:1002C000003000330001010000040107010A0109A8
:1002D0003C2D2D2D2000092D2D2D3E2000093C2DDB
:1002E0002D2D2000092D2D2D3E200041542B434D56
:1002F00047463D31003E20003E200041542B434DF7
:1003000047463D31002B434D47523A0041542B4361
:100310004D47523D0041542B434D47523D004154FF
:100320002B435344483D310041542B434D47463DF8
:1003300031002B434D47523A0041542B434D475215
:100340003D0041542B434D47523D0041542B4353F4
:1003500044483D310041542B434D47463D31004F09
:100360004B00464F4E4100464F4E416E65740000B3
:10037000000000003E5B4F5B3E3E6B4F6B3E1C3E01
:100380007C3E1C183C7E3C181C577D571C1C5E7F15
:100390005E1C00183C1800FFE7C3E7FF0018241894
:1003A00000FFE7DBE7FF30483A060E2629792926C9
:1003B000407F050507407F05253F5A3CE73C5A7FB3
:1003C0003E1C1C08081C1C3E7F14227F22145F5F09
:1003D000005F5F06097F017F006689956A60606043
:1003E000606094A2FFA29408047E040810207E207E
:1003F0001008082A1C08081C2A08081E10101010D3
:100400000C1E0C1E0C30383E3830060E3E0E060018
:100410000000000000005F00000007000700147FDC
:10042000147F14242A7F2A12231308646236495643
:1004300020500008070300001C2241000041221C3C
:10044000002A1C7F1C2A08083E0808008070300023
:100450000808080808000060600020100804023E38
:100460005149453E00427F40007249494946214179
:10047000494D331814127F1027454545393C4A49E8
:100480004931412111090736494949364649492927
:100490001E00001400000040340000000814224137
:1004A0001414141414004122140802015909063EC0
:1004B000415D594E7C1211127C7F494949363E41BB
:1004C0004141227F4141413E7F494949417F0909DC
:1004D00009013E414151737F0808087F00417F4177
:1004E000002040413F017F081422417F40404040AE
:1004F0007F021C027F7F0408107F3E4141413E7F06
:10050000090909063E4151215E7F091929462649FC
:1005100049493203017F01033F4040403F1F2040D3
:10052000201F3F4038403F631408146303047804DD
:10053000036159494D43007F4141410204081020A5
:10054000004141417F04020102044040404040001C
:100550000307080020545478407F28444438384426
:10056000444428384444287F385454541800087EA2
:10057000090218A4A49C787F0804047800447D40F4
:10058000002040403D007F1028440000417F400093
:100590007C047804787C080404783844444438FCAB
:1005A0001824241818242418FC7C0804040848542F
:1005B00054542404043F44243C4040207C1C2040EC
:1005C000201C3C4030403C44281028444C909090E3
:1005D0007C4464544C44000836410000007700001D
:1005E000004136080002010204023C2623263C1E7C
:1005F000A1A161123A4040207A38545455592155EE
:10060000557941225454784221555478402054550C
:1006100079400C1E5272123955555559395454545B
:100620005939555454580000457C410002457D42DB
:100630000001457C407D1211127DF0282528F07CB8
:10064000545545002054547C547C0A097F49324952
:100650004949323A4444443A324A4848303A41419E
:10066000217A3A42402078009DA0A07D3D4242423E
:100670003D3D4040403D3C24FF2424487E494366A4
:100680002B2FFC2F2BFF0929F620C0887E09032081
:10069000545479410000447D413048484A32384042
:1006A00040227A007A0A0A727D0D19317D262929A5
:1006B0002F28262929292630484D402038080808A7
:1006C0000808080808382F10C8ACBA2F102834FAC8
:1006D00000007B000008142A142222142A14085552
:1006E00000550055AA55AA55AAFF55FF55FF000011
:1006F00000FF00101010FF00141414FF001010FF72
:1007000000FF1010F010F0141414FC001414F70083
:10071000FF0000FF00FF1414F404FC141417101F52
:1007200010101F101F1414141F00101010F00000E0
:1007300000001F101010101F10101010F0100000FB
:1007400000FF101010101010101010FF100000000B
:10075000FF140000FF00FF00001F10170000FC0442
:10076000F414141710171414F404F40000FF00F725
:1007700014141414141414F700F714141417141088
:10078000101F101F141414F4141010F010F00000B7
:100790001F101F0000001F14000000FC140000F0D8
:1007A00010F01010FF10FF141414FF141010101F7D
:1007B00000000000F010FFFFFFFFFFF0F0F0F0F08E
:1007C000FFFFFF0000000000FFFF0F0F0F0F0F38AB
:1007D00044443844FC4A4A4A347E02020606027EF9
:1007E000027E0263554941633844443C04407E2004
:1007F0001E2006027E020299A5E7A5991C2A492A15
:100800001C4C7201724C304A4D4D303048784830A3
:10081000BC625A463D3E494949007E0101017E2A9B
:100820002A2A2A2A44445F444440514A44404044CE
:100830004A51400000FF0103E080FF000008086B00
:100840006B083612362436060F090F0600001818FA
:100850000000001010003040FF0101001F01011EC8
:1008600000191D1712003C3C3C3C00000000000039
:1008700097061708BC089E12F2125217E7177C1849
:100880001119632D11241FBECFEFD1E2DEBFCDBF02
:1008900000E00CBF19E0A0E0B2E0ECEAFAE900E009
:1008A0000BBF02C007900D92AA31B107D9F723E11F
:1008B000AAE1B9E001C01D92A73FB207E1F714E039
:1008C000C2E4D4E000E006C021970109802FFE01B8
:1008D0000E946E42C833D10780E00807A9F70E9442
:1008E0003F190C94544D8CCBDC01ED91FC9101909F
:1008F000F081E02D199468E670E08DE293E10E94AA
:10090000E72C6BE670E08DE293E1EEDF60E070E0F3
:100910008DE293E1E9DF8DE293E10E94612D68E6CB
:1009200070E08DE293E10E94E72C6BE170E08DE2D4
:1009300093E1DADF60E070E08DE293E1D5DF8DE2F4
:1009400093E10E94612D68E670E08DE293E10E94E0
:10095000E72C6CE170E08DE293E1C6DF68E170E0C6
:100960008DE293E1C1DF8DE293E10C94612DCF9391
:10097000DF93CAE1D9E060914609709147098091FF
:100980004809909149090E94681420E030E040E055
:100990005AE30E941C15688379838A839B83609144
:1009A00042097091430980914409909145090E9440
:1009B000681420E030E040E05AE30E941C156C838C
:1009C0007D838E839F8360913E0970913F09809162
:1009D0004009909141090E94681420E030E040E015
:1009E0005AE30E941C15688779878A879B87DF9165
:1009F000CF910895CF93DF93CAE1D9E060913A098E
:100A000070913B0980913C0990913D090E946814C6
:100A100020E030E044E253E40E94CD136C877D87F0
:100A20008E879F87609136097091370980913809C8
:100A3000909139090E94681420E030E044E253E4C8
:100A40000E94CD13688B798B8A8B9B8B60913209C6
:100A50007091330980913409909135090E9468148E
:100A600020E030E044E253E40E94CD136C8B7D8B98
:100A70008E8B9F8BDF91CF910895CF9368E670E0C6
:100A80008DE293E10E94E72C6BE370E08DE293E14D
:100A90002BDF8DE293E10E94612D46E050E068E695
:100AA00070E08DE293E10E945E2D8DE293E10E9461
:100AB000FD2B0697D4F38DE293E10E94052CC82FFD
:100AC0008DE293E10E94052C20E030E03C2F822B48
:100AD000932B092E000CAA0BBB0B80934609909315
:100AE0004709A0934809B09349098DE293E10E9418
:100AF000052CC82F8DE293E10E94052C20E030E008
:100B00003C2F822B932B092E000CAA0BBB0B80933E
:100B1000420990934309A0934409B09345098DE29B
:100B200093E10E94052CC82F8DE293E10E94052CD1
:100B300020E030E03C2F822B932B092E000CAA0BD7
:100B4000BB0B80933E0990933F09A0934009B0935B
:100B50004109CF910CCFCF9368E670E08DE293E12D
:100B60000E94E72C63E470E08DE293E1BDDE8DE24C
:100B700093E10E94612D46E050E068E670E08DE26E
:100B800093E10E945E2D8DE293E10E94FD2B06977A
:100B9000D4F38DE293E10E94052CC82F8DE293E1FE
:100BA0000E94052C20E030E03C2F822B932B092E55
:100BB000000CAA0BBB0B80933A0990933B09A093BE
:100BC0003C09B0933D098DE293E10E94052CC82FAA
:100BD0008DE293E10E94052C20E030E03C2F822B37
:100BE000932B092E000CAA0BBB0B80933609909314
:100BF0003709A0933809B09339098DE293E10E9437
:100C0000052CC82F8DE293E10E94052C20E030E0F6
:100C10003C2F822B932B092E000CAA0BBB0B80932D
:100C2000320990933309A0933409B0933509CF91D9
:100C3000E1CECF93DF93EC0120DF8DDF88E1EAE1A5
:100C4000F9E0DE0101900D928A95E1F7CE01DF9186
:100C5000CF91089580E090E008952F923F924F92B7
:100C60005F926F927F928F929F92AF92BF92CF923C
:100C7000DF92EF92FF920F931F93CF93DF93CDB745
:100C8000DEB7CC58D1090FB6F894DEBF0FBECDBF8A
:100C9000D82E792E662E572E442E352E222E6FE317
:100CA00073E083EA9FE00E94E7191F92CE55DF4F61
:100CB0008881C25AD0408F93BF92AF929F928F92F9
:100CC0001F92CF921F930F93FF92EF921F922F923A
:100CD0003F924F925F926F927F92DF9283E593E013
:100CE0009F938F93CE0101969F938F930E94BA4555
:100CF0000FB6F894DEBF0FBECDBFC457DF4F0FB69F
:100D0000F894DEBF0FBECDBFDF91CF911F910F9141
:100D1000FF90EF90DF90CF90BF90AF909F908F901B
:100D20007F906F905F904F903F902F90089566E175
:100D300084E89AE00E94A22DE4E8FAE08BED93E0CB
:100D40009183808384E085870895AF92BF92CF928C
:100D5000DF92EF92FF920F931F93CF93DF93CDB764
:100D6000DEB7C456D1090FB6F894DEBF0FBECDBFB3
:100D700084E89AE00E94662D892B09F4F9C07E016F
:100D800083E6E80EF11CD7011D921C9204E41AE0E0
:100D900083E8A82E8AE0B82E680184E89AE00E94D1
:100DA0007E2DF80181938F01682F83EA9FE00E94D6
:100DB000171661E070E080E090E00E946C1CD601A4
:100DC0008C918A3049F084E89AE00E94662D892B44
:100DD00019F0A016B10601F7F6011182FF92EF9209
:100DE00088EC93E09F938F9384E49AE09F938F9392
:100DF0000E94E8450F900F900F900F900F900F906A
:100E0000019709F0B5C06BE973E083EA9FE00E94A7
:100E1000BC19F701608171814AE050E083EA9FE0EC
:100E20000E94C11A2FE130E0AE014F5B5F4FD70146
:100E30006C9184E89AE00E948331811106C062EAD5
:100E400073E083EA9FE00E94E7196DE971E083EAAD
:100E50009FE00E948A19BE016F5B7F4F83EA9FE08B
:100E60000E94E7198E010F591F4F2AEF30E04AE424
:100E700059E0F701608184E89AE00E94803088237D
:100E800031F06AE479E083EA9FE00E94E7196FE3BA
:100E900073E083EA9FE00E94E71987E0E1E2F2E075
:100EA000DE01919601900D928A95E1F7FE01B896C8
:100EB00089E1DF011D928A95E9F7809107028F93FE
:100EC000809106028F9383EC93E09F938F938E0122
:100ED0000F5F1F4F1F930F930E94BA45B801CE01B9
:100EE00081960E944045AE014F5D5F4FBE016F5B32
:100EF0007F4F84E89AE00E94422F0F900F900F904E
:100F00000F900F900F90811103C066E971E002C04D
:100F100060E971E083EA9FE00E94C71968EE73E020
:100F200080E090E00E946C1CF701608184E89AE008
:100F30000E94FA2F882339F06CE871E083EA9FE081
:100F40000E94C71915C06FE671E083EA9FE00E9416
:100F50008A19D7016D917C914AE050E083EA9FE0C5
:100F60000E94C11A63E671E084E89AE00E948A193F
:100F7000CC59DF4F0FB6F894DEBF0FBECDBFDF9167
:100F8000CF911F910F91FF90EF90DF90CF90BF9086
:100F9000AF900895CF93DF93EC018EE99BE00E9420
:100FA000A2231F868EE99BE00E943526882371F0DC
:100FB0008EE99BE00E943A26BC018EE99BE00E94EC
:100FC000E126811130C081E08F872DC02091150C62
:100FD00028838091160C90E09A838983222319F14B
:100FE0008091DA0B9091DB0BA091DC0BB091DD0BC3
:100FF0008B839C83AD83BE838091120C8F83809101
:10100000DE0B9091DF0BA091E00BB091E10B888794
:101010009987AA87BB878091130C8C878091180CC5
:1010200090E09E878D87CE01DF91CF9108956DED81
:1010300070E18EE99BE00C94B02560E08FE10E94A6
:101040008E1D61E082E20E948E1D61E087E20E94B7
:101050008E1D61E089E20E948E1D61E08DE20E949A
:101060008E1D61E085E20E948E1D61E083E20E9498
:101070008E1D60E087E20E94CA1D61E082E20E944C
:10108000CA1D60E089E20E94CA1D61E08DE20E94F3
:10109000CA1D61E085E20E94CA1D60E083E20E94F1
:1010A000CA1D26E040E052EC61E070E083EA9FE078
:1010B0000E94841680910A02882331F064EA71E06C
:1010C00083EA9FE00E94C71926E040E855E260E00D
:1010D00070E080E490E10E94841626E040E855E24A
:1010E00060E070E08DED90E10E94841626E040E81B
:1010F00055E260E070E08AE791E10E948416FBDB34
:1011000080910A02882331F069EE73E083EA9FE060
:101110000C94E71908950F931F93CF93DF93809159
:101120000A02882331F060EF73E083EA9FE00E94B7
:10113000E71961E087E20E94CA1D64EF71E080E078
:1011400090E00E946C1CCAE0D0E08DE29EE00E941C
:101150001A2B080F191F2197C1F760E087E20E9440
:10116000CA1DC8016AE070E00E941D42CB01DF91F8
:10117000CF911F910F9108950F931F9300EA1FE0E5
:1011800024E130E04DE150E06BE170E08DE29EE063
:101190000E94B42A1F910F9108950F931F93CF932C
:1011A000DF9380910A02882331F061E074E083EAE2
:1011B0009FE00E94E71980910B0281119AC061E0C3
:1011C00087E20E94CA1D61E083E20E94CA1D68EEA8
:1011D00073E080E090E00E946C1C0E94B8118DE2E8
:1011E0009EE00E941A2B9093000E8093FF0D809139
:1011F0000A02882381F061E174E083EA9FE00E94A3
:10120000BC196091FF0D7091000E4AE050E083EA36
:101210009FE00E94C11A8091070E8093030E81E027
:101220008093040E0E94CD112093270E3093280E38
:101230004093290E50932A0E60932B0E70932C0E20
:1012400081E020912B0E30912C0E232B09F480E0AD
:101250008093050E80910A02882309F44AC061E256
:1012600074E083EA9FE00E94E71966E374E083EA92
:101270009FE00E94BC196091FF0D7091000E4AE042
:1012800050E083EA9FE00E94C11A66E474E083EABA
:101290009FE00E94BC196091030E70E04AE050E0AC
:1012A00083EA9FE00E94C11A61E574E083EA9FE04F
:1012B0000E94BC196091040E70E04AE050E083EA9D
:1012C0009FE00E94C11A6DE574E083EA9FE00E94EE
:1012D000BC1960912B0E70912C0E4AE050E083EA0D
:1012E0009FE00E94C11A68EE73E080E090E00E94E7
:1012F0006C1C80910E0290910F022091FF0D309195
:10130000000E821B930B9093020E8093010ED091DE
:10131000080E8091090ED111CDC0882321F08130B3
:1013200009F47FC086C180910A02882361F06EE6CD
:1013300074E083EA9FE00E94E71964EF71E080E0C7
:1013400090E00E946C1C2091030E80912B0E9091D6
:101350002C0E822B892BC9F080910A028823B9F0C8
:1013600067E874E083EA9FE00E94BC194AE050E01D
:1013700061E070E083EA9FE00E94C11A68EE73E0CA
:1013800080E090E00E946C1C02C020E001C021E0DF
:1013900080910B028823E9F083EA9FE00E9499156F
:1013A000C1E0C09709F4C0E061E974E083EA9FE01E
:1013B0000E94E71983EA9FE00E947F15892BD1F3F1
:1013C00083EA9FE00E94991521E0C09719F420E07C
:1013D00001C0C1E0C22309F42DC181E08093080E51
:1013E00080910A02882379F06FE974E083EA9FE034
:1013F0000E94BC196091080E70E04AE050E083EA58
:101400009FE00E94C11A87E0EFEFFDE0A8EFBDE08A
:1014100001900D928A95E1F781E080930C02DC2F18
:1014200009C180910A02882361F06FEA74E083EABF
:101430009FE00E94E71964EF71E080E090E00E9475
:101440006C1C80910B02811109C080910A0E86509C
:10145000843058F585E080930A0E27C068EC74E06C
:1014600083EA9FE00E94E71983EA9FE00E947F15CC
:10147000892BD1F383EA9FE00E9499158C0161E9E1
:1014800074E083EA9FE00E94E71983EA9FE00E94EC
:101490007F15892BD1F383EA9FE00E9499150033D1
:1014A000110599F6C09789F6C5C081E08093080EB2
:1014B000D1E0C0C0882321F0813009F477C0B9C0E1
:1014C00080910A02882361F061EE74E083EA9FE074
:1014D0000E94E71964EF71E080E090E00E946C1CCC
:1014E0008091FA0D9091FB0D8B3A91055CF0809103
:1014F000010E9091020E8A3A910524F49093FB0D0F
:101500008093FA0D8091FD0D882331F08091040EB7
:10151000811102C01092FD0D8091FE0D882331F0E3
:101520008091050E811102C01092FE0D80910B0278
:10153000882349F168EC74E083EA9FE00E94E71990
:1015400083EA9FE00E947F15892BD1F383EA9FE015
:101550000E949915C1E0C09709F4C0E061E974E008
:1015600083EA9FE00E94E71983EA9FE00E947F15CB
:10157000892BD1F383EA9FE00E94991521E0C0975F
:1015800021F420E002C020E0C0E081E08227C817FB
:1015900008F04FC01092080E87E0EFEFFDE0A8EFD3
:1015A000BDE001900D928A95E1F743C080910A0257
:1015B000882361F066EF74E083EA9FE00E94E719F8
:1015C00064EF71E080E090E00E946C1C8091FA0D65
:1015D0009091FB0D8B3A91055CF08091010E9091FA
:1015E000020E8A3A910524F49093FB0D8093FA0D34
:1015F0008091FD0D882331F08091040E811102C08D
:101600001092FD0D80910B02882321F26CE075E0B1
:1016100083EA9FE00E94E71983EA9FE00E947F151A
:10162000892BD1F383EA9FE00E949915C09709F4B2
:10163000B1CF01C08D2FDF91CF911F910F910895F0
:101640002F923F924F925F926F927F928F929F92D2
:10165000AF92BF92CF92DF92EF92FF920F931F93C0
:10166000CF93DF93CDB7DEB7C85BD1090FB6F8943F
:10167000DEBF0FBECDBF80910A02882331F067E242
:1016800075E083EA9FE00E94E71980E490E10E9400
:101690007F15892B59F059DB80910A02882331F09C
:1016A0006CE275E083EA9FE00E94E7198AE791E126
:1016B0000E947F15892BE9F18AE791E10E94991533
:1016C0003C0180910A02882329F0662D83EA9FE07D
:1016D0000E94BD1980910A02882331F06AE375E007
:1016E00083EA9FE00E94E71961E08DE20E94CA1D33
:1016F000C301992783359105C9F044F48E349105CF
:10170000C1F4109209021092080213C089359105A4
:1017100031F08337910569F41092040E0AC081E01C
:1017200090E0909309028093080203C081E08093C7
:10173000040E8DED90E10E947F15892B09F485C080
:1017400080910A02882331F06EE475E083EA9FE01D
:101750000E94E719CE0183579F4F1CDC80E1FE01F8
:10176000E357FF4FA8EEBDE001900D928A95E1F797
:1017700080910A02882309F468C06CE575E083EA69
:101780009FE00E94BC196091E80D70E04AE050E0D3
:1017900083EA9FE00E94BB1A62E675E083EA9FE05D
:1017A0000E94BC196091E90D7091EA0D4AE050E089
:1017B00083EA9FE00E94C11A8091E80D882309F412
:1017C00044C06DE675E083EA9FE00E94BC19409139
:1017D000EB0D5091EC0D6091ED0D7091EE0D24E04C
:1017E00030E083EA9FE00E949B1B6091EF0D83EA4B
:1017F0009FE00E94BD1965EC73E083EA9FE00E94C0
:10180000BC194091F00D5091F10D6091F20D709165
:10181000F30D24E030E083EA9FE00E949B1B60917F
:10182000F40D83EA9FE00E94F71968E775E083EA08
:101830009FE00E94BC196091F50D7091F60D4AE091
:1018400050E083EA9FE00E94C11A80910A0E88232B
:1018500009F419C18091080E81110BC085E20E9424
:10186000F81D892B31F060E085E20E94CA1D1092BC
:10187000060EB7D66093E40D7093E50D8093E60DE8
:101880009093E70D80910A028823A9F065E875E03E
:1018900083EA9FE00E94BC196091E40D7091E50D10
:1018A0008091E60D9091E70DE0D74AE050E083EAA1
:1018B0009FE00E94C11A80910B02882351F162E9D6
:1018C00075E083EA9FE00E94E71983EA9FE00E94A7
:1018D0007F15892BD1F363EA7FE0CE0101960E9448
:1018E000DA1BBE016F5F7F4F83EA9FE00E94D7192A
:1018F000CE0101960E94E21EEBD76093E40D709337
:10190000E50D8093E60D9093E70DCE0101960E94C0
:10191000201E4090E40D5090E50D6090E60D709013
:10192000E70D20E030E040EA52E4C301B20131D7D4
:1019300087FF03C01092090E0DC020E030E040EA9E
:1019400052E4C301B2010E94181587FD03C081E073
:101950008093090E80910B02811144C0CE01835601
:101960009F4F67D988E1FE01E356FF4FAFE0BEE02D
:1019700001900D928A95E1F780910A02882309F47B
:1019800055C069EA75E083EA9FE00E94BC19409166
:101990000F0E5091100E6091110E7091120E22E0F8
:1019A00030E083EA9FE00E949B1B4091130E509110
:1019B000140E6091150E7091160E22E030E083EA4D
:1019C0009FE00E949B1B4091170E5091180E609152
:1019D000190E70911A0E22E030E083EA9FE00E9417
:1019E0009C1B24C06FEA75E083EA9FE00E94E71920
:1019F0006BEC75E083EA9FE00E94E71983EA9FE0C1
:101A00000E947F15892BD1F383EA9FE00E949915EC
:101A1000C097BC01990F880B990B5AD760930F0E92
:101A20007093100E8093110E9093120E2091130E4E
:101A30003091140E4091150E5091160E60910F0EBC
:101A40007091100E8091110E9091120E3ED6209141
:101A5000170E3091180E4091190E50911A0E35D66E
:101A60002AE939E949E95FE3E3D787FD0CC0109221
:101A70000A0E80910A02882331F064EE75E083EA51
:101A80009FE00E94BC1980910E0E882319F085E01A
:101A900080930A0E82DB80910A0E90E08A309105D5
:101AA00008F0E2C3FC018827EE58FF4F8F4F0C94DB
:101AB0006E4280910A02882361F066EF75E083EA46
:101AC0009FE00E94E71964EF71E080E090E00E94DF
:101AD0006C1C80910D02811103C081E080930C0287
:101AE00010920E0E85E20E94F81D892B21F060E015
:101AF00085E20E94CA1D82E20E94F81D892B21F016
:101B000060E082E20E94CA1D8DE20E94F81D892BCE
:101B100021F461E08DE20E94CA1D80910B028111C7
:101B20003CC0CE0183569F4F84D888E1FE01E35626
:101B3000FF4FAFE0BEE001900D928A95E1F78091F2
:101B40000A02882309F455C065E076E083EA9FE045
:101B50000E94BC192091130E3091140E4091150E65
:101B60005091160E6091170E7091180E8091190EFB
:101B700090911A0EAAD520910F0E3091100E40911F
:101B8000110E5091120EA1D5AB01BC0122E030E044
:101B900083EA9FE00E949C1B2CC069E076E083EA08
:101BA0009FE00E94E7196BEC75E083EA9FE00E94DA
:101BB000E71983EA9FE0A3D7892BD9F383EA9FE053
:101BC000B8D73C014AE050E0BC0183EA9FE00E94A4
:101BD000C11AB30160537109072E000C880B990BD1
:101BE00077D660930F0E7093100E8093110E909322
:101BF000120E2091130E3091140E4091150E50913B
:101C0000160E60910F0E7091100E8091110E909132
:101C1000120E5BD52091170E3091180E4091190EBF
:101C200050911A0E52D52AE939E949E95FE3B1D555
:101C300018160CF41BC381E080930A0E83E090E039
:101C400090930902809308020E943B1C6093DE0D72
:101C50007093DF0D8093E00D9093E10D80910A0267
:101C6000882309F416C365E176E083EA9FE00E94C9
:101C7000E71964EF71E080E090E009C380910A0207
:101C8000882361F06FE276E083EA9FE00E94E71923
:101C900064EF71E080E090E00E946C1C0E943B1CAD
:101CA0000091DE0D1091DF0D2091E00D3091E10DDE
:101CB000DC01CB01801B910BA20BB30B813197424E
:101CC000A105B10508F4E5C280910A02882331F02C
:101CD0006CE376E083EA9FE00E94E7195EDA8823EE
:101CE00021F061E085E20E94CA1D60E08DE20E9461
:101CF000CA1D64E48AE791E19AD780910A02882399
:101D000001F18AE791E115D74AE050E0BC0183EA8E
:101D10009FE00E94BB1A62E576E083EA9FE00E94A2
:101D2000BC1960910802709109024AE050E083EA10
:101D30009FE00E94C11A68EE73E080E090E00E948C
:101D40006C1C80910B02882399F060E676E083EAB0
:101D50009FE00E94E71983EA9FE0D1D6892BD9F34F
:101D600083EA9FE0E6D6C097909309028093080229
:101D70008091080290910902009721F482E08093FB
:101D80000A0E87C2019709F084C281E080930A0E8F
:101D90006DC260E08DE20E94CA1D63E58AE791E1B1
:101DA0000E94BD1980910A02882361F062E776E003
:101DB00083EA9FE00E94E71964EF71E080E090E021
:101DC0000E946C1C80910B02882331F061E876E060
:101DD00083EA9FE00E94E71920E030E040EA52E405
:101DE0006091E40D7091E50D8091E60D9091E70D05
:101DF0001FD687FD02C086E001C085E080930A0EF1
:101E000081E080930C0E10920D0E43C280910A0265
:101E1000882361F06DE876E083EA9FE00E94E7198D
:101E200064EF71E080E090E00E946C1C82E20E940E
:101E3000F81D892B31F060E082E20E94CA1D1092E9
:101E4000060E80910D0E811110920D0E80910B02E5
:101E5000882331F064E976E083EA9FE00E94E71985
:101E60008091080E811110C080910C0E8823C1F062
:101E700010920C0E80910B02811112C04CD99093DC
:101E80000F0280930E020CC085E20E94F81D892B80
:101E900021F461E085E20E94CA1D89E10E94F81DDB
:101EA00020E030E040EA52E46091E40D7091E50DED
:101EB0008091E60D9091E70DBBD587FDD7C180914C
:101EC0000E0E8111D3C186E0D3C080910A0288230F
:101ED00061F068E976E083EA9FE00E94E71964EF29
:101EE00071E080E090E00E946C1C81E08093060E1F
:101EF00080910B02882331F06FE976E083EA9FE05E
:101F00000E94E7198091080E882309F452C080913D
:101F10000D02882309F44DC01091F40D8090F00D4E
:101F20009090F10DA090F20DB090F30DC090EF0DD8
:101F30004090EB0D5090EC0D6090ED0D7090EE0D1B
:101F40002090E20D3090E30D49D38FD4CB54DF4F76
:101F5000688379838A839B83C55BD0406091E40D5D
:101F60007091E50D8091E60D9091E70D7ED4DC0136
:101F7000CB011F938301720121E0A101CB54DF4FFC
:101F800068817981C55BD0400E942D0610920D02B8
:101F90000F9080910A02882361F063EA76E083EA79
:101FA0009FE00E94E71964EF71E080E090E00E94FA
:101FB0006C1C4090E40D5090E50D6090E60D709023
:101FC000E70D20E030E04CEA52E4C301B20130D525
:101FD000181614F487E04CC020E030E040EA52E4E8
:101FE000C301B201D6D387FF41C182E080930A0EBC
:101FF00081E080930D0E4DC180910A02882361F02B
:102000006FEA76E083EA9FE00E94E71964EF71E0EF
:1020100080E090E00E946C1C80910B02882331F0DC
:1020200066EB76E083EA9FE00E94E71980910A025E
:10203000882361F06AEB76E083EA9FE00E94E7196B
:1020400064EF71E080E090E00E946C1C4090E40D31
:102050005090E50D6090E60D7090E70D20E030E0C7
:1020600046EB52E4C301B201E3D4181654F488E0FD
:1020700080930A0E10920D0E60E08DE20E94CA1D40
:10208000A1C020E030E04CEA52E4AACF80910A02DD
:10209000882361F068EC76E083EA9FE00E94E7190C
:1020A00064EF71E080E090E00E946C1C80910B0274
:1020B000882331F06FEC76E083EA9FE00E94E71915
:1020C00080910B0E882309F467C08091080E882345
:1020D00009F462C080910A02882361F063ED76E022
:1020E00083EA9FE00E94E71964EF71E080E090E0EE
:1020F0000E946C1C89E20E94F81D892B71F461E03A
:1021000089E20E94CA1D68EE73E080E090E00E94C0
:102110006C1C60E089E20E94CA1D1091F40D809051
:10212000F00D9090F10DA090F20DB090F30DC090D5
:10213000EF0D4090EB0D5090EC0D6090ED0D709018
:10214000EE0DD090080E2090E20D3090E30D46D2B7
:102150008CD3CB54DF4F688379838A839B83C55BA1
:10216000D0406091E40D7091E50D8091E60D909165
:10217000E70D7BD3DC01CB011F93830172012D2D71
:10218000A101CB54DF4F68817981C55BD0400E94AB
:102190002D0610920B0E0F904090E40D5090E50D1F
:1021A0006090E60D7090E70D20E030E042ED52E4E3
:1021B000C301B2013DD418165CF489E080930A0E85
:1021C00010920D0E63E58AE791E10E94BD1961C08E
:1021D00020E030E046EB52E403CF80910A028823EE
:1021E00061F06DED76E083EA9FE00E94E71964EF0D
:1021F00071E080E090E00E946C1C80910B028823CB
:1022000031F064EE76E083EA9FE00E94E719809166
:102210000C028823E1F08091080E8823C1F041E090
:1022200050E068EE76E08AE791E10E944B198091D8
:102230000A02882361F06AEE76E083EA9FE00E945A
:10224000E71964EF71E080E090E00E946C1C20E0F0
:1022500030E042ED52E46091E40D7091E50D809123
:10226000E60D9091E70DBECE10920A0E8DE20E940F
:10227000F81D892B71F080910B02811172C0809141
:102280000A0281116EC068EE73E080E090E00E9467
:102290006C1C8091F40D1F928F938091F30D8F939E
:1022A0008091F20D8F938091F10D8F938091F00DBD
:1022B0008F938091EF0D1F928F938091EE0D8F93EE
:1022C0008091ED0D8F938091EC0D8F938091EB0DAC
:1022D0008F938091080E1F928F938091E30D8F93BF
:1022E0008091E20D8F931F9282E38F938091E70D8F
:1022F0008F938091E60D8F938091E50D8F93809160
:10230000E40D8F9383E593E09F938F938E010F5F8E
:102310001F4F1F930F930E94BA45B80183EA9FE0B5
:102320000E94E7190FB6F894DEBF0FBECDBFC854A8
:10233000DF4F0FB6F894DEBF0FBECDBFDF91CF9158
:102340001F910F91FF90EF90DF90CF90BF90AF90D3
:102350009F908F907F906F905F904F903F902F90C5
:10236000089564EF76E083EA9FE00E94E7198BCF3F
:1023700069E685E39EE00E94341F811107C06AEF81
:1023800076E083EA9FE00E94E719FFCF64E670E001
:1023900080E090E00C946C1C08952F923F924F9235
:1023A0005F926F927F928F929F92AF92BF92CF92E5
:1023B000DF92EF92FF920F931F93CF93DF93CDB7EE
:1023C000DEB760970FB6F894DEBF0FBECDBF40E416
:1023D0006CE87EE085E39EE00E94B11F9CE8C92E78
:1023E0009EE0D92E00E010E0A12CB12CF601419026
:1023F0005190619071906F01B801012E000C880B13
:10240000990B66D29B01AC01C301B20111D318161E
:1024100024F4C301B20129D28B0120E030E048EB63
:1024200051E4C301B20104D387FD03C0FFEFAF1A2B
:10243000BF0A8CE8C8168FE0D806C1F61A83098354
:10244000FE0131966F011E01F9E02F0E311C8CE860
:10245000882E8EE0982EF4014190519061907190F9
:102460004F01F60162817381072E000C880B990BD6
:102470002FD29B01AC01C301B201DAD21816B4F419
:10248000F60160817181072E000C880B990B20D218
:102490009B01AC01C301B2017CD187FF07C0C3011E
:1024A000B201E3D1F601738362830AC0B701FF0C66
:1024B000880B990B0DD2A301920107D1D6D17B01D4
:1024C0008CE89FE08815990509F0C5CF92E0C90E08
:1024D000D11CC214D30409F0BACF1C870B87BE8667
:1024E000AD86C7016BE370E00E941D4202501109E6
:1024F00081E090E0601771070CF080E02B853C854F
:102500004D855E85BC0180E090E060960FB6F89442
:10251000DEBF0FBECDBFDF91CF911F910F91FF9016
:10252000EF90DF90CF90BF90AF909F908F907F9073
:102530006F905F904F903F902F90089520E341E37C
:1025400065E385E49EE00C94D729FC01862F608327
:10255000218332834383548360E00C948E1DCF9398
:10256000DF93EC0188810E94131DBC01990F880B39
:10257000990BAED129813A814B815C815DD220E0FB
:1025800030EC4FE754E409D1DF91CF910895CF9219
:10259000DF92EF92FF92CF93DF93EC01E0DF6B01CC
:1025A0007C012FE539E24BEC5BE369817A818B8119
:1025B0009C8142D29B01AC01C701B601EED021EE55
:1025C0003AE74EEC51E480D0DF91CF91FF90EF904D
:1025D000DF90CF90089581E99FE06BC08CE89FE089
:1025E000D6CFF9CF20E030E040EA50E467E381E95C
:1025F0009FE008D020E030E040EA50E467E38CE858
:102600009FE0A3CFCF92DF92EF92FF921F93CF93E1
:10261000DF93EC01162F69017A0160E0812F0E949F
:102620008E1DCA82DB82EC82FD821883DF91CF91FE
:102630001F91FF90EF90DF90CF900895CF93DF939D
:10264000EC0188810E94131D8983BC017727072E26
:10265000000C880B990B3CD120E030E040E85AE3B5
:10266000EBD12A813B814C815D81E6D16E837F83F2
:102670008887998720E030E040E05FE325D020E0C4
:1026800030E048EC52E4D8D16A877B878C879D87FD
:1026900026E636E646EE5FE3CFD120E030E040E0CC
:1026A00052E413D06E877F87888B998BDF91CF910F
:1026B0000895CF93DF93EC01C1DF6E857F85888914
:1026C0009989DF91CF9108955058BB27AA270ED042
:1026D00075C166D130F06BD120F031F49F3F11F419
:1026E0001EF45BC10EF4E095E7FB51C1E92F77D1F1
:1026F00080F3BA17620773078407950718F071F41F
:102700009EF58FC10EF4E0950B2EBA2FA02D0B0174
:10271000B90190010C01CA01A0011124FF27591B26
:1027200099F0593F50F4503E68F11A16F040A22F2C
:10273000232F342F4427585FF3CF4695379527959D
:10274000A795F0405395C9F77EF41F16BA0B620B9C
:10275000730B840BBAF09150A1F0FF0FBB1F661FE3
:10276000771F881FC2F70EC0BA0F621F731F841F26
:1027700048F4879577956795B795F7959E3F08F04C
:10278000B3CF9395880F08F09927EE0F979587950B
:102790000895D9D008F481E008950CD00FC107D175
:1027A00040F0FED030F021F45F3F19F0F0C051113D
:1027B00039C1F3C014D198F39923C9F35523B1F368
:1027C000951B550BBB27AA2762177307840738F0A0
:1027D0009F5F5F4F220F331F441FAA1FA9F333D0FF
:1027E0000E2E3AF0E0E830D091505040E695001CB3
:1027F000CAF729D0FE2F27D0660F771F881FBB1F6F
:10280000261737074807AB07B0E809F0BB0B802D48
:10281000BF01FF2793585F4F2AF09E3F510568F094
:10282000B6C000C15F3FECF3983EDCF38695779528
:102830006795B795F7959F5FC9F7880F911D969596
:10284000879597F90895E1E0660F771F881FBB1FF2
:10285000621773078407BA0720F0621B730B840B9F
:10286000BA0BEE1F88F7E095089504D06894B11173
:10287000D9C00895BCD088F09F5790F0B92F992700
:10288000B751A0F0D1F0660F771F881F991F1AF07B
:10289000BA95C9F712C0B13081F0C3D0B1E0089544
:1028A000C0C0672F782F8827B85F39F0B93FCCF3C5
:1028B000869577956795B395D9F73EF49095809571
:1028C000709561957F4F8F4F9F4F0895E89409C091
:1028D00097FB3EF490958095709561957F4F8F4F53
:1028E0009F4F9923A9F0F92F96E9BB279395F69569
:1028F000879577956795B795F111F8CFFAF4BB0FE7
:1029000011F460FF1BC06F5F7F4F8F4F9F4F16C04A
:10291000882311F096E911C0772321F09EE8872FD4
:10292000762F05C0662371F096E8862F70E060E090
:102930002AF09A95660F771F881FDAF7880F969509
:10294000879597F90895990F0008550FAA0BE0E8AD
:10295000FEEF16161706E807F907C0F01216130661
:10296000E407F50798F0621B730B840B950B39F4A1
:102970000A2661F0232B242B252B21F408950A2607
:1029800009F4A140A6958FEF811D811D089597F947
:102990009F6780E870E060E008959FEF80EC089505
:1029A00000240A941616170618060906089500242E
:1029B0000A9412161306140605060895092E0394A8
:1029C000000C11F4882352F0BB0F40F4BF2B11F41C
:1029D00060FF04C06F5F7F4F8F4F9F4F089557FD7B
:1029E0009058440F551F59F05F3F71F04795880F7D
:1029F00097FB991F61F09F3F79F087950895121614
:102A000013061406551FF2CF4695F1DF08C01616BF
:102A100017061806991FF1CF869571056105089470
:102A20000895E894BB2766277727CB0197F9089587
:102A30008ADF08F48FEF08950BD0C0CFB1DF28F004
:102A4000B6DF18F0952309F0A2CFA7CF1124EACF63
:102A5000C6DFA0F3959FD1F3950F50E0551F629FFD
:102A6000F001729FBB27F00DB11D639FAA27F00DE7
:102A7000B11DAA1F649F6627B00DA11D661F829F0E
:102A80002227B00DA11D621F739FB00DA11D621FF3
:102A9000839FA00D611D221F749F3327A00D611D10
:102AA000231F849F600D211D822F762F6A2F1124F2
:102AB0009F5750408AF0E1F088234AF0EE0FFF1F45
:102AC000BB1F661F771F881F91505040A9F79E3F7C
:102AD000510570F05CCFA6CF5F3FECF3983EDCF37E
:102AE000869577956795B795F795E7959F5FC1F7B9
:102AF000FE2B880F911D9695879597F90895FC01F7
:102B0000918D228D892F90E0805C9F4F821B9109CF
:102B10008F7399270895FC01918D828D981731F05C
:102B2000828DE80FF11D858D90E008958FEF9FEF66
:102B30000895FC01918D828D981761F0828DDF01DF
:102B4000A80FB11D5D968C91928D9F5F9F73928FA0
:102B500090E008958FEF9FEF0895FC01538D448D11
:102B6000252F30E0842F90E0821B930B541710F038
:102B7000CF9608950197089589E497E1892B39F05C
:102B800080E090E0892B19F084D1811122C08EED74
:102B900097E1892B39F080E090E0892B19F00ED273
:102BA00081111AC083E798E1892B39F080E090E029
:102BB000892B19F098D2811112C088E099E1892BF4
:102BC00099F080E090E0892B79F022D381110AC03E
:102BD00008950E940000DBCF0E940000E3CF0E9416
:102BE0000000EBCF0C9400000895FC01848DDF0100
:102BF000A80FB11DA35ABF4F2C91848D90E0019670
:102C00008F739927848FA689B7892C93A089B1895E
:102C10008C91837080648C93938D848D981306C0FF
:102C20000288F389E02D80818F7D80830895EF9263
:102C3000FF920F931F93CF93DF93EC0181E0888F76
:102C40009B8D8C8D981305C0E889F989808185FD5D
:102C500025C0F62E0B8D10E00F5F1F4F0F7311274D
:102C6000E02E8C8DE8120BC00FB607FCFACFE88976
:102C7000F989808185FFF5CFCE01B7DFF2CF8B8D4B
:102C8000FE01E80FF11DE35AFF4FF0829FB7F89461
:102C90000B8FEA89FB89808180620AC09FB7F89414
:102CA000EE89FF896083E889F98980818370806477
:102CB00080839FBF81E090E0DF91CF911F910F91C2
:102CC000FF90EF900895CF93DF93EC01888D8823D8
:102CD000C1F0EA89FB89808185FD05C0A889B98991
:102CE0008C9186FD0EC00FB607FCF5CF808185FF65
:102CF000F2CFA889B9898C9185FFEDCFCE0175DF20
:102D0000E8CFDF91CF910895CF92DF92EF92FF92BB
:102D10001F93CF93DF93EC016A017B01122FE889A7
:102D2000F98982E080834115514E61057105B1F04A
:102D300060E079E08DE390E0A70196010E943042C7
:102D4000DA01C9010197A109B109B695A79597952F
:102D500087959C01211580E13807A8F0E889F98959
:102D6000108260E874E88EE190E0A70196010E946D
:102D70003042DA01C9010197A109B109B695A795B9
:102D8000979587959C01EC85FD853083EE85FF85C1
:102D90002083188EEC89FD891083EA89FB89808164
:102DA00080618083EA89FB89808188608083EA89E9
:102DB000FB89808180688083EA89FB8980818F7D9F
:102DC0008083DF91CF911F91FF90EF90DF90CF90A4
:102DD000089508951F920F920FB60F9211240BB60B
:102DE0000F922F938F939F93EF93FF93E091B30FE5
:102DF000F091B40F8081E091B90FF091BA0F82FD8C
:102E000012C090818091BC0F8F5F8F732091BD0F96
:102E1000821751F0E091BC0FF0E0ED55F04F958F27
:102E20008093BC0F01C08081FF91EF919F918F91A2
:102E30002F910F900BBE0F900FBE0F901F90189503
:102E40001F920F920FB60F9211240BB60F922F9371
:102E50003F934F935F936F937F938F939F93AF9322
:102E6000BF93EF93FF9383EA9FE0BFDEFF91EF9163
:102E7000BF91AF919F918F917F916F915F914F9192
:102E80003F912F910F900BBE0F900FBE0F901F9090
:102E9000189583EA9FE033DE21E0892B09F420E0D6
:102EA000822F0895E3EAFFE01382128288EE93E016
:102EB000A0E0B0E084839583A683B78383E397E0A3
:102EC0009183808385EC90E09587848784EC90E003
:102ED0009787868780EC90E0918B808B81EC90E0E7
:102EE000938B828B82EC90E0958B848B86EC90E0C8
:102EF000978B868B118E128E138E148E08951F92CF
:102F00000F920FB60F9211240BB60F922F938F933F
:102F10009F93EF93FF93E0915010F09151108081B7
:102F2000E0915610F091571082FD12C0908180916F
:102F300059108F5F8F7320915A10821751F0E091D2
:102F40005910F0E0E05CFF4E958F8093591001C05E
:102F50008081FF91EF919F918F912F910F900BBEE8
:102F60000F900FBE0F901F9018951F920F920FB6E3
:102F70000F9211240BB60F922F933F934F935F93B1
:102F80006F937F938F939F93AF93BF93EF93FF9331
:102F900080E490E12ADEFF91EF91BF91AF919F9184
:102FA0008F917F916F915F914F913F912F910F90F2
:102FB0000BBE0F900FBE0F901F90189580E490E10C
:102FC0009EDD21E0892B09F420E0822F0895E0E4C2
:102FD000F0E11382128288EE93E0A0E0B0E08483F7
:102FE0009583A683B78383E397E0918380838DECF9
:102FF00090E0958784878CEC90E09787868788ECB3
:1030000090E0918B808B89EC90E0938B828B8AECA3
:1030100090E0958B848B8EEC90E0978B868B118E55
:10302000128E138E148E08951F920F920FB60F9268
:1030300011240BB60F922F938F939F93EF93FF93CF
:10304000E091ED10F091EE108081E091F310F0919D
:10305000F41082FD12C090818091F6108F5F8F7303
:103060002091F710821751F0E091F610F0E0E35252
:10307000FF4E958F8093F61001C08081FF91EF91F4
:103080009F918F912F910F900BBE0F900FBE0F90BD
:103090001F9018951F920F920FB60F9211240BB626
:1030A0000F922F933F934F935F936F937F938F93E1
:1030B0009F93AF93BF93EF93FF938DED90E195DDD9
:1030C000FF91EF91BF91AF919F918F917F916F9100
:1030D0005F914F913F912F910F900BBE0F900FBEBC
:1030E0000F901F9018958DED90E109DD21E0892B5F
:1030F00009F420E0822F0895EDEDF0E113821282B1
:1031000088EE93E0A0E0B0E084839583A683B78344
:1031100083E397E09183808385ED90E095878487B2
:1031200084ED90E09787868780ED90E0918B808B8F
:1031300081ED90E0938B828B82ED90E0958B848B78
:1031400086ED90E0978B868B118E128E138E148EE7
:1031500008951F920F920FB60F9211240BB60F9283
:103160002F938F939F93EF93FF93E0918A11F091A8
:103170008B118081E0919011F091911182FD12C02C
:103180009081809193118F5F8F732091941182179A
:1031900051F0E0919311F0E0E658FE4E958F809348
:1031A000931101C08081FF91EF919F918F912F9199
:1031B0000F900BBE0F900FBE0F901F9018951F928F
:1031C0000F920FB60F9211240BB60F922F933F93CD
:1031D0004F935F936F937F938F939F93AF93BF931F
:1031E000EF93FF938AE791E100DDFF91EF91BF91AB
:1031F000AF919F918F917F916F915F914F913F918F
:103200002F910F900BBE0F900FBE0F901F9018952F
:103210008AE791E174DC21E0892B09F420E0822F18
:103220000895EAE7F1E11382128288EE93E0A0E0CC
:10323000B0E084839583A683B78383E397E091838B
:10324000808385E391E09587848784E391E0978785
:10325000868780E391E0918B808B81E391E0938B73
:10326000828B82E391E0958B848B86E391E0978B50
:10327000868B118E128E138E148E0895089571D33D
:10328000FDDF0E941D08CCEBD5E10E94200B2097AA
:10329000E1F372DCFACFCF92DF92EF92FF920F93BD
:1032A0001F93CF93DF936C017A018B01C0E0D0E0D4
:1032B000CE15DF0581F0D8016D918D01D601ED911C
:1032C000FC910190F081E02DC6011995892B11F038
:1032D0002196EECF7E01C701DF91CF911F910F9113
:1032E000FF90EF90DF90CF9008956115710579F010
:1032F000FB0101900020E9F73197AF01461B570B06
:10330000DC01ED91FC910280F381E02D199480E0C5
:1033100090E00895EF92FF920F931F93CF93DF9366
:103320008C017B01C0E0D0E0F701EC0FFD1F649140
:10333000662361F0D801ED91FC910190F081E02DC0
:10334000C8011995892B11F02196EECFCE01DF919E
:10335000CF911F910F91FF90EF900895DB0114968C
:103360004D915C9115976D917C91DC01ED91FC91F3
:103370000280F381E02D1994B8CFDC01ED91FC912E
:103380000190F081E02D199461E373E0AECF0F93CB
:103390001F93CF93DF93EC01BDDF8C01CE01F4DFEF
:1033A000800F911FDF91CF911F910F9108950F937F
:1033B0001F93CF93DF93EC01D1DF8C01CE01E4DFCB
:1033C000800F911FDF91CF911F910F9108950F935F
:1033D0001F93CF93DF93EC0188DF8C01CE01D4DF04
:1033E000800F911FDF91CF911F910F9108950F933F
:1033F0001F93CF93DF93EC01C0DF8C01CE01C4DFBC
:10340000800F911FDF91CF911F910F9108958F929F
:103410009F92AF92BF92EF92FF920F931F93CF9321
:10342000DF93CDB7DEB7A1970FB6F894DEBF0FBE1E
:10343000CDBF7C01FA01CB0119A2223008F42AE0A9
:103440008E010F5D1F4F822E912CA12CB12CBF013C
:10345000A50194010E943042F901CA0101501109ED
:103460006A3010F4605D01C0695CD8016C93232B55
:10347000242B252B61F7B801C70137DFA1960FB6C2
:10348000F894DEBF0FBECDBFDF91CF911F910F919A
:10349000FF90EF90BF90AF909F908F90089521156F
:1034A000310541F4DC01ED91FC910190F081E02DBA
:1034B000642F1994ACCF9A01462F50E060E070E081
:1034C000EECF0F931F93CF93DF93EC01F4DF8C01CA
:1034D000CE015ADF800F911FDF91CF911F910F9185
:1034E00008959A01AB0160E070E0D9CFCF92DF92EE
:1034F000EF92FF920F931F93CF93DF932115310526
:1035000081F4DC01ED91FC910190F081E02D642FBC
:10351000DF91CF911F910F91FF90EF90DF90CF90AF
:1035200019942A303105F1F477FF1BC06A017B0141
:10353000EC016DE222DF8C0144275527BA014C19BA
:103540005D096E097F092AE0CE0161DF800F911FBE
:10355000DF91CF911F910F91FF90EF90DF90CF906F
:1035600008952AE0DF91CF911F910F91FF90EF9086
:10357000DF90CF904CCF9A01AB01770F660B770BA2
:10358000B5CF0F931F93CF93DF93EC01F4DF8C0142
:10359000CE01FADE800F911FDF91CF911F910F9125
:1035A00008957F928F929F92AF92BF92CF92DF92B7
:1035B000EF92FF920F931F93CF93DF938C016A01D9
:1035C0007B01722E9A01AB01C701B6010E94FD4139
:1035D000882319F061E477E025C046015701E8949B
:1035E000B7F82FEF3FEF4FE75FE7C501B4010E9447
:1035F000FD4181110CC02FEF3FEF4FE75FE7C501A1
:10360000B401C7D818161CF465E477E00BC02FEF9F
:103610003FEF4FE75FE4C701B6010ADA18168CF4F2
:1036200069E477E0C801DF91CF911F910F91FF907E
:10363000EF90DF90CF90BF90AF909F908F907F9052
:1036400054CE2FEF3FEF4FE75FECC701B601A1D893
:1036500087FDE6CF20E030E0A901C701B60199D887
:1036600087FF09C06DE2C80188DEEC01F7FAF0942B
:10367000F7F8F09402C0C0E0D0E0B12C60E070E058
:1036800080E09FE37B1439F020E030E040E251E439
:1036900084D8B394F7CFA701960117D86B017C01AA
:1036A000E9D84B015C012AE0AB01BC01C801AFDEE7
:1036B000C80FD91F772081F1C501B40107D99B013B
:1036C000AC01C701B60100D86B017C016EE2C801F4
:1036D00054DEC80FD91F20E030E040E251E4C701BA
:1036E000B601AAD94B015C01C5D86B017C014AE047
:1036F00050E0C801F6DEC80FD91FB60180E090E0A7
:10370000E5D89B01AC01C501B4010E9464136B01B3
:103710007C017A947110DFCFCE01DF91CF911F91A0
:103720000F91FF90EF90DF90CF90BF90AF909F9060
:103730008F907F90089535CF0F931F93CF93DF9392
:10374000EC012FDF8C01CE011FDE800F911FDF9176
:10375000CF911F910F9108950F931F93CF93DF93F4
:10376000EC0189D0688779878A879B87E881F9810E
:103770000284F385E02DCE01199597FF16C07BD00A
:10378000088519852A853B85DC01CB01801B910BBF
:10379000A20BB30B0C811D812E813F8180179107F5
:1037A000A207B30718F38FEF9FEFDF91CF911F911F
:1037B0000F9108950F931F93CF93DF93EC018B012B
:1037C00063E373E0ABD2C801C7DF97FD04C0682F85
:1037D000CE01E5D2F8CFCE01DF91CF911F910F91AD
:1037E00008951F920F920FB60F9211242F933F93BB
:1037F0008F939F93AF93BF9380911812909119125A
:10380000A0911A12B0911B123091171223E0230FCE
:103810002D3720F40196A11DB11D05C026E8230F08
:103820000296A11DB11D2093171280931812909338
:103830001912A0931A12B0931B1280911C1290912E
:103840001D12A0911E12B0911F120196A11DB11D53
:1038500080931C1290931D12A0931E12B0931F12FE
:10386000BF91AF919F918F913F912F910F900FBE7C
:103870000F901F9018952FB7F894609118127091BF
:10388000191280911A1290911B122FBF08953FB701
:10389000F89480911C1290911D12A0911E12B0916B
:1038A0001F1226B5A89B05C02F3F19F00196A11D38
:1038B000B11D3FBFBA2FA92F982F8827820F911DC6
:1038C000A11DB11DBC01CD0142E0660F771F881F0D
:1038D000991F4A95D1F708958F929F92AF92BF9208
:1038E000CF92DF92EF92FF926B017C01D0DF4B0110
:1038F0005C01C114D104E104F104F9F00E94F0313B
:10390000C6DFDC01CB0188199909AA09BB09883EE9
:103910009340A105B10568F321E0C21AD108E1087E
:10392000F10888EE880E83E0981EA11CB11CC1141A
:10393000D104E104F10421F7DCCFFF90EF90DF9098
:10394000CF90BF90AF909F908F9008958230910557
:1039500038F0880F991F880F991F05970197F1F785
:103960000895789484B5826084BD84B5816084BDF7
:1039700085B5826085BD85B5816085BDEEE6F0E0E8
:10398000808181608083E1E8F0E010828081826044
:103990008083808181608083E0E8F0E080818160C5
:1039A0008083E1EBF0E0808184608083E0EBF0E0F5
:1039B000808181608083E1E9F0E0808182608083A2
:1039C000808181608083E0E9F0E080818160808394
:1039D000E1EAF0E080818260808380818160808381
:1039E000E0EAF0E0808181608083E1E2F1E08081C3
:1039F00082608083808181608083E0E2F1E0808169
:103A000081608083EAE7F0E0808184608083808148
:103A100082608083808181608083808180688083F0
:103A20001092C1000895863308F0865390917B0070
:103A3000282F2870977F922B90937B002091100263
:103A400090E4299F900111248770822B80937C0041
:103A500080917A00806480937A0080917A0086FD5C
:103A6000FCCF809178002091790090E0922B08950E
:103A700090E0FC013197E231F10508F04EC0882753
:103A8000E458FF4F8F4F0C946E42809180008F77E7
:103A900003C0809180008F7D809380000895809185
:103AA0008000877FF9CF84B58F7702C084B58F7D82
:103AB00084BD08958091B0008F7703C08091B000DD
:103AC0008F7D8093B0000895809190008F7707C01C
:103AD000809190008F7D03C080919000877F8093BC
:103AE000900008958091A0008F7707C08091A0007A
:103AF0008F7D03C08091A000877F8093A0000895F0
:103B0000809120018F7707C0809120018F7D03C0B5
:103B100080912001877F809320010895CF93DF93C8
:103B200090E0FC01EB50FE4F2491FC01E55CFD4F61
:103B30008491882361F190E0880F991FFC01EB5478
:103B4000FD4FC591D491FC01E556FD4FA591B4916F
:103B5000611109C09FB7F8948881209582238883DA
:103B6000EC912E230BC0623061F49FB7F8948881EA
:103B7000322F309583238883EC912E2B2C939FBF7B
:103B800006C08FB7F894E8812E2B28838FBFDF9172
:103B9000CF9108951F93CF93DF93282F30E0F90141
:103BA000E155FE4F8491F901EB50FE4FD491F9019C
:103BB000E55CFD4FC491CC23B9F0162F811158DF7D
:103BC000EC2FF0E0EE0FFF1FE556FD4FA591B491ED
:103BD0009FB7F894111104C08C91D095D82302C0DE
:103BE000EC91DE2BDC939FBFDF91CF911F91089565
:103BF000CF93DF93282F30E0F901E155FE4F8491F8
:103C0000F901EB50FE4FD491F901E55CFD4FC491F1
:103C1000CC2389F081112CDFEC2FF0E0EE0FFF1F99
:103C2000EF57FD4FA591B491EC91ED2381E090E029
:103C300021F480E002C080E090E0DF91CF91089510
:103C4000FC0180819181009711F00C944743089505
:103C5000CF93DF93EC0188819981009711F00E9446
:103C60004743198218821D821C821B821A82DF91AF
:103C7000CF9108950F931F93CF93DF93EC018B01A6
:103C80006F5F7F4F888199810E94D043009731F008
:103C9000998388831B830A8381E001C080E0DF91E0
:103CA000CF911F910F910895CF93DF93EC018881FD
:103CB0009981892B29F08A819B818617970758F46F
:103CC000CE01D8DF882341F08C819D81892B19F4A6
:103CD000E881F981108281E0DF91CF910895EF9220
:103CE000FF920F931F93CF93DF93EC017B018A0127
:103CF000BA01DADF811103C0CE01AADF07C01D833C
:103D00000C83B701888199810E945F45CE01DF91C4
:103D1000CF911F910F91FF90EF900895FC011182B8
:103D2000108213821282158214826115710549F086
:103D3000FB0101900020E9F73197AF01461B570BBB
:103D4000CECF0895EF92FF920F931F93CF93DF93FF
:103D50006115710511F480E01BC041155105B9F0E2
:103D60007B01EC018C819D818A01080F191FB8012C
:103D7000CE019ADF882379F3288139818C819D8156
:103D8000B701820F931F0E945F451D830C8381E062
:103D9000DF91CF911F910F91FF90EF900895CF93F6
:103DA000DF931F921F92CDB7DEB769831A8241E07D
:103DB00050E0BE016F5F7F4FC5DF0F900F90DF9126
:103DC000CF910895FC0180819181009711F00C94AE
:103DD000D54460E070E0CB010895EF92FF920F931D
:103DE0001F93CF93DF93C62F7A01022FFC016081CE
:103DF0008DE293E10E94DD2C6C2F8DE293E10E9415
:103E00008C2CE70110E0CE018E199F0980179107D5
:103E100034F469918DE293E10E948C2CF4CF8DE211
:103E200093E1DF91CF911F910F91FF90EF900C9450
:103E3000612DCF93DF931F92CDB7DEB7498321E089
:103E4000AE014F5F5F4FC9DF0F90DF91CF910895B3
:103E5000FC0124812E7F248321FB442740F950E07C
:103E6000440F551F63E0E5CFCF93DF93EC016883E8
:103E70008DE293E10E94CB2C198240E060E0CE01FC
:103E8000D8DF8FE38A834FE361E0CE01D2DFCE013A
:103E9000DFDF8B818E7F8B8340E062E0CE01C9DF64
:103EA00064E670E080E090E017DD81E0DF91CF9183
:103EB00008956F927F928F929F92AF92BF92CF920E
:103EC000DF92EF92FF920F931F93CF93DF938C01BA
:103ED000662E6A01722EC0E0C715A0F5D72DDC1B37
:103EE000D13208F0D0E2F80160818DE293E10E94C6
:103EF000DD2C6C2F660D8DE293E10E948C2C8DE2FF
:103F000093E10E94612D4D2FF80160818DE293E1D4
:103F10000E945C2D812C912CAD2EB12C8C2F880D04
:103F20008A149B0414F0CD0FD7CF7601E80EF11C54
:103F30008DE293E10E94052CF7018083FFEF8F1A39
:103F40009F0AECCFDF91CF911F910F91FF90EF90DF
:103F5000DF90CF90BF90AF909F908F907F906F90A9
:103F600008958F929F92AF92BF92CF92DF92EF927D
:103F7000FF920F931F93CF93DF93CDB7DEB7F62E4B
:103F8000172F042F8DB69EB6242F220F46FD20E852
:103F90004DB75EB7421B51090FB6F8945EBF0FBE16
:103FA0004DBFEDB7FEB731965F01AF0160E881DF2D
:103FB000CF2CD12EE12CF12C10E0E016F1065CF5AF
:103FC0008E2D880FF501E80FF11D618170E0762FCD
:103FD00066278081682B94E0660F771F9A95E1F73A
:103FE00024E0759567952A95E1F7072E000C880B5C
:103FF000990B0E94681420E030E040E85EE30E94E4
:104000001C15F60161937193819391936F01FFEFFA
:10401000EF1AFF0AD2CF0FB6F8949EBE0FBE8DBE28
:10402000DF91CF911F910F91FF90EF90DF90CF9094
:10403000BF90AF909F908F9008950F93FC0180E008
:1040400092E1AAE7B0E030E0481759076A077B071A
:1040500040F4B695A795979587953F5F3630A1F7C1
:1040600037E091E09327222311F020E501C020E7FB
:104070000C70892F8695082B022B008391709183F9
:104080000F91089520912A13222399F04FB7F894A5
:1040900020912A13213059F42DB3209328133DB3D6
:1040A00020912913209523232DBB4FBF02C040939D
:1040B00028138CBD9DBD089580912A13882361F03B
:1040C0009FB7F89420912A1380912813213019F476
:1040D0008DBB9FBF08958FBF0895DF92EF92FF922F
:1040E0000F931F93CF93DF93EC01FC01EA54FF4F32
:1040F00080819181009739F4FE01E854FF4F80815F
:104100009181009771F0DC01ED91FC910190F081BB
:10411000E02DDF91CF911F910F91FF90EF90DF90F5
:104120001994D62E7E01BAEBEB0EF11CF7018081BB
:104130009181009741F4FE01E454FF4F8081918109
:10414000892B09F514C0FE01EB5DFE4F60810E94D2
:10415000DD2CD7018D919C91DC01ED91FC910190BA
:10416000F081E02D6D2D19958C01019719F000E07B
:1041700010E024C061E0F701808191810E94E82C69
:104180008111D9CF1BC0FE01E154FF4F8081918185
:1041900079DFC254DF4F888187FD02C060E0FADC1E
:1041A000DEBC00000DB407FEFDCF8EB5888187FD13
:1041B00002C061E0EFDC80DF01E010E0C801DF91C8
:1041C000CF911F910F91FF90EF90DF900895CF92C4
:1041D000DF92EF92FF920F931F93CF93DF937B01B8
:1041E0008A016A018EE2C81A88EFD80AF801C191E3
:1041F000D1918F0142E050E066E577E0CE010E9468
:104200006645892B91F00C151D0579F0FE01019092
:104210000020E9F73197AF014C1B5D0BB701CE01D0
:104220000E946645892B11F702C0C0E0D0E0CE01A4
:10423000DF91CF911F910F91FF90EF90DF90CF9082
:1042400008958F929F92AF92BF92CF92DF92EF929A
:10425000FF920F931F93CF93DF93EC018B01CB0160
:104260000E94D5444B015C0120E137E240E050E080
:104270000E9430422CAB24E6C22ED12CE12CF12C32
:10428000A70196010E9430422DABC501B401A701E0
:1042900096010E9430426EAB6EE270E0C8010E944F
:1042A0004B4501960E94B84498AF8FABFE01EB5589
:1042B000FF4FCF54DF4F88819981AA81BB818083D2
:1042C0009183A283B383DF91CF911F910F91FF90D0
:1042D000EF90DF90CF90BF90AF909F908F90089518
:1042E0004F925F926F927F928F929F92AF92BF9206
:1042F000EF92FF920F931F93CF93DF93CDB7DEB76B
:104300002A970FB6F894DEBF0FBECDBFFB01208108
:104310002C3209F4A6C08B017C0142E050E0CE01B2
:1043200001960E9474451B82CE0101960E94D544DD
:104330009B01AC0160E876E988E990E00E940242C6
:104340002B013C01B8016E5F7F4F42E050E0CE018F
:1043500001960E947445B8016B5F7F4F44E050E0C6
:10436000CE0103960E9474451F82CE0101960E94E1
:10437000D5449B01AC01A2E3B0E00E94914223E04E
:1043800030E040E050E00E94524249015A01F701FA
:10439000EC5BFF4FD301C201820F931FA41FB51F17
:1043A00080839183A283B383C301B20120EA36E8FC
:1043B00041E050E00E945242CA01B9010E946814D3
:1043C0002B013C01C501B4010E9468142CE933E5BE
:1043D00049EC56E30E941C159B01AC01C301B201DC
:1043E0000E9465132B013C01F70164AF75AF86AFE6
:1043F00097AF20E030E048EC52E40E94CD130E94D9
:1044000035144B015C01FCE4EF0EF11C84E6889D41
:10441000B001899D700D1124072E000C880B990B9B
:104420000E9468149B01AC01C301B2010E94641395
:1044300020E030E040E752E40E94CD132B013C0124
:10444000B401990C880B990B0E9468149B01AC0174
:10445000C301B2010E946513F701608371838283F7
:1044600093832A960FB6F894DEBF0FBECDBFDF91BF
:10447000CF911F910F91FF90EF90BF90AF909F90C1
:104480008F907F906F905F904F900895FB012081F7
:104490002335F9F4FC01EC58FF4F2083B897408195
:1044A0005181628173817058408351836283738329
:1044B00038974081518162817381709560955095E4
:1044C00041955F4F6F4F7F4F40835183628373836A
:1044D00006C02E3431F4FC01EC58FF4F208381E0FC
:1044E00008952C3229F4FC01EC58FF4F1082F7CFCD
:1044F00080E008954F925F926F927F928F929F9289
:10450000AF92BF92EF92FF920F931F93CF93DF93DF
:10451000CDB7DEB72A970FB6F894DEBF0FBECDBF7A
:10452000FB0120812C3209F4A8C08B017C0143E0FF
:1045300050E0CE0101960E9474451C82CE01019686
:104540000E94D5449B01AC0160E876E988E990E0DF
:104550000E9402422B013C01B8016D5F7F4F42E097
:1045600050E0CE0101960E947445B8016A5F7F4F0A
:1045700044E050E0CE0103960E9474451F82CE01B4
:1045800001960E94D5449B01AC01A2E3B0E00E94D9
:10459000914223E030E040E050E00E945242490165
:1045A0005A01F701E85BFF4FD301C201820F931F4D
:1045B000A41FB51F80839183A283B383C301B2017B
:1045C00020EA36E841E050E00E945242CA01B901B7
:1045D0000E9468142B013C01C501B4010E946814BB
:1045E0002CE933E549EC56E30E941C159B01AC0114
:1045F000C301B2010E9465132B013C01F701E05C8D
:10460000FF4F608371838283938320E030E048EC26
:1046100052E40E94CD130E9435144B015C01F0E579
:10462000EF0EF11C84E6889DB001899D700D112468
:10463000072E000C880B990B0E9468149B01AC019B
:10464000C301B2010E94641320E030E040E752E46D
:104650000E94CD132B013C01B401990C880B990BDE
:104660000E9468149B01AC01C301B2010E94651352
:10467000F70160837183828393832A960FB6F8943F
:10468000DEBF0FBECDBFDF91CF911F910F91FF9085
:10469000EF90BF90AF909F908F907F906F905F90C2
:1046A0004F900895FB0120812C3239F12735F9F420
:1046B000FC01EB58FF4F2083B59740815181628107
:1046C000738170584083518362837383389740812C
:1046D00051816281738170956095509541955F4FCE
:1046E0006F4F7F4F408351836283738306C02534AD
:1046F00031F4FC01EB58FF4F208381E0089580E006
:104700000895FB012081213499F4FC01E958FF4F01
:1047100021E02083BA96DC01AF54BF4F8D919D916B
:104720000D90BC91A02D80839183A283B38306C09A
:10473000263531F4FC01E958FF4F108281E00895DD
:1047400080E008952F923F924F925F927F928F92D6
:104750009F92AF92BF92CF92DF92EF92FF920F9310
:104760001F93CF93DF93EC0186D81B012C01FE0130
:10477000EB54FF4F8081882311F0712C64C18E01AE
:104780000A541F4FD8018D919C910097A9F0DC012C
:10479000ED91FC910084F185E02D1995892B69F349
:1047A000F80180819181DC01ED91FC910284F38517
:1047B000E02D1995782E01C0712C8E0108541F4FE1
:1047C000F801808191810097A9F0DC01ED91FC91C5
:1047D0000084F185E02D1995892B09F434C1F80185
:1047E00080819181DC01ED91FC910284F385E02DC3
:1047F0001995782E5E01BAEBAB0EB11CD501ED9187
:10480000FC91309709F462C07E01B9EBEB1ABEEF60
:10481000FB0AD7019C918E010A5B1E4FD8018C9137
:10482000891764F0FE01E90FF11D97FDFA95EA5D25
:10483000FE4F70809F5FF701908348C021E030E019
:1048400040E250E060E170E0CF010E94602D8032D4
:1048500009F0F9C0D8011C9280E2C82ED12CFE01CB
:10486000E85BFE4F4F01D5018D919C91DC01ED91EC
:10487000FC910284F385E02D19958A3021F4F4012E
:1048800090819D3079F4D4018C93F8019081FE01E0
:10489000E90FF11D97FDFA95EA5DFE4F80839F5F5A
:1048A000D8019C93B1E0CB1AD108E9F6F8018081D8
:1048B00081508083811107C0CA5DDE4F88818A30B4
:1048C00011F48FEF8083D7011C92BDC0FE01E45428
:1048D000FF4F80819181892B09F43EC05E01BFEBBF
:1048E000AB0EB11C8E0102541F4F99249A946E0195
:1048F000E8EBCE1AEEEFDE0AD5018D919C91C2DB7A
:10490000F801808187FD02C060E044D99EBC0000B0
:104910000DB407FEFDCF7EB4D8018C9187FD02C097
:1049200061E038D9C9DBBAE07B1204C0F6018081AE
:104930008D3011F7E72CF12CC7010E94FD44892B23
:1049400029F0FE01E85BFE4F708206C0C7010E949D
:104950000345892B89F2F5CF8E01065C1D4FD801E6
:104960008D919C91FE01E75CFD4F208131E0320F7B
:104970003083820F911DDC017C928081883710F09A
:1049800087E78083BAE07B124AC02081D8018D91ED
:104990009C91820F911DDC011C92D8016D917C913C
:1049A0001197AE01475B5E4F9E012F533E4FCE01E4
:1049B000845C9D4F6417750731F42D933C93DC01A3
:1049C0006D937C9306C0D8014D935C93DC012D93CD
:1049D0003C931082FE01E25CFD4F81E080830E94E7
:1049E0003B1CFE01E355FF4F6083718382839383F9
:1049F000CF54DF4F8091201290912112A09122126A
:104A0000B091231288839983AA83BB8310922012CA
:104A100010922112109222121092231214C080912F
:104A2000201290912112A0912212B0912312892B71
:104A30008A2B8B2B41F4209220123092211240922B
:104A4000221250922312872DDF91CF911F910F9147
:104A5000FF90EF90DF90CF90BF90AF909F908F909E
:104A60007F905F904F903F902F900895FC01DC0164
:104A7000AA54BF4F11961C921E92129611961C9228
:104A80001E92129611961C921E92129611961C92CC
:104A90001E92AE57BE4F1C92A958B1401C92AC5703
:104AA000BE4F1C921196875B9E4F11969C938E93DE
:104AB000129688589F4F11969C938E93A25CB1409A
:104AC0001C9211971C9211971C9213AE12AE11AE4C
:104AD00016AA15AA14AA12971C9211971C92119744
:104AE0001C9213961C9210AE17AA17971D921D9236
:104AF0001D921C92139714971D921D921D921C9249
:104B0000139714971D921D921D921C921397149740
:104B10001D921D921D921C92139714971D921D9227
:104B20001D921C92139714971D921D921D921C9218
:104B3000139714971D921D921D921C921397149710
:104B40001D921D921D921C92139754971D921D92B7
:104B50001D921C92139714AE15AE16AE17AE0895A3
:104B6000EF92FF920F931F93CF93DF93EC017B01A2
:104B70001B821A828AED97E0998388831D821C82AA
:104B80001E821F82188684E1FE013996DF01982F6C
:104B90001D929A95E9F71D8E1E8E1F8E7796DF0166
:104BA0001D928A95E9F7DE01A957BF4F8AE0E1E43B
:104BB000F2E001900D928A95E1F7DE01AF56BF4F0A
:104BC0008AE0EBE4F2E001900D928A95E1F7FE01B4
:104BD000E556FF4F85E597E091838083329680E02C
:104BE00094E9A5E3B7E780839183A283B3833496E6
:104BF00080839183A283B383349680839183A2833D
:104C0000B383349680839183A283B3833496808365
:104C10009183A283B383349680839183A283B383E9
:104C20003D961FEF108300E021E040E452E46FE086
:104C300070E0CE0181549F4F00DAFE01EA5BFE4F27
:104C400010833196108231961082EF50FF4F108200
:104C5000CE010CDFC854DF4FF982E882DF91CF919B
:104C60001F910F91FF90EF900895825C9D4FFC0182
:104C700080810895FC01E25CFD4F108232978081B3
:104C800091810895603358F06A3310F480ED05C0C7
:104C90008FEB860F863018F489EC860F089580E03C
:104CA0000895CF92DF92EF92FF920F931F93CF93CD
:104CB000DF93EC011D821C82FB0180818432C1F4F0
:104CC00081E090E09D838C83CB017C010196F7010C
:104CD00020812111FACFF70180818A3259F06E15B7
:104CE0007F0530F4F1E0EF1AF108F5CF892BE1F000
:104CF00080E05EC08B01F7016181CE01C3DFF0E18E
:104D00008F9F60011124F7016281CE01BBDF960104
:104D1000280F311DC9010F5F1F4FF801EE15FF0568
:104D200028F721918227FACF83E090E09D838C833E
:104D3000AE0149575F4FB801CE0149DA7C010097B7
:104D4000B9F2BC01CE0106960E945F458DE090E06D
:104D50009D838C83F70101900020E9F73197EE19CC
:104D6000FF090E0F1F1FAE014F565F4FB801CE0156
:104D70002EDA009751F0BC01CE0109960E945F45E2
:104D800089E490E09D838C8312C0AE0145565F4F4D
:104D9000B801CE011CDA009751F0BC01CE01099692
:104DA0000E945F4581E290E09D838C83A1CF81E0EA
:104DB000DF91CF911F910F91FF90EF90DF90CF90F7
:104DC00008954F925F926F927F928F929F92AF92CF
:104DD000BF92DF92EF92FF920F931F93CF93DF93D7
:104DE000EC018B015EDFD82E811102C0D12C35C2BF
:104DF0006CE270E0C8010E944B458C010F5F1F4FB1
:104E00007E0189E0E80EF11C65E677E0C7010E94AB
:104E10005645892B09F0ADC0B801CE0112DA6CE21B
:104E200070E0C8010E944B458C010F5F1F4FB80115
:104E3000CE0156DA6CE270E0C8010E944B458C014D
:104E40000F5F1F4FB801CE0121DB882379F26CE29E
:104E500070E0C8010E944B458C010F5F1F4FB801E5
:104E6000CE0148DB6CE270E0C8010E944B458C012A
:104E70000F5F1F4FB801CE0115DC882309F4B6CFB0
:104E80006CE270E0C8010E944B458C010F5F1F4F20
:104E9000FC0181818C32C1F0C8010E94B844FE013E
:104EA000E858FF4F80833197882369F081E0808341
:104EB000FA9680819181A281B381709780839183DA
:104EC000A283B38301C010826CE270E0C8010E942B
:104ED0004B458C010F5F1F4FFC0181818C3239F0F3
:104EE000C8010E94B844FE01E658FF4F80836CE27F
:104EF00070E0C8010E944B458C010F5F1F4FFC0101
:104F000081818C3251F0C8010E94B544FE01E859FC
:104F1000FF4F60837183828393836CE270E0C801EA
:104F20000E944B458C010F5F1F4FFC0181818C3229
:104F300051F0C8010E94B544FE01E85AFF4F60835A
:104F40007183828393836CE270E0C8010E944B45B9
:104F50006CE270E001960E944B45FC0121812C32ED
:104F600009F467C101960E94B544FE01EC5AFF4F57
:104F70005CC161E777E0C7010E945645892B09F0C3
:104F8000A5C0B801CE015DD96CE270E0C8010E94F5
:104F90004B458C010F5F1F4FB801CE01B2DB882358
:104FA00009F424CF6CE270E0C8010E944B458C01EB
:104FB0000F5F1F4FB801CE0193D96CE270E0C801BA
:104FC0000E944B458C010F5F1F4FB801CE015EDA86
:104FD000882309F40BCF6CE270E0C8010E944B45B6
:104FE0008C010F5F1F4FB801CE0184DA6CE270E0D4
:104FF000C8010E944B458C010F5F1F4FB801CE01C5
:1050000051DB882309F4F2CE6CE270E0C8010E9403
:105010004B458C010F5F1F4FFC0181818C3251F099
:10502000C8010E94B544FE01E45AFF4F60837183BA
:10503000828393836CE270E0C8010E944B458C012F
:105040000F5F1F4FFC0181818C3251F0C8010E941B
:10505000B544FE01E05AFF4F6083718382839383DE
:105060006CE270E0C8010E944B45FC0121812C32AA
:1050700009F4DFC001960E94B5440E943A142B0146
:105080003C0120E137E240E050E00E9430422BAF8B
:1050900024E6822E912CA12CB12CA50194010E9412
:1050A00030422AAFC301B201A50194010E943042EF
:1050B00069AFFE01EF54FF4F80819181A281B381DE
:1050C000389780839183A283B383B3C069E677E086
:1050D000C7010E945645892B09F042C0B801CE0194
:1050E000FFD86CE270E0C8010E944B458C010F5F55
:1050F0001F4FB801CE01CAD9882309F477CE6CE2DC
:1051000070E0C8010E944B458C010F5F1F4FB80132
:10511000CE01F0D96CE270E0C8010E944B458C01D1
:105120000F5F1F4FB801CE01BDDA882309F45ECEB0
:105130006CE270E0C8010E944B458C010F5F1F4F6D
:10514000B801CE017ED86CE270E0C8010E944B45E8
:10515000BC016F5F7F4FCE01D4DA81116AC046CEA9
:105160006DE677E0C7010E945645892B09F03ECED7
:105170006CE270E0C8010E944B458C010F5F1F4F2D
:10518000FC0181818C3239F0C8010E94B844FE01D3
:10519000E758FF4F80838CE0A82EB12C6CE270E0C2
:1051A000C8010E944B458C010F5F1F4FF1E0AF1A01
:1051B000B108A1F76CE270E0C8010E944B458C0178
:1051C0000F5F1F4FFC0181818C3251F0C8010E949A
:1051D000B544FE01E059FF4F60837183828393835E
:1051E0006CE270E0C8010E944B458C010F5F1F4FBD
:1051F000FC0181818C3251F0C8010E94B544FE014E
:10520000E859FF4F60837183828393836CE270E07F
:10521000C8010E944B45FC0121812C3251F00196BE
:105220000E94B544FE01E459FF4F6083718382837D
:105230009383BE016A5F7F4FCE014D960E945F450A
:10524000B701CE0180960E945F450E943B1CC35669
:10525000DF4F688379838A839B838D2DDF91CF9184
:105260001F910F91FF90EF90DF90BF90AF909F90B4
:105270008F907F906F905F904F900895CF93DF93C2
:105280001F92CDB7DEB7FC0119826370668BDC011B
:10529000AA5BBF4F8C91982F9B7FAF014C5B5F4FF8
:1052A000913029F4623008F493E0DA019C939F0175
:1052B0002D5B3F4F6230D9F0633009F43FC061305D
:1052C00071F0823011F0843029F490EC99838130B0
:1052D00019F415C098EC10C08430B1F01CC08230B5
:1052E00011F0843011F490EA2EC098EA35C0823073
:1052F00091F0843049F098E09983813061F480E83E
:1053000090E0938782870DC080EA90E09387828740
:1053100080E590E006C080EA90E09387828780E88D
:1053200090E091878087D9018C9190E092AF81AF16
:10533000DA018C9190E094AF83AF2DC0823011F0F0
:10534000843049F490E69983813051F480E890E00C
:105350009187808714C098E69983813051F4F6CF05
:10536000843039F480EA90E09187808780E590E08E
:1053700006C080EA90E09187808780E890E093877C
:105380008287D9018C9190E094AF83AFDA018C9140
:1053900090E092AF81AF21E0AE014F5F5F4F66E3D7
:1053A000CF010E948D3B0F90DF91CF910895EF9236
:1053B0000F93CF93DF93EC01E22E042F262F40EAC8
:1053C00050E060E870E0B7D086EE97E0998388837C
:1053D000DF91CF910F91EF9008954115510561052F
:1053E000710521F440E058E468EE71E0FC01FF969D
:1053F000408351836283738321E2FC0125AF20E265
:1054000026AFEB5BFF4F20810C94B8398F929F92AF
:10541000AF92BF92CF92DF92EF92FF920F931F93C2
:10542000CF93DF93EC0189AD9AAD4B01880E991EA5
:105430008BAD9CAD480F591FC9010197880D991D6F
:10544000A0E0B0E0A12CB12C540199248824882A32
:10545000992AAA2ABB2A015011096801C40ED51E37
:10546000860120E030E06A01E12CF12C7601DD2498
:10547000CC24C02AD12AE22AF32A6AE2CE010E9471
:10548000273BB501A401CE010E94623C6BE2CE0134
:105490000E94273BB701A601CE010E94623C6CE24C
:1054A000CE01DF91CF911F910F91FF90EF90DF9090
:1054B000CF90BF90AF909F908F900C94273BCF934D
:1054C000DF931F92CDB7DEB7FC0119826370668B44
:1054D0008D5B9F4FAF014C5B5F4F623049F0633093
:1054E00091F0613019F020EC298302C020EA0CC051
:1054F000DC018C9190E092AF81AFDA018C9190E069
:1055000094AF83AF0CC020E62983DC018C9190E03E
:1055100094AF83AFDA018C9190E092AF81AF21E03C
:10552000AE014F5F5F4F66E3CF010E948D3B0F904E
:10553000DF91CF910895EF920F93CF93DF93EC011A
:105540000E94AB3986E198E099838883FE01ED5B88
:10555000FF4F108231961082CB5BDF4F1882DF91B4
:10556000CF910F91EF900895AF92BF92CF92DF92BB
:10557000EF92FF920F931F93CF93DF93EC01E62EF0
:10558000A72EF42EB52E69018FEF9FEF9D838C839C
:105590009F838E8361E08E2D0E948E1D60E08F2D93
:1055A0000E948E1DE882A982FA82BB82DD82CC82B3
:1055B0001F830E83DF91CF911F910F91FF90EF908A
:1055C000DF90CF90BF90AF900895CF92DF92EF928F
:1055D000FF92CF93DF93EC0160E088810E94CA1DA7
:1055E00085E090E00E94A61C61E088810E94CA1DAF
:1055F0008AE090E00E94A61C60E088810E94CA1D9B
:105600008A810E94F81D892BD9F30E94471C6B01E7
:105610007C018A810E94F81D0197D9F30E94471CE2
:10562000CB018C199D09DF91CF91FF90EF90DF9016
:10563000CF900895CF93DF93EC01C7DF97FD0196DC
:10564000BC0175956795072E000C880B990B0E947D
:10565000681427EE3BEF49EA5EE30E941C150E94A6
:1056600035149B014C815D814F3FAFEF5A0721F408
:10567000EE81FF81319659F0421753072CF44E8189
:105680005F81241735071CF08FEF9FEF01C0CB011E
:10569000DF91CF9108951F920F920FB60F921124B0
:1056A0000BB60F922F933F934F935F936F937F931C
:1056B0008F939F93AF93BF93EF93FF93E091261344
:1056C000F0912713309709F44FC0968DA685B785C2
:1056D000858591FF04C09C91892329F445C09C9144
:1056E000892309F041C0A389B4899C91858980955B
:1056F00089238C93868997890197F1F7608D718D45
:10570000A685B785558538E020E0CB010197F1F7F4
:10571000822F90E095958795282F4C91452309F08D
:105720002068315091F7868D81FD2095809125125A
:1057300090E0019630912412381749F0A09125127B
:10574000B0E0AA5DBD4E2C938093251203C0868DD8
:105750008160868F828D938D0197F1F7A389B4893B
:105760009C918589892B8C93FF91EF91BF91AF918B
:105770009F918F917F916F915F914F913F912F9169
:105780000F900BBE0F900FBE0F901F901895CF93E8
:10579000CFB7F89480912B13811127C0E0E7F2E096
:1057A0008491EAE2F2E09491E82FF0E0EE0FFF1F1F
:1057B000EB54FD4FA591B491EC91E92321F461E004
:1057C00085E30E94CA1D61E085E30E948E1D8CB5B1
:1057D00080618CBD8CB580648CBD61E084E30E94E7
:1057E0008E1D61E083E30E948E1D80912B138F5FDD
:1057F00080932B13CFBFCF9108958091611390E0D8
:1058000020916213821B91090895909162138091F7
:105810006113981750F4E92FF0E0ED59FC4E208108
:1058200030E09F5F9093621302C02FEF3FEFC901FA
:105830000895E091621380916113E81730F4F0E06D
:10584000ED59FC4E808190E008958FEF9FEF089511
:105850000895CF93DF93EC01E0913913F0913A135F
:105860003097F1F090916213809161139817C0F016
:1058700090E0292F30E02617370754F4DE01A20FFD
:10588000B31F4C91D901AD59BC4E4C939F5FF1CFE2
:105890001092621360936113CB01DF91CF91199441
:1058A000DF91CF910895E0913B13F0913C13309735
:1058B00029F010923F1310923E1319940895CF923D
:1058C000DF92EF92FF920F931F93CF93DF937C01B0
:1058D000CB018A0120913D13222389F0EB016B015A
:1058E000C40ED51ECC15DD0569F06991D701ED9187
:1058F000FC910190F081E02DC7011995F3CF642F41
:105900000E948D40C801DF91CF911F910F91FF90B0
:10591000EF90DF90CF900895CF93DF931F92CDB794
:10592000DEB7698320913D132223D1F020913E13ED
:10593000203240F021E030E0FC013383228380E01C
:1059400090E015C080913F13E82FF0E0E05CFC4E42
:10595000998190838F5F80933F1380933E1305C09E
:1059600061E0CE0101960E948D4081E090E00F90B1
:10597000DF91CF910895FC011382128288EE93E0AB
:10598000A0E0B0E084839583A683B78386E498E0A3
:105990009183808308951092621310926113109284
:1059A0003F1310923E130E94D13F83E59CE20E9478
:1059B000BA4089E29CE20C94B54081E080933D13AB
:1059C0006093601310923F1310923E130895F5CF29
:1059D0000F93062F21E040913E1360E473E1809124
:1059E00060130E94374010923F1310923E131092A2
:1059F0003D130F9108954F925F926F927F92AF92F5
:105A0000BF92CF92EF92FF920F931F93CF93DF93AA
:105A10005C01F62ED42F28013901EE2011F1CDDFE3
:105A2000CE2DC43008F0C3E0C150C0F028E0C29FC2
:105A3000C0011124A301920104C0569547953795E2
:105A400027958A95D2F7CA01B901D501ED91FC914C
:105A50000190F081E02DC5011995E6CF60E0C50108
:105A6000B7DF4D2FD13208F040E22C2D63E673E111
:105A70008F2D0E94EF3F1092621380936113DF918C
:105A8000CF911F910F91FF90EF90CF90BF90AF906B
:105A90007F906F905F904F900895CF92EF920F9309
:105AA0001F93C22EE12C00E010E09801A4DF1F91AB
:105AB0000F91EF90CF90089521E0EFCF21E0EDCF4F
:105AC000ECCF61E085CF8DE293E155CF885E9E4FAC
:105AD000DC018D919C91DC01ED91FC910084F185BC
