:10000000A2C400000C94A12C0C94CC2C0C94F72CC2
:100010000C94222D0C944D2D0C94782D0C94A32D22
:100020000C94CE2D0C947B240C947B240C947B2478
:10003000BBC40000B9C40000B7C40000B5C40000D0
:10004000B3C40000B1C40000AFC40000ADC40000E0
:10005000ABC40000A9C40000A7C400000C94211583
:10006000A3C400000C94FA100C9430119DC400003D
:100070009BC4000099C4000097C4000095C4000010
:1000800093C4000091C400008FC400008DC4000020
:100090000C948F110C94C51187C400000C947E3B06
:1000A00083C4000081C400007FC400007DC4000040
:1000B0007BC4000079C4000077C4000075C4000050
:1000C00073C4000071C400006FC400000C942412BB
:1000D0000C945A1269C400000C94B9120C94EF12DB
:1000E00063C40000310AB90A050B3F0C3F0C270B13
:1000F000790BB80BDA0B1A0C83168616751679165F
:100100007F16BD168A168E16941698169C16A21681
:10011000A616AA16BD16B016B416B8166364696E94
:100120006F70737578585B004E414E494E49545973
:10013000494E46CDCCCC3D0AD7233C17B7D13877B2
:10014000CC2B329595E6241FB14F0A0000204100C8
:1001500000C84200401C4620BCBE4CCA1B0E5AAE12
:10016000C59D7441542B434D47443D3F0D0A004803
:10017000656C6C6F20576F726C64210000000A0B75
:1001800002090C0D0E080703040100000000000026
:10019000000000000000000000000000000000005F
:1001A000000000000000000012111000000000001C
:1001B000000000000000000000000000000000003F
:1001C000000001021020200808102040102040806C
:1001D000020102010804020101020408102040800B
:1001E0008040201008040201800402018040201099
:1001F00008040201080402010102040810204080E2
:1002000001020408102040800505050507050808BF
:100210000808020202020A0A080804040404010190
:1002200001010101010103030303030303030407A5
:1002300007070C0C0C0C0C0C0C0C0202020206063C
:100240000606060606060B0B0B0B0B0B0B0B000032
:1002500020002300260029002C002F00320000017E
:10026000000003010601090100002200250028000A
:100270002B002E00310034000201000005010801AE
:100280000B0100002100240027002A002D0030006F
:10029000330001010000040107010A01093C2D2D72
:1002A0002D2000092D2D2D3E2000093C2D2D2D2027
:1002B00000092D2D2D3E200041542B434D47463D36
:1002C00031003E20003E200041542B434D47463D27
:1002D00031002B434D47523A0041542B434D475276
:1002E0003D0041542B434D47523D0041542B435355
:1002F00044483D310041542B434D47463D31002B8E
:10030000434D47523A0041542B434D47523D004123
:10031000542B434D47523D0041542B435344483DD9
:10032000310041542B434D47463D310041542B434E
:10033000504D533D22534D222C22534D222C2253FB
:100340004D220053494D3830304800093C2D2D2DA9
:100350002000092D2D2D3E200053494D434F4D5F68
:1003600053494D35333230450053494D434F4D5F6E
:1003700053494D35333230410053494D38303020E8
:100380005231330053494D38303820523133005305
:10039000494D3830382052313400093C2D2D2D2064
:1003A00000092D2D2D3E200041542B435648553D2C
:1003B0003000415445300041544530004154004123
:1003C000540041540054696D656F75743A204E6F46
:1003D00020726573706F6E736520746F2041542EA8
:1003E0002E2E206C617374206469746368206174BC
:1003F00074656D70742E00415400415400415400E6
:10040000417474656D7074696E6720746F206F70CD
:10041000656E20636F6D6D20776974682041547339
:10042000004F4B00464F4E4100464F4E416E6574A3
:100430000000000000003E5B4F5B3E3E6B4F6B3E9A
:100440001C3E7C3E1C183C7E3C181C577D571C1CD7
:100450005E7F5E1C00183C1800FFE7C3E7FF001832
:10046000241800FFE7DBE7FF30483A060E2629791B
:100470002926407F050507407F05253F5A3CE73C7C
:100480005A7F3E1C1C08081C1C3E7F14227F22142D
:100490005F5F005F5F06097F017F006689956A6084
:1004A0006060606094A2FFA29408047E040810209B
:1004B0007E201008082A1C08081C2A08081E101094
:1004C00010100C1E0C1E0C30383E3830060E3E0E3E
:1004D00006000000000000005F00000007000700A9
:1004E000147F147F14242A7F2A122313086462368F
:1004F000495620500008070300001C22410000411B
:10050000221C002A1C7F1C2A08083E080800807054
:100510003000080808080800006060002010080487
:10052000023E5149453E00427F40007249494946DA
:100530002141494D331814127F1027454545393C58
:100540004A49493141211109073649494936464945
:1005500049291E0000140000004034000000081467
:1005600022411414141414004122140802015909E0
:10057000063E415D594E7C1211127C7F4949493635
:100580003E414141227F4141413E7F494949417FAE
:10059000090909013E414151737F0808087F004164
:1005A0007F41002040413F017F081422417F4040AD
:1005B00040407F021C027F7F0408107F3E41414182
:1005C0003E7F090909063E4151215E7F09192946EE
:1005D000264949493203017F01033F4040403F1F04
:1005E0002040201F3F4038403F6314081463030439
:1005F0007804036159494D43007F41414102040899
:100600001020004141417F0402010204404040406B
:1006100040000307080020545478407F28444438A1
:100620003844444428384444287F385454541800EB
:10063000087E090218A4A49C787F0804047800446A
:100640007D40002040403D007F1028440000417F55
:1006500040007C047804787C0804047838444444DE
:1006600038FC1824241818242418FC7C08040408D6
:10067000485454542404043F44243C4040207C1CEF
:100680002040201C3C4030403C44281028444C90E2
:1006900090907C4464544C4400083641000000773C
:1006A0000000004136080002010204023C26232615
:1006B0003C1EA1A161123A4040207A385454555949
:1006C000215555794122545478422155547840207F
:1006D000545579400C1E527212395555555939549A
:1006E00054545939555454580000457C4100024532
:1006F0007D420001457C407D1211127DF0282528A5
:10070000F07C545545002054547C547C0A097F49A0
:1007100032494949323A4444443A324A4848303AE4
:100720004141217A3A42402078009DA0A07D3D427F
:1007300042423D3D4040403D3C24FF2424487E4908
:1007400043662B2FFC2F2BFF0929F620C0887E093A
:100750000320545479410000447D413048484A32D6
:10076000384040227A007A0A0A727D0D19317D26BE
:1007700029292F28262929292630484D40203808A4
:1007800008080808080808382F10C8ACBA2F102825
:1007900034FA00007B000008142A142222142A14C0
:1007A000085500550055AA55AA55AAFF55FF55FFF3
:1007B000000000FF00101010FF00141414FF0010C0
:1007C00010FF00FF1010F010F0141414FC001414AB
:1007D000F700FF0000FF00FF1414F404FC141417CA
:1007E000101F10101F101F1414141F00101010F0F1
:1007F000000000001F101010101F10101010F0103B
:10080000000000FF101010101010101010FF10004A
:100810000000FF140000FF00FF00001F1017000081
:10082000FC04F414141710171414F404F40000FF5B
:1008300000F714141414141414F700F714141417F4
:100840001410101F101F141414F4141010F010F0D2
:1008500000001F101F0000001F14000000FC140007
:1008600000F010F01010FF10FF141414FF141010FB
:10087000101F00000000F010FFFFFFFFFFF0F0F07E
:10088000F0F0FFFFFF0000000000FFFF0F0F0F0F51
:100890000F3844443844FC4A4A4A347E0202060671
:1008A000027E027E0263554941633844443C044061
:1008B0007E201E2006027E020299A5E7A5991C2A29
:1008C000492A1C4C7201724C304A4D4D30304878E8
:1008D0004830BC625A463D3E494949007E0101010B
:1008E0007E2A2A2A2A2A44445F444440514A4440EA
:1008F00040444A51400000FF0103E080FF0000082F
:10090000086B6B083612362436060F090F060000F6
:1009100018180000001010003040FF0101001F01F6
:10092000011E00191D1712003C3C3C3C0000000059
:10093000000043079C07A108ED0C020D6211F7119E
:100940008C122113932611241FBECFEFD1E2DEBFFC
:10095000CDBF00E00CBF16E0A0E0B2E0E0E3FAE8B3
:1009600000E00BBF02C007900D92AC33B107D9F77E
:1009700021E1ACE3B6E001C01D92A531B207E1F779
:1009800014E0C3EAD4E000E006C021970109802FFB
:10099000FE010E94183DC939D10780E00807A9F778
:1009A0000E944F130C9416452BCBDC01ED91FC916A
:1009B0000190F081E02D199468E670E08BE490E1FD
:1009C0000E9417266BE670E08BE490E1EEDF60E0BA
:1009D00070E08BE490E1E9DF8BE490E10E949126E6
:1009E00068E670E08BE490E10E9417266BE170E00E
:1009F0008BE490E1DADF60E070E08BE490E1D5DF3A
:100A00008BE490E10E94912668E670E08BE490E12F
:100A10000E9417266CE170E08BE490E1C6DF68E18C
:100A200070E08BE490E1C1DF8BE490E10C949126BF
:100A3000CF93DF93CCE3D6E06091680670916906AE
:100A400080916A0690916B060E94780E20E030E05B
:100A500040E05AE30E942C0F688379838A839B834A
:100A600060916406709165068091660690916706B4
:100A70000E94780E20E030E040E05AE30E942C0F04
:100A80006C837D838E839F83609160067091610685
:100A900080916206909163060E94780E20E030E01B
:100AA00040E05AE30E942C0F688779878A879B87EA
:100AB000DF91CF910895CF93DF93CCE3D6E060919F
:100AC0005C0670915D0680915E0690915F060E94C3
:100AD000780E20E030E044E253E40E94DD0D6C87A4
:100AE0007D878E879F876091580670915906809107
:100AF0005A0690915B060E94780E20E030E044E2B6
:100B000053E40E94DD0D688B798B8A8B9B8B6091FF
:100B100054067091550680915606909157060E9492
:100B2000780E20E030E044E253E40E94DD0D6C8B4F
:100B30007D8B8E8B9F8BDF91CF910895CF9368E64D
:100B400070E08BE490E10E9417266BE370E08BE489
:100B500090E12BDF8BE490E10E94912646E050E08B
:100B600068E670E08BE490E10E948E268BE490E1D1
:100B70000E942D250697D4F38BE490E10E94352541
:100B8000C82F8BE490E10E94352520E030E03C2F17
:100B9000822B932B092E000CAA0BBB0B80936806AB
:100BA00090936906A0936A06B0936B068BE490E17C
:100BB0000E943525C82F8BE490E10E94352520E066
:100BC00030E03C2F822B932B092E000CAA0BBB0B81
:100BD0008093640690936506A0936606B0936706BB
:100BE0008BE490E10E943525C82F8BE490E10E94B0
:100BF000352520E030E03C2F822B932B092E000C72
:100C0000AA0BBB0B8093600690936106A0936206CB
:100C1000B0936306CF910CCFCF9368E670E08BE47E
:100C200090E10E94172663E470E08BE490E1BDDE62
:100C30008BE490E10E94912646E050E068E670E087
:100C40008BE490E10E948E268BE490E10E942D259A
:100C50000697D4F38BE490E10E943525C82F8BE4EE
:100C600090E10E94352520E030E03C2F822B932B31
:100C7000092E000CAA0BBB0B80935C0690935D06BB
:100C8000A0935E06B0935F068BE490E10E94352549
:100C9000C82F8BE490E10E94352520E030E03C2F06
:100CA000822B932B092E000CAA0BBB0B80935806AA
:100CB00090935906A0935A06B0935B068BE490E19B
:100CC0000E943525C82F8BE490E10E94352520E055
:100CD00030E03C2F822B932B092E000CAA0BBB0B70
:100CE0008093540690935506A0935606B0935706EA
:100CF000CF91E1CECF93DF93EC0120DF8DDF88E150
:100D0000ECE3F6E0DE0101900D928A95E1F7CE0169
:100D1000DF91CF91089580E090E0089526E040ECC7
:100D200052E160E070E080910602909107020E941B
:100D30009410609106027091070288EA97E00E9481
:100D4000592865E073E080910602909107020C94A7
:100D5000CC13EF92FF920F931F93CF93DF93CDB7F6
:100D6000DEB7A2970FB6F894DEBF0FBECDBF88EAFC
:100D700097E00E949626892B09F44EC008E617E0FA
:100D8000780188EA97E00E94AE26F80181938F01EE
:100D900061E070E080E090E00E949C15F7018081A6
:100DA0008A3051F088EA97E00E949626892B21F03C
:100DB000F7E0073A1F0721F7F70111828CE696E06A
:100DC0009F938F9383E193E09F938F9388E697E0BF
:100DD0009F938F930E9458400F900F900F900F9009
:100DE0000F900F900197C1F42FE130E0AE014F5FFB
:100DF0005F4F60916C0688EA97E00E94322C8E016A
:100E00000F5D1F4F2AEF30E04EE656E060916C0612
:100E100088EA97E00E942F2BA2960FB6F894DEBFC7
:100E20000FBECDBFDF91CF911F910F91FF90EF903B
:100E30000895CF93DF93CDB7DEB7A0970FB6F894A0
:100E4000DEBF0FBECDBF42E253E0BE016F5F7F4FFA
:100E500088EA97E00E94F12960916C0688EA97E0A1
:100E60000E94A92A811106C063E671E088EA97E032
:100E70000E949A13A0960FB6F894DEBF0FBECDBFA6
:100E8000DF91CF91089566E188EA97E00E94D2262B
:100E9000E8EAF7E08CE393E09183808384E0858740
:100EA0000895CF93DF93EC0182EC98E00E94D21C6E
:100EB0001B8682EC98E00E94651F882371F082EC0B
:100EC00098E00E946A1FBC0182EC98E00E94112009
:100ED00081112EC081E08B872BC020913909288396
:100EE00080913A0990E09A838983222309F16091E5
:100EF000FE087091FF088091000990910109C5D604
:100F00007C836B83809136098D8360910209709197
:100F100003098091040990910509B7D67F836E83F8
:100F200080913709888780913C0990E09A8789876A
:100F3000CE01DF91CF9108956BEF7DE082EC98E0D8
:100F40000C94E01E80910A0281114AC061E087E2A0
:100F50000E94FA1661E083E20E94FA1668EE73E0DE
:100F600080E090E00E949C15ADD48BE49BE00E9451
:100F70004A2490931E0B80931D0B8091260B809327
:100F8000210B81E08093220BB6D42093450B309344
:100F9000460B4093470B5093480B6093490B70935B
:100FA0004A0B81E02091490B30914A0B232B09F425
:100FB00080E08093230B20910D0230910E028091EE
:100FC0001D0B90911E0B281B390B3093200B209387
:100FD0001F0B9091270B8091280B911113C008C013
:100FE0006AE473E081EC9CE00E94F71380E00895CE
:100FF000823069F118F4882351F128C0855085307A
:1010000030F124C0853049F028F4882331F0823053
:10101000E9F403C08A3078F019C08091180B9091E0
:10102000190B8B3A91053CF02A3A310524F43093A0
:10103000190B2093180B1092270B87E0EDE1FBE0D2
:10104000A6E1BBE001900D928A95E1F7089581E059
:10105000089560E08FE10E94BE1661E082E20E9486
:10106000BE1661E087E20E94BE1661E089E20E943E
:10107000BE1661E08DE20E94BE1661E085E20E942C
:10108000BE1661E083E20E94BE1660E087E20E9425
:10109000FA1660E082E20E94FA1660E089E20E949D
:1010A000FA1660E08DE20E94FA1660E085E20E9486
:1010B000FA1660E083E20E94FA1626E040E855E264
:1010C00060E070E081EC9CE00E9494106FE671E0BB
:1010D00081EC9CE00E94D71326E040E855E260E0F6
:1010E00070E08EE59DE00E94941026E040E855E215
:1010F00060E070E08BEF9DE00E94941026E040E8F5
:1011000055E260E070E088E99EE00E94941054CCC3
:101110000F931F93CF93DF93CAE0D0E08BE49BE063
:101120000E944A24080F191F2197C1F7C8016AE0DD
:1011300070E00E94C73CCB01DF91CF911F910F91CE
:1011400008950F931F9300EA1FE024E130E04BE184
:1011500050E06DE170E08BE49BE00E94E4231F917E
:101160000F910895CF92DF92EF92FF920F931F930A
:10117000CF93DF93CDB7DEB7AA970FB6F894DEBF53
:101180000FBECDBF8EE59DE0CAD6892B09F0E1DD0B
:1011900088E99EE0C4D6892B79F1FF24F39488E98D
:1011A0009EE0BDD6892B41F188E99EE0D2D68C0124
:1011B00080910902882329F0602F81EC9CE00E9435
:1011C000CD13C80199278534910581F034F4843416
:1011D000910529F7F0920802E2CF8335910549F095
:1011E00084359105E1F61092220BD9CF10920802B6
:1011F000D6CFF092220BD3CF8BEF9DE090D6892BE8
:1012000009F470C0CE0107964CDE8CE0FE013796E3
:10121000AAE0BBE001900D928A95E1F78091090266
:10122000882309F45FC06DE573E081EC9CE00E94C7
:10123000CC1360910A0B70E04AE050E081EC9CE036
:101240000E94C61463E673E081EC9CE00E94CC131C
:1012500060910B0B70910C0B4AE050E081EC9CE02C
:101260000E94CC1480910A0B8823E1F16EE673E0B2
:1012700081EC9CE00E94CC1360910D0B70910E0BE1
:1012800044E050E081EC9CE00E94C61460910F0B9A
:1012900081EC9CE00E94CD1369E773E081EC9CE057
:1012A0000E94CC136091100B7091110B44E050E040
:1012B00081EC9CE00E94C6146091120B81EC9CE0D2
:1012C0000E9407146CE773E081EC9CE00E94CC1351
:1012D0006091130B7091140B4AE050E081EC9CE09C
:1012E0000E94CC148091280B882309F4A4C080911B
:1012F000270B81110BC085E20E942817892B31F042
:1013000060E085E20E94FA161092250B7AD3609372
:10131000060B7093070B8093080B9093090B809139
:101320000A02882349F169E873E081EC9CE00E949D
:10133000F71381EC9CE0F3D5892BD9F361EC7CE0C9
:10134000CE0101960E940A15BE016F5F7F4F81ECAE
:101350009CE00E94E713CE0101960E941218C8D4A7
:101360006093060B7093070B8093080B9093090B07
:10137000CE0101960E94501780910A0281110DC082
:10138000CE014396B7DC88E1FE017396ADE2BBE087
:1013900001900D928A95E1F72CC060EA73E081EC30
:1013A0009CE00E94F7136CEB73E081EC9CE00E94E0
:1013B000F71381EC9CE0B3D5892BD9F381EC9CE049
:1013C000C8D58C014AE050E0BC0181EC9CE00E9451
:1013D000CC14B80160537109072E000C880B990BCF
:1013E00087D460932D0B70932E0B80932F0B9093CB
:1013F000300B2091310B3091320B4091330B5091D7
:10140000340B60912D0B70912E0B80912F0B9091CE
:10141000300B6BD32091350B3091360B4091370B4D
:101420005091380B62D32DEC3CEC4CE85FE310D5C7
:1014300087FF1092280B80912C0B882319F085E0F0
:101440008093280B7FDD8091280B90E08A309105F6
:1014500008F015C2FC018827EE58FF4F8F4F0C94FF
:10146000183D80910C02811103C081E080930B0232
:1014700010922C0B85E20E942817892B21F060E046
:1014800085E20E94FA1682E20E942817892B21F039
:1014900060E082E20E94FA1680910A0281110DC07A
:1014A000CE01439627DC88E1FE017396ADE2BBE0F6
:1014B00001900D928A95E1F72CC065ED73E081EC07
:1014C0009CE00E94F7136CEB73E081EC9CE00E94BF
:1014D000F71381EC9CE023D5892BD9F381EC9CE0B8
:1014E00038D58C014AE050E0BC0181EC9CE00E94C0
:1014F000CC14B80160537109072E000C880B990BAE
:10150000F7D360932D0B70932E0B80932F0B90933A
:10151000300B2091310B3091320B4091330B5091B5
:10152000340B60912D0B70912E0B80912F0B9091AD
:10153000300BDBD22091350B3091360B4091370BBD
:101540005091380BD2D22DEC3CEC4CE85FE331D318
:1015500018160CF496C181E08093280B0E946B153D
:101560006093020B7093030B8093040B9093050B15
:1015700088C10E946B156B017C018091020B9091D8
:10158000030BA091040BB091050BC816D906EA060F
:10159000FB06B1F00E946B150091020B1091030B3A
:1015A0002091040B3091050BDC01CB01801B910BCA
:1015B000A20BB30B81319742A105B10578F461C14B
:1015C0000E946B15C61AD70AE80AF90A81E1C81603
:1015D00087E2D806E104F10408F453C1B3DC8823A0
:1015E00021F061E085E20E94FA1641E050E066EBEE
:1015F00074E088E99EE00E945B13809108028111EB
:1016000040C182E08093280B3CC180910A0288236C
:1016100031F061EE73E081EC9CE00E94F71320E072
:1016200030E040EA52E46091060B7091070B809124
:10163000080B9091090B0CD487FD02C086E001C015
:1016400085E08093280B81E080932A0B7EC082E2A4
:101650000E942817892B31F060E082E20E94FA167E
:101660001092250B80912B0B811110922B0B8091E6
:101670000A02882331F06DEE73E081EC9CE00E9459
:10168000F7138091270B811110C080912A0B8823BA
:10169000D9F010922A0B80910A02811115C038DD11
:1016A00090930E0280930D020FC085E20E942817CE
:1016B000892B21F461E085E20E94FA1689E10E94FB
:1016C0002817892B09F42ADB20E030E040EA52E4B5
:1016D0006091060B7091070B8091080B9091090B9C
:1016E000B7D387FDCEC080912C0B8111CAC086E094
:1016F0002AC081E08093250B80910A02882331F073
:1017000061EF73E081EC9CE00E94F7138091270B5E
:10171000882339F080910C02882319F08ADB10921B
:101720000C02C090060BD090070BE090080BF090D5
:10173000090B20E030E04CEA52E4C701B60188D33F
:10174000181634F487E08093280B10922B0B99C065
:1017500020E030E040EA52E4C701B6012AD287FF18
:1017600090C082E08093280B81E080932B0B89C08E
:1017700080910A02882331F065EF73E081EC9CE0F0
:101780000E94F713C090060BD090070BE090080B57
:10179000F090090B20E030E046EB52E4C701B601BF
:1017A00057D3181614F488E0CECF20E030E04CEA8E
:1017B00052E4D2CF80910A02882331F069EF73E0BE
:1017C00081EC9CE00E94F7138091290B8823D1F0D3
:1017D0008091270B8823B1F089E20E942817892B7A
:1017E00071F461E089E20E94FA1668EE73E080E02D
:1017F00090E00E949C1560E089E20E94FA1619DBD5
:101800001092290BC090060BD090070BE090080BAC
:10181000F090090B20E030E042ED52E4C701B60140
:1018200017D3181614F489E08ECF20E030E046EB91
:1018300052E492CF80910A02882329F06DEF73E081
:1018400081EC9CE0D4D780910B02882359F08091E1
:10185000270B882339F041E050E061E074E088E92B
:101860009EE029D720E030E042ED52E46091060B83
:101870007091070B8091080B9091090B6FCF10921C
:10188000280B8091240B882359F08091250B882305
:1018900051F061E087E20E94FA161092240B03C017
:1018A00081E08093240BAA960FB6F894DEBF0FBE9A
:1018B000CDBFDF91CF911F910F91FF90EF90DF90FF
:1018C000CF90089569E683E59BE00E94641881113A
:1018D00006C063E074E081EC9CE089D7FFCF68E349
:1018E00074E081EC9CE083D764E670E080E090E0F7
:1018F0000C949C1508958F929F92AF92BF92CF92B5
:10190000DF92EF92FF920F931F93CF93DF9300D05C
:1019100000D0CDB7DEB740E46AEA7BE083E59BE028
:101920000E94E1188AEAC82E8BE0D82E00E010E071
:10193000E12CF12CF60181909190A190B1906F0172
:10194000B801012E000C880B990BD2D19B01AC0180
:10195000C501B4017DD2181624F4C501B40195D196
:101960008B0120E030E048EB51E4C501B40170D2B6
:1019700087FD03C0FFEFEF1AFF0A8AEAC8168CE062
:10198000D806C1F60831110544F061E080E095E029
:10199000E916F10424F460E002C060E080E01A83FC
:1019A0000983FC82EB82202F3A814E2D5C81782FB7
:1019B00080E090E026960FB6F894DEBF0FBECDBF54
:1019C000DF91CF911F910F91FF90EF90DF90CF901B
:1019D000BF90AF909F908F90089520E341E365E31F
:1019E00083E69BE00C940723FC01862F6083218310
:1019F00032834383548360E00C94BE168FEA9CE0EC
:101A000068C0FCCF20E030E040EA50E467E38FEAB2
:101A10009CE008D020E030E040EA50E467E38AEA46
:101A20009CE0E2CFCF92DF92EF92FF921F93CF9391
:101A3000DF93EC01162F69017A0160E0812F0E948B
:101A4000BE16CA82DB82EC82FD821883DF91CF91C1
:101A50001F91FF90EF90DF90CF900895CF93DF9389
:101A6000EC0188810E9443168983BC017727072EE9
:101A7000000C880B990B3CD120E030E040E85AE3A1
:101A8000EBD12A813B814C815D81E6D16E837F83DE
:101A90008887998720E030E040E05FE325D020E0B0
:101AA00030E048EC52E4D8D16A877B878C879D87E9
:101AB00026E636E646EE5FE3CFD120E030E040E0B8
:101AC00052E413D06E877F87888B998BDF91CF91FB
:101AD0000895CF93DF93EC01C1DF6E857F85888900
:101AE0009989DF91CF9108955058BB27AA270ED02E
:101AF00075C166D130F06BD120F031F49F3F11F405
:101B00001EF45BC10EF4E095E7FB51C1E92F77D1DC
:101B100080F3BA17620773078407950718F071F40A
:101B20009EF58FC10EF4E0950B2EBA2FA02D0B0160
:101B3000B90190010C01CA01A0011124FF27591B12
:101B400099F0593F50F4503E68F11A16F040A22F18
:101B5000232F342F4427585FF3CF46953795279589
:101B6000A795F0405395C9F77EF41F16BA0B620B88
:101B7000730B840BBAF09150A1F0FF0FBB1F661FCF
:101B8000771F881FC2F70EC0BA0F621F731F841F12
:101B900048F4879577956795B795F7959E3F08F038
:101BA000B3CF9395880F08F09927EE0F97958795F7
:101BB0000895D9D008F481E008950CD00FC107D161
:101BC00040F0FED030F021F45F3F19F0F0C0511129
:101BD00039C1F3C014D198F39923C9F35523B1F354
:101BE000951B550BBB27AA2762177307840738F08C
:101BF0009F5F5F4F220F331F441FAA1FA9F333D0EB
:101C00000E2E3AF0E0E830D091505040E695001C9E
:101C1000CAF729D0FE2F27D0660F771F881FBB1F5A
:101C2000261737074807AB07B0E809F0BB0B802D34
:101C3000BF01FF2793585F4F2AF09E3F510568F080
:101C4000B6C000C15F3FECF3983EDCF38695779514
:101C50006795B795F7959F5FC9F7880F911D969582
:101C6000879597F90895E1E0660F771F881FBB1FDE
:101C7000621773078407BA0720F0621B730B840B8B
:101C8000BA0BEE1F88F7E095089504D06894B1115F
:101C9000D9C00895BCD088F09F5790F0B92F9927EC
:101CA000B751A0F0D1F0660F771F881F991F1AF067
:101CB000BA95C9F712C0B13081F0C3D0B1E0089530
:101CC000C0C0672F782F8827B85F39F0B93FCCF3B1
:101CD000869577956795B395D9F73EF4909580955D
:101CE000709561957F4F8F4F9F4F0895E89409C07D
:101CF00097FB3EF490958095709561957F4F8F4F3F
:101D00009F4F9923A9F0F92F96E9BB279395F69554
:101D1000879577956795B795F111F8CFFAF4BB0FD2
:101D200011F460FF1BC06F5F7F4F8F4F9F4F16C036
:101D3000882311F096E911C0772321F09EE8872FC0
:101D4000762F05C0662371F096E8862F70E060E07C
:101D50002AF09A95660F771F881FDAF7880F9695F5
:101D6000879597F90895990F0008550FAA0BE0E899
:101D7000FEEF16161706E807F907C0F0121613064D
:101D8000E407F50798F0621B730B840B950B39F48D
:101D90000A2661F0232B242B252B21F408950A26F3
:101DA00009F4A140A6958FEF811D811D089597F933
:101DB0009F6780E870E060E008959FEF80EC0895F1
:101DC00000240A941616170618060906089500241A
:101DD0000A9412161306140605060895092E039494
:101DE000000C11F4882352F0BB0F40F4BF2B11F408
:101DF00060FF04C06F5F7F4F8F4F9F4F089557FD67
:101E00009058440F551F59F05F3F71F04795880F68
:101E100097FB991F61F09F3F79F0879508951216FF
:101E200013061406551FF2CF4695F1DF08C01616AB
:101E300017061806991FF1CF86957105610508945C
:101E40000895E894BB2766277727CB0197F9089573
:101E50008ADF08F48FEF08950BD0C0CFB1DF28F0F0
:101E6000B6DF18F0952309F0A2CFA7CF1124EACF4F
:101E7000C6DFA0F3959FD1F3950F50E0551F629FE9
:101E8000F001729FBB27F00DB11D639FAA27F00DD3
:101E9000B11DAA1F649F6627B00DA11D661F829FFA
:101EA0002227B00DA11D621F739FB00DA11D621FDF
:101EB000839FA00D611D221F749F3327A00D611DFC
:101EC000231F849F600D211D822F762F6A2F1124DE
:101ED0009F5750408AF0E1F088234AF0EE0FFF1F31
:101EE000BB1F661F771F881F91505040A9F79E3F68
:101EF000510570F05CCFA6CF5F3FECF3983EDCF36A
:101F0000869577956795B795F795E7959F5FC1F7A4
:101F1000FE2B880F911D9695879597F90895FC01E2
:101F2000918D228D892F90E0805C9F4F821B9109BB
:101F30008F7399270895FC01918D828D981731F048
:101F4000828DE80FF11D858D90E008958FEF9FEF52
:101F50000895FC01918D828D981761F0828DDF01CB
:101F6000A80FB11D5D968C91928D9F5F9F73928F8C
:101F700090E008958FEF9FEF0895FC01538D448DFD
:101F8000252F30E0842F90E0821B930B541710F024
:101F9000CF9608950197089589E591E1892B39F04D
:101FA00080E090E0892B19F084D1811122C08EEE5F
:101FB00091E1892B39F080E090E0892B19F00ED265
:101FC00081111AC083E892E1892B39F080E090E01A
:101FD000892B19F098D2811112C088E193E1892BE5
:101FE00099F080E090E0892B79F022D381110AC02A
:101FF00008950E940000DBCF0E940000E3CF0E9402
:102000000000EBCF0C9400000895FC01848DDF01EB
:10201000A80FB11DA35ABF4F2C91848D90E001965B
:102020008F739927848FA689B7892C93A089B1894A
:102030008C91837080648C93938D848D981306C0EB
:102040000288F389E02D80818F7D80830895EF924F
:10205000FF920F931F93CF93DF93EC0181E0888F62
:102060009B8D8C8D981305C0E889F989808185FD49
:1020700025C0F62E0B8D10E00F5F1F4F0F73112739
:10208000E02E8C8DE8120BC00FB607FCFACFE88962
:10209000F989808185FFF5CFCE01B7DFF2CF8B8D37
:1020A000FE01E80FF11DE35AFF4FF0829FB7F8944D
:1020B0000B8FEA89FB89808180620AC09FB7F89400
:1020C000EE89FF896083E889F98980818370806463
:1020D00080839FBF81E090E0DF91CF911F910F91AE
:1020E000FF90EF900895CF93DF93EC01888D8823C4
:1020F000C1F0EA89FB89808185FD05C0A889B9897D
:102100008C9186FD0EC00FB607FCF5CF808185FF50
:10211000F2CFA889B9898C9185FFEDCFCE0175DF0B
:10212000E8CFDF91CF910895CF92DF92EF92FF92A7
:102130001F93CF93DF93EC016A017B01122FE88993
:10214000F98982E080834115514E61057105B1F036
:1021500060E079E08DE390E0A70196010E94DA3C0F
:10216000DA01C9010197A109B109B695A79597951B
:1021700087959C01211580E13807A8F0E889F98945
:10218000108260E874E88EE190E0A70196010E9459
:10219000DA3CDA01C9010197A109B109B695A79501
:1021A000979587959C01EC85FD853083EE85FF85AD
:1021B0002083188EEC89FD891083EA89FB89808150
:1021C00080618083EA89FB89808188608083EA89D5
:1021D000FB89808180688083EA89FB8980818F7D8B
:1021E0008083DF91CF911F91FF90EF90DF90CF9090
:1021F000089508951F920F920FB60F9211240BB6F7
:102200000F922F938F939F93EF93FF93E091D10CB5
:10221000F091D20C8081E091D70CF091D80C82FD26
:1022200012C090818091DA0C8F5F8F732091DB0C4C
:10223000821751F0E091DA0CF0E0EF53F34F958FF5
:102240008093DA0C01C08081FF91EF919F918F9173
:102250002F910F900BBE0F900FBE0F901F901895EF
:102260001F920F920FB60F9211240BB60F922F935D
:102270003F934F935F936F937F938F939F93AF930E
:10228000BF93EF93FF9381EC9CE0BFDEFF91EF9152
:10229000BF91AF919F918F917F916F915F914F917E
:1022A0003F912F910F900BBE0F900FBE0F901F907C
:1022B000189581EC9CE033DE21E0892B09F420E0C5
:1022C000822F0895E1ECFCE01382128288EE93E005
:1022D000A0E0B0E084839583A683B78386E594E08D
:1022E0009183808385EC90E09587848784EC90E0EF
:1022F0009787868780EC90E0918B808B81EC90E0D3
:10230000938B828B82EC90E0958B848B86EC90E0B3
:10231000978B868B118E128E138E148E08951F92BA
:102320000F920FB60F9211240BB60F922F938F932B
:102330009F93EF93FF93E0916E0DF0916F0D80816D
:10234000E091740DF091750D82FD12C09081809125
:10235000770D8F5F8F732091780D821751F0E09188
:10236000770DF0E0E25AF24F958F8093770D01C020
:102370008081FF91EF919F918F912F910F900BBED4
:102380000F900FBE0F901F9018951F920F920FB6CF
:102390000F9211240BB60F922F933F934F935F939D
:1023A0006F937F938F939F93AF93BF93EF93FF931D
:1023B0008EE59DE02ADEFF91EF91BF91AF919F9155
:1023C0008F917F916F915F914F913F912F910F90DE
:1023D0000BBE0F900FBE0F901F9018958EE59DE0DD
:1023E0009EDD21E0892B09F420E0822F0895EEE59F
:1023F000FDE01382128288EE93E0A0E0B0E08483D7
:102400009583A683B78386E594E0918380838DECE2
:1024100090E0958784878CEC90E09787868788EC9E
:1024200090E0918B808B89EC90E0938B828B8AEC8F
:1024300090E0958B848B8EEC90E0978B868B118E41
:10244000128E138E148E08951F920F920FB60F9254
:1024500011240BB60F922F938F939F93EF93FF93BB
:10246000E0910B0EF0910C0E8081E091110EF09135
:10247000120E82FD12C090818091140E8F5F8F73B7
:102480002091150E821751F0E091140EF0E0E55006
:10249000F24F958F8093140E01C08081FF91EF91D0
:1024A0009F918F912F910F900BBE0F900FBE0F90A9
:1024B0001F9018951F920F920FB60F9211240BB612
:1024C0000F922F933F934F935F936F937F938F93CD
:1024D0009F93AF93BF93EF93FF938BEF9DE095DDB9
:1024E000FF91EF91BF91AF919F918F917F916F91EC
:1024F0005F914F913F912F910F900BBE0F900FBEA8
:102500000F901F9018958BEF9DE009DD21E0892B3E
:1025100009F420E0822F0895EBEFFDE01382128290
:1025200088EE93E0A0E0B0E084839583A683B78330
:1025300086E594E09183808385ED90E0958784879C
:1025400084ED90E09787868780ED90E0918B808B7B
:1025500081ED90E0938B828B82ED90E0958B848B64
:1025600086ED90E0978B868B118E128E138E148ED3
:1025700008951F920F920FB60F9211240BB60F926F
:102580002F938F939F93EF93FF93E091A80EF09179
:10259000A90E8081E091AE0EF091AF0E82FD12C0C7
:1025A00090818091B10E8F5F8F732091B20E821750
:1025B00051F0E091B10EF0E0E856F14F958F809325
:1025C000B10E01C08081FF91EF919F918F912F916A
:1025D0000F900BBE0F900FBE0F901F9018951F927B
:1025E0000F920FB60F9211240BB60F922F933F93B9
:1025F0004F935F936F937F938F939F93AF93BF930B
:10260000EF93FF9388E99EE000DDFF91EF91BF918A
:10261000AF919F918F917F916F915F914F913F917A
:102620002F910F900BBE0F900FBE0F901F9018951B
:1026300088E99EE074DC21E0892B09F420E0822FF8
:102640000895E8E9FEE01382128288EE93E0A0E0AC
:10265000B0E084839583A683B78386E594E0918375
:10266000808385E391E09587848784E391E0978771
:10267000868780E391E0918B808B81E391E0938B5F
:10268000828B82E391E0958B848B86E391E0978B3C
:10269000868B118E128E138E148E0895089591D20A
:1026A000FDDF0E942908CCECDFE00E94B2082097F1
:1026B000E1F372DCFACFCF92DF92EF92FF920F93A9
:1026C0001F93CF93DF936C017A018B01C0E0D0E0C0
:1026D000CE15DF0581F0D8016D918D01D601ED9108
:1026E000FC910190F081E02DC6011995892B11F024
:1026F0002196EECF7E01C701DF91CF911F910F91FF
:10270000FF90EF90DF90CF9008956115710579F0FB
:10271000FB0101900020E9F73197AF01461B570BF1
:10272000DC01ED91FC910280F381E02D199480E0B1
:1027300090E00895EF92FF920F931F93CF93DF9352
:102740008C017B01C0E0D0E0F701EC0FFD1F64912C
:10275000662361F0D801ED91FC910190F081E02DAC
:10276000C8011995892B11F02196EECFCE01DF918A
:10277000CF911F910F91FF90EF900895DB01149678
:102780004D915C9115976D917C91DC01ED91FC91DF
:102790000280F381E02D1994B8CFDC01ED91FC911A
:1027A0000190F081E02D199460E173E0AECF0F93BA
:1027B0001F93CF93DF93EC01BDDF8C01CE01F4DFDB
:1027C000800F911FDF91CF911F910F9108950F936B
:1027D0001F93CF93DF93EC01D1DF8C01CE01E4DFB7
:1027E000800F911FDF91CF911F910F9108950F934B
:1027F0001F93CF93DF93EC0188DF8C01CE01D4DFF0
:10280000800F911FDF91CF911F910F9108950F932A
:102810001F93CF93DF93EC01C0DF8C01CE01C4DFA7
:10282000800F911FDF91CF911F910F9108958F928B
:102830009F92AF92BF92EF92FF920F931F93CF930D
:10284000DF93CDB7DEB7A1970FB6F894DEBF0FBE0A
:10285000CDBF7C01FA01CB0119A2223008F42AE095
:102860008E010F5D1F4F822E912CA12CB12CBF0128
:10287000A50194010E94DA3CF901CA010150110935
:102880006A3010F4605D01C0695CD8016C93232B41
:10289000242B252B61F7B801C70137DFA1960FB6AE
:1028A000F894DEBF0FBECDBFDF91CF911F910F9186
:1028B000FF90EF90BF90AF909F908F90089521155B
:1028C000310541F4DC01ED91FC910190F081E02DA6
:1028D000642F1994ACCF9A01462F50E060E070E06D
:1028E000EECF0F931F93CF93DF93EC01F4DF8C01B6
:1028F000CE015ADF800F911FDF91CF911F910F9171
:102900000895CF92DF92EF92FF920F931F93CF9390
:10291000DF932115310581F4DC01ED91FC910190EB
:10292000F081E02D642FDF91CF911F910F91FF90E7
:10293000EF90DF90CF9019942A303105F1F477FFB2
:102940001BC06A017B01EC016DE227DF8C0144278B
:102950005527BA014C195D096E097F092AE0CE019D
:1029600066DF800F911FDF91CF911F910F91FF9034
:10297000EF90DF90CF9008952AE0DF91CF911F91E3
:102980000F91FF90EF90DF90CF9051CF9A01AB0164
:10299000770F660B770BB5CF0F931F93CF93DF9312
:1029A000EC01F4DF8C01CE01FFDE800F911FDF917F
:1029B000CF911F910F9108950F931F93CF93DF93A2
:1029C000EC0189D0688779878A879B87E881F981BC
:1029D0000284F385E02DCE01199597FF16C07BD0B8
:1029E000088519852A853B85DC01CB01801B910B6D
:1029F000A20BB30B0C811D812E813F8180179107A3
:102A0000A207B30718F38FEF9FEFDF91CF911F91CC
:102A10000F9108950F931F93CF93DF93EC018B01D8
:102A200062E173E0ABD2C801C7DF97FD04C0682F35
:102A3000CE01E5D2F8CFCE01DF91CF911F910F915A
:102A400008951F920F920FB60F9211242F933F9368
:102A50008F939F93AF93BF938091360F9091370FD1
:102A6000A091380FB091390F3091350F23E0230F2B
:102A70002D3720F40196A11DB11D05C026E8230FB6
:102A80000296A11DB11D2093350F8093360F9093B0
:102A9000370FA093380FB093390F80913A0F909170
:102AA0003B0FA0913C0FB0913D0F0196A11DB11DB0
:102AB00080933A0F90933B0FA0933C0FB0933D0F40
:102AC000BF91AF919F918F913F912F910F900FBE2A
:102AD0000F901F9018952FB7F8946091360F709152
:102AE000370F8091380F9091390F2FBF08953FB75E
:102AF000F89480913A0F90913B0FA0913C0FB091C8
:102B00003D0F26B5A89B05C02F3F19F00196A11DCA
:102B1000B11D3FBFBA2FA92F982F8827820F911D73
:102B2000A11DB11DBC01CD0142E0660F771F881FBA
:102B3000991F4A95D1F708958F929F92AF92BF92B5
:102B4000CF92DF92EF92FF926B017C01D0DF4B01BD
:102B50005C01C114D104E104F104F9F00E949F2C3E
:102B6000C6DFDC01CB0188199909AA09BB09883E97
:102B70009340A105B10568F321E0C21AD108E1082C
:102B8000F10888EE880E83E0981EA11CB11CC114C8
:102B9000D104E104F10421F7DCCFFF90EF90DF9046
:102BA000CF90BF90AF909F908F9008958230910505
:102BB00038F0880F991F880F991F05970197F1F733
:102BC0000895789484B5826084BD84B5816084BDA5
:102BD00085B5826085BD85B5816085BDEEE6F0E096
:102BE000808181608083E1E8F0E0108280818260F2
:102BF0008083808181608083E0E8F0E08081816073
:102C00008083E1EBF0E0808184608083E0EBF0E0A2
:102C1000808181608083E1E9F0E08081826080834F
:102C2000808181608083E0E9F0E080818160808341
:102C3000E1EAF0E08081826080838081816080832E
:102C4000E0EAF0E0808181608083E1E2F1E0808170
:102C500082608083808181608083E0E2F1E0808116
:102C600081608083EAE7F0E08081846080838081F6
:102C7000826080838081816080838081806880839E
:102C80001092C1000895863308F0865390917B001E
:102C9000282F2870977F922B90937B0020910F0212
:102CA00090E4299F900111248770822B80937C00EF
:102CB00080917A00806480937A0080917A0086FD0A
:102CC000FCCF809178002091790090E0922B0895BC
:102CD00090E0FC013197E231F10508F04EC0882701
:102CE000E458FF4F8F4F0C94183D809180008F77F0
:102CF00003C0809180008F7D809380000895809133
:102D00008000877FF9CF84B58F7702C084B58F7D2F
:102D100084BD08958091B0008F7703C08091B0008A
:102D20008F7D8093B0000895809190008F7707C0C9
:102D3000809190008F7D03C080919000877F809369
:102D4000900008958091A0008F7707C08091A00027
:102D50008F7D03C08091A000877F8093A00008959D
:102D6000809120018F7707C0809120018F7D03C063
:102D700080912001877F809320010895CF93DF9376
:102D800090E0FC01EE53FE4F2491FC01E85FFD4F03
:102D90008491882361F190E0880F991FFC01EE5720
:102DA000FD4FC591D491FC01E859FD4FA591B49117
:102DB000611109C09FB7F894888120958223888388
:102DC000EC912E230BC0623061F49FB7F894888198
:102DD000322F309583238883EC912E2B2C939FBF29
:102DE00006C08FB7F894E8812E2B28838FBFDF9120
:102DF000CF9108951F93CF93DF93282F30E0F901EF
:102E0000E458FE4F8491F901EE53FE4FD491F9013D
:102E1000E85FFD4FC491CC23B9F0162F811158DF24
:102E2000EC2FF0E0EE0FFF1FE859FD4FA591B49194
:102E30009FB7F894111104C08C91D095D82302C08B
:102E4000EC91DE2BDC939FBFDF91CF911F91089512
:102E5000CF93DF93282F30E0F901E458FE4F84919F
:102E6000F901EE53FE4FD491F901E85FFD4FC49193
:102E7000CC2389F081112CDFEC2FF0E0EE0FFF1F47
:102E8000E25BFD4FA591B491EC91ED2381E090E0E0
:102E900021F480E002C080E090E0DF91CF910895BE
:102EA000FC0180819181009711F00C94F13D08950F
:102EB000CF93DF93EC0188819981009711F00E94F4
:102EC000F13D198218821D821C821B821A82DF91B9
:102ED000CF9108950F931F93CF93DF93EC018B0154
:102EE0006F5F7F4F888199810E947A3E009731F011
:102EF000998388831B830A8381E001C080E0DF918E
:102F0000CF911F910F910895CF93DF93EC018881AA
:102F10009981892B29F08A819B818617970758F41C
:102F2000CE01D8DF882341F08C819D81892B19F453
:102F3000E881F981108281E0DF91CF910895EF92CD
:102F4000FF920F931F93CF93DF93EC017B018A01D4
:102F5000BA01DADF811103C0CE01AADF07C01D83E9
:102F60000C83B701888199810E94FD3FCE01DF91DA
:102F7000CF911F910F91FF90EF900895FC01118266
:102F8000108213821282158214826115710549F034
:102F9000FB0101900020E9F73197AF01461B570B69
:102FA000CECF0895EF92FF920F931F93CF93DF93AD
:102FB0006115710511F480E01BC041155105B9F090
:102FC0007B01EC018C819D818A01080F191FB801DA
:102FD000CE019ADF882379F3288139818C819D8104
:102FE000B701820F931F0E94FD3F1D830C8381E078
:102FF000DF91CF911F910F91FF90EF900895CF93A4
:10300000DF931F921F92CDB7DEB769831A8241E02A
:1030100050E0BE016F5F7F4FC5DF0F900F90DF91D3
:10302000CF910895FC0180819181009711F00C945B
:103030007E3F60E070E0CB010895EF92FF920F9326
:103040001F93CF93DF93C62F7A01022FFC0160817B
:103050008BE490E10E940D266C2F8BE490E10E949E
:10306000BC25E70110E0CE018E199F09801791075A
:1030700034F469918BE490E10E94BC25F4CF8BE499
:1030800090E1DF91CF911F910F91FF90EF900C9401
:103090009126CF93DF931F92CDB7DEB7498321E00E
:1030A000AE014F5F5F4FC9DF0F90DF91CF91089561
:1030B000FC0124812E7F248321FB442740F950E02A
:1030C000440F551F63E0E5CFCF93DF93EC01688396
:1030D0008BE490E10E94FB25198240E060E0CE0184
:1030E000D8DF8FE38A834FE361E0CE01D2DFCE01E8
:1030F000DFDF8B818E7F8B8340E062E0CE01C9DF12
:1031000064E670E080E090E017DD81E0DF91CF9130
:1031100008956F927F928F929F92AF92BF92CF92BB
:10312000DF92EF92FF920F931F93CF93DF938C0167
:10313000662E6A01722EC0E0C715A0F5D72DDC1BE4
:10314000D13208F0D0E2F80160818BE490E10E9476
:103150000D266C2F660D8BE490E10E94BC258BE45C
:1031600090E10E9491264D2FF80160818BE490E15F
:103170000E948C26812C912CAD2EB12C8C2F880D89
:103180008A149B0414F0CD0FD7CF7601E80EF11C02
:103190008BE490E10E943525F7018083FFEF8F1AC1
:1031A0009F0AECCFDF91CF911F910F91FF90EF908D
:1031B000DF90CF90BF90AF909F908F907F906F9057
:1031C00008958F929F92AF92BF92CF92DF92EF922B
:1031D000FF920F931F93CF93DF93CDB7DEB7F62EF9
:1031E000172F042F8DB69EB6242F220F46FD20E800
:1031F0004DB75EB7421B51090FB6F8945EBF0FBEC4
:103200004DBFEDB7FEB731965F01AF0160E881DFDA
:10321000CF2CD12EE12CF12C10E0E016F1065CF55C
:103220008E2D880FF501E80FF11D618170E0762F7A
:1032300066278081682B94E0660F771F9A95E1F7E7
:1032400024E0759567952A95E1F7072E000C880B09
:10325000990B0E94780E20E030E040E85EE30E9487
:103260002C0FF60161937193819391936F01FFEF9E
:10327000EF1AFF0AD2CF0FB6F8949EBE0FBE8DBED6
:10328000DF91CF911F910F91FF90EF90DF90CF9042
:10329000BF90AF909F908F9008950F93FC0180E0B6
:1032A00092E1AAE7B0E030E0481759076A077B07C8
:1032B00040F4B695A795979587953F5F3630A1F76F
:1032C00037E091E09327222311F020E501C020E7A9
:1032D0000C70892F8695082B022B008391709183A7
:1032E0000F91089520914810222399F04FB7F89438
:1032F00020914810213059F42DB3209346103DB34E
:1033000020914710209523232DBB4FBF02C040932F
:1033100046108CBD9DBD089580914810882361F0B2
:103320009FB7F8942091481080914610213019F4ED
:103330008DBB9FBF08958FBF0895DF92EF92FF92DC
:103340000F931F93CF93DF93EC01FC01EA54FF4FDF
:1033500080819181009739F4FE01E854FF4F80810C
:103360009181009771F0DC01ED91FC910190F08169
:10337000E02DDF91CF911F910F91FF90EF90DF90A3
:103380001994D62E7E01BAEBEB0EF11CF701808169
:103390009181009741F4FE01E454FF4F80819181B7
:1033A000892B09F514C0FE01EB5DFE4F60810E9480
:1033B0000D26D7018D919C91DC01ED91FC9101903E
:1033C000F081E02D6D2D19958C01019719F000E029
:1033D00010E024C061E0F701808191810E941826ED
:1033E0008111D9CF1BC0FE01E154FF4F8081918133
:1033F00079DFC254DF4F888187FD02C060E0FADCCC
:10340000DEBC00000DB407FEFDCF8EB5888187FDC0
:1034100002C061E0EFDC80DF01E010E0C801DF9175
:10342000CF911F910F91FF90EF90DF900895CF9271
:10343000DF92EF92FF920F931F93CF93DF937B0165
:103440008A016A018EE2C81A88EFD80AF801C19190
:10345000D1918F0142E050E069E774E0CE010E9413
:103460000440892B91F00C151D0579F0FE010190A7
:103470000020E9F73197AF014C1B5D0BB701CE017E
:103480000E940440892B11F702C0C0E0D0E0CE01B9
:10349000DF91CF911F910F91FF90EF90DF90CF9030
:1034A00008958F929F92AF92BF92CF92DF92EF9248
:1034B000FF920F931F93CF93DF93EC018B01CB010E
:1034C0000E947E3F4B015C0120E137E240E050E08A
:1034D0000E94DA3C2CAB24E6C22ED12CE12CF12C3C
:1034E000A70196010E94DA3C2DABC501B401A701EA
:1034F00096010E94DA3C6EAB6EE270E0C8010E9459
:10350000E93F01960E94613F98AF8FABFE01EB55FA
:10351000FF4FCF54DF4F88819981AA81BB8180837F
:103520009183A283B383DF91CF911F910F91FF907D
:10353000EF90DF90CF90BF90AF909F908F900895C5
:103540004F925F926F927F928F929F92AF92BF92B3
:10355000EF92FF920F931F93CF93DF93CDB7DEB718
:103560002A970FB6F894DEBF0FBECDBFFB012081B6
:103570002C3209F4A6C08B017C0142E050E0CE0160
:1035800001960E9412401B82CE0101960E947E3F4E
:103590009B01AC0160E876E988E990E00E94AC3CD0
:1035A0002B013C01B8016E5F7F4F42E050E0CE013D
:1035B00001960E941240B8016B5F7F4F44E050E0DB
:1035C000CE0103960E9412401F82CE0101960E94F6
:1035D0007E3F9B01AC01A2E3B0E00E943B3D23E0B3
:1035E00030E040E050E00E94FC3C49015A01F70104
:1035F000EC5BFF4FD301C201820F931FA41FB51FC5
:1036000080839183A283B383C301B20120EA36E8A9
:1036100041E050E00E94FC3CCA01B9010E94780ED2
:103620002B013C01C501B4010E94780E2CE933E561
:1036300049EC56E30E942C0F9B01AC01C301B2017F
:103640000E94750D2B013C01F70164AF75AF86AF89
:1036500097AF20E030E048EC52E40E94DD0D0E947C
:10366000450E4B015C01FCE4EF0EF11C84E6889DE5
:10367000B001899D700D1124072E000C880B990B49
:103680000E94780E9B01AC01C301B2010E94740D2F
:1036900020E030E040E752E40E94DD0D2B013C01C8
:1036A000B401990C880B990B0E94780E9B01AC0118
:1036B000C301B2010E94750DF7016083718382839B
:1036C00093832A960FB6F894DEBF0FBECDBFDF916D
:1036D000CF911F910F91FF90EF90BF90AF909F906F
:1036E0008F907F906F905F904F900895FB012081A5
:1036F0002335F9F4FC01EC58FF4F2083B897408143
:1037000051816281738170584083518362837383D6
:103710003897408151816281738170956095509591
:1037200041955F4F6F4F7F4F408351836283738317
:1037300006C02E3431F4FC01EC58FF4F208381E0A9
:1037400008952C3229F4FC01EC58FF4F1082F7CF7A
:1037500080E008954F925F926F927F928F929F9236
:10376000AF92BF92EF92FF920F931F93CF93DF938D
:10377000CDB7DEB72A970FB6F894DEBF0FBECDBF28
:10378000FB0120812C3209F4A8C08B017C0143E0AD
:1037900050E0CE0101960E9412401C82CE0101969B
:1037A0000E947E3F9B01AC0160E876E988E990E0E9
:1037B0000E94AC3C2B013C01B8016D5F7F4F42E0A1
:1037C00050E0CE0101960E941240B8016A5F7F4F1F
:1037D00044E050E0CE0103960E9412401F82CE01C9
:1037E00001960E947E3F9B01AC01A2E3B0E00E94E3
:1037F0003B3D23E030E040E050E00E94FC3C4901CA
:103800005A01F701E85BFF4FD301C201820F931FFA
:10381000A41FB51F80839183A283B383C301B20128
:1038200020EA36E841E050E00E94FC3CCA01B901C0
:103830000E94780E2B013C01C501B4010E94780E54
:103840002CE933E549EC56E30E942C0F9B01AC01B7
:10385000C301B2010E94750D2B013C01F701E05C30
:10386000FF4F608371838283938320E030E048ECD4
:1038700052E40E94DD0D0E94450E4B015C01F0E513
:10388000EF0EF11C84E6889DB001899D700D112416
:10389000072E000C880B990B0E94780E9B01AC013F
:1038A000C301B2010E94740D20E030E040E752E411
:1038B0000E94DD0D2B013C01B401990C880B990B82
:1038C0000E94780E9B01AC01C301B2010E94750DEC
:1038D000F70160837183828393832A960FB6F894ED
:1038E000DEBF0FBECDBFDF91CF911F910F91FF9033
:1038F000EF90BF90AF909F908F907F906F905F9070
:103900004F900895FB0120812C3239F12735F9F4CD
:10391000FC01EB58FF4F2083B597408151816281B4
:1039200073817058408351836283738338974081D9
:1039300051816281738170956095509541955F4F7B
:103940006F4F7F4F408351836283738306C025345A
:1039500031F4FC01EB58FF4F208381E0089580E0B3
:103960000895FB012081213499F4FC01E958FF4FAF
:1039700021E02083BA96DC01AF54BF4F8D919D9119
:103980000D90BC91A02D80839183A283B38306C048
:10399000263531F4FC01E958FF4F108281E008958B
:1039A00080E008952F923F924F925F927F928F9284
:1039B0009F92AF92BF92CF92DF92EF92FF920F93BE
:1039C0001F93CF93DF93EC0186D81B012C01FE01DE
:1039D000EB54FF4F8081882311F0712C64C18E015C
:1039E0000A541F4FD8018D919C910097A9F0DC01DA
:1039F000ED91FC910084F185E02D1995892B69F3F7
:103A0000F80180819181DC01ED91FC910284F385C4
:103A1000E02D1995782E01C0712C8E0108541F4F8E
:103A2000F801808191810097A9F0DC01ED91FC9172
:103A30000084F185E02D1995892B09F434C1F80132
:103A400080819181DC01ED91FC910284F385E02D70
:103A50001995782E5E01BAEBAB0EB11CD501ED9134
:103A6000FC91309709F462C07E01B9EBEB1ABEEF0E
:103A7000FB0AD7019C918E010A5B1E4FD8018C91E5
:103A8000891764F0FE01E90FF11D97FDFA95EA5DD3
:103A9000FE4F70809F5FF701908348C021E030E0C7
:103AA00040E250E060E170E0CF010E949026803259
:103AB00009F0F9C0D8011C9280E2C82ED12CFE0179
:103AC000E85BFE4F4F01D5018D919C91DC01ED919A
:103AD000FC910284F385E02D19958A3021F4F401DC
:103AE00090819D3079F4D4018C93F8019081FE018E
:103AF000E90FF11D97FDFA95EA5DFE4F80839F5F08
:103B0000D8019C93B1E0CB1AD108E9F6F801808185
:103B100081508083811107C0CA5DDE4F88818A3061
:103B200011F48FEF8083D7011C92BDC0FE01E454D5
:103B3000FF4F80819181892B09F43EC05E01BFEB6C
:103B4000AB0EB11C8E0102541F4F99249A946E0142
:103B5000E8EBCE1AEEEFDE0AD5018D919C91C2DB27
:103B6000F801808187FD02C060E044D99EBC00005E
:103B70000DB407FEFDCF7EB4D8018C9187FD02C045
:103B800061E038D9C9DBBAE07B1204C0F60180815C
:103B90008D3011F7E72CF12CC7010E94A63F892B2D
:103BA00029F0FE01E85BFE4F708206C0C7010E944B
:103BB000AC3F892B89F2F5CF8E01065C1D4FD801F1
:103BC0008D919C91FE01E75CFD4F208131E0320F29
:103BD0003083820F911DDC017C928081883710F048
:103BE00087E78083BAE07B124AC02081D8018D919B
:103BF0009C91820F911DDC011C92D8016D917C91EA
:103C00001197AE01475B5E4F9E012F533E4FCE0191
:103C1000845C9D4F6417750731F42D933C93DC0150
:103C20006D937C9306C0D8014D935C93DC012D937A
:103C30003C931082FE01E25CFD4F81E080830E9494
:103C40006B15FE01E355FF4F60837183828393837D
:103C5000CF54DF4F80913E0F90913F0FA091400FC6
:103C6000B091410F88839983AA83BB8310923E0F42
:103C700010923F0F1092400F1092410F14C080918C
:103C80003E0F90913F0FA091400FB091410F892BB3
:103C90008A2B8B2B41F420923E0F30923F0F4092A3
:103CA000400F5092410F872DDF91CF911F910F91BF
:103CB000FF90EF90DF90CF90BF90AF909F908F904C
:103CC0007F905F904F903F902F900895FC01DC0112
:103CD000AA54BF4F11961C921E92129611961C92D6
:103CE0001E92129611961C921E92129611961C927A
:103CF0001E92AE57BE4F1C92A958B1401C92AC57B1
:103D0000BE4F1C921196875B9E4F11969C938E938B
:103D1000129688589F4F11969C938E93A25CB14047
:103D20001C9211971C9211971C9213AE12AE11AEF9
:103D300016AA15AA14AA12971C9211971C921197F1
:103D40001C9213961C9210AE17AA17971D921D92E3
:103D50001D921C92139714971D921D921D921C92F6
:103D6000139714971D921D921D921C9213971497EE
:103D70001D921D921D921C92139714971D921D92D5
:103D80001D921C92139714971D921D921D921C92C6
:103D9000139714971D921D921D921C9213971497BE
:103DA0001D921D921D921C92139754971D921D9265
:103DB0001D921C92139714AE15AE16AE17AE089551
:103DC000EF92FF920F931F93CF93DF93EC017B0150
:103DD0001B821A828DEF94E0998388831D821C8256
:103DE0001E821F82188684E1FE013996DF01982F1A
:103DF0001D929A95E9F71D8E1E8E1F8E7796DF0114
:103E00001D928A95E9F7DE01A957BF4F8AE0E0E2EB
:103E1000F2E001900D928A95E1F7DE01AF56BF4FB7
:103E20008AE0EAE2F2E001900D928A95E1F7FE0164
:103E3000E556FF4F88E794E091838083329680E0D7
:103E400094E9A5E3B7E780839183A283B383349693
:103E500080839183A283B383349680839183A283EA
:103E6000B383349680839183A283B3833496808313
:103E70009183A283B383349680839183A283B38397
:103E80003D961FEF108300E021E040E452E46FE034
:103E900070E0CE0181549F4F00DAFE01EA5BFE4FD5
:103EA00010833196108231961082EF50FF4F1082AE
:103EB000CE010CDFC854DF4FF982E882DF91CF9149
:103EC0001F910F91FF90EF900895825C9D4FFC0130
:103ED00080810895FC01E25CFD4F10823297808161
:103EE00091810895603358F06A3310F480ED05C075
:103EF0008FEB860F863018F489EC860F089580E0EA
:103F00000895CF92DF92EF92FF920F931F93CF937A
:103F1000DF93EC011D821C82FB0180818432C1F49D
:103F200081E090E09D838C83CB017C010196F701B9
:103F300020812111FACFF70180818A3259F06E1564
:103F40007F0530F4F1E0EF1AF108F5CF892BE1F0AD
:103F500080E05EC08B01F7016181CE01C3DFF0E13B
:103F60008F9F60011124F7016281CE01BBDF9601B2
:103F7000280F311DC9010F5F1F4FF801EE15FF0516
:103F800028F721918227FACF83E090E09D838C83EC
:103F9000AE0149575F4FB801CE0149DA7C01009765
:103FA000B9F2BC01CE0106960E94FD3F8DE090E083
:103FB0009D838C83F70101900020E9F73197EE197A
:103FC000FF090E0F1F1FAE014F565F4FB801CE0104
:103FD0002EDA009751F0BC01CE0109960E94FD3FF8
:103FE00089E490E09D838C8312C0AE0145565F4FFB
:103FF000B801CE011CDA009751F0BC01CE01099640
:104000000E94FD3F81E290E09D838C83A1CF81E0FF
:10401000DF91CF911F910F91FF90EF90DF90CF90A4
:1040200008954F925F926F927F928F929F92AF927C
:10403000BF92DF92EF92FF920F931F93CF93DF9384
:10404000EC018B015EDFD82E811102C0D12C35C26C
:104050006CE270E0C8010E94E93F8C010F5F1F4FC6
:104060007E0189E0E80EF11C68E874E0C7010E9457
:10407000F43F892B09F0ADC0B801CE0112DA6CE231
:1040800070E0C8010E94E93F8C010F5F1F4FB8012B
:10409000CE0156DA6CE270E0C8010E94E93F8C0163
:1040A0000F5F1F4FB801CE0121DB882379F26CE24C
:1040B00070E0C8010E94E93F8C010F5F1F4FB801FB
:1040C000CE0148DB6CE270E0C8010E94E93F8C0140
:1040D0000F5F1F4FB801CE0115DC882309F4B6CF5E
:1040E0006CE270E0C8010E94E93F8C010F5F1F4F36
:1040F000FC0181818C32C1F0C8010E94613FFE0148
:10410000E858FF4F80833197882369F081E08083EE
:10411000FA9680819181A281B38170978083918387
:10412000A283B38301C010826CE270E0C8010E94D8
:10413000E93F8C010F5F1F4FFC0181818C3239F008
:10414000C8010E94613FFE01E658FF4F80836CE288
:1041500070E0C8010E94E93F8C010F5F1F4FFC0116
:1041600081818C3251F0C8010E945E3FFE01E85906
:10417000FF4F60837183828393836CE270E0C80198
:104180000E94E93F8C010F5F1F4FFC0181818C323F
:1041900051F0C8010E945E3FFE01E85AFF4F608364
:1041A0007183828393836CE270E0C8010E94E93FCF
:1041B0006CE270E001960E94E93FFC0121812C3203
:1041C00009F467C101960E945E3FFE01EC5AFF4F61
:1041D0005CC164E974E0C7010E94F43F892B09F0D7
:1041E000A5C0B801CE015DD96CE270E0C8010E94A3
:1041F000E93F8C010F5F1F4FB801CE01B2DB88236E
:1042000009F424CF6CE270E0C8010E94E93F8C0100
:104210000F5F1F4FB801CE0193D96CE270E0C80167
:104220000E94E93F8C010F5F1F4FB801CE015EDA9B
:10423000882309F40BCF6CE270E0C8010E94E93FCB
:104240008C010F5F1F4FB801CE0184DA6CE270E081
:10425000C8010E94E93F8C010F5F1F4FB801CE01DA
:1042600051DB882309F4F2CE6CE270E0C8010E94B1
:10427000E93F8C010F5F1F4FFC0181818C3251F0AF
:10428000C8010E945E3FFE01E45AFF4F60837183C4
:10429000828393836CE270E0C8010E94E93F8C0145
:1042A0000F5F1F4FFC0181818C3251F0C8010E94C9
:1042B0005E3FFE01E05AFF4F6083718382839383E8
:1042C0006CE270E0C8010E94E93FFC0121812C32C0
:1042D00009F4DFC001960E945E3F0E944A0E2B0146
:1042E0003C0120E137E240E050E00E94DA3C2BAF95
:1042F00024E6822E912CA12CB12CA50194010E94C0
:10430000DA3C2AAFC301B201A50194010E94DA3C54
:1043100069AFFE01EF54FF4F80819181A281B3818B
:10432000389780839183A283B383B3C06CE874E031
:10433000C7010E94F43F892B09F042C0B801CE01A9
:10434000FFD86CE270E0C8010E94E93F8C010F5F6A
:104350001F4FB801CE01CAD9882309F477CE6CE289
:1043600070E0C8010E94E93F8C010F5F1F4FB80148
:10437000CE01F0D96CE270E0C8010E94E93F8C01E7
:104380000F5F1F4FB801CE01BDDA882309F45ECE5E
:104390006CE270E0C8010E94E93F8C010F5F1F4F83
:1043A000B801CE017ED86CE270E0C8010E94E93FFE
:1043B000BC016F5F7F4FCE01D4DA81116AC046CE57
:1043C00060E974E0C7010E94F43F892B09F03ECEFA
:1043D0006CE270E0C8010E94E93F8C010F5F1F4F43
:1043E000FC0181818C3239F0C8010E94613FFE01DD
:1043F000E758FF4F80838CE0A82EB12C6CE270E070
:10440000C8010E94E93F8C010F5F1F4FF1E0AF1A16
:10441000B108A1F76CE270E0C8010E94E93F8C018D
:104420000F5F1F4FFC0181818C3251F0C8010E9447
:104430005E3FFE01E059FF4F608371838283938367
:104440006CE270E0C8010E94E93F8C010F5F1F4FD2
:10445000FC0181818C3251F0C8010E945E3FFE0157
:10446000E859FF4F60837183828393836CE270E02D
:10447000C8010E94E93FFC0121812C3251F00196D4
:104480000E945E3FFE01E459FF4F60837183828387
:104490009383BE016A5F7F4FCE014D960E94FD3F20
:1044A000B701CE0180960E94FD3F0E946B15C35656
:1044B000DF4F688379838A839B838D2DDF91CF9132
:1044C0001F910F91FF90EF90DF90BF90AF909F9062
:1044D0008F907F906F905F904F900895CF93DF9370
:1044E0001F92CDB7DEB7FC0119826370668BDC01C9
:1044F000AA5BBF4F8C91982F9B7FAF014C5B5F4FA6
:10450000913029F4623008F493E0DA019C939F0122
:104510002D5B3F4F6230D9F0633009F43FC061300A
:1045200071F0823011F0843029F490EC998381305D
:1045300019F415C098EC10C08430B1F01CC0823062
:1045400011F0843011F490EA2EC098EA35C0823020
:1045500091F0843049F098E09983813061F480E8EB
:1045600090E0938782870DC080EA90E093878287EE
:1045700080E590E006C080EA90E09387828780E83B
:1045800090E091878087D9018C9190E092AF81AFC4
:10459000DA018C9190E094AF83AF2DC0823011F09E
:1045A000843049F490E69983813051F480E890E0BA
:1045B0009187808714C098E69983813051F4F6CFB3
:1045C000843039F480EA90E09187808780E590E03C
:1045D00006C080EA90E09187808780E890E093872A
:1045E0008287D9018C9190E094AF83AFDA018C91EE
:1045F00090E092AF81AF21E0AE014F5F5F4F66E385
:10460000CF010E943C360F90DF91CF910895EF9239
:104610000F93CF93DF93EC01E22E042F262F40EA75
:1046200050E060E870E0B7D089E095E09983888336
:10463000DF91CF910F91EF900895411551056105DC
:10464000710521F440E058E468EE71E0FC01FF964A
:10465000408351836283738321E2FC0125AF20E212
:1046600026AFEB5BFF4F20810C9467348F929F92B3
:10467000AF92BF92CF92DF92EF92FF920F931F9370
:10468000CF93DF93EC0189AD9AAD4B01880E991E53
:104690008BAD9CAD480F591FC9010197880D991D1D
:1046A000A0E0B0E0A12CB12C540199248824882AE0
:1046B000992AAA2ABB2A015011096801C40ED51EE5
:1046C000860120E030E06A01E12CF12C7601DD2446
:1046D000CC24C02AD12AE22AF32A6AE2CE010E941F
:1046E000D635B501A401CE010E9411376BE2CE018F
:1046F0000E94D635B701A601CE010E9411376CE2A7
:10470000CE01DF91CF911F910F91FF90EF90DF903D
:10471000CF90BF90AF909F908F900C94D635CF9351
:10472000DF931F92CDB7DEB7FC0119826370668BF1
:104730008D5B9F4FAF014C5B5F4F623049F0633040
:1047400091F0613019F020EC298302C020EA0CC0FE
:10475000DC018C9190E092AF81AFDA018C9190E016
:1047600094AF83AF0CC020E62983DC018C9190E0EC
:1047700094AF83AFDA018C9190E092AF81AF21E0EA
:10478000AE014F5F5F4F66E3CF010E943C360F9052
:10479000DF91CF910895EF920F93CF93DF93EC01C8
:1047A0000E945A3489E395E099838883FE01ED5B8A
:1047B000FF4F108231961082CB5BDF4F1882DF9162
:1047C000CF910F91EF900895AF92BF92CF92DF9269
:1047D000EF92FF920F931F93CF93DF93EC01E62E9E
:1047E000A72EF42EB52E69018FEF9FEF9D838C834A
:1047F0009F838E8361E08E2D0E94BE1660E08F2D18
:104800000E94BE16E882A982FA82BB82DD82CC8237
:104810001F830E83DF91CF911F910F91FF90EF9037
:10482000DF90CF90BF90AF900895CF92DF92EF923C
:10483000FF92CF93DF93EC0160E088810E94FA162B
:1048400085E090E00E94D61561E088810E94FA160A
:104850008AE090E00E94D61560E088810E94FA16F6
:104860008A810E942817892BD9F30E9477156B0142
:104870007C018A810E9428170197D9F30E9477153D
:10488000CB018C199D09DF91CF91FF90EF90DF90C4
:10489000CF900895CF93DF93EC01C7DF97FD01968A
:1048A000BC0175956795072E000C880B990B0E942B
:1048B000780E27EE3BEF49EA5EE30E942C0F0E9440
:1048C000450E9B014C815D814F3FAFEF5A0721F4AC
:1048D000EE81FF81319659F0421753072CF44E8137
:1048E0005F81241735071CF08FEF9FEF01C0CB01CC
:1048F000DF91CF9108951F920F920FB60F9211245E
:104900000BB60F922F933F934F935F936F937F93C9
:104910008F939F93AF93BF93EF93FF93E0914410D6
:10492000F0914510309709F44FC0968DA685B78554
:10493000858591FF04C09C91892329F445C09C91F1
:10494000892309F041C0A389B4899C918589809508
:1049500089238C93868997890197F1F7608D718DF2
:10496000A685B785558538E020E0CB010197F1F7A2
:10497000822F90E095958795282F4C91452309F03B
:104980002068315091F7868D81FD20958091430FED
:1049900090E001963091420F381749F0A091430FF3
:1049A000B0E0AC5BB04F2C938093430F03C0868D77
:1049B0008160868F828D938D0197F1F7A389B489E9
:1049C0009C918589892B8C93FF91EF91BF91AF9139
:1049D0009F918F917F916F915F914F913F912F9117
:1049E0000F900BBE0F900FBE0F901F901895CF9396
:1049F000CFB7F89480914910811127C0EDE3F2E020
:104A00008491E7EFF1E09491E82FF0E0EE0FFF1FC3
:104A1000EE57FD4FA591B491EC91E92321F461E0AB
:104A200085E30E94FA1661E085E30E94BE168CB50C
:104A300080618CBD8CB580648CBD61E084E30E9494
:104A4000BE1661E083E30E94BE16809149108F5F1D
:104A500080934910CFBFCF91089580917F1090E04F
:104A600020918010821B910908959091801080916F
:104A70007F10981750F4E92FF0E0EF57FF4E208198
:104A800030E09F5F9093801002C02FEF3FEFC9018D
:104A90000895E091801080917F10E81730F4F0E0E5
:104AA000EF57FF4E808190E008958FEF9FEF0895BC
:104AB0000895CF93DF93EC01E0915710F0915810D7
:104AC0003097F1F09091801080917F109817C0F08E
:104AD00090E0292F30E02617370754F4DE01A20FAB
:104AE000B31F4C91D901AF57BF4E4C939F5FF1CF8D
:104AF0001092801060937F10CB01DF91CF911994B9
:104B0000DF91CF910895E0915910F0915A103097AC
:104B100029F010925D1010925C1019940895CF92B4
:104B2000DF92EF92FF920F931F93CF93DF937C015D
:104B3000CB018A0120915B10222389F0EB016B01EC
:104B4000C40ED51ECC15DD0569F06991D701ED9134
:104B5000FC910190F081E02DC7011995F3CF642FEE
:104B60000E943C3BC801DF91CF911F910F91FF90B4
:104B7000EF90DF90CF900895CF93DF931F92CDB742
:104B8000DEB7698320915B102223D1F020915C1065
:104B9000203240F021E030E0FC013383228380E0CA
:104BA00090E015C080915D10E82FF0E0E25AFF4ED2
:104BB000998190838F5F80935D1080935C1005C016
:104BC00061E0CE0101960E943C3B81E090E00F90B5
:104BD000DF91CF910895FC011382128288EE93E059
:104BE000A0E0B0E084839583A683B78389E695E04F
:104BF0009183808308951092801010927F101092FC
:104C00005D1010925C100E94803A83E895E20E9449
:104C1000693B89E595E20C94643B81E080935B10ED
:104C200060937E1010925D1010925C100895F5CF85
:104C30000F93062F21E040915C106EE570E18091AA
:104C40007E100E94E63A10925D1010925C10109255
:104C50005B100F9108954F925F926F927F92AF9287
:104C6000BF92CF92EF92FF920F931F93CF93DF9358
:104C70005C01F62ED42F28013901EE2011F1CDDF91
:104C8000CE2DC43008F0C3E0C150C0F028E0C29F70
:104C9000C0011124A301920104C056954795379590
:104CA00027958A95D2F7CA01B901D501ED91FC91FA
:104CB0000190F081E02DC5011995E6CF60E0C501B6
:104CC000B7DF4D2FD13208F040E22C2D61E870E1C2
:104CD0008F2D0E949E3A1092801080937F10DF915A
:104CE000CF911F910F91FF90EF90CF90BF90AF9019
:104CF0007F906F905F904F900895CF92EF920F93B7
:104D00001F93C22EE12C00E010E09801A4DF1F9158
:104D10000F91EF90CF90089521E0EFCF21E0EDCFFC
:104D2000ECCF61E085CF8BE490E155CF885E9E4F5C
:104D3000DC018D919C91DC01ED91FC910084F18569
:104D4000E02D1994885E9E4FDC018D919C91DC01D1
:104D5000ED91FC910190F081E02D1994885E9E4FB9
:104D6000DC018D919C91DC01ED91FC910284F38535
:104D7000E02D1994885E9E4FDC018D919C91DC01A1
:104D8000ED91FC910484F585E02D1994885E9E4F89
:104D9000DC018D919C91DC01ED91FC910680F78105
:104DA000E02D1994FC011382128288EE93E0A0E0BA
:104DB000B0E084839583A683B78382ED95E09183E9
:104DC00080836487DF01A35FBE4F89E294E0119680
:104DD0009C938E93129611961C921E921296119687
:104DE0001C921E92179611961C921E9215971C9259
:104DF000119684E294E08D939C93EA5EFE4F81E2EB
:104E000094E09183808308950F931F93CF93DF9352
:104E1000EC0180E090E08C010F5F1F4F8897D8F481
:104E2000E881F9810084F185E02DCE011995892B67
:104E300051F0E881F9810284F385E02DCE011995C6
:104E400000E010E0EDCF61E070E080E090E00E94D3
:104E50009C15C801E0CFDF91CF911F910F9108956C
:104E6000AF92BF92CF92DF92EF92FF920F931F9378
:104E7000CF93DF93EC018B016C018EE0C80ED11C47
:104E8000E12CF12C5E01A8EEAA1AAEEFBA0A0E15BB
:104E90001F0519F1BEEFEB16F104E9F0F501808171
:104EA0009181DC01ED91FC910084F185E02D199553
:104EB000892B69F3F50180819181DC01ED91FC91F1
:104EC0000284F385E02D1995F60181936F01FFEFC0
:104ED000EF1AFF0ADCCF0EEF10E0C00FD11F1E86C5
:104EE000C801DF91CF911F910F91FF90EF90DF905C
:104EF000CF90BF90AF900895BF92CF92DF92EF9284
:104F0000FF920F931F93CF93DF937C01B42E8B01FD
:104F1000C0E0D0E06C0188EEC81A8EEFD80A011507
:104F2000110589F1CE3FD10570F5D6018D919C9187
:104F3000DC01ED91FC910084F185E02D1995892B20
:104F4000C1F0F60180819181DC01ED91FC91028438
:104F5000F385E02D19958D3041F38A3021F42097A7
:104F600021F3BB2081F0F701EC0FFD1F868721960E
:104F7000DCCF0150110939F061E070E080E090E091
:104F80000E949C15CCCFF701EC0FFD1F16868C2FCD
:104F9000DF91CF911F910F91FF90EF90DF90CF9015
:104FA000BF900895EF92FF920F931F93CF93DF93DB
:104FB000EC018B017A0128DF61EB72E081EC9CE06F
:104FC0000E949A13B80181EC9CE00E94F713FE0145
:104FD000E85EFE4FB801808191810E94F71340E0A6
:104FE000B701CE0189DF182F6AEA72E081EC9CE0FC
:104FF0000E949A13BE01625F7F4F81EC9CE00E9489
:10500000F713812FDF91CF911F910F91FF90EF90B8
:105010000895EF92FF920F931F93CF93DF93EC01CC
:105020008B017A01F1DE63EA72E081EC9CE00E9480
:105030009A13B80181EC9CE00E94D713FE01E85E50
:10504000FE4FB801808191810E94D71340E0B701E3
:10505000CE0152DF182F6CE972E081EC9CE00E94D7
:105060009A13BE01625F7F4F81EC9CE00E94F713B0
:10507000812FDF91CF911F910F91FF90EF900895B5
:105080000F931F93CF93DF93EC018A01A901C1DF36
:10509000882341F0B801CE010E960E94B43F21E072
:1050A000892B09F020E0822FDF91CF911F910F9182
:1050B0000895BF92CF92DF92EF92FF920F931F93CA
:1050C000CF93DF93EC016C0188EEC81A8EEFD80AFB
:1050D000D6016D937C9361E08C850E94BE1661E0E1
:1050E0008C850E94FA166AE070E080E090E00E94F1
:1050F0009C1560E08C850E94FA1664E670E080E002
:1051000090E00E949C1561E08C850E94FA1660E098
:1051100074E081EC9CE00E94D7138EE0E82EF12C25
:105120008E010A5E1E4FF60180819181DC01ED91B6
:10513000FC910084F185E02D1995892B59F0F60139
:1051400080819181DC01ED91FC910284F385E02D59
:105150001995E9CFF8014081518124EF31E06DEFDD
:1051600073E0CE018DDF81115FC0D6018D919C91DE
:10517000DC01ED91FC910084F185E02D1995892BDE
:1051800059F0F60180819181DC01ED91FC9102845E
:10519000F385E02D1995E9CF24EF31E04AEF53E094
:1051A00067EF73E0CE016CDF81113EC064EF71E008
:1051B00080E090E00E949C15B1E0EB1AF10809F044
:1051C000B2CF65EC73E081EC9CE00E94D713F8014C
:1051D0004081518124EF31E062EC73E0CE0150DF79
:1051E00064E670E080E090E00E949C15D8014D914B
:1051F0005C9124EF31E06FEB73E0CE0141DF64E6B8
:1052000070E080E090E00E949C15F801408151819F
:1052100024EF31E06CEB73E0CE0132DF64E670E046
:1052200080E090E00E949C15F8014081518124EFBC
:1052300031E067EB73E0CE0123DF64E670E080E0ED
:1052400090E00E949C15D8014D915C9124EF31E0D3
:1052500062EB73E0CE0114DFB82E882309F49DC001
:10526000F8014081518124EF31E068EA73E0CE011A
:1052700007DF64E670E080E090E00E949C15CE01BC
:10528000C3DD61EA73E081EC9CE00E949A1369E857
:1052900075E081EC9CE00E94F71369E875E0D601A7
:1052A0008D919C910E94F71341E064EF71E0CE0173
:1052B00023DE6AE973E081EC9CE00E949A137E0190
:1052C000BEE0EB0EF11CB70181EC9CE00E94F713ED
:1052D0006FE873E0C7010E94C63F892B11F083E09D
:1052E00023C064E873E0C7010E94C63F892B11F018
:1052F00082E01AC069E773E0C7010E94C63F892BAC
:1053000011F081E011C069E673E0C7010E94C63F59
:10531000892B11F084E008C069E573E0C7010E94A1
:10532000C63F892B11F085E08D878D85813061F531
:1053300062E573E081EC9CE00E949A136DE875E0F1
:1053400081EC9CE00E94F7136DE875E0F601808126
:1053500091810E94F71341E064EF71E0CE01CCDD52
:105360006BE473E081EC9CE00E949A13B70181EC3E
:105370009CE00E94F71363E473E0C7010E94C63FFC
:10538000892B11F086E08D87D8014D915C9124EF37
:1053900031E06CE273E0CE0173DE8B2DDF91CF91B3
:1053A0001F910F91FF90EF90DF90CF90BF900895E5
:1053B0000F931F93CF93DF93EC018A01A901F2DDD4
:1053C000882341F0B801CE010E960E94B43F21E03F
:1053D000892B09F020E0822FDF91CF911F910F914F
:1053E0000895AF92BF92CF92DF92EF92FF920F9308
:1053F0001F93CF93DF93CDB7DEB76E970FB6F894B8
:10540000DEBF0FBECDBF8C015B016A01FC01EA5E0D
:10541000FE4F4081518124EF31E068EC72E030DED4
:10542000882309F483C08AE0E5E6F2E09E012F5F5D
:105430003F4F7901D90101900D928A95E1F7FE0164
:105440003B9684E1DF011D928A95E9F743E150E044
:10545000B501CE010A960E941240F701019000208A
:10546000E9F7319782E2808324EF31E045EC52E0A6
:10547000B701C8019DDF882309F458C062EC72E0CF
:1054800081EC9CE00E949A13B60181EC9CE00E94A2
:10549000F713B6017801B8EEEB1ABEEFFB0AF7017D
:1054A000808191810E94F713D7018D919C910E9478
:1054B000D413F70180819181DC01ED91FC91019081
:1054C000F081E02D6AE1199566EA75E081EC9CE0D7
:1054D0000E94F713F80185858450823050F440E033
:1054E00068EC70E0C80108DD40E068EC70E0C801DD
:1054F00003DD40E060E177E2C801FEDC7801FEE018
:10550000EF0EF11C69EA75E0C7010E942140892B6A
:1055100069F040E068EE73E0C801EEDC6CE775E02E
:10552000C7010E94F43F21E0892B09F020E0822F7F
:105530006E960FB6F894DEBF0FBECDBFDF91CF9150
:105540001F910F91FF90EF90DF90CF90BF90AF90A1
:105550000895DF92EF92FF920F931F93CF93DF9303
:10556000CDB7DEB72C970FB6F894DEBF0FBECDBF18
:105570008C01D62E7C018AEEE81A8EEFF80AF7012C
:105580004081518124EF31E068EB72E0C80178DDA1
:10559000882311F18CE0EFEAF5E0DE01119601902D
:1055A0000D928A95E1F78D2D64E60E94BB3C20E3C5
:1055B000280F2987892F6AE00E94BB3C805D8A877B
:1055C000905D9B87F7014081518120ED37E0BE015E
:1055D0006F5F7F4FC801ECDE2C960FB6F894DEBFEC
:1055E0000FBECDBFDF91CF911F910F91FF90EF9034
:1055F000DF900895AF92BF92CF92DF92EF92FF9229
:105600000F93CF93DF935B016A01E22E0E960E9407
:10561000C63FEC01892BC1F0C5010E94BD3F8C0F34
:105620009D1FC0E0F12CC01741F0B7010E94E93F77
:10563000009751F00196CF5FF6CF0E94613FF601CF
:105640009183808381E001C080E0DF91CF910F9151
:10565000FF90EF90DF90CF90BF90AF9008955F9252
:105660006F927F928F929F92AF92BF92CF92DF9272
:10567000EF92FF920F931F93CF93DF931F921F928E
:10568000CDB7DEB73C01F62E6A01490158018C0105
:105690000A5E1E4FF8014081518124EF31E062E241
:1056A00073E0EEDC811102C0512C6DC0F801408125
:1056B000518124EF31E068E173E0C301E1DC88232C
:1056C00099F31A8219826FE073E081EC9CE00E94EA
:1056D0009A134AE050E06F2D81EC9CE00E94711417
:1056E00066E073E08301085E1E4FF80180819181BE
:1056F0000E949A134AE050E06F2DF8018081918159
:105700000E94711440E068EE73E0C301F5DB7301A1
:10571000FEE0EF0EF11CB70181EC9CE00E94F71354
:105720000BE02CE2AE014F5F5F4F6FEF72E0C30101
:1057300061DF582E811104C0F5011182108223C04F
:1057400069817A81C3018CDBC3015EDBF7010190C3
:105750000020E9F731978F010E191F098016910675
:1057600008F48401A801B701C6010E941240F601A5
:10577000E00FF11F1082B70181EC9CE00E94F7134B
:10578000F50111830083852D0F900F90DF91CF914C
:105790001F910F91FF90EF90DF90CF90BF90AF904F
:1057A0009F908F907F906F905F9008958F929F92BF
:1057B000AF92BF92CF92DF92EF920F931F93CF934E
:1057C000DF934B01EA0169010E960E94C63F5C011E
:1057D000892BA9F1C4010E94BD3F8A0D9B1D10E0D9
:1057E000A02EB12C1E1103C070E060E022C0B501F4
:1057F0000E94E93F009719F101961F5FF3CF262F12
:1058000030E0FC0101900020E9F73197E81BF90B2B
:105810002E173F07B0F4FC01E20FF31F208102179F
:1058200081F0223229F0FE01E40FF51F20837F5F13
:105830006F5F472F50E04C155D050CF306C080E00C
:1058400005C0FE01E40FF51F108281E0DF91CF91CA
:105850001F910F91EF90DF90CF90BF90AF909F90EE
:105860008F900895AF92BF92CF92DF92EF92FF9206
:105870000F931F93CF93DF93EC01F62E6A0159012A
:105880008C010A5E1E4FF8014081518124EF31E006
:1058900065EF72E0F5DB811102C080E043C0F801E2
:1058A0004081518124EF31E06BEE72E0CE01E8DB04
:1058B000882399F362EE72E081EC9CE00E949A13D7
:1058C0004AE050E06F2D81EC9CE00E9471148E0143
:1058D000085E1E4F69ED72E0F801808191810E949F
:1058E0009A134AE050E06F2DF801808191810E9467
:1058F000711440E068EE73E0CE01FEDABE01625F33
:105900007F4F81EC9CE00E94F713EE24E3940CE2BD
:105910009501A60162ED72E0CE0148DF182FCE019D
:1059200073DA812FDF91CF911F910F91FF90EF904C
:10593000DF90CF90BF90AF9008950E945A3F089596
:1059400008951F920F920FB60F9211240BB60F926B
:105950002F933F934F935F936F937F938F939F9377
:10596000AF93BF93EF93FF93E0911402F091150270
:105970001995FF91EF91BF91AF919F918F917F9179
:105980006F915F914F913F912F910F900BBE0F90B0
:105990000FBE0F901F9018951F920F920FB60F9287
:1059A00011240BB60F922F933F934F935F936F93F6
:1059B0007F938F939F93AF93BF93EF93FF93E09168
:1059C0001602F09117021995FF91EF91BF91AF91D7
:1059D0009F918F917F916F915F914F913F912F9107
:1059E0000F900BBE0F900FBE0F901F9018951F9237
:1059F0000F920FB60F9211240BB60F922F933F9375
:105A00004F935F936F937F938F939F93AF93BF93C6
:105A1000EF93FF93E0911802F09119021995FF910D
:105A2000EF91BF91AF919F918F917F916F915F9116
:105A30004F913F912F910F900BBE0F900FBE0F9083
:105A40001F9018951F920F920FB60F9211240BB64C
:105A50000F922F933F934F935F936F937F938F9307
:105A60009F93AF93BF93EF93FF93E0911A02F0914E
:105A70001B021995FF91EF91BF91AF919F918F916B
:105A80007F916F915F914F913F912F910F900BBE3E
:105A90000F900FBE0F901F9018951F920F920FB688
:105AA0000F9211240BB60F922F933F934F935F9356
:105AB0006F937F938F939F93AF93BF93EF93FF93D6
:105AC000E0911002F09111021995FF91EF91BF91B1
:105AD000AF919F918F917F916F915F914F913F9186
