S01800004F63637570616E63795F736B657463682E7372656386
S1130000A1C400000C94802E0C94AB2E0C94D62E1C
S11300100C94012F0C942C2F0C94572F0C94822F9A
S11300200C94AD2F0C945A260C945A260C945A26F0
S1130030BAC40000B8C40000B6C40000B4C40000D0
S1130040B2C40000B0C40000AEC40000ACC40000E0
S1130050AAC40000A8C40000A6C400000C940017A1
S1130060A2C400000C94D9120C940F139CC4000079
S11300709AC4000098C4000096C4000094C4000010
S113008092C4000090C400008EC400008CC4000020
S11300900C946E130C94A41386C400000C945D3D60
S11300A082C4000080C400007EC400007CC4000040
S11300B07AC4000078C4000076C4000074C4000050
S11300C072C4000070C400006EC400000C940314D9
S11300D00C94391468C400000C9498140C94CE1435
S11300E062C40000020BAB0BF00BCB0DCB0D220C4A
S11300F0840CDF0C210D850D6218651854185818EE
S11301005E189C1869186D18731877187B18811875
S1130110851889189C188F18931897186364696E4A
S11301206F70737578585B004E414E494E4954596F
S1130130494E46CDCCCC3D0AD7233C17B7D13877AE
S1130140CC2B329595E6241FB14F0A0000204100C4
S113015000C84200401C4620BCBE4CCA1B0E5AAE0E
S1130160C59D7441542B434D47443D3F0D0A0053F4
S1130170657474696E672075700000000A0B0209CB
S11301800C0D0E080703040100000000000000002D
S1130190000000000000000000000000000000005B
S11301A00000000000001211100000000000000018
S11301B0000000000000000000000000000000003B
S11301C00102102020080810204010204080020165
S11301D0020108040201010204081020408080404A
S11301E02010080402018004020180402010080449
S11301F002010804020101020408102040800102E7
S113020004081020408005050505070508080808AE
S1130210020202020A0A080804040404010101019A
S11302200101010103030303030303030407070795
S11302300C0C0C0C0C0C0C0C02020202060606063A
S1130240060606060B0B0B0B0B0B0B0B000020001A
S11302502300260029002C002F003200000100009A
S113026003010601090100002200250028002B00DB
S11302702E003100340002010000050108010B01C9
S113028000002100240027002A002D003000330044
S113029001010000040107010A01093C2D2D2D2054
S11302A000092D2D2D3E2000093C2D2D2D20000967
S11302B02D2D2D3E200041542B434D47463D31000A
S11302C03E20003E200041542B434D47463D310023
S11302D02B434D47523A0041542B434D47523D0066
S11302E041542B434D47523D0041542B4353444802
S11302F03D310041542B434D47463D31002B434D86
S113030047523A0041542B434D47523D0041542B30
S1130310434D47523D0041542B435344483D310023
S113032041542B434D47463D310041542B43504DDE
S1130330533D22534D222C22534D222C22534D2225
S11303400053494D3830304800093C2D2D2D2000F4
S1130350092D2D2D3E200053494D434F4D5F5349E8
S11303604D35333230450053494D434F4D5F53496A
S11303704D35333230410053494D383030205231FD
S1130380330053494D383038205231330053494DEE
S11303903830382052313400093C2D2D2D200009ED
S11303A02D2D2D3E200041542B435648553D300001
S11303B041544530004154453000415400415400FB
S11303C041540054696D656F75743A204E6F207204
S11303D06573706F6E736520746F2041542E2E2EDA
S11303E0206C61737420646974636820617474653B
S11303F06D70742E00415400415400415400417406
S113040074656D7074696E6720746F206F70656EAB
S113041020636F6D6D207769746820415473004FB9
S11304204B00464F4E4100464F4E416E65740000EE
S1130430000000003E5B4F5B3E3E6B4F6B3E1C3E3C
S11304407C3E1C183C7E3C181C577D571C1C5E7F50
S11304505E1C00183C1800FFE7C3E7FF00182418CF
S113046000FFE7DBE7FF30483A060E262979292604
S1130470407F050507407F05253F5A3CE73C5A7FEE
S11304803E1C1C08081C1C3E7F14227F22145F5F44
S1130490005F5F06097F017F006689956A6060607E
S11304A0606094A2FFA29408047E040810207E20B9
S11304B01008082A1C08081C2A08081E101010100E
S11304C00C1E0C1E0C30383E3830060E3E0E060054
S11304D00000000000005F00000007000700147F18
S11304E0147F14242A7F2A1223130864623649567F
S11304F020500008070300001C2241000041221C78
S1130500002A1C7F1C2A08083E080800807030005E
S11305100808080808000060600020100804023E73
S11305205149453E00427F400072494949462141B4
S1130530494D331814127F1027454545393C4A4923
S11305404931412111090736494949364649492962
S11305501E00001400000040340000000814224172
S11305601414141414004122140802015909063EFB
S1130570415D594E7C1211127C7F494949363E41F6
S11305804141227F4141413E7F494949417F090917
S113059009013E414151737F0808087F00417F41B2
S11305A0002040413F017F081422417F40404040E9
S11305B07F021C027F7F0408107F3E4141413E7F41
S11305C0090909063E4151215E7F09192946264938
S11305D049493203017F01033F4040403F1F20400F
S11305E0201F3F4038403F63140814630304780419
S11305F0036159494D43007F4141410204081020E1
S1130600004141417F040201020440404040400057
S11306100307080020545478407F28444438384461
S1130620444428384444287F385454541800087EDD
S1130630090218A4A49C787F0804047800447D402F
S1130640002040403D007F1028440000417F4000CE
S11306507C047804787C080404783844444438FCE6
S11306601824241818242418FC7C0804040848546A
S113067054542404043F44243C4040207C1C204027
S1130680201C3C4030403C44281028444C9090901E
S11306907C4464544C440008364100000077000058
S11306A0004136080002010204023C2623263C1EB7
S11306B0A1A161123A4040207A3854545559215529
S11306C05579412254547842215554784020545548
S11306D079400C1E52721239555555593954545497
S11306E05939555454580000457C410002457D4217
S11306F00001457C407D1211127DF0282528F07CF4
S1130700545545002054547C547C0A097F4932498D
S11307104949323A4444443A324A4848303A4141D9
S1130720217A3A42402078009DA0A07D3D42424279
S11307303D3D4040403D3C24FF2424487E494366DF
S11307402B2FFC2F2BFF0929F620C0887E090320BC
S1130750545479410000447D413048484A3238407D
S113076040227A007A0A0A727D0D19317D262929E0
S11307702F28262929292630484D402038080808E2
S11307800808080808382F10C8ACBA2F102834FA03
S113079000007B000008142A142222142A1408558D
S11307A000550055AA55AA55AAFF55FF55FF00004C
S11307B000FF00101010FF00141414FF001010FFAD
S11307C000FF1010F010F0141414FC001414F700BF
S11307D0FF0000FF00FF1414F404FC141417101F8E
S11307E010101F101F1414141F00101010F000001C
S11307F000001F101010101F10101010F010000037
S113080000FF101010101010101010FF1000000046
S1130810FF140000FF00FF00001F10170000FC047D
S1130820F414141710171414F404F40000FF00F760
S113083014141414141414F700F7141414171410C3
S1130840101F101F141414F4141010F010F00000F2
S11308501F101F0000001F14000000FC140000F013
S113086010F01010FF10FF141414FF141010101FB8
S113087000000000F010FFFFFFFFFFF0F0F0F0F0C9
S1130880FFFFFF0000000000FFFF0F0F0F0F0F38E6
S113089044443844FC4A4A4A347E02020606027E34
S11308A0027E0263554941633844443C04407E203F
S11308B01E2006027E020299A5E7A5991C2A492A50
S11308C01C4C7201724C304A4D4D303048784830DF
S11308D0BC625A463D3E494949007E0101017E2AD7
S11308E02A2A2A2A44445F444440514A444040440A
S11308F04A51400000FF0103E080FF000008086B3C
S11309006B083612362436060F090F060000181835
S11309100000001010003040FF0101001F01011E03
S113092000191D1712003C3C3C3C00000000000074
S113093042079D074809CC0EE10E4113D6136B14F0
S11309400015722811241FBECFEFD1E2DEBFCDBF48
S113095000E00CBF17E0A0E0B2E0EEEEFDE800E03E
S11309600BBF02C007900D92AE3AB107D9F722E14E
S1130970AEEAB7E001C01D92A738B207E1F714E070
S1130980C2EAD4E000E006C021970109802FFE01ED
S11309900E94F73EC839D10780E00807A9F70E94F2
S11309A02E150C94F5462CCBDC01ED91FC910190B5
S11309B0F081E02D199468E670E08DEB91E10E94DE
S11309C0F6276BE670E08DEB91E1EEDF60E070E01E
S11309D08DEB91E1E9DF8DEB91E10E94702868E6EF
S11309E070E08DEB91E10E94F6276BE170E08DEBF6
S11309F091E1DADF60E070E08DEB91E1D5DF8DEB22
S1130A0091E10E94702868E670E08DEB91E10E940C
S1130A10F6276CE170E08DEB91E1C6DF68E170E0F0
S1130A208DEB91E1C1DF8DEB91E10C947028CF93B4
S1130A30DF93CEEAD7E06091DA077091DB0780910B
S1130A40DC079091DD070E94571020E030E040E081
S1130A505AE30E940B11688379838A839B83609194
S1130A60D6077091D7078091D8079091D9070E9433
S1130A70571020E030E040E05AE30E940B116C83F1
S1130A807D838E839F836091D2077091D307809179
S1130A90D4079091D5070E94571020E030E040E041
S1130AA05AE30E940B11688779878A879B87DF91B5
S1130AB0CF910895CF93DF93CEEAD7E06091CE072C
S1130AC07091CF078091D0079091D1070E94571061
S1130AD020E030E044E253E40E94BC0F6C877D8741
S1130AE08E879F876091CA077091CB078091CC074E
S1130AF09091CD070E94571020E030E044E253E487
S1130B000E94BC0F688B798B8A8B9B8B6091C60784
S1130B107091C7078091C8079091C9070E94571028
S1130B2020E030E044E253E40E94BC0F6C8B7D8BE8
S1130B308E8B9F8BDF91CF910895CF9368E670E001
S1130B408DEB91E10E94F6276BE370E08DEB91E170
S1130B502BDF8DEB91E10E94702846E050E068E6BF
S1130B6070E08DEB91E10E946D288DEB91E10E9484
S1130B700C270697D4F38DEB91E10E941427C82F1C
S1130B808DEB91E10E94142720E030E03C2F822B72
S1130B90932B092E000CAA0BBB0B8093DA079093BE
S1130BA0DB07A093DC07B093DD078DEB91E10E9496
S1130BB01427C82F8DEB91E10E94142720E030E028
S1130BC03C2F822B932B092E000CAA0BBB0B80937A
S1130BD0D6079093D707A093D807B093D9078DEB86
S1130BE091E10E941427C82F8DEB91E10E941427F4
S1130BF020E030E03C2F822B932B092E000CAA0B13
S1130C00BB0B8093D2079093D307A093D407B093E0
S1130C10D507CF910CCFCF9368E670E08DEB91E1CF
S1130C200E94F62763E470E08DEB91E1BDDE8DEB6D
S1130C3091E10E94702846E050E068E670E08DEB98
S1130C4091E10E946D288DEB91E10E940C2706979B
S1130C50D4F38DEB91E10E941427C82F8DEB91E121
S1130C600E94142720E030E03C2F822B932B092E86
S1130C70000CAA0BBB0B8093CE079093CF07A093D5
S1130C80D007B093D1078DEB91E10E941427C82FB0
S1130C908DEB91E10E94142720E030E03C2F822B61
S1130CA0932B092E000CAA0BBB0B8093CA079093BD
S1130CB0CB07A093CC07B093CD078DEB91E10E94B5
S1130CC01427C82F8DEB91E10E94142720E030E017
S1130CD03C2F822B932B092E000CAA0BBB0B809369
S1130CE0C6079093C707A093C807B093C907CF91CD
S1130CF0E1CECF93DF93EC0120DF8DDF88E1EEEAD4
S1130D00F7E0DE0101900D928A95E1F7CE01DF91C3
S1130D10CF91089580E090E0089526E040EC52E100
S1130D2060E070E080910602909107020E947312C5
S1130D3060910602709107028AE199E00E94382AC4
S1130D4064E073E080910602909107020C94AB1565
S1130D50EF92FF920F931F93CF93DF93CDB7DEB73C
S1130D60A2970FB6F894DEBF0FBECDBF8AE199E01B
S1130D700E947528892B09F44EC00AED18E0780109
S1130D808AE199E00E948D28F80181938F0161E046
S1130D9070E080E090E00E947B17F70180818A3048
S1130DA051F08AE199E00E947528892B21F0F9E03D
S1130DB009311F0721F7F70111828EED97E09F9308
S1130DC08F9382E193E09F938F938AED98E09F93B2
S1130DD08F930E9437420F900F900F900F900F90B7
S1130DE00F900197C1F42FE130E0AE014F5F5F4FE8
S1130DF06091DE078AE199E00E94112E8E010F5D59
S1130E001F4F2AEF30E040EE57E06091DE078AE1A1
S1130E1099E00E940E2DA2960FB6F894DEBF0FBE85
S1130E20CDBFDF91CF911F910F91FF90EF90089567
S1130E30CF93DF93CDB7DEB7A0970FB6F894DEBF9C
S1130E400FBECDBF41E253E0BE016F5F7F4F8AE129
S1130E5099E00E94D02B6091DE078AE199E00E941C
S1130E60882C811106C063E671E08AE199E00E9452
S1130E707915A0960FB6F894DEBF0FBECDBFDF91F3
S1130E80CF91089566E18AE199E00E94B128EAE1F0
S1130E90F9E08BE393E09183808384E08587089570
S1130EA0CF93DF93EC0184E39AE00E94B11E1B868A
S1130EB084E39AE00E944421882371F084E39AE059
S1130EC00E944921BC0184E39AE00E94F02181112F
S1130ED030C081E08B872DC02091AB0A288380919C
S1130EE0AC0A90E09A838983222319F16091700AF5
S1130EF07091710A8091720A9091730A0E94241071
S1130F007C836B838091A80A8D836091740A7091AD
S1130F10750A8091760A9091770A0E9424107F8343
S1130F206E838091A90A88878091AE0A90E09A879F
S1130F308987CE01DF91CF9108956DE67FE084E348
S1130F409AE00C94BF2080910902882331F069E46F
S1130F5073E083E39EE00E94D61580919A0C811180
S1130F606BC061E087E20E94D91861E083E20E94CD
S1130F70D91868EE73E080E090E00E947B1722D6D7
S1130F808DEB9CE00E9429269093900C80938F0C0B
S1130F9020910902222339F04AE050E0BC0183E3A6
S1130FA09EE00E94AB168091970C8093930C81E095
S1130FB08093940C20D62093B70C3093B80C4093B4
S1130FC0B90C5093BA0C6093BB0C7093BC0C81E0C9
S1130FD02091BB0C3091BC0C232B09F480E080934E
S1130FE0950C80910902882379F160918F0C70919E
S1130FF0900C4AE050E083E39EE00E94A5166091C5
S1131000930C70E04AE050E083E39EE00E94A51652
S11310106091940C70E04AE050E083E39EE00E940B
S1131020A5166091BB0C7091BC0C4AE050E083E3C0
S11310309EE00E94A51608C069E573E083E39EE084
S11310400E94D61580E0089580910C0290910D02C3
S113105020918F0C3091900C821B930B9093920CE7
S11310608093910C9091980C8091990C911125C0CA
S1131070853051F030F4882339F0823009F068C0AB
S113108003C08A3098F064C080910902882361F01B
S11310906CE673E083E39EE00E94D61564EF71E092
S11310A080E090E00E947B1781E00895809109021E
S11310B08823D1F365E873E0EDCF853051F030F447
S11310C0882339F0823009F043C003C08A3078F1B4
S11310D03FC080910902882361F06EE973E083E3E5
S11310E09EE00E94D61564EF71E080E090E00E94DB
S11310F07B1780918A0C90918B0C8B3A91055CF054
S11311008091910C9091920C8A3A910524F49093D9
S11311108B0C80938A0C1092980C87E0EFE8FCE02B
S1131120A8E8BCE001900D928A95E1F711C0809186
S11311300902882381F363EB73E083E39EE00E945A
S1131140D61564EF71E080E090E00E947B17E3CF56
S1131150089560E08FE10E949D1861E082E20E94A0
S11311609D1861E087E20E949D1861E089E20E9477
S11311709D1861E08DE20E949D1861E085E20E9465
S11311809D1861E083E20E949D1860E087E20E945E
S1131190D91861E082E20E94D91860E089E20E94D5
S11311A0D91860E08DE20E94D91860E085E20E94BF
S11311B0D91860E083E20E94D91826E040E855E29D
S11311C060E070E083E39EE00E9473128091090264
S11311D0882331F06FE671E083E39EE00E94B61548
S11311E026E040E855E260E070E080ED9EE00E9479
S11311F0731226E040E855E260E070E08DE69FE07F
S11312000E94731226E040E855E260E070E08AE054
S113121090E10E947312CFDB80910902882331F0A0
S113122069EC73E083E39EE00C94D61508950F9364
S11312301F93CF93DF9380910902882331F060EDEF
S113124073E083E39EE00E94D61561E087E20E948A
S1131250D91864EF71E080E090E00E947B17CAE047
S1131260D0E08DEB9CE00E942926080F191F2197DE
S1131270C1F760E087E20E94D918C8016AE070E013
S11312800E94A63ECB01DF91CF911F910F9108954B
S11312900F931F9300EA1FE024E130E04DE150E09A
S11312A06BE170E08DEB9CE00E94C3251F910F91D0
S11312B00895CF92DF92EF92FF920F931F93CF93F3
S11312C0DF93CDB7DEB7AA970FB6F894DEBF0FBE93
S11312D0CDBF80ED9EE00E946E11892B59F038DD60
S11312E080910902882331F061EE73E083E39EE08C
S11312F00E94D6158AE090E1F1D7892BC9F180913B
S11313000902882331F06FEE73E083E39EE00E94CC
S1131310D615FF24F3948AE090E1E0D7892B41F1BC
S11313208AE090E1F5D78C0180910902882329F0A5
S1131330602F83E39EE00E94AC15C8019927853491
S1131340910581F034F48434910529F7F092080270
S1131350E2CF8335910549F084359105E1F6109289
S1131360940CD9CF10920802D6CFF092940CD3CF1C
S11313708DE69FE0B3D7892B09F47AC080910902E6
S1131380882331F063E074E083E39EE00E94D61585
S1131390CE01079685DD8CE0FE013796ACE7BCE014
S11313A001900D928A95E1F780910902882309F44E
S11313B05FC061E174E083E39EE00E94AB1560913D
S11313C07C0C70E04AE050E083E39EE00E94A516A6
S11313D067E174E083E39EE00E94AB1560917D0CAD
S11313E070917E0C4AE050E083E39EE00E94AB16CD
S11313F080917C0C8823E1F162E274E083E39EE057
S11314000E94AB1560917F0C7091800C44E050E019
S113141083E39EE00E94A5166091810C83E39EE025
S11314200E94AC156DE274E083E39EE00E94AB156C
S11314306091820C7091830C44E050E083E39EE061
S11314400E94A5166091840C83E39EE00E94E61539
S113145060E374E083E39EE00E94AB156091850C29
S11314607091860C4AE050E083E39EE00E94AB1644
S11314708091990C882309F4AFC08091980C811154
S11314800BC085E20E940719892B31F060E085E2E8
S11314900E94D9181092960C93D46093780C709390
S11314A0790C80937A0C90937B0C80919A0C88230E
S11314B049F16DE374E083E39EE00E94D61583E373
S11314C09EE00CD7892BD9F363E37EE0CE0101962D
S11314D00E94E916BE016F5F7F4F83E39EE00E9486
S11314E0C615CE0101960E94F119E1D56093780CDE
S11314F07093790C80937A0C90937B0CCE010196B7
S11315000E942F1980919A0C81110DC0CE0143962F
S1131510F0DB88E1FE017396AFE9BCE001900D9227
S11315208A95E1F72CC064E574E083E39EE00E94B1
S1131530D61560E774E083E39EE00E94D61583E34A
S11315409EE0CCD6892BD9F383E39EE0E1D68C01CF
S11315504AE050E0BC0183E39EE00E94AB16B80170
S113156060537109072E000C880B990BA0D560936A
S11315709F0C7093A00C8093A10C9093A20C2091CB
S1131580A30C3091A40C4091A50C5091A60C609131
S11315909F0C7091A00C8091A10C9091A20C84D40A
S11315A02091A70C3091A80C4091A90C5091AA0C41
S11315B07BD42DEC3CEC4CE85FE329D687FD0CC0D2
S11315C01092990C80910902882331F069E874E043
S11315D083E39EE00E94AB1580919E0C882319F052
S11315E085E08093990CAFDC8091990C90E08A306F
S11315F0910508F0D0C2FC018827EE58FF4F8F4FA9
S11316000C94F73E80910902882361F06BE974E041
S113161083E39EE00E94D61564EF71E080E090E0E1
S11316200E947B1780910B02811103C081E080939B
S11316300A0210929E0C85E20E940719892B21F060
S113164060E085E20E94D91882E20E940719892B82
S113165021F060E082E20E94D91880919A0C8111F5
S11316600DC0CE01439645DB88E1FE017396AFE9D8
S1131670BCE001900D928A95E1F72CC06AEA74E00F
S113168083E39EE00E94D61560E774E083E39EE066
S11316900E94D61583E39EE021D6892BD9F383E3F8
S11316A09EE036D68C014AE050E0BC0183E39EE024
S11316B00E94AB16B80160537109072E000C880B09
S11316C0990BF5D460939F0C7093A00C8093A10C9C
S11316D09093A20C2091A30C3091A40C4091A50CE2
S11316E05091A60C60919F0C7091A00C8091A10C5C
S11316F09091A20CD9D32091A70C3091A80C4091C1
S1131700A90C5091AA0CD0D32DEC3CEC4CE85FE32F
S11317102FD418160CF441C281E08093990C0E94D6
S11317204A176093740C7093750C8093760C9093A5
S1131730770C80910902882309F42FC266EB74E0C8
S113174083E39EE00E94D61564EF71E080E090E0B0
S11317500E947B1722C280910902882361F060ED08
S113176074E083E39EE00E94D61564EF71E080E0AC
S113177090E00E947B170E944A170091740C10910C
S1131780750C2091760C3091770CDC01CB01801B19
S1131790910BA20BB30B893E9340A105B10508F44C
S11317A0FCC180910902882331F06DED74E083E37C
S11317B09EE00E94D615C7DB882321F061E085E214
S11317C00E94D91841E050E068E276E08AE090E1B6
S11317D00E943A151092080282E08093990CDDC1B0
S11317E080910902882361F063EF74E083E39EE053
S11317F00E94D61564EF71E080E090E00E947B17B0
S113180080919A0C882331F062E075E083E39EE0D6
S11318100E94D61520E030E040EA52E46091780C52
S11318207091790C80917A0C90917B0CF0D487FDA7
S113183002C086E001C085E08093990C81E080932A
S11318409C0C5BC180910902882361F06EE075E015
S113185083E39EE00E94D61564EF71E080E090E09F
S11318600E947B1782E20E940719892B31F060E005
S113187082E20E94D9181092960C80919D0C8111DD
S113188010929D0C80919A0C882331F065E175E0EB
S113189083E39EE00E94D6158091980C811110C0BC
S11318A080919C0C8823D9F010929C0C80919A0C06
S11318B0811115C0BCDC90930D0280930C020FC003
S11318C085E20E940719892B21F461E085E20E94D8
S11318D0D91889E10E940719892B09F41EDA20E03E
S11318E030E040EA52E46091780C7091790C809178
S11318F07A0C90917B0C8BD487FD4FC180919E0C08
S113190081114BC186E0F7C080910902882361F000
S113191069E175E083E39EE00E94D61564EF71E00F
S113192080E090E00E947B1781E08093960C809188
S11319309A0C882331F060E275E083E39EE00E9414
S1131940D6158091980C8823B9F080910B028823D6
S113195099F06EDA10920B0280910902882361F0EB
S113196064E275E083E39EE00E94D61564EF71E0C3
S113197080E090E00E947B17C090780CD090790CA6
S1131980E0907A0CF0907B0C20E030E04CEA52E4DA
S1131990C701B6013CD4181614F487E0ACC020E0AB
S11319A030E040EA52E4C701B601E2D287FFF5C055
S11319B082E08093990C81E080939D0CEEC080912D
S11319C00902882361F060E375E083E39EE00E94EE
S11319D0D61564EF71E080E090E00E947B1780915F
S11319E09A0C882331F067E375E083E39EE00E945C
S11319F0D61580910902882361F06BE375E083E3D7
S1131A009EE00E94D61564EF71E080E090E00E94B1
S1131A107B17C090780CD090790CE0907A0CF09001
S1131A207B0C20E030E046EB52E4C701B601EFD373
S1131A30181614F488E05FC020E030E04CEA52E469
S1131A40B2CF80910902882361F069E475E083E3F1
S1131A509EE00E94D61564EF71E080E090E00E9461
S1131A607B1780919A0C882331F060E575E083E35D
S1131A709EE00E94D61580919B0C882351F18091A1
S1131A80980C882331F180910902882361F064E580
S1131A9075E083E39EE00E94D61564EF71E080E078
S1131AA090E00E947B1789E20E940719892B71F448
S1131AB061E089E20E94D91868EE73E080E090E06A
S1131AC00E947B1760E089E20E94D918B1D9109274
S1131AD09B0CC090780CD090790CE0907A0CF0902C
S1131AE07B0C20E030E042ED52E4C701B6018FD315
S1131AF0181634F489E08093990C10929D0C4DC013
S1131B0020E030E046EB52E44ECF80910902882376
S1131B1061F06EE575E083E39EE00E94D61564EF04
S1131B2071E080E090E00E947B1780919A0C8823FA
S1131B3031F065E675E083E39EE00E94D61580915E
S1131B400A028823D9F08091980C8823B9F041E0E7
S1131B5050E069E675E08AE090E18CD78091090253
S1131B60882361F06BE675E083E39EE00E94D6155E
S1131B7064EF71E080E090E00E947B1720E030E0A9
S1131B8042ED52E46091780C7091790C80917A0C5A
S1131B9090917B0C0ACF1092990C68EE73E080E070
S1131BA090E00E947B17AA960FB6F894DEBF0FBE92
S1131BB0CDBFDF91CF911F910F91FF90EF90DF90F8
S1131BC0CF90089569E685EC9CE00E94431A811148
S1131BD006C065E775E083E39EE0E8D7FFCF6AEAD5
S1131BE075E083E39EE0E2D764E670E080E090E095
S1131BF00C947B1708952F923F924F925F926F92AD
S1131C007F928F929F92AF92BF92CF92DF92EF9288
S1131C10FF920F931F93CF93DF93CDB7DEB76097F7
S1131C200FB6F894DEBF0FBECDBF40E46CE17DE09B
S1131C3085EC9CE00E94C01A9CE1C92E9DE0D92E3F
S1131C4000E010E0A12CB12CF6014190519061907C
S1131C5071906F01B801012E000C880B990B27D2EB
S1131C609B01AC01C301B201D2D2181624F4C30102
S1131C70B201EAD18B0120E030E048EB51E4C3012A
S1131C80B201C5D287FD03C0FFEFAF1ABF0A8CE1D2
S1131C90C8168EE0D806C1F61A830983FE01319670
S1131CA06F011E01F9E02F0E311C8CE1882E8DE0AE
S1131CB0982EF40141905190619071904F01F6017A
S1131CC062817381072E000C880B990BF0D19B0164
S1131CD0AC01C301B2019BD21816B4F4F6016081C1
S1131CE07181072E000C880B990BE1D19B01AC018B
S1131CF0C301B2013DD187FF07C0C301B201A4D122
S1131D00F601738362830AC0B701FF0C880B990B39
S1131D10CED1A3019201C8D097D17B018CE19EE082
S1131D208815990509F0C5CF92E0C90ED11CC214DB
S1131D30D30409F0BACF1C870B87BE86AD86C701D2
S1131D406BE370E00E94A63E0250110981E090E02E
S1131D50601771070CF080E02B853C854D855E850E
S1131D60BC0180E090E060960FB6F894DEBF0FBE31
S1131D70CDBFDF91CF911F910F91FF90EF90DF9036
S1131D80CF90BF90AF909F908F907F906F905F9017
S1131D904F903F902F90089520E341E365E385ED54
S1131DA09CE00C94E624FC01862F6083218332831B
S1131DB04383548360E00C949D1881E29EE068C0E4
S1131DC0FCCF20E030E040EA50E467E381E29EE0AB
S1131DD008D020E030E040EA50E467E38CE19EE084
S1131DE0E2CFCF92DF92EF92FF921F93CF93DF93D4
S1131DF0EC01162F69017A0160E0812F0E949D1881
S1131E00CA82DB82EC82FD821883DF91CF911F911D
S1131E10FF90EF90DF90CF900895CF93DF93EC0184
S1131E2088810E9422188983BC017727072E000C21
S1131E30880B990B3CD120E030E040E85AE3EBD129
S1131E402A813B814C815D81E6D16E837F838887C3
S1131E50998720E030E040E05FE325D020E030E0E7
S1131E6048EC52E4D8D16A877B878C879D8726E625
S1131E7036E646EE5FE3CFD120E030E040E052E4C6
S1131E8013D06E877F87888B998BDF91CF910895CC
S1131E90CF93DF93EC01C1DF6E857F8588899989B3
S1131EA0DF91CF9108955058BB27AA270ED075C152
S1131EB066D130F06BD120F031F49F3F11F41EF461
S1131EC05BC10EF4E095E7FB51C1E92F77D180F3B4
S1131ED0BA17620773078407950718F071F49EF523
S1131EE08FC10EF4E0950B2EBA2FA02D0B01B90172
S1131EF090010C01CA01A0011124FF27591B99F07C
S1131F00593F50F4503E68F11A16F040A22F232F87
S1131F10342F4427585FF3CF469537952795A795D7
S1131F20F0405395C9F77EF41F16BA0B620B730B7E
S1131F30840BBAF09150A1F0FF0FBB1F661F771FEF
S1131F40881FC2F70EC0BA0F621F731F841F48F4A4
S1131F50879577956795B795F7959E3F08F0B3CF2A
S1131F609395880F08F09927EE0F97958795089514
S1131F70D9D008F481E008950CD00FC107D140F006
S1131F80FED030F021F45F3F19F0F0C0511139C197
S1131F90F3C014D198F39923C9F35523B1F3951BD6
S1131FA0550BBB27AA2762177307840738F09F5F76
S1131FB05F4F220F331F441FAA1FA9F333D00E2EE5
S1131FC03AF0E0E830D091505040E695001CCAF752
S1131FD029D0FE2F27D0660F771F881FBB1F261717
S1131FE037074807AB07B0E809F0BB0B802DBF01EA
S1131FF0FF2793585F4F2AF09E3F510568F0B6C003
S113200000C15F3FECF3983EDCF3869577956795C6
S1132010B795F7959F5FC9F7880F911D969587959A
S113202097F90895E1E0660F771F881FBB1F6217B9
S113203073078407BA0720F0621B730B840BBA0B77
S1132040EE1F88F7E095089504D06894B111D9C0C3
S11320500895BCD088F09F5790F0B92F9927B751B5
S1132060A0F0D1F0660F771F881F991F1AF0BA9558
S1132070C9F712C0B13081F0C3D0B1E00895C0C037
S1132080672F782F8827B85F39F0B93FCCF386954E
S113209077956795B395D9F73EF4909580957095AB
S11320A061957F4F8F4F9F4F0895E89409C097FB28
S11320B03EF490958095709561957F4F8F4F9F4F1B
S11320C09923A9F0F92F96E9BB279395F69587955F
S11320D077956795B795F111F8CFFAF4BB0F11F422
S11320E060FF1BC06F5F7F4F8F4F9F4F16C08823C9
S11320F011F096E911C0772321F09EE8872F762FFF
S113210005C0662371F096E8862F70E060E02AF03F
S11321109A95660F771F881FDAF7880F969587952B
S113212097F90895990F0008550FAA0BE0E8FEEF00
S113213016161706E807F907C0F012161306E40787
S1132140F50798F0621B730B840B950B39F40A2680
S113215061F0232B242B252B21F408950A2609F45E
S1132160A140A6958FEF811D811D089597F99F6762
S113217080E870E060E008959FEF80EC089500240B
S11321800A941616170618060906089500240A94D8
S113219012161306140605060895092E0394000C5E
S11321A011F4882352F0BB0F40F4BF2B11F460FFED
S11321B004C06F5F7F4F8F4F9F4F089557FD905816
S11321C0440F551F59F05F3F71F04795880F97FBF7
S11321D0991F61F09F3F79F08795089512161306B1
S11321E01406551FF2CF4695F1DF08C016161706E0
S11321F01806991FF1CF8695710561050894089515
S1132200E894BB2766277727CB0197F908958ADFDF
S113221008F48FEF08950BD0C0CFB1DF28F0B6DFFC
S113222018F0952309F0A2CFA7CF1124EACFC6DF77
S1132230A0F3959FD1F3950F50E0551F629FF001D5
S1132240729FBB27F00DB11D639FAA27F00DB11D2E
S1132250AA1F649F6627B00DA11D661F829F2227B7
S1132260B00DA11D621F739FB00DA11D621F839F3E
S1132270A00D611D221F749F3327A00D611D231F14
S1132280849F600D211D822F762F6A2F11249F5762
S113229050408AF0E1F088234AF0EE0FFF1FBB1F85
S11322A0661F771F881F91505040A9F79E3F510524
S11322B070F05CCFA6CF5F3FECF3983EDCF38695DD
S11322C077956795B795F795E7959F5FC1F7FE2BCF
S11322D0880F911D9695879597F90895FC01918D26
S11322E0228D892F90E0805C9F4F821B91098F7310
S11322F099270895FC01918D828D981731F0828D74
S1132300E80FF11D858D90E008958FEF9FEF0895FC
S1132310FC01918D828D981761F0828DDF01A80FE9
S1132320B11D5D968C91928D9F5F9F73928F90E00B
S113233008958FEF9FEF0895FC01538D448D252F51
S113234030E0842F90E0821B930B541710F0CF964B
S113235008950197089588E393E1892B39F080E08B
S113236090E0892B19F084D1811122C08DEC93E186
S1132370892B39F080E090E0892B19F00ED281117D
S11323801AC082E694E1892B39F080E090E0892B31
S113239019F098D2811112C087EF94E1892B99F03A
S11323A080E090E0892B79F022D381110AC008954E
S11323B00E940000DBCF0E940000E3CF0E940000D7
S11323C0EBCF0C9400000895FC01848DDF01A80F6D
S11323D0B11DA35ABF4F2C91848D90E001968F7349
S11323E09927848FA689B7892C93A089B1898C9168
S11323F0837080648C93938D848D981306C00288B7
S1132400F389E02D80818F7D80830895EF92FF9280
S11324100F931F93CF93DF93EC0181E0888F9B8D03
S11324208C8D981305C0E889F989808185FD25C0C4
S1132430F62E0B8D10E00F5F1F4F0F731127E02E48
S11324408C8DE8120BC00FB607FCFACFE889F98926
S1132450808185FFF5CFCE01B7DFF2CF8B8DFE01F2
S1132460E80FF11DE35AFF4FF0829FB7F8940B8FEA
S1132470EA89FB89808180620AC09FB7F894EE895B
S1132480FF896083E889F98980818370806480830F
S11324909FBF81E090E0DF91CF911F910F91FF905A
S11324A0EF900895CF93DF93EC01888D8823C1F0DA
S11324B0EA89FB89808185FD05C0A889B9898C9149
S11324C086FD0EC00FB607FCF5CF808185FFF2CFE5
S11324D0A889B9898C9185FFEDCFCE0175DFE8CF4E
S11324E0DF91CF910895CF92DF92EF92FF921F93E5
S11324F0CF93DF93EC016A017B01122FE889F989FC
S113250082E080834115514E61057105B1F060E0B0
S113251079E08DE390E0A70196010E94B93EDA01CB
S1132520C9010197A109B109B695A7959795879512
S11325309C01211580E13807A8F0E889F989108207
S113254060E874E88EE190E0A70196010E94B93E2C
S1132550DA01C9010197A109B109B695A795979523
S113256087959C01EC85FD853083EE85FF8520836E
S1132570188EEC89FD891083EA89FB89808180614A
S11325808083EA89FB89808188608083EA89FB896A
S1132590808180688083EA89FB8980818F7D808344
S11325A0DF91CF911F91FF90EF90DF90CF9008952E
S11325B008951F920F920FB60F9211240BB60F922B
S11325C02F938F939F93EF93FF93E091430EF0919A
S11325D0440E8081E091490EF0914A0E82FD12C0B2
S11325E0908180914C0E8F5F8F7320914D0E8217D6
S11325F051F0E0914C0EF0E0ED5CF14F958F80933B
S11326004C0E01C08081FF91EF919F918F912F918A
S11326100F900BBE0F900FBE0F901F9018951F9236
S11326200F920FB60F9211240BB60F922F933F9374
S11326304F935F936F937F938F939F93AF93BF93C6
S1132640EF93FF9383E39EE0BFDEFF91EF91BF9191
S1132650AF919F918F917F916F915F914F913F9136
S11326602F910F900BBE0F900FBE0F901F901895D7
S113267083E39EE033DE21E0892B09F420E0822FFE
S11326800895E3E3FEE01382128288EE93E0A0E073
S1132690B0E084839583A683B78388EC95E0918327
S11326A0808385EC90E09587848784EC90E097871D
S11326B0868780EC90E0918B808B81EC90E0938B0B
S11326C0828B82EC90E0958B848B86EC90E0978BE8
S11326D0868B118E128E138E148E08951F920F9274
S11326E00FB60F9211240BB60F922F938F939F93D3
S11326F0EF93FF93E091E00EF091E10E8081E09181
S1132700E60EF091E70E82FD12C090818091E90EF1
S11327108F5F8F732091EA0E821751F0E091E90EDA
S1132720F0E0E053F14F958F8093E90E01C0808172
S1132730FF91EF919F918F912F910F900BBE0F906E
S11327400FBE0F901F9018951F920F920FB60F9205
S113275011240BB60F922F933F934F935F936F9374
S11327607F938F939F93AF93BF93EF93FF9380EDEA
S11327709EE02ADEFF91EF91BF91AF919F918F91DF
S11327807F916F915F914F913F912F910F900BBE6D
S11327900F900FBE0F901F90189580ED9EE09EDD68
S11327A021E0892B09F420E0822F0895E0EDFEE07A
S11327B01382128288EE93E0A0E0B0E084839583D4
S11327C0A683B78388EC95E0918380838DEC90E0B9
S11327D0958784878CEC90E09787868788EC90E0D7
S11327E0918B808B89EC90E0938B828B8AEC90E0C8
S11327F0958B848B8EEC90E0978B868B118E128E4A
S1132800138E148E08951F920F920FB60F921124F7
S11328100BB60F922F938F939F93EF93FF93E091B7
S11328207D0FF0917E0F8081E091830FF091840FF2
S113283082FD12C090818091860F8F5F8F732091EB
S1132840870F821751F0E091860FF0E0E359F04FC3
S1132850958F8093860F01C08081FF91EF919F91A6
S11328608F912F910F900BBE0F900FBE0F901F9062
S113287018951F920F920FB60F9211240BB60F9258
S11328802F933F934F935F936F937F938F939F9374
S1132890AF93BF93EF93FF938DE69FE095DDFF9198
S11328A0EF91BF91AF919F918F917F916F915F91C4
S11328B04F913F912F910F900BBE0F900FBE0F9031
S11328C01F9018958DE69FE009DD21E0892B09F41E
S11328D020E0822F0895EDE6FFE01382128288EE55
S11328E093E0A0E0B0E084839583A683B78388EC6B
S11328F095E09183808385ED90E09587848784EDCE
S113290090E09787868780ED90E0918B808B81EDB6
S113291090E0938B828B82ED90E0958B848B86ED97
S113292090E0978B868B118E128E138E148E0895E1
S11329301F920F920FB60F9211240BB60F922F9382
S11329408F939F93EF93FF93E0911A10F0911B10D4
S11329508081E0912010F091211082FD12C09081BD
S1132960809123108F5F8F7320912410821751F070
S1132970E0912310F0E0E65FFF4E958F80932310E3
S113298001C08081FF91EF919F918F912F910F90C2
S11329900BBE0F900FBE0F901F9018951F920F92B1
S11329A00FB60F9211240BB60F922F933F934F93B0
S11329B05F936F937F938F939F93AF93BF93EF93A3
S11329C0FF938AE090E100DDFF91EF91BF91AF9119
S11329D09F918F917F916F915F914F913F912F9133
S11329E00F900BBE0F900FBE0F901F9018958AE0AA
S11329F090E174DC21E0892B09F420E0822F089512
S1132A00EAE0F0E11382128288EE93E0A0E0B0E005
S1132A1084839583A683B78388EC95E09183808330
S1132A2085E391E09587848784E391E0978786879F
S1132A3080E391E0918B808B81E391E0938B828B97
S1132A4082E391E0958B848B86E391E0978B868B70
S1132A50118E128E138E148E0895089591D2FDDF77
S1132A600E94A908CBEAD1E10E9459092097E1F319
S1132A7072DCFACFCF92DF92EF92FF920F931F9303
S1132A80CF93DF936C017A018B01C0E0D0E0CE15C7
S1132A90DF0581F0D8016D918D01D601ED91FC9196
S1132AA00190F081E02DC6011995892B11F0219632
S1132AB0EECF7E01C701DF91CF911F910F91FF905F
S1132AC0EF90DF90CF9008956115710579F0FB01C7
S1132AD001900020E9F73197AF01461B570BDC0149
S1132AE0ED91FC910280F381E02D199480E090E057
S1132AF00895EF92FF920F931F93CF93DF938C016E
S1132B007B01C0E0D0E0F701EC0FFD1F6491662368
S1132B1061F0D801ED91FC910190F081E02DC801A4
S1132B201995892B11F02196EECFCE01DF91CF912B
S1132B301F910F91FF90EF900895DB0114964D9132
S1132B405C9115976D917C91DC01ED91FC91028073
S1132B50F381E02D1994B8CFDC01ED91FC91019043
S1132B60F081E02D19946FE073E0AECF0F931F93C3
S1132B70CF93DF93EC01BDDF8C01CE01F4DF800F36
S1132B80911FDF91CF911F910F9108950F931F9380
S1132B90CF93DF93EC01D1DF8C01CE01E4DF800F12
S1132BA0911FDF91CF911F910F9108950F931F9360
S1132BB0CF93DF93EC0188DF8C01CE01D4DF800F4B
S1132BC0911FDF91CF911F910F9108950F931F9340
S1132BD0CF93DF93EC01C0DF8C01CE01C4DF800F03
S1132BE0911FDF91CF911F910F9108958F929F9222
S1132BF0AF92BF92EF92FF920F931F93CF93DF9305
S1132C00CDB7DEB7A1970FB6F894DEBF0FBECDBF28
S1132C107C01FA01CB0119A2223008F42AE08E01CA
S1132C200F5D1F4F822E912CA12CB12CBF01A50149
S1132C3094010E94B93EF901CA01015011096A3098
S1132C4010F4605D01C0695CD8016C93232B242BC4
S1132C50252B61F7B801C70137DFA1960FB6F894A9
S1132C60DEBF0FBECDBFDF91CF911F910F91FF90BB
S1132C70EF90BF90AF909F908F90089521153105EC
S1132C8041F4DC01ED91FC910190F081E02D642F81
S1132C901994ACCF9A01462F50E060E070E0EECF7B
S1132CA00F931F93CF93DF93EC01F4DF8C01CE01DC
S1132CB05ADF800F911FDF91CF911F910F910895DB
S1132CC0CF92DF92EF92FF920F931F93CF93DF93F4
S1132CD02115310581F4DC01ED91FC910190F08125
S1132CE0E02D642FDF91CF911F910F91FF90EF9012
S1132CF0DF90CF9019942A303105F1F477FF1BC08F
S1132D006A017B01EC016DE227DF8C014427552722
S1132D10BA014C195D096E097F092AE0CE0166DF0C
S1132D20800F911FDF91CF911F910F91FF90EF9032
S1132D30DF90CF9008952AE0DF91CF911F910F91FA
S1132D40FF90EF90DF90CF9051CF9A01AB01770FB6
S1132D50660B770BB5CF0F931F93CF93DF93EC01E3
S1132D60F4DF8C01CE01FFDE800F911FDF91CF9144
S1132D701F910F9108950F931F93CF93DF93EC014D
S1132D8089D0688779878A879B87E881F98102845B
S1132D90F385E02DCE01199597FF16C07BD00885E9
S1132DA019852A853B85DC01CB01801B910BA20B85
S1132DB0B30B0C811D812E813F8180179107A207DF
S1132DC0B30718F38FEF9FEFDF91CF911F910F910E
S1132DD008950F931F93CF93DF93EC018B0161E16F
S1132DE073E0ABD2C801C7DF97FD04C0682FCE01E2
S1132DF0E5D2F8CFCE01DF91CF911F910F910895C5
S1132E001F920F920FB60F9211242F933F938F931B
S1132E109F93AF93BF938091A8109091A910A09114
S1132E20AA10B091AB103091A71023E0230F2D37D7
S1132E3020F40196A11DB11D05C026E8230F0296BA
S1132E40A11DB11D2093A7108093A8109093A910E1
S1132E50A093AA10B093AB108091AC109091AD10D8
S1132E60A091AE10B091AF100196A11DB11D809339
S1132E70AC109093AD10A093AE10B093AF10BF916F
S1132E80AF919F918F913F912F910F900FBE0F9013
S1132E901F9018952FB7F8946091A8107091A910FD
S1132EA08091AA109091AB102FBF08953FB7F8946A
S1132EB08091AC109091AD10A091AE10B091AF1074
S1132EC026B5A89B05C02F3F19F00196A11DB11D81
S1132ED03FBFBA2FA92F982F8827820F911DA11DBC
S1132EE0B11DBC01CD0142E0660F771F881F991FF9
S1132EF04A95D1F708958F929F92AF92BF92CF9245
S1132F00DF92EF92FF926B017C01D0DF4B015C01F9
S1132F10C114D104E104F104F9F00E947E2EC6DF4D
S1132F20DC01CB0188199909AA09BB09883E9340A1
S1132F30A105B10568F321E0C21AD108E108F1083E
S1132F4088EE880E83E0981EA11CB11CC114D10424
S1132F50E104F10421F7DCCFFF90EF90DF90CF90F4
S1132F60BF90AF909F908F9008958230910538F074
S1132F70880F991F880F991F05970197F1F70895F6
S1132F80789484B5826084BD84B5816084BD85B540
S1132F90826085BD85B5816085BDEEE6F0E0808107
S1132FA081608083E1E8F0E0108280818260808328
S1132FB0808181608083E0E8F0E0808181608083AB
S1132FC0E1EBF0E0808184608083E0EBF0E08081DD
S1132FD081608083E1E9F0E0808182608083808188
S1132FE081608083E0E9F0E0808181608083E1EAB0
S1132FF0F0E0808182608083808181608083E0EA68
S1133000F0E0808181608083E1E2F1E08081826090
S11330108083808181608083E0E2F1E0808181604F
S11330208083EAE7F0E0808184608083808182602D
S11330308083808181608083808180688083109216
S1133040C1000895863308F0865390917B00282FA1
S11330502870977F922B90937B0020910E0290E42E
S1133060299F900111248770822B80937C0080918A
S11330707A00806480937A0080917A0086FDFCCF88
S1133080809178002091790090E0922B089590E04F
S1133090FC013197E231F10508F04EC08827E4586D
S11330A0FF4F8F4F0C94F73E809180008F7703C0C1
S11330B0809180008F7D80938000089580918000AE
S11330C0877FF9CF84B58F7702C084B58F7D84BDA7
S11330D008958091B0008F7703C08091B0008F7DF8
S11330E08093B0000895809190008F7707C08091FD
S11330F090008F7D03C080919000877F8093900023
S113310008958091A0008F7707C08091A0008F7DE3
S113311003C08091A000877F8093A00008958091D0
S113312020018F7707C0809120018F7D03C080919B
S11331302001877F809320010895CF93DF9390E04F
S1133140FC01E054FE4F2491FC01EA5FFD4F8491A1
S1133150882361F190E0880F991FFC01E058FD4F2E
S1133160C591D491FC01EA59FD4FA591B491611127
S113317009C09FB7F8948881209582238883EC91B5
S11331802E230BC0623061F49FB7F8948881322FEC
S1133190309583238883EC912E2B2C939FBF06C0FC
S11331A08FB7F894E8812E2B28838FBFDF91CF91BE
S11331B008951F93CF93DF93282F30E0F901E65849
S11331C0FE4F8491F901E054FE4FD491F901EA5F76
S11331D0FD4FC491CC23B9F0162F811158DFEC2F89
S11331E0F0E0EE0FFF1FEA59FD4FA591B4919FB790
S11331F0F894111104C08C91D095D82302C0EC919D
S1133200DE2BDC939FBFDF91CF911F910895CF9365
S1133210DF93282F30E0F901E658FE4F8491F9013D
S1133220E054FE4FD491F901EA5FFD4FC491CC23E1
S113323089F081112CDFEC2FF0E0EE0FFF1FE45B2F
S1133240FD4FA591B491EC91ED2381E090E021F440
S113325080E002C080E090E0DF91CF910895FC010E
S113326080819181009711F00C94D03F0895CF9301
S1133270DF93EC0188819981009711F00E94D03F7F
S1133280198218821D821C821B821A82DF91CF91BF
S113329008950F931F93CF93DF93EC018B016F5F1E
S11332A07F4F888199810E945940009731F099831A
S11332B088831B830A8381E001C080E0DF91CF9182
S11332C01F910F910895CF93DF93EC018881998129
S11332D0892B29F08A819B818617970758F4CE01A0
S11332E0D8DF882341F08C819D81892B19F4E881F2
S11332F0F981108281E0DF91CF910895EF92FF92DE
S11333000F931F93CF93DF93EC017B018A01BA01E2
S1133310DADF811103C0CE01AADF07C01D830C834D
S1133320B701888199810E94DC41CE01DF91CF9160
S11333301F910F91FF90EF900895FC01118210826C
S113334013821282158214826115710549F0FB0102
S113335001900020E9F73197AF01461B570BCECF00
S11333600895EF92FF920F931F93CF93DF9361150C
S1133370710511F480E01BC041155105B9F07B01C2
S1133380EC018C819D818A01080F191FB801CE01BF
S11333909ADF882379F3288139818C819D81B70153
S11333A0820F931F0E94DC411D830C8381E0DF9117
S11333B0CF911F910F91FF90EF900895CF93DF93DA
S11333C01F921F92CDB7DEB769831A8241E050E0A5
S11333D0BE016F5F7F4FC5DF0F900F90DF91CF91DC
S11333E00895FC0180819181009711F00C945D4156
S11333F060E070E0CB010895EF92FF920F931F936A
S1133400CF93DF93C62F7A01022FFC0160818DEBED
S113341091E10E94EC276C2F8DEB91E10E949B2798
S1133420E70110E0CE018E199F098017910734F44B
S113343069918DEB91E10E949B27F4CF8DEB91E193
S1133440DF91CF911F910F91FF90EF900C94702812
S1133450CF93DF931F92CDB7DEB7498321E0AE014E
S11334604F5F5F4FC9DF0F90DF91CF910895FC014B
S113347024812E7F248321FB442740F950E0440F0C
S1133480551F63E0E5CFCF93DF93EC0168838DEBA9
S113349091E10E94DA27198240E060E0CE01D8DF92
S11334A08FE38A834FE361E0CE01D2DFCE01DFDF19
S11334B08B818E7F8B8340E062E0CE01C9DF64E6BE
S11334C070E080E090E017DD81E0DF91CF91089516
S11334D06F927F928F929F92AF92BF92CF92DF9220
S11334E0EF92FF920F931F93CF93DF938C01662E7D
S11334F06A01722EC0E0C715A0F5D72DDC1BD132AE
S113350008F0D0E2F80160818DEB91E10E94EC2794
S11335106C2F660D8DEB91E10E949B278DEB91E161
S11335200E9470284D2FF80160818DEB91E10E947B
S11335306B28812C912CAD2EB12C8C2F880D8A14E4
S11335409B0414F0CD0FD7CF7601E80EF11C8DEB60
S113355091E10E941427F7018083FFEF8F1A9F0ADD
S1133560ECCFDF91CF911F910F91FF90EF90DF90FF
S1133570CF90BF90AF909F908F907F906F90089561
S11335808F929F92AF92BF92CF92DF92EF92FF926F
S11335900F931F93CF93DF93CDB7DEB7F62E172F7C
S11335A0042F8DB69EB6242F220F46FD20E84DB77A
S11335B05EB7421B51090FB6F8945EBF0FBE4DBFF4
S11335C0EDB7FEB731965F01AF0160E881DFCF2C24
S11335D0D12EE12CF12C10E0E016F1065CF58E2DD5
S11335E0880FF501E80FF11D618170E0762F6627E1
S11335F08081682B94E0660F771F9A95E1F724E0A9
S1133600759567952A95E1F7072E000C880B990BA1
S11336100E94571020E030E040E85EE30E940B1166
S1133620F60161937193819391936F01FFEFEF1A08
S1133630FF0AD2CF0FB6F8949EBE0FBE8DBEDF91A7
S1133640CF911F910F91FF90EF90DF90CF90BF909B
S1133650AF909F908F9008950F93FC0180E092E1CA
S1133660AAE7B0E030E0481759076A077B0740F43F
S1133670B695A795979587953F5F3630A1F737E0C4
S113368091E09327222311F020E501C020E70C707C
S1133690892F8695082B022B0083917091830F91BB
S11336A008952091BA11222399F04FB7F8942091EC
S11336B0BA11213059F42DB32093B8113DB32091A0
S11336C0B911209523232DBB4FBF02C04093B811DD
S11336D08CBD9DBD08958091BA11882361F09FB778
S11336E0F8942091BA118091B811213019F48DBB4E
S11336F09FBF08958FBF0895DF92EF92FF920F93BB
S11337001F93CF93DF93EC01FC01EA54FF4F8081B8
S11337109181009739F4FE01E854FF4F8081918133
S1133720009771F0DC01ED91FC910190F081E02DA6
S1133730DF91CF911F910F91FF90EF90DF9019943B
S1133740D62E7E01BAEBEB0EF11CF701808191813C
S1133750009741F4FE01E454FF4F80819181892B4D
S113376009F514C0FE01EB5DFE4F60810E94EC2759
S1133770D7018D919C91DC01ED91FC910190F08138
S1133780E02D6D2D19958C01019719F000E010E0E2
S113379024C061E0F701808191810E94F7278111A3
S11337A0D9CF1BC0FE01E154FF4F8081918179DFA5
S11337B0C254DF4F888187FD02C060E0FADCDEBCC2
S11337C000000DB407FEFDCF8EB5888187FD02C0D1
S11337D061E0EFDC80DF01E010E0C801DF91CF9110
S11337E01F910F91FF90EF90DF900895CF92DF9299
S11337F0EF92FF920F931F93CF93DF937B018A0184
S11338006A018EE2C81A88EFD80AF801C191D191F1
S11338108F0142E050E06BEE75E0CE010E94E3417F
S1133820892B91F00C151D0579F0FE010190002003
S1133830E9F73197AF014C1B5D0BB701CE010E9434
S1133840E341892B11F702C0C0E0D0E0CE01DF9143
S1133850CF911F910F91FF90EF90DF90CF9008953B
S11338608F929F92AF92BF92CF92DF92EF92FF928C
S11338700F931F93CF93DF93EC018B01CB010E9435
S11338805D414B015C0120E137E240E050E00E94E1
S1133890B93E2CAB24E6C22ED12CE12CF12CA7018D
S11338A096010E94B93E2DABC501B401A701960152
S11338B00E94B93E6EAB6EE270E0C8010E94C8413E
S11338C001960E94404198AF8FABFE01EB55FF4F2C
S11338D0CF54DF4F88819981AA81BB8180839183F2
S11338E0A283B383DF91CF911F910F91FF90EF904B
S11338F0DF90CF90BF90AF909F908F9008954F929C
S11339005F926F927F928F929F92AF92BF92EF924B
S1133910FF920F931F93CF93DF93CDB7DEB72A9710
S11339200FB6F894DEBF0FBECDBFFB0120812C3251
S113393009F4A6C08B017C0142E050E0CE0101965F
S11339400E94F1411B82CE0101960E945D419B01C0
S1133950AC0160E876E988E990E00E948B3E2B0197
S11339603C01B8016E5F7F4F42E050E0CE0101960A
S11339700E94F141B8016B5F7F4F44E050E0CE01FB
S113398003960E94F1411F82CE0101960E945D417F
S11339909B01AC01A2E3B0E00E941A3F23E030E0B7
S11339A040E050E00E94DB3E49015A01F701EC5B24
S11339B0FF4FD301C201820F931FA41FB51F808341
S11339C09183A283B383C301B20120EA36E841E0C4
S11339D050E00E94DB3ECA01B9010E9457102B013E
S11339E03C01C501B4010E9457102CE933E549ECB0
S11339F056E30E940B119B01AC01C301B2010E946A
S1133A00540F2B013C01F70164AF75AF86AF97AF3C
S1133A1020E030E048EC52E40E94BC0F0E942410E5
S1133A204B015C01FCE4EF0EF11C84E6889DB001BF
S1133A30899D700D1124072E000C880B990B0E9490
S1133A4057109B01AC01C301B2010E94530F20E047
S1133A5030E040E752E40E94BC0F2B013C01B4016A
S1133A60990C880B990B0E9457109B01AC01C30160
S1133A70B2010E94540FF7016083718382839383A0
S1133A802A960FB6F894DEBF0FBECDBFDF91CF915B
S1133A901F910F91FF90EF90BF90AF909F908F90E8
S1133AA07F906F905F904F900895FB0120812335A4
S1133AB0F9F4FC01EC58FF4F2083B8974081518101
S1133AC06281738170584083518362837383389712
S1133AD040815181628173817095609550954195C3
S1133AE05F4F6F4F7F4F408351836283738306C060
S1133AF02E3431F4FC01EC58FF4F208381E008950B
S1133B002C3229F4FC01EC58FF4F1082F7CF80E0EF
S1133B1008954F925F926F927F928F929F92AF928D
S1133B20BF92EF92FF920F931F93CF93DF93CDB782
S1133B30DEB72A970FB6F894DEBF0FBECDBFFB01E8
S1133B4020812C3209F4A8C08B017C0143E050E0B1
S1133B50CE0101960E94F1411C82CE0101960E9481
S1133B605D419B01AC0160E876E988E990E00E9440
S1133B708B3E2B013C01B8016D5F7F4F42E050E06A
S1133B80CE0101960E94F141B8016A5F7F4F44E083
S1133B9050E0CE0103960E94F1411F82CE010196AE
S1133BA00E945D419B01AC01A2E3B0E00E941A3F78
S1133BB023E030E040E050E00E94DB3E49015A013E
S1133BC0F701E85BFF4FD301C201820F931FA41FCB
S1133BD0B51F80839183A283B383C301B20120EA1A
S1133BE036E841E050E00E94DB3ECA01B9010E9480
S1133BF057102B013C01C501B4010E9457102CE958
S1133C0033E549EC56E30E940B119B01AC01C3015F
S1133C10B2010E94540F2B013C01F701E05CFF4FFD
S1133C20608371838283938320E030E048EC52E424
S1133C300E94BC0F0E9424104B015C01F0E5EF0EC2
S1133C40F11C84E6889DB001899D700D1124072E16
S1133C50000C880B990B0E9457109B01AC01C30107
S1133C60B2010E94530F20E030E040E752E40E948A
S1133C70BC0F2B013C01B401990C880B990B0E94D9
S1133C8057109B01AC01C301B2010E94540FF7010C
S1133C9060837183828393832A960FB6F894DEBF80
S1133CA00FBECDBFDF91CF911F910F91FF90EF9089
S1133CB0BF90AF909F908F907F906F905F904F9048
S1133CC00895FB0120812C3239F12735F9F4FC01E8
S1133CD0EB58FF4F2083B5974081518162817381F6
S1133CE07058408351836283738338974081518134
S1133CF06281738170956095509541955F4F6F4FC8
S1133D007F4F408351836283738306C0253431F42B
S1133D10FC01EB58FF4F208381E0089580E0089573
S1133D20FB012081213499F4FC01E958FF4F21E083
S1133D302083BA96DC01AF54BF4F8D919D910D90B5
S1133D40BC91A02D80839183A283B38306C02635C2
S1133D5031F4FC01E958FF4F108281E0089580E0BE
S1133D6008952F923F924F925F927F928F929F92EB
S1133D70AF92BF92CF92DF92EF92FF920F931F9375
S1133D80CF93DF93EC0186D81B012C01FE01EB5489
S1133D90FF4F8081882311F0712C64C18E010A5475
S1133DA01F4FD8018D919C910097A9F0DC01ED91F2
S1133DB0FC910084F185E02D1995892B69F3F801B4
S1133DC080819181DC01ED91FC910284F385E02DE9
S1133DD01995782E01C0712C8E0108541F4FF801DB
S1133DE0808191810097A9F0DC01ED91FC91008420
S1133DF0F185E02D1995892B09F434C1F8018081EE
S1133E009181DC01ED91FC910284F385E02D1995FB
S1133E10782E5E01BAEBAB0EB11CD501ED91FC918D
S1133E20309709F462C07E01B9EBEB1ABEEFFB0ACE
S1133E30D7019C918E010A5B1E4FD8018C91891782
S1133E4064F0FE01E90FF11D97FDFA95EA5DFE4F5E
S1133E5070809F5FF701908348C021E030E040E22A
S1133E6050E060E170E0CF010E946F28803209F0D9
S1133E70F9C0D8011C9280E2C82ED12CFE01E85B67
S1133E80FE4F4F01D5018D919C91DC01ED91FC9188
S1133E900284F385E02D19958A3021F4F401908190
S1133EA09D3079F4D4018C93F8019081FE01E90FDF
S1133EB0F11D97FDFA95EA5DFE4F80839F5FD8015F
S1133EC09C93B1E0CB1AD108E9F6F80180818150C6
S1133ED08083811107C0CA5DDE4F88818A3011F466
S1133EE08FEF8083D7011C92BDC0FE01E454FF4FC5
S1133EF080819181892B09F43EC05E01BFEBAB0E3A
S1133F00B11C8E0102541F4F99249A946E01E8EB60
S1133F10CE1AEEEFDE0AD5018D919C91C2DBF80139
S1133F20808187FD02C060E044D99EBC00000DB4CE
S1133F3007FEFDCF7EB4D8018C9187FD02C061E0FD
S1133F4038D9C9DBBAE07B1204C0F60180818D3018
S1133F5011F7E72CF12CC7010E948541892B29F028
S1133F60FE01E85BFE4F708206C0C7010E948B41D0
S1133F70892B89F2F5CF8E01065C1D4FD8018D91F6
S1133F809C91FE01E75CFD4F208131E0320F3083CC
S1133F90820F911DDC017C928081883710F087E7C5
S1133FA08083BAE07B124AC02081D8018D919C9114
S1133FB0820F911DDC011C92D8016D917C911197A7
S1133FC0AE01475B5E4F9E012F533E4FCE01845C92
S1133FD09D4F6417750731F42D933C93DC016D9369
S1133FE07C9306C0D8014D935C93DC012D933C93E4
S1133FF01082FE01E25CFD4F81E080830E944A173B
S1134000FE01E355FF4F6083718382839383CF5412
S1134010DF4F8091B0109091B110A091B210B09187
S1134020B31088839983AA83BB831092B010109233
S1134030B1101092B2101092B31014C08091B0104D
S11340409091B110A091B210B091B310892B8A2B2A
S11340508B2B41F42092B0103092B1104092B210E8
S11340605092B310872DDF91CF911F910F91FF9044
S1134070EF90DF90CF90BF90AF909F908F907F9004
S11340805F904F903F902F900895FC01DC01AA545B
S1134090BF4F11961C921E92129611961C921E925C
S11340A0129611961C921E92129611961C921E92B2
S11340B0AE57BE4F1C92A958B1401C92AC57BE4F8C
S11340C01C921196875B9E4F11969C938E93129629
S11340D088589F4F11969C938E93A25CB1401C927A
S11340E011971C9211971C9213AE12AE11AE16AA20
S11340F015AA14AA12971C9211971C9211971C923C
S113410013961C9210AE17AA17971D921D921D921A
S11341101C92139714971D921D921D921C92139733
S113412014971D921D921D921C92139714971D9221
S11341301D921D921C92139714971D921D921D920D
S11341401C92139714971D921D921D921C92139703
S113415014971D921D921D921C92139714971D92F1
S11341601D921D921C92139754971D921D921D929D
S11341701C92139714AE15AE16AE17AE0895EF92B7
S1134180FF920F931F93CF93DF93EC017B011B826C
S11341901A828FE696E0998388831D821C821E8290
S11341A01F82188684E1FE013996DF01982F1D9243
S11341B09A95E9F71D8E1E8E1F8E7796DF011D924C
S11341C08A95E9F7DE01A957BF4F8AE0EFE1F2E0F3
S11341D001900D928A95E1F7DE01AF56BF4F8AE058
S11341E0E9E2F2E001900D928A95E1F7FE01E556CD
S11341F0FF4F8AEE95E091838083329680E094E9C4
S1134200A5E3B7E780839183A283B3833496808345
S11342109183A283B383349680839183A283B383EF
S1134220349680839183A283B3833496808391836D
S1134230A283B383349680839183A283B3833D9610
S11342401FEF108300E021E040E452E46FE070E0EF
S1134250CE0181549F4F00DAFE01EA5BFE4F1083CA
S11342603196108231961082EF50FF4F1082CE01AA
S11342700CDFC854DF4FF982E882DF91CF911F91A0
S11342800F91FF90EF900895825C9D4FFC01808117
S11342900895FC01E25CFD4F108232978081918188
S11342A00895603358F06A3310F480ED05C08FEB45
S11342B0860F863018F489EC860F089580E00895FF
S11342C0CF92DF92EF92FF920F931F93CF93DF93DE
S11342D0EC011D821C82FB0180818432C1F481E0E7
S11342E090E09D838C83CB017C010196F7012081B2
S11342F02111FACFF70180818A3259F06E157F05BA
S113430030F4F1E0EF1AF108F5CF892BE1F080E009
S11343105EC08B01F7016181CE01C3DFF0E18F9FA5
S113432060011124F7016281CE01BBDF9601280FE1
S1134330311DC9010F5F1F4FF801EE15FF0528F766
S113434021918227FACF83E090E09D838C83AE0194
S113435049575F4FB801CE0149DA7C010097B9F2A1
S1134360BC01CE0106960E94DC418DE090E09D8365
S11343708C83F70101900020E9F73197EE19FF09CA
S11343800E0F1F1FAE014F565F4FB801CE012EDA3C
S1134390009751F0BC01CE0109960E94DC4189E4EA
S11343A090E09D838C8312C0AE0145565F4FB801E7
S11343B0CE011CDA009751F0BC01CE0109960E948F
S11343C0DC4181E290E09D838C83A1CF81E0DF9189
S11343D0CF911F910F91FF90EF90DF90CF900895B0
S11343E04F925F926F927F928F929F92AF92BF9201
S11343F0DF92EF92FF920F931F93CF93DF93EC0121
S11344008B015EDFD82E811102C0D12C35C26CE243
S113441070E0C8010E94C8418C010F5F1F4F7E01EC
S113442089E0E80EF11C6AEF75E0C7010E94D341F0
S1134430892B09F0ADC0B801CE0112DA6CE270E04C
S1134440C8010E94C8418C010F5F1F4FB801CE0103
S113445056DA6CE270E0C8010E94C8418C010F5F1B
S11344601F4FB801CE0121DB882379F26CE270E0A2
S1134470C8010E94C8418C010F5F1F4FB801CE01D3
S113448048DB6CE270E0C8010E94C8418C010F5FF8
S11344901F4FB801CE0115DC882309F4B6CF6CE2B6
S11344A070E0C8010E94C8418C010F5F1F4FFC01DE
S11344B081818C32C1F0C8010E944041FE01E8585C
S11344C0FF4F80833197882369F081E08083FA96D7
S11344D080819181A281B381709780839183A2832B
S11344E0B38301C010826CE270E0C8010E94C8412D
S11344F08C010F5F1F4FFC0181818C3239F0C801A0
S11345000E944041FE01E658FF4F80836CE270E058
S1134510C8010E94C8418C010F5F1F4FFC018181BB
S11345208C3251F0C8010E943D41FE01E859FF4F11
S113453060837183828393836CE270E0C8010E947C
S1134540C8418C010F5F1F4FFC0181818C3251F0F7
S1134550C8010E943D41FE01E85AFF4F6083718308
S1134560828393836CE270E0C8010E94C8416CE2CC
S113457070E001960E94C841FC0121812C3209F4AB
S113458067C101960E943D41FE01EC5AFF4F5CC198
S113459066E076E0C7010E94D341892B09F0A5C0EB
S11345A0B801CE015DD96CE270E0C8010E94C84137
S11345B08C010F5F1F4FB801CE01B2DB882309F4D1
S11345C024CF6CE270E0C8010E94C8418C010F5FE7
S11345D01F4FB801CE0193D96CE270E0C8010E946C
S11345E0C8418C010F5F1F4FB801CE015EDA8823EA
S11345F009F40BCF6CE270E0C8010E94C8418C0141
S11346000F5F1F4FB801CE0184DA6CE270E0C8017D
S11346100E94C8418C010F5F1F4FB801CE0151DBCE
S1134620882309F4F2CE6CE270E0C8010E94C8410C
S11346308C010F5F1F4FFC0181818C3251F0C80146
S11346400E943D41FE01E45AFF4F608371838283DF
S113465093836CE270E0C8010E94C8418C010F5F33
S11346601F4FFC0181818C3251F0C8010E943D41F1
S1134670FE01E05AFF4F60837183828393836CE26F
S113468070E0C8010E94C841FC0121812C3209F468
S1134690DFC001960E943D410E9429102B013C017C
S11346A020E137E240E050E00E94B93E2BAF24E61F
S11346B0822E912CA12CB12CA50194010E94B93E0B
S11346C02AAFC301B201A50194010E94B93E69AFAA
S11346D0FE01EF54FF4F80819181A281B38138970D
S11346E080839183A283B383B3C06EEF75E0C70167
S11346F00E94D341892B09F042C0B801CE01FFD8F2
S11347006CE270E0C8010E94C8418C010F5F1F4F2A
S1134710B801CE01CAD9882309F477CE6CE270E0DF
S1134720C8010E94C8418C010F5F1F4FB801CE0120
S1134730F0D96CE270E0C8010E94C8418C010F5F9F
S11347401F4FB801CE01BDDA882309F45ECE6CE2B6
S113475070E0C8010E94C8418C010F5F1F4FB8016F
S1134760CE017ED86CE270E0C8010E94C841BC0151
S11347706F5F7F4FCE01D4DA81116AC046CE62E00A
S113478076E0C7010E94D341892B09F03ECE6CE24A
S113479070E0C8010E94C8418C010F5F1F4FFC01EB
S11347A081818C3239F0C8010E944041FE01E758F2
S11347B0FF4F80838CE0A82EB12C6CE270E0C8011E
S11347C00E94C8418C010F5F1F4FF1E0AF1AB1087E
S11347D0A1F76CE270E0C8010E94C8418C010F5F30
S11347E01F4FFC0181818C3251F0C8010E943D4170
S11347F0FE01E059FF4F60837183828393836CE2EF
S113480070E0C8010E94C8418C010F5F1F4FFC017A
S113481081818C3251F0C8010E943D41FE01E8596A
S1134820FF4F60837183828393836CE270E0C801DD
S11348300E94C841FC0121812C3251F001960E9452
S11348403D41FE01E459FF4F60837183828393836A
S1134850BE016A5F7F4FCE014D960E94DC41B701D5
S1134860CE0180960E94DC410E944A17C356DF4F56
S1134870688379838A839B838D2DDF91CF911F91E8
S11348800F91FF90EF90DF90BF90AF909F908F902B
S11348907F906F905F904F900895CF93DF931F9216
S11348A0CDB7DEB7FC0119826370668BDC01AA5BAD
S11348B0BF4F8C91982F9B7FAF014C5B5F4F913022
S11348C029F4623008F493E0DA019C939F012D5B94
S11348D03F4F6230D9F0633009F43FC0613071F06A
S11348E0823011F0843029F490EC9983813019F4EA
S11348F015C098EC10C08430B1F01CC0823011F0A7
S1134900843011F490EA2EC098EA35C0823091F0D8
S1134910843049F098E09983813061F480E890E034
S1134920938782870DC080EA90E09387828780E531
S113493090E006C080EA90E09387828780E890E068
S113494091878087D9018C9190E092AF81AFDA0191
S11349508C9190E094AF83AF2DC0823011F08430FD
S113496049F490E69983813051F480E890E091878E
S1134970808714C098E69983813051F4F6CF84304F
S113498039F480EA90E09187808780E590E006C062
S113499080EA90E09187808780E890E0938782871F
S11349A0D9018C9190E094AF83AFDA018C9190E0BF
S11349B092AF81AF21E0AE014F5F5F4F66E3CF015D
S11349C00E941B380F90DF91CF910895EF920F93BF
S11349D0CF93DF93EC01E22E042F262F40EA50E020
S11349E060E870E0B7D08BE796E099838883DF9125
S11349F0CF910F91EF90089541155105610571050F
S1134A0021F440E058E468EE71E0FC01FF96408335
S1134A1051836283738321E2FC0125AF20E226AF38
S1134A20EB5BFF4F20810C9446368F929F92AF929E
S1134A30BF92CF92DF92EF92FF920F931F93CF9387
S1134A40DF93EC0189AD9AAD4B01880E991E8BADB5
S1134A509CAD480F591FC9010197880D991DA0E00D
S1134A60B0E0A12CB12C540199248824882A992AD5
S1134A70AA2ABB2A015011096801C40ED51E860159
S1134A8020E030E06A01E12CF12C7601DD24CC2415
S1134A90C02AD12AE22AF32A6AE2CE010E94B5375B
S1134AA0B501A401CE010E94F0386BE2CE010E9450
S1134AB0B537B701A601CE010E94F0386CE2CE01F1
S1134AC0DF91CF911F910F91FF90EF90DF90CF90E6
S1134AD0BF90AF909F908F900C94B537CF93DF9396
S1134AE01F92CDB7DEB7FC0119826370668B8D5BB4
S1134AF09F4FAF014C5B5F4F623049F0633091F0E0
S1134B00613019F020EC298302C020EA0CC0DC01DA
S1134B108C9190E092AF81AFDA018C9190E094AFE8
S1134B2083AF0CC020E62983DC018C9190E094AF24
S1134B3083AFDA018C9190E092AF81AF21E0AE01B6
S1134B404F5F5F4F66E3CF010E941B380F90DF91E8
S1134B50CF910895EF920F93CF93DF93EC010E94CE
S1134B6039368BEA96E099838883FE01ED5BFF4F2B
S1134B70108231961082CB5BDF4F1882DF91CF9188
S1134B800F91EF900895AF92BF92CF92DF92EF9280
S1134B90FF920F931F93CF93DF93EC01E62EA72E82
S1134BA0F42EB52E69018FEF9FEF9D838C839F8335
S1134BB08E8361E08E2D0E949D1860E08F2D0E94EF
S1134BC09D18E882A982FA82BB82DD82CC821F838F
S1134BD00E83DF91CF911F910F91FF90EF90DF90A3
S1134BE0CF90BF90AF900895CF92DF92EF92FF9253
S1134BF0CF93DF93EC0160E088810E94D91885E0AF
S1134C0090E00E94B51761E088810E94D9188AE07B
S1134C1090E00E94B51760E088810E94D9188A81CB
S1134C200E940719892BD9F30E9456176B017C0146
S1134C308A810E9407190197D9F30E945617CB0164
S1134C408C199D09DF91CF91FF90EF90DF90CF9069
S1134C500895CF93DF93EC01C7DF97FD0196BC0164
S1134C6075956795072E000C880B990B0E945710B9
S1134C7027EE3BEF49EA5EE30E940B110E942410E9
S1134C809B014C815D814F3FAFEF5A0721F4EE81C8
S1134C90FF81319659F0421753072CF44E815F81FE
S1134CA0241735071CF08FEF9FEF01C0CB01DF9174
S1134CB0CF9108951F920F920FB60F9211240BB645
S1134CC00F922F933F934F935F936F937F938F93A1
S1134CD09F93AF93BF93EF93FF93E091B611F0913D
S1134CE0B711309709F44FC0968DA685B785858591
S1134CF091FF04C09C91892329F445C09C91892388
S1134D0009F041C0A389B4899C9185898095892340
S1134D108C93868997890197F1F7608D718DA685AB
S1134D20B785558538E020E0CB010197F1F7822F54
S1134D3090E095958795282F4C91452309F020689C
S1134D40315091F7868D81FD20958091B51090E0CA
S1134D5001963091B410381749F0A091B510B0E025
S1134D60AA54BF4E2C938093B51003C0868D8160E6
S1134D70868F828D938D0197F1F7A389B4899C91D5
S1134D808589892B8C93FF91EF91BF91AF919F916E
S1134D908F917F916F915F914F913F912F910F90E0
S1134DA00BBE0F900FBE0F901F901895CF93CFB7E7
S1134DB0F8948091BB11811127C0EBE3F2E0849158
S1134DC0E5EFF1E09491E82FF0E0EE0FFF1FE058DB
S1134DD0FD4FA591B491EC91E92321F461E085E3C1
S1134DE00E94D91861E085E30E949D188CB580610A
S1134DF08CBD8CB580648CBD61E084E30E949D18F9
S1134E0061E083E30E949D188091BB118F5F8093C2
S1134E10BB11CFBFCF9108958091F11190E0209103
S1134E20F211821B910908959091F2118091F11170
S1134E30981750F4E92FF0E0ED50FE4E208130E059
S1134E409F5F9093F21102C02FEF3FEFC9010895C5
S1134E50E091F2118091F111E81730F4F0E0ED5097
S1134E60FE4E808190E008958FEF9FEF089508959E
S1134E70CF93DF93EC01E091C911F091CA113097FF
S1134E80F1F09091F2118091F1119817C0F090E037
S1134E90292F30E02617370754F4DE01A20FB31F81
S1134EA04C91D901AD50BE4E4C939F5FF1CF1092FF
S1134EB0F2116093F111CB01DF91CF911994DF913D
S1134EC0CF910895E091CB11F091CC11309729F056
S1134ED01092CF111092CE1119940895CF92DF92AF
S1134EE0EF92FF920F931F93CF93DF937C01CB013B
S1134EF08A012091CD11222389F0EB016B01C40EAC
S1134F00D51ECC15DD0569F06991D701ED91FC91B1
S1134F100190F081E02DC7011995F3CF642F0E9411
S1134F201B3DC801DF91CF911F910F91FF90EF902E
S1134F30DF90CF900895CF93DF931F92CDB7DEB764
S1134F4069832091CD112223D1F02091CE112032FA
S1134F5040F021E030E0FC013383228380E090E0E4
S1134F6015C08091CF11E82FF0E0E053FE4E9981F7
S1134F7090838F5F8093CF118093CE1105C061E041
S1134F80CE0101960E941B3D81E090E00F90DF91DD
S1134F90CF910895FC011382128288EE93E0A0E081
S1134FA0B0E084839583A683B7838BED96E09183E9
S1134FB0808308951092F2111092F1111092CF1182
S1134FC01092CE110E945F3C82E697E20E94483D17
S1134FD088E397E20C94433D81E08093CD11609384
S1134FE0F0111092CF111092CE110895F5CF0F93B6
S1134FF0062F21E04091CE1160ED71E18091F01116
S11350000E94C53C1092CF111092CE111092CD1176
S11350100F9108954F925F926F927F92AF92BF92D9
S1135020CF92EF92FF920F931F93CF93DF935C0184
S1135030F62ED42F28013901EE2011F1CDDFCE2D2B
S1135040C43008F0C3E0C150C0F028E0C29FC001E2
S11350501124A301920104C05695479537952795CD
S11350608A95D2F7CA01B901D501ED91FC9101905D
S1135070F081E02DC5011995E6CF60E0C501B7DFE9
S11350804D2FD13208F040E22C2D63EF71E18F2DCA
S11350900E947D3C1092F2118093F111DF91CF9127
S11350A01F910F91FF90EF90CF90BF90AF907F90A2
S11350B06F905F904F900895CF92EF920F931F934C
S11350C0C22EE12C00E010E09801A4DF1F910F91A3
S11350D0EF90CF90089521E0EFCF21E0EDCFECCF1A
S11350E061E085CF8DEB91E155CF885E9E4FDC0169
S11350F08D919C91DC01ED91FC910084F185E02D72
S11351001994885E9E4FDC018D919C91DC01ED9198
S1135110FC910190F081E02D1994885E9E4FDC0192
S11351208D919C91DC01ED91FC910284F385E02D3D
S11351301994885E9E4FDC018D919C91DC01ED9168
S1135140FC910484F585E02D1994885E9E4FDC0162
S11351508D919C91DC01ED91FC910680F781E02D0D
S11351601994FC011382128288EE93E0A0E0B0E06F
S113517084839583A683B78384E497E091838083B3
S11351806487DF01A35FBE4F87E294E011969C938E
S11351908E93129611961C921E92129611961C9240
S11351A01E92179611961C921E9215971C92119698
S11351B082E294E08D939C93EA5EFE4F8FE194E04B
S11351C09183808308950F931F93CF93DF93EC0112
S11351D080E090E08C010F5F1F4F8897D8F4E8813E
S11351E0F9810084F185E02DCE011995892B51F0C8
S11351F0E881F9810284F385E02DCE01199500E060
S113520010E0EDCF61E070E080E090E00E947B1759
S1135210C801E0CFDF91CF911F910F910895AF9214
S1135220BF92CF92DF92EF92FF920F931F93CF938F
S1135230DF93EC018B016C018EE0C80ED11CE12CD4
S1135240F12C5E01A8EEAA1AAEEFBA0A0E151F05DC
S113525019F1BEEFEB16F104E9F0F50180819181BB
S1135260DC01ED91FC910084F185E02D1995892BE9
S113527069F3F50180819181DC01ED91FC91028457
S1135280F385E02D1995F60181936F01FFEFEF1A75
S1135290FF0ADCCF0EEF10E0C00FD11F1E86C8013D
S11352A0DF91CF911F910F91FF90EF90DF90CF90FE
S11352B0BF90AF900895BF92CF92DF92EF92FF928A
S11352C00F931F93CF93DF937C01B42E8B01C0E027
S11352D0D0E06C0188EEC81A8EEFD80A01151105CA
S11352E089F1CE3FD10570F5D6018D919C91DC01F9
S11352F0ED91FC910084F185E02D1995892BC1F085
S1135300F60180819181DC01ED91FC910284F385A9
S1135310E02D19958D3041F38A3021F4209721F343
S1135320BB2081F0F701EC0FFD1F86872196DCCFAF
S11353300150110939F061E070E080E090E00E94D2
S11353407B17CCCFF701EC0FFD1F16868C2FDF9156
S1135350CF911F910F91FF90EF90DF90CF90BF906E
S11353600895EF92FF920F931F93CF93DF93EC0175
S11353708B017A0128DF6FEA72E083E39EE00E94EA
S11353807915B80183E39EE00E94D615FE01E85E1C
S1135390FE4FB801808191810E94D61540E0B7018B
S11353A0CE0189DF182F68EA72E083E39EE00E9451
S11353B07915BE01625F7F4F83E39EE00E94D6159C
S11353C0812FDF91CF911F910F91FF90EF9008955E
S11353D0EF92FF920F931F93CF93DF93EC018B0116
S11353E07A01F1DE61EA72E083E39EE00E947915BE
S11353F0B80183E39EE00E94B615FE01E85EFE4F0D
S1135400B801808191810E94B61540E0B701CE01B8
S113541052DF182F6AE972E083E39EE00E94791557
S1135420BE01625F7F4F83E39EE00E94D615812F09
S1135430DF91CF911F910F91FF90EF9008950F93FB
S11354401F93CF93DF93EC018A01A901C1DF882365
S113545041F0B801CE010E960E94934121E0892BC0
S113546009F020E0822FDF91CF911F910F910895D1
S1135470BF92CF92DF92EF92FF920F931F93CF933D
S1135480DF93EC016C0188EEC81A8EEFD80AD601BE
S11354906D937C9361E08C850E949D1861E08C85FE
S11354A00E94D9186AE070E080E090E00E947B17C7
S11354B060E08C850E94D91864E670E080E090E09A
S11354C00E947B1761E08C850E94D9186EEF73E00F
S11354D083E39EE00E94B6158EE0E82EF12C8E0147
S11354E00A5E1E4FF60180819181DC01ED91FC91F1
S11354F00084F185E02D1995892B59F0F6018081FE
S11355009181DC01ED91FC910284F385E02D1995E4
S1135510E9CFF8014081518124EF31E06BEF73E072
S1135520CE018DDF81115FC0D6018D919C91DC018C
S1135530ED91FC910084F185E02D1995892B59F0AA
S1135540F60180819181DC01ED91FC910284F38567
S1135550E02D1995E9CF24EF31E048EF53E065EFF2
S113556073E0CE016CDF81113EC064EF71E080E036
S113557090E00E947B17B1E0EB1AF10809F0B2CF7A
S113558063EC73E083E39EE00E94B615F80140816A
S1135590518124EF31E060EC73E0CE0150DF64E62A
S11355A070E080E090E00E947B17D8014D915C91FF
S11355B024EF31E06DEB73E0CE0141DF64E670E08F
S11355C080E090E00E947B17F8014081518124EF34
S11355D031E06AEB73E0CE0132DF64E670E080E034
S11355E090E00E947B17F8014081518124EF31E063
S11355F065EB73E0CE0123DF64E670E080E090E0C9
S11356000E947B17D8014D915C9124EF31E060EB4F
S113561073E0CE0114DFB82E882309F49DC0F8018D
S11356204081518124EF31E066EA73E0CE0107DF67
S113563064E670E080E090E00E947B17CE01C3DD59
S11356406FE973E083E39EE00E9479156BEF76E0E7
S113565083E39EE00E94D6156BEF76E0D6018D9130
S11356609C910E94D61541E064EF71E0CE0123DEE7
S113567068E973E083E39EE00E9479157E01BEE051
S1135680EB0EF11CB70183E39EE00E94D6156DE892
S113569073E0C7010E94A541892B11F083E023C068
S11356A062E873E0C7010E94A541892B11F082E0F2
S11356B01AC067E773E0C7010E94A541892B11F066
S11356C081E011C067E673E0C7010E94A541892B00
S11356D011F084E008C067E573E0C7010E94A541AA
S11356E0892B11F085E08D878D85813061F560E52A
S11356F073E083E39EE00E9479156FEF76E083E325
S11357009EE00E94D6156FEF76E0F60180819181CC
S11357100E94D61541E064EF71E0CE01CCDD69E46E
S113572073E083E39EE00E947915B70183E39EE072
S11357300E94D61561E473E0C7010E94A541892B3C
S113574011F086E08D87D8014D915C9124EF31E012
S11357506AE273E0CE0173DE8B2DDF91CF911F914E
S11357600F91FF90EF90DF90CF90BF9008950F932B
S11357701F93CF93DF93EC018A01A901F2DD882303
S113578041F0B801CE010E960E94934121E0892B8D
S113579009F020E0822FDF91CF911F910F9108959E
S11357A0AF92BF92CF92DF92EF92FF920F931F932B
S11357B0CF93DF93CDB7DEB76E970FB6F894DEBF05
S11357C00FBECDBF8C015B016A01FC01EA5EFE4F96
S11357D04081518124EF31E066EC72E030DE8823B1
S11357E009F483C08AE0E4E6F2E09E012F5F3F4FB4
S11357F07901D90101900D928A95E1F7FE013B965A
S113580084E1DF011D928A95E9F743E150E0B50197
S1135810CE010A960E94F141F70101900020E9F7B8
S1135820319782E2808324EF31E043EC52E0B70108
S1135830C8019DDF882309F458C060EC72E083E35B
S11358409EE00E947915B60183E39EE00E94D6157E
S1135850B6017801B8EEEB1ABEEFFB0AF7018081BE
S113586091810E94D615D7018D919C910E94B31508
S1135870F70180819181DC01ED91FC910190F0812F
S1135880E02D6AE1199568E177E083E39EE00E94E8
S1135890D615F80185858450823050F440E068ECD8
S11358A070E0C80108DD40E068EC70E0C80103DD89
S11358B040E060E177E2C801FEDC7801FEE0EF0E33
S11358C0F11C6BE177E0C7010E940042892B69F06B
S11358D040E068EE73E0C801EEDC6EEE76E0C701EE
S11358E00E94D34121E0892B09F020E0822F6E969B
S11358F00FB6F894DEBF0FBECDBFDF91CF911F91DD
S11359000F91FF90EF90DF90CF90BF90AF900895EC
S1135910DF92EF92FF920F931F93CF93DF93CDB754
S1135920DEB72C970FB6F894DEBF0FBECDBF8C0147
S1135930D62E7C018AEEE81A8EEFF80AF701408130
S1135940518124EF31E066EB72E0C80178DD8823F1
S113595011F18CE0E1E2F7E0DE01119601900D9285
S11359608A95E1F78D2D64E60E949A3E20E3280F84
S11359702987892F6AE00E949A3E805D8A87905D1C
S11359809B87F7014081518120ED37E0BE016F5FB5
S11359907F4FC801ECDE2C960FB6F894DEBF0FBE25
S11359A0CDBFDF91CF911F910F91FF90EF90DF90CA
S11359B00895AF92BF92CF92DF92EF92FF920F932E
S11359C0CF93DF935B016A01E22E0E960E94A541FC
S11359D0EC01892BC1F0C5010E949C418C0F9D1FD5
S11359E0C0E0F12CC01741F0B7010E94C8410097F4
S11359F051F00196CF5FF6CF0E944041F6019183AA
S1135A00808381E001C080E0DF91CF910F91FF900E
S1135A10EF90DF90CF90BF90AF9008955F926F9218
S1135A207F928F929F92AF92BF92CF92DF92EF922A
S1135A30FF920F931F93CF93DF931F921F92CDB7C3
S1135A40DEB73C01F62E6A01490158018C010A5E59
S1135A501E4FF8014081518124EF31E060E273E090
S1135A60EEDC811102C0512C6DC0F80140815181DE
S1135A7024EF31E066E173E0C301E1DC882399F3AC
S1135A801A8219826DE073E083E39EE00E94791527
S1135A904AE050E06F2D83E39EE00E94501664E0DC
S1135AA073E08301085E1E4FF801808191810E949A
S1135AB079154AE050E06F2DF801808191810E94B0
S1135AC0501640E068EE73E0C301F5DB7301FEE0BD
S1135AD0EF0EF11CB70183E39EE00E94D6150BE0A4
S1135AE02CE2AE014F5F5F4F6DEF72E0C30161DFE7
S1135AF0582E811104C0F5011182108223C06981DE
S1135B007A81C3018CDBC3015EDBF70101900020C5
S1135B10E9F731978F010E191F098016910608F4D1
S1135B208401A801B701C6010E94F141F601E00F0A
S1135B30F11F1082B70183E39EE00E94D615F501A0
S1135B4011830083852D0F900F90DF91CF911F91CA
S1135B500F91FF90EF90DF90CF90BF90AF909F9008
S1135B608F907F906F905F9008958F929F92AF92E5
S1135B70BF92CF92DF92EF920F931F93CF93DF9355
S1135B804B01EA0169010E960E94A5415C01892B33
S1135B90A9F1C4010E949C418A0D9B1D10E0A02E16
S1135BA0B12C1E1103C070E060E022C0B5010E9458
S1135BB0C841009719F101961F5FF3CF262F30E0FB
S1135BC0FC0101900020E9F73197E81BF90B2E172F
S1135BD03F07B0F4FC01E20FF31F2081021781F0AC
S1135BE0223229F0FE01E40FF51F20837F5F6F5FEF
S1135BF0472F50E04C155D050CF306C080E005C04E
S1135C00FE01E40FF51F108281E0DF91CF911F9117
S1135C100F91EF90DF90CF90BF90AF909F908F90B7
S1135C200895AF92BF92CF92DF92EF92FF920F93BB
S1135C301F93CF93DF93EC01F62E6A0159018C0177
S1135C400A5E1E4FF8014081518124EF31E063EF79
S1135C5072E0F5DB811102C080E043C0F8014081AD
S1135C60518124EF31E069EE72E0CE01E8DB882354
S1135C7099F360EE72E083E39EE00E9479154AE0B6
S1135C8050E06F2D83E39EE00E9450168E01085E63
S1135C901E4F67ED72E0F801808191810E947915B1
S1135CA04AE050E06F2DF801808191810E945016E6
S1135CB040E068EE73E0CE01FEDABE01625F7F4F22
S1135CC083E39EE00E94D615EE24E3940CE2950152
S1135CD0A60160ED72E0CE0148DF182FCE0173DA21
S1135CE0812FDF91CF911F910F91FF90EF90DF9063
