S01800004F63637570616E63795F736B657463682E7372656386
S1130000A1C400000C9417300C9442300C946D3051
S11300100C9498300C94C3300C94EE300C94193139
S11300200C9444310C94F1270C94F1270C94F1278F
S1130030BAC40000B8C40000B6C40000B4C40000D0
S1130040B2C40000B0C40000AEC40000ACC40000E0
S1130050AAC40000A8C40000A6C400000C94971809
S1130060A2C400000C9490130C94C6139CC400000A
S11300709AC4000098C4000096C4000094C4000010
S113008092C4000090C400008EC400008CC4000020
S11300900C9425140C945B1486C400000C94F43E58
S11300A082C4000080C400007EC400007CC4000040
S11300B07AC4000078C4000076C4000074C4000050
S11300C072C4000070C400006EC400000C94BA1422
S11300D00C94F01468C400000C944F150C9485150E
S11300E062C400004B0B1F0C640C3F0E3F0E960CB9
S11300F0F80C530D950DF90DF919FC19EB19EF19BD
S1130100F519331A001A041A0A1A0E1A121A181AAE
S11301101C1A201A331A261A2A1A2E1A6364696EB4
S11301206F70737578585B004E414E494E4954596F
S1130130494E46CDCCCC3D0AD7233C17B7D13877AE
S1130140CC2B329595E6241FB14F0A0000204100C4
S113015000C84200401C4620BCBE4CCA1B0E5AAE0E
S1130160C59D7441542B434D47443D3F0D0A0053F4
S1130170657474696E672075700000000A0B0209CB
S11301800C0D0E080703040100000000000000002D
S1130190000000000000000000000000000000005B
S11301A00000000000001211100000000000000018
S11301B0000000000000000000000000000000003B
S11301C00102102020080810204010204080020165
S11301D0020108040201010204081020408080404A
S11301E02010080402018004020180402010080449
S11301F002010804020101020408102040800102E7
S113020004081020408005050505070508080808AE
S1130210020202020A0A080804040404010101019A
S11302200101010103030303030303030407070795
S11302300C0C0C0C0C0C0C0C02020202060606063A
S1130240060606060B0B0B0B0B0B0B0B000020001A
S11302502300260029002C002F003200000100009A
S113026003010601090100002200250028002B00DB
S11302702E003100340002010000050108010B01C9
S113028000002100240027002A002D003000330044
S113029001010000040107010A01093C2D2D2D2054
S11302A000092D2D2D3E2000093C2D2D2D20000967
S11302B02D2D2D3E200041542B434D47463D31000A
S11302C03E20003E200041542B434D47463D310023
S11302D02B434D47523A0041542B434D47523D0066
S11302E041542B434D47523D0041542B4353444802
S11302F03D310041542B434D47463D31002B434D86
S113030047523A0041542B434D47523D0041542B30
S1130310434D47523D0041542B435344483D310023
S113032041542B434D47463D310041542B43504DDE
S1130330533D22534D222C22534D222C22534D2225
S11303400053494D3830304800093C2D2D2D2000F4
S1130350092D2D2D3E200053494D434F4D5F5349E8
S11303604D35333230450053494D434F4D5F53496A
S11303704D35333230410053494D383030205231FD
S1130380330053494D383038205231330053494DEE
S11303903830382052313400093C2D2D2D200009ED
S11303A02D2D2D3E200041542B435648553D300001
S11303B041544530004154453000415400415400FB
S11303C041540054696D656F75743A204E6F207204
S11303D06573706F6E736520746F2041542E2E2EDA
S11303E0206C61737420646974636820617474653B
S11303F06D70742E00415400415400415400417406
S113040074656D7074696E6720746F206F70656EAB
S113041020636F6D6D207769746820415473004FB9
S11304204B00464F4E4100464F4E416E65740000EE
S1130430000000003E5B4F5B3E3E6B4F6B3E1C3E3C
S11304407C3E1C183C7E3C181C577D571C1C5E7F50
S11304505E1C00183C1800FFE7C3E7FF00182418CF
S113046000FFE7DBE7FF30483A060E262979292604
S1130470407F050507407F05253F5A3CE73C5A7FEE
S11304803E1C1C08081C1C3E7F14227F22145F5F44
S1130490005F5F06097F017F006689956A6060607E
S11304A0606094A2FFA29408047E040810207E20B9
S11304B01008082A1C08081C2A08081E101010100E
S11304C00C1E0C1E0C30383E3830060E3E0E060054
S11304D00000000000005F00000007000700147F18
S11304E0147F14242A7F2A1223130864623649567F
S11304F020500008070300001C2241000041221C78
S1130500002A1C7F1C2A08083E080800807030005E
S11305100808080808000060600020100804023E73
S11305205149453E00427F400072494949462141B4
S1130530494D331814127F1027454545393C4A4923
S11305404931412111090736494949364649492962
S11305501E00001400000040340000000814224172
S11305601414141414004122140802015909063EFB
S1130570415D594E7C1211127C7F494949363E41F6
S11305804141227F4141413E7F494949417F090917
S113059009013E414151737F0808087F00417F41B2
S11305A0002040413F017F081422417F40404040E9
S11305B07F021C027F7F0408107F3E4141413E7F41
S11305C0090909063E4151215E7F09192946264938
S11305D049493203017F01033F4040403F1F20400F
S11305E0201F3F4038403F63140814630304780419
S11305F0036159494D43007F4141410204081020E1
S1130600004141417F040201020440404040400057
S11306100307080020545478407F28444438384461
S1130620444428384444287F385454541800087EDD
S1130630090218A4A49C787F0804047800447D402F
S1130640002040403D007F1028440000417F4000CE
S11306507C047804787C080404783844444438FCE6
S11306601824241818242418FC7C0804040848546A
S113067054542404043F44243C4040207C1C204027
S1130680201C3C4030403C44281028444C9090901E
S11306907C4464544C440008364100000077000058
S11306A0004136080002010204023C2623263C1EB7
S11306B0A1A161123A4040207A3854545559215529
S11306C05579412254547842215554784020545548
S11306D079400C1E52721239555555593954545497
S11306E05939555454580000457C410002457D4217
S11306F00001457C407D1211127DF0282528F07CF4
S1130700545545002054547C547C0A097F4932498D
S11307104949323A4444443A324A4848303A4141D9
S1130720217A3A42402078009DA0A07D3D42424279
S11307303D3D4040403D3C24FF2424487E494366DF
S11307402B2FFC2F2BFF0929F620C0887E090320BC
S1130750545479410000447D413048484A3238407D
S113076040227A007A0A0A727D0D19317D262929E0
S11307702F28262929292630484D402038080808E2
S11307800808080808382F10C8ACBA2F102834FA03
S113079000007B000008142A142222142A1408558D
S11307A000550055AA55AA55AAFF55FF55FF00004C
S11307B000FF00101010FF00141414FF001010FFAD
S11307C000FF1010F010F0141414FC001414F700BF
S11307D0FF0000FF00FF1414F404FC141417101F8E
S11307E010101F101F1414141F00101010F000001C
S11307F000001F101010101F10101010F010000037
S113080000FF101010101010101010FF1000000046
S1130810FF140000FF00FF00001F10170000FC047D
S1130820F414141710171414F404F40000FF00F760
S113083014141414141414F700F7141414171410C3
S1130840101F101F141414F4141010F010F00000F2
S11308501F101F0000001F14000000FC140000F013
S113086010F01010FF10FF141414FF141010101FB8
S113087000000000F010FFFFFFFFFFF0F0F0F0F0C9
S1130880FFFFFF0000000000FFFF0F0F0F0F0F38E6
S113089044443844FC4A4A4A347E02020606027E34
S11308A0027E0263554941633844443C04407E203F
S11308B01E2006027E020299A5E7A5991C2A492A50
S11308C01C4C7201724C304A4D4D303048784830DF
S11308D0BC625A463D3E494949007E0101017E2AD7
S11308E02A2A2A2A44445F444440514A444040440A
S11308F04A51400000FF0103E080FF000008086B3C
S11309006B083612362436060F090F060000181835
S11309100000001010003040FF0101001F01011E03
S113092000191D1712003C3C3C3C00000000000074
S113093042079D074A09830F980FF8138D14221557
S1130940B715092A11241FBECFEFD1E2DEBFCDBFF8
S113095000E00CBF17E0A0E0B2E0E6E2F1E900E05D
S11309600BBF02C007900D92AE3CB107D9F722E14C
S1130970AEECB7E001C01D92A63AB207E1F714E06D
S1130980C2EAD4E000E006C021970109802FFE01ED
S11309900E949340C839D10780E00807A9F70E9454
S11309A0E5150C9491482CCBDC01ED91FC91019060
S11309B0F081E02D199468E670E08CED91E10E94DD
S11309C08D296BE670E08CED91E1EEDF60E070E084
S11309D08CED91E1E9DF8CED91E10E94072A68E654
S11309E070E08CED91E10E948D296BE170E08CED5B
S11309F091E1DADF60E070E08CED91E1D5DF8CED20
S1130A0091E10E94072A68E670E08CED91E10E9472
S1130A108D296CE170E08CED91E1C6DF68E170E056
S1130A208CED91E1C1DF8CED91E10C94072ACF9319
S1130A30DF93CEECD7E06091FA077091FB078091C9
S1130A40FC079091FD070E940E1120E030E040E089
S1130A505AE30E94C211688379838A839B836091DD
S1130A60F6077091F7078091F8079091F9070E94B3
S1130A700E1120E030E040E05AE30E94C2116C8382
S1130A807D838E839F836091F2077091F307809139
S1130A90F4079091F5070E940E1120E030E040E049
S1130AA05AE30E94C211688779878A879B87DF91FE
S1130AB0CF910895CF93DF93CEECD7E06091EE070A
S1130AC07091EF078091F0079091F1070E940E1149
S1130AD020E030E044E253E40E9473106C877D8789
S1130AE08E879F876091EA077091EB078091EC07EE
S1130AF09091ED070E940E1120E030E044E253E4AF
S1130B000E947310688B798B8A8B9B8B6091E607AC
S1130B107091E7078091E8079091E9070E940E1110
S1130B2020E030E044E253E40E9473106C8B7D8B30
S1130B308E8B9F8BDF91CF910895CF9368E670E001
S1130B408CED91E10E948D296BE370E08CED91E1D5
S1130B502BDF8CED91E10E94072A46E050E068E625
S1130B6070E08CED91E10E94042A8CED91E10E94E9
S1130B70A3280697D4F38CED91E10E94AB28C82FEB
S1130B808CED91E10E94AB2820E030E03C2F822BD9
S1130B90932B092E000CAA0BBB0B8093FA0790939E
S1130BA0FB07A093FC07B093FD078CED91E10E9435
S1130BB0AB28C82F8CED91E10E94AB2820E030E0F7
S1130BC03C2F822B932B092E000CAA0BBB0B80937A
S1130BD0F6079093F707A093F807B093F9078CED05
S1130BE091E10E94AB28C82F8CED91E10E94AB28C3
S1130BF020E030E03C2F822B932B092E000CAA0B13
S1130C00BB0B8093F2079093F307A093F407B09380
S1130C10F507CF910CCFCF9368E670E08CED91E1AE
S1130C200E948D2963E470E08CED91E1BDDE8CEDD2
S1130C3091E10E94072A46E050E068E670E08CEDFE
S1130C4091E10E94042A8CED91E10E94A328069769
S1130C50D4F38CED91E10E94AB28C82F8CED91E187
S1130C600E94AB2820E030E03C2F822B932B092EEE
S1130C70000CAA0BBB0B8093EE079093EF07A09395
S1130C80F007B093F1078CED91E10E94AB28C82FD7
S1130C908CED91E10E94AB2820E030E03C2F822BC8
S1130CA0932B092E000CAA0BBB0B8093EA0790939D
S1130CB0EB07A093EC07B093ED078CED91E10E9454
S1130CC0AB28C82F8CED91E10E94AB2820E030E0E6
S1130CD03C2F822B932B092E000CAA0BBB0B809369
S1130CE0E6079093E707A093E807B093E907CF914D
S1130CF0E1CECF93DF93EC0120DF8DDF88E1EEECD2
S1130D00F7E0DE0101900D928A95E1F7CE01DF91C3
S1130D10CF91089580E090E0089526E040EC52E100
S1130D2060E070E080910602909107020E942A130D
S1130D3060910602709107028AE399E00E94CF2B2A
S1130D4065E073E080910602909107020C946216AC
S1130D50EF92FF920F931F93CF93DF93CDB7DEB73C
S1130D60A2970FB6F894DEBF0FBECDBF8AE399E019
S1130D700E940C2A892B09F44EC00AEF18E078016E
S1130D808AE399E00E94242AF80181938F0161E0AB
S1130D9070E080E090E00E941219F70180818A30AF
S1130DA051F08AE399E00E940C2A892B21F0F9E0A2
S1130DB009331F0721F7F70111828EEF97E09F9304
S1130DC08F9383E193E09F938F938AEF98E09F93AF
S1130DD08F930E94D3430F900F900F900F900F901A
S1130DE00F900197C1F42FE130E0AE014F5F5F4FE8
S1130DF06091FE078AE399E00E94A82F8E010F5D9F
S1130E001F4F2AEF30E040E058E06091FE078AE38C
S1130E1099E00E94A52EA2960FB6F894DEBF0FBEED
S1130E20CDBFDF91CF911F910F91FF90EF90089567
S1130E30CF93DF93CDB7DEB7A0970FB6F894DEBF9C
S1130E400FBECDBF42E253E0BE016F5F7F4F8AE326
S1130E5099E00E94672D6091FE078AE399E00E9461
S1130E601F2E811106C063E671E08AE399E00E94B7
S1130E703016A0960FB6F894DEBF0FBECDBFDF913B
S1130E80CF91089566E18AE399E00E94482AEAE353
S1130E90F9E08CE393E09183808384E0858708956F
S1130EA0CF93DF93EC0184E59AE00E9448201B86EF
S1130EB084E59AE00E94DB22882371F084E59AE0BD
S1130EC00E94E022BC0184E59AE00E9487238111FC
S1130ED030C081E08B872DC02091CB0A288380917C
S1130EE0CC0A90E09A838983222319F16091900AB5
S1130EF07091910A8091920A9091930A0E94DB105A
S1130F007C836B838091C80A8D836091940A70916D
S1130F10950A8091960A9091970A0E94DB107F832C
S1130F206E838091C90A88878091CE0A90E09A875F
S1130F308987CE01DF91CF9108956CE87FE084E545
S1130F409AE00C94562280910902882331F06AE4D5
S1130F5073E082E59EE00E948D1680910A02811161
S1130F60F8C061E087E20E94701A61E083E20E94A7
S1130F70701A68EE73E080E090E00E941219A6D621
S1130F808CED9CE00E94C0279093B00C8093AF0C32
S1130F9080910902882381F06AE573E082E59EE08E
S1130FA00E9462166091AF0C7091B00C4AE050E060
S1130FB082E59EE00E9467178091B70C8093B30C82
S1130FC081E08093B40C9DD62093D60C3093D70C3B
S1130FD04093D80C5093D90C6093DA0C7093DB0CCB
S1130FE081E02091DA0C3091DB0C232B09F480E0B2
S1130FF08093B50C80910902882331F16091AF0C84
S11310007091B00C4AE050E082E59EE00E946117C6
S11310106091B30C70E04AE050E082E59EE00E94EB
S113102061176091B40C70E04AE050E082E59EE004
S11310300E9461176091DA0C7091DB0C4AE050E079
S113104082E59EE00E94611780910D0290910E024C
S11310502091AF0C3091B00C821B930B9093B20C87
S11310608093B10C9091B80C8091B90C911125C06A
S1131070853051F030F4882339F0823009F068C0AB
S113108003C08A3098F064C080910902882361F01B
S11310906AE673E082E59EE00E948D1664EF71E0DB
S11310A080E090E00E94121981E008958091090285
S11310B08823D1F363E873E0EDCF853051F030F449
S11310C0882339F0823009F043C003C08A3078F1B4
S11310D03FC080910902882361F06CE973E082E5E6
S11310E09EE00E948D1664EF71E080E090E00E9423
S11310F012198091AA0C9091AB0C8B3A91055CF07B
S11311008091B10C9091B20C8A3A910524F4909399
S1131110AB0C8093AA0C1092B80C87E0EFEAFCE0C9
S1131120A8EABCE001900D928A95E1F711C0809184
S11311300902882381F361EB73E082E59EE00E945B
S11311408D1664EF71E080E090E00E941219E3CF05
S1131150089580E0089560E08FE10E94341A61E010
S113116082E20E94341A61E087E20E94341A61E04C
S113117089E20E94341A61E08DE20E94341A61E02F
S113118085E20E94341A61E083E20E94341A60E02E
S113119087E20E94701A61E082E20E94701A60E0A5
S11311A089E20E94701A60E08DE20E94701A61E088
S11311B085E20E94701A60E083E20E94701A26E0C1
S11311C040E855E260E070E082E59EE00E942A1368
S11311D080910902882331F06FE671E082E59EE098
S11311E00E946D1626E040E855E260E070E08FEE64
S11311F09EE00E942A1326E040E855E260E070E099
S11312008CE89FE00E942A1326E040E855E260E063
S113121070E089E290E10E942A13CDDB80910902FB
S1131220882331F067EC73E082E59EE00C948D1620
S113123008950F931F93CF93DF938091090288231E
S113124031F06EEC73E082E59EE00E948D1661E061
S113125087E20E94701A64EF71E080E090E00E94DF
S11312601219CAE0D0E08CED9CE00E94C027080F60
S1131270191F2197C1F760E087E20E94701AC80124
S11312806AE070E00E944240CB01DF91CF911F9150
S11312900F9108950F931F9300EA1FE024E130E0BB
S11312A04DE150E06BE170E08CED9CE00E945A2728
S11312B01F910F910895CF92DF92EF92FF920F93B7
S11312C01F93CF93DF93CDB7DEB7AA970FB6F894E9
S11312D0DEBF0FBECDBF8FEE9EE00E942512892B8C
S11312E059F036DD80910902882331F06FED73E007
S11312F082E59EE00E948D1689E290E10E9425120B
S1131300892BD9F180910902882331F06DEE73E0C5
S113131082E59EE00E948D16FF24F39489E290E119
S11313200E942512892B49F189E290E10E943F1223
S11313308C0180910902882329F0602F82E59EE0C8
S11313400E946316C80199278534910581F034F40D
S11313508434910519F7F0920802E0CF83359105A2
S113136049F084359105D1F61092B40CD7CF109280
S11313700802D4CFF092B40CD1CF8CE89FE00E9445
S11313802512892B09F47AC080910902882331F04F
S113139061E074E082E59EE00E948D16CE0107961E
S11313A07FDD8CE0FE013796ACE9BCE001900D9244
S11313B08A95E1F780910902882309F45FC06FE000
S11313C074E082E59EE00E94621660919C0C70E0DD
S11313D04AE050E082E59EE00E94611765E174E016
S11313E082E59EE00E94621660919D0C70919E0CB5
S11313F04AE050E082E59EE00E94671780919C0CD1
S11314008823E1F160E274E082E59EE00E946216C6
S113141060919F0C7091A00C44E050E082E59EE046
S11314200E9461176091A10C82E59EE00E94631600
S11314306BE274E082E59EE00E9462166091A20C69
S11314407091A30C44E050E082E59EE00E94611795
S11314506091A40C82E59EE00E949D166EE274E009
S113146082E59EE00E9462166091A50C7091A60C24
S11314704AE050E082E59EE00E9467178091B90C33
S1131480882309F4F2C08091B80C81110BC085E265
S11314900E949E1A892B31F060E085E20E94701A46
S11314A01092B60C44D56093980C7093990C809369
S11314B09A0C90939B0C809109028823A1F06BE312
S11314C074E082E59EE00E9462164091980C50916F
S11314D0990C60919A0C70919B0C22E030E082E5AB
S11314E09EE00E94421880910A02882349F168E430
S11314F074E082E59EE00E948D1682E59EE0A5D709
S1131500892BD9F362E57EE0CE0101960E94801812
S1131510BE016F5F7F4F82E59EE00E947D16CE0183
S113152001960E94881B7AD66093980C7093990C4C
S113153080939A0C90939B0CCE0101960E94C61A3C
S113154080910A02811142C0CE014396D2DB88E128
S1131550FE017396AEEBBCE001900D928A95E1F723
S113156080910902882309F453C06FE574E082E591
S11315709EE00E9462164091BE0C5091BF0C609197
S1131580C00C7091C10C22E030E082E59EE00E9424
S113159041184091C20C5091C30C6091C40C7091DD
S11315A0C50C22E030E082E59EE00E9441184091A3
S11315B0C60C5091C70C6091C80C7091C90C22E004
S11315C030E082E59EE00E94421822C065E674E0A5
S11315D082E59EE00E948D1661E874E082E59EE05B
S11315E00E948D1682E59EE030D7892BD9F382E5DF
S11315F09EE045D7C097BC01990F880B990B0ED676
S11316006093BE0C7093BF0C8093C00C9093C10C7C
S11316102091C20C3091C30C4091C40C5091C50C64
S11316206091BE0C7091BF0C8091C00C9091C10C64
S1131630F2D42091C60C3091C70C4091C80C509143
S1131640C90CE9D42DEC3CEC4CE85FE397D687FD5C
S11316500CC01092B90C80910902882331F06AE918
S113166074E082E59EE00E9462168091BD0C88239E
S113167019F085E08093B90C66DC8091B90C90E098
S11316808A30910508F0FBC2FC018827EE58FF4F11
S11316908F4F0C94934080910902882361F06CEA87
S11316A074E082E59EE00E948D1664EF71E080E0B4
S11316B090E00E94121980910C02811103C081E014
S11316C080930B021092BD0C85E20E949E1A892B16
S11316D021F060E085E20E94701A82E20E949E1A64
S11316E0892B21F060E082E20E94701A80910A0244
S11316F081113AC0CE014396FCDA88E1FE0173966B
S1131700AEEBBCE001900D928A95E1F7809109025D
S1131710882309F455C06BEB74E082E59EE00E94D7
S113172062162091C20C3091C30C4091C40C5091AC
S1131730C50C6091C60C7091C70C8091C80C909137
S1131740C90C69D42091BE0C3091BF0C4091C00CDF
S11317505091C10C60D4AB01BC0122E030E082E5C1
S11317609EE00E9442182CC06FEB74E082E59EE07C
S11317700E948D1661E874E082E59EE00E948D1659
S113178082E59EE062D6892BD9F382E59EE077D686
S11317908C014AE050E0BC0182E59EE00E9467179C
S11317A0B80160537109072E000C880B990B36D5CC
S11317B06093BE0C7093BF0C8093C00C9093C10CCB
S11317C02091C20C3091C30C4091C40C5091C50CB3
S11317D06091BE0C7091BF0C8091C00C9091C10CB3
S11317E01AD42091C60C3091C70C4091C80C50916A
S11317F0C90C11D42DEC3CEC4CE85FE370D4181602
S11318000CF43FC281E08093B90C0E94E11860930C
S1131810940C7093950C8093960C9093970C8091F4
S11318200902882309F443C26BEC74E082E59EE06C
S11318300E948D1664EF71E080E090E02EC28091EA
S11318400902882361F065EE74E082E59EE00E945F
S11318508D1664EF71E080E090E00E9412190E94FE
S1131860E1180091940C1091950C2091960C3091F4
S1131870970CDC01CB01801B910BA20BB30B8131C4
S11318809742A105B10508F412C280910902882388
S113189031F062EF74E082E59EE00E948D1653DB26
S11318A0882321F061E085E20E94701A41E050E053
S11318B067E476E089E290E10E94F1151092080253
S11318C082E08093B90CF3C180910902882361F00E
S11318D068E075E082E59EE00E948D1664EF71E099
S11318E080E090E00E94121980910A02882331F06E
S11318F067E175E082E59EE00E948D1620E030E00D
S113190040EA52E46091980C7091990C80919A0C81
S113191090919B0C33D587FD02C086E001C085E021
S11319208093B90C81E08093BB0C5BC18091090268
S1131930882361F063E275E082E59EE00E948D16E3
S113194064EF71E080E090E00E94121982E20E944C
S11319509E1A892B31F060E082E20E94701A109284
S1131960B60C8091BC0C81111092BC0C80910A02BF
S1131970882331F06AE275E082E59EE00E948D16CC
S11319808091B80C811110C08091BB0C8823D9F0D0
S11319901092BB0C80910A02811115C04ADC90930D
S11319A00E0280930D020FC085E20E949E1A892BBD
S11319B021F461E085E20E94701A89E10E949E1A76
S11319C0892B09F4AAD920E030E040EA52E460917E
S11319D0980C7091990C80919A0C90919B0CCED498
S11319E087FD4FC18091BD0C81114BC186E0F7C0CA
S11319F080910902882361F06EE275E082E59EE041
S1131A000E948D1664EF71E080E090E00E9412194C
S1131A1081E08093B60C80910A02882331F065E35B
S1131A2075E082E59EE00E948D168091B80C8823B3
S1131A30B9F080910C02882399F0FAD910920C0223
S1131A4080910902882361F069E375E082E59EE0F4
S1131A500E948D1664EF71E080E090E00E941219FC
S1131A60C090980CD090990CE0909A0CF0909B0C3C
S1131A7020E030E04CEA52E4C701B6017FD41816E6
S1131A8014F487E0ACC020E030E040EA52E4C7013F
S1131A90B60125D387FFF5C082E08093B90C81E0BD
S1131AA08093BC0C04C180910902882361F065E431
S1131AB075E082E59EE00E948D1664EF71E080E09F
S1131AC090E00E94121980910A02882331F06CE49C
S1131AD075E082E59EE00E948D16809109028823BC
S1131AE061F060E575E082E59EE00E948D1664EF8A
S1131AF071E080E090E00E941219C090980CD090A0
S1131B00990CE0909A0CF0909B0C20E030E046EBAE
S1131B1052E4C701B60132D4181614F488E05FC049
S1131B2020E030E04CEA52E4B2CF809109028823ED
S1131B3061F06EE575E082E59EE00E948D1664EF2B
S1131B4071E080E090E00E94121980910A028823DB
S1131B5031F065E675E082E59EE00E948D16809185
S1131B60BA0C882351F18091B80C882331F180910B
S1131B700902882361F069E675E082E59EE00E942F
S1131B808D1664EF71E080E090E00E94121989E202
S1131B900E949E1A892B71F461E089E20E94701AF6
S1131BA068EE73E080E090E00E94121960E089E240
S1131BB00E94701A3DD91092BA0CC090980CD09023
S1131BC0990CE0909A0CF0909B0C20E030E042EDF0
S1131BD052E4C701B601D2D3181634F489E08093D5
S1131BE0B90C1092BC0C63C020E030E046EB52E428
S1131BF04ECF80910902882361F063E775E082E5A6
S1131C009EE00E948D1664EF71E080E090E00E94F7
S1131C10121980910A02882331F06AE775E082E59F
S1131C209EE00E948D1680910B028823D9F080914A
S1131C30B80C8823B9F041E050E06EE775E089E222
S1131C4090E1CFD780910902882361F060E875E0C4
S1131C5082E59EE00E948D1664EF71E080E090E0E2
S1131C600E94121920E030E042ED52E46091980C99
S1131C707091990C80919A0C90919B0C0ACF1092C0
S1131C80B90C80910A0281110BC080910902811163
S1131C9007C068EE73E080E090E00E94121907C06C
S1131CA06AE875E082E59EE00E948D16F2CFAA965E
S1131CB00FB6F894DEBF0FBECDBFDF91CF911F9159
S1131CC00F91FF90EF90DF90CF90089569E684EE36
S1131CD09CE00E94DA1B811107C060E975E082E58F
S1131CE09EE00E948D16FFCF65EC75E082E59EE0D4
S1131CF00E948D1664E670E080E090E00C94121966
S1131D0008952F923F924F925F926F927F928F929B
S1131D109F92AF92BF92CF92DF92EF92FF920F9376
S1131D201F93CF93DF93CDB7DEB760970FB6F894C8
S1131D30DEBF0FBECDBF40E46BE37DE084EE9CE0EC
S1131D400E94571C6FED75E082E59EE0BBD72BE344
S1131D50C22E2DE0D22E01E010E0F6014191519106
S1131D60619171916F0122E030E082E59EE00E9472
S1131D7041186BE274E082E59EE0A4D7C801877045
S1131D809927892B19F482E59EE0A4D70F5F1F4F92
S1131D900134110511F761EE75E082E59EE0BDD7CF
S1131DA082E59EE097D79BE3C92E9DE0D92E00E003
S1131DB010E0A12CB12CF6014190519061907190EA
S1131DC06F01B801012E000C880B990B27D29B01DF
S1131DD0AC01C301B201D2D2181624F4C301B2017A
S1131DE0EAD18B0120E030E048EB51E4C301B201B9
S1131DF0C5D287FD03C0FFEFAF1ABF0A8BE3C81635
S1131E008EE0D806C1F61A830983FE0131966F016C
S1131E101E01F9E02F0E311C8BE3882E8DE0982EE5
S1131E20F40141905190619071904F01F6016281EB
S1131E307381072E000C880B990BF0D19B01AC0128
S1131E40C301B2019BD21816B4F4F601608171810A
S1131E50072E000C880B990BE1D19B01AC01C30147
S1131E60B2013DD187FF07C0C301B201A4D1F6017D
S1131E70738362830AC0B701FF0C880B990BCED120
S1131E80A3019201C8D097D17B01FBE38F16FEE03A
S1131E909F0609F0C5CF82E0C80ED11C2C143D0466
S1131EA009F0BACF1C870B87BE86AD86C7016BE3EA
S1131EB070E00E9442400250110981E090E06017F6
S1131EC071070CF080E02B853C854D855E85BC0157
S1131ED080E090E060960FB6F894DEBF0FBECDBFF1
S1131EE0DF91CF911F910F91FF90EF90DF90CF90F2
S1131EF0BF90AF909F908F907F906F905F904F9026
S1131F003F902F90089520E341E365E384EF9CE044
S1131F100C947D26FC01862F6083218332834383C6
S1131F20548360E00C94341A80E49EE068C0FCCFD3
S1131F3020E030E040EA50E467E380E49EE008D02B
S1131F4020E030E040EA50E467E38BE39EE0E2CF38
S1131F50CF92DF92EF92FF921F93CF93DF93EC0126
S1131F60162F69017A0160E0812F0E94341ACA8217
S1131F70DB82EC82FD821883DF91CF911F91FF9069
S1131F80EF90DF90CF900895CF93DF93EC01888199
S1131F900E94B9198983BC017727072E000C880B8E
S1131FA0990B3CD120E030E040E85AE3EBD12A81A0
S1131FB03B814C815D81E6D16E837F8388879987DD
S1131FC020E030E040E05FE325D020E030E048EC62
S1131FD052E4D8D16A877B878C879D8726E636E6CC
S1131FE046EE5FE3CFD120E030E040E052E413D08E
S1131FF06E877F87888B998BDF91CF910895CF93DC
S1132000DF93EC01C1DF6E857F8588899989DF9133
S1132010CF9108955058BB27AA270ED075C166D119
S113202030F06BD120F031F49F3F11F41EF45BC10A
S11320300EF4E095E7FB51C1E92F77D180F3BA178D
S1132040620773078407950718F071F49EF58FC132
S11320500EF4E0950B2EBA2FA02D0B01B9019001BF
S11320600C01CA01A0011124FF27591B99F0593F03
S113207050F4503E68F11A16F040A22F232F342F4B
S11320804427585FF3CF469537952795A795F04099
S11320905395C9F77EF41F16BA0B620B730B840BAE
S11320A0BAF09150A1F0FF0FBB1F661F771F881F66
S11320B0C2F70EC0BA0F621F731F841F48F48795BE
S11320C077956795B795F7959E3F08F0B3CF9395AD
S11320D0880F08F09927EE0F979587950895D9D022
S11320E008F481E008950CD00FC107D140F0FED070
S11320F030F021F45F3F19F0F0C0511139C1F3C041
S113210014D198F39923C9F35523B1F3951B550BB7
S1132110BB27AA2762177307840738F09F5F5F4FB6
S1132120220F331F441FAA1FA9F333D00E2E3AF0F7
S1132130E0E830D091505040E695001CCAF729D011
S1132140FE2F27D0660F771F881FBB1F2617370760
S11321504807AB07B0E809F0BB0B802DBF01FF2790
S113216093585F4F2AF09E3F510568F0B6C000C1F6
S11321705F3FECF3983EDCF3869577956795B795CA
S1132180F7959F5FC9F7880F911D9695879597F9E5
S11321900895E1E0660F771F881FBB1F621773075E
S11321A08407BA0720F0621B730B840BBA0BEE1F73
S11321B088F7E095089504D06894B111D9C00895C2
S11321C0BCD088F09F5790F0B92F9927B751A0F051
S11321D0D1F0660F771F881F991F1AF0BA95C9F7B7
S11321E012C0B13081F0C3D0B1E00895C0C0672FF0
S11321F0782F8827B85F39F0B93FCCF38695779567
S11322006795B395D9F73EF490958095709561954F
S11322107F4F8F4F9F4F0895E89409C097FB3EF47A
S113222090958095709561957F4F8F4F9F4F99231F
S1132230A9F0F92F96E9BB279395F695879577959D
S11322406795B795F111F8CFFAF4BB0F11F460FF5D
S11322501BC06F5F7F4F8F4F9F4F16C0882311F0B5
S113226096E911C0772321F09EE8872F762F05C0C9
S1132270662371F096E8862F70E060E02AF09A9564
S1132280660F771F881FDAF7880F9695879597F959
S11322900895990F0008550FAA0BE0E8FEEF1616F3
S11322A01706E807F907C0F012161306E407F50746
S11322B098F0621B730B840B950B39F40A2661F0BA
S11322C0232B242B252B21F408950A2609F4A1405D
S11322D0A6958FEF811D811D089597F99F6780E86A
S11322E070E060E008959FEF80EC089500240A9464
S11322F01616170618060906089500240A941216DD
S11323001306140605060895092E0394000C11F40F
S1132310882352F0BB0F40F4BF2B11F460FF04C0BC
S11323206F5F7F4F8F4F9F4F089557FD9058440F15
S1132330551F59F05F3F71F04795880F97FB991F20
S113234061F09F3F79F087950895121613061406DD
S1132350551FF2CF4695F1DF08C01616170618066A
S1132360991FF1CF86957105610508940895E89445
S1132370BB2766277727CB0197F908958ADF08F4EE
S11323808FEF08950BD0C0CFB1DF28F0B6DF18F07F
S1132390952309F0A2CFA7CF1124EACFC6DFA0F37B
S11323A0959FD1F3950F50E0551F629FF001729FE6
S11323B0BB27F00DB11D639FAA27F00DB11DAA1F05
S11323C0649F6627B00DA11D661F829F2227B00D52
S11323D0A11D621F739FB00DA11D621F839FA00DDD
S11323E0611D221F749F3327A00D611D231F849F2D
S11323F0600D211D822F762F6A2F11249F57504084
S11324008AF0E1F088234AF0EE0FFF1FBB1F661F1E
S1132410771F881F91505040A9F79E3F510570F0D7
S11324205CCFA6CF5F3FECF3983EDCF386957795BF
S11324306795B795F795E7959F5FC1F7FE2B880FD2
S1132440911D9695879597F90895FC01918D228D9C
S1132450892F90E0805C9F4F821B91098F7399278D
S11324600895FC01918D828D981731F0828DE80FCB
S1132470F11D858D90E008958FEF9FEF0895FC0185
S1132480918D828D981761F0828DDF01A80FB11DA7
S11324905D968C91928D9F5F9F73928F90E00895CB
S11324A08FEF9FEF0895FC01538D448D252F30E06D
S11324B0842F90E0821B930B541710F0CF9608954D
S11324C0019708958FEE93E1892B39F080E090E035
S11324D0892B19F084D1811122C084E894E1892BDD
S11324E039F080E090E0892B19F00ED281111AC0E6
S11324F089E195E1892B39F080E090E0892B19F08E
S113250098D2811112C08EEA95E1892B99F080E06E
S113251090E0892B79F022D381110AC008950E949A
S11325200000DBCF0E940000E3CF0E940000EBCF4D
S11325300C9400000895FC01848DDF01A80FB11DE7
S1132540A35ABF4F2C91848D90E001968F739927E5
S1132550848FA689B7892C93A089B1898C918370C3
S113256080648C93938D848D981306C00288F389BC
S1132570E02D80818F7D80830895EF92FF920F93E9
S11325801F93CF93DF93EC0181E0888F9B8D8C8D1B
S1132590981305C0E889F989808185FD25C0F62E48
S11325A00B8D10E00F5F1F4F0F731127E02E8C8DE2
S11325B0E8120BC00FB607FCFACFE889F9898081CD
S11325C085FFF5CFCE01B7DFF2CF8B8DFE01E80F8B
S11325D0F11DE35AFF4FF0829FB7F8940B8FEA89FD
S11325E0FB89808180620AC09FB7F894EE89FF89D5
S11325F06083E889F98980818370806480839FBFC8
S113260081E090E0DF91CF911F910F91FF90EF90C7
S11326100895CF93DF93EC01888D8823C1F0EA8974
S1132620FB89808185FD05C0A889B9898C9186FDC7
S11326300EC00FB607FCF5CF808185FFF2CFA889C5
S1132640B9898C9185FFEDCFCE0175DFE8CFDF919D
S1132650CF910895CF92DF92EF92FF921F93CF9381
S1132660DF93EC016A017B01122FE889F98982E08A
S113267080834115514E61057105B1F060E079E048
S11326808DE390E0A70196010E945540DA01C9014B
S11326900197A109B109B695A795979587959C01CE
S11326A0211580E13807A8F0E889F989108260E8EB
S11326B074E88EE190E0A70196010E945540DA018A
S11326C0C9010197A109B109B695A7959795879571
S11326D09C01EC85FD853083EE85FF852083188E73
S11326E0EC89FD891083EA89FB898081806180837C
S11326F0EA89FB89808188608083EA89FB898081FB
S113270080688083EA89FB8980818F7D8083DF9163
S1132710CF911F91FF90EF90DF90CF90089508958F
S11327201F920F920FB60F9211240BB60F922F9394
S11327308F939F93EF93FF93E091620EF091630E5A
S11327408081E091680EF091690E82FD12C0908143
S113275080916B0E8F5F8F7320916C0E821751F0F6
S1132760E0916B0EF0E0EE5AF14F958F80936B0E73
S113277001C08081FF91EF919F918F912F910F90D4
S11327800BBE0F900FBE0F901F9018951F920F92C3
S11327900FB60F9211240BB60F922F933F934F93C2
S11327A05F936F937F938F939F93AF93BF93EF93B5
S11327B0FF9382E59EE0BFDEFF91EF91BF91AF9161
S11327C09F918F917F916F915F914F913F912F9145
S11327D00F900BBE0F900FBE0F901F90189582E5BF
S11327E09EE033DE21E0892B09F420E0822F089556
S11327F0E2E5FEE01382128288EE93E0A0E0B0E00E
S113280084839583A683B78387EE95E09183808341
S113281085EC90E09587848784EC90E097878687A1
S113282080EC90E0918B808B81EC90E0938B828B99
S113283082EC90E0958B848B86EC90E0978B868B72
S1132840118E128E138E148E08951F920F920FB64E
S11328500F9211240BB60F922F938F939F93EF93A4
S1132860FF93E091FF0EF091000F8081E091050F3E
S1132870F091060F82FD12C090818091080F8F5F46
S11328808F732091090F821751F0E091080FF0E047
S1132890E151F14F958F8093080F01C08081FF9122
S11328A0EF919F918F912F910F900BBE0F900FBEC0
S11328B00F901F9018951F920F920FB60F9211242C
S11328C00BB60F922F933F934F935F936F937F9326
S11328D08F939F93AF93BF93EF93FF938FEE9EE0FD
S11328E02ADEFF91EF91BF91AF919F918F917F91DC
S11328F06F915F914F913F912F910F900BBE0F906D
S11329000FBE0F901F9018958FEE9EE09EDD21E084
S1132910892B09F420E0822F0895EFEEFEE0138264
S1132920128288EE93E0A0E0B0E084839583A683CE
S1132930B78387EE95E0918380838DEC90E0958753
S113294084878CEC90E09787868788EC90E0918B65
S1132950808B89EC90E0938B828B8AEC90E0958B52
S1132960848B8EEC90E0978B868B118E128E138E57
S1132970148E08951F920F920FB60F9211240BB666
S11329800F922F938F939F93EF93FF93E0919C0F5C
S1132990F0919D0F8081E091A20FF091A30F82FD31
S11329A012C090818091A50F8F5F8F732091A60F25
S11329B0821751F0E091A50FF0E0E457F04F958FA6
S11329C08093A50F01C08081FF91EF919F918F911A
S11329D02F910F900BBE0F900FBE0F901F90189564
S11329E01F920F920FB60F9211240BB60F922F93D2
S11329F03F934F935F936F937F938F939F93AF9383
S1132A00BF93EF93FF938CE89FE095DDFF91EF91E7
S1132A10BF91AF919F918F917F916F915F914F91F2
S1132A203F912F910F900BBE0F900FBE0F901F90F0
S1132A3018958CE89FE009DD21E0892B09F420E05A
S1132A40822F0895ECE8FFE01382128288EE93E06F
S1132A50A0E0B0E084839583A683B78387EE95E0F6
S1132A609183808385ED90E09587848784ED90E061
S1132A709787868780ED90E0918B808B81ED90E045
S1132A80938B828B82ED90E0958B848B86ED90E026
S1132A90978B868B118E128E138E148E08951F922F
S1132AA00F920FB60F9211240BB60F922F938F93A0
S1132AB09F93EF93FF93E0913910F0913A10808146
S1132AC0E0913F10F091401082FD12C090818091FE
S1132AD042108F5F8F7320914310821751F0E09161
S1132AE04210F0E0E75DFF4E958F8093421001C0E5
S1132AF08081FF91EF919F918F912F910F900BBE49
S1132B000F900FBE0F901F9018951F920F920FB643
S1132B100F9211240BB60F922F933F934F935F9311
S1132B206F937F938F939F93AF93BF93EF93FF9391
S1132B3089E290E100DDFF91EF91BF91AF919F9108
S1132B408F917F916F915F914F913F912F910F9052
S1132B500BBE0F900FBE0F901F90189589E290E165
S1132B6074DC21E0892B09F420E0822F0895E9E246
S1132B70F0E11382128288EE93E0A0E0B0E0848357
S1132B809583A683B78387EE95E09183808385E35D
S1132B9091E09587848784E391E09787868780E333
S1132BA091E0918B808B81E391E0938B828B82E324
S1132BB091E0958B848B86E391E0978B868B118EC5
S1132BC0128E138E148E0895089571D3FDDF0E9422
S1132BD0AB08C2E6D2E10E945B092097E1F372DC04
S1132BE0FACFCF92DF92EF92FF920F931F93CF937E
S1132BF0DF936C017A018B01C0E0D0E0CE15DF05D4
S1132C0081F0D8016D918D01D601ED91FC91019077
S1132C10F081E02DC6011995892B11F02196EECF94
S1132C207E01C701DF91CF911F910F91FF90EF902B
S1132C30DF90CF9008956115710579F0FB01019043
S1132C400020E9F73197AF01461B570BDC01ED91EA
S1132C50FC910280F381E02D199480E090E00895C6
S1132C60EF92FF920F931F93CF93DF938C017B011D
S1132C70C0E0D0E0F701EC0FFD1F6491662361F022
S1132C80D801ED91FC910190F081E02DC8011995D6
S1132C90892B11F02196EECFCE01DF91CF911F91B8
S1132CA00F91FF90EF900895DB0114964D915C9184
S1132CB015976D917C91DC01ED91FC910280F3817B
S1132CC0E02D1994B8CFDC01ED91FC910190F081D5
S1132CD0E02D199460E173E0AECF0F931F93CF936F
S1132CE0DF93EC01BDDF8C01CE01F4DF800F911F77
S1132CF0DF91CF911F910F9108950F931F93CF935D
S1132D00DF93EC01D1DF8C01CE01E4DF800F911F52
S1132D10DF91CF911F910F9108950F931F93CF933C
S1132D20DF93EC0188DF8C01CE01D4DF800F911F8B
S1132D30DF91CF911F910F9108950F931F93CF931C
S1132D40DF93EC01C0DF8C01CE01C4DF800F911F43
S1132D50DF91CF911F910F9108958F929F92AF921F
S1132D60BF92EF92FF920F931F93CF93DF93CDB750
S1132D70DEB7A1970FB6F894DEBF0FBECDBF7C01BE
S1132D80FA01CB0119A2223008F42AE08E010F5D6A
S1132D901F4F822E912CA12CB12CBF01A5019401AF
S1132DA00E945540F901CA01015011096A3010F41A
S1132DB0605D01C0695CD8016C93232B242B252B07
S1132DC061F7B801C70137DFA1960FB6F894DEBFEB
S1132DD00FBECDBFDF91CF911F910F91FF90EF9068
S1132DE0BF90AF909F908F9008952115310541F4C5
S1132DF0DC01ED91FC910190F081E02D642F199498
S1132E00ACCF9A01462F50E060E070E0EECF0F9314
S1132E101F93CF93DF93EC01F4DF8C01CE015ADFD3
S1132E20800F911FDF91CF911F910F9108959A0107
S1132E30AB0160E070E0D9CFCF92DF92EF92FF92C6
S1132E400F931F93CF93DF932115310581F4DC0198
S1132E50ED91FC910190F081E02D642FDF91CF91F1
S1132E601F910F91FF90EF90DF90CF9019942A302B
S1132E703105F1F477FF1BC06A017B01EC016DE2BF
S1132E8022DF8C0144275527BA014C195D096E09CC
S1132E907F092AE0CE0161DF800F911FDF91CF917E
S1132EA01F910F91FF90EF90DF90CF9008952AE04B
S1132EB0DF91CF911F910F91FF90EF90DF90CF9012
S1132EC04CCF9A01AB01770F660B770BB5CF0F93FD
S1132ED01F93CF93DF93EC01F4DF8C01CE01FADE74
S1132EE0800F911FDF91CF911F910F9108957F92D1
S1132EF08F929F92AF92BF92CF92DF92EF92FF9206
S1132F000F931F93CF93DF938C016A017B01722E81
S1132F109A01AB01C701B6010E942240882319F02F
S1132F2065EF75E025C046015701E894B7F82FEF27
S1132F303FEF4FE75FE7C501B4010E9422408111D2
S1132F400CC02FEF3FEF4FE75FE7C501B401C7D8CF
S1132F5018161CF469EF75E00BC02FEF3FEF4FE735
S1132F605FE4C701B6010ADA18168CF46DEF75E058
S1132F70C801DF91CF911F910F91FF90EF90DF90E7
S1132F80CF90BF90AF909F908F907F9054CE2FEFB3
S1132F903FEF4FE75FECC701B601A1D887FDE6CF4D
S1132FA020E030E0A901C701B60199D887FF09C024
S1132FB06DE2C80188DEEC01F7FAF094F7F8F094BA
S1132FC002C0C0E0D0E0B12C60E070E080E09FE39C
S1132FD07B1439F020E030E040E251E484D8B3942B
S1132FE0F7CFA701960117D86B017C01E9D84B01F3
S1132FF05C012AE0AB01BC01C801AFDEC80FD91FD8
S1133000772081F1C501B40107D99B01AC01C70147
S1133010B60100D86B017C016EE2C80154DEC80F12
S1133020D91F20E030E040E251E4C701B601AAD93B
S11330304B015C01C5D86B017C014AE050E0C8013A
S1133040F6DEC80FD91FB60180E090E0E5D89B01F9
S1133050AC01C501B4010E940A106B017C017A9491
S11330607110DFCFCE01DF91CF911F910F91FF90AF
S1133070EF90DF90CF90BF90AF909F908F907F9014
S1133080089535CF0F931F93CF93DF93EC012FDF78
S11330908C01CE011FDE800F911FDF91CF911F9114
S11330A00F9108950F931F93CF93DF93EC0189D071
S11330B0688779878A879B87E881F9810284F38509
S11330C0E02DCE01199597FF16C07BD00885198590
S11330D02A853B85DC01CB01801B910BA20BB30B32
S11330E00C811D812E813F8180179107A207B307B0
S11330F018F38FEF9FEFDF91CF911F910F910895F8
S11331000F931F93CF93DF93EC018B0162E173E084
S1133110ABD2C801C7DF97FD04C0682FCE01E5D24A
S1133120F8CFCE01DF91CF911F910F9108951F9297
S11331300F920FB60F9211242F933F938F939F9367
S1133140AF93BF938091C7109091C810A091C910FC
S1133150B091CA103091C61023E0230F2D3720F40C
S11331600196A11DB11D05C026E8230F0296A11DDD
S1133170B11D2093C6108093C7109093C810A093DC
S1133180C910B093CA108091CB109091CC10A0912B
S1133190CD10B091CE100196A11DB11D8093CB101E
S11331A09093CC10A093CD10B093CE10BF91AF915B
S11331B09F918F913F912F910F900FBE0F901F9071
S11331C018952FB7F8946091C7107091C81080912A
S11331D0C9109091CA102FBF08953FB7F8948091F9
S11331E0CB109091CC10A091CD10B091CE1026B5FB
S11331F0A89B05C02F3F19F00196A11DB11D3FBF2B
S1133200BA2FA92F982F8827820F911DA11DB11DB8
S1133210BC01CD0142E0660F771F881F991F4A95B4
S1133220D1F708958F929F92AF92BF92CF92DF927F
S1133230EF92FF926B017C01D0DF4B015C01C11462
S1133240D104E104F104F9F00E941530C6DFDC0179
S1133250CB0188199909AA09BB09883E9340A105A5
S1133260B10568F321E0C21AD108E108F10888EE3B
S1133270880E83E0981EA11CB11CC114D104E10482
S1133280F10421F7DCCFFF90EF90DF90CF90BF9057
S1133290AF909F908F9008958230910538F0880FF9
S11332A0991F880F991F05970197F1F7089578944E
S11332B084B5826084BD84B5816084BD85B5826037
S11332C085BD85B5816085BDEEE6F0E080818160D5
S11332D08083E1E8F0E010828081826080838081D5
S11332E081608083E0E8F0E0808181608083E1EBAD
S11332F0F0E0808184608083E0EBF0E08081816095
S11333008083E1E9F0E08081826080838081816054
S11333108083E0E9F0E0808181608083E1EAF0E08D
S1133320808182608083808181608083E0EAF0E034
S1133330808181608083E1E2F1E08081826080832A
S1133340808181608083E0E2F1E08081816080831C
S1133350EAE7F0E0808184608083808182608083FA
S11333608081816080838081806880831092C10025
S11333700895863308F0865390917B00282F287097
S1133380977F922B90937B0020910F0290E4299FCA
S1133390900111248770822B80937C0080917A00A5
S11333A0806480937A0080917A0086FDFCCF8091BE
S11333B078002091790090E0922B089590E0FC0130
S11333C03197E231F10508F04EC08827E458FF4FE9
S11333D08F4F0C949340809180008F7703C080912D
S11333E080008F7D80938000089580918000877F86
S11333F0F9CF84B58F7702C084B58F7D84BD0895DD
S11334008091B0008F7703C08091B0008F7D80934E
S1133410B0000895809190008F7707C0809190004C
S11334208F7D03C080919000877F809390000895E2
S11334308091A0008F7707C08091A0008F7D03C08A
S11334408091A000877F8093A0000895809120013F
S11334508F7707C0809120018F7D03C08091200168
S1133460877F809320010895CF93DF9390E0FC0140
S1133470E054FE4F2491FC01EA5FFD4F84918823C0
S113348061F190E0880F991FFC01E058FD4FC59150
S1133490D491FC01EA59FD4FA591B491611109C081
S11334A09FB7F8948881209582238883EC912E23FA
S11334B00BC0623061F49FB7F8948881322F309545
S11334C083238883EC912E2B2C939FBF06C08FB748
S11334D0F894E8812E2B28838FBFDF91CF91089534
S11334E01F93CF93DF93282F30E0F901E658FE4F66
S11334F08491F901E054FE4FD491F901EA5FFD4F44
S1133500C491CC23B9F0162F811158DFEC2FF0E0D1
S1133510EE0FFF1FEA59FD4FA591B4919FB7F894A0
S1133520111104C08C91D095D82302C0EC91DE2BEC
S1133530DC939FBFDF91CF911F910895CF93DF93C9
S1133540282F30E0F901E658FE4F8491F901E05448
S1133550FE4FD491F901EA5FFD4FC491CC2389F069
S113356081112CDFEC2FF0E0EE0FFF1FE45BFD4F29
S1133570A591B491EC91ED2381E090E021F480E0F9
S113358002C080E090E0DF91CF910895FC0180813A
S11335909181009711F00C946C410895CF93DF93BF
S11335A0EC0188819981009711F00E946C41198285
S11335B018821D821C821B821A82DF91CF9108958A
S11335C00F931F93CF93DF93EC018B016F5F7F4FBA
S11335D0888199810E94F541009731F0998388830D
S11335E01B830A8381E001C080E0DF91CF911F91AA
S11335F00F910895CF93DF93EC0188819981892BF2
S113360029F08A819B818617970758F4CE01D8DF69
S1133610882341F08C819D81892B19F4E881F981FB
S1133620108281E0DF91CF910895EF92FF920F9382
S11336301F93CF93DF93EC017B018A01BA01DADF98
S1133640811103C0CE01AADF07C01D830C83B7011B
S1133650888199810E947843CE01DF91CF911F9197
S11336600F91FF90EF900895FC0111821082138254
S11336701282158214826115710549F0FB010190D3
S11336800020E9F73197AF01461B570BCECF0895C1
S1133690EF92FF920F931F93CF93DF936115710500
S11336A011F480E01BC041155105B9F07B01EC0118
S11336B08C819D818A01080F191FB801CE019ADF00
S11336C0882379F3288139818C819D81B701820F08
S11336D0931F0E9478431D830C8381E0DF91CF9177
S11336E01F910F91FF90EF900895CF93DF931F9256
S11336F01F92CDB7DEB769831A8241E050E0BE0164
S11337006F5F7F4FC5DF0F900F90DF91CF910895CA
S1133710FC0180819181009711F00C94F94260E0E2
S113372070E0CB010895EF92FF920F931F93CF9314
S1133730DF93C62F7A01022FFC0160818CED91E1A9
S11337400E9483296C2F8CED91E10E943229E701BC
S113375010E0CE018E199F098017910734F4699106
S11337608CED91E10E943229F4CF8CED91E1DF914F
S1133770CF911F910F91FF90EF900C94072ACF9354
S1133780DF931F92CDB7DEB7498321E0AE014F5FCF
S11337905F4FC9DF0F90DF91CF910895FC01248121
S11337A02E7F248321FB442740F950E0440F551F0A
S11337B063E0E5CFCF93DF93EC0168838CED91E177
S11337C00E947129198240E060E0CE01D8DF8FE3C6
S11337D08A834FE361E0CE01D2DFCE01DFDF8B814C
S11337E08E7F8B8340E062E0CE01C9DF64E670E047
S11337F080E090E017DD81E0DF91CF9108956F9232
S11338007F928F929F92AF92BF92CF92DF92EF926C
S1133810FF920F931F93CF93DF938C01662E6A015F
S1133820722EC0E0C715A0F5D72DDC1BD13208F0ED
S1133830D0E2F80160818CED91E10E9483296C2F24
S1133840660D8CED91E10E9432298CED91E10E948C
S1133850072A4D2FF80160818CED91E10E94022A24
S1133860812C912CAD2EB12C8C2F880D8A149B04A5
S113387014F0CD0FD7CF7601E80EF11C8CED91E159
S11338800E94AB28F7018083FFEF8F1A9F0AECCFC9
S1133890DF91CF911F910F91FF90EF90DF90CF9028
S11338A0BF90AF909F908F907F906F9008958F926C
S11338B09F92AF92BF92CF92DF92EF92FF920F93BB
S11338C01F93CF93DF93CDB7DEB7F62E172F042FB8
S11338D08DB69EB6242F220F46FD20E84DB75EB765
S11338E0421B51090FB6F8945EBF0FBE4DBFEDB732
S11338F0FEB731965F01AF0160E881DFCF2CD12E96
S1133900E12CF12C10E0E016F1065CF58E2D880F09
S1133910F501E80FF11D618170E0762F6627808143
S1133920682B94E0660F771F9A95E1F724E075956C
S113393067952A95E1F7072E000C880B990B0E94D6
S11339400E1120E030E040E85EE30E94C211F6016F
S113395061937193819391936F01FFEFEF1AFF0AC3
S1133960D2CF0FB6F8949EBE0FBE8DBEDF91CF911D
S11339701F910F91FF90EF90DF90CF90BF90AF9089
S11339809F908F9008950F93FC0180E092E1AAE745
S1133990B0E030E0481759076A077B0740F4B69552
S11339A0A795979587953F5F3630A1F737E091E06B
S11339B09327222311F020E501C020E70C70892F02
S11339C08695082B022B0083917091830F910895A3
S11339D02091D911222399F04FB7F8942091D9114D
S11339E0213059F42DB32093D7113DB32091D81130
S11339F0209523232DBB4FBF02C04093D7118CBD0C
S1133A009DBD08958091D911882361F09FB7F894E2
S1133A102091D9118091D711213019F48DBB9FBF0A
S1133A2008958FBF0895DF92EF92FF920F931F9333
S1133A30CF93DF93EC01FC01EA54FF4F8081918125
S1133A40009739F4FE01E854FF4F8081918100977B
S1133A5071F0DC01ED91FC910190F081E02DDF919A
S1133A60CF911F910F91FF90EF90DF901994D62E74
S1133A707E01BAEBEB0EF11CF70180819181009776
S1133A8041F4FE01E454FF4F80819181892B09F5B3
S1133A9014C0FE01EB5DFE4F60810E948329D701B3
S1133AA08D919C91DC01ED91FC910190F081E02DD0
S1133AB06D2D19958C01019719F000E010E024C0D8
S1133AC061E0F701808191810E948E298111D9CF13
S1133AD01BC0FE01E154FF4F8081918179DFC25404
S1133AE0DF4F888187FD02C060E0FADCDEBC0000A5
S1133AF00DB407FEFDCF8EB5888187FD02C061E05D
S1133B00EFDC80DF01E010E0C801DF91CF911F916D
S1133B100F91FF90EF90DF900895CF92DF92EF9294
S1133B20FF920F931F93CF93DF937B018A016A0166
S1133B308EE2C81A88EFD80AF801C191D1918F0199
S1133B4042E050E06AE076E0CE010E947F43892B98
S1133B5091F00C151D0579F0FE0101900020E9F7A4
S1133B603197AF014C1B5D0BB701CE010E947F431F
S1133B70892B11F702C0C0E0D0E0CE01DF91CF91D4
S1133B801F910F91FF90EF90DF90CF9008958F9247
S1133B909F92AF92BF92CF92DF92EF92FF920F93D8
S1133BA01F93CF93DF93EC018B01CB010E94F94269
S1133BB04B015C0120E137E240E050E00E945540B7
S1133BC02CAB24E6C22ED12CE12CF12CA7019601BA
S1133BD00E9455402DABC501B401A70196010E9476
S1133BE055406EAB6EE270E0C8010E9464430196DA
S1133BF00E94DC4298AF8FABFE01EB55FF4FCF54D0
S1133C00DF4F88819981AA81BB8180839183A283BC
S1133C10B383DF91CF911F910F91FF90EF90DF90CD
S1133C20CF90BF90AF909F908F9008954F925F92E6
S1133C306F927F928F929F92AF92BF92EF92FF9278
S1133C400F931F93CF93DF93CDB7DEB72A970FB6A9
S1133C50F894DEBF0FBECDBFFB0120812C3209F4E6
S1133C60A6C08B017C0142E050E0CE0101960E9487
S1133C708D431B82CE0101960E94F9429B01AC0147
S1133C8060E876E988E990E00E9427402B013C0136
S1133C90B8016E5F7F4F42E050E0CE0101960E9472
S1133CA08D43B8016B5F7F4F44E050E0CE01039633
S1133CB00E948D431F82CE0101960E94F9429B010E
S1133CC0AC01A2E3B0E00E94B64023E030E040E063
S1133CD050E00E94774049015A01F701EC5BFF4F25
S1133CE0D301C201820F931FA41FB51F8083918348
S1133CF0A283B383C301B20120EA36E841E050E075
S1133D000E947740CA01B9010E940E112B013C01A7
S1133D10C501B4010E940E112CE933E549EC56E3C8
S1133D200E94C2119B01AC01C301B2010E940B109D
S1133D302B013C01F70164AF75AF86AF97AF20E06C
S1133D4030E048EC52E40E9473100E94DB104B01F7
S1133D505C01FCE4EF0EF11C84E6889DB001899DB2
S1133D60700D1124072E000C880B990B0E940E1164
S1133D709B01AC01C301B2010E940A1020E030E0B3
S1133D8040E752E40E9473102B013C01B401990CEA
S1133D90880B990B0E940E119B01AC01C301B20167
S1133DA00E940B10F70160837183828393832A96A8
S1133DB00FB6F894DEBF0FBECDBFDF91CF911F9138
S1133DC00F91FF90EF90BF90AF909F908F907F9056
S1133DD06F905F904F900895FB0120812335F9F493
S1133DE0FC01EC58FF4F2083B897408151816281D8
S1133DF07381705840835183628373833897408101
S1133E0051816281738170956095509541955F4FA2
S1133E106F4F7F4F408351836283738306C02E3478
S1133E2031F4FC01EC58FF4F208381E008952C32DB
S1133E3029F4FC01EC58FF4F1082F7CF80E008957D
S1133E404F925F926F927F928F929F92AF92BF92A6
S1133E50EF92FF920F931F93CF93DF93CDB7DEB70B
S1133E602A970FB6F894DEBF0FBECDBFFB012081A9
S1133E702C3209F4A8C08B017C0143E050E0CE0150
S1133E8001960E948D431C82CE0101960E94F94244
S1133E909B01AC0160E876E988E990E00E94274044
S1133EA02B013C01B8016D5F7F4F42E050E0CE0131
S1133EB001960E948D43B8016A5F7F4F44E050E051
S1133EC0CE0103960E948D431F82CE0101960E946B
S1133ED0F9429B01AC01A2E3B0E00E94B64023E0AA
S1133EE030E040E050E00E94774049015A01F70178
S1133EF0E85BFF4FD301C201820F931FA41FB51FBC
S1133F0080839183A283B383C301B20120EA36E89C
S1133F1041E050E00E947740CA01B9010E940E11AD
S1133F202B013C01C501B4010E940E112CE933E5BB
S1133F3049EC56E30E94C2119B01AC01C301B201DA
S1133F400E940B102B013C01F701E05CFF4F6083E2
S1133F5071838283938320E030E048EC52E40E9432
S1133F6073100E94DB104B015C01F0E5EF0EF11CB5
S1133F7084E6889DB001899D700D1124072E000CE4
S1133F80880B990B0E940E119B01AC01C301B20175
S1133F900E940A1020E030E040E752E40E947310CF
S1133FA02B013C01B401990C880B990B0E940E1152
S1133FB09B01AC01C301B2010E940B10F7016083A5
S1133FC07183828393832A960FB6F894DEBF0FBE63
S1133FD0CDBFDF91CF911F910F91FF90EF90BF90D4
S1133FE0AF909F908F907F906F905F904F900895C7
S1133FF0FB0120812C3239F12735F9F4FC01EB580F
S1134000FF4F2083B597408151816281738170583D
S113401040835183628373833897408151816281E5
S1134020738170956095509541955F4F6F4F7F4FA9
S1134030408351836283738306C0253431F4FC01C9
S1134040EB58FF4F208381E0089580E00895FB0141
S11340502081213499F4FC01E958FF4F21E02083A9
S1134060BA96DC01AF54BF4F8D919D910D90BC91D8
S1134070A02D80839183A283B38306C0263531F4B7
S1134080FC01E958FF4F108281E0089580E0089513
S11340902F923F924F925F927F928F929F92AF9214
S11340A0BF92CF92DF92EF92FF920F931F93CF9321
S11340B0DF93EC0186D81B012C01FE01EB54FF4F6A
S11340C08081882311F0712C64C18E010A541F4F22
S11340D0D8018D919C910097A9F0DC01ED91FC91A0
S11340E00084F185E02D1995892B69F3F80180810D
S11340F09181DC01ED91FC910284F385E02D199509
S1134100782E01C0712C8E0108541F4FF801808154
S113411091810097A9F0DC01ED91FC910084F18577
S1134120E02D1995892B09F434C1F801808191811E
S1134130DC01ED91FC910284F385E02D1995782E34
S11341405E01BAEBAB0EB11CD501ED91FC91309739
S113415009F462C07E01B9EBEB1ABEEFFB0AD7018A
S11341609C918E010A5B1E4FD8018C91891764F0D3
S1134170FE01E90FF11D97FDFA95EA5DFE4F70808F
S11341809F5FF701908348C021E030E040E250E0B7
S113419060E170E0CF010E94062A803209F0F9C084
S11341A0D8011C9280E2C82ED12CFE01E85BFE4FA0
S11341B04F01D5018D919C91DC01ED91FC9102841C
S11341C0F385E02D19958A3021F4F40190819D3016
S11341D079F4D4018C93F8019081FE01E90FF11D6B
S11341E097FDFA95EA5DFE4F80839F5FD8019C930B
S11341F0B1E0CB1AD108E9F6F801808181508083BF
S1134200811107C0CA5DDE4F88818A3011F48FEFB7
S11342108083D7011C92BDC0FE01E454FF4F80810E
S11342209181892B09F43EC05E01BFEBAB0EB11C3A
S11342308E0102541F4F99249A946E01E8EBCE1A12
S1134240EEEFDE0AD5018D919C91C2DBF8018081ED
S113425087FD02C060E044D99EBC00000DB407FE97
S1134260FDCF7EB4D8018C9187FD02C061E038D9BE
S1134270C9DBBAE07B1204C0F60180818D3011F7EE
S1134280E72CF12CC7010E942143892B29F0FE0160
S1134290E85BFE4F708206C0C7010E942743892B4A
S11342A089F2F5CF8E01065C1D4FD8018D919C914A
S11342B0FE01E75CFD4F208131E0320F3083820F35
S11342C0911DDC017C928081883710F087E7808320
S11342D0BAE07B124AC02081D8018D919C91820F53
S11342E0911DDC011C92D8016D917C911197AE0156
S11342F0475B5E4F9E012F533E4FCE01845C9D4F22
S11343006417750731F42D933C93DC016D937C9312
S113431006C0D8014D935C93DC012D933C9310822D
S1134320FE01E25CFD4F81E080830E94E118FE0102
S1134330E355FF4F6083718382839383CF54DF4FB0
S11343408091CF109091D010A091D110B091D21043
S113435088839983AA83BB831092CF101092D010C4
S11343601092D1101092D21014C08091CF1090915D
S1134370D010A091D110B091D210892B8A2B8B2B05
S113438041F42092CF103092D0104092D11050922C
S1134390D210872DDF91CF911F910F91FF90EF9055
S11343A0DF90CF90BF90AF909F908F907F905F9061
S11343B04F903F902F900895FC01DC01AA54BF4F09
S11343C011961C921E92129611961C921E9212968F
S11343D011961C921E92129611961C921E92AE5722
S11343E0BE4F1C92A958B1401C92AC57BE4F1C92B0
S11343F01196875B9E4F11969C938E9312968858C4
S11344009F4F11969C938E93A25CB1401C9211977E
S11344101C9211971C9213AE12AE11AE16AA15AAD5
S113442014AA12971C9211971C9211971C9213961E
S11344301C9210AE17AA17971D921D921D921C92E2
S1134440139714971D921D921D921C921397149703
S11344501D921D921D921C92139714971D921D92EA
S11344601D921C92139714971D921D921D921C92DB
S1134470139714971D921D921D921C9213971497D3
S11344801D921D921D921C92139714971D921D92BA
S11344901D921C92139754971D921D921D921C926B
S11344A0139714AE15AE16AE17AE0895EF92FF92A1
S11344B00F931F93CF93DF93EC017B011B821A822E
S11344C08EE896E0998388831D821C821E821F8257
S11344D0188684E1FE013996DF01982F1D929A9582
S11344E0E9F71D8E1E8E1F8E7796DF011D928A9529
S11344F0E9F7DE01A957BF4F8AE0E0E2F2E001905C
S11345000D928A95E1F7DE01AF56BF4F8AE0EAE2E9
S1134510F2E001900D928A95E1F7FE01E556FF4F16
S113452089E096E091838083329680E094E9A5E364
S1134530B7E780839183A283B38334968083918386
S1134540A283B383349680839183A283B383349606
S113455080839183A283B383349680839183A283DF
S1134560B383349680839183A283B3833D961FEFF4
S1134570108300E021E040E452E46FE070E0CE01FB
S113458081549F4F00DAFE01EA5BFE4F108331969F
S1134590108231961082EF50FF4F1082CE010CDF53
S11345A0C854DF4FF982E882DF91CF911F910F91B8
S11345B0FF90EF900895825C9D4FFC0180810895E7
S11345C0FC01E25CFD4F1082329780819181089555
S11345D0603358F06A3310F480ED05C08FEB860F1A
S11345E0863018F489EC860F089580E00895CF9200
S11345F0DF92EF92FF920F931F93CF93DF93EC011F
S11346001D821C82FB0180818432C1F481E090E030
S11346109D838C83CB017C010196F70120812111BC
S1134620FACFF70180818A3259F06E157F0530F494
S1134630F1E0EF1AF108F5CF892BE1F080E05EC0DC
S11346408B01F7016181CE01C3DFF0E18F9F60012F
S11346501124F7016281CE01BBDF9601280F311DC1
S1134660C9010F5F1F4FF801EE15FF0528F72191CF
S11346708227FACF83E090E09D838C83AE01495773
S11346805F4FB801CE0149DA7C010097B9F2BC0151
S1134690CE0106960E9478438DE090E09D838C8342
S11346A0F70101900020E9F73197EE19FF090E0F89
S11346B01F1FAE014F565F4FB801CE012EDA00978F
S11346C051F0BC01CE0109960E94784389E490E040
S11346D09D838C8312C0AE0145565F4FB801CE0155
S11346E01CDA009751F0BC01CE0109960E94784370
S11346F081E290E09D838C83A1CF81E0DF91CF9113
S11347001F910F91FF90EF90DF90CF9008954F92FB
S11347105F926F927F928F929F92AF92BF92DF923D
S1134720EF92FF920F931F93CF93DF93EC018B01D2
S11347305EDFD82E811102C0D12C35C26CE270E04C
S1134740C8010E9464438C010F5F1F4F7E0189E002
S1134750E80EF11C69E176E0C7010E946F43892BE2
S113476009F0ADC0B801CE0112DA6CE270E0C80104
S11347700E9464438C010F5F1F4FB801CE0156DACB
S11347806CE270E0C8010E9464438C010F5F1F4F0C
S1134790B801CE0121DB882379F26CE270E0C80114
S11347A00E9464438C010F5F1F4FB801CE0148DBA8
S11347B06CE270E0C8010E9464438C010F5F1F4FDC
S11347C0B801CE0115DC882309F4B6CF6CE270E0A1
S11347D0C8010E9464438C010F5F1F4FFC0181815B
S11347E08C32C1F0C8010E94DC42FE01E858FF4F40
S11347F080833197882369F081E08083FA968081F1
S11348009181A281B381709780839183A283B383C2
S113481001C010826CE270E0C8010E9464438C0104
S11348200F5F1F4FFC0181818C3239F0C8010E9457
S1134830DC42FE01E658FF4F80836CE270E0C80161
S11348400E9464438C010F5F1F4FFC0181818C32F5
S113485051F0C8010E94D942FE01E859FF4F60831C
S11348607183828393836CE270E0C8010E94644385
S11348708C010F5F1F4FFC0181818C3251F0C80104
S11348800E94D942FE01E85AFF4F608371838283FC
S113489093836CE270E0C8010E9464436CE270E0B0
S11348A001960E946443FC0121812C3209F467C102
S11348B001960E94D942FE01EC5AFF4F5CC165E2A9
S11348C076E0C7010E946F43892B09F0A5C0B801A7
S11348D0CE015DD96CE270E0C8010E9464438C0192
S11348E00F5F1F4FB801CE01B2DB882309F424CF38
S11348F06CE270E0C8010E9464438C010F5F1F4F9B
S1134900B801CE0193D96CE270E0C8010E946443FF
S11349108C010F5F1F4FB801CE015EDA882309F4C2
S11349200BCF6CE270E0C8010E9464438C010F5FFE
S11349301F4FB801CE0184DA6CE270E0C8010E9416
S113494064438C010F5F1F4FB801CE0151DB8823F4
S113495009F4F2CE6CE270E0C8010E9464438C0159
S11349600F5F1F4FFC0181818C3251F0C8010E94FE
S1134970D942FE01E45AFF4F60837183828393839B
S11349806CE270E0C8010E9464438C010F5F1F4F0A
S1134990FC0181818C3251F0C8010E94D942FE0190
S11349A0E05AFF4F60837183828393836CE270E0EB
S11349B0C8010E946443FC0121812C3209F4DFC048
S11349C001960E94D9420E94E0102B013C0120E193
S11349D037E240E050E00E9455402BAF24E6822E9F
S11349E0912CA12CB12CA50194010E9455402AAF11
S11349F0C301B201A50194010E94554069AFFE01B3
S1134A00EF54FF4F80819181A281B38138978083D5
S1134A109183A283B383B3C06DE176E0C7010E94A2
S1134A206F43892B09F042C0B801CE01FFD86CE274
S1134A3070E0C8010E9464438C010F5F1F4FB801EE
S1134A40CE01CAD9882309F477CE6CE270E0C8019C
S1134A500E9464438C010F5F1F4FB801CE01F0D94F
S1134A606CE270E0C8010E9464438C010F5F1F4F29
S1134A70B801CE01BDDA882309F45ECE6CE270E0A1
S1134A80C8010E9464438C010F5F1F4FB801CE011F
S1134A907ED86CE270E0C8010E946443BC016F5F81
S1134AA07F4FCE01D4DA81116AC046CE61E276E04E
S1134AB0C7010E946F43892B09F03ECE6CE270E07F
S1134AC0C8010E9464438C010F5F1F4FFC01818168
S1134AD08C3239F0C8010E94DC42FE01E758FF4FD6
S1134AE080838CE0A82EB12C6CE270E0C8010E9497
S1134AF064438C010F5F1F4FF1E0AF1AB108A1F7B7
S1134B006CE270E0C8010E9464438C010F5F1F4F88
S1134B10FC0181818C3251F0C8010E94D942FE010E
S1134B20E059FF4F60837183828393836CE270E06A
S1134B30C8010E9464438C010F5F1F4FFC018181F7
S1134B408C3251F0C8010E94D942FE01E859FF4F4E
S1134B5060837183828393836CE270E0C8010E9456
S1134B606443FC0121812C3251F001960E94D94208
S1134B70FE01E459FF4F6083718382839383BE01F6
S1134B806A5F7F4FCE014D960E947843B701CE01F4
S1134B9080960E9478430E94E118C356DF4F6883D1
S1134BA079838A839B838D2DDF91CF911F910F9100
S1134BB0FF90EF90DF90BF90AF909F908F907F9089
S1134BC06F905F904F900895CF93DF931F92CDB76E
S1134BD0DEB7FC0119826370668BDC01AA5BBF4FF0
S1134BE08C91982F9B7FAF014C5B5F4F913029F4E0
S1134BF0623008F493E0DA019C939F012D5B3F4FF0
S1134C006230D9F0633009F43FC0613071F0823012
S1134C1011F0843029F490EC9983813019F415C093
S1134C2098EC10C08430B1F01CC0823011F0843094
S1134C3011F490EA2EC098EA35C0823091F08430A5
S1134C4049F098E09983813061F480E890E093879B
S1134C5082870DC080EA90E09387828780E590E0A8
S1134C6006C080EA90E09387828780E890E091878D
S1134C708087D9018C9190E092AF81AFDA018C9159
S1134C8090E094AF83AF2DC0823011F0843049F4AA
S1134C9090E69983813051F480E890E09187808791
S1134CA014C098E69983813051F4F6CF843039F4F6
S1134CB080EA90E09187808780E590E006C080EAF2
S1134CC090E09187808780E890E093878287D9017C
S1134CD08C9190E094AF83AFDA018C9190E092AF25
S1134CE081AF21E0AE014F5F5F4F66E3CF010E94C9
S1134CF0B2390F90DF91CF910895EF920F93CF9334
S1134D00DF93EC01E22E042F262F40EA50E060E806
S1134D1070E0B7D08AE996E099838883DF91CF91D8
S1134D200F91EF900895411551056105710521F426
S1134D3040E058E468EE71E0FC01FF964083518343
S1134D406283738321E2FC0125AF20E226AFEB5B93
S1134D50FF4F20810C94DD378F929F92AF92BF92C8
S1134D60CF92DF92EF92FF920F931F93CF93DF9333
S1134D70EC0189AD9AAD4B01880E991E8BAD9CADAB
S1134D80480F591FC9010197880D991DA0E0B0E093
S1134D90A12CB12C540199248824882A992AAA2A5E
S1134DA0BB2A015011096801C40ED51E860120E0FA
S1134DB030E06A01E12CF12C7601DD24CC24C02AF8
S1134DC0D12AE22AF32A6AE2CE010E944C39B501C3
S1134DD0A401CE010E94873A6BE2CE010E944C39B5
S1134DE0B701A601CE010E94873A6CE2CE01DF91A1
S1134DF0CF911F910F91FF90EF90DF90CF90BF90D4
S1134E00AF909F908F900C944C39CF93DF931F9267
S1134E10CDB7DEB7FC0119826370668B8D5B9F4F43
S1134E20AF014C5B5F4F623049F0633091F0613009
S1134E3019F020EC298302C020EA0CC0DC018C911B
S1134E4090E092AF81AFDA018C9190E094AF83AFA0
S1134E500CC020E62983DC018C9190E094AF83AFF1
S1134E60DA018C9190E092AF81AF21E0AE014F5F07
S1134E705F4F66E3CF010E94B2390F90DF91CF916B
S1134E800895EF920F93CF93DF93EC010E94D037F4
S1134E908AEC96E099838883FE01ED5BFF4F1082D4
S1134EA031961082CB5BDF4F1882DF91CF910F9147
S1134EB0EF900895AF92BF92CF92DF92EF92FF925C
S1134EC00F931F93CF93DF93EC01E62EA72EF42EBE
S1134ED0B52E69018FEF9FEF9D838C839F838E8313
S1134EE061E08E2D0E94341A60E08F2D0E94341AE6
S1134EF0E882A982FA82BB82DD82CC821F830E8380
S1134F00DF91CF911F910F91FF90EF90DF90CF90A1
S1134F10BF90AF900895CF92DF92EF92FF92CF931C
S1134F20DF93EC0160E088810E94701A85E090E0D4
S1134F300E944C1961E088810E94701A8AE090E016
S1134F400E944C1960E088810E94701A8A810E9434
S1134F509E1A892BD9F30E94ED186B017C018A817A
S1134F600E949E1A0197D9F30E94ED18CB018C1967
S1134F709D09DF91CF91FF90EF90DF90CF9008953E
S1134F80CF93DF93EC01C7DF97FD0196BC017595C4
S1134F906795072E000C880B990B0E940E1127EEC3
S1134FA03BEF49EA5EE30E94C2110E94DB109B01C1
S1134FB04C815D814F3FAFEF5A0721F4EE81FF81B1
S1134FC0319659F0421753072CF44E815F81241710
S1134FD035071CF08FEF9FEF01C0CB01DF91CF911C
S1134FE008951F920F920FB60F9211240BB60F92D1
S1134FF02F933F934F935F936F937F938F939F93DD
S1135000AF93BF93EF93FF93E091D511F091D61135
S1135010309709F44FC0968DA685B785858591FF95
S113502004C09C91892329F445C09C91892309F0EB
S113503041C0A389B4899C918589809589238C93E7
S1135040868997890197F1F7608D718DA685B7855B
S1135050558538E020E0CB010197F1F7822F90E0ED
S113506095958795282F4C91452309F02068315058
S113507091F7868D81FD20958091D41090E0019662
S11350803091D310381749F0A091D410B0E0AB524E
S1135090BF4E2C938093D41003C0868D8160868F7D
S11350A0828D938D0197F1F7A389B4899C918589A9
S11350B0892B8C93FF91EF91BF91AF919F918F9129
S11350C07F916F915F914F913F912F910F900BBE04
S11350D00F900FBE0F901F901895CF93CFB7F894F1
S11350E08091DA11811127C0EBE3F2E08491E5EFBE
S11350F0F1E09491E82FF0E0EE0FFF1FE058FD4F30
S1135100A591B491EC91E92321F461E085E30E9437
S1135110701A61E085E30E94341A8CB580618CBDFD
S11351208CB580648CBD61E084E30E94341A61E034
S113513083E30E94341A8091DA118F5F8093DA112D
S1135140CFBFCF9108958091101290E02091111259
S1135150821B910908959091111280911012981751
S113516050F4E92FF0E0EE5EFD4E208130E09F5FC9
S11351709093111202C02FEF3FEFC9010895E091FF
S1135180111280911012E81730F4F0E0EE5EFD4E3B
S1135190808190E008958FEF9FEF08950895CF9355
S11351A0DF93EC01E091E811F091E9113097F1F00F
S11351B090911112809110129817C0F090E0292F4D
S11351C030E02617370754F4DE01A20FB31F4C91C9
S11351D0D901AE5EBD4E4C939F5FF1CF1092111278
S11351E060931012CB01DF91CF911994DF91CF918D
S11351F00895E091EA11F091EB11309729F01092A3
S1135200EE111092ED1119940895CF92DF92EF925E
S1135210FF920F931F93CF93DF937C01CB018A01FD
S11352202091EC11222389F0EB016B01C40ED51EF1
S1135230CC15DD0569F06991D701ED91FC910190E0
S1135240F081E02DC7011995F3CF642F0E94B23E7F
S1135250C801DF91CF911F910F91FF90EF90DF90E4
S1135260CF900895CF93DF931F92CDB7DEB76983B4
S11352702091EC112223D1F02091ED11203240F045
S113528021E030E0FC013383228380E090E015C00C
S11352908091EE11E82FF0E0E151FE4E9981908368
S11352A08F5F8093EE118093ED1105C061E0CE0114
S11352B001960E94B23E81E090E00F90DF91CF9181
S11352C00895FC011382128288EE93E0A0E0B0E01E
S11352D084839583A683B7838AEF96E09183808342
S11352E0089510921112109210121092EE11109251
S11352F0ED110E94F63D89EF98E20E94DF3E8FECAB
S113530098E20C94DA3E81E08093EC1160930F12E2
S11353101092EE111092ED110895F5CF0F93062F10
S113532021E04091ED116FEE71E180910F120E9426
S11353305C3E1092EE111092ED111092EC110F914F
S113534008954F925F926F927F92AF92BF92CF92E5
S1135350EF92FF920F931F93CF93DF935C01F62E8E
S1135360D42F28013901EE2011F1CDDFCE2DC43028
S113537008F0C3E0C150C0F028E0C29FC00111246E
S1135380A301920104C056954795379527958A95B0
S1135390D2F7CA01B901D501ED91FC910190F081D8
S11353A0E02DC5011995E6CF60E0C501B7DF4D2FAB
S11353B0D13208F040E22C2D62E172E18F2D0E947F
S11353C0143E1092111280931012DF91CF911F910D
S11353D00F91FF90EF90CF90BF90AF907F906F9020
S11353E05F904F900895CF92EF920F931F93C22E28
S11353F0E12C00E010E09801A4DF1F910F91EF90E1
S1135400CF90089521E0EFCF21E0EDCFECCF61E024
S113541085CF8CED91E155CF885E9E4FDC018D9157
S11354209C91DC01ED91FC910084F185E02D1994AF
S1135430885E9E4FDC018D919C91DC01ED91FC9185
S11354400190F081E02D1994885E9E4FDC018D91CE
S11354509C91DC01ED91FC910284F385E02D19947B
S1135460885E9E4FDC018D919C91DC01ED91FC9155
S11354700484F585E02D1994885E9E4FDC018D919E
S11354809C91DC01ED91FC910680F781E02D19944B
S1135490FC011382128288EE93E0A0E0B0E08483E2
S11354A09583A683B78383E697E09183808364879B
S11354B0DF01A35FBE4F87E294E011969C938E9325
S11354C0129611961C921E92129611961C921E927E
S11354D0179611961C921E9215971C92119682E2B1
S11354E094E08D939C93EA5EFE4F8FE194E0918368
S11354F0808308950F931F93CF93DF93EC0180E093
S113550090E08C010F5F1F4F8897D8F4E881F981F0
S11355100084F185E02DCE011995892B51F0E881A5
S1135520F9810284F385E02DCE01199500E010E0A5
S1135530EDCF61E070E080E090E00E941219C801B4
S1135540E0CFDF91CF911F910F910895AF92BF9259
S1135550CF92DF92EF92FF920F931F93CF93DF933B
S1135560EC018B016C018EE0C80ED11CE12CF12CF6
S11355705E01A8EEAA1AAEEFBA0A0E151F0519F1BC
S1135580BEEFEB16F104E9F0F50180819181DC01B5
S1135590ED91FC910084F185E02D1995892B69F337
S11355A0F50180819181DC01ED91FC910284F38508
S11355B0E02D1995F60181936F01FFEFEF1AFF0AB1
S11355C0DCCF0EEF10E0C00FD11F1E86C801DF91A3
S11355D0CF911F910F91FF90EF90DF90CF90BF90EC
S11355E0AF900895BF92CF92DF92EF92FF920F9304
S11355F01F93CF93DF937C01B42E8B01C0E0D0E0E6
S11356006C0188EEC81A8EEFD80A0115110589F1CC
S1135610CE3FD10570F5D6018D919C91DC01ED91C1
S1135620FC910084F185E02D1995892BC1F0F601D8
S113563080819181DC01ED91FC910284F385E02D60
S113564019958D3041F38A3021F4209721F3BB2042
S113565081F0F701EC0FFD1F86872196DCCF015006
S1135660110939F061E070E080E090E00E941219C5
S1135670CCCFF701EC0FFD1F16868C2FDF91CF9155
S11356801F910F91FF90EF90DF90CF90BF900895FE
S1135690EF92FF920F931F93CF93DF93EC018B0153
S11356A07A0128DF6FEA72E082E59EE00E943016FC
S11356B0B80182E59EE00E948D16FE01E85EFE4F71
S11356C0B801808191810E948D1640E0B701CE011E
S11356D089DF182F68EA72E082E59EE00E943016A6
S11356E0BE01625F7F4F82E59EE00E948D16812F8E
S11356F0DF91CF911F910F91FF90EF900895EF925A
S1135700FF920F931F93CF93DF93EC018B017A01E8
S1135710F1DE61EA72E082E59EE00E943016B80193
S113572082E59EE00E946D16FE01E85EFE4FB80120
S1135730808191810E946D1640E0B701CE0152DF55
S1135740182F6AE972E082E59EE00E943016BE01DD
S1135750625F7F4F82E59EE00E948D16812FDF916C
S1135760CF911F910F91FF90EF9008950F931F9386
S1135770CF93DF93EC018A01A901C1DF882341F0B3
S1135780B801CE010E960E942F4321E0892B09F027
S113579020E0822FDF91CF911F910F910895BF9246
S11357A0CF92DF92EF92FF920F931F93CF93DF93E9
S11357B0EC016C0188EEC81A8EEFD80AD6016D93FD
S11357C07C9361E08C850E94341A61E08C850E9490
S11357D0701A6AE070E080E090E00E94121960E0C4
S11357E08C850E94701A64E670E080E090E00E946C
S11357F0121961E08C850E94701A6EEF73E082E5E5
S11358009EE00E946D168EE0E82EF12C8E010A5E59
S11358101E4FF60180819181DC01ED91FC910084A1
S1135820F185E02D1995892B59F0F601808191813C
S1135830DC01ED91FC910284F385E02D1995E9CF0B
S1135840F8014081518124EF31E06BEF73E0CE0128
S11358508DDF81115FC0D6018D919C91DC01ED91AA
S1135860FC910084F185E02D1995892B59F0F601FE
S113587080819181DC01ED91FC910284F385E02D1E
S11358801995E9CF24EF31E048EF53E065EF73E079
S1135890CE016CDF81113EC064EF71E080E090E0E6
S11358A00E941219B1E0EB1AF10809F0B2CF63ECCF
S11358B073E082E59EE00E946D16F80140815181FB
S11358C024EF31E060EC73E0CE0150DF64E670E079
S11358D080E090E00E941219D8014D915C9124EF70
S11358E031E06DEB73E0CE0141DF64E670E080E00F
S11358F090E00E941219F8014081518124EF31E0B7
S11359006AEB73E0CE0132DF64E670E080E090E0A1
S11359100E941219F8014081518124EF31E065EBB6
S113592073E0CE0123DF64E670E080E090E00E9443
S11359301219D8014D915C9124EF31E060EB73E0D2
S1135940CE0114DFB82E882309F49DC0F8014081EC
S1135950518124EF31E066EA73E0CE0107DF64E6AB
S113596070E080E090E00E941219CE01C3DD6FE97F
S113597073E082E59EE00E9430166AE177E082E5FA
S11359809EE00E948D166AE177E0D6018D919C918C
S11359900E948D1641E064EF71E0CE0123DE68E9D8
S11359A073E082E59EE00E9430167E01BEE0EB0EBD
S11359B0F11CB70182E59EE00E948D166DE873E04C
S11359C0C7010E944143892B11F083E023C062E8A0
S11359D073E0C7010E944143892B11F082E01AC091
S11359E067E773E0C7010E944143892B11F081E00E
S11359F011C067E673E0C7010E944143892B11F08F
S1135A0084E008C067E573E0C7010E944143892B25
S1135A1011F085E08D878D85813061F560E573E057
S1135A2082E59EE00E9430166EE177E082E59EE01A
S1135A300E948D166EE177E0F601808191810E94CB
S1135A408D1641E064EF71E0CE01CCDD69E473E0D2
S1135A5082E59EE00E943016B70182E59EE00E9436
S1135A608D1661E473E0C7010E944143892B11F054
S1135A7086E08D87D8014D915C9124EF31E06AE294
S1135A8073E0CE0173DE8B2DDF91CF911F910F91C7
S1135A90FF90EF90DF90CF90BF9008950F931F93E6
S1135AA0CF93DF93EC018A01A901F2DD882341F051
S1135AB0B801CE010E960E942F4321E0892B09F0F4
S1135AC020E0822FDF91CF911F910F910895AF9223
S1135AD0BF92CF92DF92EF92FF920F931F93CF93D7
S1135AE0DF93CDB7DEB76E970FB6F894DEBF0FBE67
S1135AF0CDBF8C015B016A01FC01EA5EFE4F40816F
S1135B00518124EF31E066EC72E030DE882309F441
S1135B1083C08AE0E5E6F2E09E012F5F3F4F790102
S1135B20D90101900D928A95E1F7FE013B9684E13B
S1135B30DF011D928A95E9F743E150E0B501CE01FA
S1135B400A960E948D43F70101900020E9F73197EE
S1135B5082E2808324EF31E043EC52E0B701C801D4
S1135B609DDF882309F458C060EC72E082E59EE072
S1135B700E943016B60182E59EE00E948D16B601A1
S1135B807801B8EEEB1ABEEFFB0AF7018081918130
S1135B900E948D16D7018D919C910E946A16F7017F
S1135BA080819181DC01ED91FC910190F081E02DE7
S1135BB06AE1199567E377E082E59EE00E948D161D
S1135BC0F80185858450823050F440E068EC70E040
S1135BD0C80108DD40E068EC70E0C80103DD40E086
S1135BE060E177E2C801FEDC7801FEE0EF0EF11C13
S1135BF06AE377E0C7010E949C43892B69F040E087
S1135C0068EE73E0C801EEDC6DE077E0C7010E9446
S1135C106F4321E0892B09F020E0822F6E960FB6A6
S1135C20F894DEBF0FBECDBFDF91CF911F910F91CE
S1135C30FF90EF90DF90CF90BF90AF900895DF92E8
S1135C40EF92FF920F931F93CF93DF93CDB7DEB7FD
S1135C502C970FB6F894DEBF0FBECDBF8C01D62EA5
S1135C607C018AEEE81A8EEFF80AF701408151812F
S1135C7024EF31E066EB72E0C80178DD882311F18E
S1135C808CE0E0E4F7E0DE01119601900D928A9534
S1135C90E1F78D2D64E60E94364020E3280F298722
S1135CA0892F6AE00E943640805D8A87905D9B87D9
S1135CB0F7014081518120ED37E0BE016F5F7F4FD6
S1135CC0C801ECDE2C960FB6F894DEBF0FBECDBF34
S1135CD0DF91CF911F910F91FF90EF90DF90089586
S1135CE0AF92BF92CF92DF92EF92FF920F93CF9336
